1*NATI209610202001070038632020010700000000000000
2000000000386320200107209610PREF. DE: MA - ACAILANDIA               ACA0033248201912290912R.MARLY SARNEY, CENTRO                                      NXN9374MA3055       HONDA/BIZ 125 ES                             PARTICULAR                    MOTONETA        PRETA     00000000THALYA VIANA DA SILVA                       RUA TANCREDO NEVES QD 10 NR. 06         - SUNIL II                              65930000ACAILANDIA          MADIR.VEIC. UTILIZANDO-SE DE TELEFONE CELULAR       252 * VI           00000000073662   0000130160096120200108202002210000000000000000000000000                                                00000000000  000   1     00040444167368073662PASSAGEIRO
2000000000386320200107209610PREF. DE: MA - ACAILANDIA               ACA0033247201912290810R.RIO GRANDE, CENTRO                                        PSG9053MA3055       HONDA/BIZ 125 EX                             PARTICULAR                    MOTONETA        BRANCA    00000000DIEGO COSTA DIAS                            RUA 13 DE MAIO NR. 972                  - LARANJEIRAS                           65930000ACAILANDIA          MADIR.VEIC. UTILIZANDO-SE DE TELEFONE CELULAR       252 * VI           00000000073662   0000130160096120200108202002210000000000000000000000000                                                00000000000  000   2     00040444167492973662PASSAGEIRO
2000000000386320200107209610PREF. DE: MA - ACAILANDIA               ACA0033246201912290808R.RIO GRANDE, CENTRO                                        PSG9053MA3055       HONDA/BIZ 125 EX                             PARTICULAR                    MOTONETA        BRANCA    00000000DIEGO COSTA DIAS                            RUA 13 DE MAIO NR. 972                  - LARANJEIRAS                           65930000ACAILANDIA          MAAVANCAR SINAL VERMELHO DO SEMAFORO                208                00000000060501   0000293470096120200108202002210000000000000000000000000                                                00000000000  000   3     00070444167677860501PASSAGEIRO
2000000000386320200107209610PREF. DE: MA - ACAILANDIA               ACA0033214201912290900R.MARLY SARNEY N.450, CENTRO                                PSM0893MA3154       HONDA/BIZ 125 EX                             PARTICULAR                    MOTONETA        VERMELHA  00000000SUELITA DO MONTE VIANA FEITOSA              R TERTULIANO SAMPAIO NR. LT 26          QD 38 - VL BOM JARDIM                   65930000ACAILANDIA          MACOND. MOTOC/MOTON./CICLOM TRANSPORTANDO/PASSAG.S/C244 * II           00000000070481   0000293470096120200108202002210000000000000000000000000                                                00000000000  000   4     00070444167927070481PASSAGEIRO
2000000000386320200107209610PREF. DE: MA - ACAILANDIA               ACA0033215201912290901R.MARLY SARNEY PX.AGRODOG                                   PSM0893MA3154       HONDA/BIZ 125 EX                             PARTICULAR                    MOTONETA        VERMELHA  00000000SUELITA DO MONTE VIANA FEITOSA              R TERTULIANO SAMPAIO NR. LT 26          QD 38 - VL BOM JARDIM                   65930000ACAILANDIA          MATRANSIT. VEICULO COM LOTACAO EXCEDENTE            231 * VII          00000000068580   0000130160096120200108202002210000000000000000000000000                                                00000000000  000   5     00040444168082168580PASSAGEIRO
2000000000386320200107209610PREF. DE: MA - ACAILANDIA               ACA0033264201912290753R.DUQUE DE CAXIAS C/R.S.PAULO                               PTI4438MA3179       HONDA/NXR 160 BROS                           PARTICULAR                    MOTOCICLETA     PRETA     00000000ANTONIA SOARES DE SOUSA SILVA               RUA JOSE SARMENTO QD 125 NR. N 05       - N ACAILANDIA                          65930000ACAILANDIA          MAAVANCAR SINAL VERMELHO DO SEMAFORO                208                00000000060501   0000293470096120200108202002210000000000000000000000000                                                00000000000  000   6     00070444168266260501PASSAGEIRO
2000000000386320200107209610PREF. DE: MA - ACAILANDIA               ACA0033265201912190956AV.BERNARDO SAYAO, CENTRO                                   NMV1758MA3179       HONDA/BIZ 125 ES                             PARTICULAR                    MOTONETA        AMARELA   00000000JANUZA DA SILVA LIMA                        RUA ANGELIN QD 38 NR. LT 11             - NV ACAILANDIA                         65930000ACAILANDIA          MAESTAC. EM DESACORDO C/ A REGULAMENTACAO ESPECIFICA181 * XVII         00000000055411   0000195230096120200108202002210000000000000000000000000                                                00000000000  000   7     00050444168589055411PASSAGEIRO
2000000000386320200107209610PREF. DE: MA - ACAILANDIA               ACA0032948201912200845R.MARLY SARNEY, CENTRO                                      MWV6598MA3179       GM/CELTA 4P LIFE                             PARTICULAR                    AUTOMOVEL       BRANCA    00000000VALERIA LIMA SILVA                          R CARTES NR. 03                         QD 02 LT 03A - PORTO SEGURO II          65930000ACAILANDIA          MADEIXAR O CONDUTOR DE USAR O CINTO E SEGURANCA     167                00000000051851   0000195230096120200108202002210000000000000000000000000                                                00000000000  000   8     00050444168929251851PASSAGEIRO
2000000000386320200107209610PREF. DE: MA - ACAILANDIA               ACA0032949201912200908R.DORGIVAL P. SOUSA, CENTRO                                 PSI0138MA3179       VW/NOVO FOX ROCK RIO MB                      PARTICULAR                    AUTOMOVEL       PRETA     00000000SIND DOS EMP NO C DE ACAIL MA               RUA GOIAS NR. 1700                      - CENTRO                                65930000ACAILANDIA          MADEIXAR O CONDUTOR DE USAR O CINTO E SEGURANCA     167                00000000051851   0000195230096120200108202002210000000000000000000000000                                                00000000000  000   9     00050444169266851851PASSAGEIRO
2000000000386320200107209610PREF. DE: MA - ACAILANDIA               ACA0033132201912220740R.CEARA PROX.MERCADO MUNICIPAL                              PTO3830MA3165       HONDA/BIZ 110I                               PARTICULAR                    MOTONETA        VERMELHA  00000000VERINALDA GUIMARAES LIMA                    RUA CEDRO QD 9 NR. N 3                  A - JARDIM GLORIA                       65930000ACAILANDIA          MATRANSIT. P/ CONTRAMAO EM VIAS C/ SENT. UNICO      186 * II           00000000057380   0000293470096120200108202002210000000000000000000000000                                                00000000000  000   10    00070444171601057380PASSAGEIRO
2000000000386320200107209610PREF. DE: MA - ACAILANDIA               ACA0033133201912220850R.MARLY SARNEY PX.MERCADO                                   OJJ1789MA3165       HONDA/NXR150 BROS ESD                        PARTICULAR                    MOTOCICLETA     PRETA     00000000GILDEAN ROQUE SILVA                         RUA 7 DE SETEMBRO NR. 668               - CENTRO                                65930000ACAILANDIA          MATRANSIT. VEICULO COM LOTACAO EXCEDENTE            231 * VII          00000000068580   0000130160096120200108202002210000000000000000000000000                                                00000000000  000   11    00040444172564768580PASSAGEIRO
2000000000386320200107209610PREF. DE: MA - ACAILANDIA               ACA0033134201912220950R.MARLY SARNEY PX.MERCADO                                   OXR3055MA3165       HONDA/NXR150 BROS ESD                        PARTICULAR                    MOTOCICLETA     PRETA     00000000ALEXANDRE DOS REIS SILVA                    R TOM JOBIM NR. 791                     - JACU                                  65930000ACAILANDIA          MATRANSIT. VEICULO COM LOTACAO EXCEDENTE            231 * VII          00000000068580   0000130160096120200108202002210000000000000000000000000                                                00000000000  000   12    00040444173291068580PASSAGEIRO
2000000000386320200107209610PREF. DE: MA - ACAILANDIA               ACA0033164201912200933RUA CEARA N.560, CENTRO                                     PTM3984MA3088       HONDA/POP 110I                               PARTICULAR                    MOTOCICLETA     BRANCA    00000000MARIA DA CONCEICAO DE A FERRO               QD 175 NR. N 94                         - VILA ILDEMAR                          65930000ACAILANDIA          MAESTAC. EM LOCAL/HORARIO PROIBIDO ESPECIFIC. P/SINA181*XVIII          00000000055500   0000130160096120200108202002210000000000000000000000000                                                00000000000  000   13    00040444173743255500PASSAGEIRO
2000000000386320200107209610PREF. DE: MA - ACAILANDIA               ACA0033203201912191030R.DUQUE DE CAXIAS N.760                                     OXV1667MA3154       CHEV/PRISMA 1.4AT LTZ                        PARTICULAR                    AUTOMOVEL       PRATA     00000000EULALIA DIAS DO NORTE                       RUA BENJAMIN CONSTANT NR. N88           - JACU                                  65930000ACAILANDIA          MAESTACIONAR AO LADO DE OUTRO VEICULO EM FILA DUPLA 181 * XI           00000000054870   0000195230096120200108202002210000000000000000000000000                                                00000000000  000   14    00050444174178254870PASSAGEIRO
2000000000386320200107209610PREF. DE: MA - ACAILANDIA               ACA0033209201912200919R.BOM JESUS FRT.CARTORIO 2 OFI                              OXR7088MA3154       HONDA/CG150 FAN ESDI                         PARTICULAR                    MOTOCICLETA     PRETA     00000000MAYCON KAIO LOPES LEAL                      RUA AUGUSTA CAPELOZA NR. 300            - CAPELOZA                              65930000ACAILANDIA          MAESTAC. EM LOCAL/HORARIO PROIBIDO ESPECIFIC. P/SINA181*XVIII          00000000055500   0000130160096120200108202002210000000000000000000000000                                                00000000000  000   15    00040444174624555500PASSAGEIRO
2000000000386320200107209610PREF. DE: MA - ACAILANDIA               ACA0033210201912201421R.DORGIVAL FRT.BRADESCO                                     HPX5276MA3154       GM/MONTANA CONQUEST                          PARTICULAR                    CAMINHONETE     PRATA     00000000ANTONIO CARLOS DA COSTA SOBRAL              RUA 3 NR. N3027                         CASA A - BACURI                         65900970IMPERATRIZ          MAESTAC. EM LOCAL/HORARIO PROIBIDO ESPECIFIC. P/SINA181*XVIII          00000000055500   0000130160096120200108202002210000000000000000000000000                                                00000000000  000   16    00040444175144355500CARGA
2000000000386320200107209610PREF. DE: MA - ACAILANDIA               ACA0033211201912201445R.SAO RAIMUNDO N.183, CENTRO                                MWK1336MA3154       I/FIAT SIENA EL FLEX                         PARTICULAR                    AUTOMOVEL       PRATA     00000000ALICE DA CONCEICAO                          RUA GOIAS NR. 02                        LT 12 - COLINAS PARK                    65930000ACAILANDIA          MAESTACIONAR NA CONTRAMAO DE DIRECAO                181 * XV           00000000055250   0000130160096120200108202002210000000000000000000000000                                                00000000000  000   17    00040444175335755250PASSAGEIRO
2000000000386320200107209610PREF. DE: MA - ACAILANDIA               ACA0033212201912201530AV.TACITO CALDAS N.288 CENTRO                               HWL0927MA3154       FIAT/PALIO EX                                PARTICULAR                    AUTOMOVEL       AZUL      00000000ADRIANO PAULO COSTA                          07 DE SETEMBRO NR. N 972               - CENTRO                                65930000ACAILANDIA          MAESTACIONAR AO LADO DE OUTRO VEICULO EM FILA DUPLA 181 * XI           00000000054870   0000195230096120200108202002210000000000000000000000000                                                00000000000  000   18    00050444175459054870PASSAGEIRO
2000000000386320200107209610PREF. DE: MA - ACAILANDIA               ACA0033213201912220900AV.BERNARDO SAYAO FRT.MERCADO                               PTG2847MA3154       HONDA/CG 160 TITAN                           PARTICULAR                    MOTOCICLETA     AZUL      00000000WEINER SILVA ARAUJO                         QD 42 NR. N 19                          - VILA BOM JARDIM                       65930000ACAILANDIA          MATRANSIT. P/ CONTRAMAO EM VIAS C/ SENT. UNICO      186 * II           00000000057380   0000293470096120200108202002210000000000000000000000000                                                00000000000  000   19    00070444175553857380PASSAGEIRO
2000000000386320200107209610PREF. DE: MA - ACAILANDIA               ACA0033226201912201001AV.DORGIVAL FRT.BANCO BRASIL                                OJH9794MA3055       HONDA/POP100                                 PARTICULAR                    MOTOCICLETA     PRETA     00000000FRANCISCO CARNEIRO DE OLIVEIRA              RUA C NR. S/N                           - ASSENTAMENTO                          65930000ACAILANDIA          MAESTAC. EM DESACORDO C/ A REGULAMENTACAO ESPECIFICA181 * XVII         00000000055411   0000195230096120200108202002210000000000000000000000000                                                00000000000  000   20    00050444175619455411PASSAGEIRO
2000000000386320200107209610PREF. DE: MA - ACAILANDIA               ACA0033228201912201556R.BOM JESUS, CENTRO                                         NXO5411MA3055       CHEVROLET/S10 LT DD2                         PARTICULAR                    CAMINHONETE     PRATA     00000000LUCIANO FELIZARDO DOS SANTOS                RUA VIANA NR. 03                        - PEQUIA                                65930000ACAILANDIA          MATRANSIT. P/ CONTRAMAO EM VIAS C/ SENT. UNICO      186 * II           00000000057380   0000293470096120200108202002210000000000000000000000000                                                00000000000  000   21    00070444175690957380ESPECIAL
2000000000386320200107209610PREF. DE: MA - ACAILANDIA               ACA0033229201912201521AV.DORGIVAL P. SOSUA, CENTRO                                PSJ4413MA3055       FIAT/STRADA WORKING                          PARTICULAR                    CAMINHONETE     BRANCA    00000000ROSANGELA ALVES DE OLIVEIRA                 RUA TOCANTINS NR. 134                   - VL SAO FRANCISCO                      65930000ACAILANDIA          MAESTAC. VEIC. NAS ESQU. E MENOS DE 5M DO ALINHAMENT181 * I            00000000053800   0000130160096120200108202002210000000000000000000000000                                                00000000000  000   22    00040444175871553800CARGA
2000000000386320200107209610PREF. DE: MA - ACAILANDIA               ACA0033230201912201505R.DR.GERVASIO FRT.EMBALART                                  PSU3735MA3055       CHEVROLET/ONIX 1.4AT LTZ                     PARTICULAR                    AUTOMOVEL       BRANCA    00000000MARCONI LIMA RIBEIRO                        RUA SANTOS DUMONT NR. NR 82             - CENTRO                                65930000ACAILANDIA          MAESTACIONAR AO LADO DE OUTRO VEICULO EM FILA DUPLA 181 * XI           00000000054870   0000195230096120200108202002210000000000000000000000000                                                00000000000  000   23    00050444176425154870PASSAGEIRO
2000000000386320200107209610PREF. DE: MA - ACAILANDIA               ACA0033231201912201506R.DR.GERVASIO FRT.EMBALART                                  OJJ5378MA3055       CHEVROLET/ONIX 1.4AT LT                      PARTICULAR                    AUTOMOVEL       BRANCA    00000000TAMIRES DA SILVA COSTA                      RUA BRASIL NR. N 165                    - VILA MARANHAO                         65930000ACAILANDIA          MAESTACIONAR AO LADO DE OUTRO VEICULO EM FILA DUPLA 181 * XI           00000000054870   0000195230096120200108202002210000000000000000000000000                                                00000000000  000   24    00050444177457554870PASSAGEIRO
2000000000386320200107209610PREF. DE: MA - ACAILANDIA               ACA0033232201912201451R.DORGIVAL P. SOUSA, CENTRO                                 MWJ4821MA3055       HONDA/NXR150 BROS ESD                        PARTICULAR                    MOTOCICLETA     PRETA     00000000JORDAN GEORDANO BRUNO COSTA                 R CASTELO BRANCO NR. N678               - CENTRO                                65930000ACAILANDIA          MATRANSIT. P/ CONTRAMAO EM VIAS C/ SENT. UNICO      186 * II           00000000057380   0000293470096120200108202002210000000000000000000000000                                                00000000000  000   25    00070444178688357380PASSAGEIRO
2000000000386320200107209610PREF. DE: MA - ACAILANDIA               ACA0033233201912201515R.SAO LUIS LADO LILIANE, CENTR                              PSP7774MA3055       I/TOYOTA HILUX CD4X4 STD                     PARTICULAR                    CAMINHONETE     PRATA     00000000ROGERIO SOARES PEREIRA                      RUA FORTALEZA NR. 428                   - CENTRO                                65930000ACAILANDIA          MAESTACIONAR AO LADO DE OUTRO VEICULO EM FILA DUPLA 181 * XI           00000000054870   0000195230096120200108202002210000000000000000000000000                                                00000000000  000   26    00050444179742754870ESPECIAL
2000000000386320200107209610PREF. DE: MA - ACAILANDIA               ACA0033234201912201516R.SAO LUIS N.372, CENTRO                                    JIX6671MA3055       I/KIA SORENTO EX2 2.4G27                     PARTICULAR                    CAMIONETA       BRANCA    00000000TIAGO TEIXEIRA ALMEIDA                      AV ATLANTICA NR. N1000                  - PQ DAS MANSOES                        65901001IMPERATRIZ          MAESTACIONAR AO LADO DE OUTRO VEICULO EM FILA DUPLA 181 * XI           00000000054870   0000195230096120200108202002210000000000000000000000000                                                00000000000  000   27    00050444180228554870MISTO
2000000000386320200107209610PREF. DE: MA - ACAILANDIA               ACA0033235201912201525R,DORGIVAL FRT.TOP CELL CENTRO                              OJC8312MA3055       CHEVROLET/COBALT 1.8 LTZ                     PARTICULAR                    AUTOMOVEL       BEGE      00000000ARTUR SANTANA LEDA JUNIOR                   RUA SAO RAIMUNDO NR. N 475              - CENTRO                                65930000ACAILANDIA          MAESTACIONAR AO LADO DE OUTRO VEICULO EM FILA DUPLA 181 * XI           00000000054870   0000195230096120200108202002210000000000000000000000000                                                00000000000  000   28    00050444180717154870PASSAGEIRO
2000000000386320200107209610PREF. DE: MA - ACAILANDIA               ACA0033236201912200915R.DORGIVAL FRT.TOP CELL CENTRO                              PTL7790MA3055       TOYOTA/COROLLA XEI20FLEX                     PARTICULAR                    AUTOMOVEL       BRANCA    00000000RAIMUNDO PEREIRA AMORIM                     RUA TOPAZIO NR. 05                      QD 23 - VL S FRANCISCO                  65930000ACAILANDIA          MAESTACIONAR AO LADO DE OUTRO VEICULO EM FILA DUPLA 181 * XI           00000000054870   0000195230096120200108202002210000000000000000000000000                                                00000000000  000   29    00050444180930154870PASSAGEIRO
2000000000386320200107209610PREF. DE: MA - ACAILANDIA               ACA0033237201912200920R.DORGIVAL FRT.TOP CELL CENTRO                              NXL1921MA3055       CHEVROLET/CLASSIC LS                         PARTICULAR                    AUTOMOVEL       PRATA     00000000ANTONIO ELSON COSTA MELO                    RUA NOLASCO DAS NEVES NR. N 14          QD 58 N A II - NV ACAILANDIAII          65930000ACAILANDIA          MAESTACIONAR AO LADO DE OUTRO VEICULO EM FILA DUPLA 181 * XI           00000000054870   0000195230096120200108202002210000000000000000000000000                                                00000000000  000   30    00050444180989154870PASSAGEIRO
2000000000386320200107209610PREF. DE: MA - ACAILANDIA               ACA0033239201912200928R.MARANHAO C/R.SAO FRANCISCO                                PTF3881MA3055       R/PRESIDENTE TRA CARGA1                      PARTICULAR                    REBOQUE         BRANCA    00000000OREN COM IMPORTACAO E EXP EIRELI            RUA CEARA NR. N 70                      - CENTRO                                65901610IMPERATRIZ          MAAVANCAR SINAL VERMELHO DO SEMAFORO                208                00000000060501   0000293470096120200108202002210000000000000000000000000                                                00000000000  000   31    00070444181075060501CARGA
2000000000386320200107209610PREF. DE: MA - ACAILANDIA               ACA0033240201912200929R.SAO FRANCISCO, CENTRO                                     MVN3355MA3055       GM/D20 CUSTOM S                              PARTICULAR                    CAMINHONETE     BRANCA    00000000ANTONIO GOMES DA SILVA FILHO                QUADRA 06 NR. 22 A                      - JARDIM DE ALAH                        65930000ACAILANDIA          MAAVANCAR SINAL VERMELHO DO SEMAFORO                208                00000000060501   0000293470096120200108202002210000000000000000000000000                                                00000000000  000   32    00070444181255860501CARGA
2000000000386320200107209610PREF. DE: MA - ACAILANDIA               ACA0033241201912201009AV.DORGIVAL FRT.TOP CELL                                    PSC3592MA3055       VW/SAVEIRO CS SURF MB                        PARTICULAR                    CAMINHONETE     VERMELHA  00000000LUIZ CARLOS CORREIA VASCONCELOS             RUA BONAIRE NR. 333                     - CENTRO                                65930000ACAILANDIA          MAESTACIONAR AO LADO DE OUTRO VEICULO EM FILA DUPLA 181 * XI           00000000054870   0000195230096120200108202002210000000000000000000000000                                                00000000000  000   33    00050444181381354870CARGA
2000000000386320200107209610PREF. DE: MA - ACAILANDIA               ACA0033242201912201450AV.DORGIVAL FRT.FEIRAO MOVEIS                               GCZ3959MA3055       I/TOYOTA HILUX CDSRXA4FD                     PARTICULAR                    CAMINHONETE     PRATA     00000000ERIVAN ALVES SANTOS                         RUA CEDRO QD 09 NR. N 03                - JD GLORIA                             65930000ACAILANDIA          MAESTACIONAR AO LADO DE OUTRO VEICULO EM FILA DUPLA 181 * XI           00000000054870   0000195230096120200108202002210000000000000000000000000                                                00000000000  000   34    00050444181596454870ESPECIAL
2000000000386320200107209610PREF. DE: MA - ACAILANDIA               ACA0033243201912201030R.DORGIVAL P. SOUSA, CENTRO                                 NND3312MA3055       FIAT/UNO MILLE WAY ECON                      PARTICULAR                    AUTOMOVEL       PRETA     00000000INVIOLAVEL A C E S DE A E LTDA              RUA ALEXANDRO OLIVEIRA NR. NR 12        QD 06 - JARDIM BRASIL                   65930000ACAILANDIA          MAAVANCAR SINAL VERMELHO DO SEMAFORO                208                00000000060501   0000293470096120200108202002210000000000000000000000000                                                00000000000  000   35    00070444183633360501PASSAGEIRO
2000000000386320200107209610PREF. DE: MA - ACAILANDIA               ACA0033244201912201035R.MARANHAO C/R.SAO FRANCISCO                                OXZ9303MA3055       HONDA/BIZ 125 EX                             PARTICULAR                    MOTONETA        BRANCA    00000000MARIA DAURINETE ALVES DA SILVA              RUA H QD 16 NR. 12                      - JARDIM DE ALAH                        65930000ACAILANDIA          MAAVANCAR SINAL VERMELHO DO SEMAFORO                208                00000000060501   0000293470096120200108202002210000000000000000000000000                                                00000000000  000   36    00070444184853660501PASSAGEIRO
2000000000386320200107209610PREF. DE: MA - ACAILANDIA               ACA0033245201912201452AV.DORGIVAL P. SOUSA, CENTRO                                PSC3592MA3055       VW/SAVEIRO CS SURF MB                        PARTICULAR                    CAMINHONETE     VERMELHA  00000000LUIZ CARLOS CORREIA VASCONCELOS             RUA BONAIRE NR. 333                     - CENTRO                                65930000ACAILANDIA          MAESTACIONAR AO LADO DE OUTRO VEICULO EM FILA DUPLA 181 * XI           00000000054870   0000195230096120200108202002210000000000000000000000000                                                00000000000  000   37    00050444185404854870CARGA
2000000000386320200107209610PREF. DE: MA - ACAILANDIA               ACA0033251201912200933R.RIO GRANDE, CENTRO                                        PYK8252MA3179       FORD/KA SE 1.0 HA B                          PARTICULAR                    AUTOMOVEL       BRANCA    00000000LACERDA COMERCIO E L DE V LTDA              AV DORGIVAL P DE SOUSA NR. 1245         - CENTRO                                65930000ACAILANDIA          MAPARAR SOBRE FAIXA DE PEDESTRE NA MUDDANCA DE SINAL183                00000000056731   0000130160096120200108202002210000000000000000000000000                                                00000000000  000   38    00040444186206756731PASSAGEIRO
2000000000386320200107209610PREF. DE: MA - ACAILANDIA               ACA0033252201912201028R.DUQUE DE CAXIAS N.948, CENTR                              NMV4545MA3179       HONDA/CB 300R                                PARTICULAR                    MOTOCICLETA     AMARELA   00000000RENILDO BRITO DAMASCENO                     RUA ANTONIO PIRES NR. 159               - PLANO DA SERRA                        65930000ACAILANDIA          MAESTAC. EM LOCAL/HORARIO PROIBIDO ESPECIFIC. P/SINA181*XVIII          00000000055500   0000130160096120200108202002210000000000000000000000000                                                00000000000  000   39    00040444186648855500PASSAGEIRO
2000000000386320200107209610PREF. DE: MA - ACAILANDIA               ACA0033253201912201037R.DORGIVAL P. SOSUA, CENTRO                                 OGW9397MA3179       VW/GOL 1.0                                   PARTICULAR                    AUTOMOVEL       PRETA     00000000OSEAS FLORENTINO ARRUDA FILHO               QUADRA 16 NR. 16                        - BOM JD DE CIMA                        65930000ACAILANDIA          MADEIXAR DE GUARDAR SEGURANCA LATERAL E FRONTAL     192                00000000058000   0000195230096120200108202002210000000000000000000000000                                                00000000000  000   40    00050444186998358000PASSAGEIRO
2000000000386320200107209610PREF. DE: MA - ACAILANDIA               ACA0033254201912201414R.DORGIVAL P. SOUSA, CENTRO                                 PTK5512MA3179       VW/FOX XTREME MB                             ALUGUEL                       AUTOMOVEL       BRANCA    00000000FRANCISCO DE ASSIS G DA SILVA               QD 39 NR. N 80                          - VL ILDEMAR                            65930000ACAILANDIA          MATRANSIT. VEICULO COM LOTACAO EXCEDENTE            231 * VII          00000000068580   0000130160096120200108202002210000000000000000000000000                                                00000000000  000   41    00040444187156268580PASSAGEIRO
2000000000386320200107209610PREF. DE: MA - ACAILANDIA               ACA0033255201912201436R.SAO RAIMUNDO LADO L.CONFER                                OXV7589MA3179       VW/SAVEIRO CD CROSS MA                       PARTICULAR                    CAMINHONETE     VERMELHA  00000000CICERA NASCIMENTO LEAL                      AV SINAL NR. 06                         QD 21 - PLANO DA SERRA                  65930000ACAILANDIA          MAESTACIONAR NA CONTRAMAO DE DIRECAO                181 * XV           00000000055250   0000130160096120200108202002210000000000000000000000000                                                00000000000  000   42    00040444187254255250ESPECIAL
2000000000386320200107209610PREF. DE: MA - ACAILANDIA               ACA0033256201912201436R.SAO RAIMUNDO LADO CONFER                                  OXS9697MA3179       VW/UP TAKE MA                                PARTICULAR                    AUTOMOVEL       BRANCA    00000000RODRIGO GALETI GAVA                         RUA SANTO DUMONT NR. 236                - CENTRO                                65930000ACAILANDIA          MAESTACIONAR NA CONTRAMAO DE DIRECAO                181 * XV           00000000055250   0000130160096120200108202002210000000000000000000000000                                                00000000000  000   43    00040444187492855250PASSAGEIRO
2000000000386320200107209610PREF. DE: MA - ACAILANDIA               ACA0033257201912201458R.DORGIVAL FRT.LOJA CENTRO                                  OXY7782MA3179       CHEV/PRISMA 1.4AT LTZ                        PARTICULAR                    AUTOMOVEL       BRANCA    00000000VALDINEIS FERNANDES DA SILVA                RUA JARANA QD35 NR. 08                  - NV ACAILANDIA                         65930000ACAILANDIA          MAESTACIONAR EM DESACORDO C/REGULAM-VAGA DE CARGA/DE181 * XVII         00000000055414   0000195230096120200108202002210000000000000000000000000                                                00000000000  000   44    00050444187576255414PASSAGEIRO
2000000000386320200107209610PREF. DE: MA - ACAILANDIA               ACA0033259201912201539R.MARANHAO LADO AGED E AGERP                                OIR8603MA3179       I/TOYOTA HILUX CD4X4 SRV                     PARTICULAR                    CAMINHONETE     BEGE      00000000TERESINHA SILVA LUCAS                       RUA TOPAZIO NR. LT 21                   QD 20 - JD AMERICA                      65930000ACAILANDIA          MAESTACIONAR NA CONTRAMAO DE DIRECAO                181 * XV           00000000055250   0000130160096120200108202002210000000000000000000000000                                                00000000000  000   45    00040444187642455250ESPECIAL
2000000000386320200107209610PREF. DE: MA - ACAILANDIA               ACA0033260201912220840R.MARLY SARNEY PX.MERCADO                                   NHP8529MA3179       DAFRA/SPEED 150                              PARTICULAR                    MOTOCICLETA     VERMELHA  00000000JOSE DE RIBAMAR ASSIS COSTA                 RUA B NR. 49                            - JD. S FRANCISCO                       65900000IMPERATRIZ          MACOND. MOTOC/MOTON./CICLOM TRANSPORTANDO/PASSAG.S/C244 * II           00000000070481   0000293470096120200108202002210000000000000000000000000                                                00000000000  000   46    00070444187700570481PASSAGEIRO
2000000000386320200107209610PREF. DE: MA - ACAILANDIA               ACA0033261201912220840R.MARLY SARNEY PX.MERCADO                                   NHP8529MA3179       DAFRA/SPEED 150                              PARTICULAR                    MOTOCICLETA     VERMELHA  00000000JOSE DE RIBAMAR ASSIS COSTA                 RUA B NR. 49                            - JD. S FRANCISCO                       65900000IMPERATRIZ          MATRANSIT. VEICULO COM LOTACAO EXCEDENTE            231 * VII          00000000068580   0000130160096120200108202002210000000000000000000000000                                                00000000000  000   47    00040444187785468580PASSAGEIRO
2000000000386320200107209610PREF. DE: MA - ACAILANDIA               ACA0033262201912220847R.MARLY SARNEY PX.MERCADO                                   NXQ9963MA3179       FIAT/UNO WAY 1.0                             PARTICULAR                    AUTOMOVEL       BRANCA    00000000POSTO MAGNOLIA LTDA                         STI BR 316 NR. SN                       - SAO CRISTOVAO                         65300000SANTA INES          MADIR.VEIC. UTILIZANDO-SE DE TELEFONE CELULAR       252 * VI           00000000073662   0000130160096120200108202002210000000000000000000000000                                                00000000000  000   48    00040444187871073662PASSAGEIRO
2000000000386320200107209610PREF. DE: MA - ACAILANDIA               ACA0033263201912220847R.MARLY SARNEY PX.MERCADO                                   NXQ9963MA3179       FIAT/UNO WAY 1.0                             PARTICULAR                    AUTOMOVEL       BRANCA    00000000POSTO MAGNOLIA LTDA                         STI BR 316 NR. SN                       - SAO CRISTOVAO                         65300000SANTA INES          MATRANSPORTAR CRIANCA SEM AS NORMAS DE SEGURANCA EST168                00000000051930   0000293470096120200108202002210000000000000000000000000                                                00000000000  000   49    00070444187972551930PASSAGEIRO
3000049000000000049
