1*NATI207570201912240047472019122400000000000000
2000000000474720191224207570PREF. DE: MA - CAXIAS                   CXA0078860201912041555RUA MENINO DEUS                                             OJE2589MA123611-SAMTYAMAHA/FACTOR YBR125 K                       PARTICULAR                    MOTOCICLETA     PRETA     00000000CELSO MACHADO MENDES                        TRAV SAO JOSE III NR. 1302              - PIRAJA                                65600000CAXIAS              MACOND. MOTOCICLETA/MOTONETA/CICLOM S/CAPACETE DE SE244 * I            00000000070301   0000293470075720191225202002070000000000000000000000000                                                00000000000  000   1     00070442076564070301PASSAGEIRO
2000000000474720191224207570PREF. DE: MA - CAXIAS                   CXA0078861201912041605RUA MENINO DEUS                                             PSA6745MA123611-SAMTHONDA/CG 150 TITAN ESD                       PARTICULAR                    MOTOCICLETA     PRETA     00000000BRANDIN DA SILVA                            TV ABEL ANTUNES NR. 720                 - CENTRO                                65600130CAXIAS              MACOND. MOTOC/MOTON./CICLOM TRANSPORTANDO/PASSAG.S/C244 * II           00000000070481   0000293470075720191225202002070000000000000000000000000                                                00000000000  000   2     00070442076636070481PASSAGEIRO
2000000000474720191224207570PREF. DE: MA - CAXIAS                   CXA0078862201912041610RUA MENINO DEUS                                             PTN0669MA123611-SAMTHONDA/CG 160 START                           PARTICULAR                    MOTOCICLETA     VERMELHA  00000000MARIA DA GRACA ARAUJO DUTRA                 PV JACURUTU III NR. S/N                 - ZONA RURAL                            65609899CAXIAS              MACOND. MOTOC/MOTON./CICLOM TRANSPORTANDO/PASSAG.S/C244 * II           00000000070481   0000293470075720191225202002070000000000000000000000000                                                00000000000  000   3     00070442076651470481PASSAGEIRO
2000000000474720191224207570PREF. DE: MA - CAXIAS                   CXA0078863201912041610RUA MENINO DEUS                                             NXI1056MA123611-SAMTHONDA/NXR150 BROS ES                         PARTICULAR                    MOTOCICLETA     PRETA     00000000SANDRA DE MELO                              RUA COHAB NR. SN                        - PIQUIZINHO                            65950000BARRA DO CORDA      MACOND. MOTOC/MOTON./CICLOM TRANSPORTANDO/PASSAG.S/C244 * II           00000000070481   0000293470075720191225202002070000000000000000000000000                                                00000000000  000   4     00070442076663870481PASSAGEIRO
2000000000474720191224207570PREF. DE: MA - CAXIAS                   CXA0078864201912041655AV ALEXANDRE COSTA                                          NXM7579MA123611-SAMTYAMAHA/FACTOR YBR125 K                       PARTICULAR                    MOTOCICLETA     VERMELHA  00000000DARISTON CLEMER BRITO E SILVA               R.DO COTOVELO N.875 NR.                 - CANGALHEIRO                           65600000CAXIAS              MACOND. MOTOC/MOTON./CICLOM TRANSPORTANDO/PASSAG.S/C244 * II           00000000070481   0000293470075720191225202002070000000000000000000000000                                                00000000000  000   5     00070442076679470481PASSAGEIRO
2000000000474720191224207570PREF. DE: MA - CAXIAS                   CXA0078865201912041700AV ALEXANDRE COSTA                                          NNB7926MA123611-SAMTHONDA/BIZ 125 ES                             PARTICULAR                    MOTONETA        PRETA     00000000ALDENISE PORTELA DE OLIVEIRA                RUA 1 DE MAIO NR. N-152                 - TRIZIDELA                             65600000CAXIAS              MACOND. MOTOC/MOTON./CICLOM TRANSPORTANDO/PASSAG.S/C244 * II           00000000070481   0000293470075720191225202002070000000000000000000000000                                                00000000000  000   6     00070442077077570481PASSAGEIRO
2000000000474720191224207570PREF. DE: MA - CAXIAS                   CXA0078866201912041700AV ALEXANDRE COSTA                                          PSN2601MA123611-SAMTHONDA/POP 110I                               PARTICULAR                    MOTOCICLETA     PRETA     00000000MARTINA NAVRATINOVA CUNHA SILVA             TV SAO PEDRO NR. 1999                   - SERIEMA                               65602380CAXIAS              MACOND. MOTOC/MOTON./CICLOM TRANSPORTANDO/PASSAG.S/C244 * II           00000000070481   0000293470075720191225202002070000000000000000000000000                                                00000000000  000   7     00070442077479770481PASSAGEIRO
2000000000474720191224207570PREF. DE: MA - CAXIAS                   CXA0078867201912041720PCA MAGALHAES DE ALMEIDA                                    PSX6243MA123611-SAMTHONDA/CG 160 FAN ESDI                        PARTICULAR                    MOTOCICLETA     VERMELHA  00000000CAMILA DE CARVALHO SANTOS                   TV MAL. COSTA E SILVA NR. N-05          REC. DOS POETAS - CASTELO BRANCO        65604220CAXIAS              MACOND. MOTOC/MOTON./CICLOM TRANSPORTANDO/PASSAG.S/C244 * II           00000000070481   0000293470075720191225202002070000000000000000000000000                                                00000000000  000   8     00070442077767270481PASSAGEIRO
2000000000474720191224207570PREF. DE: MA - CAXIAS                   CXA0078868201912041700PCA MAGALHAES DE ALMEIDA                                    PTN0233MA123611-SAMTHONDA/CG 160 FAN ESDI                        PARTICULAR                    MOTOCICLETA     PRETA     00000000ELIZANGELA DOS ANJOS ALMEIDA                RUA SAO JOSE NR. SN                     - CENTRO                                65625000DUQUE BACELAR       MACOND. MOTOC/MOTON./CICLOM TRANSPORTANDO/PASSAG.S/C244 * II           00000000070481   0000293470075720191225202002070000000000000000000000000                                                00000000000  000   9     00070442077834270481PASSAGEIRO
2000000000474720191224207570PREF. DE: MA - CAXIAS                   CXA0078870201912041745AV LUIS SALES                                               NWY8046MA123611-SAMTHONDA/CG 150 FAN ESI                         PARTICULAR                    MOTOCICLETA     PRETA     00000000MARIA ROZENIR ALVES                         TRAV RIO DE JANEIRO NR. 57              - CENTRO                                65600000CAXIAS              MACOND. MOTOC/MOTON./CICLOM TRANSPORTANDO/PASSAG.S/C244 * II           00000000070481   0000293470075720191225202002070000000000000000000000000                                                00000000000  000   10    00070442077918770481PASSAGEIRO
2000000000474720191224207570PREF. DE: MA - CAXIAS                   CXA0078871201912041750AV LUIS SALES                                               PTG7823MA123611-SAMTHONDA/CG 160 TITAN                           PARTICULAR                    MOTOCICLETA     AZUL      00000000WUESLLES KUAUAN ALVES MONTEIRO              TV JOSE SARNEY NR. 1008                 - CAMPO DE BELEM                        65609210CAXIAS              MACOND. MOTOCICLETA/MOTONETA/CICLOM S/CAPACETE DE SE244 * I            00000000070301   0000293470075720191225202002070000000000000000000000000                                                00000000000  000   11    00070442077988870301PASSAGEIRO
2000000000474720191224207570PREF. DE: MA - CAXIAS                   CXA0078872201912041800AV LUIS SALES                                               OXS2326MA123611-SAMTHONDA/NXR150 BROS ES                         PARTICULAR                    MOTOCICLETA     BRANCA    00000000WILLIAN AMARO DE SOUSA                      RUA JOAO CASTELO QD 01 NR. 37           - MUTIRAO                               65600000CAXIAS              MACOND. MOTOC/MOTON./CICLOM TRANSPORTANDO/PASSAG.S/C244 * II           00000000070481   0000293470075720191225202002070000000000000000000000000                                                00000000000  000   12    00070442078113070481PASSAGEIRO
2000000000474720191224207570PREF. DE: MA - CAXIAS                   CXA0078800201912040742PCA CANDIDO MENDES                                          PSS4458MA305941-SAMTHONDA/POP 110I                               PARTICULAR                    MOTOCICLETA     PRETA     00000000RONAYRA DO NASCIMENTO PEREIRA               R PARAIBA NR. 620                       - ANTENOR VIANA                         65603585CAXIAS              MACOND. MOTOC/MOTON./CICLOM TRANSPORTANDO/PASSAG.S/C244 * II           00000000070481   0000293470075720191225202002070000000000000000000000000                                                00000000000  000   13    00070442078133570481PASSAGEIRO
2000000000474720191224207570PREF. DE: MA - CAXIAS                   CXA0077047201912041000RUA RIO BRANCO                                              PTG7041MA138301-SAMTYAMAHA/YS150 FAZER SED                       PARTICULAR                    MOTOCICLETA     VERMELHA  00000000ANTONIO OZANO FERNANDES CASTRO              RUA DA HARMONIA NR. S/N                 - RITA REIS                             65610000ALDEIAS ALTAS       MATRANSIT. P/ CONTRAMAO EM VIAS C/ SENT. UNICO      186 * II           00000000057380   0000293470075720191225202002070000000000000000000000000                                                00000000000  000   14    00070442078149157380PASSAGEIRO
2000000000474720191224207570PREF. DE: MA - CAXIAS                   CXA0077046201912041200PCA CANDIDO MENDES                                          NWU4789MA138301-SAMTHONDA/CG 125 FAN KS                          PARTICULAR                    MOTOCICLETA     ROXA      00000000DAMIAO PEREIRA DOS SANTOS                   RUA DEP J RESENDE NR. 221               - SALOBRO                               65600000CAXIAS              MACOND. MOTOC/MOTON./CICLOM TRANSPORTANDO/PASSAG.S/C244 * II           00000000070481   0000293470075720191225202002070000000000000000000000000                                                00000000000  000   15    00070442078319270481PASSAGEIRO
2000000000474720191224207570PREF. DE: MA - CAXIAS                   CXA0078958201912051107TRAV CAETANO CARVALHO                                       NHP2601MA305941-SAMTI/GM CLASSIC LIFE                            PARTICULAR                    AUTOMOVEL       PRATA     00000000BANCO GMAC SA                               RUA 04 QDA 07 NR NR. 16                 - CJR ITAGUARA II                       65052116SAO LUIS            MAESTACIONAR EM DESACORDO C/REGULAM-VAGA DE CARGA/DE181 * XVII         00000000055414   0000195230075720191225202002070000000000000000000000000                                                00000000000  000   16    00050442078366455414PASSAGEIRO
2000000000474720191224207570PREF. DE: MA - CAXIAS                   CXA0078470201912050715AV. GETULIO VARGAS                                          PSB5653MA306051-SAMTHONDA/PCX 150                                PARTICULAR                    MOTONETA        PRETA     00000000MARLENE OLIVEIRA BARBOSA                    RUA ALEGRIA NR. 509                     - CENTRO                                65604360CAXIAS              MAAVANCAR SINAL VERMELHO DO SEMAFORO                208                00000000060501   0000293470075720191225202002070000000000000000000000000                                                00000000000  000   17    00070442078559460501PASSAGEIRO
2000000000474720191224207570PREF. DE: MA - CAXIAS                   CXA0078471201912050727AV. GETULIO VARGAS                                          PTF8961MA306051-SAMTHONDA/POP 110I                               PARTICULAR                    MOTOCICLETA     PRETA     00000000FRANCISCA JESSICA P DOS SANTOS              RUA SANTA INES NR. 1117                 - VILA LOBAO                            65605547CAXIAS              MACOND. MOTOCICLETA/MOTONETA/CICLOM S/CAPACETE DE SE244 * I            00000000070301   0000293470075720191225202002070000000000000000000000000                                                00000000000  000   18    00070442078619170301PASSAGEIRO
2000000000474720191224207570PREF. DE: MA - CAXIAS                   CXA0077997201912051115AV NEREU BITTENCOURT                                        NXM4732MA78162-SAMT FIAT/UNO MILLE ECONOMY                       PARTICULAR                    AUTOMOVEL       VERMELHA  00000000ANTONIO EVALDO ALVES DE OLIVEIRA            R TEIXEIRA MENDES NR NR. 146            - CENTRO                                65600000CAXIAS              MAAVANCAR SINAL VERMELHO DO SEMAFORO                208                00000000060501   0000293470075720191225202002070000000000000000000000000                                                00000000000  000   19    00070442078826760501PASSAGEIRO
2000000000474720191224207570PREF. DE: MA - CAXIAS                   CXA0077995201912050915RUA AARAO REIS                                              NHA4611MA78162-SAMT HONDA/BIZ 125 MAIS                           PARTICULAR                    MOTONETA        PRETA     00000000JOSE WILSON PEREIRA DE MORAIS               R.OLARIA N-311 NR.                      - CENTRO                                65615000SAO JOAO DO SOTER   MAESTAC. EM DESACORDO C/ A REGULAMENTACAO ESPECIFICA181 * XVII         00000000055411   0000195230075720191225202002070000000000000000000000000                                                00000000000  000   20    00050442078838055411PASSAGEIRO
2000000000474720191224207570PREF. DE: MA - CAXIAS                   CXA0077994201912050910RUA AARAO REIS                                              OJK6930MA78162-SAMT HONDA/CG 125 FAN KS                          PARTICULAR                    MOTOCICLETA     PRETA     00000000PATRICIA DA SILVA NASCIMENTO                RUA PEDREIRAS NR. 1087                  - VILA LOBAO                            65600001CAXIAS              MAESTAC. EM DESACORDO C/ A REGULAMENTACAO ESPECIFICA181 * XVII         00000000055411   0000195230075720191225202002070000000000000000000000000                                                00000000000  000   21    00050442078843755411PASSAGEIRO
2000000000474720191224207570PREF. DE: MA - CAXIAS                   CXA0077993201912050910RUA AARAO REIS                                              NXG4094MA78162-SAMT HONDA/POP100                                 PARTICULAR                    MOTOCICLETA     PRETA     00000000FRANCISCO DOS SANTOS                        R MARCIA MARINHO NR. 388                - JOSE CASTRO                           65600010CAXIAS              MAESTAC. EM DESACORDO C/ A REGULAMENTACAO ESPECIFICA181 * XVII         00000000055411   0000195230075720191225202002070000000000000000000000000                                                00000000000  000   22    00050442078848855411PASSAGEIRO
2000000000474720191224207570PREF. DE: MA - CAXIAS                   CXA0077992201912050905RUA AARAO REIS                                              OXZ6273MA78162-SAMT HONDA/BIZ 100 ES                             PARTICULAR                    MOTONETA        BRANCA    00000000SUZANA DE SA OLIVEIRA                       RUA RIO BRANCO NR. 2282                 - VOLTA REDONDA                         65600000CAXIAS              MAESTAC. EM DESACORDO C/ A REGULAMENTACAO ESPECIFICA181 * XVII         00000000055411   0000195230075720191225202002070000000000000000000000000                                                00000000000  000   23    00050442078855055411PASSAGEIRO
2000000000474720191224207570PREF. DE: MA - CAXIAS                   CXA0077048201912051140PCA CANDIDO MENDES                                          NHF3704MA138301-SAMTHONDA/NXR150 BROS KS                         PARTICULAR                    MOTOCICLETA     VERMELHA  00000000MARTIM ANTONIO CARVALHO MOTA                TV DO ANGELIM N.437 NR.                 - CANGALHEIRO                           65600000CAXIAS              MACOND. MOTOC/MOTON./CICLOM TRANSPORTANDO/PASSAG.S/C244 * II           00000000070481   0000293470075720191225202002070000000000000000000000000                                                00000000000  000   24    00070442078884470481PASSAGEIRO
2000000000474720191224207570PREF. DE: MA - CAXIAS                   CXA0078473201912060924AV. GETULIO VARGAS                                          NNE3056MA306051-SAMTYAMAHA/T115 CRYPTON K                        PARTICULAR                    MOTONETA        PRETA     00000000ROSILENE ARAUJO SILVA                       RUA PE DA LADEIRA NR. 1750              - CASTELO BRANCO                        65600000CAXIAS              MACOND. MOTOCICLETA/MOTONETA/CICLOM S/CAPACETE DE SE244 * I            00000000070301   0000293470075720191225202002070000000000000000000000000                                                00000000000  000   25    00070442078913170301PASSAGEIRO
2000000000474720191224207570PREF. DE: MA - CAXIAS                   CXA0078474201912060924AV GETULIO VARGAS                                           NNE3056MA306051-SAMTYAMAHA/T115 CRYPTON K                        PARTICULAR                    MOTONETA        PRETA     00000000ROSILENE ARAUJO SILVA                       RUA PE DA LADEIRA NR. 1750              - CASTELO BRANCO                        65600000CAXIAS              MADIR.VEIC. UTILIZANDO-SE DE FONES NOS OUVIDOS APAR.252 * VI           00000000073661   0000130160075720191225202002070000000000000000000000000                                                00000000000  000   26    00040442078927173661PASSAGEIRO
2000000000474720191224207570PREF. DE: MA - CAXIAS                   CXA0078475201912060840RUA MENINO DEUS                                             OXT0508MA306051-SAMTYAMAHA/T115 CRYPTON ED                       PARTICULAR                    MOTONETA        PRATA     00000000JOSE CARLOS DE ALENCAR SOUSA                AV RODRIGO OTAVIO NR. 725               - TREZIDELA                             65600000CAXIAS              MACOND. MOTOCICLETA/MOTONETA/CICLOM S/CAPACETE DE SE244 * I            00000000070301   0000293470075720191225202002070000000000000000000000000                                                00000000000  000   27    00070442078938770301PASSAGEIRO
2000000000474720191224207570PREF. DE: MA - CAXIAS                   CXA0078804201912061110AV OTAVIO PASSOS                                            NMW4943MA122061-SAMTHONDA/CG 125 FAN KS                          PARTICULAR                    MOTOCICLETA     PRETA     00000000MARIA DOS REMEDIOS DOS S DIAS               TV GILBERTO BARBOSA NR. N-850           - VILA ARIAS                            65600000CAXIAS              MAESTACIONAR EM CALCADA REBAIXADA DEST. ENTRADA/SAID181 * IX           00000000054600   0000130160075720191225202002070000000000000000000000000                                                00000000000  000   28    00040442078946854600PASSAGEIRO
2000000000474720191224207570PREF. DE: MA - CAXIAS                   CXA0078440201912091758AV PIRAJA                                                   PSQ3337MA306101-SAMTHONDA/BIZ 110I                               PARTICULAR                    MOTONETA        PRETA     00000000FRANCISCA DE FATIMA L DE ARAGAO             RUA SAO JOSE NR. 2147                   - TREZIDELA                             65607440CAXIAS              MACOND. MOTOCICLETA/MOTONETA/CICLOM S/CAPACETE DE SE244 * I            00000000070301   0000293470075720191225202002070000000000000000000000000                                                00000000000  000   29    00070442078951470301PASSAGEIRO
2000000000474720191224207570PREF. DE: MA - CAXIAS                   CXA0078526201912091542RUA RIO DE JANEIRO                                          OIS9908MA306431-SAMTHONDA/POP100                                 PARTICULAR                    MOTOCICLETA     PRETA     00000000MANOEL AURELIANO CORREIA ALVES              RUA DA SAUDE QD C NR.                   - SIRIEMA                               65602810CAXIAS              MAESTAC. EM LOCAL/HORARIO.DE ESTAC. E PARADA PROIBID181 * XIX          00000000055680   0000195230075720191225202002070000000000000000000000000                                                00000000000  000   30    00050442078972755680PASSAGEIRO
2000000000474720191224207570PREF. DE: MA - CAXIAS                   CXA0078527201912091606RUA SANTOS DUMONT                                           OXS6798MA306431-SAMTHONDA/BIZ 125 ES                             PARTICULAR                    MOTONETA        VERMELHA  00000000ROZANA DA SILVA PASSOS BARBOSA              RUA AMIGOS NR. 1392                     - SERIEMA                               65602530CAXIAS              MACOND. MOTOC/MOTON./CICLOM TRANSPORTANDO/PASSAG.S/C244 * II           00000000070481   0000293470075720191225202002070000000000000000000000000                                                00000000000  000   31    00070442079059870481PASSAGEIRO
2000000000474720191224207570PREF. DE: MA - CAXIAS                   CXA0078529201912091645AV GETULIO VARGAS                                           NHM7267MA306431-SAMTYAMAHA/YBR 125K                              PARTICULAR                    MOTOCICLETA     PRETA     00000000RUBENS JOSE MACHADO A.DA SILVA              RUA COTOVELO NR-1017 NR.                - CANGALHEIRO                           65606250CAXIAS              MACOND. MOTOC/MOTON./CICLOM TRANSPORTANDO/PASSAG.S/C244 * II           00000000070481   0000293470075720191225202002070000000000000000000000000                                                00000000000  000   32    00070442079063670481PASSAGEIRO
2000000000474720191224207570PREF. DE: MA - CAXIAS                   CXA0078874201912091515AV OTAVIO PASSOS                                            PSO4662MA123611-SAMTHONDA/CG150 FAN ESDI                         PARTICULAR                    MOTOCICLETA     PRATA     00000000ROSANGELA MARIA RIBEIRO DE SOUSA            R 15 QD 21 NR. N-17                     - COHAB                                 65604670CAXIAS              MACOND. MOTOCICLETA/MOTONETA/CICLOM S/CAPACETE DE SE244 * I            00000000070301   0000293470075720191225202002070000000000000000000000000                                                00000000000  000   33    00070442079087370301PASSAGEIRO
2000000000474720191224207570PREF. DE: MA - CAXIAS                   CXA0078875201912091525RUA MENINO DEUS                                             OIS9746MA123611-SAMTHONDA/BIZ 100 ES                             PARTICULAR                    MOTONETA        PRETA     00000000GIRNALDA BERNUTH TORRES DA SILVA            AV CENTRAL NR. 348                      - CENTRO                                65600160CAXIAS              MACOND. MOTOC/MOTON./CICLOM TRANSPORTANDO/PASSAG.S/C244 * II           00000000070481   0000293470075720191225202002070000000000000000000000000                                                00000000000  000   34    00070442079093870481PASSAGEIRO
2000000000474720191224207570PREF. DE: MA - CAXIAS                   CXA0078876201912091525RUA MENINO DEUS                                             NHC0354MA123611-SAMTHONDA/CG 150 TITAN ESD                       PARTICULAR                    MOTOCICLETA     AMARELA   00000000ANTONIO CONCEICAO SOUZA                     RUA N SRA DA CONCEICAO NR. 237          QD 14 - MULTIRAO                        65600000CAXIAS              MACOND. MOTOC/MOTON./CICLOM TRANSPORTANDO/PASSAG.S/C244 * II           00000000070481   0000293470075720191225202002070000000000000000000000000                                                00000000000  000   35    00070442079096270481PASSAGEIRO
2000000000474720191224207570PREF. DE: MA - CAXIAS                   CXA0078877201912091630AV ALEXANDRE COSTA                                          NWS6047MA123611-SAMTHONDA/CG 125 FAN KS                          PARTICULAR                    MOTOCICLETA     PRETA     00000000ANTONIO RAMOS DE SOUSA                      RUA AYRTON SENNA NR. 97                 - DINIR SILVA                           65600000CAXIAS              MACOND. MOTOC/MOTON./CICLOM TRANSPORTANDO/PASSAG.S/C244 * II           00000000070481   0000293470075720191225202002070000000000000000000000000                                                00000000000  000   36    00070442079100470481PASSAGEIRO
2000000000474720191224207570PREF. DE: MA - CAXIAS                   CXA0078878201912091655AV GENERAL SAMPAIO                                          HPY9620MA123611-SAMTHONDA/C100 BIZ                               PARTICULAR                    MOTONETA        VERMELHA  00000000ANA CRISTINA CRUZ ALENCAR SILVA             R N SRA DE FATIMA NR. 1562              - VOLTA REDONDA                         65606440CAXIAS              MACOND. MOTOC/MOTON./CICLOM TRANSPORTANDO/PASSAG.S/C244 * II           00000000070481   0000293470075720191225202002070000000000000000000000000                                                00000000000  000   37    00070442079105570481PASSAGEIRO
2000000000474720191224207570PREF. DE: MA - CAXIAS                   CXA0078879201912091705AV GENERAL SAMPAIO                                          PTC7491MA123611-SAMTHONDA/BIZ 125 EX                             PARTICULAR                    MOTONETA        BRANCA    00000000JAKELINE ALVES DE SOUSA COUTO               PC TONICO COUTO NR. 333                 - CENTRO                                65620000COELHO NETO         MACOND. MOTOC/MOTON./CICLOM TRANSPORTANDO/PASSAG.S/C244 * II           00000000070481   0000293470075720191225202002070000000000000000000000000                                                00000000000  000   38    00070442079110170481PASSAGEIRO
2000000000474720191224207570PREF. DE: MA - CAXIAS                   CXA0078880201912091710AV GENERAL SAMPAIO                                          PTF3807MA123611-SAMTHONDA/POP 110I                               PARTICULAR                    MOTOCICLETA     PRETA     00000000CRISTIANE SOUSA SILVA                       TV DAS FLORES NR. 624                   - SERIEMA                               65602750CAXIAS              MACOND. MOTOC/MOTON./CICLOM TRANSPORTANDO/PASSAG.S/C244 * II           00000000070481   0000293470075720191225202002070000000000000000000000000                                                00000000000  000   39    00070442079126870481PASSAGEIRO
2000000000474720191224207570PREF. DE: MA - CAXIAS                   CXA0078881201912091710AV GENERAL SAMPAIO                                          HON5717MA123611-SAMTHONDA/C100 DREAM                             PARTICULAR                    MOTOCICLETA     VERMELHA  00000000LECIA CLAUDIA AMARAL QUEZADO                RUA 04 QUADRA 601 CASA 26 NR.           - PQ BURITI                             65916340IMPERATRIZ          MACOND. MOTOC/MOTON./CICLOM TRANSPORTANDO/PASSAG.S/C244 * II           00000000070481   0000293470075720191225202002070000000000000000000000000                                                00000000000  000   40    00070442079130670481PASSAGEIRO
2000000000474720191224207570PREF. DE: MA - CAXIAS                   CXA0078883201912091720AV GENERAL SAMPAIO                                          PSM8729MA123611-SAMTCHEVROLET/ONIX 1.0MT LS                      PARTICULAR                    AUTOMOVEL       BRANCA    00000000ELITON KASSIO MORAIS DA SILVA               RUA MIGUEL SOBRINHOQD 04 NR. NR-01      - GALIANA                               65607010CAXIAS              MADIR.VEIC. UTILIZANDO-SE DE TELEFONE CELULAR       252 * VI           00000000073662   0000130160075720191225202002070000000000000000000000000                                                00000000000  000   41    00040442079134973662PASSAGEIRO
2000000000474720191224207570PREF. DE: MA - CAXIAS                   CXA0078531201912101057PCA CANDIDO MENDES                                          NWS0867MA306431-SAMTHONDA/CG 125 FAN KS                          PARTICULAR                    MOTOCICLETA     PRETA     00000000MARCOS PEREIRA DA SILVA                     RUA JABOTIS NR. 818                     - JOAO VIANA                            65600000CAXIAS              MACOND. MOTOC/MOTON./CICLOM TRANSPORTANDO/PASSAG.S/C244 * II           00000000070481   0000293470075720191225202002070000000000000000000000000                                                00000000000  000   42    00070442079137370481PASSAGEIRO
2000000000474720191224207570PREF. DE: MA - CAXIAS                   CXA0078884201912101300PCA MAGALHAES DE ALMEIDA                                    PSS2933MA122131-SAMTHONDA/POP 110I                               PARTICULAR                    MOTOCICLETA     PRETA     00000000MARCIO JOSE SILVA CONCEICAO                 R. PROF MARINALVA SOARES NR. N-13       - ITAPECURUZINHO                        65607730CAXIAS              MACOND. MOTOC/MOTON./CICLOM TRANSPORTANDO/PASSAG.S/C244 * II           00000000070481   0000293470075720191225202002070000000000000000000000000                                                00000000000  000   43    00070442079332570481PASSAGEIRO
2000000000474720191224207570PREF. DE: MA - CAXIAS                   CXA0078886201912101630PCA MAGALHAES DE ALMEIDA                                    PST0392MA123611-SAMTHONDA/CG 160 FAN ESDI                        PARTICULAR                    MOTOCICLETA     PRETA     00000000FRANCISCO YTALO G S DOS SANTOS              TV STO ANTONIO II NR. 1422              - JOAO VIANA                            65605015CAXIAS              MACOND. MOTOC/MOTON./CICLOM TRANSPORTANDO/PASSAG.S/C244 * II           00000000070481   0000293470075720191225202002070000000000000000000000000                                                00000000000  000   44    00070442079459370481PASSAGEIRO
2000000000474720191224207570PREF. DE: MA - CAXIAS                   CXA0078888201912101420PCA MAGALAHES DE ALMEIDA                                    NHN2563MA123611-SAMTHONDA/XR 250 TORNADO                         PARTICULAR                    MOTOCICLETA     VERMELHA  00000000MAIRON NAVHAR CHAVES BARBOSA                AV 7 NR. 14                             QD 28 - COHAB                           65604400CAXIAS              MACOND. MOTOCICLETA/MOTONETA/CICLOM S/CAPACETE DE SE244 * I            00000000070301   0000293470075720191225202002070000000000000000000000000                                                00000000000  000   45    00070442079473970301PASSAGEIRO
2000000000474720191224207570PREF. DE: MA - CAXIAS                   CXA0078889201912101345PCA MAGALHAES DE ALMEIDA                                    PSY4406MA123611-SAMTHONDA/NXR160 BROS ESDD                       PARTICULAR                    MOTOCICLETA     VERMELHA  00000000MACIANO SANTOS DE SOUSA                     TV SAO JOSE NR. 1675                    - SERIEMA                               65600550CAXIAS              MACOND. MOTOC/MOTON./CICLOM TRANSPORTANDO/PASSAG.S/C244 * II           00000000070481   0000293470075720191225202002070000000000000000000000000                                                00000000000  000   46    00070442079478070481PASSAGEIRO
2000000000474720191224207570PREF. DE: MA - CAXIAS                   CXA0078890201912101350PCA MAGALHAES DE ALMEIDA                                    PTF8797MA123611-SAMTHONDA/POP 110I                               PARTICULAR                    MOTOCICLETA     BRANCA    00000000WELLINGTON SOARES ALVES                     PV BURITI DO SANGUE NR. S/N             - ZONA RURAL                            65609899CAXIAS              MACOND. MOTOC/MOTON./CICLOM TRANSPORTANDO/PASSAG.S/C244 * II           00000000070481   0000293470075720191225202002070000000000000000000000000                                                00000000000  000   47    00070442079481070481PASSAGEIRO
2000000000474720191224207570PREF. DE: MA - CAXIAS                   CXA0078891201912101355PCA MAGALHAES DE ALMEIDA                                    NWS1375MA123611-SAMTHONDA/CG 125 FAN KS                          PARTICULAR                    MOTOCICLETA     PRETA     00000000LUCIANA CANDIDO REIS                        TRAV BENJAMIN CONSTANT NR. 2350         - NOVA CAXIAS                           65600000CAXIAS              MACOND. MOTOC/MOTON./CICLOM TRANSPORTANDO/PASSAG.S/C244 * II           00000000070481   0000293470075720191225202002070000000000000000000000000                                                00000000000  000   48    00070442079485270481PASSAGEIRO
2000000000474720191224207570PREF. DE: MA - CAXIAS                   CXA0078892201912101405PCA MAGALHAES DE ALMEIDA                                    OIX5701MA123611-SAMTYAMAHA/XTZ 125E                              PARTICULAR                    MOTOCICLETA     PRETA     00000000JOSE DA SILVA VILARINHO                     AVENIDA ALEXANDRE COSTA NR. 3138        - NOVA CAXIAS                           65600000CAXIAS              MACOND. MOTOCICLETA/MOTONETA/CICLOM S/CAPACETE DE SE244 * I            00000000070301   0000293470075720191225202002070000000000000000000000000                                                00000000000  000   49    00070442079492570301PASSAGEIRO
2000000000474720191224207570PREF. DE: MA - CAXIAS                   CXA0078893201912101405PCA MAGALHAES DE ALMEIDA                                    NNI7563MA123611-SAMTYAMAHA/FACTOR YBR125 K                       PARTICULAR                    MOTOCICLETA     PRETA     00000000JOAO RAYENDER CUNHA                         R BELA VISTA NR. 1020                   - CASTELO BRANCO                        65600010CAXIAS              MACOND. MOTOCICLETA/MOTONETA/CICLOM S/CAPACETE DE SE244 * I            00000000070301   0000293470075720191225202002070000000000000000000000000                                                00000000000  000   50    00070442079565470301PASSAGEIRO
2000000000474720191224207570PREF. DE: MA - CAXIAS                   CXA0078895201912101615RUA MENINO DEUS                                             PSW1782MA123611-SAMTHONDA/POP 110I                               PARTICULAR                    MOTOCICLETA     PRETA     00000000MARIO JOSE DOS SANTOS CARVALHO              RUA CAMPO DE BELEM NR. 935              - CAMPO DE BELEM                        65609040CAXIAS              MACOND. MOTOC/MOTON./CICLOM TRANSPORTANDO/PASSAG.S/C244 * II           00000000070481   0000293470075720191225202002070000000000000000000000000                                                00000000000  000   51    00070442079814970481PASSAGEIRO
2000000000474720191224207570PREF. DE: MA - CAXIAS                   CXA0078896201912101615RUA MENINO DEUS                                             NXK2512MA123611-SAMTHONDA/CG 125 FAN KS                          PARTICULAR                    MOTOCICLETA     PRETA     00000000JOANA DARC DIAS DE OLIVEIRA                 RUA MIGUEL SOBRINHO QD 3 NR. 21         - GALIANA                               65600000CAXIAS              MACOND. MOTOC/MOTON./CICLOM TRANSPORTANDO/PASSAG.S/C244 * II           00000000070481   0000293470075720191225202002070000000000000000000000000                                                00000000000  000   52    00070442080018670481PASSAGEIRO
2000000000474720191224207570PREF. DE: MA - CAXIAS                   CXA0078897201912101625RUA MENINO DEUS                                             PTF9981MA122131-SAMTHONDA/NXR160 BROS ESDD                       PARTICULAR                    MOTOCICLETA     AZUL      00000000ROGERIO DE SOUSA GUIMARAES                  TV GILBERTO BARBOSA NR. 569             - VILA ARIAS                            65603245CAXIAS              MACOND. MOTOC/MOTON./CICLOM TRANSPORTANDO/PASSAG.S/C244 * II           00000000070481   0000293470075720191225202002070000000000000000000000000                                                00000000000  000   53    00070442080044570481PASSAGEIRO
2000000000474720191224207570PREF. DE: MA - CAXIAS                   CXA0078898201912101715AV ALEXANDRE COSTA                                          PSO3946MA123611-SAMTHONDA/CG 160 TITAN EX                        PARTICULAR                    MOTOCICLETA     BRANCA    00000000FRANCISCO LEONARDO T MENDES                 R BACABAL NR. 19                        QD 3 - DINIR SILVA                      65605340CAXIAS              MACOND. MOTOC/MOTON./CICLOM C/PASSAG.S/VISEIRA/OCULO244 * II           00000000070482   0000293470075720191225202002070000000000000000000000000                                                00000000000  000   54    00070442080132870482PASSAGEIRO
2000000000474720191224207570PREF. DE: MA - CAXIAS                   CXA0078899201912101745AV SAO LUIS                                                 PSJ5635MA122131-SAMTHONDA/POP 110I                               PARTICULAR                    MOTOCICLETA     PRETA     00000000ANTONIO JOSE DA SILVA                       AV COSTA SOBRINHO NR. 1383              - VOLTA REDONDA                         65606510CAXIAS              MACOND. MOTOC/MOTON./CICLOM TRANSPORTANDO/PASSAG.S/C244 * II           00000000070481   0000293470075720191225202002070000000000000000000000000                                                00000000000  000   55    00070442080138770481PASSAGEIRO
2000000000474720191224207570PREF. DE: MA - CAXIAS                   CXA0078900201912101805AV DA RODOVIARIA                                            PSX1097MA123611-SAMTHONDA/NXR 160 BROS                           PARTICULAR                    MOTOCICLETA     PRETA     00000000JOSE RAIMUNDO DE GOIS                       RUA DO FIO NR. 36                       - ITAPECURUZINHO                        65606881CAXIAS              MACOND. MOTOCICLETA/MOTONETA/CICLOM S/CAPACETE DE SE244 * I            00000000070301   0000293470075720191225202002070000000000000000000000000                                                00000000000  000   56    00070442080142570301PASSAGEIRO
2000000000474720191224207570PREF. DE: MA - CAXIAS                   CXA0079006201912061500RUA GUSTAVO COLACO                                          LVL0749MA122201-SAMTFIAT/SIENA FIRE                              PARTICULAR                    AUTOMOVEL       BRANCA    00000000FRANCYNELTON ALVES DE BRITO                 RUA 5 NR. 538                           - NOVO TEMPO                            65630000TIMON               MAESTAC. EM DESACORDO C/ A REGULAMENTACAO ESPECIFICA181 * XVII         00000000055411   0000195230075720191225202002070000000000000000000000000                                                00000000000  000   57    00050442080713055411PASSAGEIRO
2000000000474720191224207570PREF. DE: MA - CAXIAS                   CXA0079004201912061130PCA CANDIDO MENDES                                          LVF3478MA122201-SAMTVW/PARATI CL                                 PARTICULAR                    AUTOMOVEL       VERMELHA  00000000MARIA EDILEUZA ALMEIDA AZEVEDO              R.BOA VISTA N.805 NR.                   - TAMARINEIRO                           65600000CAXIAS              MAESTACIONAR IMPEDINDO MOVIMENTACAO DE OUTRO VEICULO181 * X            00000000054790   0000130160075720191225202002070000000000000000000000000                                                00000000000  000   58    00040442080733454790PASSAGEIRO
3000058000000000058
