1*NATI209610202001210039092020012100000000000000
2000000000390920200121209610PREF. DE: MA - ACAILANDIA               ACA0032813202001201424RUA CEARA N.487, CENTRO                                     NNI2490MA3168       YAMAHA/FACTOR YBR125 K                       PARTICULAR                    MOTOCICLETA     VERMELHA  00000000FRANCISCO LEONIR LIMA SILVA                 QD 115 NR. LT 04                        - VL ILDEMAR                            65930000ACAILANDIA          MATRANSIT. P/ CONTRAMAO EM VIAS C/ SENT. UNICO      186 * II           00000000057380   0000293470096120200122202003060000000000000000000000000                                                00000000000  000   1     00070445804813957380PASSAGEIRO
2000000000390920200121209610PREF. DE: MA - ACAILANDIA               ACA0015099202001131720RUA BONAIRE, PX.RODOVIARIA                                  PSP1258MA858698     HONDA/BIZ 110I                               PARTICULAR                    MOTONETA        VERMELHA  00000000JAIME XAVIER DA SILVA                       QD 207 NR. 323                          - VILA ILDEMAR                          65930000ACAILANDIA          MAAVANCAR SINAL VERMELHO DO SEMAFORO                208                00000000060501   0000293470096120200122202003060000000000000000000000000                                                00000000000  000   2     00070445805154760501PASSAGEIRO
2000000000390920200121209610PREF. DE: MA - ACAILANDIA               ACA0015098202001131740AV.ADELINO ANDRADE, OURO VERDE                              PTI6959MA858698PM   HONDA/POP 110I                               PARTICULAR                    MOTOCICLETA     VERMELHA  00000000ROSANA SILVA DA CRUZ                        RUA MANOEL BANDEIRA NR. NR06            QD 14 - RES OURO VERDE                  65930000ACAILANDIA          MACOND. MOTOC/MOTON./CICLOM TRANSPORTANDO/PASSAG.S/C244 * II           00000000070481   0000293470096120200122202003060000000000000000000000000                                                00000000000  000   3     00070445805446570481PASSAGEIRO
2000000000390920200121209610PREF. DE: MA - ACAILANDIA               ACA0033009202001201440RUA GOIAS N.720, CENTRO                                     MAL5101MA7008       I/VW SPACEFOX                                PARTICULAR                    AUTOMOVEL       PRETA     00000000JOSIANE PEREIRA OLIVEIRA SANTOS             R LUIS ALFREDO RIBEIRO NR. 30           - VL BOM JARDIM                         65930000ACAILANDIA          MADIRIGIR VEICULO SEGURANDO TELEFONE CELULAR        ART 252, & UNICO   00000000076331   0000293470096120200122202003060000000000000000000000000                                                00000000000  000   4     00070445805824076331PASSAGEIRO
2000000000390920200121209610PREF. DE: MA - ACAILANDIA               ACA0033350202001200830AV.J.REINALDO, VL ILDEMAR                                   HPV2162MA3157       VW/GOL 1.0                                   PARTICULAR                    AUTOMOVEL       CINZA     00000000NATALIA SILVA DA SILVA                      RUA PIAUI NR. N 793                     - LARANJEIRAS                           65930000ACAILANDIA          MAESTACIONAR EM DESACORDO C/ POSICOES ESTABELECIDAS 181 * IV           00000000054100   0000130160096120200122202003060000000000000000000000000                                                00000000000  000   5     00040445806055454100PASSAGEIRO
2000000000390920200121209610PREF. DE: MA - ACAILANDIA               ACA0033347202001171026R.DORGIVAL P. SOUSA, CENTRO                                 PSJ8903MA3157       VW/UP TAKE MA                                PARTICULAR                    AUTOMOVEL       BRANCA    00000000HOLANSERV SERVICOS LTDA ME                  RUA SAO PAULO NR. 159                   - CENTRO                                65930000ACAILANDIA          MAESTACIONAR AO LADO DE OUTRO VEICULO EM FILA DUPLA 181 * XI           00000000054870   0000195230096120200122202003060000000000000000000000000                                                00000000000  000   6     00050445806132154870PASSAGEIRO
2000000000390920200121209610PREF. DE: MA - ACAILANDIA               ACA0033349202001171136AV.TACITO CALDAS, CENTRO                                    PTC2675MA3157       HONDA/NXR160 BROS ESDD                       PARTICULAR                    MOTOCICLETA     LARANJA   00000000BRENDO VITOR DE SOUSA MELO                  RUA BERTULINO NR. 34                    - VILA BERTULINO                        65930000ACAILANDIA          MAESTACIONAR SOBRE FAIXA DESTINADA A PEDESTRE       181 * VIII         00000000054522   0000195230096120200122202003060000000000000000000000000                                                00000000000  000   7     00050445806213154522PASSAGEIRO
2000000000390920200121209610PREF. DE: MA - ACAILANDIA               ACA0033361202001171131R.RIO GRANDE N.177, CENTRO                                  NHM6580MA4445       VW/GOL 1.6 POWER GIV                         PARTICULAR                    AUTOMOVEL       CINZA     00000000ODAILSON BORGACO DE LIMA                    QD 26 NR. 6 A                           - NV ACAILANDIA 2                       65930000ACAILANDIA          MADIR.VEIC. UTILIZANDO-SE DE TELEFONE CELULAR       252 * VI           00000000073662   0000130160096120200122202003060000000000000000000000000                                                00000000000  000   8     00040445806323573662PASSAGEIRO
2000000000390920200121209610PREF. DE: MA - ACAILANDIA               ACA0033007202001171028R.SAO PAULO N.800, CENTRO                                   AXZ4609MA7008       FIAT/UNO VIVACE 1.0                          PARTICULAR                    AUTOMOVEL       PRATA     00000000MIGUEL DUARTE DE MORAIS                     RUA GOIAS NR. 1844                      - CENTRO                                65930000ACAILANDIA          MADIR.VEIC. UTILIZANDO-SE DE TELEFONE CELULAR       252 * VI           00000000073662   0000130160096120200122202003060000000000000000000000000                                                00000000000  000   9     00040445806500973662PASSAGEIRO
2000000000390920200121209610PREF. DE: MA - ACAILANDIA               ACA0033008202001171208RUA TOPAZIO N.09, CENTRO                                    NWY6421MA7008       HONDA/CG 150 FAN ESI                         PARTICULAR                    MOTOCICLETA     PRETA     00000000LUNAR SERVICOS E INFOR LTDA                 RUA SIMPLICIO MOREIRA NR. 1485A         - CENTRO                                65900000IMPERATRIZ          MADIR.VEIC. UTILIZANDO-SE DE TELEFONE CELULAR       252 * VI           00000000073662   0000130160096120200122202003060000000000000000000000000                                                00000000000  000   10    00040445806666873662PASSAGEIRO
2000000000390920200121209610PREF. DE: MA - ACAILANDIA               ACA0033138202001170930AV.DORGIVAL N.954C, CENTRO                                  PTA4925MA3165       RENAULT/CAPTUR INTEN 16A                     PARTICULAR                    AUTOMOVEL       BRANCA    00000000MARIA IRECEUDA FELISMINO COSTA              RUA JARANA NR. SN                       LT 250 QS 19 - N ACAILANDIA             65930000ACAILANDIA          MAESTACIONAR AO LADO DE OUTRO VEICULO EM FILA DUPLA 181 * XI           00000000054870   0000195230096120200122202003060000000000000000000000000                                                00000000000  000   11    00050445806911054870PASSAGEIRO
2000000000390920200121209610PREF. DE: MA - ACAILANDIA               ACA0033139202001170945AV.SANTA LUZIA C/AV.DORGIVAL                                OJJ5378MA3165       CHEVROLET/ONIX 1.4AT LT                      PARTICULAR                    AUTOMOVEL       BRANCA    00000000TAMIRES DA SILVA COSTA                      RUA BRASIL NR. N 165                    - VILA MARANHAO                         65930000ACAILANDIA          MAEXEC. CONVERSAO A ESQUERDA EM LOCAL PROIBIDO P/SIN207                00000000060412   0000195230096120200122202003060000000000000000000000000                                                00000000000  000   12    00050445807114960412PASSAGEIRO
2000000000390920200121209610PREF. DE: MA - ACAILANDIA               ACA0033140202001171005AV.SANTA LUZIA C/AV.DORGIVAL                                PSK4645MA3165       I/M.BENZ 515CDISPRINTERM                     ALUGUEL                       MICROONIBUS     BRANCA    00000000JOSE LIANDRO DA SILVA                       R PROJETADA NR. 08                      - VILA LOBAO                            65910283IMPERATRIZ          MAEXEC. CONVERSAO A ESQUERDA EM LOCAL PROIBIDO P/SIN207                00000000060412   0000195230096120200122202003060000000000000000000000000                                                00000000000  000   13    00050445807293560412PASSAGEIRO
2000000000390920200121209610PREF. DE: MA - ACAILANDIA               ACA0033118202001171103AV.DORGIVAL FRT.BANCO BRASIL                                PTG1794MA3090       I/TOYOTA HILUX CDCLEA4JD                     PARTICULAR                    CAMINHONETE     BRANCA    00000000ANTONIO FERNANDES COSTA                     RUA GROTAO NR. SN                       - ZONA RURAL                            65900001IMPERATRIZ          MAESTACIONAR NAS VAGAS RESERV AS PESSOAS C/DEFIC.S/CART 181, XX        00000000076251   0000293470096120200122202003060000000000000000000000000                                                00000000000  000   14    00070445807403276251ESPECIAL
3000014000000000014
