1*NATI209610201911280037322019112800000000000000
2000000000373220191128209610PREF. DE: MA - ACAILANDIA               ACA0032661201911251633R.SAO RAIMUNDO N.16, CENTRO                                 PUW3243MA7763       VW/GOL TL MB S                               PARTICULAR                    AUTOMOVEL       PRATA     00000000GRACIENE DA SILVA                           RUA GIUSEPPI GARIBALDI NR. LT 05        QD 16 A - JACU                          65930000ACAILANDIA          MAESTACIONAR NA CONTRAMAO DE DIRECAO                181 * XV           00000000055250   0000130160096120191129202001130000000000000000000000000                                                00000000000  000   1     00040436183038055250PASSAGEIRO
2000000000373220191128209610PREF. DE: MA - ACAILANDIA               ACA0032662201911251634R.SAO RAIMUNDO N.16, CENTRO                                 NHR0734MA7763       VW/GOL 1.0                                   PARTICULAR                    AUTOMOVEL       PRETA     00000000CLAUDIO HENRIQUE C DE SOUZA                 RUA BOM JESUS NR. N 213                 - SANTA RITA                            65900000IMPERATRIZ          MAESTACIONAR NA CONTRAMAO DE DIRECAO                181 * XV           00000000055250   0000130160096120191129202001130000000000000000000000000                                                00000000000  000   2     00040436184454255250PASSAGEIRO
2000000000373220191128209610PREF. DE: MA - ACAILANDIA               ACA0032659201911251504R.RIO DE JANEIRO N.137, CENTRO                              NMS7779MA7763       VW/GOL 1.0                                   PARTICULAR                    AUTOMOVEL       PRATA     00000000ANTONIO DA CONCEICAO LIMA                   QUADRA 25 NR. 68                        - VL ILDEMAR                            65930000ACAILANDIA          MAESTACIONAR NA CONTRAMAO DE DIRECAO                181 * XV           00000000055250   0000130160096120191129202001130000000000000000000000000                                                00000000000  000   3     00040436184560355250PASSAGEIRO
2000000000373220191128209610PREF. DE: MA - ACAILANDIA               ACA0032406201911251533AV.TACITO CALDAS N.74, CENTRO                               OXV5677MA3057       I/TOYOTA HILUX CS4X4                         PARTICULAR                    CAMINHONETE     BRANCA    00000000VERIDIANO FERNANDES DE MELO                 RUA PADRE CICERO NR. 51                 - CENTRO                                65929000SAO FCO. DO BREJAO  MAESTACIONAR NA CONTRAMAO DE DIRECAO                181 * XV           00000000055250   0000130160096120191129202001130000000000000000000000000                                                00000000000  000   4     00040436184629455250CARGA
2000000000373220191128209610PREF. DE: MA - ACAILANDIA               ACA0032407201911251628R.SAO RAIMUNDO N.120, CENTRO                                OJM8478MA3057       FIAT/UNO MILLE WAY ECON                      PARTICULAR                    AUTOMOVEL       PRETA     00000000SERGIO DOS SANTOS SOUSA                     RUA PETRONIO PORTELA NR. N 717          - ASA NORTE                             65901550IMPERATRIZ          MAESTACIONAR NA CONTRAMAO DE DIRECAO                181 * XV           00000000055250   0000130160096120191129202001130000000000000000000000000                                                00000000000  000   5     00040436184740155250PASSAGEIRO
2000000000373220191128209610PREF. DE: MA - ACAILANDIA               ACA0032830201911201101AV.TACITO CALDAS N.220, CENTRO                              HPP4126MA3132       HONDA/C100 BIZ ES                            PARTICULAR                    MOTONETA        AZUL      00000000LUCIANO ALVES BARROS                        RUA 13 DE JUNHO NR NR. 874              - CENTRO                                65930000ACAILANDIA          MAAVANCAR SINAL VERMELHO DO SEMAFORO                208                00000000060501   0000293470096120191129202001130000000000000000000000000                                                00000000000  000   6     00070436185243060501PASSAGEIRO
2000000000373220191128209610PREF. DE: MA - ACAILANDIA               ACA0032832201911251003R.SAO FRANCISCO N.222, CENTRO                               OJM1959MA3132       VW/GOL 1.0 GIV                               PARTICULAR                    AUTOMOVEL       PRATA     00000000DOUGLAS FERREIRA DE BRITO                   RUA SAO LUIZ NR. 386                    - CENTRO                                65930000ACAILANDIA          MAEXEC. CONVERSAO A ESQUERDA EM LOCAL PROIBIDO P/SIN207                00000000060412   0000195230096120191129202001130000000000000000000000000                                                00000000000  000   7     00050436202095060412PASSAGEIRO
2000000000373220191128209610PREF. DE: MA - ACAILANDIA               ACA0032833201911251025R.BOM JESUS, CENTRO                                         OXX3232MA3132       HONDA/BIZ 125 EX                             PARTICULAR                    MOTONETA        BRANCA    00000000VERA LUCIA ALVES DA SILVA                   RUA SETE DE SETEMBRO NR. N 639          - CENTRO                                65930000ACAILANDIA          MATRANSIT. P/ CONTRAMAO EM VIAS C/ SENT. UNICO      186 * II           00000000057380   0000293470096120191129202001130000000000000000000000000                                                00000000000  000   8     00070436202292957380PASSAGEIRO
2000000000373220191128209610PREF. DE: MA - ACAILANDIA               ACA0032489201911251009R.SAO FRANCISCO C/BR 222                                    NXQ3036MA3090       FIAT/STRADA WORKING CD                       PARTICULAR                    CAMINHONETE     VERMELHA  00000000JOSE CAVALCANTE NOBREGA                     QD 30 NR. LT 19                         - RES TROPICAL                          65930000ACAILANDIA          MAEXEC. CONVERSAO A ESQUERDA EM LOCAL PROIBIDO P/SIN207                00000000060412   0000195230096120191129202001130000000000000000000000000                                                00000000000  000   9     00050436202350060412ESPECIAL
2000000000373220191128209610PREF. DE: MA - ACAILANDIA               ACA0032490201911251059AV.SANTA LUZIA, CENTRO                                      PSF3460MA3090       HONDA/CG 150 TITAN EX                        PARTICULAR                    MOTOCICLETA     BRANCA    00000000MARCOS VINICIUS SILVA COSTA                 RUA LAMANTE JUNIOR NR. 789              - JACU                                  65930000ACAILANDIA          MATRANSIT. P/ CONTRAMAO EM VIAS C/ SENT. UNICO      186 * II           00000000057380   0000293470096120191129202001130000000000000000000000000                                                00000000000  000   10    00070436202397657380PASSAGEIRO
2000000000373220191128209610PREF. DE: MA - ACAILANDIA               ACA0032769201911241000R.MARLY SARNEY, CENTRO                                      OTA1081MA3179       VW/GOL 1.0 GIV                               ALUGUEL                       AUTOMOVEL       BRANCA    00000000MARCIA EDUARDA PORTO COUTINHO               RUA SEBASTIAO BATISTA NR. LT12A         QD 04 - JD GLORIA 2                     65930000ACAILANDIA          MADEIXAR O CONDUTOR DE USAR O CINTO E SEGURANCA     167                00000000051851   0000195230096120191129202001130000000000000000000000000                                                00000000000  000   11    00050436202455751851PASSAGEIRO
2000000000373220191128209610PREF. DE: MA - ACAILANDIA               ACA0032770201911241000R.MARLY SARNEY, CENTRO                                      OTA1081MA3179       VW/GOL 1.0 GIV                               ALUGUEL                       AUTOMOVEL       BRANCA    00000000MARCIA EDUARDA PORTO COUTINHO               RUA SEBASTIAO BATISTA NR. LT12A         QD 04 - JD GLORIA 2                     65930000ACAILANDIA          MADESOBEDECER AS ORDENS DA AUTORIDADE DE TRANSITO/AG195                00000000058350   0000195230096120191129202001130000000000000000000000000                                                00000000000  000   12    00050436202982658350PASSAGEIRO
2000000000373220191128209610PREF. DE: MA - ACAILANDIA               ACA0032663201911261422R.SAO RAIMUNDO N.16, CENTRO                                 NPY9363MA7763       I/TOYOTA HILUXSW4 SRV4X4                     PARTICULAR                    UTILITARIO      PRETA     00000000DOUGLAS LUINES DE SOUZA OLIVEIRA            RUA DORGIVAL P. DE SOUSA NR. N1241      - CENTRO                                65930000ACAILANDIA          MADIR.VEIC. UTILIZANDO-SE DE TELEFONE CELULAR       252 * VI           00000000073662   0000130160096120191129202001130000000000000000000000000                                                00000000000  000   13    00040436203107373662MISTO
2000000000373220191128209610PREF. DE: MA - ACAILANDIA               ACA0032409201911261525R.RIO DE JANEIRO, CENTRO                                    OJL6638MA3057       CHEV/PRISMA 1.0MT LT                         PARTICULAR                    AUTOMOVEL       BRANCA    00000000TEVAN RODRIGUES DE SOUSA                    QD 70 NR. 15                            - VL ILDEMAR                            65930000ACAILANDIA          MAESTACIONAR NA CONTRAMAO DE DIRECAO                181 * XV           00000000055250   0000130160096120191129202001130000000000000000000000000                                                00000000000  000   14    00040436203698955250PASSAGEIRO
2000000000373220191128209610PREF. DE: MA - ACAILANDIA               ACA0032774201911261430R.DORGIVAL FRT.BRADESCO                                     OJF7362MA3179       CHEVROLET/CLASSIC LS                         PARTICULAR                    AUTOMOVEL       PRATA     00000000HUDSON CLAYTON SILVA SANTANA                RUA IPE ROXO NR. N 06                   QD 05 - JARDIM GLORIA                   65930000ACAILANDIA          MAESTAC. EM LOCAL/HORARIO PROIBIDO ESPECIFIC. P/SINA181*XVIII          00000000055500   0000130160096120191129202001130000000000000000000000000                                                00000000000  000   15    00040436203986455500PASSAGEIRO
2000000000373220191128209610PREF. DE: MA - ACAILANDIA               ACA0032926201911261534R.RIO DE JANEIRO N.308, CENTRO                              PSP6339MA3179       VW/VOYAGE CL MA                              PARTICULAR                    AUTOMOVEL       BRANCA    00000000CARLOS ROBERTO DO N ROSA SILVA              RUA DOS REIS NR. 06                     QD F - PQ DOS NOBRES                    65044857SAO LUIS            MAESTACIONAR NA CONTRAMAO DE DIRECAO                181 * XV           00000000055250   0000130160096120191129202001130000000000000000000000000                                                00000000000  000   16    00040436204270955250PASSAGEIRO
2000000000373220191128209610PREF. DE: MA - ACAILANDIA               ACA0032927201911261535R.RIO DE JANEIRO N.319, CENTRO                              OJN8034MA3179       VW/NOVO VOYAGE 1.6                           PARTICULAR                    AUTOMOVEL       PRATA     00000000JOSE ALBERTO RODRIGUES FREITAS              RUA 10 DE OUTUBRO NR.                   - VILA TANCREDO                         65930000ACAILANDIA          MAESTACIONAR NA CONTRAMAO DE DIRECAO                181 * XV           00000000055250   0000130160096120191129202001130000000000000000000000000                                                00000000000  000   17    00040436204505855250PASSAGEIRO
2000000000373220191128209610PREF. DE: MA - ACAILANDIA               ACA0032737201911210939RUA BOM JESUS, CENTRO                                       PTN9114MA4445       HONDA/NXR160 BROS ESDD                       PARTICULAR                    MOTOCICLETA     LARANJA   00000000WANDERSON CONCEICAO REIS                    RUA GOIAS NR. 735                       - CENTRO                                65930000ACAILANDIA          MATRANSIT. P/ CONTRAMAO EM VIAS C/ SENT. UNICO      186 * II           00000000057380   0000293470096120191129202001130000000000000000000000000                                                00000000000  000   18    00070436204802257380PASSAGEIRO
2000000000373220191128209610PREF. DE: MA - ACAILANDIA               ACA0032738201911211150RUA BONAIRE N.153, CENTRO                                   OXV5163MA4445       HONDA/CG150 FAN ESDI                         PARTICULAR                    MOTOCICLETA     PRETA     00000000LUSINALDO DE SOUSA OLIVEIRA                 RUA 36 NR. SN                           - PEQUIA                                65930000ACAILANDIA          MAESTAC. EM LOCAL/HORARIO PROIBIDO ESPECIFIC. P/SINA181*XVIII          00000000055500   0000130160096120191129202001130000000000000000000000000                                                00000000000  000   19    00040436205126055500PASSAGEIRO
2000000000373220191128209610PREF. DE: MA - ACAILANDIA               ACA0032739201911260903RUA SAO LUIS, CENTRO                                        OJG0409MA4445       HONDA/BIZ 125 EX                             PARTICULAR                    MOTONETA        VERMELHA  00000000IVONEIDE MARACAIPE DA SILVA                 RUA MEDEIROS NETO NR. 719               - LARANJEIRAS                           65930000ACAILANDIA          MAAVANCAR SINAL VERMELHO DO SEMAFORO                208                00000000060501   0000293470096120191129202001130000000000000000000000000                                                00000000000  000   20    00070436205330160501PASSAGEIRO
2000000000373220191128209610PREF. DE: MA - ACAILANDIA               ACA0032887201911260912AV.J.REINALDO TAVARES, V.ILDEM                              OIV9012MA3157       VW/FOX 1.6 GII                               PARTICULAR                    AUTOMOVEL       BRANCA    00000000MARIA SONIA ALVES SILVA                     R DOIS NR. XR1                          - VILA IPIRANGA                         65908060IMPERATRIZ          MAESTACIONAR EM DESACORDO C/ POSICOES ESTABELECIDAS 181 * IV           00000000054100   0000130160096120191129202001130000000000000000000000000                                                00000000000  000   21    00040436205765054100PASSAGEIRO
2000000000373220191128209610PREF. DE: MA - ACAILANDIA               ACA0032888201911260923RUA NOVE, VILA ILDEMAR                                      OXX8078MA3157       HONDA/CG 150 TITAN EX                        PARTICULAR                    MOTOCICLETA     BRANCA    00000000JERVISON SILVA SANTOS                       QD 32 NR. N 61                          - VILA ILDEMAR                          65930000ACAILANDIA          MACOND. MOTOC/MOTON./CICLOM TRANSPORTANDO/PASSAG.S/C244 * II           00000000070481   0000293470096120191129202001130000000000000000000000000                                                00000000000  000   22    00070436205841970481PASSAGEIRO
2000000000373220191128209610PREF. DE: MA - ACAILANDIA               ACA0032890201911261133RUA SAO LUIS, CENTRO                                        PSP8439MA3157       HONDA/NXR 160 BROS                           PARTICULAR                    MOTOCICLETA     PRETA     00000000KARINNE DE SANTANA CONCEICAO                RUA 15 DE NOVEMBRO NR. 327              A - LARANJEIRA                          65930000ACAILANDIA          MAESTACIONAR NO PASSEIO                             181 * VIII         00000000054521   0000195230096120191129202001130000000000000000000000000                                                00000000000  000   23    00050436205921054521PASSAGEIRO
2000000000373220191128209610PREF. DE: MA - ACAILANDIA               ACA0032891201911270936RUA BOAM JESUS, CENTRO                                      OXZ0084MA3157       HONDA/BIZ 125 EX                             PARTICULAR                    MOTONETA        VERMELHA  00000000SILMARA PEREIRA OLIVEIRA LIMA               RUA 10 NR. 07                           - VILA ILDEAMR                          65930000ACAILANDIA          MATRANSIT. P/ CONTRAMAO EM VIAS C/ SENT. UNICO      186 * II           00000000057380   0000293470096120191129202001130000000000000000000000000                                                00000000000  000   24    00070436205994657380PASSAGEIRO
2000000000373220191128209610PREF. DE: MA - ACAILANDIA               ACA0032894201911270844AV.J.REINALDO TAVARES, VL ILDE                              HPV2162MA3157       VW/GOL 1.0                                   PARTICULAR                    AUTOMOVEL       CINZA     00000000NATALIA SILVA DA SILVA                      RUA PIAUI NR. N 793                     - LARANJEIRAS                           65930000ACAILANDIA          MAESTACIONAR EM DESACORDO C/ POSICOES ESTABELECIDAS 181 * IV           00000000054100   0000130160096120191129202001130000000000000000000000000                                                00000000000  000   25    00040436206072354100PASSAGEIRO
2000000000373220191128209610PREF. DE: MA - ACAILANDIA               ACA0032905201911271050R.SANTOS DUMONT C/R. D.CAXIAS                               NMS4722MA3165       YAMAHA/FACTOR YBR125 ED                      PARTICULAR                    MOTOCICLETA     VERMELHA  00000000MARIA JHEYCIELLE S DOS SANTOS               RUA PARAIBA NR. 33                      - VL UNIAO                              65930000ACAILANDIA          MATRANSIT. VEICULO COM LOTACAO EXCEDENTE            231 * VII          00000000068580   0000130160096120191129202001130000000000000000000000000                                                00000000000  000   26    00040436206219068580PASSAGEIRO
2000000000373220191128209610PREF. DE: MA - ACAILANDIA               ACA0032904201911270925R.DR.GERVASIO N.697, CENTRO                                 OJQ2441MA3165       CHEVROLET/S10 LTZ DD4A                       PARTICULAR                    CAMINHONETE     BRANCA    00000000ANCELMO LEANDRO ROCHA                       RUA DR GERVASIO NR. N 697               - CENTRO                                65930000ACAILANDIA          MAESTACIONAR EM DESACORDO C/ POSICOES ESTABELECIDAS 181 * IV           00000000054100   0000130160096120191129202001130000000000000000000000000                                                00000000000  000   27    00040436206773654100ESPECIAL
2000000000373220191128209610PREF. DE: MA - ACAILANDIA               ACA0032494201911271148R.DR.GERVASIO N.684, CENTRO                                 QEF1891MA3090       VW/GOL TL MC                                 PARTICULAR                    AUTOMOVEL       BRANCA    00000000OSVALDO DOS SANTOS CUTRIM                   AV NORTE SUL QD 37 NR. NR 25            - COHATRAC IV                           65066859SAO LUIS            MAESTACIONAR AO LADO DE OUTRO VEICULO EM FILA DUPLA 181 * XI           00000000054870   0000195230096120191129202001130000000000000000000000000                                                00000000000  000   28    00050436206841454870PASSAGEIRO
2000000000373220191128209610PREF. DE: MA - ACAILANDIA               ACA0032834201911271121R.SAO PAULO N.201A, CENTRO                                  PSU6655MA3132       FIAT/PALIO FIRE WAY                          PARTICULAR                    AUTOMOVEL       BRANCA    00000000DPL CONSTRUCOES LTDA                        AV PEDRO N DE SANTANA NR. 999           - PQ DA LAGOA                           65914630IMPERATRIZ          MAESTACIONAR AFASTADO DA GUIA DA CALCADA(MEIO-FIO) A181 * III          00000000054010   0000195230096120191129202001130000000000000000000000000                                                00000000000  000   29    00050436206921654010PASSAGEIRO
3000029000000000029
