1*NIPI207570201911260046772019112600000000000000
2100000000467720191126207570PREF. DE: MA - CAXIAS                   CXA0076828201910090953PCA DO PANTHEON                                             NXQ7069MA306461-SAMTVW/GOL 1.6 RALLYE                            PARTICULAR                    AUTOMOVEL       PRATA     00000000RONALDO PEREIRA DOS SANTOS                  TV N SRA DE FATIMA NR. 1360             - VOLTA REDONDA                         65606440CAXIAS              MAESTAC. EM DESACORDO C/ A REGULAMENTACAO ESPECIFICA181 * XVII         00000000055411   000019523007572019112720200110319036683868510000001561885620000001156180332100012007574419903668386851100000000000  000   2     00050426188999455411PASSAGEIRO
2100000000467720191126207570PREF. DE: MA - CAXIAS                   CXA0076869201909101440RUA GETULIO VARGAS                                          OIU6680MA122221-SAMTHONDA/CG 125 FAN KS                          PARTICULAR                    MOTOCICLETA     PRETA     00000000MARIA JOSE G DE A SILVA                     R SAO FRANCISCO NR. SN                  - CENTRO                                65300000SANTA INES          MACOND. MOTOC/MOTON./CICLOM TRANSPORTANDO/PASSAG.S/C244 * II           00000000070481   000029347007572019112720200110319036683869390000002347785690000002234770332100512007574419903668386939400000000000  000   3     00070426189460270481PASSAGEIRO
2100000000467720191126207570PREF. DE: MA - CAXIAS                   CXA0076855201909101705RUA AARAO REIS                                              PSO5235MA122221-SAMTHONDA/BIZ 100 KS                             PARTICULAR                    MOTONETA        PRETA     00000000CHARLAIK BATISTA LIMA                       RUA C QD E25 NR. 19                     - VILA PARAISO                          65607793CAXIAS              MACOND. MOTOC/MOTON./CICLOM TRANSPORTANDO/PASSAG.S/C244 * II           00000000070481   000029347007572019112720200110319036683870700000002347785620000002934770332100512007574419903668387070700000000000  000   4     00070426189719970481PASSAGEIRO
2100000000467720191126207570PREF. DE: MA - CAXIAS                   CXA0076871201909101530RUA GENERAL SAMPAIO                                         PSU4591MA122221-SAMTHONDA/CG 160 START                           PARTICULAR                    MOTOCICLETA     VERMELHA  00000000ALAN ROCHA DA SILVA                         RUA SAO JOSE NR. 1379                   - FAZENDINHA                            65600010CAXIAS              MATRANSITAR C/VEICULO EM CANTEIROS CENTRAIS         193                00000000058194   000088041007572019112720200110319036683871570000007043285620000007804320332100512007574419903668387157200000000000  000   5     00070426189927258194PASSAGEIRO
2100000000467720191126207570PREF. DE: MA - CAXIAS                   CXA0076870201909101457PCA CANDIDO MENDES                                          PSW5341MA122221-SAMTHONDA/POP 110I                               PARTICULAR                    MOTOCICLETA     PRETA     00000000SILMARA FREITAS OLIVEIRA                    RUA 13 QD-09 NR. N-16                   - COHAB                                 65604667CAXIAS              MACOND. MOTOC/MOTON./CICLOM TRANSPORTANDO/PASSAG.S/C244 * II           00000000070481   000029347007572019112720200110319036683872340000002347785640000002734770332100512007574419903668387234900000000000  000   6     00070426189952370481PASSAGEIRO
2100000000467720191126207570PREF. DE: MA - CAXIAS                   CXA0076872201909111510RUA GUSTAVO COLACO                                          PIQ3682MA           FORD/KA SE 1.0 SD                            PARTICULAR                    AUTOMOVEL       BRANCA    00000000ANTONIO TADEU DE ASSUNCAO NETO              RUA BELA VISTA NR. 1465                 - CASTELO BRANCO                        65600001CAXIAS              MAESTAC. EM LOCAL/HORARIO.DE ESTAC. E PARADA PROIBID181 * XIX          00000000055680   000019523007572019112720200110319036683873110000001561885660000001756180332100012007574419903668387311500000000000MA000   7     00050426190089055680PASSAGEIRO
2100000000467720191126207570PREF. DE: MA - CAXIAS                   CXA0077151201909131025RUA SENADOR COSTA RODRIGUES                                 NNH7655MA122161-SAMTHONDA/CG 125 FAN KS                          PARTICULAR                    MOTOCICLETA     PRETA     00000000EDIVALDO DE SOUSA SILVA                     RUA QUININHA PIRES NR. 586              - CENTRO                                65600000CAXIAS              MAESTAC. EM DESACORDO C/ A REGULAMENTACAO ESPECIFICA181 * XVII         00000000055411   000019523007572019112720200110319036683874090000001561885680000001556180332100012007574419903668387409700000000000  000   8     00050426190129355411PASSAGEIRO
2100000000467720191126207570PREF. DE: MA - CAXIAS                   CXA0077232201909171735RUA GUSTAVO COLACO                                          OJD4644MA122131-SAMTHONDA/POP100                                 PARTICULAR                    MOTOCICLETA     VERMELHA  00000000FRANCISCA DE SOUSA SILVA                    RUA SAO FRANCISCO NR. 966               - VOLTA REDONDA                         65600000CAXIAS              MAESTAC. EM LOCAL/HORARIO PROIBIDO ESPECIFIC. P/SINA181*XVIII          00000000055500   000013016007572019112720200110319036683875860000001041285620000001104120332100912007574419903668387586200000000000  000   9     00040426192137555500PASSAGEIRO
2100000000467720191126207570PREF. DE: MA - CAXIAS                   CXA0077008201909171545RUA GUSTAVO COLACO                                          LVW8753MA138301-SAMTI/TOYOTA HILUX CD4X4 SRV                     PARTICULAR                    CAMINHONETE     PRETA     00000000ALESSANDRO VELDECY C DE SOUSA               RUA ALEXANDRE MEDEIROS NR. 640          - VILA ARAIS                            65600000CAXIAS              MAESTAC. EM LOCAL/HORARIO.DE ESTAC. E PARADA PROIBID181 * XIX          00000000055680   000019523007572019112720200110319036683876630000001561885600000001356180332100012007574419903668387663900000000000  000   10    00050426192276255680ESPECIAL
2100000000467720191126207570PREF. DE: MA - CAXIAS                   CXA0077368201909170723RUA GUSTAVO COLACO                                          PSS1699MA306431-SAMTHONDA/NXR 160 BROS                           PARTICULAR                    MOTOCICLETA     BRANCA    00000000NATIA MESQUITA BRITO                        TV SAO FRANCISCO NR. N-867              - SERIEMA                               65602460CAXIAS              MAESTACIONAR NAS VAGAS RESERVADAS A IDOSOS, SEM CREDART 181, XX        00000000076252   000029347007572019112720200110319036683877400000002347785600000002134770332100512007574419903668387740500000000000  000   11    00070426192315776252PASSAGEIRO
2100000000467720191126207570PREF. DE: MA - CAXIAS                   CXA0077375201909171729PCA GENTIL FILHO                                            NWT1671MA306521-SAMTHONDA/POP100                                 PARTICULAR                    MOTOCICLETA     ROXA      00000000JOSE MOURA DE ALBUQUERQUE                   RUA CAJUEIRO NR. 1397                   - SERIEMA                               65600000CAXIAS              MAESTAC. EM LOCAL/HORARIO.DE ESTAC. E PARADA PROIBID181 * XIX          00000000055680   000019523007572019112720200110319036683878280000001561885690000001456180332100012007574419903668387828800000000000  000   12    00050426192558355680PASSAGEIRO
2100000000467720191126207570PREF. DE: MA - CAXIAS                   CXA0077374201909171724PCA GENTIL FILHO                                            PST0022MA306521-SAMTHONDA/BIZ 110I                               PARTICULAR                    MOTONETA        VERMELHA  00000000MARIA DA CONCEICAO DE S FARIAS              RUA 01 NR. 21                           QD 22 - COHAB                           65600010CAXIAS              MAESTAC. EM LOCAL/HORARIO.DE ESTAC. E PARADA PROIBID181 * XIX          00000000055680   000019523007572019112720200110319036683879050000001561885650000001856180332100012007574419903668387905400000000000  000   13    00050426192627055680PASSAGEIRO
2100000000467720191126207570PREF. DE: MA - CAXIAS                   CXA0077373201909171450RUA GUSTAVO COLACO                                          PIL7086MA306521-SAMTYAMAHA/XTZ150 CROSSER E                      PARTICULAR                    MOTOCICLETA     BRANCA    00000000BRUNO DA SILVA ABREU                        TV ALECRIM NR. 179                      - CANGALHEIRO                           65600010CAXIAS              MAESTACIONAR EM DESACORDO C/REGULAM-VAGA DE CARGA/DE181 * XVII         00000000055414   000019523007572019112720200110319036683880460000001561885670000001656180332100012007574419903668388046600000000000  000   14    00050426192807855414PASSAGEIRO
2100000000467720191126207570PREF. DE: MA - CAXIAS                   CXA0073890201909171505RUA GUSTAVO COLACO                                          PID7742MA306481-SAMTVW/GOL TL MB S                               PARTICULAR                    AUTOMOVEL       VERMELHA  00000000VALMIR ALVES FERREIRA                       AV SEN ALEXANDRE COSTA NR. 3138         - VILA LOBAO                            65605515CAXIAS              MAESTACIONAR EM DESACORDO C/REGULAM-VAGA DE CARGA/DE181 * XVII         00000000055414   000019523007572019112720200110319036683881230000001561885640000001956180332100012007574419903668388123300000000000  000   15    00050426192869855414PASSAGEIRO
2100000000467720191126207570PREF. DE: MA - CAXIAS                   CXA0077452201909171709RUA GUSTAVO COLACO                                          NHO6879MA306431-SAMTFIAT/PUNTO ELX 1.4                           PARTICULAR                    AUTOMOVEL       BEGE      00000000BANCO ITAULEASING S/A                       AV CONTORNO LESTE NR. NR02              PQ AURORA - COHATRAC                    65053570SAO LUIS            MAESTAC. EM DESACORDO C/ A REGULAMENTACAO ESPECIFICA181 * XVII         00000000055411   000019523007572019112720200110319036683882000000001561885600000001356180332100012007574419903668388200900000000000  000   16    00050426193308055411PASSAGEIRO
2100000000467720191126207570PREF. DE: MA - CAXIAS                   CXA0077453201909171423RUA GUSTAVO COLACO                                          OXQ1599MA306431-SAMTHONDA/BIZ 125 ES                             PARTICULAR                    MOTONETA        VERMELHA  00000000BETANIA MARIA S DA SILVA PINHO              RUA INDEPENDENCIA NR. 1205              - CENTRO                                65602210CAXIAS              MAESTACIONAR NAS VAGAS RESERV AS PESSOAS C/DEFIC.S/CART 181, XX        00000000076251   000029347007572019112720200110319036683883980000002347785660000002534770332100512007574419903668388398100000000000  000   17    00070426193496576251PASSAGEIRO
2100000000467720191126207570PREF. DE: MA - CAXIAS                   CXA0077454201909171427RUA GUSTAVO COLACO                                          NNF9230MA306431-SAMTHONDA/POP100                                 PARTICULAR                    MOTOCICLETA     LARANJA   00000000ISVELTA DA SILVA FERREIRA PINHO             R.SEN CLODOMIR CARDOSO NR. 2050         - VOLTA REDONDA                         65600000CAXIAS              MAESTACIONAR NAS VAGAS RESERV AS PESSOAS C/DEFIC.S/CART 181, XX        00000000076251   000029347007572019112720200110319036683884750000002347785620000002934770332100512007574419903668388475700000000000  000   18    00070426195077476251PASSAGEIRO
2100000000467720191126207570PREF. DE: MA - CAXIAS                   CXA0076829201910091103RUA SENADOR COSTA RODRIGUES                                 NXD0609MA306461-SAMTHONDA/CG 125 FAN ES                          PARTICULAR                    MOTOCICLETA     PRETA     00000000MARCIA REGINA ALVES RIBEIRO                 AVENIDA INDEPENDENCIA NR. 1362          - PONTE                                 65600000CAXIAS              MAESTAC. EM DESACORDO C/ A REGULAMENTACAO ESPECIFICA181 * XVII         00000000055411   000019523007572019112720200110319036671770510000001561885640000001956180332100012007574419903667177051300000000000  000   19    00050426196206355411PASSAGEIRO
2100000000467720191126207570PREF. DE: MA - CAXIAS                   CXA0077456201909171437RUA GUSTAVO COLACO                                          OJN0011MA306431-SAMTHONDA/POP100                                 PARTICULAR                    MOTOCICLETA     PRETA     00000000ELIS REGINA DOS S MORAIS                    RUA PIRAPEMAS QD 05 NR. 05              - DINIR SILVA                           65609000CAXIAS              MAESTAC. EM DESACORDO C/ A REGULAMENTACAO ESPECIFICA181 * XVII         00000000055411   000019523007572019112720200110319036683885520000001561885640000001956180332100012007574419903668388552300000000000  000   20    00050426196459755411PASSAGEIRO
2100000000467720191126207570PREF. DE: MA - CAXIAS                   CXA0077458201909171635PCA MAGALHAES DE ALMEIDA                                    NXA0546MA306431-SAMTHONDA/CG 150 FAN ESI                         PARTICULAR                    MOTOCICLETA     VERMELHA  00000000PEDRO HENRIQUE DA SILVA LEITE               AV BRASIL NR. 48                        - TRIZIDELA                             65690000COLINAS             MACOND. MOTOC/MOTON./CICLOM TRANSPORTANDO/PASSAG.S/C244 * II           00000000070481   000029347007572019112720200110319036683886300000002347785620000002934770332100512007574419903668388630700000000000  000   21    00070426386874970481PASSAGEIRO
2100000000467720191126207570PREF. DE: MA - CAXIAS                   CXA0077460201909171635PCA MAGALHAES DE ALMEIDA                                    NHR6059MA306431-SAMTHONDA/CG 150 TITAN ES                        PARTICULAR                    MOTOCICLETA     PRETA     00000000MARIA JOSE ALMADA DE OLIVEIRA               R RIACHUELO NR. 270                     - CENTRO                                65600000CAXIAS              MACOND. MOTOC/MOTON./CICLOM TRANSPORTANDO/PASSAG.S/C244 * II           00000000070481   000029347007572019112720200110319036683887170000002347785670000002434770332100512007574419903668388717200000000000  000   22    00070426387331970481PASSAGEIRO
2100000000467720191126207570PREF. DE: MA - CAXIAS                   CXA0077370201909170651AV PIRAJA                                                   PSD8934MA306521-SAMTHONDA/POP100                                 PARTICULAR                    MOTOCICLETA     BRANCA    00000000CRISTINA SILVA TATAGIBA                     AVENIDA PIRAJA NR. 2612                 - PIRAJA                                65608420CAXIAS              MACOND. MOTOC/MOTON./CICLOM TRANSPORTANDO/PASSAG.S/C244 * II           00000000070481   000029347007572019112720200110319036683888040000002347785630000002834770332100512007574419903668388804800000000000  000   23    00070426387756070481PASSAGEIRO
2100000000467720191126207570PREF. DE: MA - CAXIAS                   CXA0077369201909170730PCA CANDIDO MENDES                                          OXS6093MA306431-SAMTHONDA/POP100                                 PARTICULAR                    MOTOCICLETA     PRETA     00000000PEDRO RODRIGUES DA SILVA                    RUA 1 DE AGOSTO NR. 383                 - PONTE                                 65600000CAXIAS              MACOND. MOTOC/MOTON./CICLOM TRANSPORTANDO/PASSAG.S/C244 * II           00000000070481   000029347007572019112720200110319036683889810000002347785690000002234770332100512007574419903668388981400000000000  000   24    00070426388123070481PASSAGEIRO
2100000000467720191126207570PREF. DE: MA - CAXIAS                   CXA0077234201909171500AV EDSON LOBAO                                              PSU4739MA122131-SAMTHONDA/NXR 160 BROS                           PARTICULAR                    MOTOCICLETA     PRETA     00000000SERGIO CHAGAS DE SOUZA                      TRAVESSA  JERUSALEM NR. 1946            CASA - NOVA CAXIAS                      65604320CAXIAS              MACOND. MOTOC/MOTON./CICLOM TRANSPORTANDO/PASSAG.S/C244 * II           00000000070481   000029347007572019112720200110319036683890120000002347785620000002934770332100512007574419903668389012700000000000  000   25    00070426389078770481PASSAGEIRO
2100000000467720191126207570PREF. DE: MA - CAXIAS                   CXA0077231201909171430RUA DESENBARGADOR MORATO                                    PSD8711MA122131-SAMTHONDA/POP100                                 PARTICULAR                    MOTOCICLETA     BRANCA    00000000ROSEMARY FRAZAO MOURA                       RUA NORTE NR. 1332                      - SAO SEBASTIAO                         65400000CODO                MAESTAC. EM LOCAL/HORARIO PROIBIDO ESPECIFIC. P/SINA181*XVIII          00000000055500   000013016007572019112720200110319036683891000000001041285600000001304120332100912007574419903668389100000000000000  000   26    00040426389566555500PASSAGEIRO
2100000000467720191126207570PREF. DE: MA - CAXIAS                   CXA0077229201909171425RUA DESENBARGADOR MORATO                                    PSD8507MA122131-SAMTHONDA/POP100                                 PARTICULAR                    MOTOCICLETA     VERMELHA  00000000FRANCISCO JEOVA DE LACERDA LIRA             RUA MARINHA NR. 1572                    - CAMPO BELEM                           65600010CAXIAS              MAESTACIONAR NAS VAGAS RESERVADAS A IDOSOS, SEM CREDART 181, XX        00000000076252   000029347007572019112720200110319036683892870000002347785600000002134770332100512007574419903668389287500000000000  000   27    00070426390091076252PASSAGEIRO
2100000000467720191126207570PREF. DE: MA - CAXIAS                   CXA0077227201909171545PCA MAGALHAES DE ALMEIDA                                    NNG0036MA122131-SAMTYAMAHA/FACTOR YBR125 K                       PARTICULAR                    MOTOCICLETA     VERMELHA  00000000FRANCISCO CARLOS DA SILVA JUNIOR            RUA SANTA CRUZ NR. 6                    QD E - REC DOS POETAS                   65600360CAXIAS              MACOND. MOTOCICLETA/MOTONETA/CICLOM S/CAPACETE DE SE244 * I            00000000070301   000029347007572019112720200110319036683893640000002347785640000002734770332100512007574719203668389364200000000000  000   28    00070426390336670301PASSAGEIRO
2100000000467720191126207570PREF. DE: MA - CAXIAS                   CXA0077235201909171510AV EDSON LOBAO                                              OXR4026MA122131-SAMTHONDA/BIZ 125 ES                             PARTICULAR                    MOTONETA        VERMELHA  00000000MARIA DOS SANTOS ARAUJO FERREIRA            RUA COHAB NR. 1852                      - VL SAO JOSE                           65600000CAXIAS              MACOND. MOTOC/MOTON./CICLOM TRANSPORTANDO/PASSAG.S/C244 * II           00000000070481   000029347007572019112720200110319036683894410000002347785630000002834770332100512007574419903668389441800000000000  000   29    00070426390541570481PASSAGEIRO
2100000000467720191126207570PREF. DE: MA - CAXIAS                   CXA0077236201909171545PCA DO PANTHEON                                             PSZ6319MA122131-SAMTHONDA/POP 110I                               PARTICULAR                    MOTOCICLETA     PRETA     00000000DEUZIANE DOS SANTOS QUEIROZ                 RUA DO CANARIO QD-A-24 NR. N-16         RES. - VILA PARAISO                     65607865CAXIAS              MACOND. MOTOC/MOTON./CICLOM TRANSPORTANDO/PASSAG.S/C244 * II           00000000070481   000029347007572019112720200110319036683895290000002347785650000002634770332100512007574419903668389529000000000000  000   30    00070426390724870481PASSAGEIRO
2100000000467720191126207570PREF. DE: MA - CAXIAS                   CXA0077238201909171740AV RODOVIARIA                                               NXC2042MA122131-SAMTHONDA/POP100                                 PARTICULAR                    MOTOCICLETA     PRETA     00000000SEBASTIAO DE AMORIM PEREIRA                 RUA PEDREIRAS NR. 1501                  - VL LOBAO                              65600010CAXIAS              MACOND. MOTOC/MOTON./CICLOM TRANSPORTANDO/PASSAG.S/C244 * II           00000000070481   000029347007572019112720200110319036683896060000002347785610000002034770332100512007574419903668389606600000000000  000   31    00070426390885670481PASSAGEIRO
2100000000467720191126207570PREF. DE: MA - CAXIAS                   CXA0076743201909171050AV RODRIGUES OTAVIO                                         PSH5642MA305941-SAMTHONDA/BIZ 125 ES                             PARTICULAR                    MOTONETA        PRATA     00000000FRANCILENE MARTINS DE SOUSA                 II TV DAS FLORES NR. 1050               - SIRIEMA                               65602750CAXIAS              MACOND. MOTOCICLETA/MOTONETA/CICLOM S/CAPACETE DE SE244 * I            00000000070301   000029347007572019112720200110319036683897930000002347785640000002734770332100512007574719203668389793200000000000  000   32    00070426391170970301PASSAGEIRO
2100000000467720191126207570PREF. DE: MA - CAXIAS                   CXA0076742201909170855AV OTAVIO PASSOS                                            OJC6052MA305941-SAMTHONDA/CG 125 FAN ES                          PARTICULAR                    MOTOCICLETA     VERMELHA  00000000CLEIDE MARIA SILVA VIEIRA                   RUA TAMARINEIRO NR. 683                 - TAMARINEIRO                           65600000CAXIAS              MAESTAC. EM DESACORDO C/ A REGULAMENTACAO ESPECIFICA181 * XVII         00000000055411   000019523007572019112720200110319036683898700000001561885690000001456180332100012007574419903668389870800000000000  000   33    00050426392233655411PASSAGEIRO
2100000000467720191126207570PREF. DE: MA - CAXIAS                   CXA0077322201908181625PCA MAGALHAES DE ALMEIDA                                    NXO8085MA123611-SAMTHONDA/BIZ 125 ES                             PARTICULAR                    MOTONETA        VERMELHA  00000000LUIS CLAUDIO ALVES FARIAS                   RUA SAO PEDRO NR. 1547                  - SERIEMA                               65602380CAXIAS              MACOND. MOTOC/MOTON./CICLOM TRANSPORTANDO/PASSAG.S/C244 * II           00000000070481   000029347007572019112720200110319036683899580000002347785660000002534770332100512007574419903668389958100000000000  000   34    00070426393003770481PASSAGEIRO
2100000000467720191126207570PREF. DE: MA - CAXIAS                   CXA0077451201909170949TRAV SENADOR COSTA RODRIGUES                                NWW3345MA306431-SAMTCHEVROLET/CLASSIC LS                         PARTICULAR                    AUTOMOVEL       PRATA     00000000GERCIANE LOPES CARVALHO DE SOUSA            RUA DAS GOIABEIRAS QD L NR. N-21        - NOVA CAXIAS                           65600000CAXIAS              MAESTAC. EM DESACORDO C/ A REGULAMENTACAO ESPECIFICA181 * XVII         00000000055411   000019523007572019112720200110319036683900200000001561885680000001556180332100012007574419903668390020700000000000  000   35    00050426393143255411PASSAGEIRO
2100000000467720191126207570PREF. DE: MA - CAXIAS                   CXA0077464201909180735PCA DO PANTHEON                                             OIY8636MA306431-SAMTHONDA/BIZ 125 EX                             PARTICULAR                    MOTONETA        VERMELHA  00000000OSIELE DA SILVA PEREIRA                     TRAV CALDEIROES NR. 547                 - CALDEIROES                            65608300CAXIAS              MATRANSIT. P/ CONTRAMAO EM VIAS C/ SENT. UNICO      186 * II           00000000057380   000029347007572019112720200110319036683901080000002347785650000002634770332100512007574419903668390108000000000000  000   36    00070426393384257380PASSAGEIRO
2100000000467720191126207570PREF. DE: MA - CAXIAS                   CXA0077466201909180853RUA GUSTAVO COLACO                                          OXV4845MA306431-SAMTHONDA/POP100                                 PARTICULAR                    MOTOCICLETA     VERMELHA  00000000ANTONIO FERREIRA                            RUA DA CHAPADINHA NR. SN                - CENTRO                                65230000CAJAPIO             MAESTAC. EM DESACORDO C/ A REGULAMENTACAO ESPECIFICA181 * XVII         00000000055411   000019523007572019112720200110319036683902950000001561885660000001756180332100012007574419903668390295500000000000  000   37    00050426393699055411PASSAGEIRO
2100000000467720191126207570PREF. DE: MA - CAXIAS                   CXA0077467201909180921RUA GUSTAVO COLACO                                          PTL9576MA306431-SAMTHONDA/NXR160 BROS ESD                        PARTICULAR                    MOTOCICLETA     VERMELHA  00000000DANIEL LIMA DE AQUINO                       RUA AMAZONAS NR. 627                    - PIRAJA                                65608430CAXIAS              MAESTACIONAR NAS VAGAS RESERV AS PESSOAS C/DEFIC.S/CART 181, XX        00000000076251   000029347007572019112720200110319036683903720000002347785670000002434770332100512007574419903668390372200000000000  000   38    00070426393958176251PASSAGEIRO
2100000000467720191126207570PREF. DE: MA - CAXIAS                   CXA0077468201909180931RUA GUSTAVO COLACO                                          OXY0872MA306431-SAMTHONDA/POP100                                 PARTICULAR                    MOTOCICLETA     PRETA     00000000MARIA DA CONCEICAO GOMES                    II TV LEONCIO MAGNO NR. 2020            - VOLTA REDONDA                         65600000CAXIAS              MAESTAC. EM DESACORDO C/ A REGULAMENTACAO ESPECIFICA181 * XVII         00000000055411   000019523007572019112720200110319036683904500000001561885670000001656180332100012007574419903668390450600000000000  000   39    00050426394198555411PASSAGEIRO
2100000000467720191126207570PREF. DE: MA - CAXIAS                   CXA0077473201909181123AV OTAVIO PASSOS                                            NNB5520MA306431-SAMTHONDA/BIZ 125 ES                             PARTICULAR                    MOTONETA        PRETA     00000000MARIA DA CONCEICAO A RIBEIRO                RUA NESTOR MILHOMEM NR. N 200           A - CIDADE NOVA                         65922000JOAO LISBOA         MAESTAC. EM LOCAL/HORARIO PROIBIDO ESPECIFIC. P/SINA181*XVIII          00000000055500   000013016007572019112720200110319036683905370000001041285600000001304120332100912007574419903668390537000000000000  000   40    00040426394460755500PASSAGEIRO
2100000000467720191126207570PREF. DE: MA - CAXIAS                   CXA0073894201909181720PCA CANDIDO MENDES                                          PSO4147MA306481-SAMTHONDA/POP 110I                               PARTICULAR                    MOTOCICLETA     BRANCA    00000000JOAO ERMERSON MOURA FERREIRA                TRAVESSA OTAVIO PASSOS NR. 215          - CENTRO                                65600010CAXIAS              MACOND. MOTOC/MOTON./CICLOM TRANSPORTANDO/PASSAG.S/C244 * II           00000000070481   000029347007572019112720200110319036683906140000002347785620000002934770332100512007574419903668390614700000000000  000   41    00070426394764970481PASSAGEIRO
2100000000467720191126207570PREF. DE: MA - CAXIAS                   CXA0073892201909181441RUA SAO BENEDITO                                            OJP0513MA306481-SAMTHONDA/BIZ 100 ES                             PARTICULAR                    MOTONETA        ROSA      00000000MAGNA MARIA DA COSTA BARROS                 TV BOA VISTA NR. 883                    - TAMARINEIRO                           65600010CAXIAS              MACOND. MOTOC/MOTON./CICLOM TRANSPORTANDO/PASSAG.S/C244 * II           00000000070481   000029347007572019112720200110319036683907010000002347785670000002434770332100512007574419903668390701200000000000  000   42    00070426395163870481PASSAGEIRO
2100000000467720191126207570PREF. DE: MA - CAXIAS                   CXA0077381201909181713PCA CANDIDO MENDES                                          OJP7170MA306521-SAMTHONDA/BIZ 100 ES                             PARTICULAR                    MOTONETA        VERMELHA  00000000FRANCISCO FERREIRA PEREIRA                  AV ITAPECURUZINHO NR. 1034              - CONSTANT CASTRO                       65600000CAXIAS              MACOND. MOTOC/MOTON./CICLOM TRANSPORTANDO/PASSAG.S/C244 * II           00000000070481   000029347007572019112720200110319036683908890000002347785600000002134770332100512007574419903668390889500000000000  000   43    00070426395539070481PASSAGEIRO
2100000000467720191126207570PREF. DE: MA - CAXIAS                   CXA0077378201909181410RUA GUSTAVO COLACO                                          HPM8725MA306521-SAMTHONDA/C100 BIZ                               PARTICULAR                    MOTONETA        VERMELHA  00000000MARIA ALZEIDE NASCIMENTO PADUA              R.ANICETO CRUZ N.355 NR.                - TRIZIDELA                             65600000CAXIAS              MAESTAC. EM LOCAL/HORARIO PROIBIDO ESPECIFIC. P/SINA181*XVIII          00000000055500   000013016007572019112720200110319036683909660000001041285610000001204120332100912007574419903668390966100000000000  000   44    00040426395898555500PASSAGEIRO
2100000000467720191126207570PREF. DE: MA - CAXIAS                   CXA0077410201909181740PCA CANDIDO MENDES                                          PTB4990MA78162-SAMT HONDA/CG 160 FAN                             PARTICULAR                    MOTOCICLETA     BRANCA    00000000CIDNA FACANHA BARROS COSTA                  TV SAO JOSE NR. N-42                    - TREZIDELA                             65607450CAXIAS              MACOND. MOTOC/MOTON./CICLOM TRANSPORTANDO/PASSAG.S/C244 * II           00000000070481   000029347007572019112720200110319036683910070000002347785680000002334770332100512007574419903668391007300000000000  000   45    00070426396567170481PASSAGEIRO
2100000000467720191126207570PREF. DE: MA - CAXIAS                   CXA0077407201909181500PCA CANDIDO MENDES                                          NHK2304MA78162-SAMT SUNDOWN/MAX 125 SE                           PARTICULAR                    MOTOCICLETA     PRATA     00000000MARCELINO BARBOSA DA S NETO                 RUA PROF ANA CORREIA NR. 1075           - CENTRO                                65600000CAXIAS              MACOND. MOTOC/MOTON./CICLOM TRANSPORTANDO/PASSAG.S/C244 * II           00000000070481   000029347007572019112720200110319036683911840000002347785650000002634770332100512007574419903668391184000000000000  000   46    00070426397003970481PASSAGEIRO
2100000000467720191126207570PREF. DE: MA - CAXIAS                   CXA0077411201909181800PCA CANDIDO MENDES                                          OJB7588MA78162-SAMT HONDA/POP100                                 PARTICULAR                    MOTOCICLETA     PRETA     00000000RICARDO LIMA DE SOUSA                       TRAV PALMEIRINHA     NR. NR. 190        - ENGENHO                               65725000PEDREIRAS           MACOND. MOTOC/MOTON./CICLOM TRANSPORTANDO/PASSAG.S/C244 * II           00000000070481   000029347007572019112720200110319036683912610000002347785610000002034770332100512007574419903668391261600000000000  000   47    00070426397211270481PASSAGEIRO
2100000000467720191126207570PREF. DE: MA - CAXIAS                   CXA0077241201909181630PCA MAGALHAES DE ALMEIDA                                    PSS6645MA122131-SAMTHONDA/POP 110I                               PARTICULAR                    MOTOCICLETA     PRETA     00000000CARLOS JORGE RODRIGUES PEREIRA              RUA BALSAS QD-F NR. N-04                RESIDENCIAL - HELIO QUEIROZ             65604510CAXIAS              MACOND. MOTOC/MOTON./CICLOM TRANSPORTANDO/PASSAG.S/C244 * II           00000000070481   000029347007572019112720200110319036683913490000002347785640000002734770332100512007574419903668391349900000000000  000   48    00070426397417470481PASSAGEIRO
2100000000467720191126207570PREF. DE: MA - CAXIAS                   CXA0077239201909181405AV OTAVIO PASSOS                                            OIS6383MA122131-SAMTHONDA/BIZ 125 KS                             PARTICULAR                    MOTONETA        ROSA      00000000CRISMELE DE BRITO MOURA                     AV CONSTATINO CASTRO NR. 30             - PAMPULHA                              65600000CAXIAS              MAESTAC. EM LOCAL/HORARIO PROIBIDO ESPECIFIC. P/SINA181*XVIII          00000000055500   000013016007572019112720200110319036683914260000001041285650000001804120332100912007574419903668391426500000000000  000   49    00040426398010755500PASSAGEIRO
2100000000467720191126207570PREF. DE: MA - CAXIAS                   CXA0077240201909181620PCA MAGALHAES DE ALMEIDA                                    NNH4315MA122131-SAMTHONDA/CG 125 FAN KS                          PARTICULAR                    MOTOCICLETA     VERMELHA  00000000RAILLA FRANCIELE OLIVEIRA CUNHA             AV N SRA SANTANA NR. 158                - BOM SUCESSO                           65620000COELHO NETO         MACOND. MOTOC/MOTON./CICLOM TRANSPORTANDO/PASSAG.S/C244 * II           00000000070481   000029347007572019112720200110319036683915030000002347785660000002534770332100512007574419903668391503100000000000  000   50    00070426398274670481PASSAGEIRO
2100000000467720191126207570PREF. DE: MA - CAXIAS                   CXA0077321201909181620PCA MAGALHAES DE ALMEIDA                                    PSQ0617MA123611-SAMTCHEVROLET/COBALT 18A ELI                     PARTICULAR                    AUTOMOVEL       PRATA     00000000JOSE GUTEMBERG PRIMO MESQUITA               RUA DO ESPIRITO SANTO NR. 1107          - CANGALHEIRO                           65606290CAXIAS              MADIR.VEIC. UTILIZANDO-SE DE TELEFONE CELULAR       252 * VI           00000000073662   000013016007572019112720200110319036683916900000001041285630000001004120332100912007574719203668391690600000000000  000   51    00040426398559173662PASSAGEIRO
2100000000467720191126207570PREF. DE: MA - CAXIAS                   CXA0077319201909181540RUA MAGALHAES DE ALMEIDA                                    OJJ5811MA123611-SAMTHONDA/CG 125 FAN KS                          PARTICULAR                    MOTOCICLETA     PRETA     00000000EDIVAN MACHADO DA SILVA                     TV RODRIGO OTAVIO NR. 387               - TRIZIDELA                             65615000SAO JOAO DO SOTER   MACOND. MOTOC/MOTON./CICLOM TRANSPORTANDO/PASSAG.S/C244 * II           00000000070481   000029347007572019112720200110319036683917780000002347785640000002734770332100512007574419903668391778900000000000  000   52    00070426398829970481PASSAGEIRO
2100000000467720191126207570PREF. DE: MA - CAXIAS                   CXA0077324201909181630PCA MAGALHAES DE ALMEIDA                                    OJP9540MA123611-SAMTHONDA/BIZ 125 EX                             PARTICULAR                    MOTONETA        BRANCA    00000000FERNANDO COSTA DE OLIVEIRA                  RUA PEDRO CAIXA DAGUA NR. 149           - INCRA                                 65950000BARRA DO CORDA      MACOND. MOTOC/MOTON./CICLOM TRANSPORTANDO/PASSAG.S/C244 * II           00000000070481   000029347007572019112720200110319036683918550000002347785600000002134770332100512007574419903668391855500000000000  000   53    00070426399075770481PASSAGEIRO
2100000000467720191126207570PREF. DE: MA - CAXIAS                   CXA0077455201909171431RUA GUSTAVO COLACO                                          NHT2912MA306431-SAMTJTA/SUZUKI EN125 YES                         PARTICULAR                    MOTOCICLETA     AZUL      00000000FABIANO FRANCO CARDOSO                      RUA NASCIMENTO DE MORAIS NR. NR         1263 - SAO FRANCISCO                    65076000SAO LUIS            MAESTACIONAR NAS VAGAS RESERV AS PESSOAS C/DEFIC.S/CART 181, XX        00000000076251   000029347007572019112720200110319036646604420000002347785600000002134770332100512007574419903664660442500000000000  000   54    00070426399249076251PASSAGEIRO
2100000000467720191126207570PREF. DE: MA - CAXIAS                   CXA0076873201909171440RUA DA INDEPENDENCIA                                        NWW6091MA122221-SAMTHONDA/NXR150 BROS ES                         PARTICULAR                    MOTOCICLETA     PRETA     00000000CASSIO PEREIRA ANDRADE MOREIRA              R STA MARIA NR. 2129                    - REFINARIA                             65600010CAXIAS              MACOND. MOTOC/MOTON./CICLOM TRANSPORTANDO/PASSAG.S/C244 * II           00000000070481   000029347007572019112720200110319036683919320000002347785670000002434770332100512007574419903668391932200000000000  000   55    00070426407905570481PASSAGEIRO
2100000000467720191126207570PREF. DE: MA - CAXIAS                   CXA0076874201909171505PCA CANDIDO MENDES                                          HQC0766MA122221-SAMTHONDA/BIZ 125 ES                             PARTICULAR                    MOTONETA        VERMELHA  00000000MARIA DA CONCEICAO D C DA SILVA             R.CASTELO BRANCO NR. 1071               F.99-3521-3233 - CAMPO DE BELEM         65600000CAXIAS              MACOND. MOTOCICLETA/MOTONETA/CICLOM S/CAPACETE DE SE244 * I            00000000070301   000029347007572019112720200110319036683920730000002347785660000002534770332100512007574719203668392073400000000000  000   56    00070426408370270301PASSAGEIRO
2100000000467720191126207570PREF. DE: MA - CAXIAS                   CXA0076875201909171506PCA CANDIDO MENDES                                          HQC0766MA122221-SAMTHONDA/BIZ 125 ES                             PARTICULAR                    MOTONETA        VERMELHA  00000000MARIA DA CONCEICAO D C DA SILVA             R.CASTELO BRANCO NR. 1071               F.99-3521-3233 - CAMPO DE BELEM         65600000CAXIAS              MATRANSIT. P/ CONTRAMAO EM VIAS C/ SENT. UNICO      186 * II           00000000057380   000029347007572019112720200110319036683921500000002347785650000002634770332100512007574419903668392150000000000000  000   57    00070426408557857380PASSAGEIRO
2100000000467720191126207570PREF. DE: MA - CAXIAS                   CXA0076876201909171515RUA 13 DE MAIO                                              PSB2493MA122221-SAMTHONDA/NXR160 BROS ESDD                       PARTICULAR                    MOTOCICLETA     VERMELHA  00000000ANTONIO BRUNO SANTOS DE ALENCAR             TV CLODOMIR CARDOSO NR. 268             - CANGALHEIRO                           65600000CAXIAS              MACOND. MOTOC/MOTON./CICLOM TRANSPORTANDO/PASSAG.S/C244 * II           00000000070481   000029347007572019112720200110319036683922380000002347785680000002334770332100512007574419903668392238300000000000  000   58    00070426408706670481PASSAGEIRO
2100000000467720191126207570PREF. DE: MA - CAXIAS                   CXA0076877201909171520RUA BENEDITO REIS                                           OJF5468MA122221-SAMTHONDA/BIZ 100 ES                             PARTICULAR                    MOTONETA        PRETA     00000000OLGA SOLANGE RODRIGUES LEITE                RUA ABEL ANTUNES NR. 669                - CENTRO                                65600130CAXIAS              MATRANSIT. P/ CONTRAMAO EM VIAS C/ SENT. UNICO      186 * II           00000000057380   000029347007572019112720200110319036683923150000002347785640000002734770332100512007574419903668392315900000000000  000   59    00070426408892557380PASSAGEIRO
2100000000467720191126207570PREF. DE: MA - CAXIAS                   CXA0076878201909171521RUA BENEDITO REIS                                           OJF5468MA122221-SAMTHONDA/BIZ 100 ES                             PARTICULAR                    MOTONETA        PRETA     00000000OLGA SOLANGE RODRIGUES LEITE                RUA ABEL ANTUNES NR. 669                - CENTRO                                65600130CAXIAS              MACOND. MOTOC/MOTON./CICLOM TRANSPORTANDO/PASSAG.S/C244 * II           00000000070481   000029347007572019112720200110319036683924020000002347785600000002134770332100512007574419903668392402500000000000  000   60    00070426409041570481PASSAGEIRO
2100000000467720191126207570PREF. DE: MA - CAXIAS                   CXA0077152201909180925RUA RIO BRANCO                                              NNB4611MA122161-SAMTHONDA/CG 125 FAN ES                          PARTICULAR                    MOTOCICLETA     AMARELA   00000000ANTONIO FRANCISCO DA S OLIVEIRA             TV PIQUIZEIRO NR. 1005                  - MUTIRAO                               65604865CAXIAS              MAESTAC. EM DESACORDO C/ A REGULAMENTACAO ESPECIFICA181 * XVII         00000000055411   000019523007572019112720200110319036683925800000001561885690000001456180332100012007574419903668392580800000000000  000   61    00050426409505055411PASSAGEIRO
2100000000467720191126207570PREF. DE: MA - CAXIAS                   CXA0077073201909191105RUA GUSTAVO COLACO                                          PSD6226MA122181-SAMTHONDA/CG 125 FAN KS                          PARTICULAR                    MOTOCICLETA     VERMELHA  00000000RAIMUNDO NONATO SANTOS DAMASCENO            RUA SAO JOSE NR. 1693                   - FAZENDINHA                            65607440CAXIAS              MAESTACIONAR NAS VAGAS RESERV AS PESSOAS C/DEFIC.S/CART 181, XX        00000000076251   000029347007572019112720200110319036683926670000002347785680000002334770332100512007574419903668392667300000000000  000   62    00070426409803376251PASSAGEIRO
2100000000467720191126207570PREF. DE: MA - CAXIAS                   CXA0077074201909191105RUA GUSTAVO COLACO                                          NMW9937MA122181-SAMTHONDA/CG 125 FAN KS                          PARTICULAR                    MOTOCICLETA     VERMELHA  00000000JOSE ROBERTO ALVES DA SILVA                 PV ITAGUARA NR. SN                      - PV ITAGUARA                           65630000TIMON               MAESTAC. EM DESACORDO C/ A REGULAMENTACAO ESPECIFICA181 * XVII         00000000055411   000019523007572019112720200110319036683927440000001561885610000001256180332100012007574419903668392744000000000000  000   63    00050426410070455411PASSAGEIRO
2100000000467720191126207570PREF. DE: MA - CAXIAS                   CXA0077752201909191022RUA GUSTAVO COLACO                                          NXH1383MA306051-SAMTHONDA/LEAD 110                               PARTICULAR                    MOTONETA        ROSA      00000000MARIA GENI CAMPOS                           RUA SEGISNANDO MOURA NR. 735            - PONTE                                 65600000CAXIAS              MAESTAC. EM LOCAL/HORARIO PROIBIDO ESPECIFIC. P/SINA181*XVIII          00000000055500   000013016007572019112720200110319036683928210000001041285660000001704120332100912007574419903668392821600000000000  000   64    00040426410437855500PASSAGEIRO
2100000000467720191126207570PREF. DE: MA - CAXIAS                   CXA0076802201909211140RUA MENINO DEUS                                             PSF7547MA306461-SAMTHONDA/CG 150 TITAN EX                        PARTICULAR                    MOTOCICLETA     VERMELHA  00000000RAILANE ARAUJO DA SILVA                     RUA MATADOURO NR. 399                   - TRIZIDELA                             65607610CAXIAS              MACOND. MOTOCICLETA/MOTONETA/CICLOM S/CAPACETE DE SE244 * I            00000000070301   000029347007572019112720200110319036683929090000002347785610000002034770332100512007574719203668392909900000000000  000   65    00070426410801270301PASSAGEIRO
2100000000467720191126207570PREF. DE: MA - CAXIAS                   CXA0077751201909191221RUA GUSTAVO COLACO                                          NHA7049MA306051-SAMTHONDA/CG 150 TITAN KS                        PARTICULAR                    MOTOCICLETA     PRETA     00000000MARIO JOSE RODRIGUES DA SILVA               RUA FERROVIA N-1541 NR.                 - CALDEIROES                            65607290CAXIAS              MAESTAC. EM LOCAL/HORARIO PROIBIDO ESPECIFIC. P/SINA181*XVIII          00000000055500   000013016007572019112720200110319036683930400000001041285620000001104120332100912007574419903668393040200000000000  000   66    00040426411154455500PASSAGEIRO
2100000000467720191126207570PREF. DE: MA - CAXIAS                   CXA0077068201909191020PCA RUY BARBOSA                                             OIU9803MA122181-SAMTHONDA/NXR150 BROS ES                         PARTICULAR                    MOTOCICLETA     PRETA     00000000ANTONIA MARIA DA CONCEICAO                  RUA CAMPO NR. 115                       - MUTIRAO                               65600000CAXIAS              MAESTAC. EM DESACORDO C/ A REGULAMENTACAO ESPECIFICA181 * XVII         00000000055411   000019523007572019112720200110319036683931270000001561885680000001556180332100012007574419903668393127700000000000  000   67    00050426411844155411PASSAGEIRO
2100000000467720191126207570PREF. DE: MA - CAXIAS                   CXA0077757201909200953RUA GUSTAVO COLACO                                          PSX7959MA306051-SAMTHONDA/BIZ 125                                PARTICULAR                    MOTONETA        VERMELHA  00000000MARIA DE JESUS MORAES C SILVA               RUA FREI SERAFIM NR. 1798               - NOVA CAXIAS                           65604340CAXIAS              MAESTAC. EM DESACORDO C/ A REGULAMENTACAO ESPECIFICA181 * XVII         00000000055411   000019523007572019112720200110319036683932040000001561885650000001856180332100012007574419903668393204400000000000  000   68    00050426412152355411PASSAGEIRO
2100000000467720191126207570PREF. DE: MA - CAXIAS                   CXA0077755201909200942RUA GUSTAVO COLACO                                          NXB4275MA306051-SAMTJTA/SUZUKI EN125 YES SE                      PARTICULAR                    MOTOCICLETA     PRETA     00000000VALDEMIR PEREIRA DE OLIVEIRA                II TRAV DO FIO NR. 552                  - CANGALHEIRO                           65600000CAXIAS              MAESTAC. EM DESACORDO C/ A REGULAMENTACAO ESPECIFICA181 * XVII         00000000055411   000019523007572019112720200110319036683933910000001561885600000001356180332100012007574419903668393391900000000000  000   69    00050426412863355411PASSAGEIRO
2100000000467720191126207570PREF. DE: MA - CAXIAS                   CXA0077756201909200952RUA GUSTAVO COLACO                                          PSA8353MA306051-SAMTYAMAHA/T115 CRYPTON ED                       PARTICULAR                    MOTONETA        LARANJA   00000000MARIA CONCEICAO DOS SANTOS                  RUA 23 QD B-16 NR. 11                   - TESO DURO                             65600000CAXIAS              MAESTAC. EM DESACORDO C/ A REGULAMENTACAO ESPECIFICA181 * XVII         00000000055411   000019523007572019112720200110319036683934790000001561885630000001056180332100012007574419903668393479200000000000  000   70    00050426413231255411PASSAGEIRO
2100000000467720191126207570PREF. DE: MA - CAXIAS                   CXA0076880201909201515PCA CANDIDO MENDES                                          NMZ2621MA122221-SAMTHONDA/POP100                                 PARTICULAR                    MOTOCICLETA     PRETA     00000000MARIA FRANCISCA ALVES DA SILVA              RUA RIO BRANCO NR. NR 20                - CENTRO                                65685000BURITI BRAVO        MACOND. MOTOC/MOTON./CICLOM TRANSPORTANDO/PASSAG.S/C244 * II           00000000070481   000029347007572019112720200110319036683935560000002347785620000002934770332100512007574419903668393556700000000000  000   71    00070426414620870481PASSAGEIRO
2100000000467720191126207570PREF. DE: MA - CAXIAS                   CXA0076883201909201650RUA GUSTAVO COLACO                                          PTK1342MA122221-SAMTI/VW AMAROK CD 4X4 COMF                      PARTICULAR                    CAMINHONETE     CINZA     00000000ADENILSON D. S. I. DE ADVOCACIA             RUA DR. BERREDO NR. 811                 - CENTRO                                65604050CAXIAS              MAESTAC. EM LOCAL/HORARIO PROIBIDO ESPECIFIC. P/SINA181*XVIII          00000000055500   000013016007572019112720200110319036683936330000001041285640000001904120332100912007574419903668393633400000000000  000   72    00040426415208955500ESPECIAL
2100000000467720191126207570PREF. DE: MA - CAXIAS                   CXA0076812201909221051RUA DR. BERREDO                                             OVW1562MA306461-SAMTHYUNDAI/HB20S 1.6A COMF                      PARTICULAR                    AUTOMOVEL       BRANCA    00000000LIGIA MARIA MATIAS SILVA                    RUA DAS LAGES NR. 801                   - CANGALHEIRO                           65606530CAXIAS              MAESTAC. VEIC. NAS ESQU. E MENOS DE 5M DO ALINHAMENT181 * I            00000000053800   000013016007572019112720200110319036683937100000001041285600000001304120332100912007574419903668393710000000000000  000   73    00040426415688253800PASSAGEIRO
2100000000467720191126207570PREF. DE: MA - CAXIAS                   CXA0077753201909200931RUA GUSTAVO COLACO                                          NXC3816MA306051-SAMTHONDA/NXR150 BROS ES                         PARTICULAR                    MOTOCICLETA     LARANJA   00000000JEFFER JAMYS NASCIMENTO SOUZA               TRAV JOSE SARNEY NR. 574                - CAMPO DE BELEM                        65600000CAXIAS              MAESTACIONAR EM DESACORDO C/REGULAM-VAGA DE CARGA/DE181 * XVII         00000000055414   000019523007572019112720200110319036683938080000001561885630000001056180332100012007574419903668393808200000000000  000   74    00050426416055355414PASSAGEIRO
2100000000467720191126207570PREF. DE: MA - CAXIAS                   CXA0077315201909181450PCA MAGALHAES DE ALMEIDA                                    PSD4421MA123611-SAMTHONDA/CG150 START                            PARTICULAR                    MOTOCICLETA     VERMELHA  00000000LUIS CARLOS DA SILVA OLIVEIRA               RUA 15 DE NOVEMBRO NR. 2177             - VOLTA REDONDA                         65606480CAXIAS              MACOND. MOTOC/MOTON./CICLOM TRANSPORTANDO/PASSAG.S/C244 * II           00000000070481   000029347007572019112720200110319036683939850000002347785630000002834770332100512007574419903668393985800000000000  000   75    00070426632760970481PASSAGEIRO
2100000000467720191126207570PREF. DE: MA - CAXIAS                   CXA0077317201909181520PCA MAGALHAES DE ALMEIDA                                    OJL2907MA123611-SAMTHONDA/BIZ 100 ES                             PARTICULAR                    MOTONETA        VERMELHA  00000000REGINA CELIA SILVA COELHO                   R.PORTO POLVORA NR. 69                  - CANGALHEIRO                           65600000CAXIAS              MACOND. MOTOC/MOTON./CICLOM TRANSPORTANDO/PASSAG.S/C244 * II           00000000070481   000029347007572019112720200110319036683940160000002347785660000002534770332100512007574419903668394016100000000000  000   76    00070426632772270481PASSAGEIRO
2100000000467720191126207570PREF. DE: MA - CAXIAS                   CXA0076694201909191004AV DA RODOVIARIA                                            BUQ9448MA306052-SAMTFIAT/PALIO 16V                               PARTICULAR                    AUTOMOVEL       CINZA     00000000JOSIVALDO DOS SANTOS NASCIMENTO             AV BENJAMIM CONSTANT NR. 1025           - CASTELO BRANCO                        65604260CAXIAS              MAESTAC. EM LOCAL/HORARIO PROIBIDO ESPECIFIC. P/SINA181*XVIII          00000000055500   000013016007572019112720200110319036683941030000001041285670000001604120332100912007574419903668394103700000000000  000   77    00040426633300555500PASSAGEIRO
2100000000467720191126207570PREF. DE: MA - CAXIAS                   CXA0076692201909190835RUA GUSTAVO COLACO                                          OJH5966MA306051-SAMTHONDA/CG 125 FAN KS                          PARTICULAR                    MOTOCICLETA     VERMELHA  00000000VALDEMIR LOPES BEZERRA                      TRAV FIO II NR. 673                     - CANGALHEIRO                           65600000CAXIAS              MAESTACIONAR EM DESAC. C/REGULAMENT.-ESTACIONAMENTO 181 * XVII         00000000055412   000019523007572019112720200110319036683942800000001561885640000001956180332100012007574419903668394280300000000000  000   78    00050426633316155412PASSAGEIRO
2100000000467720191126207570PREF. DE: MA - CAXIAS                   CXA0076744201909190830RUA GUSTAVO COLACO                                          NXK6139MA305941-SAMTHONDA/BIZ 125 ES                             PARTICULAR                    MOTONETA        VERMELHA  00000000ROSSANA GLAUCIA ALVES SANTOS                RUA ANICETO CRUZ NR. 623                - TRIZIDELA                             65600000CAXIAS              MAESTAC. EM DESACORDO C/ A REGULAMENTACAO ESPECIFICA181 * XVII         00000000055411   000019523007572019112720200110319036683943680000001561885670000001656180332100012007574419903668394368600000000000  000   79    00050426633751555411PASSAGEIRO
2100000000467720191126207570PREF. DE: MA - CAXIAS                   CXA0076745201909190832RUA GUSTAVO COLACO                                          HPV3695MA305941-SAMTHONDA/CG 150 TITAN KS                        PARTICULAR                    MOTOCICLETA     PRETA     00000000ELIZABETE CRISTINA MOURAO SILVA             RUA TRILHO VELHO NR. 1694               - CENTRO                                65602300CAXIAS              MAESTAC. EM DESACORDO C/ A REGULAMENTACAO ESPECIFICA181 * XVII         00000000055411   000019523007572019112720200110319036683944450000001561885630000001056180332100012007574419903668394445200000000000  000   80    00050426633770155411PASSAGEIRO
2100000000467720191126207570PREF. DE: MA - CAXIAS                   CXA0076746201909190848TRAV DR. ALFREDO BELEZA                                     OJO1065MA305941-SAMTGM/S10 MODIFICAR AB1                         OFICIAL                       CAMINHONETE     BRANCA    00000000MUNICIPIO DE CAXIAS                         PCA DO PANTEON NR. 600                  - CENTRO                                65606050CAXIAS              MAESTAC. EM LOCAL/HORARIO PROIBIDO ESPECIFIC. P/SINA181*XVIII          00000000055500   000013016007572019112720200110319036683945220000001041285680000001504120332100912007574419903668394522800000000000  000   81    00040426633840655500ESPECIAL
2100000000467720191126207570PREF. DE: MA - CAXIAS                   CXA0077423201909191610PCA CANDIDO MENDES                                          PTD1945MA78162-SAMT YAMAHA/YBR150 FACTOR E                       PARTICULAR                    MOTOCICLETA     VERMELHA  00000000IRACI CRUZ LIMA DE OLIVEIRA                 RUA SATURNINO BELO NR. 3114             - SAO FRANCISCO                         65600440CAXIAS              MAESTACIONAR EM DESACORDO C/REGULAMENTACAO-PONTO OU 181 * XVII         00000000055413   000019523007572019112720200110319036683946000000001561885630000001056180332100012007574419903668394600200000000000  000   82    00050426633965855413PASSAGEIRO
2100000000467720191126207570PREF. DE: MA - CAXIAS                   CXA0077421201909191600PCA CANDIDO MENDES                                          NXK6139MA78162-SAMT HONDA/BIZ 125 ES                             PARTICULAR                    MOTONETA        VERMELHA  00000000ROSSANA GLAUCIA ALVES SANTOS                RUA ANICETO CRUZ NR. 623                - TRIZIDELA                             65600000CAXIAS              MAESTAC. EM DESACORDO C/ A REGULAMENTACAO ESPECIFICA181 * XVII         00000000055411   000019523007572019112720200110319036683947970000001561885670000001656180332100012007574419903668394797600000000000  000   83    00050426634257855411PASSAGEIRO
2100000000467720191126207570PREF. DE: MA - CAXIAS                   CXA0077420201909191550PCA TRES CORACOES                                           OJL2907MA78162-SAMT HONDA/BIZ 100 ES                             PARTICULAR                    MOTONETA        VERMELHA  00000000REGINA CELIA SILVA COELHO                   R.PORTO POLVORA NR. 69                  - CANGALHEIRO                           65600000CAXIAS              MAESTAC. EM LOCAL/HORARIO PROIBIDO ESPECIFIC. P/SINA181*XVIII          00000000055500   000013016007572019112720200110319036683948740000001041285630000001004120332100912007574419903668394874300000000000  000   84    00040426634281055500PASSAGEIRO
2100000000467720191126207570PREF. DE: MA - CAXIAS                   CXA0077418201909191120PCA CANDIDO MENDES                                          PSC9175MA78162-SAMT HONDA/BIZ 125 ES                             PARTICULAR                    MOTONETA        PRETA     00000000GILMARA SOUSA MENDES                        RUA BOA VONTADE NR. 828                 - ANTENOR VIANA                         65603505CAXIAS              MACOND. MOTOC/MOTON./CICLOM TRANSPORTANDO/PASSAG.S/C244 * II           00000000070481   000029347007572019112720200110319036683949510000002347785640000002734770332100512007574419903668394951900000000000  000   85    00070426634304370481PASSAGEIRO
2100000000467720191126207570PREF. DE: MA - CAXIAS                   CXA0077417201909191040PCA CANDIDO MENDES                                          NHQ4163MA78162-SAMT I/LIFAN LF110 2G                             PARTICULAR                    MOTONETA        PRETA     00000000ANTONIA COUTINHO DA SILVA                   AV SANTOS DUMONT QD B NR. N-954         - SERIEMA                               65600000CAXIAS              MAESTAC. EM LOCAL/HORARIO PROIBIDO ESPECIFIC. P/SINA181*XVIII          00000000055500   000013016007572019112720200110319036683950920000001041285610000001204120332100912007574419903668395092100000000000  000   86    00040426634350755500PASSAGEIRO
2100000000467720191126207570PREF. DE: MA - CAXIAS                   CXA0077416201909191055PCA CANDIDO MENDES                                          NXA0245MA78162-SAMT HONDA/POP100                                 PARTICULAR                    MOTOCICLETA     PRETA     00000000RAIMUNDO RODRIGUES                          RUA ALUIZIO LOBO NR. 3314               - SAO FRANCISCO                         65600000CAXIAS              MAESTAC. EM LOCAL/HORARIO PROIBIDO ESPECIFIC. P/SINA181*XVIII          00000000055500   000013016007572019112720200110319036683951700000001041285650000001804120332100912007574419903668395170500000000000  000   87    00040426634374455500PASSAGEIRO
2100000000467720191126207570PREF. DE: MA - CAXIAS                   CXA0076691201909190832RUA GUSTAVO COLACO                                          NNB0657MA306051-SAMTHONDA/CG 125 FAN KS                          PARTICULAR                    MOTOCICLETA     VERMELHA  00000000ANTONIO FERNANDES BRITO NETO                III TV BENJAMIM CONSTANT NR. 2320       - NOVA CAXIAS                           65600000CAXIAS              MAESTAC. EM DESACORDO C/ A REGULAMENTACAO ESPECIFICA181 * XVII         00000000055411   000019523007572019112720200110319036683952570000001561885610000001256180332100012007574419903668395257000000000000  000   88    00050426634435055411PASSAGEIRO
2100000000467720191126207570PREF. DE: MA - CAXIAS                   CXA0077328201909191800RUA 01 DE AGOSTO                                            PSN6252MA123611-SAMTHONDA/BIZ 125                                PARTICULAR                    MOTONETA        BRANCA    00000000PAULO VICTOR MEDEIROS ALVES                 RUA SANTO ANTONIO NR. 1213              - CAMPO BELEM                           65609110CAXIAS              MACOND. MOTOC/MOTON./CICLOM TRANSPORTANDO/PASSAG.S/C244 * II           00000000070481   000029347007572019112720200110319036683953340000002347785620000002934770332100512007574419903668395334700000000000  000   89    00070426637180270481PASSAGEIRO
2100000000467720191126207570PREF. DE: MA - CAXIAS                   CXA0077327201909191720RUA 01 DE AGOSTO                                            NHE4072MA123611-SAMTHONDA/POP100                                 PARTICULAR                    MOTOCICLETA     PRETA     00000000ELIZABETE SANTOS LOPES                      TV DA AROEIRA NR. N-220                 - CENTRO                                65600000CAXIAS              MACOND. MOTOC/MOTON./CICLOM TRANSPORTANDO/PASSAG.S/C244 * II           00000000070481   000029347007572019112720200110319036683954110000002347785680000002334770332100512007574419903668395411300000000000  000   90    00070426637291470481PASSAGEIRO
2100000000467720191126207570PREF. DE: MA - CAXIAS                   CXA0077325201909191700RUA 01 DE AGOSTO                                            NMQ0111MA123611-SAMTTOYOTA/COROLLA XEI18FLEX                     PARTICULAR                    AUTOMOVEL       PRETA     00000000ANTONIO JOSE SILVA                          RUA DO ALECRIM NR. 124                  - CANGALHEIRO                           65600001CAXIAS              MADIR.VEIC. UTILIZANDO-SE DE TELEFONE CELULAR       252 * VI           00000000073662   000013016007572019112720200110319036683955090000001041285610000001204120332100912007574719203668395509400000000000  000   91    00040426637890473662PASSAGEIRO
2100000000467720191126207570PREF. DE: MA - CAXIAS                   CXA0077108201909191055RUA GUSTAVO COLACO                                          NNA8602MA122061-SAMTHONDA/CG 125 FAN ES                          PARTICULAR                    MOTOCICLETA     PRETA     00000000ERMOSINO GOMES DA COSTA                     RUA DEP JOAO RABELO NR. NR51            TRAV 02 - FATIMA                        65760000PRESIDENTE DUTRA    MAESTAC. EM DESACORDO C/ A REGULAMENTACAO ESPECIFICA181 * XVII         00000000055411   000019523007572019112720200110319036683956860000001561885610000001256180332100012007574419903668395686000000000000  000   92    00050426638180855411PASSAGEIRO
2100000000467720191126207570PREF. DE: MA - CAXIAS                   CXA0077107201909191020PCA RUI BARBOSA                                             PSO3928MA122061-SAMTHONDA/BIZ 100 ES                             PARTICULAR                    MOTONETA        VERMELHA  00000000JAINARA FRANCISCA S DOS SANTOS              R ITAPECURU NR. 1279                    - VL LOBAO                              65600010CAXIAS              MAESTAC. EM DESACORDO C/ A REGULAMENTACAO ESPECIFICA181 * XVII         00000000055411   000019523007572019112720200110319036683957630000001561885680000001556180332100012007574419903668395763700000000000  000   93    00050426638366555411PASSAGEIRO
2100000000467720191126207570PREF. DE: MA - CAXIAS                   CXA0077106201909191010RUA RIO BRANCO                                              JHA5572MA122061-SAMTFORD/FIESTA SEDAN1.6FLEX                     PARTICULAR                    AUTOMOVEL       PRATA     00000000ANTONIO MARIANO DE LIMA                     RUA MANOEL GONCALVES NR NR. 1477        - PAU DAGUA                             65600000CAXIAS              MAESTAC. EM DESACORDO C/ A REGULAMENTACAO ESPECIFICA181 * XVII         00000000055411   000019523007572019112720200110319036683958400000001561885640000001956180332100012007574419903668395840300000000000  000   94    00050426638530755411PASSAGEIRO
2100000000467720191126207570PREF. DE: MA - CAXIAS                   CXA0077428201909201015RUA ODORICO MENDES                                          OXX4175MA78162-SAMT HONDA/NXR150 BROS ES                         PARTICULAR                    MOTOCICLETA     PRETA     00000000MARIA DA NATIVIDADE G DOS SANTOS            RUA LAGOA FEIA NR. SN                   - ZONA RURAL                            65600000CAXIAS              MACOND. MOTOC/MOTON./CICLOM TRANSPORTANDO/PASSAG.S/C244 * II           00000000070481   000029347007572019112720200110319036683959280000002347785610000002034770332100512007574419903668395928600000000000  000   95    00070426639090470481PASSAGEIRO
2100000000467720191126207570PREF. DE: MA - CAXIAS                   CXA0077425201909201000PCA CANDIDO MENDES                                          PSQ9471MA78162-SAMT HONDA/BIZ 100 ES                             PARTICULAR                    MOTONETA        PRETA     00000000ELISANGELA ALMEIDA DE ANDRADE               STA LUZIA NR. 760                       - CASTELO BRANCO                        65607470CAXIAS              MACOND. MOTOC/MOTON./CICLOM TRANSPORTANDO/PASSAG.S/C244 * II           00000000070481   000029347007572019112720200110319036683960690000002347785630000002834770332100512007574419903668396069800000000000  000   96    00070426639163370481PASSAGEIRO
2100000000467720191126207570PREF. DE: MA - CAXIAS                   CXA0077426201909201005AV OTAVIO PASSOS                                            PSV2728MA78162-SAMT HONDA/POP 110I                               PARTICULAR                    MOTOCICLETA     VERMELHA  00000000JOSEANE RIBEIRO DA SILVA                    TV LEONCIO MAGNO NR. 2152               - VOLTA REDONDA                         65600010CAXIAS              MACOND. MOTOC/MOTON./CICLOM TRANSPORTANDO/PASSAG.S/C244 * II           00000000070481   000029347007572019112720200110319036683961460000002347785690000002234770332100512007574419903668396146400000000000  000   97    00070426639383070481PASSAGEIRO
2100000000467720191126207570PREF. DE: MA - CAXIAS                   CXA0077427201909201010AV NEREU BITTENCOURT                                        PSM3892MA78162-SAMT HONDA/BIZ 100 ES                             PARTICULAR                    MOTONETA        PRETA     00000000ALCILEIDE PEREIRA DO LAGO                   RUA PAULISTAO NR. 778                   - PIRAJA                                65608700CAXIAS              MACOND. MOTOC/MOTON./CICLOM TRANSPORTANDO/PASSAG.S/C244 * II           00000000070481   000029347007572019112720200110319036683962230000002347785660000002534770332100512007574419903668396223100000000000  000   98    00070426639595770481PASSAGEIRO
2100000000467720191126207570PREF. DE: MA - CAXIAS                   CXA0077424201909200900PCA TRES CORACOES                                           PSO8786MA78162-SAMT HONDA/CG 160 TITAN EX                        PARTICULAR                    MOTOCICLETA     PRETA     00000000ELDOLENO SAMPAIO FERNANDES                  TRAV 1 DE AGOSTO NR. 839                - PONTE                                 65609340CAXIAS              MACOND. MOTOC/MOTON./CICLOM TRANSPORTANDO/PASSAG.S/C244 * II           00000000070481   000029347007572019112720200110319036683963000000002347785620000002934770332100512007574419903668396300700000000000  000   99    00070426639678370481PASSAGEIRO
2100000000467720191126207570PREF. DE: MA - CAXIAS                   CXA0076699201909200930PCA CANDIDO MENDES                                          HPW7464MA305941-SAMTGM/CLASSIC LIFE                              PARTICULAR                    AUTOMOVEL       CINZA     00000000EMILIA DE ABREU PEREIRA                     RUA 05 NR. NR 12                        QD 14 - IP S CRISTOVAO                  65055000SAO LUIS            MAESTAC. EM DESACORDO C/ A REGULAMENTACAO ESPECIFICA181 * XVII         00000000055411   000019523007572019112720200110319036683964980000001561885600000001356180332100012007574419903668396498900000000000  000   100   00050426639798455411PASSAGEIRO
2100000000467720191126207570PREF. DE: MA - CAXIAS                   CXA0077331201909201555PCA CANDIDO MENDES                                          PSZ4484MA123611-SAMTHONDA/POP 110I                               PARTICULAR                    MOTOCICLETA     VERMELHA  00000000MARIA DOS SANTOS CONCEICAO                  RUA BELA VISTA NR. 1611                 - CASTELO BRANCO                        65604160CAXIAS              MACOND. MOTOC/MOTON./CICLOM TRANSPORTANDO/PASSAG.S/C244 * II           00000000070481   000029347007572019112720200110319036683965750000002347785690000002234770332100512007574419903668396575400000000000  000   101   00070426640398470481PASSAGEIRO
2100000000467720191126207570PREF. DE: MA - CAXIAS                   CXA0077330201909201555PCA CANDIDO MESNDES                                         PSK3371MA123611-SAMTHONDA/NXR150 BROS ES                         PARTICULAR                    MOTOCICLETA     VERMELHA  00000000PEDRO CORREIA FILHO                         RUA DA FAVEIRA NR. 545                  - REFINARIA                             65606080CAXIAS              MACOND. MOTOC/MOTON./CICLOM TRANSPORTANDO/PASSAG.S/C244 * II           00000000070481   000029347007572019112720200110319036683966520000002347785660000002534770332100512007574419903668396652100000000000  000   102   00070426640538370481PASSAGEIRO
2100000000467720191126207570PREF. DE: MA - CAXIAS                   CXA0077329201909201415RUA 01 DE AGOSTO                                            PSU4821MA123611-SAMTHONDA/CG 160 FAN ESDI                        PARTICULAR                    MOTOCICLETA     VERMELHA  00000000JOSE DO NASCIMENTO SOUSA                    RUA PIAUI NR. 549                       - ANTENOR VIANA                         65600010CAXIAS              MACOND. MOTOC/MOTON./CICLOM TRANSPORTANDO/PASSAG.S/C244 * II           00000000070481   000029347007572019112720200110319036683967300000002347785600000002134770332100512007574419903668396730500000000000  000   103   00070426641879570481PASSAGEIRO
3000102000000000102
