1*NATI207570202001080047762020010800000000000000
2000000000477620200108207570PREF. DE: MA - CAXIAS                   CXA0078481201912101130PCA PANTHEON                                                NNG7317MA306051-SAMTHONDA/POP100                                 PARTICULAR                    MOTOCICLETA     VERMELHA  00000000PEDRINA DE SOUSA                            TRAV CALDEIROES IV NR. 1554             - CALDEIROES                            65600000CAXIAS              MACOND. MOTOC/MOTON./CICLOM TRANSPORTANDO/PASSAG.S/C244 * II           00000000070481   0000293470075720200109202002240000000000000000000000000                                                00000000000  000   1     00070444374519070481PASSAGEIRO
2000000000477620200108207570PREF. DE: MA - CAXIAS                   CXA0078534201912101504RUA SEN GUSTAVO COLACO                                      PSZ4012MA306431-SAMTCHEV/PRISMA 1.4MT LT                         PARTICULAR                    AUTOMOVEL       PRETA     00000000MALBA TAHAN LIMA SANTOS MACEDO              AV DR. EZIQUIO BARROS NR. N-20          QD-24 - PAMPULHA                        65600001CAXIAS              MAESTAC. EM DESACORDO C/ A REGULAMENTACAO ESPECIFICA181 * XVII         00000000055411   0000195230075720200109202002240000000000000000000000000                                                00000000000  000   2     00050444374600555411PASSAGEIRO
2000000000477620200108207570PREF. DE: MA - CAXIAS                   CXA0078533201912101117PCA DUQUE DE CAXIAS                                         PSZ7375MA306431-SAMTHONDA/POP 110I                               PARTICULAR                    MOTOCICLETA     PRETA     00000000FRANCISCA CAROLINE S OLIVEIRA               RUA NOVA IORQUE QD-6 NR. N-34           - DINIR SILVA                           65605380CAXIAS              MAESTAC. EM DESACORDO C/ A REGULAMENTACAO ESPECIFICA181 * XVII         00000000055411   0000195230075720200109202002240000000000000000000000000                                                00000000000  000   3     00050444374626955411PASSAGEIRO
2000000000477620200108207570PREF. DE: MA - CAXIAS                   CXA0078685201912101310PCA CANDIDO MENDES                                          PSJ7433MA122161-SAMTHONDA/BIZ 125 ES                             PARTICULAR                    MOTONETA        VERMELHA  00000000SAMARA CRISTINA S DE CARVALHO               RUA DA FERROVIA NR. 681                 - TAMARINEIRO                           65600267CAXIAS              MATRANSIT. P/ CONTRAMAO EM VIAS C/ SENT. UNICO      186 * II           00000000057380   0000293470075720200109202002240000000000000000000000000                                                00000000000  000   4     00070444374667657380PASSAGEIRO
2000000000477620200108207570PREF. DE: MA - CAXIAS                   CXA0078806201912101135RUA SAO BENEDITO                                            NHO6879MA122061-SAMTFIAT/PUNTO ELX 1.4                           PARTICULAR                    AUTOMOVEL       BEGE      00000000BANCO ITAULEASING S/A                       AV CONTORNO LESTE NR. NR02              PQ AURORA - COHATRAC                    65053570SAO LUIS            MAESTACIONAR AO LADO DE OUTRO VEICULO EM FILA DUPLA 181 * XI           00000000054870   0000195230075720200109202002240000000000000000000000000                                                00000000000  000   5     00050444374944654870PASSAGEIRO
2000000000477620200108207570PREF. DE: MA - CAXIAS                   CXA0007880201912110910PCA CANDIDO MENDES                                          HQA7274MA122061-SAMTHONDA/BIZ 125 KS                             PARTICULAR                    MOTONETA        PRATA     00000000ANTONIO CARLOS BORGES DA COSTA              TV SAO FRANCISCO NR. 2340               - VOLTA REDONDA                         65600000CAXIAS              MACOND. MOTOC/MOTON./CICLOM TRANSPORTANDO/PASSAG.S/C244 * II           00000000070481   0000293470075720200109202002240000000000000000000000000                                                00000000000  000   6     00070444375072070481PASSAGEIRO
2000000000477620200108207570PREF. DE: MA - CAXIAS                   CXA0078809201912110915PCA CANDIDO MENDES                                          NXE6522MA122061-SAMTHONDA/CG 125 FAN KS                          PARTICULAR                    MOTOCICLETA     PRETA     00000000EDUARDO BARBOSA SANTOS                      RUA EDGAR C MACHADO NR. S/N             - MATADOURO                             65645000MATOES              MACOND. MOTOC/MOTON./CICLOM TRANSPORTANDO/PASSAG.S/C244 * II           00000000070481   0000293470075720200109202002240000000000000000000000000                                                00000000000  000   7     00070444375095970481PASSAGEIRO
2000000000477620200108207570PREF. DE: MA - CAXIAS                   CXA0078477201912111055PCA CANDIDO MENDES                                          OEH1295MA306051-SAMTI/TOYOTA HILUX CD4X4 SRV                     PARTICULAR                    CAMINHONETE     PRATA     00000000ANTONIO SILVA DE PAIVA                      TV 13 DE MAIO NR. SN                    - CENTRO                                65615000SAO JOAO DO SOTER   MAESTACIONAR AO LADO DE OUTRO VEICULO EM FILA DUPLA 181 * XI           00000000054870   0000195230075720200109202002240000000000000000000000000                                                00000000000  000   8     00050444375126254870ESPECIAL
2000000000477620200108207570PREF. DE: MA - CAXIAS                   CXA0078807201912110905PCA DA MATRIZ                                               HOX5629MA122061-SAMTHONDA/CG 125 TITAN                           PARTICULAR                    MOTOCICLETA     AZUL      00000000FRANCISCO OLIVEIRA                          RUA SEN CLODOMIR CARDOSO NR. 2043       - CANGALHEIRO                           65600000CAXIAS              MACOND. MOTOC/MOTON./CICLOM TRANSPORTANDO/PASSAG.S/C244 * II           00000000070481   0000293470075720200109202002240000000000000000000000000                                                00000000000  000   9     00070444375172670481PASSAGEIRO
2000000000477620200108207570PREF. DE: MA - CAXIAS                   CXA0078686201912111040AV CENTRAL                                                  OXY3147MA122161-SAMTHONDA/BIZ 100 ES                             PARTICULAR                    MOTONETA        VERMELHA  00000000ANTERO CARVALHO PESSOA                      RUA JOSE A P LUBAMBO NR. 3              QD 02 - OLHO DAGUA                      65600000CAXIAS              MACOND. MOTOC/MOTON./CICLOM TRANSPORTANDO/PASSAG.S/C244 * II           00000000070481   0000293470075720200109202002240000000000000000000000000                                                00000000000  000   10    00070444375339770481PASSAGEIRO
2000000000477620200108207570PREF. DE: MA - CAXIAS                   CXA0078663201912111005PCA PANTHEON                                                OJL0283MA122161-SAMTTOYOTA/COROLLA XEI20FLEX                     PARTICULAR                    AUTOMOVEL       BRANCA    00000000VALDIMIRO MIRANDA SEVERO NETO               R PROJETADA01 NR. 138                   LOTE 2 - SIRIEMA                        65600010CAXIAS              MAESTACIONAR EM DESACORDO C/REGULAMENTACAO-PONTO OU 181 * XVII         00000000055413   0000195230075720200109202002240000000000000000000000000                                                00000000000  000   11    00050444375428855413PASSAGEIRO
2000000000477620200108207570PREF. DE: MA - CAXIAS                   CXA0078960201912111223RUA PORTO DAS PEDRAS                                        PSH8443MA305941-SAMTHONDA/POP 110I                               PARTICULAR                    MOTOCICLETA     PRETA     00000000JOSE GINALDO OSORIO DE SOUSA                R MARIA DO ROSARIO NR. 2114             - CAMPO DE BELEM                        65609000CAXIAS              MAAVANCAR SINAL VERMELHO DO SEMAFORO                208                00000000060501   0000293470075720200109202002240000000000000000000000000                                                00000000000  000   12    00070444375644260501PASSAGEIRO
2000000000477620200108207570PREF. DE: MA - CAXIAS                   CXA0079103201912111415AV ALEXANDRE COSTA                                          PTN5876MA123611-SAMTHONDA/CG 160 TITAN                           PARTICULAR                    MOTOCICLETA     VERMELHA  00000000JESSYARA PEREIRA DOS SANTOS                 RUA SANTA INES NR. 1090                 - VILA LOBAO                            65605547CAXIAS              MATRANSITAR C/VEICULO EM CANTEIROS CENTRAIS         193                00000000058194   0000880410075720200109202002240000000000000000000000000                                                00000000000  000   13    00070444376049058194PASSAGEIRO
2000000000477620200108207570PREF. DE: MA - CAXIAS                   CXA0079104201912111445RUA MENINO DEUS                                             OJE1196MA123611-SAMTHONDA/POP100                                 PARTICULAR                    MOTOCICLETA     VERMELHA  00000000MARIA DOS REMEDIOS PAIVA                    RUA SANTA MARIA NR. 308                 - BAIXINHA                              65600000CAXIAS              MACOND. MOTOCICLETA/MOTONETA/CICLOM S/CAPACETE DE SE244 * I            00000000070301   0000293470075720200109202002240000000000000000000000000                                                00000000000  000   14    00070444376147070301PASSAGEIRO
2000000000477620200108207570PREF. DE: MA - CAXIAS                   CXA0079105201912111450RUA MENINO DEUS                                             PTE6824MA123611-SAMTHONDA/POP 110I                               PARTICULAR                    MOTOCICLETA     VERMELHA  00000000JARDHEL MAGNO LIMA RODRIGUES                AV MARANHAO NR. 915                     - ANTENOR VIANA                         65603510CAXIAS              MACOND. MOTOCICLETA/MOTONETA/CICLOM S/CAPACETE DE SE244 * I            00000000070301   0000293470075720200109202002240000000000000000000000000                                                00000000000  000   15    00070444376307470301PASSAGEIRO
2000000000477620200108207570PREF. DE: MA - CAXIAS                   CXA0079106201912111605PCA MAGALHAES DE ALMEIDA                                    NNH4991MA123611-SAMTYAMAHA/FACTOR YBR125 K                       PARTICULAR                    MOTOCICLETA     PRETA     00000000MANOEL SENA SILVA                           RUA PARNARAMA NR. 1269                  - VILA LOBAO                            65600000CAXIAS              MACOND. MOTOC/MOTON./CICLOM TRANSPORTANDO/PASSAG.S/C244 * II           00000000070481   0000293470075720200109202002240000000000000000000000000                                                00000000000  000   16    00070444376595670481PASSAGEIRO
2000000000477620200108207570PREF. DE: MA - CAXIAS                   CXA0079113201912121705AV NEREU BITTECOURT                                         NHK4634MA123611-SAMTHONDA/BIZ 125 ES                             PARTICULAR                    MOTONETA        PRATA     00000000MARIA CONSUELO COSTA GOMES                  AV SANTOS DUMONT N.212 NR.              F-99-3521-4783 - CENTRO                 65602310CAXIAS              MACOND. MOTOC/MOTON./CICLOM TRANSPORTANDO/PASSAG.S/C244 * II           00000000070481   0000293470075720200109202002240000000000000000000000000                                                00000000000  000   17    00070444377204970481PASSAGEIRO
2000000000477620200108207570PREF. DE: MA - CAXIAS                   CXA0079052201912121735AV LUIS SALES                                               OJF8955MA122131-SAMTHONDA/BIZ 125 ES                             PARTICULAR                    MOTONETA        VERMELHA  00000000RAIMUNDO MEDEIROS BEZERRA                   RUA DO ESPIRITO SANTO NR. 1636          - CANGALHEIRO                           65606290CAXIAS              MACOND. MOTOC/MOTON./CICLOM TRANSPORTANDO/PASSAG.S/C244 * II           00000000070481   0000293470075720200109202002240000000000000000000000000                                                00000000000  000   18    00070444378558270481PASSAGEIRO
2000000000477620200108207570PREF. DE: MA - CAXIAS                   CXA0078482201912121156PCA PANTHEON                                                NXN1693MA306051-SAMTHONDA/POP100                                 PARTICULAR                    MOTOCICLETA     PRETA     00000000CLAUDEILSON MENDES LIMA                     R DOUTOR WALTER BRITO NR. 846           - CAMPO DE BELEM                        65600010CAXIAS              MACOND. MOTOCICLETA/MOTONETA/CICLOM S/CAPACETE DE SE244 * I            00000000070301   0000293470075720200109202002240000000000000000000000000                                                00000000000  000   19    00070444380461770301PASSAGEIRO
2000000000477620200108207570PREF. DE: MA - CAXIAS                   CXA0078961201912120800PCA PANTHEON                                                PSD1576MA305941-SAMTHONDA/POP100                                 PARTICULAR                    MOTOCICLETA     VERMELHA  00000000RODRIGO DE MELO NUNES                       RUA 24 DE DEZEMBRO NR. 1172             - SIRIEMA                               65602420CAXIAS              MATRANSIT. P/ CONTRAMAO EM VIAS C/ SENT. UNICO      186 * II           00000000057380   0000293470075720200109202002240000000000000000000000000                                                00000000000  000   20    00070444381006457380PASSAGEIRO
2000000000477620200108207570PREF. DE: MA - CAXIAS                   CXA0078962201912120801PCA PANTHEON                                                PSD1576MA305941-SAMTHONDA/POP100                                 PARTICULAR                    MOTOCICLETA     VERMELHA  00000000RODRIGO DE MELO NUNES                       RUA 24 DE DEZEMBRO NR. 1172             - SIRIEMA                               65602420CAXIAS              MACOND. MOTOCICLETA/MOTONETA/CICLOM S/CAPACETE DE SE244 * I            00000000070301   0000293470075720200109202002240000000000000000000000000                                                00000000000  000   21    00070444382935070301PASSAGEIRO
2000000000477620200108207570PREF. DE: MA - CAXIAS                   CXA0078963201912120957RUA AARAO REIS                                              NXC5696MA305941-SAMTHONDA/CG 125 FAN KS                          PARTICULAR                    MOTOCICLETA     ROXA      00000000PEDRO BRITO SOUSA JUNIOR                    RUA 25 QD 30 NR. 18                     - COHAB                                 65600000CAXIAS              MACOND. MOTOCICLETA/MOTONETA/CICLOM S/CAPACETE DE SE244 * I            00000000070301   0000293470075720200109202002240000000000000000000000000                                                00000000000  000   22    00070444383297170301PASSAGEIRO
2000000000477620200108207570PREF. DE: MA - CAXIAS                   CXA0079594202001071513PCA CANDIDO MENDES                                          PTI7310MA306431-SAMTHONDA/BIZ 125                                PARTICULAR                    MOTONETA        CINZA     00000000ANDRESSA CAMPOS DOS SANTOS                  RUA PROF ANA CORREA NR. 1473            - CENTRO                                65604080CAXIAS              MADESOBEDECER AS ORDENS DA AUTORIDADE DE TRANSITO/AG195                00000000058350   0000195230075720200109202002240000000000000000000000000                                                00000000000  000   23    00050444385634058350PASSAGEIRO
2000000000477620200108207570PREF. DE: MA - CAXIAS                   CXA0079593202001071513PCA CANDIDO MENDES                                          PTI7310MA306431-SAMTHONDA/BIZ 125                                PARTICULAR                    MOTONETA        CINZA     00000000ANDRESSA CAMPOS DOS SANTOS                  RUA PROF ANA CORREA NR. 1473            - CENTRO                                65604080CAXIAS              MATRANSIT. P/ CONTRAMAO EM VIAS C/ SENT. UNICO      186 * II           00000000057380   0000293470075720200109202002240000000000000000000000000                                                00000000000  000   24    00070444385751657380PASSAGEIRO
3000024000000000024
