1*NIPR207570201912020046922019120200000000000000
2000000000469220191202207570PREF. DE: MA - CAXIAS                   CXA0076806201909231515TRAV DR. ALFREDO BELEZA                                     NIE1861PI           GM/CORSA HATCH MAXX                          PARTICULAR                    AUTOMOVEL       PRETA     00000000ADRIANA DE BRITO FREIRE                     RUA CANADA BL 09 APT 202 NR. 02070      - CRISTO REI                            64014900TERESINA            PIESTAC. VEIC. NAS ESQU. E MENOS DE 5M DO ALINHAMENT181 * I            00000000053800   000013016007572019120320200116319036691211700000001041287770000001230165867200316207570090436691211700400000000000  000   1     00040427513917853800PASSAGEIRO
2000000000469220191202207570PREF. DE: MA - CAXIAS                   CXA0077480201909231534PCA CANDIDO MENDES                                          LWK2737PI           I/TOYOTA HILUX CD4X4                         PARTICULAR                    CAMINHONETE     PRATA     00000000LISINETE RIBEIRO DOS SANTOS SOUSA           RUA ERNESTO JOSE BATISTA NR. 01510      - TABULETA                              64000000TERESINA            PIESTACIONAR AO LADO DE OUTRO VEICULO EM FILA DUPLA 181 * XI           00000000054870   000019523007572019120320200116319036691212580000001561887750000001495235867200616207570090436691212580900000000000  000   2     00050427514302754870ESPECIAL
2000000000469220191202207570PREF. DE: MA - CAXIAS                   CXA0077761201909241140PCA DO PANTHEON                                             JKC5668DF           VW/GOL 1.0 GIV                               PARTICULAR                    AUTOMOVEL       PRETA     00000000JOSE ELIANE DA SILVA                        QUADRA 1 CONJUNTO B NR.                 CS 16 - ST SUL GAMA                     72410102BRASILIA            DFESTAC. EM DESACORDO C/ A REGULAMENTACAO ESPECIFICA181 * XVII         00000000055411   000019523007572019120320200116319036691213350000001561887720000001795235867200616207570090436691213350600000000000  000   3     00050427514669755411PASSAGEIRO
2000000000469220191202207570PREF. DE: MA - CAXIAS                   CXA0076808201909241450RUA SENADOR COSTA RODRIGUES                                 NIE5377PI           VW/POLO 1.6                                  PARTICULAR                    AUTOMOVEL       PRETA     00000000RENATA CARVALHO LINHARES                    Q 63 CS 23 A NR.                        - RENASCENCA II                         64000200TERESINA            PIESTACIONAR EM DESACORDO C/REGULAMENTACAO-PONTO OU 181 * XVII         00000000055413   000019523007572019120320200116319036691214120000001561887780000001195235867200616207570090436691214120200000000000  000   4     00050427515241755413PASSAGEIRO
2000000000469220191202207570PREF. DE: MA - CAXIAS                   CXA0076885201909241437RUA GUSTAVO COLACO                                          QDQ0441PI           TOYOTA/COROLLA ALTISFLEX                                                   AUTOMOVEL       PRETA     00000000JANETE ANDERSON DA SILVA LEMOS SOUZA        RUA MARECHAL COSTA E SILVA NR. 6        - CASTELO BRANCO                        65600350CAXIAS              MAESTAC. EM DESACORDO C/ A REGULAMENTACAO ESPECIFICA181 * XVII         00000000055411   000019523007572019120320200116319036691215000000001561887710000001895235867200616207570090436691215000500000000000  000   5     00050427516269255411PASSAGEIRO
2000000000469220191202207570PREF. DE: MA - CAXIAS                   CXA0077496201909251023PCA DO PANTHEON                                             QRP4436PI           TOYOTA/YARIS SD XS 15 AT                     ALUGUEL                       AUTOMOVEL       BRANCA    00000000RAIMUNDO BARBOSA DO NASCIMENTO JUNIOR       QD/21 LT/15 CS/B NR.                    - PROMORAR                              64027060TERESINA            PIDEIXAR DE DAR PREF.PEDES/VEIC NAO MOTOR.FAIXA ELE 214 * I            00000000061220   000029347007572019120320200116319036691216870000002347787790000002893475867200016207570090436691216870000000000000  000   6     00070427519259161220PASSAGEIRO
2000000000469220191202207570PREF. DE: MA - CAXIAS                   CXA0077011201909261535PCA CANDIDO MENDES                                          PIR6530PI           RENAULT/LOGAN EXP 16 SCE                     PARTICULAR                    AUTOMOVEL       PRATA     00000000MARCIO LOPES DE SOUSA                       RUA VILA APOLONIO NR.                   - SAO JOAQUIM                           64005410TERESINA            PIESTACIONAR EM DESACORDO C/REGULAMENTACAO-PONTO OU 181 * XVII         00000000055413   000019523007572019120320200116319036691217640000001561887720000001795235867200616207570090436691217640600000000000  000   7     00050427530433055413PASSAGEIRO
2000000000469220191202207570PREF. DE: MA - CAXIAS                   CXA0075277201909300925RUA GUSTAVO COLACO                                          OSY3231GO           VW/NOVO GOL 1.6 CITY                         PARTICULAR                    AUTOMOVEL       PRATA     00000000FABIO SOARES DA SILVA 02043502123           RUA X 40 QD 33 LT 09 NR. SN             QD 33 LT 03 A 09 - JARDIM OLIMPICO      74922350APARECIDA DE GOIANIAGOESTACIONAR EM DESACORDO C/REGULAM-VAGA DE CARGA/DE181 * XVII         00000000055414   000019523007572019120320200116319036691218410000001561887790000001095235867200616207570090436691218410300000000000  000   8     00050427868533555414PASSAGEIRO
2000000000469220191202207570PREF. DE: MA - CAXIAS                   CXA0077511201909270936AV OTAVIO PASSOS                                            INC5489RS           YAMAHA/YBR 125K                              PARTICULAR                    MOTOCICLETA     PRETA     00000000ROSELI DA SILVEIRA ENNES                    RUA JAIR ANTONIO DA COSTA NR. 00066     - OESTE                                 93804194SAPIRANGA           RSESTAC. EM LOCAL/HORARIO PROIBIDO ESPECIFIC. P/SINA181*XVIII          00000000055500   000013016007572019120320200116319036691219290000001041287710000001830165867200316207570090436691219290800000000000  000   9     00040427869261755500PASSAGEIRO
2000000000469220191202207570PREF. DE: MA - CAXIAS                   CXA0077504201909260905AV GETULIO VARGAS                                           NIO1343PI           YAMAHA/FACTOR YBR125 K                       PARTICULAR                    MOTOCICLETA     PRETA     00000000PAULO ADRIANO DE SOUSA CASTRO               RUA DO LAZER 1199 NR.                   - ANGELIM                               64000000TERESINA            PIESTAC. EM DESACORDO C/ A REGULAMENTACAO ESPECIFICA181 * XVII         00000000055411   000019523007572019120320200116319036691220600000001561887710000001895235867200616207570090436691220600500000000000  000   10    00050427869774055411PASSAGEIRO
2000000000469220191202207570PREF. DE: MA - CAXIAS                   CXA0077161201909271050PCA GONCALVES DIAS                                          LVL8137PI           TOYOTA/COROLLA S18VVT                        PARTICULAR                    AUTOMOVEL       PRETA     00000000VITOR MAGALHAES BEZERRA                     AV SEN AREA LEAO NR. 01675              AP 1900 - JOQUEI                        64049110TERESINA            PIESTAC. VEIC. NAS ESQU. E MENOS DE 5M DO ALINHAMENT181 * I            00000000053800   000013016007572019120320200116319036691221470000001041287750000001430165867200316207570090436691221470200000000000  000   11    00040427870353853800PASSAGEIRO
2000000000469220191202207570PREF. DE: MA - CAXIAS                   CXA0077157201909271035RUA ALFREDO BELEZA                                          LVN8456PI           GM/S10 TORNADO D                             PARTICULAR                    CAMINHONETE     BRANCA    00000000ISMAEL PEREIRA GOMES                        R-CASTELO DO PIAUI NR. 05219            - MEMORARE                              64009330TERESINA            PIESTAC. EM DESACORDO C/ A REGULAMENTACAO ESPECIFICA181 * XVII         00000000055411   000019523007572019120320200116319036691222240000001561887740000001595235867200616207570090436691222240800000000000  000   12    00050427871284755411ESPECIAL
3000012000000000012
