1*NATI209610202001280039352020012800000000000000
2000000000393520200128209610PREF. DE: MA - ACAILANDIA               ACA0033121202001270924AV.DORGIVAL FRT.GG ATACADO                                  PSR0853MA3090       HONDA/NXR160 BROS ESDD                       PARTICULAR                    MOTOCICLETA     VERMELHA  00000000LUCAS DE CARVALHO DE OLIVEIRA               R NOVA ESPERANCA NR. N 140              - VILA UNIAO                            65930000ACAILANDIA          MAESTAC. EM LOCAL/HORARIO PROIBIDO ESPECIFIC. P/SINA181*XVIII          00000000055500   0000130160096120200129202003130000000000000000000000000                                                00000000000  000   1     00040449255599455500PASSAGEIRO
2000000000393520200128209610PREF. DE: MA - ACAILANDIA               ACA0017257202001231505BR 222 C/R.JK, J.AMERICA                                    OTE6822MA2565000    FIAT/PUNTO ATTRACTIVE                        PARTICULAR                    AUTOMOVEL       VERMELHA  00000000RAIMUNDO SOUSA DOS SANTOS                   RUA MASSARANDUBA QD 34 A NR. 02 A       - JD GLORIA III                         65930000ACAILANDIA          MAAVANCAR SINAL VERMELHO DO SEMAFORO                208                00000000060501   0000293470096120200129202003130000000000000000000000000                                                00000000000  000   2     00070449255794660501PASSAGEIRO
2000000000393520200128209610PREF. DE: MA - ACAILANDIA               ACA0017259202001231506BR 222 C/R.JK, J.AMERICA                                    GTI3460MA2565000    FIAT/PALIO ELX FLEX                          PARTICULAR                    AUTOMOVEL       PRATA     00000000LEIDINALVA DA SILVA FERREIRA                RUA BOM JESUS NR. 550                   - SANTA RITA                            65919000IMPERATRIZ          MAAVANCAR SINAL VERMELHO DO SEMAFORO                208                00000000060501   0000293470096120200129202003130000000000000000000000000                                                00000000000  000   3     00070449255980960501PASSAGEIRO
2000000000393520200128209610PREF. DE: MA - ACAILANDIA               ACA0033148202001241025AV.SANTA LUZIA C/AV.DORGIVAL                                PSS4247MA3165       HONDA/NXR160 BROS ESDD                       PARTICULAR                    MOTOCICLETA     PRETA     00000000HELIO ALVES DA SILVA                        RUA SAO JOAO BATISTA NR. N15            - NOVO BACABAL                          65930000ACAILANDIA          MAEXEC. CONVERSAO A ESQUERDA EM LOCAL PROIBIDO P/SIN207                00000000060412   0000195230096120200129202003130000000000000000000000000                                                00000000000  000   4     00050449256009260412PASSAGEIRO
2000000000393520200128209610PREF. DE: MA - ACAILANDIA               ACA0033146202001231502R.DUQUE DE CAXIAS C/R.S. PAULO                              OJJ3080MA3165       HONDA/NXR150 BROS ES                         PARTICULAR                    MOTOCICLETA     PRETA     00000000ANTONIA AUCINETE DE O CONCEICAO             RUA BAHIA II 528 NR.                    - JACU                                  65930000ACAILANDIA          MAAVANCAR SINAL VERMELHO DO SEMAFORO                208                00000000060501   0000293470096120200129202003130000000000000000000000000                                                00000000000  000   5     00070449257029260501PASSAGEIRO
2000000000393520200128209610PREF. DE: MA - ACAILANDIA               ACA0033147202001231535R.13 DE JUNHO N.765, CENTRO                                 PSW5978MA3165       HONDA/CG 160 FAN ESDI                        PARTICULAR                    MOTOCICLETA     PRETA     00000000MICHELLE RODRIGUES SILVA                    AV MARANHAO NR. SN                      - CENTRO                                65921000CIDELANDIA          MATRANSIT. P/ CONTRAMAO EM VIAS C/ SENT. UNICO      186 * II           00000000057380   0000293470096120200129202003130000000000000000000000000                                                00000000000  000   6     00070449258399857380PASSAGEIRO
2000000000393520200128209610PREF. DE: MA - ACAILANDIA               ACA0033976202001240925AV.BERNARDO SAYAO FRT.BRADESCO                              PTJ5473MA3095       I/TOYOTA HILUX CDSRVA4FD                     PARTICULAR                    CAMINHONETE     PRATA     00000000JOSE MENESES BRITO                          QUADRA 01 NR.                           RUA VIENA - PLANO DA SERRA              65930000ACAILANDIA          MAESTACIONAR AO LADO DE OUTRO VEICULO EM FILA DUPLA 181 * XI           00000000054870   0000195230096120200129202003130000000000000000000000000                                                00000000000  000   7     00050449258562154870ESPECIAL
2000000000393520200128209610PREF. DE: MA - ACAILANDIA               ACA0033977202001240945R.CEARA, CENTRO                                             OJK8284MA3095       HONDA/CG150 FAN ESDI                         PARTICULAR                    MOTOCICLETA     PRETA     00000000VALDINEY OLIVEIRA CARVALHO                  QD 103 NR. LT238                        - VL ILDEMAR                            65930000ACAILANDIA          MATRANSIT. P/ CONTRAMAO EM VIAS C/ SENT. UNICO      186 * II           00000000057380   0000293470096120200129202003130000000000000000000000000                                                07003585268MA000   8     00070449258728457380PASSAGEIRO
2000000000393520200128209610PREF. DE: MA - ACAILANDIA               ACA0032814202001241118AV.BERNARDO SAYAO, MERCADO                                  NXF9919MA3168       VW/GOL 1.6                                   PARTICULAR                    AUTOMOVEL       PRATA     00000000GUIOMAR SOUSA COSTA                         RUA 13 DE JUNHO NR. NR800               - LARANHEIRAS                           65930000ACAILANDIA          MAESTAC. EM LOCAL/HORARIO PROIBIDO ESPECIFIC. P/SINA181*XVIII          00000000055500   0000130160096120200129202003130000000000000000000000000                                                00000000000  000   9     00040449261453255500PASSAGEIRO
2000000000393520200128209610PREF. DE: MA - ACAILANDIA               ACA0033298202001241028AV.SANTA LUZIA C/AV.DORGIVAL                                OSX2717MA7760       VW/NOVA SAVEIRO CE CROSS                     PARTICULAR                    CAMINHONETE     VERMELHA  00000000MARCOS LIMA DE OLIVEIRA                     AV BERNARDO SAYAO NR. N1850             - CENTRO                                65930000ACAILANDIA          MAEXEC. CONVERSAO A ESQUERDA EM LOCAL PROIBIDO P/SIN207                00000000060412   0000195230096120200129202003130000000000000000000000000                                                00000000000  000   10    00050449262731660412CARGA
2000000000393520200128209610PREF. DE: MA - ACAILANDIA               ACA0033294202001201115R.MARANHAO C/R.PARANA, CENTRO                               OJQ1816MA7760       HONDA/BIZ 125 EX                             PARTICULAR                    MOTONETA        BRANCA    00000000THIERRY GUSTAVO DA S FERREIRA               RUA PERNAMBUCO NR. N543                 - VL TANC NEVES                         65930000ACAILANDIA          MADESOBEDECER AS ORDENS DA AUTORIDADE DE TRANSITO/AG195                00000000058350   0000195230096120200129202003130000000000000000000000000                                                00000000000  000   11    00050449294281558350PASSAGEIRO
2000000000393520200128209610PREF. DE: MA - ACAILANDIA               ACA0033293202001201053AV.TACITO CALDAS N.138, CENTRO                              NMR3948MA7760       FIAT/SIENA EL FLEX                           PARTICULAR                    AUTOMOVEL       CINZA     00000000ANTONIA DE ALMEIDA SILVA                    AV BERNARDO SAYAO NR. N 318             - CAJUAPARA                             65939000ITINGA DO MARANHAO  MAESTACIONAR NA CONTRAMAO DE DIRECAO                181 * XV           00000000055250   0000130160096120200129202003130000000000000000000000000                                                00000000000  000   12    00040449294632255250PASSAGEIRO
2000000000393520200128209610PREF. DE: MA - ACAILANDIA               ACA0033292202001201036R.BONAIRE, FRT.CAIXA                                        EJQ4098MA7760       HONDA/CB 300R                                PARTICULAR                    MOTOCICLETA     AMARELA   00000000CLEITON MARINHO FEITOSA                     R JOSE SARNEY NR. 17                    - PEQUIA                                65930000ACAILANDIA          MAESTAC. EM LOCAL/HORARIO PROIBIDO ESPECIFIC. P/SINA181*XVIII          00000000055500   0000130160096120200129202003130000000000000000000000000                                                00000000000  000   13    00040449294855455500PASSAGEIRO
2000000000393520200128209610PREF. DE: MA - ACAILANDIA               ACA0033291202001200911R.BOM JESUS N.214, CENTRO                                   NHD9171MA7760       HONDA/CG 150 TITAN ES                        PARTICULAR                    MOTOCICLETA     PRETA     00000000ADONIAS BERNARDO SILVA                      QD 24 NR. 45                            - VILA ILDEMAR                          65930000ACAILANDIA          MAESTAC. EM LOCAL/HORARIO PROIBIDO ESPECIFIC. P/SINA181*XVIII          00000000055500   0000130160096120200129202003130000000000000000000000000                                                00000000000  000   14    00040449295091555500PASSAGEIRO
2000000000393520200128209610PREF. DE: MA - ACAILANDIA               ACA0032816202001241522AV.DORGIVAL PINHEIRO, CENTRO                                NXE8118MA3168       HONDA/POP100                                 PARTICULAR                    MOTOCICLETA     PRETA     00000000HELIO NASCIMENTO NOIA                       RUA MARANHAO NR. 981                    - CENTRO                                65930000ACAILANDIA          MAESTAC. EM LOCAL/HORARIO PROIBIDO ESPECIFIC. P/SINA181*XVIII          00000000055500   0000130160096120200129202003130000000000000000000000000                                                00000000000  000   15    00040449296254955500PASSAGEIRO
2000000000393520200128209610PREF. DE: MA - ACAILANDIA               ACA0032363202001241123R.GOIAS N.1794, CENTRO                                      NOP8529MA3110       GM/S10 EXECUTIVE D                           PARTICULAR                    CAMINHONETE     PRATA     00000000JOSIMAR DA SILVA VILARINDO                  AV SANTA LUZIA NR. 768                  - CENTRO                                65930000ACAILANDIA          MATRANSIT. P/ CONTRAMAO EM VIAS C/ SENT. UNICO      186 * II           00000000057380   0000293470096120200129202003130000000000000000000000000                                                00000000000  000   16    00070449296316257380ESPECIAL
2000000000393520200128209610PREF. DE: MA - ACAILANDIA               ACA0032362202001141533R.GOIAS, CENTRO                                             OIW8122MA3110       YAMAHA/FACTOR YBR125 E                       PARTICULAR                    MOTOCICLETA     VERMELHA  00000000WESLEY DINIZ LIMA                           QD 15 NR. L 24                          - RES BELA VISTA                        65930000ACAILANDIA          MATRANSIT. P/ CONTRAMAO EM VIAS C/ SENT. UNICO      186 * II           00000000057380   0000293470096120200129202003130000000000000000000000000                                                00000000000  000   17    00070449298204357380PASSAGEIRO
2000000000393520200128209610PREF. DE: MA - ACAILANDIA               ACA0033982202001221201AV.BERNARDO SAYAO, FRT.RANCHO                               HQB0634MA3095       HONDA/BIZ 125 ES                             PARTICULAR                    MOTONETA        VERMELHA  00000000FRANCISCA SILVA COELHO                      RUA HENRIQUE DE COIMBRA NR. N 370       - CIDADE NOVA                           65922000JOAO LISBOA         MAESTAC. EM DESACORDO C/ A REGULAMENTACAO ESPECIFICA181 * XVII         00000000055411   0000195230096120200129202003130000000000000000000000000                                                00000000000  000   18    00050449298546855411PASSAGEIRO
2000000000393520200128209610PREF. DE: MA - ACAILANDIA               ACA0033930202001271102AV.DORGIVAL FRT. B. BRASIL                                  QKM2353MA3154       CHEVROLET/ONIX 1.4MT ACT                     PARTICULAR                    AUTOMOVEL       BRANCA    00000000EDMUNDO CARVALHO DO NASCIMENTO              RUA FILOGONIO NR. LT19                  QD 06 - VL BOM JARDIM                   65930000ACAILANDIA          MAESTAC. EM LOCAL/HORARIO PROIBIDO ESPECIFIC. P/SINA181*XVIII          00000000055500   0000130160096120200129202003130000000000000000000000000                                                00000000000  000   19    00040449298740155500PASSAGEIRO
2000000000393520200128209610PREF. DE: MA - ACAILANDIA               ACA0033929202001270949R.SAO LUIS FR.LILIANE, CENTRO                               PSQ9878MA3154       HONDA/NXR160 BROS ESDD                       PARTICULAR                    MOTOCICLETA     VERMELHA  00000000RAIMUNDO NONATO DE J DA SILVA               QUADRA C LOTE 59 NR. 59                 - VL DR GILSON                          65930000ACAILANDIA          MAAVANCAR SINAL VERMELHO DO SEMAFORO                208                00000000060501   0000293470096120200129202003130000000000000000000000000                                                00000000000  000   20    00070449298946360501PASSAGEIRO
2000000000393520200128209610PREF. DE: MA - ACAILANDIA               ACA0033927202001260941AV.BERNARDO SAYAO, AGRODOG                                  OJK3100MA3154       HONDA/BIZ 100 ES                             PARTICULAR                    MOTONETA        PRETA     00000000NEUTON MAMEDE FARIAS JUNIOR                 QD 186 NR. 197                          - VL ILDEMAR                            65930000ACAILANDIA          MAESTAC. EM DESACORDO C/ A REGULAMENTACAO ESPECIFICA181 * XVII         00000000055411   0000195230096120200129202003130000000000000000000000000                                                00000000000  000   21    00050449299262655411PASSAGEIRO
2000000000393520200128209610PREF. DE: MA - ACAILANDIA               ACA0033375202001271100R.BONAIRE N.153, CENTRO                                     PSH1804MA4445       VW/GOL TL MB                                 PARTICULAR                    AUTOMOVEL       PRATA     00000000DIVINO BARROS DOS SANTOS                    RUA BANDEIRANTE 10 NR. NR 41            - AREIA                                 65975000ESTREITO            MAESTAC. EM LOCAL/HORARIO PROIBIDO ESPECIFIC. P/SINA181*XVIII          00000000055500   0000130160096120200129202003130000000000000000000000000                                                00000000000  000   22    00040449300607255500PASSAGEIRO
2000000000393520200128209610PREF. DE: MA - ACAILANDIA               ACA0033374202001271035AV.DORGIVAL P.SOSUA, CENTRO                                 PTQ5004MA4445       HONDA/NXR160 BROS ESDD                       PARTICULAR                    MOTOCICLETA     VERMELHA  00000000CELIO FERREIRA VALADARES                    RUA AYRTON SENNA NR. 22                 - JACU                                  65930000ACAILANDIA          MATRANSIT. P/ CONTRAMAO EM VIAS C/ SENT. UNICO      186 * II           00000000057380   0000293470096120200129202003130000000000000000000000000                                                00000000000  000   23    00070449300821057380PASSAGEIRO
2000000000393520200128209610PREF. DE: MA - ACAILANDIA               ACA0033373202001270933R.BOM JESUS N.236, CENTRO                                   PSM7522MA4445       VW/GOL SPECIAL MB                            PARTICULAR                    AUTOMOVEL       BRANCA    00000000GENIVAN DE AGUIAR LIMA                      AV SANTA LUZIA NR. N1015                - CENTRO                                65930000ACAILANDIA          MAESTACIONAR AO LADO DE OUTRO VEICULO EM FILA DUPLA 181 * XI           00000000054870   0000195230096120200129202003130000000000000000000000000                                                00000000000  000   24    00050449301074654870PASSAGEIRO
2000000000393520200128209610PREF. DE: MA - ACAILANDIA               ACA0033125202001271128AV.DORGIVAL FRT.TENDE.MODAS                                 NWZ3302MA3090       HONDA/POP100                                 PARTICULAR                    MOTOCICLETA     ROXA      00000000ERICA DA SILVA SANTOS                       RUA 14 QD 45 NR. 06                     - JD DE ALAH                            65930000ACAILANDIA          MAESTAC. EM LOCAL/HORARIO PROIBIDO ESPECIFIC. P/SINA181*XVIII          00000000055500   0000130160096120200129202003130000000000000000000000000                                                00000000000  000   25    00040449301179355500PASSAGEIRO
2000000000393520200128209610PREF. DE: MA - ACAILANDIA               ACA0033122202001270946R.SAO LUIS C/R.BONAIRE, CENTRO                              PSM6463MA3090       HONDA/CG 160 FAN ESDI                        PARTICULAR                    MOTOCICLETA     PRATA     00000000SIDNEY NAZARETH SOUZA                       R MONTEIRO LOBATO NR. 15                - RES OURO VERDE                        65930000ACAILANDIA          MAAVANCAR SINAL VERMELHO DO SEMAFORO                208                00000000060501   0000293470096120200129202003130000000000000000000000000                                                00000000000  000   26    00070449301450460501PASSAGEIRO
3000026000000000026
