1*NIPI209610201911180036892019111800000000000000
2100000000368920191118209610PREF. DE: MA - ACAILANDIA               ACA0031596201909101440AV DORGIVAL P SOUSA CENTRO                                  OJA4573MA3154       HONDA/BIZ 125 ES                             PARTICULAR                    MOTONETA        VERMELHA  00000000KEYTY JOVITA DA COSTA                       RUA JOSE BONIFACIO NR. 554              PROX FERRO DE GOMAR - CENTRO            65930000ACAILANDIA          MAESTAC. EM LOCAL/HORARIO PROIBIDO ESPECIFIC. P/SINA181*XVIII          00000000055500   000013016009612019111920200102319036662725070000001041285620000001104120332020912009614419703666272507000000000000  000   2     00040424570495055500PASSAGEIRO
2100000000368920191118209610PREF. DE: MA - ACAILANDIA               ACA0031582201909101426RUA SAO FRANCISCO CENTRO                                    PSH6816MA3154       HONDA/BIZ 125 EX                             PARTICULAR                    MOTONETA        VERMELHA  00000000JAILMA COSTA DE SOUSA                       RUA SANTA BARBARA NR. 293               - VL BRASIL                             65930000ACAILANDIA          MAAVANCAR SINAL VERMELHO DO SEMAFORO                208                00000000060501   000029347009612019111920200102319036670147760000002347785690000002234770332020512009614419703667014776200000000000  000   3     00070424570570160501PASSAGEIRO
2100000000368920191118209610PREF. DE: MA - ACAILANDIA               ACA0031595201909141438AV DORGIVAL P SOUSA CENTRO                                  OXS2667MA31554      HONDA/CG150 FAN ESDI                         PARTICULAR                    MOTOCICLETA     PRETA     00000000ORLANDO ARAUJO RIBEIRO                      RUA ZEZILANDIA NR. 907                  - CIDELANDIA                            65921000CIDELANDIA          MAESTAC. EM LOCAL/HORARIO PROIBIDO ESPECIFIC. P/SINA181*XVIII          00000000055500   000013016009612019111920200102319036670148530000001041285610000001204120332020912009614419703667014853900000000000  000   4     00040424570758555500PASSAGEIRO
2100000000368920191118209610PREF. DE: MA - ACAILANDIA               ACA0031956201909101449AV DORGIVAL P SOUSA CENTRO                                  OIN0260MA3095       HONDA/CG150 FAN ESDI                         PARTICULAR                    MOTOCICLETA     PRETA     00000000UENDICE DA SILVA SANTANA                    QD 16 LT 05 NR. SN                      LOT MACARANUBA - PEQUIA                 65930000ACAILANDIA          MAESTAC. EM LOCAL/HORARIO PROIBIDO ESPECIFIC. P/SINA181*XVIII          00000000055500   000013016009612019111920200102319036670149300000001041285670000001604120332020912009614419703667014930500000000000  000   5     00040424571034955500PASSAGEIRO
2100000000368920191118209610PREF. DE: MA - ACAILANDIA               ACA0031954201909101419AV DORGIVAL P SOUSA CENTRO                                  OXV4386MA3095       VW/NOVO FOX CL MA                            PARTICULAR                    AUTOMOVEL       BRANCA    00000000ALEXANDRO FERREIRA DA SILVA                 RUA SANTA LUZIA NR. N80                 - PEQUIA                                65930000ACAILANDIA          MAESTAC. EM LOCAL/HORARIO PROIBIDO ESPECIFIC. P/SINA181*XVIII          00000000055500   000013016009612019111920200102319036670150710000001041285690000001404120332020912009614419703667015071700000000000  000   6     00040424571233355500PASSAGEIRO
2100000000368920191118209610PREF. DE: MA - ACAILANDIA               ACA0031952201909101129RUA CEARA N 569 CENTRO                                      PTJ2905MA3095       FORD/KA SE 1.0 SD C                          ALUGUEL                       AUTOMOVEL       BRANCA    00000000FRANCIDEIRLY F DA SILVA OLIVEIRA            RUA DOS PINHEIROS NR. 241               - CENTRO                                65395000BOM JESUS DAS SELVASMAESTAC. EM LOCAL/HORARIO PROIBIDO ESPECIFIC. P/SINA181*XVIII          00000000055500   000013016009612019111920200102319036670151590000001041285620000001104120332020912009614419703667015159000000000000  000   7     00040424571348855500PASSAGEIRO
2100000000368920191118209610PREF. DE: MA - ACAILANDIA               ACA0017159201909021910RUA SAO LUIS CENTRO                                         NMQ6677MA2561348    HONDA/CG 125 FAN ES                          PARTICULAR                    MOTOCICLETA     AMARELA   00000000RAFAEL SILVA DA SILVA                       RUA 39 QDA 39 NR. N04                   - JD AULIDIA                            65930000ACAILANDIA          MAAVANCAR SINAL VERMELHO DO SEMAFORO                208                00000000060501   000029347009612019111920200102319036670152360000002347785630000002834770332020512009614419703667015236600000000000  000   8     00070424571660660501PASSAGEIRO
2100000000368920191118209610PREF. DE: MA - ACAILANDIA               ACA0017160201909101123RUA DR GERVASIO CENTRO                                      OJK5989MA2430346    VW/NOVA SAVEIRO CE                           PARTICULAR                    CAMINHONETE     BRANCA    00000000JOSE FERREIRA MENDES                        RUA PEDRO A. CABRAL NR. NR 83           - JACU                                  65930000ACAILANDIA          MAESTACIONAR AO LADO DE OUTRO VEICULO EM FILA DUPLA 181 * XI           00000000054870   000019523009612019111920200102319036670153130000001561885660000001756180332020012009614419703667015313300000000000  000   9     00050424571748354870CARGA
2100000000368920191118209610PREF. DE: MA - ACAILANDIA               ACA0017161201909101718AV DESEM TACITO CALDAS CENTRO                               PTL4547MA2430346    CHEVROLET/ONIX 1.4AT ADV                     PARTICULAR                    AUTOMOVEL       BRANCA    00000000DEUSELINA DE OLIVEIRA SILVA                 RUA DO CAMPO NR. N 160                  - ASSEN NV CONQUI                       65930000ACAILANDIA          MAESTACIONAR AO LADO DE OUTRO VEICULO EM FILA DUPLA 181 * XI           00000000054870   000019523009612019111920200102319036670154000000001561885610000001256180332020012009614419703667015400800000000000  000   10    00050424571934654870PASSAGEIRO
2100000000368920191118209610PREF. DE: MA - ACAILANDIA               ACA0031880201909111507AV DORGIVAL N 679 CENTRO                                    PSE8124MA7760       HONDA/BIZ 125 ES                             PARTICULAR                    MOTONETA        VERMELHA  00000000MARIA DE JESUS R DA S BEZERRA               RUA RIO GRANDE DO NORTE NR. 211         - CENTRO                                65930000ACAILANDIA          MAESTACIONAR AO LADO DE OUTRO VEICULO EM FILA DUPLA 181 * XI           00000000054870   000019523009612019111920200102319036670155880000001561885630000001056180332020012009614419703667015588000000000000  000   11    00050424572373454870PASSAGEIRO
2100000000368920191118209610PREF. DE: MA - ACAILANDIA               ACA0031881201909111521RUA 13 DE JUNHO CENTRO                                      PTK6493MA7760       HONDA/BIZ 125                                PARTICULAR                    MOTONETA        BRANCA    00000000LAILA PRISCILLA LIMA DA SILVA               RUA 15 DE NOVEMBRO NR. NR505            - LARANJEIRA                            65930000ACAILANDIA          MATRANSIT. P/ CONTRAMAO EM VIAS C/ SENT. UNICO      186 * II           00000000057380   000029347009612019111920200102319036670156650000002347785630000002834770332020512009614419703667015665600000000000  000   12    00070424572532057380PASSAGEIRO
2100000000368920191118209610PREF. DE: MA - ACAILANDIA               ACA0027093201909111650RUA DUQUE DE CAXIAS CENTRO                                  OIV0464MA3168       HONDA/CG 150 FAN ESI                         PARTICULAR                    MOTOCICLETA     PRETA     00000000MANOEL HENRIQUE DE SOUZA                    RUA DOM PEDRO 1 NR.                     927 A - VL MARANHAO                     65930000ACAILANDIA          MAAVANCAR SINAL VERMELHO DO SEMAFORO                208                00000000060501   000029347009612019111920200102319036670157420000002347785600000002134770332020512009614419703667015742300000000000  000   13    00070424573149460501PASSAGEIRO
2100000000368920191118209610PREF. DE: MA - ACAILANDIA               ACA0031766201909111510RUA MARLY SARNEY CENTRO                                     PTN1974MA3165       I/TOYOTA HILUX CDSRVA4FD                     PARTICULAR                    CAMINHONETE     BRANCA    00000000ROGERIO SOARES PEREIRA                      RUA FORTALEZA NR. N 428                 - CENTRO                                65930000ACAILANDIA          MAESTACIONAR AO LADO DE OUTRO VEICULO EM FILA DUPLA 181 * XI           00000000054870   000019523009612019111920200102319036670158200000001561885600000001356180332020012009614419703667015820700000000000  000   14    00050424573399354870ESPECIAL
2100000000368920191118209610PREF. DE: MA - ACAILANDIA               ACA0030889201909111443AV DESM TACITO CALDAS                                       PWC8101MA1443       FORD/KA SE 1.5 SD                            PARTICULAR                    AUTOMOVEL       PRATA     00000000MARIA BENEDITA MARTINS                      R SITIO DO MEIO NR 48 NR.               - DIAMANTE                              65020335SAO LUIS            MAESTACIONAR NA CONTRAMAO DE DIRECAO                181 * XV           00000000055250   000013016009612019111920200102319036670159070000001041285640000001904120332020912009614419703667015907200000000000  000   15    00040424578649355250PASSAGEIRO
2100000000368920191118209610PREF. DE: MA - ACAILANDIA               ACA0030888201909111428AV DES TACITO CALDAS CENTRO                                 OXZ5405MA3057       VW/UP TAKE MA                                PARTICULAR                    AUTOMOVEL       PRATA     00000000JORGE FREITAS AIRES                         R NOSSA S DA GRACA NR. N28              - RESD TROPICAL                         65930000ACAILANDIA          MAESTACIONAR NA CONTRAMAO DE DIRECAO                181 * XV           00000000055250   000013016009612019111920200102319036670160480000001041285660000001704120332020912009614419703667016048400000000000  000   16    00040424578709055250PASSAGEIRO
2100000000368920191118209610PREF. DE: MA - ACAILANDIA               ACA0031789201909111352RUA MARANHAO VL TANCREDO                                    NHK9052MA3088       HONDA/BIZ 125 ES                             PARTICULAR                    MOTONETA        VERMELHA  00000000DANIELA DE ALMEIDA CRUZ CUNHA               RUA 12 DE OUTUBRO NR. 09                - JARD BOA VISTA                        65930000ACAILANDIA          MACOND. MOTOC/MOTON./CICLOM TRANSPORTANDO/PASSAG.S/C244 * II           00000000070481   000029347009612019111920200102319036670161250000002347785670000002434770332020512009614419703667016125000000000000  000   17    00070424578872070481PASSAGEIRO
2100000000368920191118209610PREF. DE: MA - ACAILANDIA               ACA0031788201909110945RUA DORGIVAL P SOUSA CENTRO                                 PTF8461MA3088       VW/POLO CL AD                                PARTICULAR                    AUTOMOVEL       BRANCA    00000000LEIDILENE CORREIA DE MEDEIROS               AV SANTA LUZIA NR. 03                   MARCIO VEICULOS - CENTRO                65930000ACAILANDIA          MAESTACIONAR AO LADO DE OUTRO VEICULO EM FILA DUPLA 181 * XI           00000000054870   000019523009612019111920200102319036656311240000001561885650000001856180332020012009614419703665631124200000000000  000   18    00050424578970054870PASSAGEIRO
2100000000368920191118209610PREF. DE: MA - ACAILANDIA               ACA0031787201909110940RUA DUQUE DE CAXIAS CENTRO                                  NXJ1992MA3088       HONDA/CG 150 FAN ESI                         PARTICULAR                    MOTOCICLETA     VERMELHA  00000000DONIZETE DO NASCIMENTO                      QUADRA 87 LOTE 208 NR.                  - VILA ILDEMAR                          65930000ACAILANDIA          MAESTAC. EM LOCAL/HORARIO PROIBIDO ESPECIFIC. P/SINA181*XVIII          00000000055500   000013016009612019111920200102319036670162020000001041285690000001404120332020912009614419703667016202700000000000  000   19    00040424579089055500PASSAGEIRO
2100000000368920191118209610PREF. DE: MA - ACAILANDIA               ACA0031830201909111453RUA CEARA CENTRO                                            NHT0187MA3090       HONDA/CG 150 SPORT                           PARTICULAR                    MOTOCICLETA     AMARELA   00000000ANTONIO CLAUCION LIMA BEZERRA               R PERNAMBUCO NR. 581                    - VILA TANCREDO                         65930000ACAILANDIA          MATRANSIT. P/ CONTRAMAO EM VIAS C/ SENT. UNICO      186 * II           00000000057380   000029347009612019111920200102319036670163900000002347785670000002434770332020512009614419703667016390000000000000  000   20    00070424579403857380PASSAGEIRO
2100000000368920191118209610PREF. DE: MA - ACAILANDIA               ACA0031329201909111039RUA DORGIVAL P SOUSA                                        NER1187MA3179       FIAT/PALIO FIRE FLEX                         PARTICULAR                    AUTOMOVEL       VERMELHA  00000000JOAO LIMA DIAS                              RUA ROSEANA SARNEY NR. N 105            - PLANO DA SERRA                        65930000ACAILANDIA          MAESTAC. EM LOCAL/HORARIO PROIBIDO ESPECIFIC. P/SINA181*XVIII          00000000055500   000013016009612019111920200102319036670164770000001041285670000001604120332020912009614419703667016477500000000000  000   21    00040424579628655500PASSAGEIRO
2100000000368920191118209610PREF. DE: MA - ACAILANDIA               ACA0031295201909111117AV SANTA LUZIA CENTRO                                       NNE2731MA3179       HONDA/BIZ 125 ES                             PARTICULAR                    MOTONETA        VERMELHA  00000000ANEMIAS RESENDE DA SILVA SOUSA              RUA K NR. QD47                          - JARDIM DE ALAH                        65930000ACAILANDIA          MAEXEC. CONVERSAO A ESQUERDA EM LOCAL PROIBIDO P/SIN207                00000000060412   000019523009612019111920200102319036670165540000001561885640000001956180332020012009614419703667016554100000000000  000   22    00050424579843260412PASSAGEIRO
2100000000368920191118209610PREF. DE: MA - ACAILANDIA               ACA0031764201909111150AV DORGIVAL P SOUSA CENTRO                                  PSB5690MA3165       HYUNDAI/HB20S 1.6A PREM                      PARTICULAR                    AUTOMOVEL       BRANCA    00000000KEILA FABIANE MORAIS SAMPAIO                RUA RIO DE JANEIRO NR. 337              - CENTRO                                65930000ACAILANDIA          MAESTACIONAR AO LADO DE OUTRO VEICULO EM FILA DUPLA 181 * XI           00000000054870   000019523009612019111920200102319036670166310000001561885600000001356180332020012009614419703667016631700000000000  000   23    00050424580064054870PASSAGEIRO
2100000000368920191118209610PREF. DE: MA - ACAILANDIA               ACA0031763201909110940RUA DR GERVASIO CENTRO                                      OJQ2441MA3165       CHEVROLET/S10 LTZ DD4A                       PARTICULAR                    CAMINHONETE     BRANCA    00000000ANCELMO LEANDRO ROCHA                       RUA DR GERVASIO NR. N 697               - CENTRO                                65930000ACAILANDIA          MAESTACIONAR EM DESACORDO C/REGULAM-VAGA DE CARGA/DE181 * XVII         00000000055414   000019523009612019111920200102319036670167190000001561885630000001056180332020012009614419703667016719000000000000  000   24    00050424580166255414ESPECIAL
2100000000368920191118209610PREF. DE: MA - ACAILANDIA               ACA0031762201909111015RAU CEARA CENTRO                                            PSF1904MA3165       HONDA/NXR125 BROS KS                         PARTICULAR                    MOTOCICLETA     PRETA     00000000C M MEIRELES ME                             RUA GOIAS NR. 1864                      - GETAT                                 65930000ACAILANDIA          MAESTAC. EM LOCAL/HORARIO PROIBIDO ESPECIFIC. P/SINA181*XVIII          00000000055500   000013016009612019111920200102319036670168060000001041285670000001604120332020912009614419703667016806500000000000  000   25    00040424580215455500PASSAGEIRO
2100000000368920191118209610PREF. DE: MA - ACAILANDIA               ACA0031761201909111012RUA DUQUE DE CAXIAS CENTRO                                  PSF1904MA3165       HONDA/NXR125 BROS KS                         PARTICULAR                    MOTOCICLETA     PRETA     00000000C M MEIRELES ME                             RUA GOIAS NR. 1864                      - GETAT                                 65930000ACAILANDIA          MATRANSIT. P/ CONTRAMAO EM VIAS C/ SENT. UNICO      186 * II           00000000057380   000029347009612019111920200102319036670169830000002347785690000002234770332020512009614419703667016983200000000000  000   26    00070424580309657380PASSAGEIRO
2100000000368920191118209610PREF. DE: MA - ACAILANDIA               ACA0039975201909111021RUA CEARA CENTRO                                            NMP0846MA7760       HONDA/CG 150 TITAN ES                        PARTICULAR                    MOTOCICLETA     AMARELA   00000000ANTONIO VIEIRA DE ALMEIDA FILHO             QD 12 NR. LT20                          - BOM JARDIM                            65930000ACAILANDIA          MATRANSIT. P/ CONTRAMAO EM VIAS C/ SENT. UNICO      186 * II           00000000057380   000029347009612019111920200102319036670170140000002347785620000002934770332020512009614419703667017014500000000000  000   27    00070424580396757380PASSAGEIRO
3000026000000000026
