1*NIPI209610202001270039292020012700000000000000
2100000000392920200127209610PREF. DE: MA - ACAILANDIA               ACA0032792201912051419AV.TACITO CALDAS, 220. CENTRO                               PTC9832MA3095       HONDA/BIZ 125                                PARTICULAR                    MOTONETA        BRANCA    00000000CLESIA ALVES MONTEIRO                       RUA ANGELIM QD 89 NR. 16                - JD GLORIA CITY                        65930000ACAILANDIA          MAAVANCAR SINAL VERMELHO DO SEMAFORO                208                00000000060501   000029347009612020012820200312320036751953350000002347785610000002034770332120332009614420103675195335100000000000  000   2     00070439016979360501PASSAGEIRO
2100000000392920200127209610PREF. DE: MA - ACAILANDIA               ACA0032793201912051440AV.TACITO CALDAS N.220, CENTRO                              PTF8050MA3095       HONDA/NXR160 BROS ESDD                       PARTICULAR                    MOTOCICLETA     VERMELHA  00000000TATIANE FERREIRA DOS SANTOS                 RUA 13 DE JUNHO NR. 938                 - LARANJEIRAS                           65930000ACAILANDIA          MAAVANCAR SINAL VERMELHO DO SEMAFORO                208                00000000060501   000029347009612020012820200312320036751954120000002347785680000002334770332120332009614420103675195412800000000000  000   3     00070439017005860501PASSAGEIRO
2100000000392920200127209610PREF. DE: MA - ACAILANDIA               ACA0032794201912051445AV.TACITO CALDAS N.220, CENTRO                              PSX0313MA3095       HONDA/BIZ 125 EX                             PARTICULAR                    MOTONETA        VERMELHA  00000000MARIA SANDRA ALVES DE SOUSA                 AV CONTORNO NR. N 15                    QD 30 - JARDIM GLORIA                   65930000ACAILANDIA          MAAVANCAR SINAL VERMELHO DO SEMAFORO                208                00000000060501   000029347009612020012820200312320036751955000000002347785600000002134770332120332009614420103675195500000000000000  000   4     00070439017421560501PASSAGEIRO
2100000000392920200127209610PREF. DE: MA - ACAILANDIA               ACA0032795201912051521R.RIO GRANDE C/R.DORGIVAL                                   OXR9100MA3095       HONDA/BIZ 125 EX                             PARTICULAR                    MOTONETA        PRETA     00000000VALDEANE SANTOS CARVALHO                    QD 12 NR. LT 05                         - VILA ILDEMAR                          65930000ACAILANDIA          MAAVANCAR SINAL VERMELHO DO SEMAFORO                208                00000000060501   000029347009612020012820200312320036751956870000002347785650000002634770332120332009614420103675195687500000000000  000   5     00070439017638260501PASSAGEIRO
2100000000392920200127209610PREF. DE: MA - ACAILANDIA               ACA0032796201912051520R.RIO GRANDE C/R.DORGIVAL                                   NWZ6899MA3095       HONDA/CG 150 FAN ESI                         PARTICULAR                    MOTOCICLETA     VERMELHA  00000000NILSON SAMPAIO FERREIRA                     RUA BOM JESUS NR. 580                   - CENTRO                                65930000ACAILANDIA          MAAVANCAR SINAL VERMELHO DO SEMAFORO                208                00000000060501   000029347009612020012820200312320036751957640000002347785620000002934770332120332009614420103675195764200000000000  000   6     00070439018234060501PASSAGEIRO
2100000000392920200127209610PREF. DE: MA - ACAILANDIA               ACA0033004201912061051AV.PRINCIPAL, VILA ILDEMAR                                  OIT5574MA7008       FORD/FIESTA FLEX                             PARTICULAR                    AUTOMOVEL       BRANCA    00000000JOSE LEANDRO DA SILVA CHAVES                AV BERNARDO SAYAO NR. 1681              - CENTRO                                65930000ACAILANDIA          MADIR.VEIC. UTILIZANDO-SE DE TELEFONE CELULAR       252 * VI           00000000073662   000013016009612020012820200312320036751958410000001041285600000001304120332120732009614720403675195841800000000000  000   7     00040439018974373662PASSAGEIRO
2100000000392920200127209610PREF. DE: MA - ACAILANDIA               ACA0033005201912061057AV.J.REINALDO TAVARES V.ILDEMA                              OJN9759MA7008       HONDA/BIZ 125 EX                             PARTICULAR                    MOTONETA        BRANCA    00000000PATRICIA SILVA                              QUADRA 07 LOTE 10 NR.                   - VILA BOM JARDIM                       65930000ACAILANDIA          MADIR.VEIC. UTILIZANDO-SE DE TELEFONE CELULAR       252 * VI           00000000073662   000013016009612020012820200312320036751959290000001041285630000001004120332120732009614720403675195929100000000000  000   8     00040439019171373662PASSAGEIRO
2100000000392920200127209610PREF. DE: MA - ACAILANDIA               ACA0032936201912080847R.MARLY SARNEY, CENTRO                                      PSE1874MA3179       I/CHEVROLET CLASSIC LS                       PARTICULAR                    AUTOMOVEL       BRANCA    00000000JANIEL DA CONCEICAO OLIVEIRA                AV CONTORNO NR. NR 55                   - GASTAO VIEIRA                         65930000ACAILANDIA          MATRANSPORTAR CRIANCA SEM AS NORMAS DE SEGURANCA EST168                00000000051930   000029347009612020012820200312320036751960600000002347785610000002034770332120332009614720403675196060400000000000  000   9     00070439029566751930PASSAGEIRO
2100000000392920200127209610PREF. DE: MA - ACAILANDIA               ACA0032937201912080933R.BONAIRE FRT.LILIANE, CENTRO                               PTK0049MA3179       VW/VOYAGE 1.6L MB5                           ALUGUEL                       AUTOMOVEL       BRANCA    00000000ERNEI ARAUJO SOUSA                          RUA NOLASCO DAS NEVES NR. LT 27         QD 258 - COJ NV ACAILAND                65930000ACAILANDIA          MAAVANCAR SINAL VERMELHO DO SEMAFORO                208                00000000060501   000029347009612020012820200312320036751961470000002347785690000002234770332120332009614420103675196147900000000000  000   10    00070439029928060501PASSAGEIRO
2100000000392920200127209610PREF. DE: MA - ACAILANDIA               ACA0032222201911200915R.DUQUE DE CAXIAS, CENTRO                                   OJD1388MA3123       VW/NOVA SAVEIRO CE                           PARTICULAR                    CAMINHONETE     VERMELHA  00000000ADEMAR MARTINS DA SILVA                     AV JOAO CASTELO NR. N 241               - PEQUIA                                65930000ACAILANDIA          MAAVANCAR SINAL VERMELHO DO SEMAFORO                208                00000000060501   000029347009612020012820200312320036751962240000002347785660000002534770332120332009614420103675196224600000000000  000   11    00070439030281760501CARGA
2100000000392920200127209610PREF. DE: MA - ACAILANDIA               ACA0032224201912080900AV.BERNARDO SAYAO, CENTRO                                   PSI8441MA3123       HONDA/POP 110I                               PARTICULAR                    MOTOCICLETA     PRETA     00000000MARTHANIA COELHO DE SOUSA                   RUA AMETISTA NR. 13                     QD 03 - HABITAR BRASL                   65915000IMPERATRIZ          MATRANSIT. P/ CONTRAMAO EM VIAS C/ SENT. UNICO      186 * II           00000000057380   000029347009612020012820200312320036751963010000002347785620000002934770332120332009614420103675196301200000000000  000   12    00070439030578657380PASSAGEIRO
2100000000392920200127209610PREF. DE: MA - ACAILANDIA               ACA0033029201912080947R.MARLY SARNEY PX.AGRODOG                                   OXV3724MA3132       FIAT/STRADA WORKING CD                       PARTICULAR                    CAMINHONETE     VERMELHA  00000000MARIA DE JESUS SOUSA                        RUA DOM PEDRO II NR. 259                - JACU                                  65930000ACAILANDIA          MACONDUZIR VEIC. TRANSP. PASSAGEI. EM COMPARTIMENTO 230 * II           00000000065640   000029347009612020012820200312320036751964990000002347785640000002734770332120332009614420103675196499400000000000  000   13    00070439030882365640ESPECIAL
3000012000000000012
