1*NATI209610201912030037472019120300000000000000
2000000000374720191203209610PREF. DE: MA - ACAILANDIA               ACA0032719201911291416R.DORGIVAL FRT.BANCO  NORDESTE                              QHP1394MA3088       TOYOTA/ETIOS SD PLATINUM                     PARTICULAR                    AUTOMOVEL       BRANCA    00000000GIZELDE SOUSA DA SILVA VAZ                  RUA 25 DE DEZEMBRO NR. N 639            - VL SAO FRANCISC                       65930000ACAILANDIA          MAESTAC. EM LOCAL/HORARIO PROIBIDO ESPECIFIC. P/SINA181*XVIII          00000000055500   0000130160096120191204202001170000000000000000000000000                                                00000000000  000   1     00040437239655455500PASSAGEIRO
2000000000374720191203209610PREF. DE: MA - ACAILANDIA               ACA0032619201911290938R.DUQUE DE CAXIAS, CENTRO                                   PSR5543MA3095       HONDA/CG 160 FAN ESDI                        PARTICULAR                    MOTOCICLETA     VERMELHA  00000000JANAINA FARIAS DA SILVA                     AV A ANDRADE QD 27 NR. 15               - OURO VERDE                            65930000ACAILANDIA          MATRANSIT. P/ CONTRAMAO EM VIAS C/ SENT. UNICO      186 * II           00000000057380   0000293470096120191204202001170000000000000000000000000                                                06727831226MA000   2     00070437240667357380PASSAGEIRO
2000000000374720191203209610PREF. DE: MA - ACAILANDIA               ACA0032622201911291416R.DORGIVAL FRT. BANCO NORDESTE                              OFI7303MA3095       FIAT/UNO WAY 1.4                             ALUGUEL                       AUTOMOVEL       PRATA     00000000FRANCISCO ALVES DE MOURA                    RUA DO CAMPO NR. 92                     - CAJUAPARA                             65939000ITINGA DO MARANHAO  MAESTAC. EM LOCAL/HORARIO PROIBIDO ESPECIFIC. P/SINA181*XVIII          00000000055500   0000130160096120191204202001170000000000000000000000000                                                00000000000  000   3     00040437241228255500PASSAGEIRO
2000000000374720191203209610PREF. DE: MA - ACAILANDIA               ACA0032623201911191439R.CASTELO BRANCO, CENTRO                                    HPN4341MA3095       GM/CELTA 5 PORTAS                            PARTICULAR                    AUTOMOVEL       VERMELHA  00000000POLIBIO SILVA ALMEIDA                       RUA CAJARANA NR. QD 22                  - JD GLORIA                             65930000ACAILANDIA          MAESTAC. VEIC. NAS ESQU. E MENOS DE 5M DO ALINHAMENT181 * I            00000000053800   0000130160096120191204202001170000000000000000000000000                                                00000000000  000   4     00040437241288653800PASSAGEIRO
2000000000374720191203209610PREF. DE: MA - ACAILANDIA               ACA0032625201911291455R.DUQUE DE CAXIAS N.1269                                    NHC3328MA3095       VW/GOL 1.6 POWER                             PARTICULAR                    AUTOMOVEL       PRETA     00000000ALUISIO DE ASSIS LUCIANO                    RUA CLAMIR TESSMAN NR. 119              - CENTRO NOVO                           65900000IMPERATRIZ          MAESTAC. EM LOCAL/HORARIO PROIBIDO ESPECIFIC. P/SINA181*XVIII          00000000055500   0000130160096120191204202001170000000000000000000000000                                                00000000000  000   5     00040437241373455500PASSAGEIRO
2000000000374720191203209610PREF. DE: MA - ACAILANDIA               ACA0032544201911291422R.BONAIRE N.153, CENTRO                                     NNG2732MA3154       FIAT/PALIO FIRE ECONOMY                      PARTICULAR                    AUTOMOVEL       PRATA     00000000ANTONIO GERONIMO DE SOUSA                   RUA DOM PEDRO I NR. N 345               - JACU                                  65930000ACAILANDIA          MAESTAC. EM LOCAL/HORARIO PROIBIDO ESPECIFIC. P/SINA181*XVIII          00000000055500   0000130160096120191204202001170000000000000000000000000                                                00000000000  000   6     00040437241449855500PASSAGEIRO
2000000000374720191203209610PREF. DE: MA - ACAILANDIA               ACA0032542201911291004R.DUQUE DE CAXIAS N.964                                     NXH2065MA3154       HONDA/NXR150 BROS ES                         PARTICULAR                    MOTOCICLETA     VERMELHA  00000000GIOZAN SANTOS DA COSTA                      QD  49 NR. 07                           - RES TROPICAL                          65930000ACAILANDIA          MAESTAC. EM LOCAL/HORARIO PROIBIDO ESPECIFIC. P/SINA181*XVIII          00000000055500   0000130160096120191204202001170000000000000000000000000                                                00000000000  000   7     00040437242257155500PASSAGEIRO
2000000000374720191203209610PREF. DE: MA - ACAILANDIA               ACA0032500201911291140R.MARLY SARNEY, CENTRO                                      OJE6253MA3090       VW/FOX ROCK IN RIO                           PARTICULAR                    AUTOMOVEL       AZUL      00000000LUZIA DE OLIVEIRA MOURA                     RUA CLAUDINO DE ANDRADE NR. SN          QD 281 LT 12 - VL B JARDIM              65930000ACAILANDIA          MAESTACIONAR NA CONTRAMAO DE DIRECAO                181 * XV           00000000055250   0000130160096120191204202001170000000000000000000000000                                                00000000000  000   8     00040437242342055250PASSAGEIRO
2000000000374720191203209610PREF. DE: MA - ACAILANDIA               ACA0032498201911290954AV.DORGIVAL, CENTRO                                         NXB6935MA3090       HONDA/CG 150 TITAN EX                        PARTICULAR                    MOTOCICLETA     VERMELHA  00000000IVANILDE OLIVEIRA DOS SANTOS                AV BERNARDO SAYAO NR. N1029             - CENTRO                                65930000ACAILANDIA          MATRANSIT. P/ CONTRAMAO EM VIAS C/ SENT. UNICO      186 * II           00000000057380   0000293470096120191204202001170000000000000000000000000                                                00000000000  000   9     00070437242604657380PASSAGEIRO
2000000000374720191203209610PREF. DE: MA - ACAILANDIA               ACA0032496201911290942R.DORGIVAL FRT.REST.ADONAI                                  NXE9731MA3090       VW/SAVEIRO 1.6 CS                            PARTICULAR                    CAMINHONETE     VERMELHA  00000000ANALIA SIMONE CHAVES                        CAIXA POSTAL BR 222 KM 09 NR. 106       AC CENTAL - ZONA RURAL                  65930000ACAILANDIA          MAESTAC. EM LOCAL/HORARIO PROIBIDO ESPECIFIC. P/SINA181*XVIII          00000000055500   0000130160096120191204202001170000000000000000000000000                                                00000000000  000   10    00040437242634855500CARGA
2000000000374720191203209610PREF. DE: MA - ACAILANDIA               ACA0032493201911290941RUA BOM JESUS, CENTRO                                       NXN0974MA3090       HONDA/CG150 FAN ESDI                         PARTICULAR                    MOTOCICLETA     PRETA     00000000ANTONIO FILHO DOS S REINALDO                QD 101 NR. LT230                        - VL ILDEMAR                            65930000ACAILANDIA          MATRANSIT. P/ CONTRAMAO EM VIAS C/ SENT. UNICO      186 * II           00000000057380   0000293470096120191204202001170000000000000000000000000                                                00000000000  000   11    00070437242672057380PASSAGEIRO
2000000000374720191203209610PREF. DE: MA - ACAILANDIA               ACA0032933201912011659AV.BERNARDO SAYAO, PC BIBLIA                                PSJ1530MA3179       VW/GOL ROCK IN RIO MB                        PARTICULAR                    AUTOMOVEL       PRATA     00000000WANDERSON DE ARAUJO QUEIROZ                 AV DOS COLIBRIS AP 202 NR. SN           GRANVILAGE I - SANTA INES               65919406IMPERATRIZ          MAESTACIONAR NA CONTRAMAO DE DIRECAO                181 * XV           00000000055250   0000130160096120191204202001170000000000000000000000000                                                00000000000  000   12    00040437242865055250PASSAGEIRO
2000000000374720191203209610PREF. DE: MA - ACAILANDIA               ACA0032934201912011659AV.BERNARDO SAYAO, PC BIBLIA                                PSJ1530MA657/2019   VW/GOL ROCK IN RIO MB                        PARTICULAR                    AUTOMOVEL       PRATA     00000000WANDERSON DE ARAUJO QUEIROZ                 AV DOS COLIBRIS AP 202 NR. SN           GRANVILAGE I - SANTA INES               65919406IMPERATRIZ          MADESOBEDECER AS ORDENS DA AUTORIDADE DE TRANSITO/AG195                00000000058350   0000195230096120191204202001170000000000000000000000000                                                00000000000  000   13    00050437243061258350PASSAGEIRO
2000000000374720191203209610PREF. DE: MA - ACAILANDIA               ACA0032906201911281000R.DUQUE DE CAXIAS N.830, CENTR                              OXX9561MA3165       HONDA/POP100                                 PARTICULAR                    MOTOCICLETA     VERMELHA  00000000RENATO MELO ANCHIETA                        RUA NOSSA SRA DE FATIMA NR. NR 67       - VL UNIAO                              65930000ACAILANDIA          MATRANSIT. P/ CONTRAMAO EM VIAS C/ SENT. UNICO      186 * II           00000000057380   0000293470096120191204202001170000000000000000000000000                                                00000000000  000   14    00070437243280157380PASSAGEIRO
2000000000374720191203209610PREF. DE: MA - ACAILANDIA               ACA0032907201911281050R.BONAIRE, PX.POSTO CASTELINHO                              PTB0406MA3165       I/CHEV CRUZE LTZ NB AT                       PARTICULAR                    AUTOMOVEL       BRANCA    00000000ALDO NASCIMENTO TEIXEIRA                    RUA RETORNO 06 NR. N16                  - PQ PLANALTO                           65930000ACAILANDIA          MADIR.VEIC. UTILIZANDO-SE DE TELEFONE CELULAR       252 * VI           00000000073662   0000130160096120191204202001170000000000000000000000000                                                00000000000  000   15    00040437243480473662PASSAGEIRO
2000000000374720191203209610PREF. DE: MA - ACAILANDIA               ACA0032836201911280950R.BOM JESUS, CENTRO                                         OXR2296MA3132       HONDA/NXR150 BROS ESD                        PARTICULAR                    MOTOCICLETA     VERMELHA  00000000ROGERIO LIMA BARBOSA                        RUA LIMA NR. NR04                       - PEQUIA                                65930000ACAILANDIA          MATRANSIT. P/ CONTRAMAO EM VIAS C/ SENT. UNICO      186 * II           00000000057380   0000293470096120191204202001170000000000000000000000000                                                00000000000  000   16    00070437243568157380PASSAGEIRO
2000000000374720191203209610PREF. DE: MA - ACAILANDIA               ACA0032928201912010907R.MARLY SARNEY, CENTRO                                      OXQ6167MA3179       HONDA/NXR150 BROS ES                         PARTICULAR                    MOTOCICLETA     PRETA     00000000CARLITO FRANCISCO DE SENA                   RUA GUANABARA NR. 244                   - VL TANCREDO NEV                       65930000ACAILANDIA          MATRANSIT. VEICULO COM LOTACAO EXCEDENTE            231 * VII          00000000068580   0000130160096120191204202001170000000000000000000000000                                                00000000000  000   17    00040437243737468580PASSAGEIRO
2000000000374720191203209610PREF. DE: MA - ACAILANDIA               ACA0032929201912010955R. MARLY SARNEY, CENTRO                                     OJH3819MA3179       HONDA/NXR150 BROS ESD                        PARTICULAR                    MOTOCICLETA     PRETA     00000000MARIA DE LOURDES CARDOSO RAMALHO            QD 26 NR. S/N                           - VL BOM JARDIM                         65930000ACAILANDIA          MACOND. MOTO/MOTONETA/CICLOM C/ CRIAN. MENOR DE 7 AN244 * V            00000000070721   0000293470096120191204202001170000000000000000000000000                                                00000000000  000   18    00070437244377370721PASSAGEIRO
2000000000374720191203209610PREF. DE: MA - ACAILANDIA               ACA0032930201912011007R.MARLY SARNEY, CENTRO                                      OXQ5775MA3179       HONDA/BIZ 125 EX                             PARTICULAR                    MOTONETA        BRANCA    00000000LEANDRO SOARES DIAS                         RUA BOLIVIA QB 21 NR.                   - PARQUE DAS NACOES                     65930000ACAILANDIA          MACOND. MOTO/MOTONETA/CICLOM C/ CRIAN. MENOR DE 7 AN244 * V            00000000070721   0000293470096120191204202001170000000000000000000000000                                                00000000000  000   19    00070437244471070721PASSAGEIRO
2000000000374720191203209610PREF. DE: MA - ACAILANDIA               ACA0032932201912011812AV.BERNARDO SAYAO N.1260                                    NWU2104MA3179       HONDA/CG 150 FAN ESI                         PARTICULAR                    MOTOCICLETA     PRETA     00000000FRANCISCO IRISMAR B XAVIER                  RUA BOM FUTURO NR. 334                  - JACU                                  65930000ACAILANDIA          MACOND. MOTO/MOTONETA/CICLOM C/ CRIAN. MENOR DE 7 AN244 * V            00000000070721   0000293470096120191204202001170000000000000000000000000                                                00000000000  000   20    00070437244578470721PASSAGEIRO
2000000000374720191203209610PREF. DE: MA - ACAILANDIA               ACA0032839201912010850R.MARLY SARNEY PX.AGRODOG                                   OMP8790MA3132       VW/NOVO VOYAGE 1.0                           PARTICULAR                    AUTOMOVEL       BRANCA    00000000JAIR VIANA SOARES                           RUA 9 DE JULHO NR. 536                  - JACU                                  65930000ACAILANDIA          MATRANSPORTAR CRIANCA SEM AS NORMAS DE SEGURANCA EST168                00000000051930   0000293470096120191204202001170000000000000000000000000                                                00000000000  000   21    00070437245048651930PASSAGEIRO
2000000000374720191203209610PREF. DE: MA - ACAILANDIA               ACA0032838201912010833R.DR.GERVASIO, PX.COOPERLANDIA                              NNA6881MA3132       VW/GOLF 1.6 SPORTLINE                        PARTICULAR                    AUTOMOVEL       BRANCA    00000000JADSON MESQUITA DO NASCIMENTO               R PRINCIPAL NR. 20                      - R DA ROCA                             65928000GOV.EDISON LOBAO    MAESTAC. EM LOCAL/HORARIO PROIBIDO ESPECIFIC. P/SINA181*XVIII          00000000055500   0000130160096120191204202001170000000000000000000000000                                                00000000000  000   22    00040437245556955500PASSAGEIRO
2000000000374720191203209610PREF. DE: MA - ACAILANDIA               ACA0032837201912010814AV.BERNARDO SAYAO N.1627A                                   PSS7500MA3132       HONDA/POP 110I                               PARTICULAR                    MOTOCICLETA     PRETA     00000000EDSON TEIXEIRA BARBOSA                      RUA L NR. 32                            - JD GLORIA                             65930000ACAILANDIA          MACOND. MOTO/MOTONETA/CICLOM C/ CRIAN. MENOR DE 7 AN244 * V            00000000070721   0000293470096120191204202001170000000000000000000000000                                                00000000000  000   23    00070437246071670721PASSAGEIRO
2000000000374720191203209610PREF. DE: MA - ACAILANDIA               ACA0032931201912011007R.MARLY SARNEY, CENTRO                                      OXQ5775MA3179       HONDA/BIZ 125 EX                             PARTICULAR                    MOTONETA        BRANCA    00000000LEANDRO SOARES DIAS                         RUA BOLIVIA QB 21 NR.                   - PARQUE DAS NACOES                     65930000ACAILANDIA          MATRANSIT. VEICULO COM LOTACAO EXCEDENTE            231 * VII          00000000068580   0000130160096120191204202001170000000000000000000000000                                                00000000000  000   24    00040437247844568580PASSAGEIRO
3000024000000000024
