1*NATI207570201911180046572019111800000000000000
2000000000465720191118207570PREF. DE: MA - CAXIAS                   CXA0077540201910181124RUA GUSTAVO COLACO                                          OXW8365MA305941-SAMTFIAT/STRADA WORKING CD                       PARTICULAR                    CAMINHONETE     PRATA     00000000EDIVALDO ALVES DE OLIVEIRA                  RUA EDSON LOBAO NR. NR88                - CENTRO                                65943000FORMOSA DA S.NEGRA  MAESTACIONAR EM DESACORDO C/REGULAM-VAGA DE CARGA/DE181 * XVII         00000000055414   0000195230075720191119202001020000000000000000000000000                                                00000000000  000   1     00050433856200555414ESPECIAL
2000000000465720191118207570PREF. DE: MA - CAXIAS                   CXA0077536201910181016RUA RIO DEJANEIRO                                           OXY6070MA305941-SAMTHONDA/CG 125 FAN ES                          PARTICULAR                    MOTOCICLETA     VERMELHA  00000000LIGIANE NUNES DA SILVA                      RUA ALOISIO LOBO NR. 1651               - SAO FRANCISCO                         65600000CAXIAS              MAESTAC. EM LOCAL/HORARIO PROIBIDO ESPECIFIC. P/SINA181*XVIII          00000000055500   0000130160075720191119202001020000000000000000000000000                                                00000000000  000   2     00040433856715555500PASSAGEIRO
2000000000465720191118207570PREF. DE: MA - CAXIAS                   CXA0077535201910180715AV GETULIO VARGAS                                           OIS8722MA305941-SAMTHONDA/CG 125 FAN KS                          PARTICULAR                    MOTOCICLETA     ROXA      00000000CELIJANE SOARES SANTOS                      RUA 13 QD C-19 NR. NR-19                - TESO DURO                             65600000CAXIAS              MACOND. MOTOCICLETA/MOTONETA/CICLOM S/CAPACETE DE SE244 * I            00000000070301   0000293470075720191119202001020000000000000000000000000                                                00000000000  000   3     00070433857406270301PASSAGEIRO
2000000000465720191118207570PREF. DE: MA - CAXIAS                   CXA0077032201910211005AV OTAVIO PASSOS                                            OJA4775MA138301-SAMTHONDA/BIZ 125 ES                             PARTICULAR                    MOTONETA        VERMELHA  00000000NAYRA RUANNA DA SILVA FRANCA                RUA SESOSTRE PEREIRA NR. 2690           - SERIEMA                               65600000CAXIAS              MACOND. MOTOC/MOTON./CICLOM TRANSPORTANDO/PASSAG.S/C244 * II           00000000070481   0000293470075720191119202001020000000000000000000000000                                                00000000000  000   4     00070433857665070481PASSAGEIRO
2000000000465720191118207570PREF. DE: MA - CAXIAS                   CXA0077913201910181135RUA GUSTAVO COLACO                                          OJH1744MA306051-SAMTHONDA/CG 150 FAN ESI                         PARTICULAR                    MOTOCICLETA     VERMELHA  00000000FRANCISCO EDILSON ALVES DE SOUSA            PV JACUNDA NR. S/N                      - SOLEDADE                              65645000MATOES              MAESTAC. EM DESACORDO C/ A REGULAMENTACAO ESPECIFICA181 * XVII         00000000055411   0000195230075720191119202001020000000000000000000000000                                                00000000000  000   5     00050433857827055411PASSAGEIRO
2000000000465720191118207570PREF. DE: MA - CAXIAS                   CXA0077912201910181135RUA GUSTAVO COLACO                                          NWT0868MA306051-SAMTHONDA/CG 125 FAN ES                          PARTICULAR                    MOTOCICLETA     PRETA     00000000LIZAFRAN MUNIZ DE SOUSA                     RUA 6 QD 25 NR. 23                      - COHAB                                 65600000CAXIAS              MAESTAC. EM DESACORDO C/ A REGULAMENTACAO ESPECIFICA181 * XVII         00000000055411   0000195230075720191119202001020000000000000000000000000                                                00000000000  000   6     00050433858432755411PASSAGEIRO
2000000000465720191118207570PREF. DE: MA - CAXIAS                   CXA0077738201910221530AV ALEXANDRE COSTA                                          OIZ4821MA123611-SAMTHONDA/CG 150 FAN ESI                         PARTICULAR                    MOTOCICLETA     VERMELHA  00000000CIRLANE MARIA PEREIRA CARVALHO              TRAV 28 DE JULHO NR. 189                - CENTRO                                65600070CAXIAS              MACOND. MOTOC/MOTON./CICLOM TRANSPORTANDO/PASSAG.S/C244 * II           00000000070481   0000293470075720191119202001020000000000000000000000000                                                00000000000  000   7     00070433858712170481PASSAGEIRO
2000000000465720191118207570PREF. DE: MA - CAXIAS                   CXA0077741201910221655AV DA RODOVIARIA                                            PSM5202MA123611-SAMTHONDA/NXR125 BROS ES                         PARTICULAR                    MOTOCICLETA     VERMELHA  00000000SANDRA MARIA SOUZA DO NASCIMENTO            RUA 7 QUADRA 11 NR. 11                  - PAMPULHA                              65606870CAXIAS              MACOND. MOTOC/MOTON./CICLOM TRANSPORTANDO/PASSAG.S/C244 * II           00000000070481   0000293470075720191119202001020000000000000000000000000                                                00000000000  000   8     00070433859102170481PASSAGEIRO
2000000000465720191118207570PREF. DE: MA - CAXIAS                   CXA0077742201910221700AV DA RODOVIARIA                                            OIU2370MA123611-SAMTHONDA/CG 125 FAN ES                          PARTICULAR                    MOTOCICLETA     PRETA     00000000LUIS FERNANDO CARDOZO DA SILVA              RUA TOME DE SOUSA NR. 1786              - SAO SEBASTIAO                         65400000CODO                MACOND. MOTOC/MOTON./CICLOM TRANSPORTANDO/PASSAG.S/C244 * II           00000000070481   0000293470075720191119202001020000000000000000000000000                                                00000000000  000   9     00070433859447070481PASSAGEIRO
2000000000465720191118207570PREF. DE: MA - CAXIAS                   CXA0077743201910221723AV LUIS SALES                                               OIZ9639MA123611-SAMTHONDA/CG 125 FAN ES                          PARTICULAR                    MOTOCICLETA     AZUL      00000000RAIMUNDO RODRIGUES DA S JUNIOR              RUA DO FIO NR. 719                      - PONTE                                 65600510CAXIAS              MACOND. MOTOCICLETA/MOTONETA/CICLOM S/CAPACETE DE SE244 * I            00000000070301   0000293470075720191119202001020000000000000000000000000                                                00000000000  000   10    00070433859615570301PASSAGEIRO
2000000000465720191118207570PREF. DE: MA - CAXIAS                   CXA0077745201910221750AV LUIS SALES                                               PSR1140MA123611-SAMTHONDA/CG 160 TITAN EX                        PARTICULAR                    MOTOCICLETA     PRETA     00000000MARIA ONEIDE DE MELO SILVA                  TRAV SAO JOSE NR. 247                   - BACURIZEIRO                           65603825CAXIAS              MACOND. MOTOC/MOTON./CICLOM TRANSPORTANDO/PASSAG.S/C244 * II           00000000070481   0000293470075720191119202001020000000000000000000000000                                                00000000000  000   11    00070433860114070481PASSAGEIRO
2000000000465720191118207570PREF. DE: MA - CAXIAS                   CXA0077647201910221735AV LUIZ SALES                                               OJK4894MA122131-SAMTHONDA/BIZ 125 EX                             PARTICULAR                    MOTONETA        PRETA     00000000KEILA DANIELA DA SILVA B ARAUJO             RUA 7 DE SETEMBRO NR. 787               - TRIZIDELA                             65607350CAXIAS              MACOND. MOTOC/MOTON./CICLOM TRANSPORTANDO/PASSAG.S/C244 * II           00000000070481   0000293470075720191119202001020000000000000000000000000                                                00000000000  000   12    00070433860319470481PASSAGEIRO
2000000000465720191118207570PREF. DE: MA - CAXIAS                   CXA0077648201910221740AV LUIS SALES                                               PSX7579MA122131-SAMTHONDA/XRE 190                                PARTICULAR                    MOTOCICLETA     PRETA     00000000ELMARY DA COSTA FRAGA                       RUA PEDREIRAS QD-I NR. N-57             RES PE. J MENDES - NOVA CAXIAS          65605550CAXIAS              MACOND. MOTOC/MOTON./CICLOM TRANSPORTANDO/PASSAG.S/C244 * II           00000000070481   0000293470075720191119202001020000000000000000000000000                                                00000000000  000   13    00070433860467070481PASSAGEIRO
2000000000465720191118207570PREF. DE: MA - CAXIAS                   CXA0077737201910221525AV ALEXANDRE COSTA                                          OXT9114MA123611-SAMTHONDA/CG 150 TITAN EX                        ALUGUEL                       MOTOCICLETA     AMARELA   00000000EDILSON ALVES DOS SANTOS                    RUA COHEB NR. 1842                      - VL SAO JOSE                           65606760CAXIAS              MACOND. MOTOC/MOTON./CICLOM TRANSPORTANDO/PASSAG.S/C244 * II           00000000070481   0000293470075720191119202001020000000000000000000000000                                                00000000000  000   14    00070433860971070481PASSAGEIRO
2000000000465720191118207570PREF. DE: MA - CAXIAS                   CXA0077736201910221500PCA MAGALHAES                                               PSF8848MA123611-SAMTHONDA/BIZ 125 EX                             PARTICULAR                    MOTONETA        VERMELHA  00000000JOSENILTON GOMES DA SILVA                   RUA GODOFREDO VIANA NR. 241             - TREZIDELA                             65608480CAXIAS              MACOND. MOTOC/MOTON./CICLOM TRANSPORTANDO/PASSAG.S/C244 * II           00000000070481   0000293470075720191119202001020000000000000000000000000                                                00000000000  000   15    00070433861137570481PASSAGEIRO
2000000000465720191118207570PREF. DE: MA - CAXIAS                   CXA0077746201910221755AV LUIS SALES                                               PTN2313MA123611-SAMTHONDA/CG 160 START                           PARTICULAR                    MOTOCICLETA     PRETA     00000000JOSUE ROCHA DIAS                            RUA SAO JOSE NR. 1980                   - FAZENDINHA                            65608600CAXIAS              MACOND. MOTOC/MOTON./CICLOM TRANSPORTANDO/PASSAG.S/C244 * II           00000000070481   0000293470075720191119202001020000000000000000000000000                                                00000000000  000   16    00070433861230470481PASSAGEIRO
2000000000465720191118207570PREF. DE: MA - CAXIAS                   CXA0078152201910241545PCA CANDIDO MENDES                                          PTB4115MA122131-SAMTHONDA/POP 110I                               PARTICULAR                    MOTOCICLETA     BRANCA    00000000CASSIA DE ASSUNCAO SANTOS                   RUA DO ESPIRITO SANTO NR. 1565          - CANGALHEIRO                           65606290CAXIAS              MACOND. MOTOC/MOTON./CICLOM TRANSPORTANDO/PASSAG.S/C244 * II           00000000070481   0000293470075720191119202001020000000000000000000000000                                                00000000000  000   17    00070433861756070481PASSAGEIRO
2000000000465720191118207570PREF. DE: MA - CAXIAS                   CXA0078153201910241640AV NOSSA SENHORA DE NAZARE                                  PSD7081MA122131-SAMTHONDA/NXR150 BROS ES                         PARTICULAR                    MOTOCICLETA     VERMELHA  00000000ADRIANO ARAUJO DOS SANTOS                   RUA 01 QD 22 NR. 22                     - COHAB                                 65604663CAXIAS              MACOND. MOTOC/MOTON./CICLOM TRANSPORTANDO/PASSAG.S/C244 * II           00000000070481   0000293470075720191119202001020000000000000000000000000                                                00000000000  000   18    00070433861919870481PASSAGEIRO
2000000000465720191118207570PREF. DE: MA - CAXIAS                   CXA0078154201910241640AV NOSSA SENHORA DE NAZARE                                  NNA4755MA122131-SAMTHONDA/CG 125 FAN ES                          PARTICULAR                    MOTOCICLETA     PRETA     00000000DANIEL GALDINO DA FONSECA                   R SETE DE SETEMBRO NR. 210              - TREZIDELA                             65607350CAXIAS              MACOND. MOTOC/MOTON./CICLOM TRANSPORTANDO/PASSAG.S/C244 * II           00000000070481   0000293470075720191119202001020000000000000000000000000                                                00000000000  000   19    00070433862265270481PASSAGEIRO
2000000000465720191118207570PREF. DE: MA - CAXIAS                   CXA0078107201910241725AV NOSSA SENHORA DE NAZARE                                  PSU7723MA123611-SAMTCHEVROLET/S10 LTZ FD4                        PARTICULAR                    CAMINHONETE     AZUL      00000000CLOVIS MARIA DE SOUSA FILHO                 RUA SANTA MARIA NR. 1792                CASA - CENTRO                           65602840CAXIAS              MADIR.VEIC. UTILIZANDO-SE DE TELEFONE CELULAR       252 * VI           00000000073662   0000130160075720191119202001020000000000000000000000000                                                00000000000  000   20    00040433862614373662ESPECIAL
2000000000465720191118207570PREF. DE: MA - CAXIAS                   CXA0078105201910241645AV NOSSA SENHORA DE NAZARE                                  PSZ4803MA123611-SAMTHONDA/NXR 160 BROS                           PARTICULAR                    MOTOCICLETA     BRANCA    00000000DANIEL MENDES DOS SANTOS                    RUA DA FERROVIA NR. 1045                - CALDEIROES                            65607290CAXIAS              MACOND. MOTOC/MOTON./CICLOM TRANSPORTANDO/PASSAG.S/C244 * II           00000000070481   0000293470075720191119202001020000000000000000000000000                                                00000000000  000   21    00070433864325070481PASSAGEIRO
2000000000465720191118207570PREF. DE: MA - CAXIAS                   CXA0077750201910241600PCA CANDIDO MENDES                                          NWW5183MA123611-SAMTHONDA/CG 125 FAN KS                          PARTICULAR                    MOTOCICLETA     ROXA      00000000FRANCISCO DAS CHAGAS DOS SANTOS             RUA PARAIBA NR. 375                     - ANTENOR VIANA                         65600000CAXIAS              MACOND. MOTOC/MOTON./CICLOM TRANSPORTANDO/PASSAG.S/C244 * II           00000000070481   0000293470075720191119202001020000000000000000000000000                                                00000000000  000   22    00070433864652770481PASSAGEIRO
2000000000465720191118207570PREF. DE: MA - CAXIAS                   CXA0077749201910241545PCA CANDIDO MENDES                                          PTF1775MA123611-SAMTHONDA/POP 110I                               PARTICULAR                    MOTOCICLETA     PRETA     00000000ANDREIA CARLA MEDEIROS DE ARRUDA            RUA VENEZA NR. 17                       - VENEZA                                65606887CAXIAS              MACOND. MOTOC/MOTON./CICLOM TRANSPORTANDO/PASSAG.S/C244 * II           00000000070481   0000293470075720191119202001020000000000000000000000000                                                00000000000  000   23    00070433864921670481PASSAGEIRO
2000000000465720191118207570PREF. DE: MA - CAXIAS                   CXA0077748201910241445PCA CANDIDO MENDES                                          PSZ3375MA123611-SAMTHONDA/NXR 160 BROS                           PARTICULAR                    MOTOCICLETA     PRETA     00000000ELMAR DA CRUZ MELO                          R MERCADO CENTRAL NR. 252               - CENTRO                                65600010CAXIAS              MADEIX. DAR PREF.PED/VEIC.N.MOTOR.N.HAJA CONC. TRAVE214 * II           00000000061300   0000293470075720191119202001020000000000000000000000000                                                00000000000  000   24    00070433865336161300PASSAGEIRO
2000000000465720191118207570PREF. DE: MA - CAXIAS                   CXA0078102201910241640AV NOSSA SENHORA DE NAZARE                                  OAL0209MA123611-SAMTI/TOYOTA HILUX CD4X4 SRV                     PARTICULAR                    CAMINHONETE     CINZA     00000000EDVALDO VIANA VIEIRA                        RUA 13 DE MAIO NR. 324                  - CENTRO                                65600001CAXIAS              MADIR.VEIC. UTILIZANDO-SE DE TELEFONE CELULAR       252 * VI           00000000073662   0000130160075720191119202001020000000000000000000000000                                                00000000000  000   25    00040433866245073662ESPECIAL
2000000000465720191118207570PREF. DE: MA - CAXIAS                   CXA0078101201910241615AV LUIS SALES                                               OJB4997MA123611-SAMTHONDA/POP100                                 PARTICULAR                    MOTOCICLETA     VERMELHA  00000000VANDO SANTOS AGUIAR                         RUA 3 DE FEVEREIRO NR. 193              - REFINARIA                             65600400CAXIAS              MACOND. MOTOC/MOTON./CICLOM TRANSPORTANDO/PASSAG.S/C244 * II           00000000070481   0000293470075720191119202001020000000000000000000000000                                                00000000000  000   26    00070433866607270481PASSAGEIRO
2000000000465720191118207570PREF. DE: MA - CAXIAS                   CXA0078103201910241643AV NOSSA SENHORA DE NAZARE                                  NNA7394MA123611-SAMTHONDA/POP100                                 PARTICULAR                    MOTOCICLETA     VERMELHA  00000000MARINALVA LUZ SILVA                         AV MARLY BOUERES     NR. NR. 1261       - MUTIRAO                               65725000PEDREIRAS           MADIR.VEIC. UTILIZANDO-SE DE TELEFONE CELULAR       252 * VI           00000000073662   0000130160075720191119202001020000000000000000000000000                                                00000000000  000   27    00040433867052573662PASSAGEIRO
2000000000465720191118207570PREF. DE: MA - CAXIAS                   CXA0078108201910241710AV NOSSA SENHORA DE NAZARE                                  NWV2790MA123611-SAMTHONDA/NXR150 BROS ES                         PARTICULAR                    MOTOCICLETA     VERMELHA  00000000MARIA EDITE DAMASCENO RODRIGUES             RUA AROEIRA NR. 168                     - OLHO DAGUA                            65600000CAXIAS              MACOND. MOTOCICLETA/MOTONETA/CICLOM S/CAPACETE DE SE244 * I            00000000070301   0000293470075720191119202001020000000000000000000000000                                                00000000000  000   28    00070433867717170301PASSAGEIRO
2000000000465720191118207570PREF. DE: MA - CAXIAS                   CXA0077896201910241559PCA CANDIDO MENDES                                          NIC0364MA306521-SAMTGM/CLASSIC LIFE                              PARTICULAR                    AUTOMOVEL       PRATA     00000000DELFINO RODRIGUES DOS SANTOS                TV DO FIO NR. 345                       - PONTE                                 65600010CAXIAS              MAESTACIONAR EM DESACORDO C/REGULAMENTACAO-PONTO OU 181 * XVII         00000000055413   0000195230075720191119202001020000000000000000000000000                                                00000000000  000   29    00050433869713055413PASSAGEIRO
2000000000465720191118207570PREF. DE: MA - CAXIAS                   CXA0077897201910251150PCA CANDIDO MENDES                                          NHC5451MA306521-SAMTHONDA/BIZ 125 ES                             PARTICULAR                    MOTONETA        PRETA     00000000ADIEL ADIBSON GOMES DA SILVA                R ALTO NR. 189                          - ANTENOR VIANA                         65603575CAXIAS              MACOND. MOTOC/MOTON./CICLOM TRANSPORTANDO/PASSAG.S/C244 * II           00000000070481   0000293470075720191119202001020000000000000000000000000                                                00000000000  000   30    00070433869986870481PASSAGEIRO
2000000000465720191118207570PREF. DE: MA - CAXIAS                   CXA0077031201910251130PCA CAETANO CARVALHO                                        AZD8387MA138301-SAMTI/RENAULT FLUENCE DYN20A                     PARTICULAR                    AUTOMOVEL       PRETA     00000000PORFIRIA MELO GOMES LOBAO                   RUA DO MOCAMBO NR 272 NR.               - CENTRO                                65015310SAO LUIS            MAESTACIONAR EM DESACORDO C/REGULAM-VAGA DE CARGA/DE181 * XVII         00000000055414   0000195230075720191119202001020000000000000000000000000                                                00000000000  000   31    00050433871077255414PASSAGEIRO
2000000000465720191118207570PREF. DE: MA - CAXIAS                   CXA0077548201910231218PCA PANTHEON                                                OUC4332MA305941-SAMTCHEVROLET/S10 LT DD2                         PARTICULAR                    CAMINHONETE     PRETA     00000000ANTONIO JORGE ANDRADE DOS SANTOS            RUA LORETO NR. N05                      QD D - NOVA CAXIAS                      65600010CAXIAS              MADEIXAR DE DAR PREF.PEDES/VEIC NAO MOTOR.FAIXA ELE 214 * I            00000000061220   0000293470075720191119202001020000000000000000000000000                                                00000000000  000   32    00070433872252561220ESPECIAL
2000000000465720191118207570PREF. DE: MA - CAXIAS                   CXA0077027201910230950AV GETULIO VARGAS                                           OJK1524MA138301-SAMTHONDA/CB 300R                                PARTICULAR                    MOTOCICLETA     VERMELHA  00000000LEANDRO PEREIRA DE SOUSA                    RUA ALOIZIO LOBO NR. 2045               - SAO FRANCISCO                         65600000CAXIAS              MATRANSIT. P/ CONTRAMAO EM VIAS C/ SENT. UNICO      186 * II           00000000057380   0000293470075720191119202001020000000000000000000000000                                                00000000000  000   33    00070433872911257380PASSAGEIRO
2000000000465720191118207570PREF. DE: MA - CAXIAS                   CXA0077026201910230940AV GETULIO VARGAS                                           NXE8781MA138301-SAMTHONDA/CG 125 FAN KS                          PARTICULAR                    MOTOCICLETA     ROXA      00000000ALEXANDRO DA SILVA                          RUA SIQUEIRA CAMPOS NR. 88              - SIRIEMA                               65600001CAXIAS              MATRANSIT. P/ CONTRAMAO EM VIAS C/ SENT. UNICO      186 * II           00000000057380   0000293470075720191119202001020000000000000000000000000                                                00000000000  000   34    00070433873441857380PASSAGEIRO
2000000000465720191118207570PREF. DE: MA - CAXIAS                   CXA0077893201910231430AV ALEXANDRE COSTA                                          PTF6276MA306521-SAMTHONDA/POP 110I                               PARTICULAR                    MOTOCICLETA     BRANCA    00000000FRANCINALDA PEREIRA ROQUE                   TRAV GENERAL SAMPAIO NR. 62             CASA - CASTELO BRANCO                   65604200CAXIAS              MACOND. MOTOC/MOTON./CICLOM TRANSPORTANDO/PASSAG.S/C244 * II           00000000070481   0000293470075720191119202001020000000000000000000000000                                                00000000000  000   35    00070433874146570481PASSAGEIRO
2000000000465720191118207570PREF. DE: MA - CAXIAS                   CXA0077894201910230907RUA LIBANIO LOBO                                            NHG3711MA306521-SAMTHONDA/POP100                                 PARTICULAR                    MOTOCICLETA     PRETA     00000000CARLOS ALBERTO V DE OLIVEIRA                RUA DO CAJUEIRO NR. S/N                 - IPEM                                  65600000CAXIAS              MACOND. MOTOC/MOTON./CICLOM TRANSPORTANDO/PASSAG.S/C244 * II           00000000070481   0000293470075720191119202001020000000000000000000000000                                                00000000000  000   36    00070433874936970481PASSAGEIRO
3000036000000000036
