1*NATI207570201912230047422019122300000000000000
2000000000474220191223207570PREF. DE: MA - CAXIAS                   CXA0078398201912020936AV OTAVIO PASSOS                                            PSO9002MA122111-SAMTHONDA/POP 110I                               PARTICULAR                    MOTOCICLETA     VERMELHA  00000000EDIMAR RIBEIRO DE SOUSA                     RUA CEDRO NR. 1                         QA 01 - RES VL PARAISO                  65600010CAXIAS              MAESTAC. EM LOCAL/HORARIO PROIBIDO ESPECIFIC. P/SINA181*XVIII          00000000055500   0000130160075720191224202002060000000000000000000000000                                                00000000000  000   1     00040441855476955500PASSAGEIRO
2000000000474220191223207570PREF. DE: MA - CAXIAS                   CXA0078291201912021527PCA MAGALHAES DE ALMEIDA                                    NXQ1321MA306461-SAMTHONDA/CG 150 TITAN EX                        PARTICULAR                    MOTOCICLETA     VERMELHA  00000000JOSE EDUARDO DO NASCIMENTO FILHO            RUA PRINCIPAL NR 31 NR.                 - CENTRO                                65138000RAPOSA              MACOND. MOTOCICLETA/MOTONETA/CICLOM S/CAPACETE DE SE244 * I            00000000070301   0000293470075720191224202002060000000000000000000000000                                                00000000000  000   2     00070441855521870301PASSAGEIRO
2000000000474220191223207570PREF. DE: MA - CAXIAS                   CXA0078290201912021503TRAV DR. ALFREDO BELEZA                                     NHN3698MA306461-SAMTFIAT/PALIO FIRE FLEX                         PARTICULAR                    AUTOMOVEL       PRETA     00000000ADALBERTO DA CONCEICAO SOUSA                RUA ACAILANDIA NR. N-199                - VILA LOBAO                            65600000CAXIAS              MAESTAC. EM DESACORDO C/ A REGULAMENTACAO ESPECIFICA181 * XVII         00000000055411   0000195230075720191224202002060000000000000000000000000                                                00000000000  000   3     00050441855583855411PASSAGEIRO
2000000000474220191223207570PREF. DE: MA - CAXIAS                   CXA0078927201912021425RUA AARAO REIS                                              PTD2546MA123611-SAMTHONDA/BIZ 125                                PARTICULAR                    MOTONETA        BRANCA    00000000AURINEIDE DE SOUSA AGUIAR                   AV GENERAL SAMPAIO NR. S/N              TIRO DE GUERRA - MOR. DO ALECRIM        65604090CAXIAS              MACOND. MOTOC/MOTON./CICLOM TRANSPORTANDO/PASSAG.S/C244 * II           00000000070481   0000293470075720191224202002060000000000000000000000000                                                00000000000  000   4     00070441855771770481PASSAGEIRO
2000000000474220191223207570PREF. DE: MA - CAXIAS                   CXA0078928201912021425AV GENERAL SAMPAIO                                          OXV6165MA123611-SAMTHONDA/POP100                                 PARTICULAR                    MOTOCICLETA     PRETA     00000000GRACILENE ALVES DE ALMEIDA                  R VICTOR GONCALVES NR. 09               QD 06 - REC. DOS POETAS                 65604348CAXIAS              MACOND. MOTOC/MOTON./CICLOM TRANSPORTANDO/PASSAG.S/C244 * II           00000000070481   0000293470075720191224202002060000000000000000000000000                                                00000000000  000   5     00070441855976070481PASSAGEIRO
2000000000474220191223207570PREF. DE: MA - CAXIAS                   CXA0078929201912021430RUA AARAO REIS                                              OXV6441MA123611-SAMTHONDA/BIZ 125 ES                             PARTICULAR                    MOTONETA        PRETA     00000000MARIA DE JESUS B VALE ASSUNCAO              RUA COHEB NR. 83                        - ITAPECURUZINHO                        65600000CAXIAS              MACOND. MOTOC/MOTON./CICLOM TRANSPORTANDO/PASSAG.S/C244 * II           00000000070481   0000293470075720191224202002060000000000000000000000000                                                00000000000  000   6     00070441856585070481PASSAGEIRO
2000000000474220191223207570PREF. DE: MA - CAXIAS                   CXA0078930201912021500RUA 1 DE AGOSTO                                             OJO0517MA123611-SAMTHONDA/POP100                                 PARTICULAR                    MOTOCICLETA     PRETA     00000000IVANILDO FERREIRA                           TV DO SOL NR. 1174                      - CANGALHEIRO                           65600000CAXIAS              MACOND. MOTOCICLETA/MOTONETA/CICLOM S/CAPACETE DE SE244 * I            00000000070301   0000293470075720191224202002060000000000000000000000000                                                00000000000  000   7     00070441856683070301PASSAGEIRO
2000000000474220191223207570PREF. DE: MA - CAXIAS                   CXA0078931201912021500RUA 01 DE AGOSTO                                            NHO1834MA123611-SAMTVW/GOL 1.0 GIV                               PARTICULAR                    AUTOMOVEL       PRETA     00000000ISAIAS COSTA SOUSA ABREU                    RUA MARIA DO ROSARIO NR. 1441           - CAMPO DE BELEM                        65600244CAXIAS              MADIR.VEIC. UTILIZANDO-SE DE TELEFONE CELULAR       252 * VI           00000000073662   0000130160075720191224202002060000000000000000000000000                                                00000000000  000   8     00040441857184173662PASSAGEIRO
2000000000474220191223207570PREF. DE: MA - CAXIAS                   CXA0078932201912021540RUA 24 DE OUTUBRO                                           PSC7747MA123611-SAMTHONDA/CG150 FAN ESDI                         PARTICULAR                    MOTOCICLETA     PRETA     00000000MARIA FRANCISCA DE M RAMOS                  RUA SANTA BARBARA NR. 3824              - SAO FRANCISCO                         65600520CAXIAS              MACOND. MOTOC/MOTON./CICLOM TRANSPORTANDO/PASSAG.S/C244 * II           00000000070481   0000293470075720191224202002060000000000000000000000000                                                00000000000  000   9     00070441857226070481PASSAGEIRO
2000000000474220191223207570PREF. DE: MA - CAXIAS                   CXA0078933201912021550RUA MENINO DEUS                                             OIV2769MA123611-SAMTHONDA/BIZ 125 ES                             PARTICULAR                    MOTONETA        PRETA     00000000EDUVIRGEM MARIA COSTA SANTOS                RUA SAO MATEUS NR. 17                   QD C23 - VILA PARAISO                   65600010CAXIAS              MACOND. MOTOC/MOTON./CICLOM TRANSPORTANDO/PASSAG.S/C244 * II           00000000070481   0000293470075720191224202002060000000000000000000000000                                                00000000000  000   10    00070441857325970481PASSAGEIRO
2000000000474220191223207570PREF. DE: MA - CAXIAS                   CXA0078935201912021555RUA MENINO DEUS                                             NXA2716MA123611-SAMTHONDA/BIZ 125 KS                             PARTICULAR                    MOTONETA        VERDE     00000000JOILSON ALVES DA SILVA                      RUA CALDEIROES NR. 514                  - CALDEIROES                            65600000CAXIAS              MACOND. MOTOC/MOTON./CICLOM TRANSPORTANDO/PASSAG.S/C244 * II           00000000070481   0000293470075720191224202002060000000000000000000000000                                                00000000000  000   11    00070441857349670481PASSAGEIRO
2000000000474220191223207570PREF. DE: MA - CAXIAS                   CXA0078936201912021600RUA MENINO DEUS                                             PTQ4723MA123611-SAMTHONDA/POP 110I                               PARTICULAR                    MOTOCICLETA     PRETA     00000000POLIANA ESTEFANY ARAUJO DA SILVA            RUA 21 DE ABRIL NR. 1442                - VOLTA REDONDA                         65606340CAXIAS              MACOND. MOTOC/MOTON./CICLOM TRANSPORTANDO/PASSAG.S/C244 * II           00000000070481   0000293470075720191224202002060000000000000000000000000                                                00000000000  000   12    00070441857370470481PASSAGEIRO
2000000000474220191223207570PREF. DE: MA - CAXIAS                   CXA0078937201912021605RUA MENINO DEUS                                             NNE3056MA123611-SAMTYAMAHA/T115 CRYPTON K                        PARTICULAR                    MOTONETA        PRETA     00000000ROSILENE ARAUJO SILVA                       RUA PE DA LADEIRA NR. 1750              - CASTELO BRANCO                        65600000CAXIAS              MADIR.VEIC. UTILIZANDO-SE DE FONES NOS OUVIDOS APAR.252 * VI           00000000073661   0000130160075720191224202002060000000000000000000000000                                                00000000000  000   13    00040441857397673661PASSAGEIRO
2000000000474220191223207570PREF. DE: MA - CAXIAS                   CXA0078938201912021605RUA MENINO DEUS                                             NNE3056MA123611-SAMTYAMAHA/T115 CRYPTON K                        PARTICULAR                    MOTONETA        PRETA     00000000ROSILENE ARAUJO SILVA                       RUA PE DA LADEIRA NR. 1750              - CASTELO BRANCO                        65600000CAXIAS              MACOND. MOTOCICLETA/MOTONETA/CICLOM S/CAPACETE DE SE244 * I            00000000070301   0000293470075720191224202002060000000000000000000000000                                                00000000000  000   14    00070441857509070301PASSAGEIRO
2000000000474220191223207570PREF. DE: MA - CAXIAS                   CXA0078939201912021620PCA MAGALHAES DE ALMEIDA                                    PSM3892MA123611-SAMTHONDA/BIZ 100 ES                             PARTICULAR                    MOTONETA        PRETA     00000000ALCILEIDE PEREIRA DO LAGO                   RUA PAULISTAO NR. 778                   - PIRAJA                                65608700CAXIAS              MACOND. MOTOC/MOTON./CICLOM TRANSPORTANDO/PASSAG.S/C244 * II           00000000070481   0000293470075720191224202002060000000000000000000000000                                                00000000000  000   15    00070441857546470481PASSAGEIRO
2000000000474220191223207570PREF. DE: MA - CAXIAS                   CXA0078940201912021655AV DA RODOVIARIA                                            PSE3125MA123611-SAMTHONDA/BIZ 125 EX                             PARTICULAR                    MOTONETA        BRANCA    00000000FRANKLIN BARBOSA VASCONCELOS                RUA DONA ZELIA F DANIEL NR. 209         - CENTRO                                65600083CAXIAS              MACOND. MOTOCICLETA/MOTONETA/CICLOM S/CAPACETE DE SE244 * I            00000000070301   0000293470075720191224202002060000000000000000000000000                                                00000000000  000   16    00070441857575870301PASSAGEIRO
2000000000474220191223207570PREF. DE: MA - CAXIAS                   CXA0078942201912021705AV DA RODOVIARIA                                            PST1775MA123611-SAMTHONDA/BIZ 110I                               PARTICULAR                    MOTONETA        PRETA     00000000KEILANE PEREIRA DE SOUSA                    RUA ESPERANTINOPOLIS NR. 1168           - VILA LOBAO                            65605520CAXIAS              MACOND. MOTOCICLETA/MOTONETA/CICLOM S/CAPACETE DE SE244 * I            00000000070301   0000293470075720191224202002060000000000000000000000000                                                00000000000  000   17    00070441857730070301PASSAGEIRO
2000000000474220191223207570PREF. DE: MA - CAXIAS                   CXA0078943201912021735PCA CESARIO LIMA                                            OIT3815MA123611-SAMTHONDA/CG 125 FAN KS                          PARTICULAR                    MOTOCICLETA     PRETA     00000000CONSTANTINO FERREIRA DE ABREU               RUA TIRADENTES NR. 543                  - CANGALHEIRO                           65600000CAXIAS              MACOND. MOTOC/MOTON./CICLOM TRANSPORTANDO/PASSAG.S/C244 * II           00000000070481   0000293470075720191224202002060000000000000000000000000                                                00000000000  000   18    00070441857759970481PASSAGEIRO
2000000000474220191223207570PREF. DE: MA - CAXIAS                   CXA0078944201912021740AV LUIS SALES                                               PSY6323MA123611-SAMTHONDA/POP 110I                               PARTICULAR                    MOTOCICLETA     VERMELHA  00000000RAIMUNDA MARIA LOPES COSTA LIMA             TV CAMPOS SALES NR. 554                 - SALOBRO                               65609540CAXIAS              MACOND. MOTOC/MOTON./CICLOM TRANSPORTANDO/PASSAG.S/C244 * II           00000000070481   0000293470075720191224202002060000000000000000000000000                                                00000000000  000   19    00070441857773470481PASSAGEIRO
2000000000474220191223207570PREF. DE: MA - CAXIAS                   CXA0078945201912021750AV LUIS SALES                                               PTB2189MA123611-SAMTHONDA/BIZ 125                                PARTICULAR                    MOTONETA        BRANCA    00000000LUZIANE DE SOUSA LEAO                       RUA BELO HORIZONTE NR. 510              - TREZIDELA                             65608570CAXIAS              MACOND. MOTOC/MOTON./CICLOM TRANSPORTANDO/PASSAG.S/C244 * II           00000000070481   0000293470075720191224202002060000000000000000000000000                                                00000000000  000   20    00070441857849870481PASSAGEIRO
2000000000474220191223207570PREF. DE: MA - CAXIAS                   CXA0078946201912021755AV LUIS SALES                                               OIT9367MA123611-SAMTHONDA/CG 125 FAN KS                          PARTICULAR                    MOTOCICLETA     PRETA     00000000JOAO BATISTA GOMES D SOBRINHO               R INDEPENDENCIA 1341 NR.                - PONTE                                 65600010CAXIAS              MACOND. MOTOCICLETA/MOTONETA/CICLOM S/CAPACETE DE SE244 * I            00000000070301   0000293470075720191224202002060000000000000000000000000                                                00000000000  000   21    00070441857887070301PASSAGEIRO
2000000000474220191223207570PREF. DE: MA - CAXIAS                   CXA0078514201911021433RUA BENEDITO REIS                                           PTF9818MA306431-SAMTHONDA/POP 110I                               PARTICULAR                    MOTOCICLETA     VERMELHA  00000000VALDINELIO SANTOS DE ARAUJO                 AV 02 QD-10 NR. N-261                   RES. - SANTA TERESINHA                  65608744CAXIAS              MACOND. MOTOCICLETA/MOTONETA/CICLOM S/CAPACETE DE SE244 * I            00000000070301   0000293470075720191224202002060000000000000000000000000                                                00000000000  000   22    00070441857900170301PASSAGEIRO
2000000000474220191223207570PREF. DE: MA - CAXIAS                   CXA0078799201912030820RUA 13 DE MAIO                                              OJP6510MA305941-SAMTHONDA/POP100                                 PARTICULAR                    MOTOCICLETA     AZUL      00000000JEFFERSON FRANCISCO DOS S LIMA              RUA N SRA DE FATIMA NR. 215             - BELA VISTA                            65600000CAXIAS              MACOND. MOTOCICLETA/MOTONETA/CICLOM S/CAPACETE DE SE244 * I            00000000070301   0000293470075720191224202002060000000000000000000000000                                                00000000000  000   23    00070441858288670301PASSAGEIRO
2000000000474220191223207570PREF. DE: MA - CAXIAS                   CXA0078327201912020807RUA DO FIO                                                  NNF2425MA301942-SAMTHONDA/CG150 TITAN MIX EX                     PARTICULAR                    MOTOCICLETA     VERMELHA  00000000JOSE AIRTON PEREIRA SARAIVA                 RUA MONTE CASTELO NR. 1611              - VOLTA REDONDA                         65600000CAXIAS              MACOND. MOTOC/MOTON./CICLOM TRANSPORTANDO/PASSAG.S/C244 * II           00000000070481   0000293470075720191224202002060000000000000000000000000                                                00000000000  000   24    00070441858351370481PASSAGEIRO
2000000000474220191223207570PREF. DE: MA - CAXIAS                   CXA0078951201912031440AV PIRAJA                                                   OJH1759MA123171-SAMTVW/24.280 CRM 6X2                            ALUGUEL                       CAMINHAO        PRATA     00000000BEIJAMIM R COELHO COMERCIO ME               AV S LUIS NR. 650                       - VILA ALECRIM                          65605690CAXIAS              MAABANDONAR NA VIA OBJETOS OU SUBSTANCIAS           172                00000000052312   0000130160075720191224202002060000000000000000000000000                                                00000000000  000   25    00040441858654752312CARGA
2000000000474220191223207570PREF. DE: MA - CAXIAS                   CXA0078399201912030815RUA AARAO REIS                                              OIR7121MA122111-SAMTHONDA/CG 125 FAN KS                          PARTICULAR                    MOTOCICLETA     PRETA     00000000RAIMUNDA MOREIRA DA SILVA                   III TRAV LEONCIO MAGNO NR. 2056         - VOLTA REDONDA                         65600000CAXIAS              MACOND. MOTOC/MOTON./CICLOM TRANSPORTANDO/PASSAG.S/C244 * II           00000000070481   0000293470075720191224202002060000000000000000000000000                                                00000000000  000   26    00070441858834570481PASSAGEIRO
2000000000474220191223207570PREF. DE: MA - CAXIAS                   CXA0078466201912030700PCA PANTHEON                                                OIV5935MA306051-SAMTHONDA/BIZ 125 ES                             PARTICULAR                    MOTONETA        PRETA     00000000GRACIETE DE FREITAS VEIGA                   RUA 24 QD 29 NR. 10                     QD 29COHAB - NOVA CAXIAS                65600000CAXIAS              MACOND. MOTOCICLETA/MOTONETA/CICLOM S/CAPACETE DE SE244 * I            00000000070301   0000293470075720191224202002060000000000000000000000000                                                00000000000  000   27    00070441859024270301PASSAGEIRO
2000000000474220191223207570PREF. DE: MA - CAXIAS                   CXA0078947201912031420PCA CANDIDO MENDES                                          PSX9982MA123611-SAMTHONDA/POP 110I                               PARTICULAR                    MOTOCICLETA     PRETA     00000000JOSE MACIEL DA SILVA                        RUA CRISTO REI NR. 1866                 - CASTELO BRANCO                        65600320CAXIAS              MACOND. MOTOC/MOTON./CICLOM TRANSPORTANDO/PASSAG.S/C244 * II           00000000070481   0000293470075720191224202002060000000000000000000000000                                                00000000000  000   28    00070441859148670481PASSAGEIRO
2000000000474220191223207570PREF. DE: MA - CAXIAS                   CXA0078948201912031435RUA MENINO DEUS                                             NMP1012MA123611-SAMTHONDA/CG 125 FAN ES                          PARTICULAR                    MOTOCICLETA     PRETA     00000000DANIEL OLIVEIRA DOS SANTOS                  RUA GALDINO DE JESUS NR. 484            - VL SAO JOAO                           65608340CAXIAS              MACOND. MOTOCICLETA/MOTONETA/CICLOM S/CAPACETE DE SE244 * I            00000000070301   0000293470075720191224202002060000000000000000000000000                                                00000000000  000   29    00070441859244070301PASSAGEIRO
2000000000474220191223207570PREF. DE: MA - CAXIAS                   CXA0078949201912031455RUA MENINO DEUS                                             PSC3604MA123611-SAMTHONDA/NXR160 BROS ESDD                       PARTICULAR                    MOTOCICLETA     VERMELHA  00000000GEYLTON JOSE DAS CHAGAS OLIVEIRA            R AEROPORTO NR. 2331                    - TESO DURO                             65603600CAXIAS              MACOND. MOTOC/MOTON./CICLOM TRANSPORTANDO/PASSAG.S/C244 * II           00000000070481   0000293470075720191224202002060000000000000000000000000                                                00000000000  000   30    00070441859308070481PASSAGEIRO
2000000000474220191223207570PREF. DE: MA - CAXIAS                   CXA0078950201912031445RUA MENINO DEUS                                             OJJ8498MA123611-SAMTHONDA/BIZ 125 ES                             PARTICULAR                    MOTONETA        ROSA      00000000RAIMUNDO NONATO ALVES DE ARAUJO             TRAV SAO FRANCISCO NR. 937              - SIRIEMA                               65600000CAXIAS              MACOND. MOTOC/MOTON./CICLOM TRANSPORTANDO/PASSAG.S/C244 * II           00000000070481   0000293470075720191224202002060000000000000000000000000                                                00000000000  000   31    00070441859481770481PASSAGEIRO
2000000000474220191223207570PREF. DE: MA - CAXIAS                   CXA0078851201912031530PCA CANDIDO MENDES                                          NHP7333MA122131-SAMTSUNDOWN/WEB 100                              PARTICULAR                    MOTONETA        VERMELHA  00000000LIDIARA AMORIN DE FRANCA                    ST SAO JOSE NR. 1243                    - FAZENDINHA                            65600010CAXIAS              MACOND. MOTOC/MOTON./CICLOM TRANSPORTANDO/PASSAG.S/C244 * II           00000000070481   0000293470075720191224202002060000000000000000000000000                                                00000000000  000   32    00070441859762070481PASSAGEIRO
2000000000474220191223207570PREF. DE: MA - CAXIAS                   CXA0078852201912031550PCA CANDIDO MENDES                                          PSF2004MA123611-SAMTHONDA/NXR150 BROS KS                         PARTICULAR                    MOTOCICLETA     PRETA     00000000ROMULO TIAGO DA SILVA CARNEIRO              RUA SEGISNANDO MOURA NR. 362            - PONTE                                 65609370CAXIAS              MACOND. MOTOC/MOTON./CICLOM TRANSPORTANDO/PASSAG.S/C244 * II           00000000070481   0000293470075720191224202002060000000000000000000000000                                                00000000000  000   33    00070441859959270481PASSAGEIRO
2000000000474220191223207570PREF. DE: MA - CAXIAS                   CXA0078854201912031715RUA AARAO REIS                                              PSG1686MA123611-SAMTHONDA/POP100                                 PARTICULAR                    MOTOCICLETA     PRETA     00000000ANDERSON RAFAEL SANTOS CARDOSO              AV BENJAMIM CONTANTE NR. 1341           - NOVA CAXIAS                           65604260CAXIAS              MACOND. MOTOC/MOTON./CICLOM TRANSPORTANDO/PASSAG.S/C244 * II           00000000070481   0000293470075720191224202002060000000000000000000000000                                                00000000000  000   34    00070441860085070481PASSAGEIRO
2000000000474220191223207570PREF. DE: MA - CAXIAS                   CXA0078855201912031715RUA AARAO REIS                                              OIX5701MA123611-SAMTYAMAHA/XTZ 125E                              PARTICULAR                    MOTOCICLETA     PRETA     00000000JOSE DA SILVA VILARINHO                     AVENIDA ALEXANDRE COSTA NR. 3138        - NOVA CAXIAS                           65600000CAXIAS              MACOND. MOTOCICLETA/MOTONETA/CICLOM S/CAPACETE DE SE244 * I            00000000070301   0000293470075720191224202002060000000000000000000000000                                                00000000000  000   35    00070441860208970301PASSAGEIRO
2000000000474220191223207570PREF. DE: MA - CAXIAS                   CXA0078856201912031725RUA AIRTON SENA                                             PST3043MA123611-SAMTHONDA/BIZ 110I                               PARTICULAR                    MOTONETA        VERMELHA  00000000HANNALU DE ARAUJO COSTA                     BR 316 NR. 1000                         - VOLTA REDONDA                         65606525CAXIAS              MACOND. MOTOC/MOTON./CICLOM TRANSPORTANDO/PASSAG.S/C244 * II           00000000070481   0000293470075720191224202002060000000000000000000000000                                                00000000000  000   36    00070441861922470481PASSAGEIRO
2000000000474220191223207570PREF. DE: MA - CAXIAS                   CXA0078857201912031725RUA AIRTON SENA                                             OXS2750MA123611-SAMTHONDA/POP100                                 PARTICULAR                    MOTOCICLETA     VERMELHA  00000000WALLERSON MIKAEL DE S RAMOS                 RUA SENHOR DO BOM FIM NR. 1644          - CASTELO BRANCO                        65600000CAXIAS              MACOND. MOTOCICLETA/MOTONETA/CICLOM S/CAPACETE DE SE244 * I            00000000070301   0000293470075720191224202002060000000000000000000000000                                                00000000000  000   37    00070441862045170301PASSAGEIRO
2000000000474220191223207570PREF. DE: MA - CAXIAS                   CXA0078858201912031800RUA DO FIO                                                  PTF8961MA123611-SAMTHONDA/POP 110I                               PARTICULAR                    MOTOCICLETA     PRETA     00000000FRANCISCA JESSICA P DOS SANTOS              RUA SANTA INES NR. 1117                 - VILA LOBAO                            65605547CAXIAS              MACOND. MOTOCICLETA/MOTONETA/CICLOM S/CAPACETE DE SE244 * I            00000000070301   0000293470075720191224202002060000000000000000000000000                                                00000000000  000   38    00070441862731670301PASSAGEIRO
2000000000474220191223207570PREF. DE: MA - CAXIAS                   CXA0078952201912040953TRAV ALCEBIADES VILHENA                                     OJC2765MA306431-SAMTHONDA/BIZ 100 ES                             PARTICULAR                    MOTONETA        ROSA      00000000MAGDA SILVA DOS SANTOS LIMA                 RUA 06 QD 15 NR. 12                     - COHAB                                 65600000CAXIAS              MATRANSIT. P/ CONTRAMAO EM VIAS C/ SENT. UNICO      186 * II           00000000057380   0000293470075720191224202002060000000000000000000000000                                                00000000000  000   39    00070441862814257380PASSAGEIRO
2000000000474220191223207570PREF. DE: MA - CAXIAS                   CXA0078468201912041025AV CENTRAL                                                  AYU7983MA12211-SAMT RENAULT/LOGAN EXPR 16 M                      PARTICULAR                    AUTOMOVEL       PRATA     00000000ANA FATIMA DOS S GONCALVES                  RUA 13 NR 01 QD 12 NR.                  - IPEM                                  65600010CAXIAS              MAESTACIONAR NAS VAGAS RESERVADAS A IDOSOS, SEM CREDART 181, XX        00000000076252   0000293470075720191224202002060000000000000000000000000                                                00000000000  000   40    00070441862904176252PASSAGEIRO
2000000000474220191223207570PREF. DE: MA - CAXIAS                   CXA0078954201912040957TRAV ALCEBIADES VILHEMA                                     HPX6602MA305941-SAMTFIAT/UNO MILLE FIRE FLEX                     PARTICULAR                    AUTOMOVEL       PRATA     00000000GILBERTO BANDEIRA DA SILVA                  RUA SALVADOR BARBOSA NR. 1270           - NOVA CAXIAS                           65600000CAXIAS              MATRANSIT. P/ CONTRAMAO EM VIAS C/ SENT. UNICO      186 * II           00000000057380   0000293470075720191224202002060000000000000000000000000                                                00000000000  000   41    00070441863106257380PASSAGEIRO
2000000000474220191223207570PREF. DE: MA - CAXIAS                   CXA0078955201912041125PCA DUQUE DE CAXIAS                                         NHR5380MA305941-SAMTYAMAHA/XTZ 125XE                             PARTICULAR                    MOTOCICLETA     PRETA     00000000IDELVAM LIMA SOARES                         RUA NOVA NR. 221                        - JOSE CASTRO                           65604735CAXIAS              MACOND. MOTOCICLETA/MOTONETA/CICLOM S/CAPACETE DE SE244 * I            00000000070301   0000293470075720191224202002060000000000000000000000000                                                00000000000  000   42    00070441863424070301PASSAGEIRO
2000000000474220191223207570PREF. DE: MA - CAXIAS                   CXA0078859201912041540PCA CANDIDO MENDES                                          PTD7821MA123611-SAMTHONDA/NXR160 BROS ESDD                       PARTICULAR                    MOTOCICLETA     VERMELHA  00000000JOSE CARLOS OLIVEIRA RIBEIRO                AV BEIJA FLOR NR. 34                    QD A - RAIZ                             65600010CAXIAS              MACOND. MOTOC/MOTON./CICLOM TRANSPORTANDO/PASSAG.S/C244 * II           00000000070481   0000293470075720191224202002060000000000000000000000000                                                00000000000  000   43    00070441864181570481PASSAGEIRO
3000043000000000043
