1*NIPI209610201912270038332019122700000000000000
2100000000383320191227209610PREF. DE: MA - ACAILANDIA               ACA0032630201911071022AV.TACITO CALDAS, CENTRO                                    NWY3895MA3157       HONDA/CG 150 FAN ESI                         PARTICULAR                    MOTOCICLETA     PRETA     00000000CREUZA DA SILVA SALAZAR                     RUA JOAO C FONTINELLI QD NR.  23        NR 19 - VILA BOM JARDIM                 65930000ACAILANDIA          MAESTACIONAR SOBRE FAIXA DESTINADA A PEDESTRE       181 * VIII         00000000054522   000019523009612019122820200210319036721364670000001561885630000001056180332100022009614419503672136467100000000000  000   2     00050432649387954522PASSAGEIRO
2100000000383320191227209610PREF. DE: MA - ACAILANDIA               ACA0032631201911070947RUA SAO LUIS, CENTRO                                        PSR9195MA3157       HONDA/CG 160 TITAN EX                        ALUGUEL                       MOTOCICLETA     AMARELA   00000000MARCOS DA SILVA PEREIRA                     QD 03 NR. 11                            - RES ANA JULIA                         65930000ACAILANDIA          MAAVANCAR SINAL VERMELHO DO SEMAFORO                208                00000000060501   000029347009612019122820200210319036721365440000002347785630000002834770332100522009614419503672136544700000000000  000   3     00070432649472760501PASSAGEIRO
2100000000383320191227209610PREF. DE: MA - ACAILANDIA               ACA0032632201911070952RUA SAO LUIS, CENTRO                                        PSI8554MA3157       CHEVROLET/S10 ADV FD2                        PARTICULAR                    CAMINHONETE     BRANCA    00000000F DE S GOES CONSTRUTORA EIRELI              RUA MANOEL BANDEIRA NR. N 09            QD 13 - RES OURO VERDE                  65930000ACAILANDIA          MAESTACIONAR AO LADO DE OUTRO VEICULO EM FILA DUPLA 181 * XI           00000000054870   000019523009612019122820200210319036721366210000001561885650000001856180332100022009614419503672136621300000000000  000   4     00050432656353254870ESPECIAL
2100000000383320191227209610PREF. DE: MA - ACAILANDIA               ACA0032633201911070947RUA SAO LUIS, CENTRO                                        PSB6738MA3157       HONDA/BIZ 125 EX                             PARTICULAR                    MOTONETA        VERMELHA  00000000RAIMUNDO BORGES DA SILVA                    RUA 10 OUTUBRO NR. 545                  - VL TANCREDO NVS                       65930000ACAILANDIA          MAAVANCAR SINAL VERMELHO DO SEMAFORO                208                00000000060501   000029347009612019122820200210319036721367090000002347785620000002934770332100522009614419503672136709600000000000  000   5     00070432666880660501PASSAGEIRO
2100000000383320191227209610PREF. DE: MA - ACAILANDIA               ACA0032347201911071024RUA BOM JESUS, CENTRO                                       NXL2822MA4445       HONDA/CG 150 TITAN ESD                       PARTICULAR                    MOTOCICLETA     VERMELHA  00000000CARLOS HENRIQUE LOPES SILVA                 AV DORGIVAL P SOUSA NR. 483             - CENTRO                                65900000IMPERATRIZ          MATRANSIT. P/ CONTRAMAO EM VIAS C/ SENT. UNICO      186 * II           00000000057380   000029347009612019122820200210319036721368960000002347785670000002434770332100522009614419503672136896100000000000  000   6     00070432667103357380PASSAGEIRO
2100000000383320191227209610PREF. DE: MA - ACAILANDIA               ACA0032349201911071033R.MARLY SARNEY, CENTRO                                      PTF9335MA445        HONDA/POP 110I                               PARTICULAR                    MOTOCICLETA     PRETA     00000000GERSON DA SILVA SOUSA                       RUA SAO RAIMUNDO NR. N 177              - VL CAPELOSA                           65930000ACAILANDIA          MATRANSIT. P/ CONTRAMAO EM VIAS C/ SENT. UNICO      186 * II           00000000057380   000029347009612019122820200210319036721369730000002347785640000002734770332100522009614419503672136973800000000000  000   7     00070432667554357380PASSAGEIRO
2100000000383320191227209610PREF. DE: MA - ACAILANDIA               ACA0032350201911081140R.BOM JESUS, CENTRO                                         PTI9772MA4445       FIAT/STRADA HD WK CC E                       PARTICULAR                    CAMINHONETE     PRATA     00000000ZONIN & ZONIN COMER E R LTDA EPP            RUA ITAPECURU NR. 14                    - RES TROPICAL                          65930000ACAILANDIA          MAESTAC. EM DESACORDO C/ A REGULAMENTACAO ESPECIFICA181 * XVII         00000000055411   000019523009612019122820200210319036721370040000001561885630000001056180332100022009614419503672137004100000000000  000   8     00050432669373855411CARGA
2100000000383320191227209610PREF. DE: MA - ACAILANDIA               ACA0032295201911081057R.BONAIRE N.153, CENTRO                                     PSQ6716MA3132       YAMAHA/YS150 FAZER SED                       PARTICULAR                    MOTOCICLETA     BRANCA    00000000LUIZ FERNANDO RIBEIRO DE SOUZA              R SOUSA LIMA NR. 669                    - CENTRO                                65900320IMPERATRIZ          MAESTACIONAR NAS VAGAS RESERV AS PESSOAS C/DEFIC.S/CART 181, XX        00000000076251   000029347009612019122820200210319036721371910000002347785620000002934770332100522009614419503672137191600000000000  000   9     00070432670304076251PASSAGEIRO
2100000000383320191227209610PREF. DE: MA - ACAILANDIA               ACA0032294201911080715R.INDEPENDENCIA  PX. JOYCE                                  OIS2933MA3132       HONDA/CG 150 FAN ESI                         PARTICULAR                    MOTOCICLETA     CINZA     00000000MARCOS BEZERRA DAS CHAGAS                   RUA FORTALEZA NR. NR 04                 - PLANO DA SERRA                        65930000ACAILANDIA          MADIRIGIR AMEACANDO OS DEMAIS VEICULOS              170                00000000052152   000029347009612019122820200210319036721372790000002347785620000002934770332100522009614719803672137279900000000000  000   10    00070432670699652152PASSAGEIRO
2100000000383320191227209610PREF. DE: MA - ACAILANDIA               ACA0032444201911081103R.BONAIRE FRT. A CAIXA, CENTRO                              PTJ1357MA3165       HONDA/NXR160 BROS ESDD                       PARTICULAR                    MOTOCICLETA     BRANCA    00000000PAULO ANTONIO SILVA GOMES                   QD 157 NR. N 360                        - VILA ILDEMAR                          65930000ACAILANDIA          MAESTACIONAR NAS VAGAS RESERV AS PESSOAS C/DEFIC.S/CART 181, XX        00000000076251   000029347009612019122820200210319036721373560000002347785610000002034770332100522009614419503672137356500000000000  000   11    00070432671021776251PASSAGEIRO
2100000000383320191227209610PREF. DE: MA - ACAILANDIA               ACA0032398201911081055R.BONAIRE N.153, CENTRO                                     NMR0175MA3088       HONDA/BIZ 125 ES                             PARTICULAR                    MOTONETA        VERMELHA  00000000RAYLLA DE SOUSA MORAES                      RUA 09 DE JULHO NR. SN                  - VL MARANHAO                           65930000ACAILANDIA          MAESTACIONAR NAS VAGAS RESERV AS PESSOAS C/DEFIC.S/CART 181, XX        00000000076251   000029347009612019122820200210319036721374330000002347785680000002334770332100522009614419503672137433200000000000  000   12    00070432671286476251PASSAGEIRO
2100000000383320191227209610PREF. DE: MA - ACAILANDIA               ACA0032536201911070934AV.DORGIVAL P. SOUSA, CENTRO                                NHD3846MA3154       MMC/L200 OUTDOOR                             PARTICULAR                    CAMINHONETE     PRETA     00000000MARIA DO SOCORRO RAFAEL EUZEBIO             RUA 15 DE NOVEMBRO NR. N 200            - PLANO DA SERRA                        65930000ACAILANDIA          MAAVANCAR SINAL VERMELHO DO SEMAFORO                208                00000000060501   000029347009612019122820200210319036721375100000002347785630000002834770332100522009614419503672137510700000000000  000   13    00070432671610060501ESPECIAL
2100000000383320191227209610PREF. DE: MA - ACAILANDIA               ACA0032537201911071139R.DORGIVAL P. SOUSA, CENTRO                                 NNH4502MA3154       TOYOTA/COROLLA GLI18FLEX                     PARTICULAR                    AUTOMOVEL       CINZA     00000000GARDENIA DE LIMA FRANCA                     AV D T DE CALDAS NR. 266                - CENTRO                                65930000ACAILANDIA          MAESTAC. EM LOCAL/HORARIO PROIBIDO ESPECIFIC. P/SINA181*XVIII          00000000055500   000013016009612019122820200210319036721376080000001041285600000001304120332100922009614419503672137608900000000000  000   14    00040432672002655500PASSAGEIRO
2100000000383320191227209610PREF. DE: MA - ACAILANDIA               ACA0032538201911071519RUA GOIAS N.1792, CENTRO                                    PTC9748MA3154       HONDA/CG 160 FAN                             PARTICULAR                    MOTOCICLETA     PRETA     00000000RAIMUNDO FRANCISCO DO NASCIMENTO            R ULISSES GUIMARAES NR. NR 08           - JACU                                  65930000ACAILANDIA          MATRANSIT. P/ CONTRAMAO EM VIAS C/ SENT. UNICO      186 * II           00000000057380   000029347009612019122820200210319036721377850000002347785610000002034770332100522009614419503672137785500000000000  000   15    00070432672347557380PASSAGEIRO
2100000000383320191227209610PREF. DE: MA - ACAILANDIA               ACA0032688201911071433R.DORGIVAL P. SOUSA, CENTRO                                 OIT6001MA3179       FIAT/SIENA ATTRACTIV 1.4                     PARTICULAR                    AUTOMOVEL       BRANCA    00000000JOSE TIAGO FONTES COSTA                     AV ARARIPINA NR. NR7                    A QD 71 - PQ ARACAGY                    65110000SAO JOSE DE RIBAMAR MAESTACIONAR AO LADO DE OUTRO VEICULO EM FILA DUPLA 181 * XI           00000000054870   000019523009612019122820200210319036721378620000001561885640000001956180332100022009614419503672137862200000000000  000   16    00050432672626154870PASSAGEIRO
2100000000383320191227209610PREF. DE: MA - ACAILANDIA               ACA0032689201911071442R.CASTELO BRANCO C/R.B.JESUS                                JTR7319MA3179       GM/CHEVROLET A20                             PARTICULAR                    CAMIONETA       PRETA     00000000JOAQUIM BARBOSA DA SILVA                    AV SINAL QD 16 NR. 13                   - NOVO PEQUIA                           65930000ACAILANDIA          MAAVANCAR SINAL DE PARADA OBRIGATORIA               208                00000000060502   000029347009612019122820200210319036721379400000002347785620000002934770332100522009614419503672137940600000000000  000   17    00070432672880960502MISTO
2100000000383320191227209610PREF. DE: MA - ACAILANDIA               ACA0032691201911071512AV.TACITO CALDAS N.95, CENTRO                               FXI1996MA3179       VW FOX 1.6 PRIME GII                         PARTICULAR                    AUTOMOVEL       PRATA     00000000EDVALDO CARLOS DA SILVA JUNIOR              R SEBASTIAO BATISTA D S NR. L09         QD05 - JD GLORIA                        65930000ACAILANDIA          MAESTACIONAR NA CONTRAMAO DE DIRECAO                181 * XV           00000000055250   000013016009612019122820200210319036721380800000001041285610000001204120332100922009614419503672138080000000000000  000   18    00040432673111755250PASSAGEIRO
2100000000383320191227209610PREF. DE: MA - ACAILANDIA               ACA0032584201911071719AV. JK, PX.PROG. CONSTRUCAO                                 PTL4939MA7008       HONDA/BIZ 125                                PARTICULAR                    MOTONETA        BRANCA    00000000MANOEL GOMES NETO                           RUA ALTO DA COLINA NR. N 05             QD 13 - PORTO SEGURO II                 65930000ACAILANDIA          MADIR.VEIC. UTILIZANDO-SE DE TELEFONE CELULAR       252 * VI           00000000073662   000013016009612019122820200210319036721381680000001041285610000001204120332100922009614719803672138168300000000000  000   19    00040432673350073662PASSAGEIRO
2100000000383320191227209610PREF. DE: MA - ACAILANDIA               ACA0032581201911071408QDA 10 LOTE 53, CENTRO                                      PTJ0902MA7008       HONDA/NXR160 BROS ESDD                       PARTICULAR                    MOTOCICLETA     VERMELHA  00000000MARIA DA CONCEICAO T DA SILVA               QD 11 NR. N 12                          - COLINAS PARK                          65930000ACAILANDIA          MATRANSIT. P/ CONTRAMAO EM VIAS C/ DUPLO SENTIDO DE 186 * I            00000000057200   000019523009612019122820200210319036721382450000001561885610000001256180332100022009614419503672138245900000000000  000   20    00050432673493057200PASSAGEIRO
2100000000383320191227209610PREF. DE: MA - ACAILANDIA               ACA0032582201911071517R.DUQUE DE CAXIAS, CENTRO                                   NXL2822MA7008       HONDA/CG 150 TITAN ESD                       PARTICULAR                    MOTOCICLETA     VERMELHA  00000000CARLOS HENRIQUE LOPES SILVA                 AV DORGIVAL P SOUSA NR. 483             - CENTRO                                65900000IMPERATRIZ          MAAVANCAR SINAL VERMELHO DO SEMAFORO                208                00000000060501   000029347009612019122820200210319036721383220000002347785620000002934770332100522009614419503672138322600000000000  000   21    00070432673699260501PASSAGEIRO
2100000000383320191227209610PREF. DE: MA - ACAILANDIA               ACA0032583201911071519R.SAO FRANCISCO, CENTRO                                     OJM4448MA7008       FORD/FIESTA HA 1.6L TI A                     PARTICULAR                    AUTOMOVEL       BRANCA    00000000WESLLAENY FERREIRA A AGUILAR                AV RIBAMAR FIQUENI NR. LT 27            QD 16 - VILA ILDEMAR                    65930000ACAILANDIA          MADIR.VEIC. UTILIZANDO-SE DE TELEFONE CELULAR       252 * VI           00000000073662   000013016009612019122820200210319036721384000000001041285680000001504120332100922009614719803672138400000000000000  000   22    00040432673876673662PASSAGEIRO
2100000000383320191227209610PREF. DE: MA - ACAILANDIA               ACA0032698201911081418R.RUA MARANHAO C/R.S.FRANCISCO                              OJA0512MA3179       HONDA/CG150 FAN ESDI                         PARTICULAR                    MOTOCICLETA     PRETA     00000000MANOEL CORREIA                              RUA AUGUSTA CAPELOZA NR. 294            - VL CAPELOZA                           65930000ACAILANDIA          MAAVANCAR SINAL VERMELHO DO SEMAFORO                208                00000000060501   000029347009612019122820200210319036721385970000002347785690000002234770332100522009614419503672138597300000000000  000   23    00070432674142260501PASSAGEIRO
2100000000383320191227209610PREF. DE: MA - ACAILANDIA               ACA0032700201911081413R.MARANHAO, CENTRO                                          OIZ7412MA3179       HONDA/CG150 FAN ESDI                         PARTICULAR                    MOTOCICLETA     PRETA     00000000LUAN DAVID SILVA                            RUA LAMNATE JR NR. 808                  - LARANJEIRAS                           65930000ACAILANDIA          MAAVANCAR SINAL VERMELHO DO SEMAFORO                208                00000000060501   000029347009612019122820200210319036721386740000002347785660000002534770332100522009614419503672138674000000000000  000   24    00070432674367060501PASSAGEIRO
2100000000383320191227209610PREF. DE: MA - ACAILANDIA               ACA0032694201911081427R.MARANHAO C.R.SAO FRANCISCO                                PTA9579MA3179       HONDA/BIZ 125                                PARTICULAR                    MOTONETA        LARANJA   00000000JOSIMEIS FERREIRA DE SOUSA                  RUA SUCUPIRA QD 35 NR. 31               - N ACAILANDIA II                       65930000ACAILANDIA          MAAVANCAR SINAL VERMELHO DO SEMAFORO                208                00000000060501   000029347009612019122820200210319036721387510000002347785620000002934770332100522009614419503672138751600000000000  000   25    00070432678428860501PASSAGEIRO
2100000000383320191227209610PREF. DE: MA - ACAILANDIA               ACA0032213201911081435R.MARLY SARNEY C/R.SAO LUIS                                 OJF8451MA3123       FIAT/DUCATO GUERRA MC 20                     ALUGUEL                       MICROONIBUS     BRANCA    00000000EDILTON OLIVEIRA SOUSA                      RUA DOM PEDRO I NR. 108                 - JACU                                  65930000ACAILANDIA          MAAVANCAR SINAL DE PARADA OBRIGATORIA               208                00000000060502   000029347009612019122820200210319036721388390000002347785650000002634770332100522009614419503672138839900000000000  000   26    00070432678773260502PASSAGEIRO
2100000000383320191227209610PREF. DE: MA - ACAILANDIA               ACA0032212201911081100R.BONAIRE FRT.CAIXA                                         OJE8931MA3123       HONDA/CB 300R                                PARTICULAR                    MOTOCICLETA     PRETA     00000000RAFAEL DOS SANTOS SILVA                     RUA PROJETADA NR. N 61                  - JACU                                  65930000ACAILANDIA          MAESTACIONAR NAS VAGAS RESERV AS PESSOAS C/DEFIC.S/CART 181, XX        00000000076251   000029347009612019122820200210319036721389160000002347785610000002034770332100522009614419503672138916504604545484MA000   27    00070432679271076251PASSAGEIRO
2100000000383320191227209610PREF. DE: MA - ACAILANDIA               ACA0032701201911081440R.SAO FRANCISCO C/R.MARANHAO                                OJA0512MA3088       HONDA/CG150 FAN ESDI                         PARTICULAR                    MOTOCICLETA     PRETA     00000000MANOEL CORREIA                              RUA AUGUSTA CAPELOZA NR. 294            - VL CAPELOZA                           65930000ACAILANDIA          MAAVANCAR SINAL VERMELHO DO SEMAFORO                208                00000000060501   000029347009612019122820200210319036721390570000002347785630000002834770332100522009614419503672139057700000000000  000   28    00070432679496860501PASSAGEIRO
2100000000383320191227209610PREF. DE: MA - ACAILANDIA               ACA0032702201911081442R.SAO FRANCISCO C/R.MARANHAO                                PSV6076MA3088       HONDA/BIZ 125 ES                             PARTICULAR                    MOTONETA        PRETA     00000000JOSIEL NEVES DA COSTA                       RUA NILO SOUSA RIBEIRO NR. 07B          QD 28 - VL BOM JARDIM                   65930000ACAILANDIA          MAAVANCAR SINAL VERMELHO DO SEMAFORO                208                00000000060501   000029347009612019122820200210319036721391340000002347785600000002134770332100522009614419503672139134400000000000  000   29    00070432679714260501PASSAGEIRO
2100000000383320191227209610PREF. DE: MA - ACAILANDIA               ACA0032704201911081500R.SAO FRANCISCO C/R.MARANHAO                                OJN4569MA3088       HONDA/CG 150 TITAN ESD                       PARTICULAR                    MOTOCICLETA     PRETA     00000000JOSE NILTON CARDOZO DE SOUZA                RUA BRASIL NR. 274                      - VL MARANHAO                           65930000ACAILANDIA          MAAVANCAR SINAL VERMELHO DO SEMAFORO                208                00000000060501   000029347009612019122820200210319036721392110000002347785660000002534770332100522009614419503672139211000000000000  000   30    00070432679920060501PASSAGEIRO
2100000000383320191227209610PREF. DE: MA - ACAILANDIA               ACA0032705201911081501R.MARANHAO C/R.SAO FRANCISCO                                OJI7782MA3088       HONDA/NXR125 BROS ES                         PARTICULAR                    MOTOCICLETA     VERMELHA  00000000ANTONIO PAULO F DE AGUIAR                   AV SANTA LUZIA NR. N 265                - CENTRO                                65930000ACAILANDIA          MAAVANCAR SINAL VERMELHO DO SEMAFORO                208                00000000060501   000029347009612019122820200210319036721393090000002347785680000002334770332100522009614419503672139309200000000000  000   31    00070432680051860501PASSAGEIRO
2100000000383320191227209610PREF. DE: MA - ACAILANDIA               ACA0032706201911081502R.MARANHAO C/R.SAO FRANCISCO                                GVQ5877MA3088       M.BENZ/INDUSCAR APACHE A                     PARTICULAR                    ONIBUS          VERMELHA  00000000ENERGIA VIVA AGROFLORESTAL LTDA             ROD BR 226 NR. KM 41                    - ZONA RURAL                            65940000GRAJAU              MAAVANCAR SINAL VERMELHO DO SEMAFORO                208                00000000060501   000029347009612019122820200210319036721394860000002347785640000002734770332100522009614419503672139486800000000000  000   32    00070432680264260501PASSAGEIRO
2100000000383320191227209610PREF. DE: MA - ACAILANDIA               ACA0032400201911081430R.MARANHAO C/R.SAO FRANCISCO                                PSD6835MA3088       VW/NOVO FOX TL MB                            PARTICULAR                    AUTOMOVEL       VERMELHA  00000000HUGO BRENO BARROS DE SOUSA                  RUA MINAS GERAIS NR. NR 19              QD 12 LT 19B - RES TROPICAL             65930000ACAILANDIA          MAAVANCAR SINAL VERMELHO DO SEMAFORO                208                00000000060501   000029347009612019122820200210319036704156000000002347785690000002234770332100522009614419503670415600300000000000  000   33    00070432680429760501PASSAGEIRO
2100000000383320191227209610PREF. DE: MA - ACAILANDIA               ACA0032399201911081420R.SAO FRANCISCO C/R.MARANHAO                                OJM7996MA3088       HONDA/BIZ 125 ES                             PARTICULAR                    MOTONETA        PRETA     00000000WEKSLEY MARINHO DE SOUSA                    RUA SOUSA LIMA NR. N 474                - CENTRO                                65900470IMPERATRIZ          MAAVANCAR SINAL VERMELHO DO SEMAFORO                208                00000000060501   000029347009612019122820200210319036721395630000002347785600000002134770332100522009614419503672139563400000000000  000   34    00070432680489060501PASSAGEIRO
2100000000383320191227209610PREF. DE: MA - ACAILANDIA               ACA0032396201911081415R.SAO FRANCISCO C/R.MARANHAO                                PSW5517MA3088       HONDA/CG 125I FAN                            PARTICULAR                    MOTOCICLETA     PRETA     00000000RESENDE E ABREU LTDA ME                     R MARIO ANDREAZA NR. 09                 - TRES PODERES                          65901550IMPERATRIZ          MAAVANCAR SINAL VERMELHO DO SEMAFORO                208                00000000060501   000029347009612019122820200210319036721396400000002347785660000002534770332100522009614419503672139640000000000000  000   35    00070432680635460501PASSAGEIRO
2100000000383320191227209610PREF. DE: MA - ACAILANDIA               ACA0032692201911081410R.MARANHAO C/R.SAO FRANCISCO                                NHO7195MA3179       HONDA/CG 150 JOB                             PARTICULAR                    MOTOCICLETA     BRANCA    00000000PAULO SANTOS OLIVEIRA                       RUA CASTELO BRANCO NR. N 799            - CENTRO                                65930000ACAILANDIA          MAAVANCAR SINAL VERMELHO DO SEMAFORO                208                00000000060501   000029347009612019122820200210319036721397280000002347785690000002234770332100522009614419503672139728300000000000  000   36    00070432680793860501CARGA
2100000000383320191227209610PREF. DE: MA - ACAILANDIA               ACA0032697201911081416R.MARANHAO PX. ARIELSON MOTOS                               PUU8564MA3179       VW/SAVEIRO CS ST MB                          PARTICULAR                    CAMINHONETE     BRANCA    00000000JOSE CARLOS BARROS LIMA                     RUA MARLY SARNEY NR. N1216              - CENTRO                                65930000ACAILANDIA          MADIR.VEIC. UTILIZANDO-SE DE TELEFONE CELULAR       252 * VI           00000000073662   000013016009612019122820200210319036721398050000001041285670000001604120332100922009614719803672139805900000000000  000   37    00040432683053073662CARGA
2100000000383320191227209610PREF. DE: MA - ACAILANDIA               ACA0032482201911070927AV.DORGIVAL PX.LOTERIA IDEAL                                NNI4572MA3090       I/TOYOTA HILUX CD4X4 SRV                     PARTICULAR                    CAMINHONETE     PRETA     00000000CYNTHIA GONCALVES P FONTENELE               RUA CLAUDINO GALDINO QUADRA 59 NR. LT 11- VL BOM JARDIM                         65930000ACAILANDIA          MADEIXAR O CONDUTOR DE USAR O CINTO E SEGURANCA     167                00000000051851   000019523009612019122820200210319036721399920000001561885640000001956180332100022009614719803672139992500000000000  000   38    00050432683185551851ESPECIAL
2100000000383320191227209610PREF. DE: MA - ACAILANDIA               ACA0032291201911061110R.DORGIVAL FRT.BRADESCO, CENTR                              OIY7072MA3132       CHEVROLET/COBALT 1.4 LTZ                     PARTICULAR                    AUTOMOVEL       PRATA     00000000ANA SOUZA LIMA                              RUA GUARANI NR. 573                     - VL REDENCAO I                         65907250IMPERATRIZ          MAESTAC. EM LOCAL/HORARIO PROIBIDO ESPECIFIC. P/SINA181*XVIII          00000000055500   000013016009612019122820200210319036721400650000001041285680000001504120332100922009614419503672140065700000000000  000   39    00040432683220755500PASSAGEIRO
2100000000383320191227209610PREF. DE: MA - ACAILANDIA               ACA0032512201911081105AV.BERNARDO SAYAO N.1429                                    PTG8149MA7760       YAMAHA/XTZ150 CROSSER Z                      PARTICULAR                    MOTOCICLETA     PRETA     00000000JONILSON PAULA SILVA                        RUA BOM JESUS NR. NR 06                 - GAPARA                                65083530SAO LUIS            MATRANSITAR C/VEICULO EM AJARD/GRAMADOS/JARDINS PUBL193                00000000058193   000088041009612019122820200210319036721401420000007043285650000007504320332100522009614419503672140142400000000000  000   40    00070432683341658193PASSAGEIRO
2100000000383320191227209610PREF. DE: MA - ACAILANDIA               ACA0032513201911081711R.DUQUE DE CAXIAS N.897, CENTR                              PSK3636MA3168       TOYOTA/COROLLA XEI20FLEX                     PARTICULAR                    AUTOMOVEL       PRATA     00000000BENEDITO NABARRO                            RUA SAO FRANCISCO NR. 918               1 ANDAR - CENTRO                        65930000ACAILANDIA          MAESTAC. EM DESACORDO C/ A REGULAMENTACAO ESPECIFICA181 * XVII         00000000055411   000019523009612019122820200210319036721402200000001561885600000001356180332100022009614419503672140220800000000000  000   41    00050432684543055411PASSAGEIRO
2100000000383320191227209610PREF. DE: MA - ACAILANDIA               ACA0032603201911061557R.GOIAS C/R.SAO FRANCISCO                                   OJD1896MA3095       CHEVROLET/ONIX 1.0MT LT                      PARTICULAR                    AUTOMOVEL       BRANCA    00000000ZAIRA FARIAS OLIVEIRA                       QD 26 NR. N 71                          - VILA ILDEMAR                          65930000ACAILANDIA          MATRANSIT. P/ CONTRAMAO EM VIAS C/ SENT. UNICO      186 * II           00000000057380   000029347009612019122820200210319036721403070000002347785690000002234770332100522009614419503672140307300000000000  000   42    00070432684573257380PASSAGEIRO
2100000000383320191227209610PREF. DE: MA - ACAILANDIA               ACA0032209201911051025RUA CEARA, CENTRO                                           PSS4573MA3123       FORD/KA SE 1.0 HA B                          PARTICULAR                    AUTOMOVEL       VERMELHA  00000000FRANCISCO HENRIQUE F E SILVA                RUA IMPERATRIZ NR. 23                   - VL S FRANCISCA                        65930000ACAILANDIA          MAESTAC. EM LOCAL/HORARIO PROIBIDO ESPECIFIC. P/SINA181*XVIII          00000000055500   000013016009612019122820200210319036721404940000001041285600000001304120332100922009614419503672140494900000000000  000   43    00040432684609755500PASSAGEIRO
2100000000383320191227209610PREF. DE: MA - ACAILANDIA               ACA0032210201911060857R.BOM JESUS FRT.RODOVIARIA                                  NHD0404MA3123       VW/GOL 1.0                                   PARTICULAR                    AUTOMOVEL       PRETA     00000000ANTONIO LUIS DOS SANTOS NETO                RUA AUGUSTA CAPELOZA NR. 316            - CAPELOZA                              65930000ACAILANDIA          MAESTAC. EM DESACORDO C/ A REGULAMENTACAO ESPECIFICA181 * XVII         00000000055411   000019523009612019122820200210319036721405710000001561885660000001756180332100022009614419503672140571400000000000  000   44    00050432684690955411PASSAGEIRO
2100000000383320191227209610PREF. DE: MA - ACAILANDIA               ACA0032509201911061521RUA GOIAS, CENTRO                                           PQC0677MA7760       I/VW AMAROK CD 4X4 HIGH                      PARTICULAR                    CAMINHONETE     BRANCA    00000000CARLOS QUARESMA CANGUSSU                    AV DORGIVAL P DE SOUSA NR. 180          - CENTRO                                65903270IMPERATRIZ          MATRANSIT. P/ CONTRAMAO EM VIAS C/ SENT. UNICO      186 * II           00000000057380   000029347009612019122820200210319036721406590000002347785630000002834770332100522009614419503672140659700000000000  000   45    00070432684719057380ESPECIAL
2100000000383320191227209610PREF. DE: MA - ACAILANDIA               ACA0032508201911061515R.SAO LUIS C/R.BONAIRE, CENTRO                              OGR2880MA7760       I/TOYOTA HILUX CD4X4 SRV                     PARTICULAR                    CAMINHONETE     PRATA     00000000ANTONIO ERISVALDO SOUSA SILVA               RUA SAO JOSE NR. N 10                   - CENTRO                                65930000ACAILANDIA          MAAVANCAR SINAL VERMELHO DO SEMAFORO                208                00000000060501   000029347009612019122820200210319036721407360000002347785690000002234770332100522009614419503672140736300000000000  000   46    00070432684781660501ESPECIAL
2100000000383320191227209610PREF. DE: MA - ACAILANDIA               ACA0032394201911061510AV.BERNARDO SAYAO N.1681                                    PXU6943MA3088       FIAT/UNO WAY 1.0                             PARTICULAR                    AUTOMOVEL       PRATA     00000000MANOEL VENI DE ARAUJO FILHO                 RUA JOAO LISBOA NR. N1411               - CENNTRO                               65900630IMPERATRIZ          MAESTACIONAR AO LADO DE OUTRO VEICULO EM FILA DUPLA 181 * XI           00000000054870   000019523009612019122820200210319036721408130000001561885620000001156180332100022009614419503672140813000000000000  000   47    00050432685135054870PASSAGEIRO
2100000000383320191227209610PREF. DE: MA - ACAILANDIA               ACA0032393201911061427R.DORGIVAL P. SOUSA N.1140                                  MZJ9158MA3088       TOYOTA/COROLLA XEI18VVT                      PARTICULAR                    AUTOMOVEL       PRATA     00000000ANTONIO NUNES AGUIAR                        QD 71 NR. L 161                         - VILA ILDEMAR                          65930000ACAILANDIA          MAESTAC. EM LOCAL/HORARIO PROIBIDO ESPECIFIC. P/SINA181*XVIII          00000000055500   000013016009612019122820200210319036721409000000001041285660000001704120332100922009614419503672140900500000000000  000   48    00040432685210055500PASSAGEIRO
2100000000383320191227209610PREF. DE: MA - ACAILANDIA               ACA0032402201911061423R.DORGIVAL C/R.BOM JESUS                                    OXZ1168MA3057       HONDA/BIZ 125 EX                             PARTICULAR                    MOTONETA        VERMELHA  00000000FRANCILENE VERAS BARROSO                    RUA JATOBA QD 06 NR. 11                 - JARDIM GLORIA                         65930000ACAILANDIA          MAAVANCAR SINAL VERMELHO DO SEMAFORO                208                00000000060501   000029347009612019122820200210319036721410310000002347785640000002734770332100522009614419503672141031800000000000  000   49    00070432687797960501PASSAGEIRO
2100000000383320191227209610PREF. DE: MA - ACAILANDIA               ACA0032685201911051728AV.TACITO CALDAS, CENTRO                                    PSY8787MA3055       HONDA/BIZ 125                                PARTICULAR                    MOTONETA        VERMELHA  00000000ROSILDA DA CUNHA ARAUJO                     RUA BAHIA 2 NR. 555                     - JACU                                  65930000ACAILANDIA          MAAVANCAR SINAL VERMELHO DO SEMAFORO                208                00000000060501   000029347009612019122820200210319036721411190000002347785670000002434770332100522009614419503672141119100000000000  000   50    00070432688167460501PASSAGEIRO
2100000000383320191227209610PREF. DE: MA - ACAILANDIA               ACA0032686201911061615R.SANTOS DUMONT. CENTRO                                     JTK4505MA3179       GM/CHEVROLET D40                             PARTICULAR                    CAMINHAO        AZUL      00000000ADELSON SOUSA BARROS                        RUA GOIAS NR. 658                       - CENTRO                                65930000ACAILANDIA          MACONDUZIR VEIC. TRANSP. PASSAGEI. EM COMPARTIMENTO 230 * II           00000000065640   000029347009612019122820200210319036721412060000002347785620000002934770332100522009614419503672141206600000000000  000   51    00070432688319765640CARGA
3000050000000000050
