1*NATI209610201904150031592019041500000000000000
2000000000315920190415209610PREF. DE: MA - ACAILANDIA               ACA0040513201904091031AV.TACITO CALDAS, CENTRO                                    OXY6413MA3179       VW/GOL CL MC                                 PARTICULAR                    AUTOMOVEL       BRANCA    00000000MARIA CICERA SOUSA DA C MENEZES             RUA BOCA DA MATA NR. 443                - CENTRO                                65795000GOV. LUIZ ROCHA     MAESTACIONAR NA CONTRAMAO DE DIRECAO                181 * XV           00000000055250   0000130160096120190416201905300000000000000000000000000                                                00000000000  000   1     00040392822110855250PASSAGEIRO
2000000000315920190415209610PREF. DE: MA - ACAILANDIA               ACA0040514201904091150R.DORGIVAL P. SOUSA, CENTRO                                 PSJ8603MA3179       I/TOYOTA HILUX CS4X4                         PARTICULAR                    CAMINHONETE     BRANCA    00000000MARCIO LOBEU DE SOUZA                       RUA SAFIRA NR. 98                       - JD AMERICA                            65930000ACAILANDIA          MAESTAC. EM LOCAL/HORARIO PROIBIDO ESPECIFIC. P/SINA181*XVIII          00000000055500   0000130160096120190416201905300000000000000000000000000                                                00000000000  000   2     00040392822189255500CARGA
2000000000315920190415209610PREF. DE: MA - ACAILANDIA               ACA0040365201904090924R.DR.GERVASIO N.547, CENTRO                                 HPP1671MA3154       GM/S10 2.8 D                                 PARTICULAR                    CAMINHONETE     CINZA     00000000FRANCISCO FERREIRA DA SILVA                 RUA BOM JESUS NR 390 NR.                TEL 3538 1832 - CENTRO                  65930000ACAILANDIA          MAESTACIONAR AO LADO DE OUTRO VEICULO EM FILA DUPLA 181 * XI           00000000054870   0000195230096120190416201905300000000000000000000000000                                                00000000000  000   3     00050392823059054870CARGA
2000000000315920190415209610PREF. DE: MA - ACAILANDIA               ACA0040364201904090850R. MARLY SARNEY, CENTRO                                     OXY9448MA3154       HONDA/CG150 FAN ESDI                         PARTICULAR                    MOTOCICLETA     PRETA     00000000ANTONIO RICARDO PEREIRA DE SOUSA            AV JOAO CASTELO NR. NR 15               - PEQUIA                                65930000ACAILANDIA          MATRANSIT. P/ CONTRAMAO EM VIAS C/ SENT. UNICO      186 * II           00000000057380   0000293470096120190416201905300000000000000000000000000                                                00000000000  000   4     00070392823510957380PASSAGEIRO
2000000000315920190415209610PREF. DE: MA - ACAILANDIA               ACA0040140201904041148AV.BERNARDO SAYAO, JACU                                     PSI5125MA4445       HONDA/CG 150 TITAN EX                        ALUGUEL                       MOTOCICLETA     AMARELA   00000000ERIVAN SILVA DE SOUSA                       RUA 18 NR. LT 14                        QD 29 - JD DE ALAH                      65930000ACAILANDIA          MATRANSITAR C/VEICULO EM CICLOVIAS, CICLOFAIXAS     193                00000000058192   0000880410096120190416201905300000000000000000000000000                                                00000000000  000   5     00070392823709858192PASSAGEIRO
2000000000315920190415209610PREF. DE: MA - ACAILANDIA               ACA0040139201904041158R.MARLY SARNEY, CENTRO                                      NTC4228MA4445       VW/GOL 1.0                                   PARTICULAR                    AUTOMOVEL       PRATA     00000000RICARDO DA SILVA MACEDO                     RUA 04 NR. N 98                         - CJ PROGRESSO II                       65930000ACAILANDIA          MAESTACIONAR AO LADO DE OUTRO VEICULO EM FILA DUPLA 181 * XI           00000000054870   0000195230096120190416201905300000000000000000000000000                                                00000000000  000   6     00050392824125754870PASSAGEIRO
2000000000315920190415209610PREF. DE: MA - ACAILANDIA               ACA0040138201904041157AV.TACITO CALDAS, CENTRO                                    PSS0007MA4445       TROLLER/T4 XLT 3.2                           PARTICULAR                    UTILITARIO      BRANCA    00000000ABRAHAN LINCONL CAMPOS TEIXEIRA             RUA RETORNO 6 NR. NR 16                 QD 09 - PARQUE PLANALTO                 65930000ACAILANDIA          MAESTACIONAR AO LADO DE OUTRO VEICULO EM FILA DUPLA 181 * XI           00000000054870   0000195230096120190416201905300000000000000000000000000                                                00000000000  000   7     00050392824298954870MISTO
2000000000315920190415209610PREF. DE: MA - ACAILANDIA               ACA0040482201904081650R.SAO PAULO, CENTRO                                         OTM7899MA3090       CHEV/PRISMA 1.0MT LT                         PARTICULAR                    AUTOMOVEL       BRANCA    00000000GILDEAN ROQUE SILVA                         RUA LAMANTE JR NR. NR679                - LARANJEIRA                            65930000ACAILANDIA          MAAVANCAR SINAL VERMELHO DO SEMAFORO                208                00000000060501   0000293470096120190416201905300000000000000000000000000                                                00000000000  000   8     00070392824386160501PASSAGEIRO
2000000000315920190415209610PREF. DE: MA - ACAILANDIA               ACA0040553201904081634R.DORGIVAL PINHEIRO, CENTRO                                 PSR8631MA7760       CHEVROLET/S10 LTZ FD2                        PARTICULAR                    CAMINHONETE     BRANCA    00000000IND E COM DE ALIMENTOS G LTDA ME            ROD BR 222 NR. SN                       - PEQUIA                                65930000ACAILANDIA          MAESTACIONAR SOBRE FAIXA DESTINADA A PEDESTRE       181 * VIII         00000000054522   0000195230096120190416201905300000000000000000000000000                                                00000000000  000   9     00050392824828654522ESPECIAL
2000000000315920190415209610PREF. DE: MA - ACAILANDIA               ACA0040554201904081646R.BONAIRE C/R.S.FCO, CENTRO                                 NWS7954MA7760       I/M.BENZ313CDI SPRINTERM                     ALUGUEL                       MICROONIBUS     BRANCA    00000000JOAO DE DEUS FILHO                          RUA DUQUE DE CAXIAS NR. 103             - ANTONIO FERREIR                       65930000ACAILANDIA          MAESTAC. VEIC. NAS ESQU. E MENOS DE 5M DO ALINHAMENT181 * I            00000000053800   0000130160096120190416201905300000000000000000000000000                                                00000000000  000   10    00040392825137653800PASSAGEIRO
2000000000315920190415209610PREF. DE: MA - ACAILANDIA               ACA0040142201904050948RUA SAO LUIS, CENTRO                                        OJH1008MA4445       MARCOPOLO/VOLARE V8 ON                       APRENDIZAGEM                  ONIBUS          PRATA     00000000T C M SOUZA REAL ACAILANDIA ME              RUA SAO PAULO  NR NR. 755               - CENTRO                                65930000ACAILANDIA          MAESTACIONAR AO LADO DE OUTRO VEICULO EM FILA DUPLA 181 * XI           00000000054870   0000195230096120190416201905300000000000000000000000000                                                00000000000  000   11    00050392825738254870PASSAGEIRO
2000000000315920190415209610PREF. DE: MA - ACAILANDIA               ACA0040144201904091001PATIO DO H.MUNICIPAL, GETAT                                 OIY5694MA3157       RENAULT/SANDERO EXP1016V                     PARTICULAR                    AUTOMOVEL       PRATA     00000000JOACILLO MAGALHAES F LIMA                   RUA 13 NR. 04                           QDA 601 - P BURITI                      65900000IMPERATRIZ          MAESTAC. EM DESACORDO C/ A REGULAMENTACAO ESPECIFICA181 * XVII         00000000055411   0000195230096120190416201905300000000000000000000000000                                                00000000000  000   12    00050392826020055411PASSAGEIRO
2000000000315920190415209610PREF. DE: MA - ACAILANDIA               ACA0040143201904091000PATIO DO H.MUNICIPAL, GETAT                                 PSO4628MA4445       HONDA/CG 160 FAN ESDI                        PARTICULAR                    MOTOCICLETA     VERMELHA  00000000MAXIMIANA RODRIGUES DA SILVA                QD 41 NR. 16                            - CADETE                                65930000ACAILANDIA          MAESTAC. EM DESACORDO C/ A REGULAMENTACAO ESPECIFICA181 * XVII         00000000055411   0000195230096120190416201905300000000000000000000000000                                                00000000000  000   13    00050392826106155411PASSAGEIRO
2000000000315920190415209610PREF. DE: MA - ACAILANDIA               ACA0040145201904091005PATIO HOSP. MUNICIPAL, GETAT                                HDS8110MA3157       I/HYUNDAI I30 2.0                            PARTICULAR                    AUTOMOVEL       PRETA     00000000MARCONYS NASCIMENTO BARBOSA                 RUA JOAO DE DEUS NR. 116                - VL TANCREDO                           65930000ACAILANDIA          MAESTAC. EM DESACORDO C/ A REGULAMENTACAO ESPECIFICA181 * XVII         00000000055411   0000195230096120190416201905300000000000000000000000000                                                00000000000  000   14    00050392826253055411PASSAGEIRO
2000000000315920190415209610PREF. DE: MA - ACAILANDIA               ACA0040146201904091008PATIO HOSPITAL MUNICIPAL, GETA                              OXS4326MA3157       VW/GOL TL MB                                 PARTICULAR                    AUTOMOVEL       VERMELHA  00000000JOSEVALDO DE SANTANA                        RUA PROGRESSO NR NR. 08                 - MACAUBA                               65930000ACAILANDIA          MAESTAC. EM DESACORDO C/ A REGULAMENTACAO ESPECIFICA181 * XVII         00000000055411   0000195230096120190416201905300000000000000000000000000                                                00000000000  000   15    00050392826383855411PASSAGEIRO
2000000000315920190415209610PREF. DE: MA - ACAILANDIA               ACA0040147201904091015PATIO HOSPITAL MUNICIPAL, GETA                              OJL0065MA3157       VW/NOVO GOL 1.0                              PARTICULAR                    AUTOMOVEL       PRATA     00000000MARILENE OLIVEIRA S DE ASSUNCAO             RUA C EDUARDO R SANTOS NR. N 12         QD 06 - JD AMERICA                      65930000ACAILANDIA          MAESTAC. EM DESACORDO C/ A REGULAMENTACAO ESPECIFICA181 * XVII         00000000055411   0000195230096120190416201905300000000000000000000000000                                                00000000000  000   16    00050392826495855411PASSAGEIRO
2000000000315920190415209610PREF. DE: MA - ACAILANDIA               ACA0040150201904091008PATIO DO H. MUNICIPAL, GETAT                                NWZ4513MA4445       HONDA/CG 150 FAN ESI                         PARTICULAR                    MOTOCICLETA     PRETA     00000000CARLOS DA SILVA MENDES                      RUA BOM PRICIPIO NR. N 287              - VILINHA                               65900000IMPERATRIZ          MAESTAC. EM DESACORDO C/ A REGULAMENTACAO ESPECIFICA181 * XVII         00000000055411   0000195230096120190416201905300000000000000000000000000                                                00000000000  000   17    00050392827435055411PASSAGEIRO
2000000000315920190415209610PREF. DE: MA - ACAILANDIA               ACA0040516201904101112R.BONAIRE, FRT.CAIXA, CENTRO                                NXI9614MA3179       HONDA/NXR150 BROS ES                         PARTICULAR                    MOTOCICLETA     VERMELHA  00000000EDINALDO PINHEIRO DA SILVA                  RUA TATAJUBA QD 320 NR. N 320           - N ACAILANDIA                          65930000ACAILANDIA          MAESTACIONAR NAS VAGAS RESERV AS PESSOAS C/DEFIC.S/CART 181, XX        00000000076251   0000293470096120190416201905300000000000000000000000000                                                00000000000  000   18    00070392827554276251PASSAGEIRO
2000000000315920190415209610PREF. DE: MA - ACAILANDIA               ACA0040517201904101200RUA GOIAS, PX.CLIMED, CENTRO                                NMP9944MA3179       HONDA/CG 125 FAN ES                          PARTICULAR                    MOTOCICLETA     PRETA     00000000ANACY SILVA DE CASTRO                       R MAGALHAES DE ALMEIDA NR. NR541        - CENTRO                                65700000BACABAL             MACOND. MOTOC/MOTON./CICLOM TRANSPORTANDO/PASSAG.S/C244 * II           00000000070481   0000293470096120190416201905300000000000000000000000000                                                00000000000  000   19    00070392827846070481PASSAGEIRO
2000000000315920190415209610PREF. DE: MA - ACAILANDIA               ACA0040224201904101009R.MARLY SARNEY, CENTRO                                      PZJ5658MA3165       RENAULT/LOGAN EXP 16 SCE                     PARTICULAR                    AUTOMOVEL       PRATA     00000000EDSON MARIA DE AQUINO                       AV JUSCELINO KUBISCHEK NR. NR13         QD 62 - CENTRO                          65930000ACAILANDIA          MAESTACIONAR AO LADO DE OUTRO VEICULO EM FILA DUPLA 181 * XI           00000000054870   0000195230096120190416201905300000000000000000000000000                                                00000000000  000   20    00050392827964554870PASSAGEIRO
2000000000315920190415209610PREF. DE: MA - ACAILANDIA               ACA0040360201904051416RUA MARANHAO, CENTRO                                        OJJ0118MA3154       HONDA/CG150 FAN ESDI                         PARTICULAR                    MOTOCICLETA     PRETA     00000000EDUARDO MARINHO DA SILVA                    R IMPERATRIZ LEOPODINO NR. N 497        - SANTA RITA                            65900000IMPERATRIZ          MAAVANCAR SINAL VERMELHO DO SEMAFORO                208                00000000060501   0000293470096120190416201905300000000000000000000000000                                                00000000000  000   21    00070392828083060501PASSAGEIRO
2000000000315920190415209610PREF. DE: MA - ACAILANDIA               ACA0040361201904051415RUA MARANHAO, CENTRO                                        PTC6059MA3154       HONDA/NXR160 BROS ESDD                       PARTICULAR                    MOTOCICLETA     VERMELHA  00000000MARCELO DOS SANTOS EUZEBIO                  RUA ANITA GARIBALDE NR. N 10            - JD BOA VISTA                          65930000ACAILANDIA          MAAVANCAR SINAL VERMELHO DO SEMAFORO                208                00000000060501   0000293470096120190416201905300000000000000000000000000                                                00000000000  000   22    00070392828179860501PASSAGEIRO
2000000000315920190415209610PREF. DE: MA - ACAILANDIA               ACA0040362201904051429R.SAO LUIS, PX.LILIANE, CENTRO                              PSA1663MA3154       FIAT/PALIO FIRE WAY                          PARTICULAR                    AUTOMOVEL       BRANCA    00000000TRANSPORTADORA DELTA LTDA                   RUA PROJETADA NR. 51                    - SANTO AMARO                           65800000BALSAS              MADIR.VEIC. UTILIZANDO-SE DE TELEFONE CELULAR       252 * VI           00000000073662   0000130160096120190416201905300000000000000000000000000                                                00000000000  000   23    00040392828326073662PASSAGEIRO
2000000000315920190415209610PREF. DE: MA - ACAILANDIA               ACA0040363201904051633AV.SANTA LUZIA, CENTRO                                      NNF1722MA3154       VW/FOX 1.0 GII                               PARTICULAR                    AUTOMOVEL       VERMELHA  00000000NOELSON SOUSA FRAZAO BARROS                 RUA PROJETADA NR. 32                    - JACU                                  65930000ACAILANDIA          MAEXEC. CONVERSAO A ESQUERDA EM LOCAL PROIBIDO P/SIN207                00000000060412   0000195230096120190416201905300000000000000000000000000                                                00000000000  000   24    00050392828760560412PASSAGEIRO
2000000000315920190415209610PREF. DE: MA - ACAILANDIA               ACA0040485201904091659R.MARLY SARNEY N.508, CENTRO                                OXQ0967MA3090       FIAT/FIORINO 1.4 FLEX                        PARTICULAR                    CAMINHONETE     BRANCA    00000000BRUNO SILVA FERREIRA                        RUA SANTA QUITERIA N 14 NR. COND        VILAGIO PARADISO - JD ELDORADO          65010000SAO LUIS            MAESTACIONAR AO LADO DE OUTRO VEICULO EM FILA DUPLA 181 * XI           00000000054870   0000195230096120190416201905300000000000000000000000000                                                00000000000  000   25    00050392828823754870CARGA
2000000000315920190415209610PREF. DE: MA - ACAILANDIA               ACA0040605201904101615R.DORGIVAL P. SOUSA, CENTRO                                 PSX6923MA3110       TOYOTA/ETIOS SD XS 15 MT                     PARTICULAR                    AUTOMOVEL       PRATA     00000000DJARA VASCONCELOS SOARES                    RUA D QD 07 NR 08 NR.                   - JD DE ALAH                            65930000ACAILANDIA          MAESTAC. VEIC. NAS ESQU. E MENOS DE 5M DO ALINHAMENT181 * I            00000000053800   0000130160096120190416201905300000000000000000000000000                                                00000000000  000   26    00040392829245553800PASSAGEIRO
2000000000315920190415209610PREF. DE: MA - ACAILANDIA               ACA0040603201904100902AV.TACITO CALDAS, CENTRO                                    NHS9359MA3110       VW/GOL 1.0                                   PARTICULAR                    AUTOMOVEL       PRETA     00000000EDUARDO BRUNO BARROS MATOS                  R SANTO AUGUSTINHO NR. N 724            - BOM SUCESSO                           65900000IMPERATRIZ          MAAVANCAR SINAL VERMELHO DO SEMAFORO                208                00000000060501   0000293470096120190416201905300000000000000000000000000                                                00000000000  000   27    00070392829419960501PASSAGEIRO
2000000000315920190415209610PREF. DE: MA - ACAILANDIA               ACA0040601201904081458R.DORGIVAL N.1050, CENTRO                                   OIW4061MA3110       HONDA/CG 125 FAN ES                          PARTICULAR                    MOTOCICLETA     PRETA     00000000EDIVALDO ELOIA ROCHA                        AVENIDA TACITO DE CALDAS NR. 385        - CENTRO                                65930000ACAILANDIA          MAESTAC. EM LOCAL/HORARIO PROIBIDO ESPECIFIC. P/SINA181*XVIII          00000000055500   0000130160096120190416201905300000000000000000000000000                                                00000000000  000   28    00040392842758055500PASSAGEIRO
2000000000315920190415209610PREF. DE: MA - ACAILANDIA               ACA0039709201904101715AV.TACITO CALDAS, CENTRO                                    PTJ4382MA3123       HONDA/BIZ 110I                               PARTICULAR                    MOTONETA        VERMELHA  00000000MARIA HELENA DUTRA DA SILVA                 RUA X NR. NR 06                         QD 31 LT 06 - JD ALAH                   65930000ACAILANDIA          MAESTACIONAR SOBRE FAIXA DESTINADA A PEDESTRE       181 * VIII         00000000054522   0000195230096120190416201905300000000000000000000000000                                                00000000000  000   29    00050392843127754522PASSAGEIRO
2000000000315920190415209610PREF. DE: MA - ACAILANDIA               ACA0039708201904101648R.DORGIVAL P. SOUSA, CENTRO                                 OIF8452MA3123       TOYOTA/COROLLA GLI FLEX                      PARTICULAR                    AUTOMOVEL       PRETA     00000000IVANEIDE PINTO DE BRITO                     AV TACITO DE CALDAS NR. 214             - CENTRO                                65930000ACAILANDIA          MAESTACIONAR AO LADO DE OUTRO VEICULO EM FILA DUPLA 181 * XI           00000000054870   0000195230096120190416201905300000000000000000000000000                                                00000000000  000   30    00050392843236254870PASSAGEIRO
2000000000315920190415209610PREF. DE: MA - ACAILANDIA               ACA0040428201904101707R.SAO PAULO, CENTRO                                         PTD4883MA7763       HONDA/CG 160 FAN                             PARTICULAR                    MOTOCICLETA     VERMELHA  00000000ALINE SOUSA MOTA                            RUA GOIAS NR. 684                       - CENTRO                                65930000ACAILANDIA          MAAVANCAR SINAL VERMELHO DO SEMAFORO                208                00000000060501   0000293470096120190416201905300000000000000000000000000                                                00000000000  000   31    00070392843444660501PASSAGEIRO
2000000000315920190415209610PREF. DE: MA - ACAILANDIA               ACA0040556201904090915R. 07 DE SETEMBRO, CENTRO                                   NHC7184MA7760       FORD/F250 XLT F21                            PARTICULAR                    CAMINHAO        PRATA     00000000IRAN PEREIRA MARINHO                        RUA C NR. 142                           - JARDIM DE ALA                         65930000ACAILANDIA          MAESTAC. VEIC. NAS ESQU. E MENOS DE 5M DO ALINHAMENT181 * I            00000000053800   0000130160096120190416201905300000000000000000000000000                                                00000000000  000   32    00040392843575253800CARGA
2000000000315920190415209610PREF. DE: MA - ACAILANDIA               ACA0040557201904091517AV.TACITO CALDAS, CENTRO                                    NHS9359MA7760       VW/GOL 1.0                                   PARTICULAR                    AUTOMOVEL       PRETA     00000000EDUARDO BRUNO BARROS MATOS                  R SANTO AUGUSTINHO NR. N 724            - BOM SUCESSO                           65900000IMPERATRIZ          MAAVANCAR SINAL VERMELHO DO SEMAFORO                208                00000000060501   0000293470096120190416201905300000000000000000000000000                                                00000000000  000   33    00070392844112460501PASSAGEIRO
2000000000315920190415209610PREF. DE: MA - ACAILANDIA               ACA0040559201904101015AV.TACITO CALDAS, CENTRO                                    OIW4061MA7760       HONDA/CG 125 FAN ES                          PARTICULAR                    MOTOCICLETA     PRETA     00000000EDIVALDO ELOIA ROCHA                        AVENIDA TACITO DE CALDAS NR. 385        - CENTRO                                65930000ACAILANDIA          MAAVANCAR SINAL VERMELHO DO SEMAFORO                208                00000000060501   0000293470096120190416201905300000000000000000000000000                                                00000000000  000   34    00070392845663660501PASSAGEIRO
2000000000315920190415209610PREF. DE: MA - ACAILANDIA               ACA0040567201904101517R.MARLY SARNEY, CENTRO                                      NSJ3115MA7760       VW/VOYAGE 1.0                                PARTICULAR                    AUTOMOVEL       PRETA     00000000FRANCISCA DO N DE ARAUJO                    RUA F QD 11 NR. 18                      - JD DE ALAH                            65930000ACAILANDIA          MAAVANCAR SINAL VERMELHO DO SEMAFORO                208                00000000060501   0000293470096120190416201905300000000000000000000000000                                                00000000000  000   35    00070392845776460501PASSAGEIRO
3000035000000000035
