1*NATI207570201912180047322019121800000000000000
2000000000473220191218207570PREF. DE: MA - CAXIAS                   CXA0078502201911251747TRAV PADRE GEROSA                                           NHR0415MA306431-SAMTHONDA/BIZ 125 ES                             PARTICULAR                    MOTONETA        CINZA     00000000FERNANDO ANTONIO R ASSUNCAO                 AV SANTOS DUMONT NR. N-284              - SIRIEMA                               65600000CAXIAS              MATRANSIT. P/ CONTRAMAO EM VIAS C/ SENT. UNICO      186 * II           00000000057380   0000293470075720191219202002030000000000000000000000000                                                00000000000  000   1     00070440811012457380PASSAGEIRO
2000000000473220191218207570PREF. DE: MA - CAXIAS                   CXA0078504201911261526RUA RIO DE JANEIRO                                          NHE0454MA306431-SAMTHONDA/CG 150 TITAN KS                        PARTICULAR                    MOTOCICLETA     PRETA     00000000FABRICIO DA CONCEICAO FERREIRA              TV SATURNINO II NR. 407                 - MATADOURO                             65600439CAXIAS              MAESTAC. EM LOCAL/HORARIO.DE ESTAC. E PARADA PROIBID181 * XIX          00000000055680   0000195230075720191219202002030000000000000000000000000                                                00000000000  000   2     00050440812201755680PASSAGEIRO
2000000000473220191218207570PREF. DE: MA - CAXIAS                   CXA0078323201911270925PCA DA MATRIZ                                               KCL9184MA301942-SAMTFIAT/UNO 1.6                                 PARTICULAR                    AUTOMOVEL       BRANCA    00000000ANTONIO DA CONCEICAO                        RUA 13 DE OUTUBRO NR. SN                - CENRTO                                65945000ARAME               MAESTAC. EM DESACORDO C/ A REGULAMENTACAO ESPECIFICA181 * XVII         00000000055411   0000195230075720191219202002030000000000000000000000000                                                00000000000  000   3     00050440812689655411PASSAGEIRO
2000000000473220191218207570PREF. DE: MA - CAXIAS                   CXA0078512201911271005RUA DA INDEPENDENCIA                                        PSI8798MA306431-SAMTHONDA/CG 160 FAN ESDI                        PARTICULAR                    MOTOCICLETA     VERMELHA  00000000FRANCISCO EDMILSON DOS SANTOS               PV LIMEIRA NR. S/N                      - POV LIMEIRA                           65604000CAXIAS              MAAVANCAR SINAL VERMELHO DO SEMAFORO                208                00000000060501   0000293470075720191219202002030000000000000000000000000                                                00000000000  000   4     00070440812769860501PASSAGEIRO
2000000000473220191218207570PREF. DE: MA - CAXIAS                   CXA0078904201911281415AV GENERAL SAMPAIO                                          PTC6531MA123611-SAMTHONDA/POP 110I                               PARTICULAR                    MOTOCICLETA     BRANCA    00000000ANDRE GUILHERME SILVA LEMOS                 RUA VESPASIANO RAMOS Q-B NR. N-09       REC. DOS POETAS - NOVA CAXIAS           65604347CAXIAS              MACOND. MOTOC/MOTON./CICLOM TRANSPORTANDO/PASSAG.S/C244 * II           00000000070481   0000293470075720191219202002030000000000000000000000000                                                00000000000  000   5     00070440812887270481PASSAGEIRO
2000000000473220191218207570PREF. DE: MA - CAXIAS                   CXA0078905201911281420AV GENERAL SAMPAIO                                          PTF7030MA123611-SAMTHONDA/NXR 160 BROS                           PARTICULAR                    MOTOCICLETA     PRETA     00000000JOSE LAECIO MOREIRA DA SILVA                RUA 10 QD-04 NR. N-32                   - COHAB                                 65604653CAXIAS              MACOND. MOTOC/MOTON./CICLOM TRANSPORTANDO/PASSAG.S/C244 * II           00000000070481   0000293470075720191219202002030000000000000000000000000                                                00000000000  000   6     00070440812942970481PASSAGEIRO
2000000000473220191218207570PREF. DE: MA - CAXIAS                   CXA0078906201911281430AV GENERAL SAMPAIO                                          PSJ9023MA123611-SAMTHONDA/POP 110I                               PARTICULAR                    MOTOCICLETA     VERMELHA  00000000LUIS FILIPE OLIVEIRA DE SOUSA               R SALVADOR BARBOSA NR. 1628             - NOVA CAXIAS                           65600010CAXIAS              MACOND. MOTOC/MOTON./CICLOM TRANSPORTANDO/PASSAG.S/C244 * II           00000000070481   0000293470075720191219202002030000000000000000000000000                                                00000000000  000   7     00070440813082670481PASSAGEIRO
2000000000473220191218207570PREF. DE: MA - CAXIAS                   CXA0078907201911281430AV GENERAL SAMPAIO                                          PSJ1188MA123611-SAMTHONDA/BIZ 100 ES                             PARTICULAR                    MOTONETA        BRANCA    00000000GISLENE E SILVA CARVALHO                    TV PIQUIZEIRO NR. 121                   - MUTIRAO                               65604865CAXIAS              MACOND. MOTOC/MOTON./CICLOM TRANSPORTANDO/PASSAG.S/C244 * II           00000000070481   0000293470075720191219202002030000000000000000000000000                                                00000000000  000   8     00070440813199770481PASSAGEIRO
2000000000473220191218207570PREF. DE: MA - CAXIAS                   CXA0078903201911281415AV GENERAL SAMPAIO                                          PTL5229MA123611-SAMTHONDA/POP 110I                               PARTICULAR                    MOTOCICLETA     PRETA     00000000MARIA DA GUIA MATOS                         RUA 06 QD-15 NR. N-11                   - COHAB                                 65604609CAXIAS              MACOND. MOTOC/MOTON./CICLOM TRANSPORTANDO/PASSAG.S/C244 * II           00000000070481   0000293470075720191219202002030000000000000000000000000                                                00000000000  000   9     00070440813411270481PASSAGEIRO
2000000000473220191218207570PREF. DE: MA - CAXIAS                   CXA0078901201911281405AV CASTELO BRANCO                                           OXY2895MA123611-SAMTHONDA/POP100                                 PARTICULAR                    MOTOCICLETA     PRETA     00000000PAULO ROBERTO COSTA E SILVA                 TV SAO JOSE NR. 578                     - JOSE CASTRO                           65600000CAXIAS              MACOND. MOTOC/MOTON./CICLOM TRANSPORTANDO/PASSAG.S/C244 * II           00000000070481   0000293470075720191219202002030000000000000000000000000                                                00000000000  000   10    00070440813744870481PASSAGEIRO
2000000000473220191218207570PREF. DE: MA - CAXIAS                   CXA0078909201911281435AV GENERAL SAMPAIO                                          PSL7257MA123611-SAMTHONDA/CG150 START                            PARTICULAR                    MOTOCICLETA     PRETA     00000000VINICIUS REGO DA SILVA NASCIMENTO           RUA BECO DO GALO NR. 482                - CENTRO                                65600240CAXIAS              MACOND. MOTOCICLETA/MOTONETA/CICLOM S/CAPACETE DE SE244 * I            00000000070301   0000293470075720191219202002030000000000000000000000000                                                00000000000  000   11    00070440815710470301PASSAGEIRO
2000000000473220191218207570PREF. DE: MA - CAXIAS                   CXA0078911201911281440AV GENERAL SAMPAIO                                          OJP9779MA123611-SAMTHONDA/CG 125 FAN KS                          PARTICULAR                    MOTOCICLETA     VERMELHA  00000000JAERMISON SILVA                             RUA DO SOL NR. 1366                     - VL ALECRIM                            65600000CAXIAS              MACOND. MOTOC/MOTON./CICLOM TRANSPORTANDO/PASSAG.S/C244 * II           00000000070481   0000293470075720191219202002030000000000000000000000000                                                00000000000  000   12    00070440815950670481PASSAGEIRO
2000000000473220191218207570PREF. DE: MA - CAXIAS                   CXA0078912201911281440AV GENERAL SAMPAIO                                          NNA2238MA123611-SAMTHONDA/BIZ 125 ES                             PARTICULAR                    MOTONETA        VERMELHA  00000000RAIMUNDA SOARES LOPES                       RUA GONCALVES DIAS NR NR. 104           - SUBSTACAO                             65620000COELHO NETO         MACOND. MOTOCICLETA/MOTONETA/CICLOM S/CAPACETE DE SE244 * I            00000000070301   0000293470075720191219202002030000000000000000000000000                                                00000000000  000   13    00070440816209470301PASSAGEIRO
2000000000473220191218207570PREF. DE: MA - CAXIAS                   CXA0078913201911281420AV GENERAL SAMPAIO                                          OXX4066MA123611-SAMTHONDA/BIZ 100 ES                             PARTICULAR                    MOTONETA        PRETA     00000000JAMIL BEZERRA DOS SANTOS                    R.DO CRUZEIRO S/N NR.                   - CENTRO                                65615000SAO JOAO DO SOTER   MATRANSITAR C/VEICULO EM DIVISORES DE PISTA DE ROLAM193                00000000058196   0000880410075720191219202002030000000000000000000000000                                                00000000000  000   14    00070440816331758196PASSAGEIRO
2000000000473220191218207570PREF. DE: MA - CAXIAS                   CXA0078914201911281455AV GENERAL SAMPAIO                                          NNC7333MA123611-SAMTHONDA/NXR150 BROS ES                         PARTICULAR                    MOTOCICLETA     PRETA     00000000SILVIO CESAR VIEIRA CHAVES                  RUA JOAO DE DEUS M RAMOS NR. 218        - PIQUIZEIRO                            65600000CAXIAS              MACOND. MOTOCICLETA/MOTONETA/CICLOM S/CAPACETE DE SE244 * I            00000000070301   0000293470075720191219202002030000000000000000000000000                                                00000000000  000   15    00070440816605770301PASSAGEIRO
2000000000473220191218207570PREF. DE: MA - CAXIAS                   CXA0078915201911281535PCA CANDIDO MENDES                                          PSE0602MA123611-SAMTHONDA/CG150 START                            PARTICULAR                    MOTOCICLETA     PRETA     00000000MARIA GORETE DA SILVA DE SOUZA              RUA SAO JOSE NR. 2055                   - TREZIDELA                             65607440CAXIAS              MACOND. MOTOC/MOTON./CICLOM TRANSPORTANDO/PASSAG.S/C244 * II           00000000070481   0000293470075720191219202002030000000000000000000000000                                                00000000000  000   16    00070440817044570481PASSAGEIRO
2000000000473220191218207570PREF. DE: MA - CAXIAS                   CXA0078326201911281130AV NEREU BITTENCOURT                                        PSF8821MA301942-SAMTHONDA/BIZ 125 EX                             PARTICULAR                    MOTONETA        BRANCA    00000000MARIA ONETE F DOS SANTOS                    TRAV SANTA LUZIA I NR. 641              - TREZIDELA                             65607650CAXIAS              MAAVANCAR SINAL VERMELHO DO SEMAFORO                208                00000000060501   0000293470075720191219202002030000000000000000000000000                                                00000000000  000   17    00070440817448360501PASSAGEIRO
3000017000000000017
