1*NIPI207570202001060047682020010600000000000000
2100000000476820200106207570PREF. DE: MA - CAXIAS                   CXA0077929201910221041PCA SAO BENEDITO                                            NHC7837MA306051-SAMTSUNDOWN/WEB 100 EVO                          PARTICULAR                    MOTONETA        PRETA     00000000MARIA KELLY ABREU DA SILVA                  R.DA FAVEIRA N-665 NR.                  - FAVEIRA                               65600000CAXIAS              MATRANSIT. P/ CONTRAMAO EM VIAS C/ SENT. UNICO      186 * II           00000000057380   000029347007572020010720200220320036727907990000002347785630000002834770332200322007574420503672790799400000000000  000   2     00070434136632757380PASSAGEIRO
2100000000476820200106207570PREF. DE: MA - CAXIAS                   CXA0077928201910300700RUA SENADOR COSTA RODRIGUES                                 NXH7834MA306051-SAMTHONDA/BIZ 125 ES                             PARTICULAR                    MOTONETA        PRETA     00000000JORGE HENRIQUE COUTINHO CARVALHO            AV CENTRAL NR. 726                      CASA - REFINARIA                        65600000CAXIAS              MATRANSIT. P/ CONTRAMAO EM VIAS C/ SENT. UNICO      186 * II           00000000057380   000029347007572020010720200220320036727908760000002347785690000002234770332200322007574420503672790876000000000000  000   3     00070434138676057380PASSAGEIRO
2100000000476820200106207570PREF. DE: MA - CAXIAS                   CXA0077930201910300708RUA SENADOR COSTA RODRIGUES                                 PID8330MA306051-SAMTCHEVROLET/S10 LTZ FD2                        PARTICULAR                    CAMINHONETE     PRATA     00000000REGINO OLIVEIRA DE LIMA                     TV SIQUEIRA CAMPOS NR. 1194             - CENTRO                                65600010CAXIAS              MATRANSIT. P/ CONTRAMAO EM VIAS C/ SENT. UNICO      186 * II           00000000057380   000029347007572020010720200220320036727909530000002347785660000002534770332200322007574420503672790953700000000000  000   4     00070434138990457380ESPECIAL
2100000000476820200106207570PREF. DE: MA - CAXIAS                   CXA0077933201910301040PCA RUI BARBOSA                                             OXT5376MA306051-SAMTHONDA/NXR150 BROS ES                         PARTICULAR                    MOTOCICLETA     PRETA     00000000JEOVA FERREIRA DOS SANTOS                   R LUIS ROCHA NR. 1463                   - NOVA CAXIAS                           65604430CAXIAS              MATRANSIT. P/ CONTRAMAO EM VIAS C/ SENT. UNICO      186 * II           00000000057380   000029347007572020010720200220320036727910940000002347785680000002334770332200322007574420503672791094900000000000  000   5     00070434139280857380PASSAGEIRO
2100000000476820200106207570PREF. DE: MA - CAXIAS                   CXA0078253201910301525RUA BENEDITO REIS                                           PTB1335MA122221-SAMTFIAT/STRADA HD WK CC E                       PARTICULAR                    CAMINHONETE     BRANCA    00000000HAMAL SERVICE LTDA EPP                      RUA 99 QDA 47 NR 10 NR.                 - MAIOBAO                               65130000PACO DO LUMIAR      MAESTACIONAR NAS VAGAS RESERVADAS A IDOSOS, SEM CREDART 181, XX        00000000076252   000029347007572020010720200220320036727911710000002347785640000002734770332200322007574420503672791171500000000000  000   6     00070434140005376252CARGA
2100000000476820200106207570PREF. DE: MA - CAXIAS                   CXA0077661201910210942AV RODOVIARIA                                               PSX5018MA306431-SAMTFIAT/ARGO HGT 1.8                            PARTICULAR                    AUTOMOVEL       BRANCA    00000000MARIA DAS DORES CUNHA BATISTA               AV DEP L E MAGALHAES 103 NR. CD JD      TOSCANA - CALHAU                        65071415SAO LUIS            MAESTAC. EM LOCAL/HORARIO PROIBIDO ESPECIFIC. P/SINA181*XVIII          00000000055500   000013016007572020010720200220320036727912590000001041285620000001104120332200722007574420503672791259800000000000  000   7     00040434140279055500PASSAGEIRO
2100000000476820200106207570PREF. DE: MA - CAXIAS                   CXA0077662201910210944AV RODOVIARIA                                               OJH2314MA306431-SAMTFIAT/UNO MILLE WAY ECON                      PARTICULAR                    AUTOMOVEL       PRETA     00000000JOSE CARLOS OLIVEIRA RIBEIRO                AV BEIJA FLOR QD A NR. 34               - RESID SABIA                           65609000CAXIAS              MAESTAC. EM LOCAL/HORARIO PROIBIDO ESPECIFIC. P/SINA181*XVIII          00000000055500   000013016007572020010720200220320036727913360000001041285680000001504120332200722007574420503672791336400000000000  000   8     00040434140824055500PASSAGEIRO
2100000000476820200106207570PREF. DE: MA - CAXIAS                   CXA0077663201910210948AV RODOVIARIA                                               LWN5811MA306431-SAMTCHEVROLET/S10 LT DD4A                        PARTICULAR                    CAMINHONETE     BRANCA    00000000JOAO FERNANDO NETO                          PC VESPASIANO RAMOS NR. 500             - CENTRO                                65600100CAXIAS              MAESTACIONAR NAS VAGAS RESERVADAS A IDOSOS, SEM CREDART 181, XX        00000000076252   000029347007572020010720200220320036727914130000002347785600000002134770332200322007574420503672791413100000000000  000   9     00070434141151976252ESPECIAL
2100000000476820200106207570PREF. DE: MA - CAXIAS                   CXA0077675201910221620PCA CANDIDO MENDES                                          LWN7862MA306431-SAMTVW/POLO 1.6                                  PARTICULAR                    AUTOMOVEL       PRATA     00000000RONEY SILVA ROCHA                           R STO ANTONIO NR. 720                   - CAMPO DE BELEM                        65609110CAXIAS              MAESTACIONAR AO LADO DE OUTRO VEICULO EM FILA DUPLA 181 * XI           00000000054870   000019523007572020010720200220320036727915000000001561885600000001356180332200822007574420503672791500500000000000  000   10    00050434142136054870PASSAGEIRO
2100000000476820200106207570PREF. DE: MA - CAXIAS                   CXA0077676201910221627RUA SAO BENEDITO                                            PSR2340MA306431-SAMTHONDA/NXR 160 BROS                           PARTICULAR                    MOTOCICLETA     PRETA     00000000LUCIA VIANA DA SILVA SOUSA                  RUA ZE DOCA NR. 1341                    - VILA ALECRIM                          65605650CAXIAS              MACOND. MOTOCICLETA/MOTONETA/CICLOM S/CAPACETE DE SE244 * I            00000000070301   000029347007572020010720200220320036727916880000002347785640000002734770332200322007574720803672791688800000000000  000   11    00070434142385170301PASSAGEIRO
2100000000476820200106207570PREF. DE: MA - CAXIAS                   CXA0077677201910221702PCA CANDIDO MENDES                                          PIJ5795MA306431-SAMTRENAULT/LOGAN DYNA 16 M                      PARTICULAR                    AUTOMOVEL       PRATA     00000000NAJLA CRISTINA SOUSA MAGALHAES              RUA ANICETO CRUZ NR. 716                - PONTE                                 65609900CAXIAS              MADEIXAR O CONDUTOR DE USAR O CINTO E SEGURANCA     167                00000000051851   000019523007572020010720200220320036727917650000001561885660000001756180332200822007574720803672791765400000000000  000   12    00050434142745851851PASSAGEIRO
2100000000476820200106207570PREF. DE: MA - CAXIAS                   CXA0077678201910221700AV OTAVIO PASSOS                                            OJK8063MA306431-SAMTHONDA/BIZ 125 EX                             PARTICULAR                    MOTONETA        BRANCA    00000000MARIA DAS GRACAS MACEDO SANTOS              RUA MARIA DO ROSARIO NR. 1068           - CAMPO DE BELEM                        65600000CAXIAS              MAESTAC. EM LOCAL/HORARIO PROIBIDO ESPECIFIC. P/SINA181*XVIII          00000000055500   000013016007572020010720200220320036727918420000001041285650000001804120332200722007574420503672791842100000000000  000   13    00040434143125055500PASSAGEIRO
2100000000476820200106207570PREF. DE: MA - CAXIAS                   CXA0077680201910221724AV OTAVIO PASSOS                                            NMT9632MA306431-SAMTFIAT/PALIO FIRE ECONOMY                      PARTICULAR                    AUTOMOVEL       PRETA     00000000ZILDA DOS SANTOS SOUSA                      AV VITORINE FREIRE N NR. 499            - TERRA DURA                            65500000CHAPADINHA          MATRANSIT. P/ CONTRAMAO EM VIAS C/ SENT. UNICO      186 * II           00000000057380   000029347007572020010720200220320036727919200000002347785640000002734770332200322007574420503672791920500000000000  000   14    00070434143619857380PASSAGEIRO
2100000000476820200106207570PREF. DE: MA - CAXIAS                   CXA0077674201910221609RUA 13 DE MAIO                                              NHD0744MA306431-SAMTHONDA/POP100                                 PARTICULAR                    MOTOCICLETA     PRETA     00000000MARIA DO SOCORRO DE ALMEIDA LIMA            AV.RODRIGO OTAVIO NR. N-807             - TRIZIDELA                             65609270CAXIAS              MACOND. MOTOC/MOTON./CICLOM TRANSPORTANDO/PASSAG.S/C244 * II           00000000070481   000029347007572020010720200220320036727920600000002347785680000002334770332200322007574420503672792060900000000000  000   15    00070434144017970481PASSAGEIRO
2100000000476820200106207570PREF. DE: MA - CAXIAS                   CXA0077672201910221529COMP. HOSPITALAR GENTIL FILHO                               OFO5704MA306431-SAMTCHEV/SPIN 1.8L AT LTZ                        PARTICULAR                    AUTOMOVEL       BEGE      00000000TERESINHA DE JESUS DA S LIMA                RUA DO COMERCIO NR. N 899               - CENTRO                                65393000BURITICUPU          MAESTACIONAR NAS VAGAS RESERV AS PESSOAS C/DEFIC.S/CART 181, XX        00000000076251   000029347007572020010720200220320036727921480000002347785610000002034770332200322007574420503672792148200000000000  000   16    00070434144529476251PASSAGEIRO
2100000000476820200106207570PREF. DE: MA - CAXIAS                   CXA0077673201910221541AV GETULIO VARGAS                                           OXW9945MA306431-SAMTHONDA/CG150 FAN ESDI                         PARTICULAR                    MOTOCICLETA     PRETA     00000000GREGORIO FELIPE DINIZ                       TV DO COTOVELO NR. 181                  - CANGALHEIRO                           65600000CAXIAS              MACOND. MOTOC/MOTON./CICLOM TRANSPORTANDO/PASSAG.S/C244 * II           00000000070481   000029347007572020010720200220320036727922250000002347785670000002434770332200322007574420503672792225800000000000  000   17    00070434145157070481PASSAGEIRO
2100000000476820200106207570PREF. DE: MA - CAXIAS                   CXA0077682201910230947AV GETULIO VARGAS                                           PSM8914MA306431-SAMTHONDA/POP 110I                               PARTICULAR                    MOTOCICLETA     PRETA     00000000JOSE GOMES DA SILVA                         RUA GUILHERME DE ABREU NR. 1885         - PONTE                                 65600010CAXIAS              MATRANSIT. P/ CONTRAMAO EM VIAS C/ SENT. UNICO      186 * II           00000000057380   000029347007572020010720200220320036727923020000002347785640000002734770332200322007574420503672792302500000000000  000   18    00070434146729857380PASSAGEIRO
2100000000476820200106207570PREF. DE: MA - CAXIAS                   CXA0077683201910231005AV GETULIO VARGAS                                           PSL9467MA306431-SAMTHONDA/CG 125 FAN KS                          PARTICULAR                    MOTOCICLETA     PRETA     00000000JOSE VALDIR SILVA                           RUA BAIXINHA NR. 209                    - BAIXINHA                              65600410CAXIAS              MATRANSIT. P/ CONTRAMAO EM VIAS C/ SENT. UNICO      186 * II           00000000057380   000029347007572020010720200220320036727924900000002347785670000002434770332200322007574420503672792490800000000000  000   19    00070434146925857380PASSAGEIRO
2100000000476820200106207570PREF. DE: MA - CAXIAS                   CXA0077684201910231005AV GETULIO VARGAS                                           PSL9467MA306431-SAMTHONDA/CG 125 FAN KS                          PARTICULAR                    MOTOCICLETA     PRETA     00000000JOSE VALDIR SILVA                           RUA BAIXINHA NR. 209                    - BAIXINHA                              65600410CAXIAS              MADESOBEDECER AS ORDENS DA AUTORIDADE DE TRANSITO/AG195                00000000058350   000019523007572020010720200220320036727925770000001561885640000001956180332200822007574720803672792577200000000000  000   20    00050434147163558350PASSAGEIRO
2100000000476820200106207570PREF. DE: MA - CAXIAS                   CXA0078112201910251450RUA DO FIO                                                  PTC3733MA123611-SAMTHONDA/POP 110I                               PARTICULAR                    MOTOCICLETA     VERMELHA  00000000GEANE DA COSTA BEZERRA NUNES                TV BELA VISTA II NR. 1018               - CANGALHEIRO                           65606317CAXIAS              MACOND. MOTOC/MOTON./CICLOM TRANSPORTANDO/PASSAG.S/C244 * II           00000000070481   000029347007572020010720200220320036727926540000002347785680000002334770332200322007574420503672792654900000000000  000   21    00070434149836370481PASSAGEIRO
2100000000476820200106207570PREF. DE: MA - CAXIAS                   CXA0078113201910251530PCA CANDIDO MENDES                                          OJB0035MA123611-SAMTYAMAHA/XTZ 125K                              PARTICULAR                    MOTOCICLETA     PRETA     00000000JULIETE MENDES ROSA                         RUA ITAPECURUZINHO NR. NR-45            - ITAPECURUZINHO                        65600000CAXIAS              MACOND. MOTOC/MOTON./CICLOM TRANSPORTANDO/PASSAG.S/C244 * II           00000000070481   000029347007572020010720200220320036727927310000002347785640000002734770332200322007574420503672792731500000000000  000   22    00070434150235270481PASSAGEIRO
2100000000476820200106207570PREF. DE: MA - CAXIAS                   CXA0078114201910251540AV ALEXANDRE COSTA                                          PSU1447MA123611-SAMTI/SHINERAY XY125-14A                         PARTICULAR                    MOTOCICLETA     VERMELHA  00000000MATHEUS MARINHO SERENO FRANCISCO            RUA SAO SEBASTIAO NR. 460               - CENTRO                                65760000PRESIDENTE DUTRA    MACOND. MOTOC/MOTON./CICLOM TRANSPORTANDO/PASSAG.S/C244 * II           00000000070481   000029347007572020010720200220320036727928190000002347785670000002434770332200322007574420503672792819800000000000  000   23    00070434150951970481PASSAGEIRO
2100000000476820200106207570PREF. DE: MA - CAXIAS                   CXA0078119201910251745AV LUIS SALES                                               PSD2940MA123611-SAMTHONDA/BIZ 125 ES                             PARTICULAR                    MOTONETA        PRATA     00000000MARIA DE NAZARE OLIVEIRA SANTOS             RUA JOSE SARNEY NR. 915                 - CAMPO DE BELEM                        65609200CAXIAS              MACOND. MOTOC/MOTON./CICLOM TRANSPORTANDO/PASSAG.S/C244 * II           00000000070481   000029347007572020010720200220320036727929060000002347785620000002934770332200322007574420503672792906300000000000  000   24    00070434151471770481PASSAGEIRO
2100000000476820200106207570PREF. DE: MA - CAXIAS                   CXA0078120201910251745AV LUIS SALES                                               PSA6031MA123611-SAMTHONDA/POP100                                 PARTICULAR                    MOTOCICLETA     BRANCA    00000000DIOLINO ALVES FERREIRA                      RUA JERUSALEM NR. 823                   - CAMPO DE BELEM                        65600000CAXIAS              MACOND. MOTOC/MOTON./CICLOM TRANSPORTANDO/PASSAG.S/C244 * II           00000000070481   000029347007572020010720200220320036727930370000002347785650000002634770332200322007574420503672793037600000000000  000   25    00070434152046670481PASSAGEIRO
2100000000476820200106207570PREF. DE: MA - CAXIAS                   CXA0078118201910251645AV NEREU BITTENCOURT                                        PSB7231MA123611-SAMTHONDA/BIZ 125 ES                             PARTICULAR                    MOTONETA        PRETA     00000000MARCELO WELMER DO NASCIMENTO                TRAV DA VOZ NR. 359                     - ANTENOR VIANA                         65603555CAXIAS              MACOND. MOTOCICLETA/MOTONETA/CICLOM S/CAPACETE DE SE244 * I            00000000070301   000029347007572020010720200220320036727931140000002347785690000002234770332200322007574720803672793114300000000000  000   26    00070434152734770301PASSAGEIRO
2100000000476820200106207570PREF. DE: MA - CAXIAS                   CXA0077128201910231120RUA 13 DE MAIO                                              OCS2537MA122061-SAMTFORD/F250 XLT F21                            PARTICULAR                    CAMINHAO        PRATA     00000000CICERO MOREIRA DA CRUZ                      TV ITAPECURUZINHO NR. SN                LOTE II QD C - ITAPECURUZINHO           65606896CAXIAS              MAESTACIONAR IMPEDINDO MOVIMENTACAO DE OUTRO VEICULO181 * X            00000000054790   000013016007572020010720200220320036727932010000001041285620000001104120332200722007574420503672793201800000000000  000   27    00040434154034354790CARGA
2100000000476820200106207570PREF. DE: MA - CAXIAS                   CXA0078155201910251700PCA CANDIDO MENDES                                          NHL7768MA122131-SAMTHONDA/CG 125 FAN                             PARTICULAR                    MOTOCICLETA     CINZA     00000000WELLINGTON BRITO FERREIRA                   RUA CECILIA MEIRELES NR. 1059           - CENTRO                                65975000ESTREITO            MACOND. MOTOC/MOTON./CICLOM TRANSPORTANDO/PASSAG.S/C244 * II           00000000070481   000029347007572020010720200220320036727933890000002347785600000002134770332200322007574420503672793389100000000000  000   28    00070434154610470481PASSAGEIRO
2100000000476820200106207570PREF. DE: MA - CAXIAS                   CXA0078156201910251740RUA BOM PASTOR                                              PSP9116MA122131-SAMTHONDA/POP 110I                               PARTICULAR                    MOTOCICLETA     VERMELHA  00000000SONARIA LIMA OLIVEIRA GALVAO                CAFETEIRA NR. NR210                     CASA - VILINHA                          65940000GRAJAU              MAAVANCAR SINAL VERMELHO DO SEMAFORO                208                00000000060501   000029347007572020010720200220320036727934660000002347785660000002534770332200322007574420503672793466700000000000  000   29    00070434155125660501PASSAGEIRO
2100000000476820200106207570PREF. DE: MA - CAXIAS                   CXA0078157201910251745AV LUIS SALES                                               NNC1526MA122131-SAMTHONDA/CG 125 FAN ES                          PARTICULAR                    MOTOCICLETA     PRETA     00000000ANTONIO CARVALHO SILVA                      II TV ESPIRITO SANTO NR. N-977          - CANGALHEIRO                           65606310CAXIAS              MACOND. MOTOC/MOTON./CICLOM TRANSPORTANDO/PASSAG.S/C244 * II           00000000070481   000029347007572020010720200220320036727935430000002347785620000002934770332200322007574420503672793543300000000000  000   30    00070434155382870481PASSAGEIRO
2100000000476820200106207570PREF. DE: MA - CAXIAS                   CXA0078158201910251745AV LUIZ SALES                                               PSG2539MA122131-SAMTHONDA/POP100                                 PARTICULAR                    MOTOCICLETA     VERMELHA  00000000CARLOS GUIMARAES                            PV CARAIBAS NR. SN                      - CARAIBAS                              65683000LAGOA DO MATO       MACOND. MOTOC/MOTON./CICLOM TRANSPORTANDO/PASSAG.S/C244 * II           00000000070481   000029347007572020010720200220320036727936200000002347785680000002334770332200322007574420503672793620900000000000  000   31    00070434155682770481PASSAGEIRO
2100000000476820200106207570PREF. DE: MA - CAXIAS                   CXA0078116201910251625AV RODRIGO OTAVIO                                           PSB7231MA123611-SAMTHONDA/BIZ 125 ES                             PARTICULAR                    MOTONETA        PRETA     00000000MARCELO WELMER DO NASCIMENTO                TRAV DA VOZ NR. 359                     - ANTENOR VIANA                         65603555CAXIAS              MACOND. MOTOC/MOTON./CICLOM TRANSPORTANDO/PASSAG.S/C244 * II           00000000070481   000029347007572020010720200220320036727937080000002347785610000002034770332200322007574420503672793708200000000000  000   32    00070434156166970481PASSAGEIRO
2100000000476820200106207570PREF. DE: MA - CAXIAS                   CXA0078117201910251430RUA DA ALEGRIA                                              OIV3665MA123611-SAMTYAMAHA/T115 CRYPTON ED                       PARTICULAR                    MOTONETA        PRATA     00000000JOSE ALVES COSTA JUNIOR                     AV PEDREIRA QD B-14 NR. 17              - RES EUG COUTINH                       65600000CAXIAS              MACOND. MOTOC/MOTON./CICLOM TRANSPORTANDO/PASSAG.S/C244 * II           00000000070481   000029347007572020010720200220320036727938950000002347785660000002534770332200322007574420503672793895700000000000  000   33    00070434156758670481PASSAGEIRO
2100000000476820200106207570PREF. DE: MA - CAXIAS                   CXA0078125201910251455RUA MENINO DEUS                                             NXL8247MA123611-SAMTHONDA/POP100                                 PARTICULAR                    MOTOCICLETA     PRETA     00000000MARIA RITA PINTO ROCHA                      II TRAV DAS FLORES NR. 1177             - SERIEMA                               65600000CAXIAS              MACOND. MOTOC/MOTON./CICLOM TRANSPORTANDO/PASSAG.S/C244 * II           00000000070481   000029347007572020010720200220320036727939720000002347785630000002834770332200322007574420503672793972400000000000  000   34    00070434157217270481PASSAGEIRO
2100000000476820200106207570PREF. DE: MA - CAXIAS                   CXA0078124201910251435RUA MENINO DEUS                                             NXC2829MA123611-SAMTHONDA/BIZ 125 ES                             PARTICULAR                    MOTONETA        PRETA     00000000ROSANA OLIVEIRA COELHO                      RUA 05 NR. 428                          LT 02 - BAIXINHA                        65608500CAXIAS              MACOND. MOTOCICLETA/MOTONETA/CICLOM S/CAPACETE DE SE244 * I            00000000070301   000029347007572020010720200220320036727940030000002347785630000002834770332200322007574720803672794003700000000000  000   35    00070434157498170301PASSAGEIRO
2100000000476820200106207570PREF. DE: MA - CAXIAS                   CXA0078128201910291510RUA MENINO DEUS                                             OXU8496MA123611-SAMTHONDA/BIZ 125 EX                             PARTICULAR                    MOTONETA        BRANCA    00000000ANTONIO CARLOS DE OLIVEIRA SOUSA            RUA LUIZ ROCHA NR. 480                  - NOVA CAXIAS                           65600000CAXIAS              MADIR.VEIC. UTILIZANDO-SE DE TELEFONE CELULAR       252 * VI           00000000073662   000013016007572020010720200220320036727941900000001041285630000001004120332200722007574720803672794190200000000000  000   36    00040434157855373662PASSAGEIRO
2100000000476820200106207570PREF. DE: MA - CAXIAS                   CXA0078129201910251530RUA CORONEL LIBANIO LOBO                                    OIV9869MA123611-SAMTHONDA/BIZ 100 ES                             PARTICULAR                    MOTONETA        ROSA      00000000FLORISE SILVA DE SOUSA                      RUA 15 DE DEZEMBRO NR. 1064             - VILA ALECRIM                          65600000CAXIAS              MACOND. MOTOC/MOTON./CICLOM TRANSPORTANDO/PASSAG.S/C244 * II           00000000070481   000029347007572020010720200220320036727942780000002347785640000002734770332200322007574420503672794278500000000000  000   37    00070434158530470481PASSAGEIRO
2100000000476820200106207570PREF. DE: MA - CAXIAS                   CXA0078130201910291700PCA CESARIO LIMA                                            PTM7672MA123611-SAMTHONDA/POP 110I                               PARTICULAR                    MOTOCICLETA     VERMELHA  00000000JOSE ANTONIO CARNEIRO DE LORENA             RUA SAO JOSE NR. 2438                   - VILA SAO JOSE                         65606790CAXIAS              MACOND. MOTOC/MOTON./CICLOM TRANSPORTANDO/PASSAG.S/C244 * II           00000000070481   000029347007572020010720200220320036727943550000002347785600000002134770332200322007574420503672794355100000000000  000   38    00070434159282370481PASSAGEIRO
2100000000476820200106207570PREF. DE: MA - CAXIAS                   CXA0078165201910291645PCA CANDIDO MENDES                                          NHP3083MA122131-SAMTHONDA/NXR150 BROS ES                         PARTICULAR                    MOTOCICLETA     PRETA     00000000FELIPE COSTA SANTOS                         R ITAPECURUZINHO NR. 944                - ITAPECURUZINHO                        65606896CAXIAS              MACOND. MOTOC/MOTON./CICLOM TRANSPORTANDO/PASSAG.S/C244 * II           00000000070481   000029347007572020010720200220320036727944320000002347785670000002434770332200322007574420503672794432800000000000  000   39    00070434159515670481PASSAGEIRO
2100000000476820200106207570PREF. DE: MA - CAXIAS                   CXA0078168201910291650PCA CANDIDO MENDES                                          OXW3464MA122131-SAMTHONDA/POP100                                 PARTICULAR                    MOTOCICLETA     PRETA     00000000JACQUELINE OLIVEIRA CASTRO                  RUA SAO BENEDITO NR. N 903              - NOVO                                  65706000O.DAGUA DAS CUNHAS  MACOND. MOTOC/MOTON./CICLOM TRANSPORTANDO/PASSAG.S/C244 * II           00000000070481   000029347007572020010720200220320036727945100000002347785600000002134770332200322007574420503672794510100000000000  000   40    00070434160175070481PASSAGEIRO
2100000000476820200106207570PREF. DE: MA - CAXIAS                   CXA0078166201910291645PCA CANDIDO MENDES                                          PTA1173MA122131-SAMTHONDA/POP 110I                               PARTICULAR                    MOTOCICLETA     PRETA     00000000FRANCISCO GOMES RODRIGUES                   RUA ANTONIO COELHO N NR. 604            - CENTRO                                65715000LAGO DA PEDRA       MACOND. MOTOC/MOTON./CICLOM TRANSPORTANDO/PASSAG.S/C244 * II           00000000070481   000029347007572020010720200220320036727946070000002347785640000002734770332200322007574420503672794607500000000000  000   41    00070434160367170481PASSAGEIRO
2100000000476820200106207570PREF. DE: MA - CAXIAS                   CXA0078202201910290755AV GETULIO VARGAS                                           HPV8646MA305941-SAMTHONDA/C100 BIZ                               PARTICULAR                    MOTONETA        AZUL      00000000LUIZ GONZAGA RODRIGUES                      RUA N SRA CONCEICAO_QD14 NR. N277       - MULTIRAO                              65600000CAXIAS              MACOND. MOTOCICLETA/MOTONETA/CICLOM S/CAPACETE DE SE244 * I            00000000070301   000029347007572020010720200220320036727947840000002347785680000002334770332200322007574720803672794784200000000000  000   42    00070434160696470301PASSAGEIRO
2100000000476820200106207570PREF. DE: MA - CAXIAS                   CXA0078203201910290801AV NEREU BITTENCOURT                                        PSG6048MA305941-SAMTHONDA/POP100                                 PARTICULAR                    MOTOCICLETA     PRETA     00000000DEHEURISSON LIMA SILVA                      RUA ANICETO CRUZ NR. 953                - CAMPO DE BELEM                        65600970CAXIAS              MAAVANCAR SINAL VERMELHO DO SEMAFORO                208                00000000060501   000029347007572020010720200220320036727948610000002347785670000002434770332200322007574420503672794861800000000000  000   43    00070434160788060501PASSAGEIRO
2100000000476820200106207570PREF. DE: MA - CAXIAS                   CXA0078204201910290836RUA ANISIU VIEIRA CHAVES                                    OXX3900MA305941-SAMTHONDA/NXR150 BROS ES                         PARTICULAR                    MOTOCICLETA     PRETA     00000000ALZENIRA DA SILVA ROSA                      RUA BARREIRINHA NR. 949                 - VL LOBAO                              65600000CAXIAS              MACOND. MOTOCICLETA/MOTONETA/CICLOM S/CAPACETE DE SE244 * I            00000000070301   000029347007572020010720200220320036727949490000002347785670000002434770332200322007574720803672794949100000000000  000   44    00070434160834770301PASSAGEIRO
2100000000476820200106207570PREF. DE: MA - CAXIAS                   CXA0077960201910291720PCA CANDIDO MENDES                                          PSK8270MA78162-SAMT HONDA/CG150 START                            PARTICULAR                    MOTOCICLETA     AMARELA   00000000LUIZ ANTONIO DA CONCEICAO ALVES             RUA GILBERTO BARBOSA NR. 764            - VILA ARIAS                            65603240CAXIAS              MACOND. MOTOCICLETA/MOTONETA/CICLOM S/CAPACETE DE SE244 * I            00000000070301   000029347007572020010720200220320036727950800000002347785600000002134770332200322007574720803672795080400000000000  000   45    00070434160872070301PASSAGEIRO
3000044000000000044
