1*NATI207570201912130047202019121300000000000000
2000000000472020191213207570PREF. DE: MA - CAXIAS                   CXA0078781201911230928RUA RIO DE JANEIRO                                          NWU4951MA305941-SAMTHONDA/CG 125 FAN KS                          PARTICULAR                    MOTOCICLETA     PRETA     00000000ANTONIO FRANCISCO PEREIRA NEVES             QD A LOTE 0004 NR. 0                    - COHAB                                 65320000VITORINO FREIRE     MACOND. MOTOCICLETA/MOTONETA/CICLOM S/CAPACETE DE SE244 * I            00000000070301   0000293470075720191214202001270000000000000000000000000                                                00000000000  000   1     00070439858269070301PASSAGEIRO
2000000000472020191213207570PREF. DE: MA - CAXIAS                   CXA0078786201911231145AV PIRAJA                                                   PTF1951MA305941-SAMTHONDA/BIZ 125                                PARTICULAR                    MOTONETA        VERMELHA  00000000JOAO BOSCO RODRIGUES DOS SANTOS             RUA SAO JOSE NR. 2185                   - TREZIDELA                             65607440CAXIAS              MACOND. MOTOC/MOTON./CICLOM TRANSPORTANDO/PASSAG.S/C244 * II           00000000070481   0000293470075720191214202001270000000000000000000000000                                                00000000000  000   2     00070439858410270481PASSAGEIRO
2000000000472020191213207570PREF. DE: MA - CAXIAS                   CXA0078785201911231136AV GENERAL SAMPAIO                                          PSY6006MA305941-SAMTM.BENZ/OF 1519 R.ORE                         OFICIAL                       ONIBUS          AMARELA   00000000MUNICIPIO DE COELHO NETO                    TV 13 DE MAIO NR. SN                    - CENTRO                                65620000COELHO NETO         MATRANSIT. P/ CONTRAMAO EM VIAS C/ SENT. UNICO      186 * II           00000000057380   0000293470075720191214202001270000000000000000000000000                                                00000000000  000   3     00070439858508757380PASSAGEIRO
2000000000472020191213207570PREF. DE: MA - CAXIAS                   CXA0078780201911230927RUA RIO DE JANEIRO                                          PSX2944MA305941-SAMTHONDA/POP 110I                               PARTICULAR                    MOTOCICLETA     PRETA     00000000JOSE MAURO DOS SANTOS N JUNIOR              RUA LUIZ ROCHA NR. 2151                 - NOVA CAXIAS                           65604420CAXIAS              MAESTAC. EM LOCAL/HORARIO.DE ESTAC. E PARADA PROIBID181 * XIX          00000000055680   0000195230075720191214202001270000000000000000000000000                                                00000000000  000   4     00050439858631855680PASSAGEIRO
2000000000472020191213207570PREF. DE: MA - CAXIAS                   CXA0078779201911230924RUA RIO DE JANEIRO                                          OXZ3215MA305941-SAMTHONDA/CG 125 FAN KS                          PARTICULAR                    MOTOCICLETA     PRETA     00000000JOHNNATHAN SA FERREIRA                      RUA 07 DE SETEMBRO NR. 831              - TRIZIDELA                             65600000CAXIAS              MAESTAC. EM LOCAL/HORARIO.DE ESTAC. E PARADA PROIBID181 * XIX          00000000055680   0000195230075720191214202001270000000000000000000000000                                                00000000000  000   5     00050439858747055680PASSAGEIRO
2000000000472020191213207570PREF. DE: MA - CAXIAS                   CXA0078682201911270920PCA CANDIDO MENDES                                          OXT0495MA122161-SAMTFORD/FIESTA HA 1.6L SE A                     PARTICULAR                    AUTOMOVEL       PRATA     00000000FARMACIA IRMAOS ALMEIDA LTDA-ME             R DAS LAGES NR. 852                     - CANGALHEIRO                           65606550CAXIAS              MAESTACIONAR EM DESACORDO C/REGULAMENTACAO-PONTO OU 181 * XVII         00000000055413   0000195230075720191214202001270000000000000000000000000                                                00000000000  000   6     00050439858923655413PASSAGEIRO
2000000000472020191213207570PREF. DE: MA - CAXIAS                   CXA0078670201911271130RUA MENINO DEUS                                             PSE2367MA122161-SAMTVW/24.280 CRM 6X2                            ALUGUEL                       CAMINHAO        VERMELHA  00000000JOSE CARLOS C V E CIA LTDA ME               RUA FREI RENATO NR. NR 33               - CAMPOS DANTAS                         65760000PRESIDENTE DUTRA    MAESTACIONAR NA PISTA DE ROLAM. DAS VIAS/TRANSITO RA181 * V            00000000054283   0000293470075720191214202001270000000000000000000000000                                                00000000000  000   7     00070439861047254283CARGA
2000000000472020191213207570PREF. DE: MA - CAXIAS                   CXA0078728201911251740AV INDEPENDENCIA                                            PSL6959MA123611-SAMTHONDA/CB 250F TWISTER                        PARTICULAR                    MOTOCICLETA     BRANCA    00000000EDUARDA CRISNY COSTA DA SILVA               AV RODOVIARIA NR. 202                   - VOLTA REDONDA                         65600010CAXIAS              MACOND. MOTOC/MOTON./CICLOM TRANSPORTANDO/PASSAG.S/C244 * II           00000000070481   0000293470075720191214202001270000000000000000000000000                                                00000000000  000   8     00070439863195070481PASSAGEIRO
2000000000472020191213207570PREF. DE: MA - CAXIAS                   CXA0078730201911251800AV DA INDEPENDENCIA                                         PSL7070MA123611-SAMTHONDA/NXR125 BROS ES                         PARTICULAR                    MOTOCICLETA     PRETA     00000000CHARLEOM MARTINS DUTRA                      POVOADO AFOGA NR. SN                    - ZONA RURAL                            65490000ANAJATUBA           MAAVANCAR SINAL VERMELHO DO SEMAFORO                208                00000000060501   0000293470075720191214202001270000000000000000000000000                                                00000000000  000   9     00070439863295660501PASSAGEIRO
2000000000472020191213207570PREF. DE: MA - CAXIAS                   CXA0078731201911251805AV INDEPENDENCIA                                            PSV3226MA123611-SAMTHONDA/NXR 160 BROS                           PARTICULAR                    MOTOCICLETA     BRANCA    00000000BRUNA CAROLINE DA SILVA LIMA                RUA SAO FRANCISCO NR. 1659              - SAO FRANCISCO                         65600500CAXIAS              MACOND. MOTOCICLETA/MOTONETA/CICLOM S/CAPACETE DE SE244 * I            00000000070301   0000293470075720191214202001270000000000000000000000000                                                00000000000  000   10    00070439863478970301PASSAGEIRO
2000000000472020191213207570PREF. DE: MA - CAXIAS                   CXA0078729201911251755AV INDEPENDENCIA                                            PSW7754MA123611-SAMTHONDA/POP 110I                               PARTICULAR                    MOTOCICLETA     BRANCA    00000000ANTONIO FRANCISCO DA CONCEICAO              RUA AIRTON SENNA NR. S/N                - MUTIRAO                               65620000COELHO NETO         MACOND. MOTOC/MOTON./CICLOM TRANSPORTANDO/PASSAG.S/C244 * II           00000000070481   0000293470075720191214202001270000000000000000000000000                                                00000000000  000   11    00070439865633270481PASSAGEIRO
2000000000472020191213207570PREF. DE: MA - CAXIAS                   CXA0077988201911251900AV NEREU BITTENCOURT                                        PTG2068MA78162-SAMT HONDA/NXR160 BROS ESDD                       PARTICULAR                    MOTOCICLETA     VERMELHA  00000000ANTONIO BASTOS NETO                         RUA CANDIDO ALVES NR. 463               - TREZIDELA                             65607430CAXIAS              MAAVANCAR SINAL VERMELHO DO SEMAFORO                208                00000000060501   0000293470075720191214202001270000000000000000000000000                                                00000000000  000   12    00070439866056960501PASSAGEIRO
2000000000472020191213207570PREF. DE: MA - CAXIAS                   CXA0078795201911251731RUA DA INDEPENDENCIA                                        PSP9276MA305941-SAMTHONDA/POP 110I                               PARTICULAR                    MOTOCICLETA     VERMELHA  00000000RAIMUNDO PEREIRA DE SOUSA                   RUA CRISTIANO BARBOSA NR. 2116          - TESO DURO                             65603660CAXIAS              MAAVANCAR SINAL VERMELHO DO SEMAFORO                208                00000000060501   0000293470075720191214202001270000000000000000000000000                                                00000000000  000   13    00070439866298760501PASSAGEIRO
2000000000472020191213207570PREF. DE: MA - CAXIAS                   CXA0078720201911251535AV DA INDEPENDENCIA                                         OJO0212MA123611-SAMTHONDA/BIZ 125 ES                             PARTICULAR                    MOTONETA        VERMELHA  00000000MARIA CREUZA CARNEIRO                       R MARANHAO NR-680 NR.                   - ANTENOR VIANA                         65600000CAXIAS              MACOND. MOTOC/MOTON./CICLOM TRANSPORTANDO/PASSAG.S/C244 * II           00000000070481   0000293470075720191214202001270000000000000000000000000                                                00000000000  000   14    00070439866518870481PASSAGEIRO
2000000000472020191213207570PREF. DE: MA - CAXIAS                   CXA0078647201911251052RUA SENADOR GUSTAVO COLACO                                  OJG3970MA306431-SAMTHONDA/CG 150 FAN ESI                         PARTICULAR                    MOTOCICLETA     PRETA     00000000TASSIA MARTINS PEREIRA                      RUA 06 NR. N03                          F 02 - RES VL PARAISO                   65600010CAXIAS              MACOND. MOTOC/MOTON./CICLOM TRANSPORTANDO/PASSAG.S/C244 * II           00000000070481   0000293470075720191214202001270000000000000000000000000                                                00000000000  000   15    00070439870190770481PASSAGEIRO
2000000000472020191213207570PREF. DE: MA - CAXIAS                   CXA0078646201911251045AV GETULIO VARGAS                                           PSO0602MA306431-SAMTHONDA/CG 160 FAN ESDI                        PARTICULAR                    MOTOCICLETA     PRETA     00000000DAYANE CRISTINA DE S OLIVEIRA               RUA SAO DOMINGOS NR. 65                 - PQ SAO JOSE                           65905370IMPERATRIZ          MACOND. MOTOC/MOTON./CICLOM TRANSPORTANDO/PASSAG.S/C244 * II           00000000070481   0000293470075720191214202001270000000000000000000000000                                                00000000000  000   16    00070439870290370481PASSAGEIRO
2000000000472020191213207570PREF. DE: MA - CAXIAS                   CXA0078648201911251054PCA SENADOR GUSTAVO COLACO                                  PTM0823MA306431-SAMTHONDA/CG 160 TITAN                           PARTICULAR                    MOTOCICLETA     VERMELHA  00000000MOISES OLIVEIRA ALVES                       R 12 VILAGE D COHATRAC V NR. N 11       - COHATRAC V                            65110000SAO JOSE DE RIBAMAR MACOND. MOTOC/MOTON./CICLOM TRANSPORTANDO/PASSAG.S/C244 * II           00000000070481   0000293470075720191214202001270000000000000000000000000                                                00000000000  000   17    00070439870747670481PASSAGEIRO
2000000000472020191213207570PREF. DE: MA - CAXIAS                   CXA0078794201911251750RUA DA INDEPENDENCIA                                        PSS1544MA305941-SAMTHONDA/CG 160 FAN ESDI                        PARTICULAR                    MOTOCICLETA     VERMELHA  00000000JOSE AUGUSTO N DE CAMPOS                    PV PORCOS NR. S/N                       - ZONA RURAL                            65615000SAO JOAO DO SOTER   MAAVANCAR SINAL VERMELHO DO SEMAFORO                208                00000000060501   0000293470075720191214202001270000000000000000000000000                                                00000000000  000   18    00070439871069860501PASSAGEIRO
2000000000472020191213207570PREF. DE: MA - CAXIAS                   CXA0078792201911251140AV ALEXANDRE COSTA                                          OXY6750MA305941-SAMTHONDA/CG150 FAN ESDI                         PARTICULAR                    MOTOCICLETA     PRATA     00000000MARCOS AUGUSTO DE SOUSA CARVALHO            RUA 15 DE DEZEMBRO NR. 1157             - VILA ALECRIM                          65600000CAXIAS              MADESOBEDECER AS ORDENS DA AUTORIDADE DE TRANSITO/AG195                00000000058350   0000195230075720191214202001270000000000000000000000000                                                00000000000  000   19    00050439871306958350PASSAGEIRO
2000000000472020191213207570PREF. DE: MA - CAXIAS                   CXA0078791201911251120AV ALEXANDRE COSTA                                          OJQ9159MA305941-SAMTTRAXX/JL50Q-9                                PARTICULAR                    CICLOMOTOR      VERMELHA  00000000DEUSANIRA OLIVEIRA DOS S SILVA              R ESPERANTINOPOLIS NR. 541              - VILA LOBAO                            65600001CAXIAS              MACOND. MOTOCICLETA/MOTONETA/CICLOM S/CAPACETE DE SE244 * I            00000000070301   0000293470075720191214202001270000000000000000000000000                                                00000000000  000   20    00070439871534770301PASSAGEIRO
2000000000472020191213207570PREF. DE: MA - CAXIAS                   CXA0078459201911251145AV ALEXANDRE COSTA                                          NXM4347MA306051-SAMTHONDA/BIZ 125 ES                             PARTICULAR                    MOTONETA        BEGE      00000000ALEXANDRA BANDEIRA DE SOUSA                 RUA ARARAS QD 01 NR. 46                 - SABIA                                 65600000CAXIAS              MACOND. MOTOCICLETA/MOTONETA/CICLOM S/CAPACETE DE SE244 * I            00000000070301   0000293470075720191214202001270000000000000000000000000                                                00000000000  000   21    00070439871868070301PASSAGEIRO
2000000000472020191213207570PREF. DE: MA - CAXIAS                   CXA0078719201911251535AV DA INDEPENDENCIA                                         NXO0942MA123611-SAMTHONDA/POP100                                 PARTICULAR                    MOTOCICLETA     PRETA     00000000ANTONIO LUIZ A DE ALBUQUERQUER              RUA CAJUEIRO NR. 574                    - SERIEMA                               65600000CAXIAS              MACOND. MOTOCICLETA/MOTONETA/CICLOM S/CAPACETE DE SE244 * I            00000000070301   0000293470075720191214202001270000000000000000000000000                                                00000000000  000   22    00070439872250570301PASSAGEIRO
2000000000472020191213207570PREF. DE: MA - CAXIAS                   CXA0078726201911251715AV DA INDEPENDENCIA                                         KJF0774MA123611-SAMTM.BENZ/L 1113                                ALUGUEL                       CAMINHAO        AZUL      00000000LUIS DE GONZAGA NUNES MELO                  RUA CRISIO CRUZ NR. N-364               - CENTRO                                65600000CAXIAS              MAAVANCAR SINAL VERMELHO DO SEMAFORO                208                00000000060501   0000293470075720191214202001270000000000000000000000000                                                00000000000  000   23    00070439872582260501CARGA
2000000000472020191213207570PREF. DE: MA - CAXIAS                   CXA0078725201911251705AV DA INDEPENDENCIA                                         PTJ1908MA123611-SAMTHONDA/BIZ 125                                PARTICULAR                    MOTONETA        BRANCA    00000000ADRIANA ROCHA SILVA                         RUA DO FIO NR. 55                       - ITAPECURUZINHO                        65606881CAXIAS              MACOND. MOTOC/MOTON./CICLOM TRANSPORTANDO/PASSAG.S/C244 * II           00000000070481   0000293470075720191214202001270000000000000000000000000                                                00000000000  000   24    00070439872967470481PASSAGEIRO
2000000000472020191213207570PREF. DE: MA - CAXIAS                   CXA0078724201911251655AV DA INDEPENDENCIA                                         NHK2912MA123611-SAMTHONDA/POP100                                 PARTICULAR                    MOTOCICLETA     PRETA     00000000VINICIUS MARCONE LIMA SOUZA                 R MONTEVIDEU QD 12 NR.                  - VILA ARIAS                            65600000CAXIAS              MACOND. MOTOC/MOTON./CICLOM TRANSPORTANDO/PASSAG.S/C244 * II           00000000070481   0000293470075720191214202001270000000000000000000000000                                                00000000000  000   25    00070439873322170481PASSAGEIRO
2000000000472020191213207570PREF. DE: MA - CAXIAS                   CXA0078723201911251640AV DA INDEPENDENCIA                                         PSR8523MA123611-SAMTHONDA/POP 110I                               PARTICULAR                    MOTOCICLETA     VERMELHA  00000000ALDERLANO DA COSTA MOURA                    RUA PRIMEIRO DE AGOSTO NR. 840          - PONTE                                 65609340CAXIAS              MACOND. MOTOC/MOTON./CICLOM TRANSPORTANDO/PASSAG.S/C244 * II           00000000070481   0000293470075720191214202001270000000000000000000000000                                                00000000000  000   26    00070439873660370481PASSAGEIRO
2000000000472020191213207570PREF. DE: MA - CAXIAS                   CXA0078727201911251740AV DA INDEPENDENCIA                                         NXA7701MA123611-SAMTHONDA/POP100                                 PARTICULAR                    MOTOCICLETA     PRETA     00000000TERESINHA ALVES FEITOSA                     RUA SEVERO MAGALHAES NR. 203            - OLHO DAGUA                            65600000CAXIAS              MACOND. MOTOC/MOTON./CICLOM TRANSPORTANDO/PASSAG.S/C244 * II           00000000070481   0000293470075720191214202001270000000000000000000000000                                                00000000000  000   27    00070439874102070481PASSAGEIRO
2000000000472020191213207570PREF. DE: MA - CAXIAS                   CXA0078732201911251905PCA DOM LUIS AMARELIN                                       LWH9501MA123611-SAMTFORD/ECOSPORT FSL1.6FLEX                     PARTICULAR                    CAMIONETA       AZUL      00000000EDIVAL DA SILVA FILHO                       AV DAS ANDORINHAS NR. 04                - SABIA                                 65600000CAXIAS              MATRANSIT. P/ CONTRAMAO EM VIAS C/ SENT. UNICO      186 * II           00000000057380   0000293470075720191214202001270000000000000000000000000                                                00000000000  000   28    00070439874407057380MISTO
2000000000472020191213207570PREF. DE: MA - CAXIAS                   CXA0078715201911251505AV DA INDEPENDENCIA                                         OJD4934MA123611-SAMTHONDA/BIZ 125 ES                             PARTICULAR                    MOTONETA        VERMELHA  00000000ZOSIMA MARIA DOS REIS NASCIMENTO            RUA FLORES NR. NR848                    - SIRIEMA                               65600000CAXIAS              MACOND. MOTOC/MOTON./CICLOM TRANSPORTANDO/PASSAG.S/C244 * II           00000000070481   0000293470075720191214202001270000000000000000000000000                                                00000000000  000   29    00070439874593970481PASSAGEIRO
2000000000472020191213207570PREF. DE: MA - CAXIAS                   CXA0078714201911251445AV DA INDEPENDENCIA                                         NHM2064MA123611-SAMTHONDA/POP100                                 PARTICULAR                    MOTOCICLETA     PRETA     00000000MARIA DOS REMEDIOS P. DA SILVA              RUA FAVEIRA NR-539 NR.                  - REFINARIA                             65600000CAXIAS              MACOND. MOTOC/MOTON./CICLOM TRANSPORTANDO/PASSAG.S/C244 * II           00000000070481   0000293470075720191214202001270000000000000000000000000                                                00000000000  000   30    00070439874777070481PASSAGEIRO
2000000000472020191213207570PREF. DE: MA - CAXIAS                   CXA0078713201911251445AV DA INDEPENDENCIA                                         PSE3272MA123611-SAMTHONDA/BIZ 100 ES                             PARTICULAR                    MOTONETA        BRANCA    00000000MARIA RAIMUNDA RODRIGUES ROCHA              RUA ANGELIM NR. 346                     - CANGALHEIRO                           65606210CAXIAS              MACOND. MOTOC/MOTON./CICLOM TRANSPORTANDO/PASSAG.S/C244 * II           00000000070481   0000293470075720191214202001270000000000000000000000000                                                00000000000  000   31    00070439877422070481PASSAGEIRO
2000000000472020191213207570PREF. DE: MA - CAXIAS                   CXA0078790201911250950PCA PANTHEON                                                NXN2509MA305941-SAMTHONDA/NXR150 BROS ESD                        PARTICULAR                    MOTOCICLETA     VERMELHA  00000000RAIMUNDO B DE MORAIS - COMERCIO             AV JOSE OLAVO SAMPAIO NR. 460           - CENTRO                                65760000PRESIDENTE DUTRA    MACOND. MOTOCICLETA/MOTONETA/CICLOM S/CAPACETE DE SE244 * I            00000000070301   0000293470075720191214202001270000000000000000000000000                                                00000000000  000   32    00070439879462070301PASSAGEIRO
3000032000000000032
