1*NIPI207570201912230047402019122300000000000000
2100000000474020191223207570PREF. DE: MA - CAXIAS                   CXA0077820201910080942PCA DUQUE DE CAXIAS                                         PSU1293MA306431-SAMTHONDA/POP 110I                               PARTICULAR                    MOTOCICLETA     PRETA     00000000KEURY CAROLAINE PEREIRA DA SILVA            RUA DO TAMARINEIRO NR. 413              - TAMARINEIRO                           65608230CAXIAS              MAESTAC. EM DESACORDO C/ A REGULAMENTACAO ESPECIFICA181 * XVII         00000000055411   000019523007572019122420200206319036715765700000001561885670000001656180332060622007574419703671576570100000000000  000   2     00050431473852955411PASSAGEIRO
2100000000474020191223207570PREF. DE: MA - CAXIAS                   CXA0077589201910091535PCA CANDIDO MENDES                                          NNA3740MA123611-SAMTJTA/SUZUKI EN125 YES                         PARTICULAR                    MOTOCICLETA     VERMELHA  00000000JUCIVALDO DA CRUZ NASCIMENTO                RUA CAMPO NR. 1239                      - VILA ALECRIM                          65600000CAXIAS              MACOND. MOTOC/MOTON./CICLOM TRANSPORTANDO/PASSAG.S/C244 * II           00000000070481   000029347007572019122420200206319036715766580000002347785640000002734770332060122007574419703671576658400000000000  000   3     00070431474956370481PASSAGEIRO
2100000000474020191223207570PREF. DE: MA - CAXIAS                   CXA0077591201910091630PCA CANDIDO MENDES                                          HPU8091MA123611-SAMTHONDA/CG 150 TITAN KS                        PARTICULAR                    MOTOCICLETA     PRETA     00000000GEOVANI FERREIRA MOTA                       TV MARIA DO ROSARIO NR. N.589           - CAMPO DE BELEM                        65600000CAXIAS              MACOND. MOTOC/MOTON./CICLOM TRANSPORTANDO/PASSAG.S/C244 * II           00000000070481   000029347007572019122420200206319036715767350000002347785600000002134770332060122007574419703671576735000000000000  000   4     00070431475081270481PASSAGEIRO
2100000000474020191223207570PREF. DE: MA - CAXIAS                   CXA0077588201910091500PCA CESARIO LIMA                                            PSR4015MA123611-SAMTHONDA/POP 110I                               PARTICULAR                    MOTOCICLETA     PRETA     00000000FRANCISCO PEREIRA DE ASSUNCAO               AV RIO BRANCO NR. 1470                  - VOLTA REDONDA                         65606490CAXIAS              MACOND. MOTOCICLETA/MOTONETA/CICLOM S/CAPACETE DE SE244 * I            00000000070301   000029347007572019122420200206319036715768120000002347785640000002734770332060122007574719003671576812700000000000  000   5     00070431475356070301PASSAGEIRO
2100000000474020191223207570PREF. DE: MA - CAXIAS                   CXA0075416201910091630RUA VITOR GONCALVES NETO                                    PSR7073MA122221-SAMTHONDA/POP 110I                               PARTICULAR                    MOTOCICLETA     PRETA     00000000AGNALDO JOSE DIAS                           PV CENTRO DO MARIO NR. SN               - CENTRO DO MARIO                       65600010CAXIAS              MACOND. MOTOC/MOTON./CICLOM TRANSPORTANDO/PASSAG.S/C244 * II           00000000070481   000029347007572019122420200206319036715769000000002347785600000002134770332060122007574419703671576900000000000000  000   6     00070431475502470481PASSAGEIRO
2100000000474020191223207570PREF. DE: MA - CAXIAS                   CXA0077793201910091110RUA COELHO NETO                                             PTF2563MA306051-SAMTI/CHEV TRACKER PREMIER                       PARTICULAR                    CAMIONETA       PRATA     00000000MARIA DO ROSARIO PEREIRA ROSA               AV SANTOS DUMONT NR. 316                - CENTRO                                65602310CAXIAS              MAESTACIONAR AO LADO DE OUTRO VEICULO EM FILA DUPLA 181 * XI           00000000054870   000019523007572019122420200206319036715770300000001561885610000001256180332060622007574419703671577030500000000000  000   7     00050431476394954870MISTO
2100000000474020191223207570PREF. DE: MA - CAXIAS                   CXA0077794201910091121AV OTAVIO PASSOS                                            NWV1550MA306051-SAMTYAMAHA/FACTOR YBR125 K                       PARTICULAR                    MOTOCICLETA     PRETA     00000000MARIA RAQUEL DA CONCEICAO MELO              RUA ALUIZIO LOBO NR. 2993               - SAO FRANCISCO                         65600000CAXIAS              MAESTAC. EM DESACORDO C/ A REGULAMENTACAO ESPECIFICA181 * XVII         00000000055411   000019523007572019122420200206319036715771180000001561885640000001956180332060622007574419703671577118800000000000  000   8     00050431478417255411PASSAGEIRO
2100000000474020191223207570PREF. DE: MA - CAXIAS                   CXA0077795201910091121AV OTAVIO PASSOS                                            PTC7196MA306051-SAMTHONDA/CG 160 START                           PARTICULAR                    MOTOCICLETA     PRETA     00000000MARCELA RODRIGUES DE OLIVEIRA               I TV C. A. GUIMARAES NR. 280            - TREZIDELA                             65607630CAXIAS              MAESTAC. EM DESACORDO C/ A REGULAMENTACAO ESPECIFICA181 * XVII         00000000055411   000019523007572019122420200206319036715772050000001561885690000001456180332060622007574419703671577205300000000000  000   9     00050431485489855411PASSAGEIRO
2100000000474020191223207570PREF. DE: MA - CAXIAS                   CXA0077796201910091122AV OTAVIO PASSOS                                            NMV7832MA306051-SAMTHONDA/CB 300R                                PARTICULAR                    MOTOCICLETA     PRETA     00000000ELISENE SANTOS SODRE                        RUA 16 QDA 10 NR. NR 36                 - COHATRAC II                           65100000SAO LUIS            MAESTAC. EM DESACORDO C/ A REGULAMENTACAO ESPECIFICA181 * XVII         00000000055411   000019523007572019122420200206319036715773820000001561885660000001756180332060622007574419703671577382000000000000  000   10    00050431486283155411PASSAGEIRO
2100000000474020191223207570PREF. DE: MA - CAXIAS                   CXA0077619201910091405AV SENADOR CLODOMIR CARDOSO                                 NWX3561MA122131-SAMTHONDA/NXR150 BROS ES                         PARTICULAR                    MOTOCICLETA     VERMELHA  00000000VALNEIR COELHO MACHADO                      RUA RAPOSA NR. 902                      - CENTRO                                65300000SANTA INES          MACOND. MOTOC/MOTON./CICLOM TRANSPORTANDO/PASSAG.S/C244 * II           00000000070481   000029347007572019122420200206319036715774600000002347785640000002734770332060122007574419703671577460400000000000  000   11    00070431487807070481PASSAGEIRO
2100000000474020191223207570PREF. DE: MA - CAXIAS                   CXA0077620201910091410AV SENADOR CLODOMIR CARDOSO                                 NHT8520MA122131-SAMTHONDA/CG 150 TITAN ES                        PARTICULAR                    MOTOCICLETA     PRETA     00000000JOSE DE RIBAMAR DA S GOMES                  R STO ANTONIO NR. 720                   - VL SAO JOSE                           65606795CAXIAS              MACOND. MOTOCICLETA/MOTONETA/CICLOM S/CAPACETE DE SE244 * I            00000000070301   000029347007572019122420200206319036715775470000002347785650000002634770332060122007574719003671577547800000000000  000   12    00070431489148370301PASSAGEIRO
2100000000474020191223207570PREF. DE: MA - CAXIAS                   CXA0077621201910091415AV SENADOR CLODOMIR CARDOSO                                 OJG7728MA122231-SAMTHONDA/BIZ 125 ES                             PARTICULAR                    MOTONETA        ROSA      00000000PEDRO DA SILVA SANTOS                       TV SANTA MARIA NR. 133                  - VL SAO JOSE                           65600010CAXIAS              MACOND. MOTOC/MOTON./CICLOM TRANSPORTANDO/PASSAG.S/C244 * II           00000000070481   000029347007572019122420200206319036715776240000002347785650000002634770332060122007574419703671577624500000000000  000   13    00070431490048270481PASSAGEIRO
2100000000474020191223207570PREF. DE: MA - CAXIAS                   CXA0077622201910091420AV SANTOS DUMONT                                            OXX5094MA122131-SAMTHONDA/POP100                                 PARTICULAR                    MOTOCICLETA     VERMELHA  00000000GREGORIO PEREIRA DE SOUSA NETO              R.ALUIZIO LOBO NR. 2045                 - SAO FRANCISCO                         65600450CAXIAS              MACOND. MOTOC/MOTON./CICLOM TRANSPORTANDO/PASSAG.S/C244 * II           00000000070481   000029347007572019122420200206319036715777010000002347785610000002034770332060122007574419703671577701100000000000  000   14    00070431490692870481PASSAGEIRO
2100000000474020191223207570PREF. DE: MA - CAXIAS                   CXA0077624201910091545PCA CANDIDO MENDES                                          NHT0417MA122131-SAMTHONDA/BIZ 125 KS                             PARTICULAR                    MOTONETA        PRETA     00000000JACO ARAUJO DE SOUSA                        RUA LA PAZ NR. 20                       - VL ARIAS                              65607365CAXIAS              MACOND. MOTOC/MOTON./CICLOM TRANSPORTANDO/PASSAG.S/C244 * II           00000000070481   000029347007572019122420200206319036715778990000002347785630000002834770332060122007574419703671577899300000000000  000   15    00070431490790870481PASSAGEIRO
2100000000474020191223207570PREF. DE: MA - CAXIAS                   CXA0076219201910292031PROFESSORA ANA CORREIA                                      OVW5696MA1685163PMMAI/VW GOLF HIGHLINE AA                        PARTICULAR                    AUTOMOVEL       BRANCA    00000000JOHNNATA PEREIRA PINHEIRO                   RUA BOM JESUS DOS PASSOS NR. 503        - CASTELO BRANCO                        65600001CAXIAS              MADEIXAR DE DAR PREF.PEDES/VEIC NAO MOTOR.FAIXA ELE 214 * I            00000000061220   000029347007572019122420200206319036715779760000002347785680000002334770332060122007574519403671577976904486898044MA000   16    00070431504055061220PASSAGEIRO
3000015000000000015
