1*NIPI209610202001070038612020010700000000000000
2100000000386120200107209610PREF. DE: MA - ACAILANDIA               ACA0032449201911191055AV.DORGIVAL N.1138, CENTRO                                  NXI7936MA3165       VW/FOX 1.0 GII                               PARTICULAR                    AUTOMOVEL       PRETA     00000000JOAO FIRMINO MARINHO                        RUA RIO GRANDE NR. 77                   - CENTRO                                65930000ACAILANDIA          MAESTACIONAR AO LADO DE OUTRO VEICULO EM FILA DUPLA 181 * XI           00000000054870   000019523009612020010820200221320036730650550000001561885630000001056180332210722009614420303673065055700000000000  000   2     00050434440194854870PASSAGEIRO
2100000000386120200107209610PREF. DE: MA - ACAILANDIA               ACA0032448201911190940AV.SANTA LUZIA C/AV.DORGIVAL                                OIU6331MA3165       VW/NOVO VOYAGE 1.6                           PARTICULAR                    AUTOMOVEL       CINZA     00000000RAQUELINE DOS SANTOS PEREIRA                RUA ANITA GARIBALDE NR. NR 67           - CENTRO                                65930000ACAILANDIA          MAEXEC. CONVERSAO A ESQUERDA EM LOCAL PROIBIDO P/SIN207                00000000060412   000019523009612020010820200221320036730651320000001561885600000001356180332210722009614420303673065132400000000000  000   3     00050434443916360412PASSAGEIRO
2100000000386120200107209610PREF. DE: MA - ACAILANDIA               ACA0032828201911190935R.DORGIVAL P. SOSUA N.1110                                  OJT4050MA3132       VW/GOL 1.0 GIV                               PARTICULAR                    AUTOMOVEL       BRANCA    00000000GENISVAL DE ARAUJO MENESES                  R MAR DEODORO DA FONSECA NR. 157        - CENTRO                                65930000ACAILANDIA          MAESTACIONAR AO LADO DE OUTRO VEICULO EM FILA DUPLA 181 * XI           00000000054870   000019523009612020010820200221320036730652100000001561885640000001956180332210722009614420303673065210800000000000  000   4     00050434446339054870PASSAGEIRO
2100000000386120200107209610PREF. DE: MA - ACAILANDIA               ACA0032476201910241125AV.BERNARDO SAYAO, CENTRO                                   QNC0184MA3090       FORD/KA SE 1.0 HA B                          PARTICULAR                    AUTOMOVEL       PRETA     00000000JHONE GABRIEL DA SILVA BATISTA              RUA ROSELI NUNES NR. 11                 QD 10 - ASSENTAMENTO CALIFOR            65930000ACAILANDIA          MAESTACIONAR AO LADO DE OUTRO VEICULO EM FILA DUPLA 181 * XI           00000000054870   000019523009612020010820200221320036730653070000001561885680000001556180332210722009614420303673065307200000000000  000   5     00050434447593354870PASSAGEIRO
2100000000386120200107209610PREF. DE: MA - ACAILANDIA               ACA0032648201911180845R.DR.GERVASIO, CENTRO                                       OIZ4297MA3157       HONDA/CG 150 FAN ESI                         PARTICULAR                    MOTOCICLETA     PRETA     00000000MARCOS LOPES ALVES                          RUA LAMANTE JUNIOR NR. 243              - VL MARANHAO                           65930000ACAILANDIA          MATRANSIT. P/ CONTRAMAO EM VIAS C/ SENT. UNICO      186 * II           00000000057380   000029347009612020010820200221320036730654840000002347785690000002234770332210222009614420303673065484900000000000  000   6     00070434984502057380PASSAGEIRO
2100000000386120200107209610PREF. DE: MA - ACAILANDIA               ACA0032649201911180849R.BOM JESUS, CENTRO                                         PSK8915MA3157       YAMAHA/YBR125 FACTOR E                       PARTICULAR                    MOTOCICLETA     PRETA     00000000ANA PAULA PEREIRA DA SILVA                  RUA GOIAS IIQD 7 NR.                    - JACU                                  65930000ACAILANDIA          MATRANSIT. P/ CONTRAMAO EM VIAS C/ SENT. UNICO      186 * II           00000000057380   000029347009612020010820200221320036730655610000002347785640000002734770332210222009614420303673065561400000000000  000   7     00070434984518657380PASSAGEIRO
2100000000386120200107209610PREF. DE: MA - ACAILANDIA               ACA0032650201911180851RUA BONAIRE, CENTRO                                         PSR9940MA3157       I/TOYOTA HILUX CDSRVA4FD                     PARTICULAR                    CAMINHONETE     PRATA     00000000SERGIO MARCOS SANTOS DE ASSIS               RUA RIO GRANDE NR. 900                  - CENTRO                                65930000ACAILANDIA          MAESTAC. VEIC. NAS ESQU. E MENOS DE 5M DO ALINHAMENT181 * I            00000000053800   000013016009612020010820200221320036730656490000001041285620000001104120332210622009614420303673065649700000000000  000   8     00040434984543753800ESPECIAL
2100000000386120200107209610PREF. DE: MA - ACAILANDIA               ACA0032733201911180901AV.TACITO CALDAS, CENTRO                                    HPY3128MA4445       HONDA/CG 150 TITAN ESD                       PARTICULAR                    MOTOCICLETA     PRETA     00000000IVO CAVALCANTE PEREIRA                      RUA TIRADENTES I NR. 747                - CENTRO                                65930000ACAILANDIA          MAAVANCAR SINAL VERMELHO DO SEMAFORO                208                00000000060501   000029347009612020010820200221320036730657260000002347785630000002834770332210222009614420303673065726300000000000  000   9     00070434984574760501PASSAGEIRO
2100000000386120200107209610PREF. DE: MA - ACAILANDIA               ACA0032734201911180903AV.TACITO CALDAS, CENTRO                                    HPY3128MA4445       HONDA/CG 150 TITAN ESD                       PARTICULAR                    MOTOCICLETA     PRETA     00000000IVO CAVALCANTE PEREIRA                      RUA TIRADENTES I NR. 747                - CENTRO                                65930000ACAILANDIA          MAAVANCAR SINAL VERMELHO DO SEMAFORO                208                00000000060501   000029347009612020010820200221320036730658030000002347785600000002134770332210222009614420303673065803000000000000  000   10    00070434984594160501PASSAGEIRO
2100000000386120200107209610PREF. DE: MA - ACAILANDIA               ACA0032732201911131159R.FORTALEZA, CENTRO                                         NXQ2658MA4445       HONDA/NXR150 BROS ES                         PARTICULAR                    MOTOCICLETA     VERMELHA  00000000MANOEL HENRIQUE SAMPAIO                     R TARQUINO FILHO NR. 0                  - CENTRO                                65208000SANTA HELENA        MATRANSIT. P/ CONTRAMAO EM VIAS C/ SENT. UNICO      186 * II           00000000057380   000029347009612020010820200221320036730659900000002347785650000002634770332210222009614420303673065990500000000000  000   11    00070434984635257380PASSAGEIRO
2100000000386120200107209610PREF. DE: MA - ACAILANDIA               ACA0032731201911131154AV.SANTA LUZIA, CENTRO                                      NWH4654MA4445       FIAT/STRADA WORKING CD                       PARTICULAR                    CAMINHONETE     PRETA     00000000JOAO FRANCISCO DE SOUSA                     RUA J KUBITSCHEK NR. 76                 - JACU                                  65930000ACAILANDIA          MATRANSIT. P/ CONTRAMAO EM VIAS C/ SENT. UNICO      186 * II           00000000057380   000029347009612020010820200221320036730660210000002347785680000002334770332210222009614420303673066021800000000000  000   12    00070434984681657380ESPECIAL
2100000000386120200107209610PREF. DE: MA - ACAILANDIA               ACA0032730201911131135R.BOM JESUS N.236, CENTRO                                   PSE1687MA4445       HONDA/NXR160 BROS ESDD                       PARTICULAR                    MOTOCICLETA     BRANCA    00000000JOACI GONCALVES CAVALCANTE                  RUA INGLATERRA QD 55 NR. 13             - PARQ DAS NACOES                       65930000ACAILANDIA          MAESTAC. EM LOCAL/HORARIO PROIBIDO ESPECIFIC. P/SINA181*XVIII          00000000055500   000013016009612020010820200221320036730661090000001041285660000001704120332210622009614420303673066109100000000000  000   13    00040434987212455500PASSAGEIRO
2100000000386120200107209610PREF. DE: MA - ACAILANDIA               ACA0032237201911180927R.07 DE SETEMBRO, CENTRO                                    NMV6773MA3084       VW/GOL 1.0                                   PARTICULAR                    AUTOMOVEL       BRANCA    00000000JACIO LIMA CABRAL                           R MARANHAO NR. 44                       - VL TANC NEVES                         65930000ACAILANDIA          MAESTAC. VEIC. NAS ESQU. E MENOS DE 5M DO ALINHAMENT181 * I            00000000053800   000013016009612020010820200221320036730662960000001041285610000001204120332210622009614420303673066296600000000000  000   14    00040434987549253800PASSAGEIRO
2100000000386120200107209610PREF. DE: MA - ACAILANDIA               ACA0032235201910071031R.DORGIVAL C/R.BOM JESUS                                    BZN3751MA3084       GM/CHEVROLET C20 CUSTOM S                    PARTICULAR                    CAMINHONETE     BRANCA    00000000WANDERSON SOARES TIGRE LIMA                 RUA VIENA NR. 08                        QD04 LT08 - PLANO DA SERRA              65930000ACAILANDIA          MADIR.VEIC. UTILIZANDO-SE DE TELEFONE CELULAR       252 * VI           00000000073662   000013016009612020010820200221320036730663730000001041285650000001804120332210622009614720603673066373300000000000  000   15    00040434988313473662CARGA
2100000000386120200107209610PREF. DE: MA - ACAILANDIA               ACA0032758201911141525R.ANITA GARIBALDE, CENTRO                                   PSK2312MA3179       TOYOTA/COROLLA XEI20FLEX                     PARTICULAR                    AUTOMOVEL       BRANCA    00000000GEIRLANE SOUZA OLIVEIRA                     RUA YPE QD 03 NR. SN                    LOTE 18 - JD BELA VISTA                 65930000ACAILANDIA          MAESTACIONAR NA CONTRAMAO DE DIRECAO                181 * XV           00000000055250   000013016009612020010820200221320036730664500000001041285640000001904120332210622009614420303673066450900000000000  000   16    00040434989268055250PASSAGEIRO
2100000000386120200107209610PREF. DE: MA - ACAILANDIA               ACA0032658201911181403R.DORGIVAL C/R.BOM JESUS                                    OXQ3432MA7763       FIAT/SIENA ATTRACTIV 1.4                     ALUGUEL                       AUTOMOVEL       BRANCA    00000000LUIS DA SILVA LIMA                          QUADRA 07 LOTE 06 B NR.                 - CADETE                                65930000ACAILANDIA          MAAVANCAR SINAL VERMELHO DO SEMAFORO                208                00000000060501   000029347009612020010820200221320036730665380000002347785610000002034770332210222009614420303673066538100000000000  000   17    00070434989385760501PASSAGEIRO
3000016000000000016
