1*NATI207570201912170047282019121700000000000000
2000000000472820191217207570PREF. DE: MA - CAXIAS                   CXA0078736201911261635RUA MENINO DEUS                                             PTK9198MA123611-SAMTHONDA/BIZ 110I                               PARTICULAR                    MOTONETA        VERMELHA  00000000MARINALVA SOUSA LIMA                        RUA DO TAMARINEIRO NR. 910              - TAMARINEIRO                           65608230CAXIAS              MACOND. MOTOC/MOTON./CICLOM TRANSPORTANDO/PASSAG.S/C244 * II           00000000070481   0000293470075720191218202001310000000000000000000000000                                                00000000000  000   1     00070440537128870481PASSAGEIRO
2000000000472820191217207570PREF. DE: MA - CAXIAS                   CXA0078738201911261640RUA MENINO DEUS                                             PSE0810MA123611-SAMTHONDA/BIZ 125 ES                             PARTICULAR                    MOTONETA        PRETA     00000000JULIANA PEREIRA DE OLIVEIRA                 RUA SEGISNANDO MOURA NR. 685            - PONTE                                 65609360CAXIAS              MACOND. MOTOC/MOTON./CICLOM TRANSPORTANDO/PASSAG.S/C244 * II           00000000070481   0000293470075720191218202001310000000000000000000000000                                                00000000000  000   2     00070440537154770481PASSAGEIRO
2000000000472820191217207570PREF. DE: MA - CAXIAS                   CXA0078737201911261640RUA MENINO DEUS                                             NXI5520MA123611-SAMTHONDA/CG 125 FAN KS                          PARTICULAR                    MOTOCICLETA     PRETA     00000000WILLAME DA COSTA ABREU                      PV PAIOL DO CENTRO NR. S/N              - CENTRO                                65645000MATOES              MACOND. MOTOC/MOTON./CICLOM TRANSPORTANDO/PASSAG.S/C244 * II           00000000070481   0000293470075720191218202001310000000000000000000000000                                                00000000000  000   3     00070440537174170481PASSAGEIRO
2000000000472820191217207570PREF. DE: MA - CAXIAS                   CXA0078739201911261640RUA MENINO DEUS                                             NWT8846MA123611-SAMTHONDA/CG 125 FAN                             PARTICULAR                    MOTOCICLETA     VERMELHA  00000000MARIA DA CONCEICAO BAIMA                    TV D PEDRO SEGUNDO II NR. 2985          - SAO SEBASTIAO                         65400000CODO                MACOND. MOTOC/MOTON./CICLOM TRANSPORTANDO/PASSAG.S/C244 * II           00000000070481   0000293470075720191218202001310000000000000000000000000                                                00000000000  000   4     00070440537441470481PASSAGEIRO
2000000000472820191217207570PREF. DE: MA - CAXIAS                   CXA0078320201911260750AV AARAO REIS                                               OJN4890MA301942-SAMTHONDA/POP100                                 PARTICULAR                    MOTOCICLETA     PRETA     00000000RENATO SANTOS SILVA                         TV ANGELIM I NR. 452                    - CANGALHEIRO                           65606222CAXIAS              MATRANSIT. P/ CONTRAMAO EM VIAS C/ SENT. UNICO      186 * II           00000000057380   0000293470075720191218202001310000000000000000000000000                                                00000000000  000   5     00070440537472457380PASSAGEIRO
2000000000472820191217207570PREF. DE: MA - CAXIAS                   CXA0078798201911261124AV ALEXANDRE COSTA                                          OXR9553MA305941-SAMTHONDA/BIZ 125 EX                             PARTICULAR                    MOTONETA        BRANCA    00000000LIDIANE DA CRUZ SILVA                       RUA PARNARAMA NR. 1734                  - VILA LOBAO                            65600000CAXIAS              MACOND. MOTOCICLETA/MOTONETA/CICLOM S/CAPACETE DE SE244 * I            00000000070301   0000293470075720191218202001310000000000000000000000000                                                00000000000  000   6     00070440537489970301PASSAGEIRO
2000000000472820191217207570PREF. DE: MA - CAXIAS                   CXA0078797201911260708AV NEREU BITTENCOURT                                        NXE8226MA305941-SAMTHONDA/POP100                                 PARTICULAR                    MOTOCICLETA     PRETA     00000000JULIANA SILVA DOS SANTOS                    POV MIMOSO NR. SN                       3 DISTRITO - CAROLINA                   65600001CAXIAS              MACOND. MOTOCICLETA/MOTONETA/CICLOM S/CAPACETE DE SE244 * I            00000000070301   0000293470075720191218202001310000000000000000000000000                                                00000000000  000   7     00070440537525970301PASSAGEIRO
2000000000472820191217207570PREF. DE: MA - CAXIAS                   CXA0078748201911271545RUA MENINO DEUS                                             OIY2547MA122231-SAMTHONDA/BIZ 125 ES                             PARTICULAR                    MOTONETA        VERMELHA  00000000JARDENIA DE SOUSA SOARES                    RUA PAULISTAO NR. 650                   RUA PROJETADA - PIRAJA                  65600010CAXIAS              MACOND. MOTOC/MOTON./CICLOM TRANSPORTANDO/PASSAG.S/C244 * II           00000000070481   0000293470075720191218202001310000000000000000000000000                                                00000000000  000   8     00070440537564070481PASSAGEIRO
2000000000472820191217207570PREF. DE: MA - CAXIAS                   CXA0078460201911270655PCA PANTHEON                                                OIS8722MA306051-SAMTHONDA/CG 125 FAN KS                          PARTICULAR                    MOTOCICLETA     ROXA      00000000CELIJANE SOARES SANTOS                      RUA 13 QD C-19 NR. NR-19                - TESO DURO                             65600000CAXIAS              MACOND. MOTOCICLETA/MOTONETA/CICLOM S/CAPACETE DE SE244 * I            00000000070301   0000293470075720191218202001310000000000000000000000000                                                00000000000  000   9     00070440537610770301PASSAGEIRO
2000000000472820191217207570PREF. DE: MA - CAXIAS                   CXA0078461201911271004AV PIRAJA                                                   NHH3733MA306051-SAMTYAMAHA/XTZ 125K                              PARTICULAR                    MOTOCICLETA     VERMELHA  00000000MARIA ARCANGELA COELHO ALMEIDA              RUA 13 QD 08 CASA 22 NR.                F-99-3521-1729 - CONJ COHAB             65600000CAXIAS              MACOND. MOTOCICLETA/MOTONETA/CICLOM S/CAPACETE DE SE244 * I            00000000070301   0000293470075720191218202001310000000000000000000000000                                                00000000000  000   10    00070440537674370301PASSAGEIRO
2000000000472820191217207570PREF. DE: MA - CAXIAS                   CXA0078462201911271215AVENIDA PIRAJA                                              NXQ0230MA306051-SAMTHONDA/BIZ 125 EX                             PARTICULAR                    MOTONETA        CINZA     00000000ANA CLAUDIA ARAUJO DA SILVA                 RUA SANHAROL NR. 1224                   - TREZIDELA                             65608410CAXIAS              MACOND. MOTOCICLETA/MOTONETA/CICLOM S/CAPACETE DE SE244 * I            00000000070301   0000293470075720191218202001310000000000000000000000000                                                00000000000  000   11    00070440537919070301PASSAGEIRO
2000000000472820191217207570PREF. DE: MA - CAXIAS                   CXA0078386201911271700PCA CANDIDO MENDES                                          OIX5701MA122111-SAMTYAMAHA/XTZ 125E                              PARTICULAR                    MOTOCICLETA     PRETA     00000000JOSE DA SILVA VILARINHO                     AVENIDA ALEXANDRE COSTA NR. 3138        - NOVA CAXIAS                           65600000CAXIAS              MACOND. MOTOC/MOTON./CICLOM TRANSPORTANDO/PASSAG.S/C244 * II           00000000070481   0000293470075720191218202001310000000000000000000000000                                                00000000000  000   12    00070440539953070481PASSAGEIRO
2000000000472820191217207570PREF. DE: MA - CAXIAS                   CXA0078750201911271650PCA MAGALHAES DE ALMEIDA                                    OIX5701MA123611-SAMTYAMAHA/XTZ 125E                              PARTICULAR                    MOTOCICLETA     PRETA     00000000JOSE DA SILVA VILARINHO                     AVENIDA ALEXANDRE COSTA NR. 3138        - NOVA CAXIAS                           65600000CAXIAS              MACOND. MOTOCICLETA/MOTONETA/CICLOM S/CAPACETE DE SE244 * I            00000000070301   0000293470075720191218202001310000000000000000000000000                                                00000000000  000   13    00070440540033470301PASSAGEIRO
2000000000472820191217207570PREF. DE: MA - CAXIAS                   CXA0078749201911271640RUA 24 DE OUTUBRO                                           PSV9740MA122231-SAMTHONDA/NXR 160 BROS                           PARTICULAR                    MOTOCICLETA     BRANCA    00000000MARIA DOS R O DOS SANTOS ARAUJO             RUA JERUSALEM NR. 1774                  - CASTELO BRANCO                        65604310CAXIAS              MACOND. MOTOC/MOTON./CICLOM TRANSPORTANDO/PASSAG.S/C244 * II           00000000070481   0000293470075720191218202001310000000000000000000000000                                                00000000000  000   14    00070440540142070481PASSAGEIRO
2000000000472820191217207570PREF. DE: MA - CAXIAS                   CXA0077987201911271740PCA CANDIDO MENDES                                          NXI5388MA78162-SAMT HONDA/CG 125 FAN KS                          PARTICULAR                    MOTOCICLETA     VERMELHA  00000000LUANA BASTOS DA SILVA                       RUA STA MARIA NR. 2344                  - BAIXINHA                              65600000CAXIAS              MACOND. MOTOC/MOTON./CICLOM TRANSPORTANDO/PASSAG.S/C244 * II           00000000070481   0000293470075720191218202001310000000000000000000000000                                                00000000000  000   15    00070440540335070481PASSAGEIRO
2000000000472820191217207570PREF. DE: MA - CAXIAS                   CXA0077986201911271735PCA CANDIDO MENDES                                          OXX1959MA78162-SAMT HONDA/BIZ 125 ES                             PARTICULAR                    MOTONETA        PRETA     00000000FRANCISCA MARIA A DE O CONCEICAO            RUA RIO PRATA NR. 537                   - SIRIEMA                               65600000CAXIAS              MACOND. MOTOC/MOTON./CICLOM TRANSPORTANDO/PASSAG.S/C244 * II           00000000070481   0000293470075720191218202001310000000000000000000000000                                                00000000000  000   16    00070440540652970481PASSAGEIRO
2000000000472820191217207570PREF. DE: MA - CAXIAS                   CXA0077985201911271730PCA CANDIDO MENDES                                          OXQ9021MA78162-SAMT HONDA/NXR150 BROS ES                         PARTICULAR                    MOTOCICLETA     VERMELHA  00000000MARIA CLARA CORREA DA CUNHA                 RUA 24 QD A-23 NR. 23                   - TESO DURO                             65600000CAXIAS              MACOND. MOTOC/MOTON./CICLOM TRANSPORTANDO/PASSAG.S/C244 * II           00000000070481   0000293470075720191218202001310000000000000000000000000                                                00000000000  000   17    00070440541019470481PASSAGEIRO
2000000000472820191217207570PREF. DE: MA - CAXIAS                   CXA0077984201911271720PCA CANDIDO MENDES                                          NMT7132MA78162-SAMT HONDA/CG 125 FAN ES                          PARTICULAR                    MOTOCICLETA     PRETA     00000000MARCELO CARNEIRO ANDRADE                    RUA MARANHAO NR. N1073                  - CENTRO                                65900000IMPERATRIZ          MACOND. MOTOC/MOTON./CICLOM TRANSPORTANDO/PASSAG.S/C244 * II           00000000070481   0000293470075720191218202001310000000000000000000000000                                                00000000000  000   18    00070440541595170481PASSAGEIRO
2000000000472820191217207570PREF. DE: MA - CAXIAS                   CXA0077983201911271715PCA CANDIDO MENDES                                          PSN0900MA78162-SAMT HONDA/CG 150 TITAN ESD                       PARTICULAR                    MOTOCICLETA     PRETA     00000000JOSE DE ARIMATEA SILVA DE SOUSA             AV N S DE NAZARE NR. N-520              F-99-3521-7335 - TRIZIDELA              65608460CAXIAS              MACOND. MOTOC/MOTON./CICLOM TRANSPORTANDO/PASSAG.S/C244 * II           00000000070481   0000293470075720191218202001310000000000000000000000000                                                00000000000  000   19    00070440541895070481PASSAGEIRO
2000000000472820191217207570PREF. DE: MA - CAXIAS                   CXA0077989201911271900AV NEREU BITTENCOUT                                         PTG2068MA78162-SAMT HONDA/NXR160 BROS ESDD                       PARTICULAR                    MOTOCICLETA     VERMELHA  00000000ANTONIO BASTOS NETO                         RUA CANDIDO ALVES NR. 463               - TREZIDELA                             65607430CAXIAS              MACOND. MOTOC/MOTON./CICLOM TRANSPORTANDO/PASSAG.S/C244 * II           00000000070481   0000293470075720191218202001310000000000000000000000000                                                00000000000  000   20    00070440542592270481PASSAGEIRO
2000000000472820191217207570PREF. DE: MA - CAXIAS                   CXA0078747201911271540RUA MENINO DEUS                                             NNC1526MA122231-SAMTHONDA/CG 125 FAN ES                          PARTICULAR                    MOTOCICLETA     PRETA     00000000ANTONIO CARVALHO SILVA                      II TV ESPIRITO SANTO NR. N-977          - CANGALHEIRO                           65606310CAXIAS              MACOND. MOTOC/MOTON./CICLOM TRANSPORTANDO/PASSAG.S/C244 * II           00000000070481   0000293470075720191218202001310000000000000000000000000                                                00000000000  000   21    00070440542946470481PASSAGEIRO
2000000000472820191217207570PREF. DE: MA - CAXIAS                   CXA0078282201912171032AV ALEXANDRE COSTA                                          PTA4043MA306461-SAMTHONDA/BIZ 125                                PARTICULAR                    MOTONETA        BRANCA    00000000FRANCISCA VELOSO MOURA                      TV COSTA SOBRINHO NR. 1966              - VOLTA REDONDA                         65606520CAXIAS              MACOND. MOTOC/MOTON./CICLOM TRANSPORTANDO/PASSAG.S/C244 * II           00000000070481   0000293470075720191218202001310000000000000000000000000                                                00000000000  000   22    00070440548943270481PASSAGEIRO
2000000000472820191217207570PREF. DE: MA - CAXIAS                   CXA0078744201911271505RUA MENINO DEUS                                             PSL6717MA123611-SAMTHONDA/POP 110I                               PARTICULAR                    MOTOCICLETA     PRETA     00000000VALTON ALVES DOS SANTOS                     RUA MARIA ROSARIO NR. 1335              - CAMPO BELEM                           65600010CAXIAS              MACOND. MOTOC/MOTON./CICLOM TRANSPORTANDO/PASSAG.S/C244 * II           00000000070481   0000293470075720191218202001310000000000000000000000000                                                00000000000  000   23    00070440549781870481PASSAGEIRO
2000000000472820191217207570PREF. DE: MA - CAXIAS                   CXA0078709201911271725PCA MAGALHAES DE ALMEIDA                                    PTK4407MA123611-SAMTHONDA/POP 110I                               PARTICULAR                    MOTOCICLETA     VERMELHA  00000000AMANDA GONCALVES SOUSA                      AV JERUSALEM NR. 416                    - JERUSALEM                             65727000TRIZIDELA DO VALE   MACOND. MOTOC/MOTON./CICLOM TRANSPORTANDO/PASSAG.S/C244 * II           00000000070481   0000293470075720191218202001310000000000000000000000000                                                00000000000  000   24    00070440550083570481PASSAGEIRO
2000000000472820191217207570PREF. DE: MA - CAXIAS                   CXA0078742201911271430RUA MENINO DEUS                                             PIA7678MA123611-SAMTVW/GOL TL MB S                               PARTICULAR                    AUTOMOVEL       BRANCA    00000000HAMILTON ANTONIO DOS SANTOS                 ST SAO JOSE NR. 1302                    - FAZENDINHA                            65600001CAXIAS              MADIR.VEIC. UTILIZANDO-SE DE TELEFONE CELULAR       252 * VI           00000000073662   0000130160075720191218202001310000000000000000000000000                                                00000000000  000   25    00040440550290073662PASSAGEIRO
2000000000472820191217207570PREF. DE: MA - CAXIAS                   CXA0078741201911271420RUA AFONSO PENA                                             NWS5438MA123611-SAMTI/CHEVROLET AGILE LTZ                        PARTICULAR                    AUTOMOVEL       VERMELHA  00000000WIDGLAN DO NASCIMENTO CHAVES                RUA CAJUEIRO NR. 457                    - SIRIEMA                               65602530CAXIAS              MAESTACIONAR AO LADO DE OUTRO VEICULO EM FILA DUPLA 181 * XI           00000000054870   0000195230075720191218202001310000000000000000000000000                                                00000000000  000   26    00050440551262054870PASSAGEIRO
2000000000472820191217207570PREF. DE: MA - CAXIAS                   CXA0078743201911271430PCA MAGALHAES DE ALMEIDA                                    OIT4805MA123611-SAMTHONDA/CG 150 FAN ESI                         PARTICULAR                    MOTOCICLETA     VERMELHA  00000000ZELIA ROCHA DE ABREU                        R MARIINHA NR. 1665                     - CAMPO DE BELEM                        65600010CAXIAS              MACOND. MOTOC/MOTON./CICLOM TRANSPORTANDO/PASSAG.S/C244 * II           00000000070481   0000293470075720191218202001310000000000000000000000000                                                00000000000  000   27    00070440551559070481PASSAGEIRO
3000027000000000027
