1*NATI207570201912090047052019120900000000000000
2000000000470520191209207570PREF. DE: MA - CAXIAS                   CXA0075278201911110934RUA BENEDITO REIS                                           PTB3299MA306461-SAMTHONDA/PCX 150                                PARTICULAR                    MOTONETA        PRETA     00000000ANTONIA MARIA DA CONCEICAO                  TV DO ESPIRITO SANTO NR. 345            - CANGALHEIRO                           65606300CAXIAS              MAESTACIONAR EM DESACORDO C/REGULAMENTACAO-PONTO OU 181 * XVII         00000000055413   0000195230075720191210202001230000000000000000000000000                                                00000000000  000   1     00050438689757755413PASSAGEIRO
2000000000470520191209207570PREF. DE: MA - CAXIAS                   CXA0078277201911110826PCA PANTHEON                                                FTB3928MA306461-SAMTVW/FOX 1.0 GII                               PARTICULAR                    AUTOMOVEL       VERMELHA  00000000ZONILDE BARROS PINHEIRO                     R SEIS NR. 14                            RES EUGENIO COUTINH - TESO DURO        65604548CAXIAS              MAESTACIONAR EM DESACORDO C/REGULAMENTACAO-PONTO OU 181 * XVII         00000000055413   0000195230075720191210202001230000000000000000000000000                                                00000000000  000   2     00050438689967755413PASSAGEIRO
2000000000470520191209207570PREF. DE: MA - CAXIAS                   CXA0078281201911121754RUA BENEDITO REIS                                           NXQ9222MA306461-SAMTHONDA/BIZ 125 KS                             PARTICULAR                    MOTONETA        PRETA     00000000VALDIANA DE BRITO VIEIRA                    RUA SANTA LUZIA NR. 742                 - TRIZIDELA                             65600000CAXIAS              MATRANSIT. P/ CONTRAMAO EM VIAS C/ DUPLO SENTIDO DE 186 * I            00000000057200   0000195230075720191210202001230000000000000000000000000                                                00000000000  000   3     00050438690552957200PASSAGEIRO
2000000000470520191209207570PREF. DE: MA - CAXIAS                   CXA0078309201911131133AV OTAVIO PASSOS                                            OXZ8848MA301942-SAMTHONDA/CG 150 TITAN ESD                       PARTICULAR                    MOTOCICLETA     VERMELHA  00000000FRANCKSON MACIANO DE L CARDOSO              R JOAO RESENDE NR. S/N                  - INCRA                                 65950000BARRA DO CORDA      MAESTAC. EM DESACORDO C/ A REGULAMENTACAO ESPECIFICA181 * XVII         00000000055411   0000195230075720191210202001230000000000000000000000000                                                00000000000  000   4     00050438690806455411PASSAGEIRO
2000000000470520191209207570PREF. DE: MA - CAXIAS                   CXA0078310201911131136AV OTAVIO PASSOS                                            NNG0250MA301942-SAMTHONDA/CG150 TITAN MIX EX                     PARTICULAR                    MOTOCICLETA     PRETA     00000000MARIA DO P SOCORRO A DA SILVA               AV 07 NR. 2                             QD 25 - CJR COHAB                       65600000CAXIAS              MAESTAC. EM DESACORDO C/ A REGULAMENTACAO ESPECIFICA181 * XVII         00000000055411   0000195230075720191210202001230000000000000000000000000                                                00000000000  000   5     00050438691123555411PASSAGEIRO
2000000000470520191209207570PREF. DE: MA - CAXIAS                   CXA0078657201911131130AV OTAVIO PASSOS                                            PSO0341MA122161-SAMTYAMAHA/YBR150 FACTOR E                       PARTICULAR                    MOTOCICLETA     BRANCA    00000000LUIZA MARIA ALVES SILVA                     TV SAO FRANCISCO NR. 1665               - VOLTA REDONDA                         65606370CAXIAS              MAESTAC. EM DESACORDO C/ A REGULAMENTACAO ESPECIFICA181 * XVII         00000000055411   0000195230075720191210202001230000000000000000000000000                                                00000000000  000   6     00050438691402155411PASSAGEIRO
2000000000470520191209207570PREF. DE: MA - CAXIAS                   CXA0078656201911131130AV OTAVIO PASSOS                                            PSQ2875MA122161-SAMTHONDA/BIZ 125 ES                             PARTICULAR                    MOTONETA        PRETA     00000000ANTONIO FRANCISCO DE O SILVA                RUA SAO JOSE NR. 1196                   - BACURIZEIRO                           65603820CAXIAS              MAESTAC. EM DESACORDO C/ A REGULAMENTACAO ESPECIFICA181 * XVII         00000000055411   0000195230075720191210202001230000000000000000000000000                                                00000000000  000   7     00050438691487055411PASSAGEIRO
2000000000470520191209207570PREF. DE: MA - CAXIAS                   CXA0078655201911131128RUA AFONSO PENA                                             PTC4939MA122161-SAMTHONDA/BIZ 110I                               PARTICULAR                    MOTONETA        VERMELHA  00000000MARCIO CIONE SOARES DA SILVA                RUA CAMPO DO BELEM NR. 927              - CAMPO DE BELEM                        65609040CAXIAS              MACOND. MOTOC/MOTON./CICLOM TRANSPORTANDO/PASSAG.S/C244 * II           00000000070481   0000293470075720191210202001230000000000000000000000000                                                00000000000  000   8     00070438691566470481PASSAGEIRO
2000000000470520191209207570PREF. DE: MA - CAXIAS                   CXA0077969201911131635PCA CANDIDO MENDES                                          NHF8891MA78162-SAMT HONDA/BIZ 125 ES                             PARTICULAR                    MOTONETA        VERMELHA  00000000ANA PAULA LIMA SOUSA                        RUA INDEPENDENCIA NR. 1143              - CENTRO                                65602210CAXIAS              MACOND. MOTOCICLETA/MOTONETA/CICLOM S/CAPACETE DE SE244 * I            00000000070301   0000293470075720191210202001230000000000000000000000000                                                00000000000  000   9     00070438691637770301PASSAGEIRO
2000000000470520191209207570PREF. DE: MA - CAXIAS                   CXA0077970201911131640PCA CANDIDO MENDES                                          PSD8612MA78162-SAMT HONDA/BIZ 125 ES                             PARTICULAR                    MOTONETA        VERMELHA  00000000KASSIA DE SOUSA LACERDA                     I TV DO ESPIRITO SANTO NR. 338          - CANGALHEIRO                           65606300CAXIAS              MACOND. MOTOC/MOTON./CICLOM TRANSPORTANDO/PASSAG.S/C244 * II           00000000070481   0000293470075720191210202001230000000000000000000000000                                                00000000000  000   10    00070438691668770481PASSAGEIRO
2000000000470520191209207570PREF. DE: MA - CAXIAS                   CXA0077971201911131645PCA CANDIDO MENDES                                          OXT2175MA78162-SAMT HONDA/NXR150 BROS ES                         PARTICULAR                    MOTOCICLETA     BRANCA    00000000MARIA MARQUES COSTA                         RUA SAO MARCOS NR. 464                  - TERRA BELA II                         65395000BURITICUPU          MACOND. MOTOC/MOTON./CICLOM TRANSPORTANDO/PASSAG.S/C244 * II           00000000070481   0000293470075720191210202001230000000000000000000000000                                                00000000000  000   11    00070438691772170481PASSAGEIRO
2000000000470520191209207570PREF. DE: MA - CAXIAS                   CXA0078661201911141025RUA GUSTAVO COLASSO                                         PTN5876MA122181-SAMTHONDA/CG 160 TITAN                           PARTICULAR                    MOTOCICLETA     VERMELHA  00000000JESSYARA PEREIRA DOS SANTOS                 RUA SANTA INES NR. 1090                 - VILA LOBAO                            65605547CAXIAS              MATRANSIT. P/ CONTRAMAO EM VIAS C/ SENT. UNICO      186 * II           00000000057380   0000293470075720191210202001230000000000000000000000000                                                00000000000  000   12    00070438691828057380PASSAGEIRO
2000000000470520191209207570PREF. DE: MA - CAXIAS                   CXA0078664201911141140PCA CANDIDO MENDES                                          OJN8032MA122161-SAMTHONDA/CG150 FAN ESDI                         PARTICULAR                    MOTOCICLETA     AZUL      00000000ANTONIO JOSE DOS S GUIMARAES                RUA TUNTUM NR. 544                      - VILA LOBAO                            65600000CAXIAS              MATRANSIT. P/ CONTRAMAO EM VIAS C/ SENT. UNICO      186 * II           00000000057380   0000293470075720191210202001230000000000000000000000000                                                00000000000  000   13    00070438691884157380PASSAGEIRO
2000000000470520191209207570PREF. DE: MA - CAXIAS                   CXA0078660201911141025RUA GUSTAVO COLASSO                                         PTM5876MA122181-SAMTHONDA/POP 110I                               PARTICULAR                    MOTOCICLETA     BRANCA    00000000DOMINGOS REGO DE SOUSA                      RUA PRINCIPAL NR. 463                   A - CUMARU                              65935000SENADOR LA ROQUE    MACOND. MOTOC/MOTON./CICLOM TRANSPORTANDO/PASSAG.S/C244 * II           00000000070481   0000293470075720191210202001230000000000000000000000000                                                00000000000  000   14    00070438693019170481PASSAGEIRO
2000000000470520191209207570PREF. DE: MA - CAXIAS                   CXA0078659201911140753AV NEREU BITENCOURT                                         OJN4846MA122381-SAMTHONDA/NXR125 BROS ES                         PARTICULAR                    MOTOCICLETA     VERMELHA  00000000JOSE PAULO RIBEIRO DO NASCIMENTO            RUA SAO JORGE NR. 86                    - AREIA BRANCA                          65268000CURURUPU            MACOND. MOTOCICLETA/MOTONETA/CICLOM S/CAPACETE DE SE244 * I            00000000070301   0000293470075720191210202001230000000000000000000000000                                                00000000000  000   15    00070438693122870301PASSAGEIRO
2000000000470520191209207570PREF. DE: MA - CAXIAS                   CXA0077974201911141115AV CENTRAL                                                  PTG1561MA78162-SAMT HONDA/POP 110I                               PARTICULAR                    MOTOCICLETA     VERMELHA  00000000FRANCISCO LACERDA GERMANO                   RUA N. SRA DE FATIMA NR. 664            - VILA ALECRIM                          65605600CAXIAS              MACOND. MOTOC/MOTON./CICLOM TRANSPORTANDO/PASSAG.S/C244 * II           00000000070481   0000293470075720191210202001230000000000000000000000000                                                00000000000  000   16    00070438693224070481PASSAGEIRO
2000000000470520191209207570PREF. DE: MA - CAXIAS                   CXA0077975201911141430RUA DO TAMARINEIRO                                          OXW9724MA78162-SAMT HONDA/POP100                                 PARTICULAR                    MOTOCICLETA     PRETA     00000000ANTONIO LUIS CAMPELO DA SILVA               II TV WALTER BRITO NR. 787              - CAMPO DE BELEM                        65600000CAXIAS              MACOND. MOTOC/MOTON./CICLOM TRANSPORTANDO/PASSAG.S/C244 * II           00000000070481   0000293470075720191210202001230000000000000000000000000                                                00000000000  000   17    00070438693324770481PASSAGEIRO
2000000000470520191209207570PREF. DE: MA - CAXIAS                   CXA0077976201911141430RUA DO TAMARINEIRO                                          OXW9724MA78162-SAMT HONDA/POP100                                 PARTICULAR                    MOTOCICLETA     PRETA     00000000ANTONIO LUIS CAMPELO DA SILVA               II TV WALTER BRITO NR. 787              - CAMPO DE BELEM                        65600000CAXIAS              MACOND. MOTOCICLETA/MOTONETA/CICLOM S/CAPACETE DE SE244 * I            00000000070301   0000293470075720191210202001230000000000000000000000000                                                00000000000  000   18    00070438693346870301PASSAGEIRO
2000000000470520191209207570PREF. DE: MA - CAXIAS                   CXA0078675201911181145PCA PANTHEON                                                OJK9060MA122161-SAMTYAMAHA/YS150 FAZER ED                        PARTICULAR                    MOTOCICLETA     VERMELHA  00000000JOSE FRANCISCO DE ALMEIDA SILVA             RUA NATAL NR. 643                       - JOAO VIANA                            65600010CAXIAS              MACOND. MOTOC/MOTON./CICLOM TRANSPORTANDO/PASSAG.S/C244 * II           00000000070481   0000293470075720191210202001230000000000000000000000000                                                00000000000  000   19    00070438693360370481PASSAGEIRO
2000000000470520191209207570PREF. DE: MA - CAXIAS                   CXA0078674201911181030PCA CANDIDO MENDES                                          NXK2304MA122161-SAMTHONDA/NXR150 BROS ESD                        PARTICULAR                    MOTOCICLETA     VERMELHA  00000000FRANCISCO FERREIRA FREITAS                  RUA VITORIA NR. 215                     - TERRA BELA                            65395000BURITICUPU          MACOND. MOTOC/MOTON./CICLOM TRANSPORTANDO/PASSAG.S/C244 * II           00000000070481   0000293470075720191210202001230000000000000000000000000                                                00000000000  000   20    00070438693686670481PASSAGEIRO
2000000000470520191209207570PREF. DE: MA - CAXIAS                   CXA0078239201911181554PCA CANDIDO MENDES                                          NXJ1951MA305941-SAMTHONDA/CG 125 FAN KS                          PARTICULAR                    MOTOCICLETA     ROXA      00000000JOSE HEMRIQUE GOMES VIEIRA                  RUA  ESPLANADA ESTACAO NR. 809          - GALIANA                               65600000CAXIAS              MACOND. MOTOC/MOTON./CICLOM TRANSPORTANDO/PASSAG.S/C244 * II           00000000070481   0000293470075720191210202001230000000000000000000000000                                                00000000000  000   21    00070438693953970481PASSAGEIRO
2000000000470520191209207570PREF. DE: MA - CAXIAS                   CXA0078241201911181748RUA RIO DE JANEIRO                                          NNB1277MA305941-SAMTHONDA/CG150 TITAN MIX KS                     PARTICULAR                    MOTOCICLETA     PRETA     00000000FRANCISCO DE ASSIS DE JESUS NETO            R MIRANDA NR. 1032                      - VL ALECRIM                            65605665CAXIAS              MAESTAC. EM LOCAL/HORARIO PROIBIDO ESPECIFIC. P/SINA181*XVIII          00000000055500   0000130160075720191210202001230000000000000000000000000                                                00000000000  000   22    00040438693993855500PASSAGEIRO
2000000000470520191209207570PREF. DE: MA - CAXIAS                   CXA0078637201911181430RUA GUSTAVO COLACO                                          NHH0429MA306431-SAMTHONDA/POP100                                 PARTICULAR                    MOTOCICLETA     AZUL      00000000TELMA DE JESUS LOBATO FERNANDES             RUA 04 QD 07 NR-06 NR.                  F-99-3421-6777 - CJR IPEM               65600000CAXIAS              MAESTAC. EM DESACORDO C/ A REGULAMENTACAO ESPECIFICA181 * XVII         00000000055411   0000195230075720191210202001230000000000000000000000000                                                00000000000  000   23    00050438694080455411PASSAGEIRO
2000000000470520191209207570PREF. DE: MA - CAXIAS                   CXA0078634201911181155PCA CANDIDO MENDES                                          LVY4009MA306431-SAMTI/TOYOTA LAND CRUISER PR                     PARTICULAR                    UTILITARIO      PRETA     00000000SHIRLENE DE SOUSA N SUDARIO                 AV SANTOS DUMONT NR. 4160               - ANTENOR VIANA                         65600010CAXIAS              MAESTACIONAR AO LADO DE OUTRO VEICULO EM FILA DUPLA 181 * XI           00000000054870   0000195230075720191210202001230000000000000000000000000                                                00000000000  000   24    00050438699537454870MISTO
2000000000470520191209207570PREF. DE: MA - CAXIAS                   CXA0078451201911180900RUA AARAO REIS                                              PSZ8128MA306051-SAMTHONDA/POP 110I                               PARTICULAR                    MOTOCICLETA     BRANCA    00000000FRANCISCA DALVA A DE ALMEIDA                II TV SAO JOAO NR. 1158                 - SERIEMA                               65602400CAXIAS              MACOND. MOTOCICLETA/MOTONETA/CICLOM S/CAPACETE DE SE244 * I            00000000070301   0000293470075720191210202001230000000000000000000000000                                                00000000000  000   25    00070438707115070301PASSAGEIRO
2000000000470520191209207570PREF. DE: MA - CAXIAS                   CXA0078561201911181700RUA 01 DE AGOSTO                                            PSB7903MA122131-SAMTHONDA/BIZ 125 EX                             PARTICULAR                    MOTONETA        VERMELHA  00000000FELIPE TIAGO DA CONCEICAO SILVA             RUA CALDEIROES NR. 994                  - CALDEIROES                            65607305CAXIAS              MACOND. MOTOC/MOTON./CICLOM TRANSPORTANDO/PASSAG.S/C244 * II           00000000070481   0000293470075720191210202001230000000000000000000000000                                                00000000000  000   26    00070438708079570481PASSAGEIRO
2000000000470520191209207570PREF. DE: MA - CAXIAS                   CXA0078452201911181020AV LUIS SALES                                               OXV5210MA306051-SAMTHONDA/PCX 150                                PARTICULAR                    MOTONETA        BRANCA    00000000THIAGO JOSE SOUSA SARAIVA                   RUA SAO CRISTOVAO NR. 825               - PIRAJA                                65600000CAXIAS              MACOND. MOTOCICLETA/MOTONETA/CICLOM S/CAPACETE DE SE244 * I            00000000070301   0000293470075720191210202001230000000000000000000000000                                                00000000000  000   27    00070438709367670301PASSAGEIRO
2000000000470520191209207570PREF. DE: MA - CAXIAS                   CXA0077042201911181000RUA SENADOR COSTA RODRIGUES                                 OXU9567MA138301-SAMTHONDA/POP100                                 PARTICULAR                    MOTOCICLETA     PRETA     00000000FRANCISCA DOS SANTOS SOUZA                  RUA ANTONIO FERREIRA NR. NR.04          VILA DAS - PALMEIRAS                    65725000PEDREIRAS           MACOND. MOTOC/MOTON./CICLOM TRANSPORTANDO/PASSAG.S/C244 * II           00000000070481   0000293470075720191210202001230000000000000000000000000                                                00000000000  000   28    00070438709794970481PASSAGEIRO
2000000000470520191209207570PREF. DE: MA - CAXIAS                   CXA0078314201911181029PCA GONCALVES DIAS                                          PSU9487MA301942-SAMTCHEV/PRISMA 1.4MT LT                         PARTICULAR                    AUTOMOVEL       VERMELHA  00000000RAIMUNDA MARIA DA C BRITO                   R PEDREIRAS NR. 954                     - VL LOBAO                              65600010CAXIAS              MAESTACIONAR AO LADO/SOBRE DIVISORES DE PISTA DE ROL181 * VIII         00000000054526   0000195230075720191210202001230000000000000000000000000                                                00000000000  000   29    00050438710480554526PASSAGEIRO
2000000000470520191209207570PREF. DE: MA - CAXIAS                   CXA0078666201911191145PCA PANTHEON                                                OXY7787MA122161-SAMTHONDA/POP100                                 PARTICULAR                    MOTOCICLETA     VERMELHA  00000000THADYANY CHISTINA DINIZ                     RUA DR SILVA MAIA SN NR.                - CARAVELAS                             65250000ALCANTARA           MATRANSIT. P/ CONTRAMAO EM VIAS C/ SENT. UNICO      186 * II           00000000057380   0000293470075720191210202001230000000000000000000000000                                                00000000000  000   30    00070438714042957380PASSAGEIRO
2000000000470520191209207570PREF. DE: MA - CAXIAS                   CXA0078665201911191011PCA CANDIDO MENDES                                          OJM6567MA122161-SAMTHONDA/POP100                                 PARTICULAR                    MOTOCICLETA     VERMELHA  00000000MARCIA MARIA SANTOS RIBEIRO                 RUA CALDEIROES NR. 910                  - CALDEIROES                            65600000CAXIAS              MACOND. MOTOC/MOTON./CICLOM TRANSPORTANDO/PASSAG.S/C244 * II           00000000070481   0000293470075720191210202001230000000000000000000000000                                                00000000000  000   31    00070438714288070481PASSAGEIRO
2000000000470520191209207570PREF. DE: MA - CAXIAS                   CXA0078242201911190834RUA GUSTAVO COLACO                                          OJN0687MA305941-SAMTHONDA/POP100                                 PARTICULAR                    MOTOCICLETA     PRETA     00000000MARIA JANETE BRITO REGO                     RUA SANTO ANTONIO NR. 1256              - CAMPO DE BELEM                        65600000CAXIAS              MACOND. MOTOC/MOTON./CICLOM TRANSPORTANDO/PASSAG.S/C244 * II           00000000070481   0000293470075720191210202001230000000000000000000000000                                                00000000000  000   32    00070438714755570481PASSAGEIRO
2000000000470520191209207570PREF. DE: MA - CAXIAS                   CXA0078677201911190805RUA GUSTAVO COLACO                                          PSG4885MA122161-SAMTHONDA/POP100                                 PARTICULAR                    MOTOCICLETA     PRETA     00000000EDNA MARIA DE MELO                          RUA 24 DE DEZEMBRO NR. 1172             - SIRIEMA                               65602420CAXIAS              MAESTAC. EM DESACORDO C/ A REGULAMENTACAO ESPECIFICA181 * XVII         00000000055411   0000195230075720191210202001230000000000000000000000000                                                00000000000  000   33    00050438715029755411PASSAGEIRO
2000000000470520191209207570PREF. DE: MA - CAXIAS                   CXA0078243201911191007RUA GUSTAVO COLACO                                          NNE3056MA305941-SAMTYAMAHA/T115 CRYPTON K                        PARTICULAR                    MOTONETA        PRETA     00000000ROSILENE ARAUJO SILVA                       RUA PE DA LADEIRA NR. 1750              - CASTELO BRANCO                        65600000CAXIAS              MATRANSIT. P/ CONTRAMAO EM VIAS C/ SENT. UNICO      186 * II           00000000057380   0000293470075720191210202001230000000000000000000000000                                                00000000000  000   34    00070438715374157380PASSAGEIRO
2000000000470520191209207570PREF. DE: MA - CAXIAS                   CXA0075244201911191010RUA GUSTAVO COLACO                                          NNE3056MA305941-SAMTYAMAHA/T115 CRYPTON K                        PARTICULAR                    MOTONETA        PRETA     00000000ROSILENE ARAUJO SILVA                       RUA PE DA LADEIRA NR. 1750              - CASTELO BRANCO                        65600000CAXIAS              MACOND. MOTOCICLETA/MOTONETA/CICLOM S/CAPACETE DE SE244 * I            00000000070301   0000293470075720191210202001230000000000000000000000000                                                00000000000  000   35    00070438715735670301PASSAGEIRO
2000000000470520191209207570PREF. DE: MA - CAXIAS                   CXA0078245201911191425RUA GUSTAVO COLACO                                          PSE2771MA305941-SAMTHONDA/BIZ 100 KS                             PARTICULAR                    MOTONETA        VERMELHA  00000000CARLOS AUGUSTO M DE OLIVEIRA                RUA ANTONIO QUEIROZ QD D NR. 12         - RAIZ                                  65600079CAXIAS              MAESTAC. EM DESACORDO C/ A REGULAMENTACAO ESPECIFICA181 * XVII         00000000055411   0000195230075720191210202001230000000000000000000000000                                                00000000000  000   36    00050438716252055411PASSAGEIRO
2000000000470520191209207570PREF. DE: MA - CAXIAS                   CXA0078246201911191428RUA GUSTAVO COLACO                                          PSP5669MA305941-SAMTHONDA/POP 110I                               PARTICULAR                    MOTOCICLETA     BRANCA    00000000VANIA MAYARA RIBEIRO DE AGUIAR              TRAVESSA JOSE BONIFACIO NR. 1063        - SAO SEBASTIAO                         65400000CODO                MAESTAC. EM DESACORDO C/ A REGULAMENTACAO ESPECIFICA181 * XVII         00000000055411   0000195230075720191210202001230000000000000000000000000                                                00000000000  000   37    00050438716599555411PASSAGEIRO
2000000000470520191209207570PREF. DE: MA - CAXIAS                   CXA0078247201911191432RUA GUSTAVO COLACO                                          PTB4109MA305941-SAMTHONDA/POP 110I                               PARTICULAR                    MOTOCICLETA     VERMELHA  00000000MARLY VASCONCELOS DA SILVA                  R MTE CLARO NR. 838                     - CAMPO DE BELEM                        65609150CAXIAS              MAESTAC. EM DESACORDO C/ A REGULAMENTACAO ESPECIFICA181 * XVII         00000000055411   0000195230075720191210202001230000000000000000000000000                                                00000000000  000   38    00050438717080855411PASSAGEIRO
2000000000470520191209207570PREF. DE: MA - CAXIAS                   CXA0078641201911191756RUA RIO DE JANEIRO                                          NXO1719MA306431-SAMTHONDA/POP100                                 PARTICULAR                    MOTOCICLETA     ROXA      00000000ANTONIO CARLOS TORRES DE S NETO             R DA PROSPERIDADE QDB19 NR. 01          - TESO DURO                             65600000CAXIAS              MAESTAC. EM LOCAL/HORARIO.DE ESTAC. E PARADA PROIBID181 * XIX          00000000055680   0000195230075720191210202001230000000000000000000000000                                                00000000000  000   39    00050438717605955680PASSAGEIRO
3000039000000000039
