1*NATI207570201911280046862019112800000000000000
2000000000468620191128207570PREF. DE: MA - CAXIAS                   CXA0078551201911131450RUA CEL LIBANIO LOBO                                        OXZ4537MA122131-SAMTHONDA/CG150 FAN ESDI                         PARTICULAR                    MOTOCICLETA     VERMELHA  00000000ANA MEIRE SILVA SOUSA                       R MIRANDA NR. 1158                      - VL ALECRIM                            65600010CAXIAS              MACOND. MOTOC/MOTON./CICLOM TRANSPORTANDO/PASSAG.S/C244 * II           00000000070481   0000293470075720191129202001130000000000000000000000000                                                00000000000  000   1     00070436184914570481PASSAGEIRO
2000000000468620191128207570PREF. DE: MA - CAXIAS                   CXA0078552201911131505AV GETULIO VARGAS                                           OJG0705MA122131-SAMTHONDA/BIZ 125 ES                             PARTICULAR                    MOTONETA        VERMELHA  00000000RUBENITA RIBEIRO CASTRO                     RUA PRES MEDICE NR. 1860                - CENTRO                                65921000CIDELANDIA          MAAVANCAR SINAL VERMELHO DO SEMAFORO                208                00000000060501   0000293470075720191129202001130000000000000000000000000                                                00000000000  000   2     00070436185049660501PASSAGEIRO
2000000000468620191128207570PREF. DE: MA - CAXIAS                   CXA0078555201911131710RUA 01 DE AGOSTO                                            OXU6175MA123611-SAMTHONDA/POP100                                 PARTICULAR                    MOTOCICLETA     PRETA     00000000MEIRE PIMENTEL CORREIA MESQUITA             RUA PRINCESA ISABEL NR. 1661            - CASTELO BRANCO                        65600000CAXIAS              MACOND. MOTOC/MOTON./CICLOM TRANSPORTANDO/PASSAG.S/C244 * II           00000000070481   0000293470075720191129202001130000000000000000000000000                                                00000000000  000   3     00070436185402570481PASSAGEIRO
2000000000468620191128207570PREF. DE: MA - CAXIAS                   CXA0077145201911131040AV OTAVIO PASSOS                                            NNG0250MA122061-SAMTHONDA/CG150 TITAN MIX EX                     PARTICULAR                    MOTOCICLETA     PRETA     00000000MARIA DO P SOCORRO A DA SILVA               AV 07 NR. 2                             QD 25 - CJR COHAB                       65600000CAXIAS              MAESTAC. EM LOCAL/HORARIO PROIBIDO ESPECIFIC. P/SINA181*XVIII          00000000055500   0000130160075720191129202001130000000000000000000000000                                                00000000000  000   4     00040436186177355500PASSAGEIRO
2000000000468620191128207570PREF. DE: MA - CAXIAS                   CXA0077144201911131035AV OTAVIO PASSOS                                            OIV5588MA122061-SAMTHONDA/BIZ 125 ES                             PARTICULAR                    MOTONETA        PRETA     00000000ANA PAULA DE CASTRO ARAUJO                  RUA ARARAS QD B NR. 35                  - SABIA                                 65607610CAXIAS              MAESTAC. EM LOCAL/HORARIO PROIBIDO ESPECIFIC. P/SINA181*XVIII          00000000055500   0000130160075720191129202001130000000000000000000000000                                                00000000000  000   5     00040436186266455500PASSAGEIRO
2000000000468620191128207570PREF. DE: MA - CAXIAS                   CXA0077149201911131020PCA CANDIDO MENDES                                          OXW1459MA122061-SAMTHONDA/BIZ 125 ES                             PARTICULAR                    MOTONETA        VERMELHA  00000000FRANCIS DALVA MAIA DOS SANTOS               RUA ERNESTO GEISEL NR. 736              - SALOBRO                               65600000CAXIAS              MACOND. MOTOC/MOTON./CICLOM TRANSPORTANDO/PASSAG.S/C244 * II           00000000070481   0000293470075720191129202001130000000000000000000000000                                                00000000000  000   6     00070436186351270481PASSAGEIRO
2000000000468620191128207570PREF. DE: MA - CAXIAS                   CXA0077041201911141120RUA RIO BRANCO                                              PTB9247MA138301-SAMTFIAT/STRADA HD WK CD E                       PARTICULAR                    CAMINHONETE     VERMELHA  00000000ABILEMAR ALVES PINHEIRO                     RUA SEN CLODOMIR CARDOSO NR. 715        - CANGALHEIRO                           65606530CAXIAS              MAESTAC. VEIC. NAS ESQU. E MENOS DE 5M DO ALINHAMENT181 * I            00000000053800   0000130160075720191129202001130000000000000000000000000                                                00000000000  000   7     00040436186403953800ESPECIAL
2000000000468620191128207570PREF. DE: MA - CAXIAS                   CXA0078558201911141605RUA MENINO DEUS                                             PTD8271MA123611-SAMTHONDA/CB 250F TWISTER                        PARTICULAR                    MOTOCICLETA     PRETA     00000000NOADIA MERCIA ALVES COUTINHO                RUA SAO VICENTE DE PAULA NR. 405        - MUTIRAO                               65604840CAXIAS              MACOND. MOTOC/MOTON./CICLOM TRANSPORTANDO/PASSAG.S/C244 * II           00000000070481   0000293470075720191129202001130000000000000000000000000                                                00000000000  000   8     00070436186464070481PASSAGEIRO
2000000000468620191128207570PREF. DE: MA - CAXIAS                   CXA0078559201911141605RUA MENINO DEUS                                             PTM4925MA123611-SAMTHONDA/POP 110I                               PARTICULAR                    MOTOCICLETA     BRANCA    00000000JOAO DE DEUS AGUIAR DA S FILHO              RUA 21 DE ABRIL NR. 1469                - VOLTA REDONDA                         65606350CAXIAS              MACOND. MOTOC/MOTON./CICLOM TRANSPORTANDO/PASSAG.S/C244 * II           00000000070481   0000293470075720191129202001130000000000000000000000000                                                00000000000  000   9     00070436186542670481PASSAGEIRO
2000000000468620191128207570PREF. DE: MA - CAXIAS                   CXA0078560201911141610RUA MENINO DEUS                                             PTM4814MA123611-SAMTHONDA/CG 160 FAN                             PARTICULAR                    MOTOCICLETA     PRETA     00000000RAYLANE DA SILVA FERREIRA                   II TV DAS FLORES NR. 1105               - SERIEMA                               65602561CAXIAS              MACOND. MOTOC/MOTON./CICLOM TRANSPORTANDO/PASSAG.S/C244 * II           00000000070481   0000293470075720191129202001130000000000000000000000000                                                00000000000  000   10    00070436186607470481PASSAGEIRO
2000000000468620191128207570PREF. DE: MA - CAXIAS                   CXA0077945201911141140AV OTAVIO PASSOS                                            PSQ5877MA306051-SAMTHONDA/POP 110I                               PARTICULAR                    MOTOCICLETA     PRETA     00000000BERNARDO NONATO DOS SANTOS                  AV VOLTA REDONDA NR. 1326               - VOLTA REDONDA                         65606730CAXIAS              MAESTAC. EM DESACORDO C/ A REGULAMENTACAO ESPECIFICA181 * XVII         00000000055411   0000195230075720191129202001130000000000000000000000000                                                00000000000  000   11    00050436186635055411PASSAGEIRO
2000000000468620191128207570PREF. DE: MA - CAXIAS                   CXA0078554201911131705RUA 01 DE AGOSTO                                            PSL3223MA123611-SAMTHONDA/POP100                                 PARTICULAR                    MOTOCICLETA     BRANCA    00000000CLAUDIO LUCIANO DA C FIGUEIRAS              R SAO JOSE NR. 1746                     - NAZARE                                65600010CAXIAS              MACOND. MOTOCICLETA/MOTONETA/CICLOM S/CAPACETE DE SE244 * I            00000000070301   0000293470075720191129202001130000000000000000000000000                                                00000000000  000   12    00070436186687270301PASSAGEIRO
2000000000468620191128207570PREF. DE: MA - CAXIAS                   CXA0078236201911180850RUA RIO BRANCO                                              NNE5549MA305941-SAMTHONDA/NXR150 BROS MIX ES                     PARTICULAR                    MOTOCICLETA     LARANJA   00000000ANDREIA ALVES DOS SANTOS                    RUA 1 DE MAIO NR. 08                    QD C13 - VL PARAISO                     65600010CAXIAS              MACOND. MOTOC/MOTON./CICLOM TRANSPORTANDO/PASSAG.S/C244 * II           00000000070481   0000293470075720191129202001130000000000000000000000000                                                00000000000  000   13    00070436193281670481PASSAGEIRO
2000000000468620191128207570PREF. DE: MA - CAXIAS                   CXA0078234201911180841RUA DAS OTICAS                                              OJN3313MA305941-SAMTHONDA/BIZ 125 ES                             PARTICULAR                    MOTONETA        PRETA     00000000CARLOS AUGUSTO O DO NASCIMENTO              RUA MANOEL GONCALVES NR. 1680           - CENTRO                                65600000CAXIAS              MACOND. MOTOCICLETA/MOTONETA/CICLOM S/CAPACETE DE SE244 * I            00000000070301   0000293470075720191129202001130000000000000000000000000                                                00000000000  000   14    00070436193991870301PASSAGEIRO
2000000000468620191128207570PREF. DE: MA - CAXIAS                   CXA0078232201911180831RUA RIO BRANCO                                              AKO7645MA305941-SAMTFORD/F 250 TROPICAL F                        PARTICULAR                    CAMIONETA       VERDE     00000000JONAS ALVES DOS SANTOS                      RUA CONEGO ANDERSON NR. 599             - CENTRO                                65783000SEN. ALEXANDRE COSTAMAESTAC. EM DESACORDO C/ A REGULAMENTACAO ESPECIFICA181 * XVII         00000000055411   0000195230075720191129202001130000000000000000000000000                                                00000000000  000   15    00050436194921255411MISTO
2000000000468620191128207570PREF. DE: MA - CAXIAS                   CXA0078230201911180715PCA PANTHEON                                                PSO2684MA305941-SAMTHONDA/NXR125 BROS ES                         PARTICULAR                    MOTOCICLETA     VERMELHA  00000000ELIVALDO DA SILVA DE SA                     R ONZE NR. 908                          - RES PAMPULHA                          65600200CAXIAS              MACOND. MOTOCICLETA/MOTONETA/CICLOM S/CAPACETE DE SE244 * I            00000000070301   0000293470075720191129202001130000000000000000000000000                                                00000000000  000   16    00070436195130670301PASSAGEIRO
2000000000468620191128207570PREF. DE: MA - CAXIAS                   CXA0077950201911180827RUA MENINO DEUS                                             OJI2185MA306051-SAMTHONDA/POP100                                 PARTICULAR                    MOTOCICLETA     LARANJA   00000000EDILEUSA ALVES DE FREITAS                   RUA SANTA RITA NR. 626                  - PONTE                                 65600000CAXIAS              MACOND. MOTOCICLETA/MOTONETA/CICLOM S/CAPACETE DE SE244 * I            00000000070301   0000293470075720191129202001130000000000000000000000000                                                00000000000  000   17    00070436195195070301PASSAGEIRO
2000000000468620191128207570PREF. DE: MA - CAXIAS                   CXA0077949201911180825MENINO DEUS                                                 OIV5588MA306051-SAMTHONDA/BIZ 125 ES                             PARTICULAR                    MOTONETA        PRETA     00000000ANA PAULA DE CASTRO ARAUJO                  RUA ARARAS QD B NR. 35                  - SABIA                                 65607610CAXIAS              MACOND. MOTOC/MOTON./CICLOM TRANSPORTANDO/PASSAG.S/C244 * II           00000000070481   0000293470075720191129202001130000000000000000000000000                                                00000000000  000   18    00070436195325270481PASSAGEIRO
2000000000468620191128207570PREF. DE: MA - CAXIAS                   CXA0077948201911180820RUA MENINO DEUS                                             OXS5803MA306051-SAMTHONDA/POP100                                 PARTICULAR                    MOTOCICLETA     VERMELHA  00000000REGINALDO FERREIRA DE MELO                  RUA 05 NR. 05                           - VL LUIZAO                             65763000TUNTUM              MACOND. MOTOC/MOTON./CICLOM TRANSPORTANDO/PASSAG.S/C244 * II           00000000070481   0000293470075720191129202001130000000000000000000000000                                                00000000000  000   19    00070436195508570481PASSAGEIRO
2000000000468620191128207570PREF. DE: MA - CAXIAS                   CXA0077946201911180810RUA MENINO DEUS                                             PTO5241MA306051-SAMTHONDA/CG 160 FAN                             PARTICULAR                    MOTOCICLETA     VERMELHA  00000000EDSON LOPES SOARES                          RUA CAJUEIRO NR. 277                    - SAO FRANCISCO                         65365000ZE DOCA             MACOND. MOTOCICLETA/MOTONETA/CICLOM S/CAPACETE DE SE244 * I            00000000070301   0000293470075720191129202001130000000000000000000000000                                                00000000000  000   20    00070436195744470301PASSAGEIRO
2000000000468620191128207570PREF. DE: MA - CAXIAS                   CXA0078374201911180921PCA RUY BARBOSA                                             PTI5321MA122111-SAMTHONDA/NXR 160 BROS                           PARTICULAR                    MOTOCICLETA     BRANCA    00000000FRANCISCO IDERLAN COSTA                     R MANOEL GONCALVES NR. 1610             - CENTRO                                65600010CAXIAS              MACOND. MOTOC/MOTON./CICLOM TRANSPORTANDO/PASSAG.S/C244 * II           00000000070481   0000293470075720191129202001130000000000000000000000000                                                00000000000  000   21    00070436203924470481PASSAGEIRO
2000000000468620191128207570PREF. DE: MA - CAXIAS                   CXA0078373201911180820RUA MENINO DEUS                                             OJQ3501MA122111-SAMTYAMAHA/T115 CRYPTON K                        PARTICULAR                    MOTONETA        AZUL      00000000SANDRA DE MORAIS SILVA                      LG SAO JOAO NR. 773                     - VL SAO JOAO                           65600000CAXIAS              MACOND. MOTOC/MOTON./CICLOM TRANSPORTANDO/PASSAG.S/C244 * II           00000000070481   0000293470075720191129202001130000000000000000000000000                                                00000000000  000   22    00070436204198270481PASSAGEIRO
2000000000468620191128207570PREF. DE: MA - CAXIAS                   CXA0078372201911180812RUA MENINO DEUS                                             OJQ0457MA122111-SAMTHONDA/BIZ 125 ES                             PARTICULAR                    MOTONETA        PRETA     00000000MARIA ZULENE MONTEIRO PINTO                 RUA MARCIA MARINHO NR. 401              - JOSE CASTRO                           65600000CAXIAS              MACOND. MOTOC/MOTON./CICLOM TRANSPORTANDO/PASSAG.S/C244 * II           00000000070481   0000293470075720191129202001130000000000000000000000000                                                00000000000  000   23    00070436204487670481PASSAGEIRO
3000023000000000023
