1*NATI207570202001090047802020010900000000000000
2000000000478020200109207570PREF. DE: MA - CAXIAS                   CXA0078965201912120958RUA AARAO REIS                                              NXC5696MA305941-SAMTHONDA/CG 125 FAN KS                          PARTICULAR                    MOTOCICLETA     ROXA      00000000PEDRO BRITO SOUSA JUNIOR                    RUA 25 QD 30 NR. 18                     - COHAB                                 65600000CAXIAS              MACOND. MOTOC/MOTON./CICLOM TRANSPORTANDO/PASSAG.FOR244 * II           00000000070483   0000293470075720200110202002240000000000000000000000000                                                00000000000  000   1     00070444737551670483PASSAGEIRO
2000000000478020200109207570PREF. DE: MA - CAXIAS                   CXA0078966201912121038PCA DUQUE DE CAXIAS                                         OJG5046MA305941-SAMTHONDA/BIZ 100 ES                             PARTICULAR                    MOTONETA        PRETA     00000000VERONICA SILVA DE CARVALHO                  AV BENJAMIM CONSTANT NR. 2017           - NOVA CAXIAS                           65600000CAXIAS              MACOND. MOTOCICLETA/MOTONETA/CICLOM S/CAPACETE DE SE244 * I            00000000070301   0000293470075720200110202002240000000000000000000000000                                                00000000000  000   2     00070444738013770301PASSAGEIRO
2000000000478020200109207570PREF. DE: MA - CAXIAS                   CXA0078967201912121100AV GENERAL SAMPAIO                                          OJP0585MA305941-SAMTHONDA/BIZ 125 EX                             PARTICULAR                    MOTONETA        BRANCA    00000000ROSIANIA DE CASTRO NEGREIROS                RUA MANOEL EMIDIO NR. 864               - JOAO VIANA                            65605000CAXIAS              MACOND. MOTOCICLETA/MOTONETA/CICLOM S/CAPACETE DE SE244 * I            00000000070301   0000293470075720200110202002240000000000000000000000000                                                00000000000  000   3     00070444738043970301PASSAGEIRO
2000000000478020200109207570PREF. DE: MA - CAXIAS                   CXA0078333201912121140RUA MENINO DEUS                                             OXZ1240MA301942-SAMTHONDA/POP100                                 PARTICULAR                    MOTOCICLETA     BRANCA    00000000RAIMUNDO VIEIRA LIMA                        RUA SAO JOAO NR. 867                    - CALDEIROES                            65600000CAXIAS              MACOND. MOTOC/MOTON./CICLOM TRANSPORTANDO/PASSAG.S/C244 * II           00000000070481   0000293470075720200110202002240000000000000000000000000                                                00000000000  000   4     00070444738098670481PASSAGEIRO
2000000000478020200109207570PREF. DE: MA - CAXIAS                   CXA0079107201912121530PCA PANTHEON                                                OXS0506MA123611-SAMTHONDA/BIZ 125 ES                             PARTICULAR                    MOTONETA        VERMELHA  00000000CELIANA LIMA DA SILVA                       RUA TEIXEIRA DE FREITAS NR. 2001        - RAMAL                                 65700000BACABAL             MACOND. MOTOC/MOTON./CICLOM TRANSPORTANDO/PASSAG.S/C244 * II           00000000070481   0000293470075720200110202002240000000000000000000000000                                                00000000000  000   5     00070444738327670481PASSAGEIRO
2000000000478020200109207570PREF. DE: MA - CAXIAS                   CXA0079108201912121535RUA MENINO DEUS                                             NMV4013MA123611-SAMTHONDA/NXR150 BROS ES                         PARTICULAR                    MOTOCICLETA     VERMELHA  00000000FRANCISCO DE ASSIS P DOS SANTOS             RUA ANTONIO PEREIRA NR. 411             A - OLHO DAGUA                          65600010CAXIAS              MACOND. MOTOCICLETA/MOTONETA/CICLOM S/CAPACETE DE SE244 * I            00000000070301   0000293470075720200110202002240000000000000000000000000                                                00000000000  000   6     00070444738514770301PASSAGEIRO
2000000000478020200109207570PREF. DE: MA - CAXIAS                   CXA0079109201912121620AV DA RODOVIARIA                                            HQD4227MA123611-SAMTHONDA/CG 150 TITAN KS                        PARTICULAR                    MOTOCICLETA     PRATA     00000000ANDRE LUIZ ANDRADE A VILANOVA               R.ESPIRITO SANTO NR. 1215               - CANGALHEIRO                           65600000CAXIAS              MACOND. MOTOCICLETA/MOTONETA/CICLOM S/CAPACETE DE SE244 * I            00000000070301   0000293470075720200110202002240000000000000000000000000                                                00000000000  000   7     00070444738594570301PASSAGEIRO
2000000000478020200109207570PREF. DE: MA - CAXIAS                   CXA0079110201912121635AV DA RODOVIARIA                                            PSM0782MA123611-SAMTHONDA/POP 110I                               PARTICULAR                    MOTOCICLETA     VERMELHA  00000000ANTONIO DA PAZ CABRAL                       PV OLHO DAGUA NR. 0                     - LARANJEIRA                            65605390CAXIAS              MACOND. MOTOC/MOTON./CICLOM TRANSPORTANDO/PASSAG.S/C244 * II           00000000070481   0000293470075720200110202002240000000000000000000000000                                                00000000000  000   8     00070444738662370481PASSAGEIRO
2000000000478020200109207570PREF. DE: MA - CAXIAS                   CXA0079111201912121700AV LUIS SALES                                               PSH7080MA123611-SAMTHONDA/CG 125 FAN KS                          PARTICULAR                    MOTOCICLETA     VERMELHA  00000000PEDRO SOARES DE SOUSA                       RUA PAULISTANO NR. 557                  - PIRAJA                                65608040CAXIAS              MADIR.VEIC. UTILIZANDO-SE DE FONES NOS OUVIDOS APAR.252 * VI           00000000073661   0000130160075720200110202002240000000000000000000000000                                                00000000000  000   9     00040444738701873661PASSAGEIRO
2000000000478020200109207570PREF. DE: MA - CAXIAS                   CXA0079112201912121705AV LUIS SALES                                               PTG0159MA123611-SAMTHONDA/POP 110I                               PARTICULAR                    MOTOCICLETA     VERMELHA  00000000JUCILEIDE CARNEIRO SILVA                    R ROSENDO BARB DE SOUSA NR. 1604        - ITAPECURUZINHO                        65600010CAXIAS              MACOND. MOTOC/MOTON./CICLOM TRANSPORTANDO/PASSAG.S/C244 * II           00000000070481   0000293470075720200110202002240000000000000000000000000                                                00000000000  000   10    00070444738729870481PASSAGEIRO
2000000000478020200109207570PREF. DE: MA - CAXIAS                   CXA0079114201912121730AV LUIS SALES                                               OIW3263MA123611-SAMTHONDA/POP100                                 PARTICULAR                    MOTOCICLETA     ROXA      00000000LUISA LEAO DA SILVA                         TV SAO FRANCISCO NR. 1825               - VOLTA REDONDA                         65606370CAXIAS              MACOND. MOTOC/MOTON./CICLOM TRANSPORTANDO/PASSAG.S/C244 * II           00000000070481   0000293470075720200110202002240000000000000000000000000                                                00000000000  000   11    00070444738793070481PASSAGEIRO
2000000000478020200109207570PREF. DE: MA - CAXIAS                   CXA0079115201912121735AV LUIS SALES                                               PTN5513MA123611-SAMTHONDA/POP 110I                               PARTICULAR                    MOTOCICLETA     VERMELHA  00000000LECIONE DA SILVA SOUSA                      RUA SANTO ANTONIO NR. 528               - BACURI                                65603810CAXIAS              MACOND. MOTOC/MOTON./CICLOM TRANSPORTANDO/PASSAG.S/C244 * II           00000000070481   0000293470075720200110202002240000000000000000000000000                                                00000000000  000   12    00070444738874070481PASSAGEIRO
2000000000478020200109207570PREF. DE: MA - CAXIAS                   CXA0079116201912131620PCA CESARIO LIMA                                            NWS3191MA123611-SAMTM.BENZ/710                                   PARTICULAR                    CAMINHAO        AZUL      00000000JOSE DE RIBAMAR OLIVEIRA X FILHO            R PRES DUTRA NR. 15                     QD E - NOVA CAXIAS                      65600001CAXIAS              MAESTACIONAR AO LADO DE OUTRO VEICULO EM FILA DUPLA 181 * XI           00000000054870   0000195230075720200110202002240000000000000000000000000                                                00000000000  000   13    00050444738926654870CARGA
2000000000478020200109207570PREF. DE: MA - CAXIAS                   CXA0077999201912131005PCA CANDIDO MENDES                                          HPM1596MA78162-SAMT HONDA/XLR 125                                PARTICULAR                    MOTOCICLETA     VERMELHA  00000000PAULO RIBEIRO DUO                           RUA DAS FLORES NR. 1060                 - SIRIEMA                               65600000CAXIAS              MAESTAC. EM DESACORDO C/ A REGULAMENTACAO ESPECIFICA181 * XVII         00000000055411   0000195230075720200110202002240000000000000000000000000                                                00000000000  000   14    00050444739179155411PASSAGEIRO
2000000000478020200109207570PREF. DE: MA - CAXIAS                   CXA0078968201912131000TV CAETANO CARVALHO                                         HVW2304MA305941-SAMTFIAT/UNO MILLE FIRE                          PARTICULAR                    AUTOMOVEL       PRETA     00000000CRISTIANO MENDES DA SILVA                   III TV SAO JOSE NR. 905                 - FAZENDINHA                            65600010CAXIAS              MAESTACIONAR EM DESACORDO C/REGULAM-VAGA DE CARGA/DE181 * XVII         00000000055414   0000195230075720200110202002240000000000000000000000000                                                00000000000  000   15    00050444739612255414PASSAGEIRO
2000000000478020200109207570PREF. DE: MA - CAXIAS                   CXA0078970201912131057PCA RUI BARBOSA                                             OJH5610MA305941-SAMTYAMAHA/YBR125 FACTOR K                       PARTICULAR                    MOTOCICLETA     PRETA     00000000SALOMAO LEITAO POVOAS                       RUA ESPIRITO SANTO NR. 627              - SIRIEMA                               65600000CAXIAS              MACOND. MOTOCICLETA/MOTONETA/CICLOM S/CAPACETE DE SE244 * I            00000000070301   0000293470075720200110202002240000000000000000000000000                                                00000000000  000   16    00070444739926170301PASSAGEIRO
2000000000478020200109207570PREF. DE: MA - CAXIAS                   CXA0078971201912131100RUA 01 DE AGOSTO                                            OJK2063MA305941-SAMTHONDA/BIZ 100 ES                             PARTICULAR                    MOTONETA        PRETA     00000000ELIZANGELA BARBOSA GONCALVES                RUA SATURNINO BELO NR. 2963             - SAO FRANCISCO                         65600000CAXIAS              MACOND. MOTOCICLETA/MOTONETA/CICLOM S/CAPACETE DE SE244 * I            00000000070301   0000293470075720200110202002240000000000000000000000000                                                00000000000  000   17    00070444742793170301PASSAGEIRO
2000000000478020200109207570PREF. DE: MA - CAXIAS                   CXA0078972201912131114AV GETULIO VARGAS                                           OJP7726MA305941-SAMTCHEVROLET/S10 LTZ FD2                        PARTICULAR                    CAMINHONETE     BRANCA    00000000LARISSA SEREJO MARINHO                      RUA TEOFILO DIAS NR. 1209               - CENTRO                                65606000CAXIAS              MAESTACIONAR AO LADO/SOBRE DIVISORES DE PISTA DE ROL181 * VIII         00000000054526   0000195230075720200110202002240000000000000000000000000                                                00000000000  000   18    00050444747423954526ESPECIAL
2000000000478020200109207570PREF. DE: MA - CAXIAS                   CXA0078974201912131136RUA GUSTAVO COLACO                                          NHD5335MA305941-SAMTHONDA/POP100                                 PARTICULAR                    MOTOCICLETA     AZUL      00000000FRANCISCA ALVES DOS REIS SANTOS             R. TAMARINEIRO NR. 1131                 - TAMARINEIRO                           65608230CAXIAS              MAESTAC. EM DESACORDO C/ A REGULAMENTACAO ESPECIFICA181 * XVII         00000000055411   0000195230075720200110202002240000000000000000000000000                                                00000000000  000   19    00050444748840055411PASSAGEIRO
2000000000478020200109207570PREF. DE: MA - CAXIAS                   CXA0078976201912131140RUA GUSTAVO COLACO                                          NHI7939MA305941-SAMTHONDA/CG 150 TITAN ES                        PARTICULAR                    MOTOCICLETA     PRETA     00000000CARMICELIA SANTANA DA CONCEICAO             RUA SAO RAIMUNDO NR. 572                - SAO RAIMUNDO                          65783000SEN. ALEXANDRE COSTAMAESTAC. EM DESACORDO C/ A REGULAMENTACAO ESPECIFICA181 * XVII         00000000055411   0000195230075720200110202002240000000000000000000000000                                                00000000000  000   20    00050444751915155411PASSAGEIRO
2000000000478020200109207570PREF. DE: MA - CAXIAS                   CXA0078977201912131143RUA GUSTAVO COLACO                                          PSC3020MA305941-SAMTHONDA/POP100                                 PARTICULAR                    MOTOCICLETA     BRANCA    00000000ELENICE MARIA ROCHA SANTOS                  TRA SANTA RITA NR. 244                  - PONTE                                 65609390CAXIAS              MAESTAC. EM DESACORDO C/ A REGULAMENTACAO ESPECIFICA181 * XVII         00000000055411   0000195230075720200110202002240000000000000000000000000                                                00000000000  000   21    00050444752104055411PASSAGEIRO
2000000000478020200109207570PREF. DE: MA - CAXIAS                   CXA0078982201912131219AV LUIS SALES                                               NHS7099MA305941-SAMTHONDA/BIZ 125 ES                             PARTICULAR                    MOTONETA        CINZA     00000000REGINALDO SILVA DOS SANTOS                  RUA AMAZONAS NR. 561                    - PIRAJA                                65608420CAXIAS              MACOND. MOTOCICLETA/MOTONETA/CICLOM S/CAPACETE DE SE244 * I            00000000070301   0000293470075720200110202002240000000000000000000000000                                                00000000000  000   22    00070444752383370301PASSAGEIRO
2000000000478020200109207570PREF. DE: MA - CAXIAS                   CXA0078983201912131223AV PIRAJA                                                   NMS9290MA305941-SAMTHONDA/BIZ 125 ES                             PARTICULAR                    MOTONETA        VERMELHA  00000000ROSILENE ARAUJO DA SILVA                    R.DO MATADOURO N.428 NR.                - TREZIDELA                             65600000CAXIAS              MACOND. MOTOC/MOTON./CICLOM TRANSPORTANDO/PASSAG.S/C244 * II           00000000070481   0000293470075720200110202002240000000000000000000000000                                                00000000000  000   23    00070444752461970481PASSAGEIRO
2000000000478020200109207570PREF. DE: MA - CAXIAS                   CXA0078979201912131147RUA GUSTAVO COLASSO                                         NHA5174MA122111-SAMTVW/24.250 CNC 6X2                            PARTICULAR                    CAMINHAO        PRATA     00000000F.C.OLIVEIRA & CIA LTDA                     AV.SANTOS DUMONT NR. 4130               FABRICA - S.SEBASTIAO                   65400000CODO                MAESTACIONAR EM DESACORDO C/REGULAM-VAGA DE CARGA/DE181 * XVII         00000000055414   0000195230075720200110202002240000000000000000000000000                                                00000000000  000   24    00050444752695655414CARGA
2000000000478020200109207570PREF. DE: MA - CAXIAS                   CXA0078981201912131151RUA GUSTAVO COLACO                                          HQB8032MA122111-SAMTHONDA/CG 150 SPORT                           PARTICULAR                    MOTOCICLETA     VERMELHA  00000000RICARDO SOUSA BEZERRA                       R PORTO POLVORA NR. 561                 - CAMGALHEIRO                           65606540CAXIAS              MAESTAC. EM DESACORDO C/ A REGULAMENTACAO ESPECIFICA181 * XVII         00000000055411   0000195230075720200110202002240000000000000000000000000                                                00000000000  000   25    00050444752946755411PASSAGEIRO
2000000000478020200109207570PREF. DE: MA - CAXIAS                   CXA0078692201912131650PCA CANDIDO MENDES                                          PSH4164MA122181-SAMTHONDA/CG 125 FAN KS                          PARTICULAR                    MOTOCICLETA     PRETA     00000000LUIZ TORRES PINHEIRO TERCEIRO               AV MATOES QD A NR. 17                   - TESO DURO                             65604560CAXIAS              MACOND. MOTOC/MOTON./CICLOM TRANSPORTANDO/PASSAG.S/C244 * II           00000000070481   0000293470075720200110202002240000000000000000000000000                                                00000000000  000   26    00070444753028770481PASSAGEIRO
2000000000478020200109207570PREF. DE: MA - CAXIAS                   CXA0078689201912131635PCA CANDIDO MENDES                                          OIZ1499MA122161-SAMTHONDA/POP100                                 PARTICULAR                    MOTOCICLETA     ROXA      00000000MARIA DO CARMO PAIVA                        TRAV PE DA LADEIRA NR. 1767             - CASTELO BRANCO                        65600000CAXIAS              MACOND. MOTOC/MOTON./CICLOM TRANSPORTANDO/PASSAG.S/C244 * II           00000000070481   0000293470075720200110202002240000000000000000000000000                                                00000000000  000   27    00070444753755970481PASSAGEIRO
3000027000000000027
