1*NATI207570201911260046782019112600000000000000
2000000000467820191126207570PREF. DE: MA - CAXIAS                   CXA0078174201910311710AV LUIS SALES                                               PSG8018MA122131-SAMTHONDA/POP100                                 PARTICULAR                    MOTOCICLETA     PRETA     00000000RITA DE CASSIA O DA SILVA LIMA              TV VOLTA REDONDA NR. 565                - VOLTA REDONDA                         65606390CAXIAS              MACOND. MOTOC/MOTON./CICLOM TRANSPORTANDO/PASSAG.S/C244 * II           00000000070481   0000293470075720191127202001100000000000000000000000000                                                00000000000  000   1     00070435658215270481PASSAGEIRO
2000000000467820191126207570PREF. DE: MA - CAXIAS                   CXA0078175201910311725AV LUIS SALES                                               NNI7563MA122131-SAMTYAMAHA/FACTOR YBR125 K                       PARTICULAR                    MOTOCICLETA     PRETA     00000000JOAO RAYENDER CUNHA                         R BELA VISTA NR. 1020                   - CASTELO BRANCO                        65600010CAXIAS              MACOND. MOTOC/MOTON./CICLOM TRANSPORTANDO/PASSAG.S/C244 * II           00000000070481   0000293470075720191127202001100000000000000000000000000                                                00000000000  000   2     00070435658245470481PASSAGEIRO
2000000000467820191126207570PREF. DE: MA - CAXIAS                   CXA0078176201910311740AV LUIS SALES                                               PSE2795MA122131-SAMTHONDA/POP100                                 PARTICULAR                    MOTOCICLETA     VERMELHA  00000000ZENADIO PEREIRA DA SILVA                    RUA NOVA OLINDA NR. 1379                - SANTA TEREZINHA                       65400000CODO                MACOND. MOTOC/MOTON./CICLOM TRANSPORTANDO/PASSAG.S/C244 * II           00000000070481   0000293470075720191127202001100000000000000000000000000                                                00000000000  000   3     00070435658273070481PASSAGEIRO
2000000000467820191126207570PREF. DE: MA - CAXIAS                   CXA0078177201910311750AV LUIS SALES                                               PSW7867MA122131-SAMTHONDA/NXR 160 BROS                           PARTICULAR                    MOTOCICLETA     BRANCA    00000000MARDEN JOSE SILVA DO NASCIMENTO             RUA SANTA LUZIA NR. 428                 - TAMARINEIRO                           65608260CAXIAS              MACOND. MOTOC/MOTON./CICLOM TRANSPORTANDO/PASSAG.S/C244 * II           00000000070481   0000293470075720191127202001100000000000000000000000000                                                00000000000  000   4     00070435658300070481PASSAGEIRO
2000000000467820191126207570PREF. DE: MA - CAXIAS                   CXA0078178201910311755AV LUIS SALES                                               NXB7801MA122131-SAMTHONDA/POP100                                 PARTICULAR                    MOTOCICLETA     PRETA     00000000CONCEICAO DE MARIA SILVA                    R GUILHERME DE ABREU NR. 1736           - PONTE                                 65609470CAXIAS              MACOND. MOTOC/MOTON./CICLOM TRANSPORTANDO/PASSAG.S/C244 * II           00000000070481   0000293470075720191127202001100000000000000000000000000                                                00000000000  000   5     00070435658325670481PASSAGEIRO
2000000000467820191126207570PREF. DE: MA - CAXIAS                   CXA0078180201911011555PCA CANDIDO MENDES                                          OXS8116MA123611-SAMTHONDA/POP100                                 PARTICULAR                    MOTOCICLETA     PRETA     00000000MARIA EUNICE BEZERRA MENDES                 RUA TAMARINEIRO NR. 503                 - TAMARINEIRO                           65607240CAXIAS              MACOND. MOTOC/MOTON./CICLOM TRANSPORTANDO/PASSAG.S/C244 * II           00000000070481   0000293470075720191127202001100000000000000000000000000                                                00000000000  000   6     00070435663532970481PASSAGEIRO
2000000000467820191126207570PREF. DE: MA - CAXIAS                   CXA0078405201911011450RUA MENINO DEUS                                             OIZ2371MA122221-SAMTYAMAHA/XTZ 125XE                             PARTICULAR                    MOTOCICLETA     PRETA     00000000JOSE DE SOUSA                               TV DA FAVEIRA NR. 328                   - BAIXINHA                              65600000CAXIAS              MACOND. MOTOC/MOTON./CICLOM TRANSPORTANDO/PASSAG.S/C244 * II           00000000070481   0000293470075720191127202001100000000000000000000000000                                                00000000000  000   7     00070435663646570481PASSAGEIRO
2000000000467820191126207570PREF. DE: MA - CAXIAS                   CXA0078406201911011518PCA CANDIDO MENDES                                          NXJ2151MA122221-SAMTHONDA/CG 125 FAN KS                          ALUGUEL                       MOTOCICLETA     AMARELA   00000000MARIA EUGENIA DA SILVA                      TRAV SANTALUZIA I NR. 650               - CAMPO DE BELEM                        65607650CAXIAS              MACOND. MOTOC/MOTON./CICLOM TRANSPORTANDO/PASSAG.S/C244 * II           00000000070481   0000293470075720191127202001100000000000000000000000000                                                00000000000  000   8     00070435663892170481PASSAGEIRO
2000000000467820191126207570PREF. DE: MA - CAXIAS                   CXA0078407201911011520PCA CANDIDO MENDES                                          NHJ3233MA122221-SAMTHONDA/BIZ 125 KS                             PARTICULAR                    MOTONETA        CINZA     00000000MARY JANE OLIVEIRA C BRANCO                 AV 03 QD 02 CASA 30 NR.                 - CONJ COHAB                            65600000CAXIAS              MACOND. MOTOC/MOTON./CICLOM TRANSPORTANDO/PASSAG.S/C244 * II           00000000070481   0000293470075720191127202001100000000000000000000000000                                                00000000000  000   9     00070435663996070481PASSAGEIRO
2000000000467820191126207570PREF. DE: MA - CAXIAS                   CXA0078408201911011611RUA BENEDITO REIS                                           NHD6684MA122221-SAMTHONDA/POP100                                 PARTICULAR                    MOTOCICLETA     PRETA     00000000EDINIR DOS SANTOS VIANA                     R CAJUEIRO NR. 1089                     - SERIEMA                               65600000CAXIAS              MAESTAC. EM DESACORDO C/ A REGULAMENTACAO ESPECIFICA181 * XVII         00000000055411   0000195230075720191127202001100000000000000000000000000                                                00000000000  000   10    00050435664066755411PASSAGEIRO
2000000000467820191126207570PREF. DE: MA - CAXIAS                   CXA0078183201911011625PCA CANDIDO MENDES                                          OXS3449MA123611-SAMTHONDA/NXR150 BROS ES                         PARTICULAR                    MOTOCICLETA     PRETA     00000000ROBERTO RIVELINO ARAUJO SANTOS              RUA GALEANA NR. 06                      - OLHO D'AGUA                           65600000CAXIAS              MATRANSIT. P/ CONTRAMAO EM VIAS C/ SENT. UNICO      186 * II           00000000057380   0000293470075720191127202001100000000000000000000000000                                                00000000000  000   11    00070435665143057380PASSAGEIRO
2000000000467820191126207570PREF. DE: MA - CAXIAS                   CXA0078404201911011440PCA RUY BARBOSA                                             OXW0189MA122221-SAMTHONDA/CG 125 FAN KS                          PARTICULAR                    MOTOCICLETA     PRETA     00000000RAIMUNDO DEODATO DA SILVA                   TRAV MATOES NR. 79                      - VL ALECRIM                            65600000CAXIAS              MATRANSIT. P/ CONTRAMAO EM VIAS C/ SENT. UNICO      186 * II           00000000057380   0000293470075720191127202001100000000000000000000000000                                                00000000000  000   12    00070435665373457380PASSAGEIRO
2000000000467820191126207570PREF. DE: MA - CAXIAS                   CXA0077137201911011050RUA BENEDITO REIS                                           PSD7854MA122061-SAMTHONDA/BIZ 125 ES                             PARTICULAR                    MOTONETA        PRETA     00000000JACYARA MICHELLE MORAIS SOUTO               RUA SAO FRANCISCO NR. 1128              - VOLTA REDONDA                         65606360CAXIAS              MAESTACIONAR NAS VAGAS RESERV AS PESSOAS C/DEFIC.S/CART 181, XX        00000000076251   0000293470075720191127202001100000000000000000000000000                                                00000000000  000   13    00070435665913976251PASSAGEIRO
2000000000467820191126207570PREF. DE: MA - CAXIAS                   CXA0077138201911011055RUA BENEDITO REIS                                           MYV6421MA122061-SAMTMMC/L200 OUTDOOR                             PARTICULAR                    CAMINHONETE     PRATA     00000000PAULO DE ALMEIDA ROCHA                      RUA 6 NR. 1                             QD 20 - COHAB                           65600010CAXIAS              MAESTACIONAR NAS VAGAS RESERVADAS A IDOSOS, SEM CREDART 181, XX        00000000076252   0000293470075720191127202001100000000000000000000000000                                                00000000000  000   14    00070435666109576252ESPECIAL
2000000000467820191126207570PREF. DE: MA - CAXIAS                   CXA0077934201911011007RUA RIO DE JANEIRO                                          NXD9046MA306051-SAMTHONDA/CG 125 FAN KS                          PARTICULAR                    MOTOCICLETA     ROXA      00000000GERNUSE DA SILVA L ARAUJO                   RUA SANTO ANTONIO NR. 888               - JOAO VIANA                            65600000CAXIAS              MAESTAC. EM DESACORDO C/ A REGULAMENTACAO ESPECIFICA181 * XVII         00000000055411   0000195230075720191127202001100000000000000000000000000                                                00000000000  000   15    00050435666370555411PASSAGEIRO
2000000000467820191126207570PREF. DE: MA - CAXIAS                   CXA0078179201911011540PCA CANDIDO MENDES                                          OXR4986MA123611-SAMTHONDA/POP100                                 PARTICULAR                    MOTOCICLETA     VERMELHA  00000000MARINETE DOS SANTOS SOUSA                   RUA ALOISIO LOBO NR. 2059               - SAO FRANCISCO                         65600000CAXIAS              MACOND. MOTOC/MOTON./CICLOM TRANSPORTANDO/PASSAG.S/C244 * II           00000000070481   0000293470075720191127202001100000000000000000000000000                                                00000000000  000   16    00070435668460570481PASSAGEIRO
2000000000467820191126207570PREF. DE: MA - CAXIAS                   CXA0078268201911011610RUA BENEDITO REIS                                           NHS0918MA306461-SAMTHONDA/BIZ 125 ES                             PARTICULAR                    MOTONETA        PRETA     00000000FRANCILEINE RODRIGUES DA CONCEIC            RUA GETULIO VARGAS NR. N-760            - SALOBRO                               65600000CAXIAS              MAESTAC. EM DESACORDO C/ A REGULAMENTACAO ESPECIFICA181 * XVII         00000000055411   0000195230075720191127202001100000000000000000000000000                                                00000000000  000   17    00050435669288855411PASSAGEIRO
2000000000467820191126207570PREF. DE: MA - CAXIAS                   CXA0075296201911011010TRAV CAETANO CARVALHO                                       PST8084MA301942-SAMTHONDA/BIZ 125                                PARTICULAR                    MOTONETA        CINZA     00000000ADRIANA NASCIMENTO DE S SILVA               RUA PROF LEONCIO MAGNO NR. 1161         - VOLTA REDONDA                         65606410CAXIAS              MACOND. MOTOC/MOTON./CICLOM TRANSPORTANDO/PASSAG.S/C244 * II           00000000070481   0000293470075720191127202001100000000000000000000000000                                                00000000000  000   18    00070435669892470481PASSAGEIRO
2000000000467820191126207570PREF. DE: MA - CAXIAS                   CXA0078263201911011054AV GETULIO VARGAS                                           HPI9864MA305941-SAMTHONDA/CG 125 TITAN KSE                       PARTICULAR                    MOTOCICLETA     VERMELHA  00000000RAIMUNDO NONATO RAMOS                       FA NOVA NR. S/N                         - CENTRO                                65600000CAXIAS              MAESTAC. EM DESACORDO C/ A REGULAMENTACAO ESPECIFICA181 * XVII         00000000055411   0000195230075720191127202001100000000000000000000000000                                                00000000000  000   19    00050435670138055411PASSAGEIRO
2000000000467820191126207570PREF. DE: MA - CAXIAS                   CXA0078266201911011047AV GETULIO VARGAS                                           HPV0135MA305941-SAMTHONDA/CG 150 TITAN KS                        PARTICULAR                    MOTOCICLETA     PRETA     00000000FIRMO DA CONCEICAO                          R.MONTES CLAROS NR. 1255                - CAMPO DE BELEM                        65600000CAXIAS              MACOND. MOTOCICLETA/MOTONETA/CICLOM S/CAPACETE DE SE244 * I            00000000070301   0000293470075720191127202001100000000000000000000000000                                                00000000000  000   20    00070435670235270301PASSAGEIRO
2000000000467820191126207570PREF. DE: MA - CAXIAS                   CXA0078261201911011014AV SANTOS DRUMONT                                           PSC3053MA305941-SAMTHONDA/NXR150 BROS ESD                        PARTICULAR                    MOTOCICLETA     PRETA     00000000C A X DA CUNHA ME                           RUA 31 DE MARCO NR. 2503                LETRA A - SERIEMA                       65602320CAXIAS              MACOND. MOTOCICLETA/MOTONETA/CICLOM S/CAPACETE DE SE244 * I            00000000070301   0000293470075720191127202001100000000000000000000000000                                                00000000000  000   21    00070435670339170301PASSAGEIRO
2000000000467820191126207570PREF. DE: MA - CAXIAS                   CXA0078259201911011002AV SANTOS DRUMONT                                           OJI0620MA305941-SAMTHONDA/NXR125 BROS KS                         PARTICULAR                    MOTOCICLETA     LARANJA   00000000AURILENE LIMA DE SOUSA                      RUA SAO JOAO NR. 1381                   - SIRIEMA                               65600000CAXIAS              MATRANSIT. P/ CONTRAMAO EM VIAS C/ SENT. UNICO      186 * II           00000000057380   0000293470075720191127202001100000000000000000000000000                                                00000000000  000   22    00070435670501757380PASSAGEIRO
2000000000467820191126207570PREF. DE: MA - CAXIAS                   CXA0078258201911010954RUA DR. BERREDO                                             PSB2589MA305941-SAMTHONDA/CG150 FAN ESDI                         PARTICULAR                    MOTOCICLETA     VERMELHA  00000000ANTONIO JOSE DA COSTA FERREIRA              RUA CASTELO BRANCO NR. 947              - CAMPO DE BELEM                        65600000CAXIAS              MACOND. MOTOCICLETA/MOTONETA/CICLOM S/CAPACETE DE SE244 * I            00000000070301   0000293470075720191127202001100000000000000000000000000                                                00000000000  000   23    00070435670659570301PASSAGEIRO
2000000000467820191126207570PREF. DE: MA - CAXIAS                   CXA0078352201911011040PCA PANTHEON                                                OJC8162MA122111-SAMTRENAULT/DUSTER 16 D 4X2                      PARTICULAR                    CAMIONETA       PRETA     00000000ANTONIO CONCUTELLI                          RUA PARNASIO NR. S/N                    - PONTE                                 65600000CAXIAS              MAESTAC. EM DESACORDO C/ A REGULAMENTACAO ESPECIFICA181 * XVII         00000000055411   0000195230075720191127202001100000000000000000000000000                                                00000000000  000   24    00050435671088655411MISTO
2000000000467820191126207570PREF. DE: MA - CAXIAS                   CXA0078302201911011946CEMITERIO OLARIA                                            PTB7617MA301942-SAMTHONDA/CG 160 FAN                             PARTICULAR                    MOTOCICLETA     VERMELHA  00000000GEAN DE CASTRO MEDEIROS                     RUA BEIRA RIO NR. 15                    - SAO PEDRO                             65607800CAXIAS              MACOND. MOTOC/MOTON./CICLOM TRANSPORTANDO/PASSAG.S/C244 * II           00000000070481   0000293470075720191127202001100000000000000000000000000                                                00000000000  000   25    00070435671376170481PASSAGEIRO
2000000000467820191126207570PREF. DE: MA - CAXIAS                   CXA0078301201911011926AV CLODOMIR CARDOSO                                         PSO0608MA301942-SAMTHONDA/CG 160 TITAN EX                        PARTICULAR                    MOTOCICLETA     BRANCA    00000000JOAO MANOEL DOS SANTOS COSTA                BECO O NR. 323                          - BELA VISTA                            65638900TIMON               MACOND. MOTOCICLETA/MOTONETA/CICLOM S/CAPACETE DE SE244 * I            00000000070301   0000293470075720191127202001100000000000000000000000000                                                00000000000  000   26    00070435674587670301PASSAGEIRO
2000000000467820191126207570PREF. DE: MA - CAXIAS                   CXA0078182201911011620PCA CANDIDO MENDES                                          PTC6591MA123611-SAMTHONDA/CG 125I FAN                            PARTICULAR                    MOTOCICLETA     VERMELHA  00000000RAIMUNDO NONATO DOS SANTOS                  RUA DAS FLORES NR. 1159                 - SERIEMA                               65602560CAXIAS              MACOND. MOTOC/MOTON./CICLOM TRANSPORTANDO/PASSAG.S/C244 * II           00000000070481   0000293470075720191127202001100000000000000000000000000                                                00000000000  000   27    00070435676723370481PASSAGEIRO
2000000000467820191126207570PREF. DE: MA - CAXIAS                   CXA0078181201911011605PCA CANDIDO MENDES                                          PSD2229MA123611-SAMTHONDA/POP100                                 PARTICULAR                    MOTOCICLETA     PRETA     00000000ALMIR DA CONCEICAO MAGALHAES                RUA EDSON LOBAO QD 18 NR. 227           - MUTIRAO                               65604885CAXIAS              MACOND. MOTOC/MOTON./CICLOM TRANSPORTANDO/PASSAG.S/C244 * II           00000000070481   0000293470075720191127202001100000000000000000000000000                                                00000000000  000   28    00070435677278470481PASSAGEIRO
2000000000467820191126207570PREF. DE: MA - CAXIAS                   CXA0078269201911020845AV ALEXANDRE COSTA                                          PSQ3967MA122181-SAMTHONDA/POP 110I                               PARTICULAR                    MOTOCICLETA     VERMELHA  00000000CRISTIANE DE CARVALHO RODRIGUES             RUA BEIJA FLOR QD-B-13 NR. NR-18        - RE VILA PARAISO                       65603720CAXIAS              MACOND. MOTOCICLETA/MOTONETA/CICLOM S/CAPACETE DE SE244 * I            00000000070301   0000293470075720191127202001100000000000000000000000000                                                00000000000  000   29    00070435681814870301PASSAGEIRO
2000000000467820191126207570PREF. DE: MA - CAXIAS                   CXA0078271201911022045AV ALEXANDRE COSTA                                          PSV9481MA122181-SAMTHONDA/POP 110I                               PARTICULAR                    MOTOCICLETA     BRANCA    00000000EDIVANIA MARIA DA SILVA LIMA                II TV ITAPECURUZINHO NR. N-195          - ITAPECURUZINHO                        65606896CAXIAS              MACOND. MOTOCICLETA/MOTONETA/CICLOM S/CAPACETE DE SE244 * I            00000000070301   0000293470075720191127202001100000000000000000000000000                                                00000000000  000   30    00070435682272270301PASSAGEIRO
2000000000467820191126207570PREF. DE: MA - CAXIAS                   CXA0078188201911041700PCA CANDIDO MENDES                                          OXQ0407MA122131-SAMTHONDA/POP100                                 PARTICULAR                    MOTOCICLETA     PRETA     00000000HUGO FERNANDO ALVES DE M BARROS             RUA SAO V DE PAULA NR. 238              - PONTE                                 65600000CAXIAS              MACOND. MOTOC/MOTON./CICLOM TRANSPORTANDO/PASSAG.S/C244 * II           00000000070481   0000293470075720191127202001100000000000000000000000000                                                00000000000  000   31    00070435686388770481PASSAGEIRO
2000000000467820191126207570PREF. DE: MA - CAXIAS                   CXA0075298201911041109RUA 13 DE MAIO                                              PSQ6847MA301942-SAMTHONDA/CG150 START                            PARTICULAR                    MOTOCICLETA     PRETA     00000000SUELY COUTINHO DE SOUSA                     RUA DO CURIO QD-B04 NR. N-16            - VILA PARAISO                          65600010CAXIAS              MACOND. MOTOC/MOTON./CICLOM TRANSPORTANDO/PASSAG.S/C244 * II           00000000070481   0000293470075720191127202001100000000000000000000000000                                                00000000000  000   32    00070435686813770481PASSAGEIRO
2000000000467820191126207570PREF. DE: MA - CAXIAS                   CXA0075297201911041103RUA 13 DE MAIO                                              OJA3406MA301942-SAMTHONDA/NXR150 BROS ESD                        PARTICULAR                    MOTOCICLETA     VERMELHA  00000000ITAMAR MENDES BERREDO JUNIOR                RUA PRINCESA DEBORA 20 NR. QD 05        - VILA KIOLA                            65110000SAO JOSE DE RIBAMAR MACOND. MOTOC/MOTON./CICLOM TRANSPORTANDO/PASSAG.S/C244 * II           00000000070481   0000293470075720191127202001100000000000000000000000000                                                00000000000  000   33    00070435686938970481PASSAGEIRO
2000000000467820191126207570PREF. DE: MA - CAXIAS                   CXA0078184201911041435PCA CANDIDO MENDES                                          NHJ9312MA123611-SAMTFIAT/PALIO ELX FLEX                          PARTICULAR                    AUTOMOVEL       PRATA     00000000MARIA DAS GRACAS P DE A E SILVA             R ANIZIO VIEIRA CHAVES NR. N-300        - CENTRO                                65608490CAXIAS              MADIR.VEIC. UTILIZANDO-SE DE TELEFONE CELULAR       252 * VI           00000000073662   0000130160075720191127202001100000000000000000000000000                                                00000000000  000   34    00040435687296773662PASSAGEIRO
2000000000467820191126207570PREF. DE: MA - CAXIAS                   CXA0077139201911041015PCA CESARIO LIMA                                            PST7365MA122061-SAMTHONDA/POP 110I                               PARTICULAR                    MOTOCICLETA     VERMELHA  00000000JOAO ANDRADE DA SILVA NETO                  TV DO ITAPECURUZINHO NR. N-25           - ITAPECURUZINHO                        65606896CAXIAS              MACOND. MOTOC/MOTON./CICLOM TRANSPORTANDO/PASSAG.S/C244 * II           00000000070481   0000293470075720191127202001100000000000000000000000000                                                00000000000  000   35    00070435687396370481PASSAGEIRO
2000000000467820191126207570PREF. DE: MA - CAXIAS                   CXA0078411201911041415PCA CANDIDO MENDES                                          OXX1630MA122221-SAMTHONDA/NXR150 BROS ES                         PARTICULAR                    MOTOCICLETA     PRETA     00000000JOSELIA DA CONCEICAO SANTOS                 IV TRAV SAO JOSE NR. 544                - FAZENDINHA                            65600000CAXIAS              MACOND. MOTOC/MOTON./CICLOM TRANSPORTANDO/PASSAG.S/C244 * II           00000000070481   0000293470075720191127202001100000000000000000000000000                                                00000000000  000   36    00070435687868070481PASSAGEIRO
2000000000467820191126207570PREF. DE: MA - CAXIAS                   CXA0078410201911041405AV OTAVIO PASSOS                                            OXS7910MA122221-SAMTHONDA/POP100                                 PARTICULAR                    MOTOCICLETA     VERMELHA  00000000FRANCISCO DA CONCEICAO                      RUA STO ANTONIO NR. 86                  - VL SAO JOSE                           65600000CAXIAS              MAESTAC. EM LOCAL/HORARIO PROIBIDO ESPECIFIC. P/SINA181*XVIII          00000000055500   0000130160075720191127202001100000000000000000000000000                                                00000000000  000   37    00040435687964355500PASSAGEIRO
2000000000467820191126207570PREF. DE: MA - CAXIAS                   CXA0078409201911041402AV OTAVIO PASSOS                                            PSX2657MA122221-SAMTHONDA/POP 110I                               PARTICULAR                    MOTOCICLETA     PRETA     00000000FRANCISCA DE JESUS S MIRANDA                RUA DA BALAIADA QD-C-2 NR. N-14         RES. - VILA PARAISO                     65606816CAXIAS              MAESTAC. EM LOCAL/HORARIO PROIBIDO ESPECIFIC. P/SINA181*XVIII          00000000055500   0000130160075720191127202001100000000000000000000000000                                                00000000000  000   38    00040435688038255500PASSAGEIRO
2000000000467820191126207570PREF. DE: MA - CAXIAS                   CXA0078358201911051030RUA GUSTAVO COLACO                                          HQC9704MA122111-SAMTHONDA/CG 125 FAN                             PARTICULAR                    MOTOCICLETA     PRETA     00000000BENEDITO BARBOSA DE SOUSA                   RUA DO CAMPO NR. 1411                   - VILA ALECRIM                          65600000CAXIAS              MAESTAC. EM DESACORDO C/ A REGULAMENTACAO ESPECIFICA181 * XVII         00000000055411   0000195230075720191127202001100000000000000000000000000                                                00000000000  000   39    00050435688445055411PASSAGEIRO
2000000000467820191126207570PREF. DE: MA - CAXIAS                   CXA0078356201911051026RUA GUSTAVO COLACO                                          NNC0634MA122111-SAMTHONDA/CG150 TITAN MIX EX                     PARTICULAR                    MOTOCICLETA     VERMELHA  00000000SONIA MARIA COSTA DE SOUSA                  RUA BELA VISTA NR. 1548                 - CASTELO BRANCO                        65604160CAXIAS              MAESTAC. EM DESACORDO C/ A REGULAMENTACAO ESPECIFICA181 * XVII         00000000055411   0000195230075720191127202001100000000000000000000000000                                                00000000000  000   40    00050435688536855411PASSAGEIRO
2000000000467820191126207570PREF. DE: MA - CAXIAS                   CXA0077938201911051024PCA CANDIDO MENDES                                          NMZ6037MA306051-SAMTHONDA/POP100                                 PARTICULAR                    MOTOCICLETA     BRANCA    00000000ELIENE DA SILVA PEREIRA                     RUA BENTIVIS QD H NR. NR-09             - CJR SABIA                             65600000CAXIAS              MAESTAC. EM DESACORDO C/ A REGULAMENTACAO ESPECIFICA181 * XVII         00000000055411   0000195230075720191127202001100000000000000000000000000                                                00000000000  000   41    00050435688899555411PASSAGEIRO
2000000000467820191126207570PREF. DE: MA - CAXIAS                   CXA0078192201911051725RUA SAO BENEDITO                                            PST0022MA123611-SAMTHONDA/BIZ 110I                               PARTICULAR                    MOTONETA        VERMELHA  00000000MARIA DA CONCEICAO DE S FARIAS              RUA 01 NR. 21                           QD 22 - COHAB                           65600010CAXIAS              MACOND. MOTOC/MOTON./CICLOM TRANSPORTANDO/PASSAG.S/C244 * II           00000000070481   0000293470075720191127202001100000000000000000000000000                                                00000000000  000   42    00070435689228370481PASSAGEIRO
2000000000467820191126207570PREF. DE: MA - CAXIAS                   CXA0078191201911051605PCA MAGALHAES DE ALMEIDA                                    NXP5143MA123611-SAMTHONDA/BIZ 125 ES                             PARTICULAR                    MOTONETA        PRETA     00000000ALANE OLIVEIRA N BATISTA                    RUA ISAAC MARTINS NR. 748               - CENTRO                                65950000BARRA DO CORDA      MACOND. MOTOC/MOTON./CICLOM TRANSPORTANDO/PASSAG.S/C244 * II           00000000070481   0000293470075720191127202001100000000000000000000000000                                                00000000000  000   43    00070435689334470481PASSAGEIRO
2000000000467820191126207570PREF. DE: MA - CAXIAS                   CXA0078190201911051455RUA MENINO DEUS                                             PSK3156MA123611-SAMTHONDA/BIZ 125 ES                             PARTICULAR                    MOTONETA        VERMELHA  00000000JOSE PROTASIO DOS SANTOS                    RUA BOA VONTADE NR. 463                 - ANTENOR VIANA                         65603505CAXIAS              MACOND. MOTOC/MOTON./CICLOM TRANSPORTANDO/PASSAG.S/C244 * II           00000000070481   0000293470075720191127202001100000000000000000000000000                                                00000000000  000   44    00070435689525870481PASSAGEIRO
2000000000467820191126207570PREF. DE: MA - CAXIAS                   CXA0077692201911051140RUA RIO DE JANEIRO                                          NWS0672MA306431-SAMTHONDA/CG 125 FAN KS                          PARTICULAR                    MOTOCICLETA     VERMELHA  00000000LUZANIRA DA LUZ CONCEICAO                   R ALOISIO LOBO NR. 3148                 - SAO FRANCISCO                         65600450CAXIAS              MAESTAC. EM LOCAL/HORARIO PROIBIDO ESPECIFIC. P/SINA181*XVIII          00000000055500   0000130160075720191127202001100000000000000000000000000                                                00000000000  000   45    00040435689790055500PASSAGEIRO
2000000000467820191126207570PREF. DE: MA - CAXIAS                   CXA0077691201911051021AV GETULIO VARGAS                                           PSU8191MA306431-SAMTHONDA/POP 110I                               PARTICULAR                    MOTOCICLETA     PRETA     00000000ANDERSON JOSE DA SILVA ARAUJO               RUA JOAO VIANA NR. 1741                 - JOAO VIANA                            65604460CAXIAS              MACOND. MOTOC/MOTON./CICLOM TRANSPORTANDO/PASSAG.S/C244 * II           00000000070481   0000293470075720191127202001100000000000000000000000000                                                00000000000  000   46    00070435689992070481PASSAGEIRO
2000000000467820191126207570PREF. DE: MA - CAXIAS                   CXA0077690201911051020PCA PANTHEON                                                PTM7010MA306431-SAMTCHEVROLET/ONIX 10MT JOYE                     PARTICULAR                    AUTOMOVEL       CINZA     00000000NILDA MARIA BARBOSA LIMA                    RUA AARAO REIS NR. 2089                 - CENTRO                                65606020CAXIAS              MAESTAC. VEIC. NAS ESQU. E MENOS DE 5M DO ALINHAMENT181 * I            00000000053800   0000130160075720191127202001100000000000000000000000000                                                00000000000  000   47    00040435690063453800PASSAGEIRO
2000000000467820191126207570PREF. DE: MA - CAXIAS                   CXA0077034201911051105PCA RUY BARBOSA                                             PSV5656MA138301-SAMTHONDA/NXR160 BROS ESDD                       PARTICULAR                    MOTOCICLETA     VERMELHA  00000000GLADSTON COSTA E SILVA                      RUA ARAAO REIS NR. 1989                 - CENTRO                                65606020CAXIAS              MACOND. MOTOC/MOTON./CICLOM TRANSPORTANDO/PASSAG.S/C244 * II           00000000070481   0000293470075720191127202001100000000000000000000000000                                                00000000000  000   48    00070435690150970481PASSAGEIRO
2000000000467820191126207570PREF. DE: MA - CAXIAS                   CXA0077939201911051030PCA CANDIDO MENDES                                          PSA5225MA306051-SAMTHONDA/NXR125 BROS ES                         PARTICULAR                    MOTOCICLETA     PRETA     00000000ANTONIO JOSE SILVA                          TV POSTO FISCAL NR. 610                 - VILA SAO JOSE                         65600000CAXIAS              MAESTAC. EM DESACORDO C/ A REGULAMENTACAO ESPECIFICA181 * XVII         00000000055411   0000195230075720191127202001100000000000000000000000000                                                00000000000  000   49    00050435690250555411PASSAGEIRO
2000000000467820191126207570PREF. DE: MA - CAXIAS                   CXA0078193201911051730RUA AARAO REIS                                              NXA4755MA123611-SAMTHONDA/CG 125 FAN KS                          PARTICULAR                    MOTOCICLETA     VERMELHA  00000000M DAS G F PRATA COMERCIO                    AV NEREU BITTENCOURT NR. N-73           - CENTRO                                65600000CAXIAS              MAESTAC. VEIC. NAS ESQU. E MENOS DE 5M DO ALINHAMENT181 * I            00000000053800   0000130160075720191127202001100000000000000000000000000                                                00000000000  000   50    00040435690275053800PASSAGEIRO
2000000000467820191126207570PREF. DE: MA - CAXIAS                   CXA0078363201911061020TV JOSE GUIMARAES                                           NHO8561MA122111-SAMTHONDA/BIZ 125 ES                             PARTICULAR                    MOTONETA        VERMELHA  00000000FRANCEILDE DAMASCENO P.MORAES               R SUCUPIRA NR. 07                       - VILA ALECRIM                          65605663CAXIAS              MAESTAC. EM LOCAL/HORARIO PROIBIDO ESPECIFIC. P/SINA181*XVIII          00000000055500   0000130160075720191127202001100000000000000000000000000                                                00000000000  000   51    00040435690541555500PASSAGEIRO
2000000000467820191126207570PREF. DE: MA - CAXIAS                   CXA0078362201911061010RUA BENEDITO REIS                                           OJC7082MA122111-SAMTHONDA/POP100                                 PARTICULAR                    MOTOCICLETA     PRETA     00000000JOSE ALVES FILHO                            RUA JASMINS NR. NR.41                   - CONJ PRIMAVERA                        65725000PEDREIRAS           MAESTAC. EM DESACORDO C/ A REGULAMENTACAO ESPECIFICA181 * XVII         00000000055411   0000195230075720191127202001100000000000000000000000000                                                00000000000  000   52    00050435690582255411PASSAGEIRO
2000000000467820191126207570PREF. DE: MA - CAXIAS                   CXA0078221201911061040PCA PANTHEON                                                OJH1837MA305941-SAMTCHEVROLET/ONIX 1.0MT LT                      PARTICULAR                    AUTOMOVEL       BRANCA    00000000MARIA DO AMPARO CUNHA DE ABREU              RUA DO ALECRIM NR. N-124                - CANGALHEIRO                           65600000CAXIAS              MAESTACIONAR AO LADO/SOBRE DIVISORES DE PISTA DE ROL181 * VIII         00000000054526   0000195230075720191127202001100000000000000000000000000                                                00000000000  000   53    00050435690638154526PASSAGEIRO
2000000000467820191126207570PREF. DE: MA - CAXIAS                   CXA0078415201911061815RUA DA INDEPENDENCIA                                        HPX7707MA122221-SAMTHONDA/C100 BIZ                               PARTICULAR                    MOTONETA        VERMELHA  00000000FERNANDO DA SILVA GOMES                     R.SAO VICENTE DE PAULA NR. N-143        QD 07 - MUTIRAO                         65604450CAXIAS              MAAVANCAR SINAL VERMELHO DO SEMAFORO                208                00000000060501   0000293470075720191127202001100000000000000000000000000                                                00000000000  000   54    00070435690760460501PASSAGEIRO
2000000000467820191126207570PREF. DE: MA - CAXIAS                   CXA0078414201911061625TRAV SENADOR C. RODRIGUES                                   HPW7464MA122221-SAMTGM/CLASSIC LIFE                              PARTICULAR                    AUTOMOVEL       CINZA     00000000EMILIA DE ABREU PEREIRA                     RUA 05 NR. NR 12                        QD 14 - IP S CRISTOVAO                  65055000SAO LUIS            MAESTAC. EM LOCAL/HORARIO PROIBIDO ESPECIFIC. P/SINA181*XVIII          00000000055500   0000130160075720191127202001100000000000000000000000000                                                00000000000  000   55    00040435690787655500PASSAGEIRO
2000000000467820191126207570PREF. DE: MA - CAXIAS                   CXA0078413201911061530PCA CANDIDO MENDES                                          NXM5364MA122221-SAMTHONDA/POP100                                 PARTICULAR                    MOTOCICLETA     ROXA      00000000MARINALVA DE FRANCA CONCEICAO               RUA PARA NR. 296                        - ANTENOR VIANA                         65600000CAXIAS              MACOND. MOTOC/MOTON./CICLOM TRANSPORTANDO/PASSAG.S/C244 * II           00000000070481   0000293470075720191127202001100000000000000000000000000                                                00000000000  000   56    00070435690835070481PASSAGEIRO
2000000000467820191126207570PREF. DE: MA - CAXIAS                   CXA0078412201911061330AV SANTOS DRUMONT                                           NXO3131MA122221-SAMTHONDA/CG 125 FAN ES                          PARTICULAR                    MOTOCICLETA     PRETA     00000000ANTONIA DOS SANTOS SOUSA                    RUA BAHIA NR. 47                        - ANTENOR VIANA                         65600000CAXIAS              MACOND. MOTOC/MOTON./CICLOM TRANSPORTANDO/PASSAG.S/C244 * II           00000000070481   0000293470075720191127202001100000000000000000000000000                                                00000000000  000   57    00070435690944570481PASSAGEIRO
3000057000000000057
