1*NATI209610202001240039252020012400000000000000
2000000000392520200124209610PREF. DE: MA - ACAILANDIA               ACA0033119202001231104AV.TACITO CALDAS C/DR.GERVASIO                              NXE1447MA3090       YAMAHA/FACTOR YBR125 E                       PARTICULAR                    MOTOCICLETA     ROXA      00000000MIRIAN SILVA BARBOSA                        RUA 9 DE JULHO NR. 473                  - JACU                                  65930000ACAILANDIA          MAAVANCAR SINAL VERMELHO DO SEMAFORO                208                00000000060501   0000293470096120200125202003090000000000000000000000000                                                00000000000  000   1     00070448554061860501PASSAGEIRO
2000000000392520200124209610PREF. DE: MA - ACAILANDIA               ACA0033901202001231500R.DUQUE DE CAXIAS N.925                                     JHQ0464MA3179       VW/CROSSFOX                                  PARTICULAR                    AUTOMOVEL       VERMELHA  00000000MARIA NETA F. DOS SANTOS                    RUA JARANA NR. CS 11                    QD 35 - NV ACAILANDIA 2                 65930000ACAILANDIA          MAESTAC. EM DESACORDO C/ A REGULAMENTACAO ESPECIFICA181 * XVII         00000000055411   0000195230096120200125202003090000000000000000000000000                                                00000000000  000   2     00050448554141055411PASSAGEIRO
2000000000392520200124209610PREF. DE: MA - ACAILANDIA               ACA0033035202001220931AV.SANTA LUZIA C/R.DORGIVAL                                 PTJ3979MA3132       HONDA/POP 110I                               PARTICULAR                    MOTOCICLETA     BRANCA    00000000DOUGLAS DE CASTRO MATOS                     ASSENTAMENTO NR. S/N                    - NOVA VITORIA                          65930000ACAILANDIA          MAEXEC. CONVERSAO A ESQUERDA EM LOCAL PROIBIDO P/SIN207                00000000060412   0000195230096120200125202003090000000000000000000000000                                                00000000000  000   3     00050448554203360412PASSAGEIRO
2000000000392520200124209610PREF. DE: MA - ACAILANDIA               ACA0033036202001221050R.DORGIVAL FRT.BANCO BRASIL                                 PSC1881MA3132       HONDA/POP100                                 PARTICULAR                    MOTOCICLETA     PRETA     00000000NEURIVAM ROCHA SANTOS                       CONJUNTO COHAB NR. 21                   - VILA ILDEMAR                          65930000ACAILANDIA          MAESTAC. EM LOCAL/HORARIO PROIBIDO ESPECIFIC. P/SINA181*XVIII          00000000055500   0000130160096120200125202003090000000000000000000000000                                                00000000000  000   4     00040448554324255500PASSAGEIRO
2000000000392520200124209610PREF. DE: MA - ACAILANDIA               ACA0033370202001221115R.BONAIRE N.153, CENTRO                                     OTZ2273MA4445       TOYOTA/COROLLA XEI20FLEX                     PARTICULAR                    AUTOMOVEL       CINZA     00000000NORIVALDA NEVES ANDRADE                     AV SANTA LUZIA NR. SN                   - CENTRO                                65930000ACAILANDIA          MAESTAC. EM LOCAL/HORARIO PROIBIDO ESPECIFIC. P/SINA181*XVIII          00000000055500   0000130160096120200125202003090000000000000000000000000                                                00000000000  000   5     00040448554445155500PASSAGEIRO
2000000000392520200124209610PREF. DE: MA - ACAILANDIA               ACA0033371202001221125AV.TACITO CALDAS N.123, CENTRO                              NHD1850MA4445       GM/CORSA HATCH JOY                           PARTICULAR                    AUTOMOVEL       BEGE      00000000RAIMUNDA MAGALHAES GOMES                    AV SANT LUZIA NR. S/N                   - CENTRO                                65930000ACAILANDIA          MADIR.VEIC. UTILIZANDO-SE DE TELEFONE CELULAR       252 * VI           00000000073662   0000130160096120200125202003090000000000000000000000000                                                00000000000  000   6     00040448554571773662PASSAGEIRO
2000000000392520200124209610PREF. DE: MA - ACAILANDIA               ACA0033037202001230951R. CEARA N.569, CENTRO                                      NNE0769MA3132       YAMAHA/T115 CRYPTON K                        PARTICULAR                    MOTONETA        VERMELHA  00000000MARIA EUNICE BEZERRA DOS SANTOS             QUADRA 35 NR. 03                        - VILA BOM JARDIM                       65930000ACAILANDIA          MAESTAC. EM LOCAL/HORARIO PROIBIDO ESPECIFIC. P/SINA181*XVIII          00000000055500   0000130160096120200125202003090000000000000000000000000                                                00000000000  000   7     00040448554680255500PASSAGEIRO
2000000000392520200124209610PREF. DE: MA - ACAILANDIA               ACA0033225202001231029AV.BERNARDO SAYAO FRT.MOTOCA                                HOO4706MA3154       VW/GOL CLI                                   PARTICULAR                    AUTOMOVEL       PRATA     00000000OSMAR SILVA PEREIRA                         RUA SAO FRANCISCO NR. 343               - LAGOA VERDE                           65901550IMPERATRIZ          MAESTACIONAR AFASTADO DA GUIA DA CALCADA(MEIO-FIO) A181 * III          00000000054010   0000195230096120200125202003090000000000000000000000000                                                00000000000  000   8     00050448554739654010PASSAGEIRO
2000000000392520200124209610PREF. DE: MA - ACAILANDIA               ACA0033224202001230854R.13 DE MAIO N.1085, LARANJEIR                              NMU3641MA3154       HONDA/NXR150 BROS ES                         PARTICULAR                    MOTOCICLETA     PRETA     00000000JOSE FRANCISCO IZIDIO                       RUA 13 DE MAIO NR. 1112                 TEL 3538 1960 - LARANJEIRAS             65930000ACAILANDIA          MAESTAC. EM LOCAL/HORARIO PROIBIDO ESPECIFIC. P/SINA181*XVIII          00000000055500   0000130160096120200125202003090000000000000000000000000                                                00000000000  000   9     00040448554826055500PASSAGEIRO
2000000000392520200124209610PREF. DE: MA - ACAILANDIA               ACA0033223202001230854R.RIO GRANDE N.215, CENTRO                                  OJL4540MA3154       HONDA/BIZ 125 EX                             PARTICULAR                    MOTONETA        VERMELHA  00000000VILMA LIMA DA SILVA                         RUA FLAMENGO NR. N59                    - GETTAT                                65930000ACAILANDIA          MACOND. MOTOC/MOTON./CICLOM TRANSPORTANDO/PASSAG.S/C244 * II           00000000070481   0000293470096120200125202003090000000000000000000000000                                                00000000000  000   10    00070448554891070481PASSAGEIRO
2000000000392520200124209610PREF. DE: MA - ACAILANDIA               ACA0033854202001220934R.J.RAINALDO TAVARES, V.ILDEMA                              NXO4196MA3157       VW/GOL 1.6                                   PARTICULAR                    AUTOMOVEL       PRETA     00000000ELSON BATISTA DOS SANTOS                    RUA VIRGILIO DOMINGUES NR. N 175        AP 401 ED PALURA - SAO FRANCISCO        65076340SAO LUIS            MAESTACIONAR EM DESACORDO C/ POSICOES ESTABELECIDAS 181 * IV           00000000054100   0000130160096120200125202003090000000000000000000000000                                                00000000000  000   11    00040448555109154100PASSAGEIRO
2000000000392520200124209610PREF. DE: MA - ACAILANDIA               ACA0033855202001220934AV.JOSE REINALDO, VILA ILDEMAR                              HPV2162MA3157       VW/GOL 1.0                                   PARTICULAR                    AUTOMOVEL       CINZA     00000000NATALIA SILVA DA SILVA                      RUA PIAUI NR. N 793                     - LARANJEIRAS                           65930000ACAILANDIA          MAESTACIONAR EM DESACORDO C/ POSICOES ESTABELECIDAS 181 * IV           00000000054100   0000130160096120200125202003090000000000000000000000000                                                00000000000  000   12    00040448555519454100PASSAGEIRO
2000000000392520200124209610PREF. DE: MA - ACAILANDIA               ACA0033857202001221121AV.TACITO CALDAS, CENTRO                                    NHD1850MA3157       GM/CORSA HATCH JOY                           PARTICULAR                    AUTOMOVEL       BEGE      00000000RAIMUNDA MAGALHAES GOMES                    AV SANT LUZIA NR. S/N                   - CENTRO                                65930000ACAILANDIA          MAESTACIONAR SOBRE FAIXA DESTINADA A PEDESTRE       181 * VIII         00000000054522   0000195230096120200125202003090000000000000000000000000                                                00000000000  000   13    00050448558123354522PASSAGEIRO
2000000000392520200124209610PREF. DE: MA - ACAILANDIA               ACA0033858202001221149R.DORGIVAL P. SOUSA, CENTRO                                 PTN3791MA3157       VW/FOX CONNECT MB                            ALUGUEL                       AUTOMOVEL       BRANCA    00000000RAIMUNDO LOPES BEZERRA                      RUA 02 QD 29 NR. N 15                   - JARDIM DE ALAH                        65930000ACAILANDIA          MAAVANCAR SINAL VERMELHO DO SEMAFORO                208                00000000060501   0000293470096120200125202003090000000000000000000000000                                                00000000000  000   14    00070448558338460501PASSAGEIRO
2000000000392520200124209610PREF. DE: MA - ACAILANDIA               ACA0033859202001221100AV.BERNARDO SAYAO                                           NXL6872MA3157       HONDA/CG 150 TITAN EX                        ALUGUEL                       MOTOCICLETA     AMARELA   00000000NILVAMAR BANDEIRA DA SILVA                  RUA SAO FRANCISCO NR NR. 540            - CENTRO                                65930000ACAILANDIA          MATRANSITAR COM O VEICULO EM CALCADAS, PASSEIOS     193                00000000058191   0000880410096120200125202003090000000000000000000000000                                                00000000000  000   15    00070448558466658191PASSAGEIRO
2000000000392520200124209610PREF. DE: MA - ACAILANDIA               ACA0033860202001220847R.MARLY SARNEY, CENTRO                                      OJM1382MA3157       HONDA/CG150 FAN ESDI                         PARTICULAR                    MOTOCICLETA     PRETA     00000000ROCLEBE DE ARAUJO SILVA                     RUA JOAO LISBOA NR. N 50                - BAIXAO                                65930000ACAILANDIA          MAEXEC. CONVERSAO A DIREITA LOCAIS PROIBIDOS P/SINAL207                00000000060411   0000195230096120200125202003090000000000000000000000000                                                00000000000  000   16    00050448558671560411PASSAGEIRO
2000000000392520200124209610PREF. DE: MA - ACAILANDIA               ACA0033144202001210940AV.BERNARDO SAYAO, MERCADO                                  MRQ9926MA3165       FIAT/SIENA FIRE FLEX                         PARTICULAR                    AUTOMOVEL       VERMELHA  00000000REGINALDO DA SILVA                          RUA 2 NR. SN                            - 50 BIS                                65930000ACAILANDIA          MAESTACIONAR AO LADO DE OUTRO VEICULO EM FILA DUPLA 181 * XI           00000000054870   0000195230096120200125202003090000000000000000000000000                                                00000000000  000   17    00050448560586854870PASSAGEIRO
2000000000392520200124209610PREF. DE: MA - ACAILANDIA               ACA0033033202001201033R.BONAIRE N.178, CENTRO                                     OJA3953MA3132       I/TOYOTA HILUX CD4X4 STD                     PARTICULAR                    CAMINHONETE     BRANCA    00000000S DE S GIGANTE PECUARIA                     ROD BR 010 NR. S/N                      - ASS TERRA NOVA                        65930000ACAILANDIA          MAESTACIONAR AO LADO DE OUTRO VEICULO EM FILA DUPLA 181 * XI           00000000054870   0000195230096120200125202003090000000000000000000000000                                                00000000000  000   18    00050448560753454870ESPECIAL
2000000000392520200124209610PREF. DE: MA - ACAILANDIA               ACA0033041202001201119R.MARANHAO PX.ESCOLA CARROCEL                               OJQ1816MA3132       HONDA/BIZ 125 EX                             PARTICULAR                    MOTONETA        BRANCA    00000000THIERRY GUSTAVO DA S FERREIRA               RUA PERNAMBUCO NR. N543                 - VL TANC NEVES                         65930000ACAILANDIA          MACOND. MOTOCICLETA/MOTONETA/CICLOM S/CAPACETE DE SE244 * I            00000000070301   0000293470096120200125202003090000000000000000000000000                                                00000000000  000   19    00070448561030670301PASSAGEIRO
2000000000392520200124209610PREF. DE: MA - ACAILANDIA               ACA0033030201912150808R.MARLY SARNEY PX.AGRODOG                                   OIT9878MA3132       VW/NOVO VOYAGE 1.6                           PARTICULAR                    AUTOMOVEL       PRETA     00000000GILCELIA ALVES CARVALHO SANTOS              RUA DUQUE DE CAXIAS NR. 278             - CENTRO                                65765000DOM PEDRO           MATRANSPORTAR CRIANCA SEM AS NORMAS DE SEGURANCA EST168                00000000051930   0000293470096120200125202003090000000000000000000000000                                                00000000000  000   20    00070448577113051930PASSAGEIRO
3000020000000000020
