1*NATI208030201902220064842019022200000000000000
2000000000648420190222208030PREF. DE: MA - IMPERATRIZ               IPA0180678201902141552R PIAUI F/N 710                                             PSO6176MA465526     FORD/KA SE 1.0 HA B                          PARTICULAR                    AUTOMOVEL       PRETA     00000000MURTA E MURTA LTDA.                         RUA PARAIBA NR NR. 44                   - JUCARA                                65900510IMPERATRIZ          MAESTACIONAR EM DESACORDO C/REGULAM-VAGA DE CARGA/DE181 * XVII         00000000055414   0000195230080320190223201904080000000000000000000000000                                                00000000000  000   1     00050383887963555414PASSAGEIRO
2000000000648420190222208030PREF. DE: MA - IMPERATRIZ               IPA0180904201902152045ESTACIONAMENTO IMPERIAL SHOPPI                              OXV6291MA38698      HONDA/FIT TWIST                              PARTICULAR                    AUTOMOVEL       BRANCA    00000000ISABELA MADEIRA FIGUEIREDO SOUSA            R JOSE BONIFACIO NR. N 842              - JD SAO LUIS                           65913060IMPERATRIZ          MAESTACIONAR NAS VAGAS RESERVADAS A IDOSOS, SEM CREDART 181, XX        00000000076252   0000293470080320190223201904080000000000000000000000000                                                00000000000  000   2     00070383888099476252PASSAGEIRO
2000000000648420190222208030PREF. DE: MA - IMPERATRIZ               IPA0180647201902141520R CORIOLANO MILHOMEM L/H S LUI                              NXB8133MA387053     FIAT/UNO WAY 1.0                             PARTICULAR                    AUTOMOVEL       VERDE     00000000IANA CARLA M B DE MOURA                     RUA TUPINAMBA NR. N2300                 BL B APT 204 - SAO J EGITO              65900000IMPERATRIZ          MAESTACIONAR EM DESACORDO C/REGULAM-VAGA DE CARGA/DE181 * XVII         00000000055414   0000195230080320190223201904080000000000000000000000000                                                00000000000  000   3     00050383889998955414PASSAGEIRO
2000000000648420190222208030PREF. DE: MA - IMPERATRIZ               IPA0180648201902141530R PIAUI F/N 858                                             GCN2712MA387053     TOYOTA/COROLLA XEI20FLEX                     PARTICULAR                    AUTOMOVEL       AZUL      00000000PAULO NUNES CAVALCANTE JUNIOR               RUA MONTE CASTELO NR. 212               CASA 05 - JD SAO LUIS                   65913020IMPERATRIZ          MAESTACIONAR AO LADO DE OUTRO VEICULO EM FILA DUPLA 181 * XI           00000000054870   0000195230080320190223201904080000000000000000000000000                                                00000000000  000   4     00050383890351054870PASSAGEIRO
2000000000648420190222208030PREF. DE: MA - IMPERATRIZ               IPA0182251201902151433R AQUILES LISBOA F/N528                                     PSY8171MA387053     VW/FOX CL MBV                                PARTICULAR                    AUTOMOVEL       BRANCA    00000000HASLEY JULIANO DA ROCHA MACEIO              AV DEP L E MAGALHAES S/N NR. JDM        DE LOMBARDIA - ALTO DO CALHAU           65071415SAO LUIS            MAESTACIONAR AO LADO DE OUTRO VEICULO EM FILA DUPLA 181 * XI           00000000054870   0000195230080320190223201904080000000000000000000000000                                                00000000000  000   5     00050383890825254870PASSAGEIRO
2000000000648420190222208030PREF. DE: MA - IMPERATRIZ               IPA0180650201902141540R PIAUI F/N 710                                             PSX8462MA387053     HONDA/CIVIC EX CVT                           PARTICULAR                    AUTOMOVEL       PRATA     00000000ALICE LOPES MARQUES                         AV DANIEL DE L TOUCHE NR. NR 04         QD A - IPASE                            65061020SAO LUIS            MAESTACIONAR EM DESACORDO C/REGULAM-VAGA DE CARGA/DE181 * XVII         00000000055414   0000195230080320190223201904080000000000000000000000000                                                00000000000  000   6     00050383891799555414PASSAGEIRO
2000000000648420190222208030PREF. DE: MA - IMPERATRIZ               IPA0182252201902181518AV GETULIO VARGAS F/N1705                                   PSE2904MA387053     VW/NOVO FOX CL MA                            PARTICULAR                    AUTOMOVEL       BRANCA    00000000CELIO BUENO SILVA BARROS                    RUA HENRIQUE DIAS NR. 1342              - BACURI                                65916015IMPERATRIZ          MAESTACIONAR AO LADO DE OUTRO VEICULO EM FILA DUPLA 181 * XI           00000000054870   0000195230080320190223201904080000000000000000000000000                                                00000000000  000   7     00050383891851754870PASSAGEIRO
2000000000648420190222208030PREF. DE: MA - IMPERATRIZ               IPA0174224201902060120AEROPORTO AREA DE EMBARQUE                                  PTC9105MA597791     TOYOTA/COROLLA XEI20FLEX                     PARTICULAR                    AUTOMOVEL       PRATA     00000000MARIA IRAENE SOUSA GUIMARAES                RUA ESPIRITO SANTO NR. 1169             APT 1002 - MARANHAO NOVO                65900001IMPERATRIZ          MAESTAC. EM LOCAL/HORARIO PROIBIDO ESPECIFIC. P/SINA181*XVIII          00000000055500   0000130160080320190223201904080000000000000000000000000                                                00000000000  000   8     00040383892003155500PASSAGEIRO
2000000000648420190222208030PREF. DE: MA - IMPERATRIZ               IPA0174225201902060125AEROPORTO AREA DE EMBARQUE                                  OJJ2218MA597791     I/CHEV SONIC LTZ HB AT                       PARTICULAR                    AUTOMOVEL       PRETA     00000000CRISTIANE IAPPE                             RUA VERIADOR PINTO NR. 201              ED FLOR DE PRIMAVERA - CENTRO           65800000BALSAS              MAESTAC. EM LOCAL/HORARIO PROIBIDO ESPECIFIC. P/SINA181*XVIII          00000000055500   0000130160080320190223201904080000000000000000000000000                                                00000000000  000   9     00040383892213155500PASSAGEIRO
2000000000648420190222208030PREF. DE: MA - IMPERATRIZ               IPA0174226201902060128AEROPORTO AREA DE EMBARQUE                                  PSU6267MA597791     VW/GOL SPECIAL MB                            PARTICULAR                    AUTOMOVEL       BRANCA    00000000LECIANY TAYNE LUCENA LOPES                  AV AMARAL RAPOSO NR. NR89               - CANOEIRO                              65940000GRAJAU              MAESTAC. EM LOCAL/HORARIO PROIBIDO ESPECIFIC. P/SINA181*XVIII          00000000055500   0000130160080320190223201904080000000000000000000000000                                                00000000000  000   10    00040383892432055500PASSAGEIRO
2000000000648420190222208030PREF. DE: MA - IMPERATRIZ               IPA0174227201902062105R TAMANDARE F/N 488                                         OJB9299MA597791     HONDA/BIZ 125 ES                             PARTICULAR                    MOTONETA        PRETA     00000000ANTONIO CARVALHO ARAUJO                     RUA TOCANTINS NR. N 70                  - VILA NOVA                             65900000IMPERATRIZ          MAESTAC. EM LOCAL/HORARIO PROIBIDO ESPECIFIC. P/SINA181*XVIII          00000000055500   0000130160080320190223201904080000000000000000000000000                                                00000000000  000   11    00040383892687055500PASSAGEIRO
2000000000648420190222208030PREF. DE: MA - IMPERATRIZ               IPA0182054201902120921AV DORGIVAL P SOUSA L/H S RAFA                              OJF7167MA767085     VW/NOVO GOL 1.6 RALLYE                       PARTICULAR                    AUTOMOVEL       BRANCA    00000000EDILEUZA ALMEIDA PEREIRA                    R RIO GRANDE DO NORTE NR. 747           - CENTRO                                65901620IMPERATRIZ          MAESTAC. EM LOCAL/HORARIO PROIBIDO ESPECIFIC. P/SINA181*XVIII          00000000055500   0000130160080320190223201904080000000000000000000000000                                                00000000000  000   12    00040383893078955500PASSAGEIRO
2000000000648420190222208030PREF. DE: MA - IMPERATRIZ               IPA0180797201902141115R SOUSA LIMA PROX/N529                                      PSI8113MA535010     TOYOTA/COROLLA XEI20FLEX                     PARTICULAR                    AUTOMOVEL       PRATA     00000000MARIA DA C C DA SILVA MEDRADO               RUA DO SOL NR. 05                       - PQ PALMEIRAS                          65911755IMPERATRIZ          MAESTACIONAR AO LADO DE OUTRO VEICULO EM FILA DUPLA 181 * XI           00000000054870   0000195230080320190223201904080000000000000000000000000                                                00000000000  000   13    00050383893128954870PASSAGEIRO
2000000000648420190222208030PREF. DE: MA - IMPERATRIZ               IPA0182256201902181603R PARAIBA F/N743                                            JKL5998MA387053     VW/NOVO VOYAGE 1.6                           PARTICULAR                    AUTOMOVEL       PRETA     00000000JOSE SILVESTRE SENA BORBA                   RUA BAHIA NR. 26                        - CENTRO                                65968000CAMPESTRE DO MARANHAMAESTACIONAR EM DESACORDO C/REGULAM-VAGA DE CARGA/DE181 * XVII         00000000055414   0000195230080320190223201904080000000000000000000000000                                                00000000000  000   14    00050383893176955414PASSAGEIRO
2000000000648420190222208030PREF. DE: MA - IMPERATRIZ               IPA0182055201902121220AV BERNARDO SAYAO C/R SOUSA LI                              PTF9798MA767085     VW/POLO HL AD                                PARTICULAR                    AUTOMOVEL       BRANCA    00000000N L A CARVALHO ME                           AV DAS CONSTELACOES NR. NR18            QUADRA F - JD 5 ESTRELAS                65900001IMPERATRIZ          MADEIXAR O CONDUTOR DE USAR O CINTO E SEGURANCA     167                00000000051851   0000195230080320190223201904080000000000000000000000000                                                00000000000  000   15    00050383893363051851PASSAGEIRO
2000000000648420190222208030PREF. DE: MA - IMPERATRIZ               IPA0182056201902160515R GODOFREDO VIANA F/N2248                                   OXX5643MA767085     HONDA/CG 150 TITAN EX                        PARTICULAR                    MOTOCICLETA     VERMELHA  00000000MIGUEL ANGEL GOMEZ PUERTA                   RUA GENERAL GURJAO NR. 736              - BACURI                                65900010IMPERATRIZ          MADEIX. O COD. ENVOL. ACID. S/ VIT DE REMOVER VEICUL178                00000000053470   0000130160080320190223201904080000000000000000000000000                                                00000000000  000   16    00040383893633753470PASSAGEIRO
2000000000648420190222208030PREF. DE: MA - IMPERATRIZ               IPA0182101201902111105AV GETULIO VARGAS F/N 816                                   NNB8200MA23150      FIAT/PALIO FIRE ECONOMY                      PARTICULAR                    AUTOMOVEL       CINZA     00000000REGINALDO MARTINS DOS REIS                  RUA RUA CELSO C VARAO NR. SN            - VL REDENCAO I                         65923000AMARANTE DO MARANHAOMAESTACIONAR AO LADO DE OUTRO VEICULO EM FILA DUPLA 181 * XI           00000000054870   0000195230080320190223201904080000000000000000000000000                                                00000000000  000   17    00050383893755454870PASSAGEIRO
2000000000648420190222208030PREF. DE: MA - IMPERATRIZ               IPA0181801201902051550AV DORGIVAL PINHEIRO S N1275                                OIW0726MA46514      RENAULT/LOGAN EXP 1016V                      PARTICULAR                    AUTOMOVEL       PRATA     00000000WENDER ROGERIO ZANOTELLI                    R SAO BENTO NR. 656                     - N IMPERATRIZ                          65901550IMPERATRIZ          MADIRIGIR VEICULO SEGURANDO TELEFONE CELULAR        ART 252, & UNICO   00000000076331   0000293470080320190223201904080000000000000000000000000                                                00000000000  000   18    00070383893792976331PASSAGEIRO
2000000000648420190222208030PREF. DE: MA - IMPERATRIZ               IPA0182104201902120950R MARANHAO F/RICARDO ELETRO                                 NWN9575MA23150      I/JAC J3 TURIN                               PARTICULAR                    AUTOMOVEL       BRANCA    00000000MARIA DAS DORES T DE SOUSA                  RUA ANTONIO DE MIRANDA NR. 642          - VL LOBAO                              65900001IMPERATRIZ          MAESTACIONAR EM DESACORDO C/REGULAMENTACAO-PONTO OU 181 * XVII         00000000055413   0000195230080320190223201904080000000000000000000000000                                                00000000000  000   19    00050383894486055413PASSAGEIRO
2000000000648420190222208030PREF. DE: MA - IMPERATRIZ               IPA0181802201902051750R GONCALVES DIAS N653                                       OIZ2755MA465143     HONDA/NXR150 BROS ES                         PARTICULAR                    MOTOCICLETA     PRETA     00000000CARMIR BARBOSA DA SILVA                     RUA CEARA NR. 782                       - CENTRO                                65900000IMPERATRIZ          MADESOBEDECER AS ORDENS DA AUTORIDADE DE TRANSITO/AG195                00000000058350   0000195230080320190223201904080000000000000000000000000                                                00000000000  000   20    00050383894804158350PASSAGEIRO
2000000000648420190222208030PREF. DE: MA - IMPERATRIZ               IPA0182106201902131134R BENEDITO LEITE PROX N1458                                 OJG2696MA535010     FIAT/STRADA WORKING CE                       PARTICULAR                    CAMINHONETE     PRATA     00000000JERONIMO PIRES DE BARROS                    R.SAO SEBASTIAO NR. 1016                ALMERIDIO APTO 602 - N IMPERATRIZ       65928000GOV.EDISON LOBAO    MAESTACIONAR AO LADO DE OUTRO VEICULO EM FILA DUPLA 181 * XI           00000000054870   0000195230080320190223201904080000000000000000000000000                                                00000000000  000   21    00050383894969254870CARGA
2000000000648420190222208030PREF. DE: MA - IMPERATRIZ               IPA0182107201902130710R PERNAMBUCO C/R LUIS DOMINGUE                              NHK2415MA23150      FIAT/PALIO ELX FLEX                          PARTICULAR                    AUTOMOVEL       PRATA     00000000RODONORTE C E R DE IMP RODO LTDA            AV PEDOR N DE SANTANA NR. 69            QD C ECO PARK IV - JOAO PAULO II        65919555IMPERATRIZ          MAAVANCAR SINAL VERMELHO DO SEMAFORO                208                00000000060501   0000293470080320190223201904080000000000000000000000000                                                00000000000  000   22    00070383895154960501PASSAGEIRO
2000000000648420190222208030PREF. DE: MA - IMPERATRIZ               IPA0181804201902190815AV DORGIVAL PINHEIRO S N1111                                OIS4171MA46514      CHEVROLET/CELTA 1.0L LT                      PARTICULAR                    AUTOMOVEL       PRATA     00000000RITA ROUVE BEZERRA                          R RIO DE JANEIRO NR. 02                 - JARDIM SAO LUIS                       65913150IMPERATRIZ          MAESTAC. EM LOCAL/HORARIO PROIBIDO ESPECIFIC. P/SINA181*XVIII          00000000055500   0000130160080320190223201904080000000000000000000000000                                                00000000000  000   23    00040383895164655500PASSAGEIRO
2000000000648420190222208030PREF. DE: MA - IMPERATRIZ               IPA0182108201902131150R AQUILES LISBOA F/N 590                                    PSC3826MA23150      FIAT/DOBLO ATTRACTIV 1.4                     PARTICULAR                    AUTOMOVEL       PRATA     00000000A C DE SOUSA JUNIOR ME                      R AQUILES LISBOA NR. 538                - MERCADINHO                            65901340IMPERATRIZ          MAESTACIONAR AO LADO DE OUTRO VEICULO EM FILA DUPLA 181 * XI           00000000054870   0000195230080320190223201904080000000000000000000000000                                                00000000000  000   24    00050383895466154870PASSAGEIRO
2000000000648420190222208030PREF. DE: MA - IMPERATRIZ               IPA0181805201902190956AV DORGIVAL PINHEIRO S N746                                 OJF6490MA46514      VW/NOVO GOL 1.6                              PARTICULAR                    AUTOMOVEL       PRATA     00000000ABRAHAO JORGE GARCIA MACHADO                RUA ASSEMBLEIA NR. N 80                 - VL REDENCAO I                         65910180IMPERATRIZ          MAESTAC. EM LOCAL/HORARIO PROIBIDO ESPECIFIC. P/SINA181*XVIII          00000000055500   0000130160080320190223201904080000000000000000000000000                                                00000000000  000   25    00040383895682655500PASSAGEIRO
2000000000648420190222208030PREF. DE: MA - IMPERATRIZ               IPA0180857201902131700R SERGIPE C/TAMANDARE /SETOR R                              NHQ5282MA535095     FIAT/SIENA FIRE FLEX                         PARTICULAR                    AUTOMOVEL       PRATA     00000000CLEYTON LIMA DE SOUSA                       R D PEDRO II NR. N 626                  - BACURI                                65916280IMPERATRIZ          MATRANSIT. EFET. TRANSP.REMUN/PESSOAS N.LICENC. P/ES231 * VIII         00000000068661   0000130160080320190223201904080000000000000000000000000                                                00000000000  000   26    00040383895767968661PASSAGEIRO
2000000000648420190222208030PREF. DE: MA - IMPERATRIZ               IPA0182109201902130849R SIMPLICIO MOREIRA F/N1806                                 FHF7372MA23150      TOYOTA/COROLLA GLI FLEX                      PARTICULAR                    AUTOMOVEL       PRATA     00000000DELMAR PEREIRA ALMEIDA JUNIOR               R LEAO 13 NR. 863                       - NV IMPERATRIZ                         65901550IMPERATRIZ          MAESTACIONAR SOBRE FAIXA DESTINADA A PEDESTRE       181 * VIII         00000000054522   0000195230080320190223201904080000000000000000000000000                                                00000000000  000   27    00050383895773354522PASSAGEIRO
2000000000648420190222208030PREF. DE: MA - IMPERATRIZ               IPA0182110201902141031R ALAGOAS C/AV GETULIO VARGAS                               OXX1315MA23150      HONDA/FIT LX CVT                             PARTICULAR                    AUTOMOVEL       CINZA     00000000MARCIO BRUNO HERNANDES LEAL                 R 15 DE NOVEMBRO NR. 782                - BEIRA RIO                             65900050IMPERATRIZ          MAESTACIONAR EM DESACORDO C/REGULAM-VAGA DE CARGA/DE181 * XVII         00000000055414   0000195230080320190223201904080000000000000000000000000                                                00000000000  000   28    00050383896427655414PASSAGEIRO
2000000000648420190222208030PREF. DE: MA - IMPERATRIZ               IPA0181806201902191149R PERNAMBUCO N1111 CENTRO                                   PSS4543MA46514      I/TOYOTA HILUX CDSRVA2GF                     PARTICULAR                    CAMINHONETE     BRANCA    00000000MARIA CELIA MILHOMEM M SILVA                RUA DOM PEDRO II NR. 1831               - BACURI                                65916280IMPERATRIZ          MAESTACIONAR AO LADO DE OUTRO VEICULO EM FILA DUPLA 181 * XI           00000000054870   0000195230080320190223201904080000000000000000000000000                                                00000000000  000   29    00050383897131054870ESPECIAL
2000000000648420190222208030PREF. DE: MA - IMPERATRIZ               IPA0182112201902151020R CORIOLANO MILHOMEM C/R BOM F                              NHN4997MA23150      FIAT/PALIO FIRE FLEX                         PARTICULAR                    AUTOMOVEL       VERDE     00000000ROSILENE VILAR DA SILVA                     RUA CEL MANOEL BANDEIRA NR. N 805       - CENTRO                                65900000IMPERATRIZ          MAAVANCAR SINAL VERMELHO DO SEMAFORO                208                00000000060501   0000293470080320190223201904080000000000000000000000000                                                00000000000  000   30    00070383897273260501PASSAGEIRO
2000000000648420190222208030PREF. DE: MA - IMPERATRIZ               IPA0182113201902151358R SIMPLICIO MOREIRA F/N1590                                 OXQ1018MA23150      FIAT/STRADA WORKING CD                       PARTICULAR                    CAMINHONETE     CINZA     00000000GILDETE ANTUNES DE CARVALHO                 AV RIO BRANCO NR. N75                   - CENTRO                                65924000VILA NOVA DOS MARTIRMADIRIGIR VEICULO SEGURANDO TELEFONE CELULAR        ART 252, & UNICO   00000000076331   0000293470080320190223201904080000000000000000000000000                                                00000000000  000   31    00070383897423976331ESPECIAL
2000000000648420190222208030PREF. DE: MA - IMPERATRIZ               IPA0182114201902151439AV GETULIO VARGAS F/N1760                                   PSC6130MA23150      VW/GOL SPECIAL MB                            PARTICULAR                    AUTOMOVEL       BRANCA    00000000JORDETE CARVALHO NOLETO                     RUA 13 DE MAIO NR. 1784                 - JUCARA                                65913230IMPERATRIZ          MAESTACIONAR AO LADO DE OUTRO VEICULO EM FILA DUPLA 181 * XI           00000000054870   0000195230080320190223201904080000000000000000000000000                                                00000000000  000   32    00050383897658454870PASSAGEIRO
2000000000648420190222208030PREF. DE: MA - IMPERATRIZ               IPA0182115201902151446AV DORGIVAL P SOUSA C/R ALAGOA                              PTH7290MA23150      TOYOTA/COROLLA ALTISFLEX                     PARTICULAR                    AUTOMOVEL       BRANCA    00000000HELANA ROCHA RODRIGUES                      RUA ESPORTE NR. 19                      - JD MORADA D SOL                       65900001IMPERATRIZ          MAESTAC. EM DESACORDO C/ A REGULAMENTACAO ESPECIFICA181 * XVII         00000000055411   0000195230080320190223201904080000000000000000000000000                                                00000000000  000   33    00050383897832355411PASSAGEIRO
2000000000648420190222208030PREF. DE: MA - IMPERATRIZ               IPA0182116201902151501AV GETULIO VARGAS F/N 2030                                  NNI8131MA23150      I/FIAT SIENA EL FLEX                         PARTICULAR                    AUTOMOVEL       VERDE     00000000MARIA INEZ DIOGO ABREU                      RUA PRINCIPAL NR. 002                   - ACAIZAL                               65935000SENADOR LA ROQUE    MAESTACIONAR AO LADO DE OUTRO VEICULO EM FILA DUPLA 181 * XI           00000000054870   0000195230080320190223201904080000000000000000000000000                                                00000000000  000   34    00050383898010754870PASSAGEIRO
2000000000648420190222208030PREF. DE: MA - IMPERATRIZ               IPA0180855201902071640R GODOFREDO VIANA N1284 CENTRO                              PST0188MA535095     HYUNDAI/HB20 1.6A COMF                       PARTICULAR                    AUTOMOVEL       PRATA     00000000ROSA MARIA BEZERRA LEDA                     RUA RAFAEL DE A RIBEIRO NR. 08          QD 04 - SAO SALVADOR                    65916193IMPERATRIZ          MAESTACIONAR AO LADO DE OUTRO VEICULO EM FILA DUPLA 181 * XI           00000000054870   0000195230080320190223201904080000000000000000000000000                                                00000000000  000   35    00050383898025554870PASSAGEIRO
2000000000648420190222208030PREF. DE: MA - IMPERATRIZ               IPA0180856201902091025R SOUSA LIMA N615B CENTRO                                   NWZ9284MA535095     HONDA/BIZ 125 ES                             PARTICULAR                    MOTONETA        VERMELHA  00000000LUCILENE PEREIRA DE SOUSA                   R JOSE BONIFACIO NR. N 881              - JD SAO LUIS                           65913060IMPERATRIZ          MAESTACIONAR NAS VAGAS RESERVADAS A IDOSOS, SEM CREDART 181, XX        00000000076252   0000293470080320190223201904080000000000000000000000000                                                00000000000  000   36    00070383898367076252PASSAGEIRO
2000000000648420190222208030PREF. DE: MA - IMPERATRIZ               IPA0182118201902160912R SIMPLICIO MOREIRA F/N1657 B                               PSL8537MA23150      HONDA/CG 160 FAN ESDI                        PARTICULAR                    MOTOCICLETA     PRETA     00000000MARIO DE ABREU DA SILVA                     RUA VISCONDE MAUA NR. 52                - VL INDEPENDENTE                       65914151IMPERATRIZ          MAESTACIONAR NAS VAGAS RESERV AS PESSOAS C/DEFIC.S/CART 181, XX        00000000076251   0000293470080320190223201904080000000000000000000000000                                                00000000000  000   37    00070383898426976251PASSAGEIRO
2000000000648420190222208030PREF. DE: MA - IMPERATRIZ               IPA0182119201902161200R SOUSA LIMA F/N 739                                        PSH9025MA23150      HONDA/POP 110I                               PARTICULAR                    MOTOCICLETA     BRANCA    00000000MARIA GARDENIA ROCHA AQUINO                 RUA 07 NR. 10                           - SAO JOSE                              65905323IMPERATRIZ          MAESTACIONAR NAS VAGAS RESERVADAS A IDOSOS, SEM CREDART 181, XX        00000000076252   0000293470080320190223201904080000000000000000000000000                                                00000000000  000   38    00070383898507976252PASSAGEIRO
2000000000648420190222208030PREF. DE: MA - IMPERATRIZ               IPA0180858201902141425R PARAIBA ESQ/AV GETULIO VARGA                              NXL1406MA535095     VW/SAVEIRO 1.6 CE CROSS                      PARTICULAR                    CAMINHONETE     VERMELHA  00000000MARIA DE JESUS PEREIRA                      RUA SANTA TEREZA NR. 1120               - NOVA IMPERATRIZ                       65900001IMPERATRIZ          MAAVANCAR SINAL VERMELHO DO SEMAFORO                208                00000000060501   0000293470080320190223201904080000000000000000000000000                                                00000000000  000   39    00070383898522260501CARGA
2000000000648420190222208030PREF. DE: MA - IMPERATRIZ               IPA0182122201902161205R SOUSA LIMA F/N739                                         OJC5951MA23150      HONDA/BIZ 125 ES                             PARTICULAR                    MOTONETA        VERMELHA  00000000ROSA LUCIA RODRIGUES SANTANA                R EUCLIDES DA CUNHA NR. 94              - BACURI                                65901150IMPERATRIZ          MAESTACIONAR NAS VAGAS RESERVADAS A IDOSOS, SEM CREDART 181, XX        00000000076252   0000293470080320190223201904080000000000000000000000000                                                00000000000  000   40    00070383898793476252PASSAGEIRO
2000000000648420190222208030PREF. DE: MA - IMPERATRIZ               IPA0181241201902102138R CEL MANOEL BANDEIRA F/PC CUL                              NXL2789MA465267     CHEVROLET/CLASSIC LS                         PARTICULAR                    AUTOMOVEL       CINZA     00000000WLISSES DA SILVA LIMA                       RUA ESTOCOLMO NR. 06                    CS A - VILINHA                          65900000IMPERATRIZ          MAESTACIONAR EM DESACORDO C/REGULAMENTACAO-PONTO OU 181 * XVII         00000000055413   0000195230080320190223201904080000000000000000000000000                                                00000000000  000   41    00050383898896555413PASSAGEIRO
2000000000648420190222208030PREF. DE: MA - IMPERATRIZ               IPA0181242201902102306R SIMPLICIO MOREIRA PC FATIMA                               PSM0215MA465267     VW/UP MOVE MA                                PARTICULAR                    AUTOMOVEL       VERMELHA  00000000MARIA CELENE PEREIRA                        RUA CEARA NR. 499                       - CENTRO                                65901610IMPERATRIZ          MAESTACIONAR EM DESACORDO C/REGULAMENTACAO-PONTO OU 181 * XVII         00000000055413   0000195230080320190223201904080000000000000000000000000                                                00000000000  000   42    00050383899202455413PASSAGEIRO
2000000000648420190222208030PREF. DE: MA - IMPERATRIZ               IPA0180859201902141430AV GETULIO VARGAS ESQ/ALAGOAS                               PTI3167MA535095     JEEP/COMPASS LIMITED D                       PARTICULAR                    UTILITARIO      BRANCA    00000000MEGA SUPLEMENTOS LTDA                       AV DORGIVAL P DE SOUSA NR. 1259         - CENTRO                                65903270IMPERATRIZ          MADEIXAR DE DAR PREF.PEDES/VEIC NAO MOTOR.FAIXA ELE 214 * I            00000000061220   0000293470080320190223201904080000000000000000000000000                                                00000000000  000   43    00070383899270961220MISTO
2000000000648420190222208030PREF. DE: MA - IMPERATRIZ               IPA0181245201902111450R CORIOLANO MILHOMEM L/MARISA                               HPX4094MA465267     FIAT/UNO MILLE FIRE                          PARTICULAR                    AUTOMOVEL       VERMELHA  00000000EDEUVALDO FERNANDES LIMA                    RUA 07 DE SETEMBRO NR. 3611             - BACURI                                65901550IMPERATRIZ          MAESTACIONAR EM DESACORDO C/REGULAM-VAGA DE CARGA/DE181 * XVII         00000000055414   0000195230080320190223201904080000000000000000000000000                                                00000000000  000   44    00050383899280655414PASSAGEIRO
2000000000648420190222208030PREF. DE: MA - IMPERATRIZ               IPA0181273201902081012R CORIOLANO MILLHOMEM P/N1655                               OXQ8613MA535109     FIAT/UNO ECONOMY                             PARTICULAR                    AUTOMOVEL       CINZA     00000000DOURALICE FRANCO S DA CUNHA                 RUA 07 DE SETEMBRO NR. N3517            A - BACURI                              65900000IMPERATRIZ          MAESTACIONAR EM DESACORDO C/REGULAM-VAGA DE CARGA/DE181 * XVII         00000000055414   0000195230080320190223201904080000000000000000000000000                                                00000000000  000   45    00050383899288155414PASSAGEIRO
2000000000648420190222208030PREF. DE: MA - IMPERATRIZ               IPA0181246201902111505AV GETULIO VARGAS N1019 CENTRO                              NXO1412MA465267     VW/SAVEIRO 1.6 CE CROSS                      PARTICULAR                    CAMINHONETE     PRETA     00000000F S LIMA E CIA LTDA                         R RIO GRANDE DO NORTE NR. 1214          - MERCADINHO                            65901280IMPERATRIZ          MAESTACIONAR EM CALCADA REBAIXADA DEST. ENTRADA/SAID181 * IX           00000000054600   0000130160080320190223201904080000000000000000000000000                                                00000000000  000   46    00040383899397754600CARGA
2000000000648420190222208030PREF. DE: MA - IMPERATRIZ               IPA0180860201902141530R PIAUI S/N CENTRO                                          HPW8330MA535095     VW/GOL 1.0                                   PARTICULAR                    AUTOMOVEL       VERMELHA  00000000BFB LEASING S A ARREND MERCANTIL            R SIMPLICIO MOREIRA NR. 02              - CENTRO                                65900000IMPERATRIZ          MAESTACIONAR EM DESACORDO C/REGULAM-VAGA DE CARGA/DE181 * XVII         00000000055414   0000195230080320190223201904080000000000000000000000000                                                00000000000  000   47    00050383899441855414PASSAGEIRO
2000000000648420190222208030PREF. DE: MA - IMPERATRIZ               IPA0181247201902121327R CEARA N1788 BACURI                                        NSQ4936MA465267     VW/GOL 1.0 GIV                               PARTICULAR                    AUTOMOVEL       PRATA     00000000SIMONE LOPES DE ASSUNCAO SILVA              R SANTOS DUMONT NR. 1127                - VL NOVA                               65900001IMPERATRIZ          MADIRIGIR VEICULO MANUSEANDO TELEFONE CELULAR       ART 252, & UNICO   00000000076332   0000293470080320190223201904080000000000000000000000000                                                00000000000  000   48    00070383899515576332PASSAGEIRO
2000000000648420190222208030PREF. DE: MA - IMPERATRIZ               IPA0181274201902091025R SOUSA LIMA PROX/N615                                      PQL7436MA535109     HONDA/NXR160 BROS ESDD                       PARTICULAR                    MOTOCICLETA     BRANCA    00000000IRACI PAULA DA SILVA ROCHA                  R MIGUEL M BANDEIRA NR. 1145            - VL EDINHO                             65928000GOV.EDISON LOBAO    MAESTACIONAR NAS VAGAS RESERVADAS A IDOSOS, SEM CREDART 181, XX        00000000076252   0000293470080320190223201904080000000000000000000000000                                                00000000000  000   49    00070383899547376252PASSAGEIRO
2000000000648420190222208030PREF. DE: MA - IMPERATRIZ               IPA0180861201902141545R PARAIBA N743 PX/FARM AVENIDA                              OJO7163MA535095     RENAULT/SANDERO EXP1016V                     PARTICULAR                    AUTOMOVEL       VERMELHA  00000000GIEGILLA BARROS SANTOS                      RUA CASTELO BRANCO NR. N1019            - CENTRO                                65930000ACAILANDIA          MAESTACIONAR EM DESACORDO C/REGULAM-VAGA DE CARGA/DE181 * XVII         00000000055414   0000195230080320190223201904080000000000000000000000000                                                00000000000  000   50    00050383899985155414PASSAGEIRO
2000000000648420190222208030PREF. DE: MA - IMPERATRIZ               IPA0181276201902081029R SOUSA LIMA N/615                                          PTC8412MA535109     HONDA/NXR 160 BROS                           PARTICULAR                    MOTOCICLETA     BRANCA    00000000LUCAS LOPES AGUIAR                          RUA HB NR. SN                           - BANANINHA                             65922000JOAO LISBOA         MAESTACIONAR NAS VAGAS RESERVADAS A IDOSOS, SEM CREDART 181, XX        00000000076252   0000293470080320190223201904080000000000000000000000000                                                00000000000  000   51    00070383900135876252PASSAGEIRO
2000000000648420190222208030PREF. DE: MA - IMPERATRIZ               IPA0182401201902121634AV GETULIO VARGAS N1862A CENTR                              PSL5725MA465267     I/FIAT SIENA EL 1.4 FLEX                     PARTICULAR                    AUTOMOVEL       CINZA     00000000MARIA DO E S DE S M NOGUEIRA                AV BONFIM TEIXEIRA NR. 1801             - CENTRO                                65923000AMARANTE DO MARANHAOMAESTACIONAR AO LADO DE OUTRO VEICULO EM FILA DUPLA 181 * XI           00000000054870   0000195230080320190223201904080000000000000000000000000                                                00000000000  000   52    00050383900853054870PASSAGEIRO
2000000000648420190222208030PREF. DE: MA - IMPERATRIZ               IPA0181275201902091029R SOUSA LIMA N/615                                          PTC8412MA535109     HONDA/NXR 160 BROS                           PARTICULAR                    MOTOCICLETA     BRANCA    00000000LUCAS LOPES AGUIAR                          RUA HB NR. SN                           - BANANINHA                             65922000JOAO LISBOA         MAESTACIONAR NAS VAGAS RESERVADAS A IDOSOS, SEM CREDART 181, XX        00000000076252   0000293470080320190223201904080000000000000000000000000                                                00000000000  000   53    00070383900920076252PASSAGEIRO
2000000000648420190222208030PREF. DE: MA - IMPERATRIZ               IPA0180863201902141600R SOUSA LIMA C/AV DORGIVAL                                  JVD9116MA535095     VW/GOL 1.0 GIV                               PARTICULAR                    AUTOMOVEL       VERMELHA  00000000JOSE RENATO DA SILVA CHAVES                 RUA AV JOAO BOUERES NR. N 212           - CENTRO                                65938000RIBAMAR FIQUENE     MAAVANCAR SINAL VERMELHO DO SEMAFORO                208                00000000060501   0000293470080320190223201904080000000000000000000000000                                                00000000000  000   54    00070383901470060501PASSAGEIRO
2000000000648420190222208030PREF. DE: MA - IMPERATRIZ               IPA0180864201902151430R BENEDITO LEITE N1332 B/MERCA                              OJC1303MA535095     I/TOYOTA HILUXSW4 SRV4X4                     PARTICULAR                    UTILITARIO      PRETA     00000000ROTERDAM DE JESUS VIEGAS G NETO             RUA C 7 NR. 15                          QUADRA 70 - JARDIM TROPICAL             65900001IMPERATRIZ          MAESTACIONAR EM DESACORDO C/REGULAMENTACAO-PONTO OU 181 * XVII         00000000055413   0000195230080320190223201904080000000000000000000000000                                                00000000000  000   55    00050383901747555413MISTO
2000000000648420190222208030PREF. DE: MA - IMPERATRIZ               IPA0181277201902091200R JOAO LISBOA N/1665                                        PSY3380MA535109     I/TOYOTA HILUX CDSRVA4FD                     PARTICULAR                    CAMINHONETE     PRATA     00000000JOSE MASPULI FURLANETO                      R SERGIPE NR. 820                       - RODOVIARIA                            65900001IMPERATRIZ          MAESTACIONAR AO LADO DE OUTRO VEICULO EM FILA DUPLA 181 * XI           00000000054870   0000195230080320190223201904080000000000000000000000000                                                00000000000  000   56    00050383901798054870ESPECIAL
2000000000648420190222208030PREF. DE: MA - IMPERATRIZ               IPA0182402201902121637R GUANABARA N83 ENTRONCAMENTO                               NNH7976MA465267     GM/S10 EXECUTIVE D 4X4                       PARTICULAR                    CAMINHONETE     PRATA     00000000CARLOS FERNANDO CARVALHO SANTANA            RUA TUPINAMBA NR. N2517                 - CENTRO                                65900000IMPERATRIZ          MAESTACIONAR AO LADO DE OUTRO VEICULO EM FILA DUPLA 181 * XI           00000000054870   0000195230080320190223201904080000000000000000000000000                                                00000000000  000   57    00050383903001354870ESPECIAL
2000000000648420190222208030PREF. DE: MA - IMPERATRIZ               IPA0181610201902120802R MONTE CAST ESQ. C/R SERGIPE                               OJP7781MA46511      FIAT/STRADA WORKING CD                       PARTICULAR                    CAMINHONETE     BRANCA    00000000ROGERIA BEZERRA BRAGA                       RUA DOM CESARIO NR. 1001                - TRES PODERES                          65903230IMPERATRIZ          MADIRIGIR VEICULO SEGURANDO TELEFONE CELULAR        ART 252, & UNICO   00000000076331   0000293470080320190223201904080000000000000000000000000                                                00000000000  000   58    00070383903397776331ESPECIAL
2000000000648420190222208030PREF. DE: MA - IMPERATRIZ               IPA0182403201902121656R GODOFREDO VIANA C/R JOAO LIS                              NXP6412MA465267     FORD/KA FLEX                                 PARTICULAR                    AUTOMOVEL       VERMELHA  00000000KAYNAN ROCHA NUNES ALMEIDA                  AV CONSTELACOES NR. 102                 BL 02 RES 5 ESTR - CINCO ESTRELAS       65913420IMPERATRIZ          MADEIXAR O CONDUTOR DE USAR O CINTO E SEGURANCA     167                00000000051851   0000195230080320190223201904080000000000000000000000000                                                00000000000  000   59    00050383903818951851PASSAGEIRO
2000000000648420190222208030PREF. DE: MA - IMPERATRIZ               IPA0182404201902121715R ALAGOAS S/N L/RESTAU FEITO A                              OJL5890MA465267     I/TOYOTA HILUX CD4X4 SRV                     PARTICULAR                    CAMINHONETE     PRETA     00000000BRITO E SOUSA LTDA ME                       R DUQUE DE CAXIAS NR. 238               - VL LOBAO                              65910150IMPERATRIZ          MAESTACIONAR EM DESACORDO C/REGULAM-VAGA DE CARGA/DE181 * XVII         00000000055414   0000195230080320190223201904080000000000000000000000000                                                00000000000  000   60    00050383904237255414ESPECIAL
2000000000648420190222208030PREF. DE: MA - IMPERATRIZ               IPA0182405201902121719R ALAGOAS S/N L/NADIA RURAL                                 PYS0105MA465267     FIAT/STRADA HD WK CC E                       PARTICULAR                    CAMINHONETE     PRATA     00000000MARCOS AURELIO SILVA CARVALHO               RUA URBANO SANTOS NR. 1164              - CENTRO                                65900410IMPERATRIZ          MAESTACIONAR EM DESACORDO C/REGULAM-VAGA DE CARGA/DE181 * XVII         00000000055414   0000195230080320190223201904080000000000000000000000000                                                00000000000  000   61    00050383904716155414CARGA
2000000000648420190222208030PREF. DE: MA - IMPERATRIZ               IPA0181613201902131030AV DORGIVAL PINH PX/PC FATIMA                               OJG5234MA387320     RENAULT/SANDERO SW1616VA                     PARTICULAR                    AUTOMOVEL       BRANCA    00000000FERREIRA E SANTANA LTDA ME                  RUA DO SOL NR. 08                       LOTE 08 - MORADO SOL                    65913350IMPERATRIZ          MAESTACIONAR AFASTADO DA GUIA DA CALCADA(MEIO-FIO) A181 * III          00000000054010   0000195230080320190223201904080000000000000000000000000                                                00000000000  000   62    00050383904821454010PASSAGEIRO
2000000000648420190222208030PREF. DE: MA - IMPERATRIZ               IPA0181614201902160805AV DORGIVAL PINHEIRO S N1320                                NWT9576MA46511      VW/CROSSFOX GII                              PARTICULAR                    AUTOMOVEL       PRETA     00000000AYLTON SILVA OLIVEIRA                       R CAROLINA NR. N 46                     - CJ HAB BRASIL                         65901550IMPERATRIZ          MAESTAC. EM LOCAL/HORARIO PROIBIDO ESPECIFIC. P/SINA181*XVIII          00000000055500   0000130160080320190223201904080000000000000000000000000                                                00000000000  000   63    00040383905019755500PASSAGEIRO
2000000000648420190222208030PREF. DE: MA - IMPERATRIZ               IPA0181615201902160820R BAHIA PX/N353                                             NIH5744MA46511      FIAT/PALIO ELX FLEX                          PARTICULAR                    AUTOMOVEL       PRATA     00000000JOCILEIA XAVIER DA R SILVA                  R SAO JOAO NR. 699A                     - VILA LOBAO                            65900001IMPERATRIZ          MAESTACIONAR AO LADO DE OUTRO VEICULO EM FILA DUPLA 181 * XI           00000000054870   0000195230080320190223201904080000000000000000000000000                                                00000000000  000   64    00050383905210654870PASSAGEIRO
2000000000648420190222208030PREF. DE: MA - IMPERATRIZ               IPA0182407201902131520R RIO GRANDE NORTE N517A CENTR                              PTI5855MA465267     I/TOYOTA HILUX SWSRVA2HF                     PARTICULAR                    UTILITARIO      PRATA     00000000RODRIGO NASCIMENTO REIS                     RUA BENEDITO LEITE NR. 251              - UNIAO                                 65903290IMPERATRIZ          MAESTACIONAR EM DESACORDO C/REGULAM-VAGA DE CARGA/DE181 * XVII         00000000055414   0000195230080320190223201904080000000000000000000000000                                                00000000000  000   65    00050383905257255414MISTO
2000000000648420190222208030PREF. DE: MA - IMPERATRIZ               IPA0182409201902140810R RAIMUNDO DE MORAIS N1                                     LVV5446MA465348     HONDA/CG 150 TITAN ES                        PARTICULAR                    MOTOCICLETA     VERDE     00000000ISRAEL VIEIRA DA SILVA                      AV CONTORNO NR. 3810                    - POTOSI                                65800000BALSAS              MATRANSIT. P/ CONTRAMAO EM VIAS C/ SENT. UNICO      186 * II           00000000057380   0000293470080320190223201904080000000000000000000000000                                                00000000000  000   66    00070383905881357380PASSAGEIRO
2000000000648420190222208030PREF. DE: MA - IMPERATRIZ               IPA0181616201902180735AV TAPAJOS PX/ESCOLA MAD CANOS                              PST4861MA46511      CHEVROLET/ONIX 1.0MT LT                      PARTICULAR                    AUTOMOVEL       BRANCA    00000000MARCIA BARBOSA DE OLIVEIRA                  AV DAVI ALVES E SILVA NR. 1066          - CENTRO                                65901550IMPERATRIZ          MATRANSIT. P/ CONTRAMAO EM VIAS C/ SENT. UNICO      186 * II           00000000057380   0000293470080320190223201904080000000000000000000000000                                                00000000000  000   67    00070383906715457380PASSAGEIRO
2000000000648420190222208030PREF. DE: MA - IMPERATRIZ               IPA0182411201902121439R PIAUI S/N L/DROGARIA ULTRA P                              NHY0548MA465267     FORD/FIESTA SEDAN FLEX                       PARTICULAR                    AUTOMOVEL       PRETA     00000000VALDEAN VELOSO DA SILVA                     R RIO GRANDE DO NORTE NR. 814           - CENTRO                                65901435IMPERATRIZ          MAESTACIONAR EM DESACORDO C/REGULAM-VAGA DE CARGA/DE181 * XVII         00000000055414   0000195230080320190223201904080000000000000000000000000                                                00000000000  000   68    00050383907591255414PASSAGEIRO
2000000000648420190222208030PREF. DE: MA - IMPERATRIZ               IPA0181502201902090950R ITAMADARE F/MIX MATEUS DA RO                              NNI8390MA535176     I/VW SPACEFOX GII                            ALUGUEL                       AUTOMOVEL       BRANCA    00000000PAULO DA COSTA REIS                         RUA PIRACICABA NR. 24                   - PQ SANTA LUCIA                        65912280IMPERATRIZ          MAESTACIONAR AO LADO DE OUTRO VEICULO EM FILA DUPLA 181 * XI           00000000054870   0000195230080320190223201904080000000000000000000000000                                                00000000000  000   69    00050383908532254870PASSAGEIRO
2000000000648420190222208030PREF. DE: MA - IMPERATRIZ               IPA0174230201902102135R CEL MANOEL BANDEIRA F/PC CUL                              PSL9615MA597791     CHEV/PRISMA 1.4AT LTZ                        PARTICULAR                    AUTOMOVEL       PRETA     00000000MARIVETE FERNANDES DE OLIVEIRA              AV BERNARDO SAYAO NR. 1375A             - NOVA IMPERATRIZ                       65913420IMPERATRIZ          MAESTACIONAR EM DESACORDO C/REGULAMENTACAO-PONTO OU 181 * XVII         00000000055413   0000195230080320190223201904080000000000000000000000000                                                00000000000  000   70    00050383908669855413PASSAGEIRO
2000000000648420190222208030PREF. DE: MA - IMPERATRIZ               IPA0181618201902161900R CORIOLANO MILHOM PX/R JOAO L                              HPO7985MA46511      HONDA/C100 BIZ ES                            PARTICULAR                    MOTONETA        VERDE     00000000HELIEYDE RODRIGUES RIBEIRO                  RUA FREI CANECA 104A NR.                - PQ SAO JOSE                           65900000IMPERATRIZ          MATRANSIT. P/ CONTRAMAO EM VIAS C/ SENT. UNICO      186 * II           00000000057380   0000293470080320190223201904080000000000000000000000000                                                00000000000  000   71    00070383909512357380PASSAGEIRO
2000000000648420190222208030PREF. DE: MA - IMPERATRIZ               IPA0174231201902102150AV BEIRA RIO L/ACADEMIA POPULA                              OIS1672MA597791     I/FORD FOCUS HC FLEX                         PARTICULAR                    AUTOMOVEL       PRATA     00000000RICARDO DE SOUSA MOTA                       RUA GUANABARA NR. 557                   - ENTROCAMENTO                          65913447IMPERATRIZ          MAESTAC. EM LOCAL/HORARIO PROIBIDO ESPECIFIC. P/SINA181*XVIII          00000000055500   0000130160080320190223201904080000000000000000000000000                                                00000000000  000   72    00040383909646455500PASSAGEIRO
2000000000648420190222208030PREF. DE: MA - IMPERATRIZ               IPA0180505201902090953R PARAIBA ENT/TAMANDARE E MONT                              PTF7863MA535176     HONDA/POP 110I                               PARTICULAR                    MOTOCICLETA     PRETA     00000000WALTER SOARES DA SILVA                      AV ANTONIO P ARAGAO NR. 1764            - CENTRO                                65470000SAO MATEUS          MATRANSIT. P/ CONTRAMAO EM VIAS C/ SENT. UNICO      186 * II           00000000057380   0000293470080320190223201904080000000000000000000000000                                                00000000000  000   73    00070383909702957380PASSAGEIRO
2000000000648420190222208030PREF. DE: MA - IMPERATRIZ               IPA0174232201902102155AV BEIRA RIO L/ACADEMIA POPULA                              NHH4507MA597791     FORD/FIESTA SEDAN1.6FLEX                     PARTICULAR                    AUTOMOVEL       PRATA     00000000ISAIAS MARQUES DA C NETO                    R BOM JESUS NR. N2043                   - MARANHAO NOVO                         65900000IMPERATRIZ          MAESTAC. EM LOCAL/HORARIO PROIBIDO ESPECIFIC. P/SINA181*XVIII          00000000055500   0000130160080320190223201904080000000000000000000000000                                                00000000000  000   74    00040383909883155500PASSAGEIRO
2000000000648420190222208030PREF. DE: MA - IMPERATRIZ               IPA0174233201902102200R GODOFREDO VIANA F/N864                                    PTA4087MA597791     HONDA/CIVIC EXL CVT                          PARTICULAR                    AUTOMOVEL       BRANCA    00000000INGRID SUELLEN SILVA DE SOUSA               RUA BAHIA NR. 791                       AP 702 - SANTA RITA                     65900001IMPERATRIZ          MAESTACIONAR AO LADO DE OUTRO VEICULO EM FILA DUPLA 181 * XI           00000000054870   0000195230080320190223201904080000000000000000000000000                                                00000000000  000   75    00050383909960954870PASSAGEIRO
2000000000648420190222208030PREF. DE: MA - IMPERATRIZ               IPA0181619201902160915R PIAUI PX/DROG ULTRA POPULAR                               OJD7619MA46511      I/TOYOTA HILUX CD4X4 SRV                     PARTICULAR                    CAMINHONETE     PRATA     00000000FERNANDO DARIO DE SOUSA REGO                RUA ANTONIO DE MIRANDA NR. 705          - CENTRO                                65900620IMPERATRIZ          MAESTACIONAR EM DESACORDO C/REGULAM-VAGA DE CARGA/DE181 * XVII         00000000055414   0000195230080320190223201904080000000000000000000000000                                                00000000000  000   76    00050383909968455414ESPECIAL
2000000000648420190222208030PREF. DE: MA - IMPERATRIZ               IPA0181303201902110835AV DORGIVAL P DE SOUSA F/N1496                              NWW4129MA535150     HONDA/CG 150 FAN ESI                         PARTICULAR                    MOTOCICLETA     PRATA     00000000MANOEL M PEREIRA                            RUA FORTUNATO BANDEIRA NR. 1184         - NOVA IMPERATRIZ                       65907160IMPERATRIZ          MAESTACIONAR EM DESACORDO C/REGULAM-VAGA DE CARGA/DE181 * XVII         00000000055414   0000195230080320190223201904080000000000000000000000000                                                00000000000  000   77    00050383909984655414PASSAGEIRO
2000000000648420190222208030PREF. DE: MA - IMPERATRIZ               IPA0174234201902102300R SIMPLICIO MOREIRA F/PC FATIM                              OIZ5194MA597791     NISSAN/FRONTIER SVATK4X4                     PARTICULAR                    CAMINHONETE     BRANCA    00000000JOSE DE RIBAMAR SILVA                       RUA DA AMIZADE NR 06 NR.                - VILA LOBAO                            65047630SAO LUIS            MAESTACIONAR EM DESACORDO C/REGULAMENTACAO-PONTO OU 181 * XVII         00000000055413   0000195230080320190223201904080000000000000000000000000                                                00000000000  000   78    00050383910242155413ESPECIAL
2000000000648420190222208030PREF. DE: MA - IMPERATRIZ               IPA0181305201902110836AV DORGIVAL P DE SOUSA F/N1496                              ORN6478MA535150     HYUNDAI/HB20S 1.0M COMF                      PARTICULAR                    AUTOMOVEL       BRANCA    00000000SARIANA FREDERICO VIEIRA                    AV PEDRO N DE SANTANA NR. 42            RES ECO PARK 4 - JOAO PAULO II          65919555IMPERATRIZ          MAESTACIONAR EM DESACORDO C/REGULAM-VAGA DE CARGA/DE181 * XVII         00000000055414   0000195230080320190223201904080000000000000000000000000                                                00000000000  000   79    00050383910286355414PASSAGEIRO
2000000000648420190222208030PREF. DE: MA - IMPERATRIZ               IPA0181306201902110905AV BERNARDO SAYAO NOVA IMPERAT                              HQE2477MA535150     FIAT/PALIO ELX FLEX                          PARTICULAR                    AUTOMOVEL       BRANCA    00000000CARLOS DE SANTANA SILVA                     RUA GENERAL GURJAO NR. 428              - BACURI                                65900000IMPERATRIZ          MADIRIGIR VEICULO SEGURANDO TELEFONE CELULAR        ART 252, & UNICO   00000000076331   0000293470080320190223201904080000000000000000000000000                                                00000000000  000   80    00070383910397576331PASSAGEIRO
2000000000648420190222208030PREF. DE: MA - IMPERATRIZ               IPA0181620201902161151R BENEDITO LEITE PX/N1414                                   PTG7339MA46511      I/CHEV CRUZE LT NB AT                        PARTICULAR                    AUTOMOVEL       BRANCA    00000000F M GUERRA                                  RUA TAMANDARE NR. 639                   - JD SAO LUIS                           65913030IMPERATRIZ          MAESTACIONAR AO LADO DE OUTRO VEICULO EM FILA DUPLA 181 * XI           00000000054870   0000195230080320190223201904080000000000000000000000000                                                00000000000  000   81    00050383910452154870PASSAGEIRO
2000000000648420190222208030PREF. DE: MA - IMPERATRIZ               IPA0181307201902110935AV GETULIO VARGAS CENTRO                                    JIS6608MA535150     FIAT/STRADA WORKING CD                       PARTICULAR                    CAMINHONETE     BRANCA    00000000JOEL DA COSTA FARIAS                        R JOAO M DE SANTANA NR. N 852           - PQ SAO JOSE                           65900000IMPERATRIZ          MAESTACIONAR AO LADO DE OUTRO VEICULO EM FILA DUPLA 181 * XI           00000000054870   0000195230080320190223201904080000000000000000000000000                                                00000000000  000   82    00050383910573054870ESPECIAL
2000000000648420190222208030PREF. DE: MA - IMPERATRIZ               IPA0181621201902160930AV DORGIVAL PINHEIRO PX/N1950                               OXB1485MA46511      FIAT/UNO VIVACE 1.0                          PARTICULAR                    AUTOMOVEL       PRATA     00000000JOAQUIM FRANCISCO DE CARVALHO               RUA A NR. N 35                          - CJ VITORIA                            65915000IMPERATRIZ          MAESTACIONAR AO LADO DE OUTRO VEICULO EM FILA DUPLA 181 * XI           00000000054870   0000195230080320190223201904080000000000000000000000000                                                00000000000  000   83    00050383910909454870PASSAGEIRO
2000000000648420190222208030PREF. DE: MA - IMPERATRIZ               IPA0181308201902111140R MINAS GERAIS N/757                                        PXV6121MA535150     FORD/KA SE 1.0 HA B                          PARTICULAR                    AUTOMOVEL       BRANCA    00000000ALDENIZA COSTA FERNANDES                    CONJ VILLAGE NR. N 19                   - JARD TROPICAL                         65901550IMPERATRIZ          MAESTACIONAR AO LADO DE OUTRO VEICULO EM FILA DUPLA 181 * XI           00000000054870   0000195230080320190223201904080000000000000000000000000                                                00000000000  000   84    00050383910966354870PASSAGEIRO
2000000000648420190222208030PREF. DE: MA - IMPERATRIZ               IPA0181622201902161150R BENEDITO LEITE PX/N1414                                   OJM6487MA46511      I/FORD FIESTA SD 1.6LTIA                     PARTICULAR                    AUTOMOVEL       BRANCA    00000000SILMARA LIMA AZEVEDO                        RUA BENEDITO LEITE NR NR. 1412          - CENTRO                                65900001IMPERATRIZ          MAESTACIONAR AO LADO DE OUTRO VEICULO EM FILA DUPLA 181 * XI           00000000054870   0000195230080320190223201904080000000000000000000000000                                                00000000000  000   85    00050383911005054870PASSAGEIRO
2000000000648420190222208030PREF. DE: MA - IMPERATRIZ               IPA0147084201902081950TERMINAL RODOVIARIO JACKSOM LA                              OXV1157MA53506      CHEV/PRISMA 1.4MT LTZ                        PARTICULAR                    AUTOMOVEL       BRANCA    00000000FLORENCIA DO ROSARIO R BARBOSA              RUA GONCALVES DIAS NR. SN               - CENTRO                                65901520IMPERATRIZ          MAESTACIONAR NAS VAGAS RESERV AS PESSOAS C/DEFIC.S/CART 181, XX        00000000076251   0000293470080320190223201904080000000000000000000000000                                                00000000000  000   86    00070383911640676251PASSAGEIRO
2000000000648420190222208030PREF. DE: MA - IMPERATRIZ               IPA0181309201902121030R PARAIBA PROX/N743                                         OXY7896MA535150     FORD/KA SE 1.0 HA                            PARTICULAR                    AUTOMOVEL       BRANCA    00000000GELVANE DO NASCIMENTO SILVA                 RUA 02 IRMAOS NR. N 539                 - VILA LOBAO                            65900000IMPERATRIZ          MAESTACIONAR EM DESACORDO C/REGULAM-VAGA DE CARGA/DE181 * XVII         00000000055414   0000195230080320190223201904080000000000000000000000000                                                00000000000  000   87    00050383912387955414PASSAGEIRO
2000000000648420190222208030PREF. DE: MA - IMPERATRIZ               IPA0147086201902112002TERMINAL RODOVIARIO JACKSON LA                              HOY9931MA53506      VW/GOL CLI                                   PARTICULAR                    AUTOMOVEL       VERMELHA  00000000MARINETE MENESES DE PAULO                   RUA BETA NR. 1243                       - BACURI                                65900000IMPERATRIZ          MAESTACIONAR NAS VAGAS RESERV AS PESSOAS C/DEFIC.S/CART 181, XX        00000000076251   0000293470080320190223201904080000000000000000000000000                                                00000000000  000   88    00070383912562676251PASSAGEIRO
2000000000648420190222208030PREF. DE: MA - IMPERATRIZ               IPA0174236201902122050R GONCALVES DIAS F/N 557                                    PTD8766MA597791     FIAT/STRADA HD WK CD E                       PARTICULAR                    CAMINHONETE     PRATA     00000000WANDESGLAN RAMOS SILVA                      RUA SANTA TEREZINHA NR. 756             - BOM SUCESSO                           65905130IMPERATRIZ          MAESTACIONAR EM CALCADA REBAIXADA DEST. ENTRADA/SAID181 * IX           00000000054600   0000130160080320190223201904080000000000000000000000000                                                00000000000  000   89    00040383913850754600ESPECIAL
2000000000648420190222208030PREF. DE: MA - IMPERATRIZ               IPA0174237201902141930AV SANTA TERESA F/N42                                       MVU8596MA597791     GM/S10 TORNADO D                             PARTICULAR                    CAMINHONETE     PRATA     00000000JOSE QUEIROZ DOS SANTOS JUNIOR              RUA BANDEIRANTE 02 NR. 1264             - CENTRO                                65975000ESTREITO            MAESTAC. EM LOCAL/HORARIO PROIBIDO ESPECIFIC. P/SINA181*XVIII          00000000055500   0000130160080320190223201904080000000000000000000000000                                                00000000000  000   90    00040383914095155500CARGA
2000000000648420190222208030PREF. DE: MA - IMPERATRIZ               IPA0174238201902141940AV 15 DE NOVEMBRO F/HOSP UNIME                              NMS0172MA597791     VW/VOYAGE 1.6                                PARTICULAR                    AUTOMOVEL       PRETA     00000000ANTONIO ENEAS FILHO                         RUA CEARA NR. 1344                      - MERCADINHO                            65900000IMPERATRIZ          MAESTACIONAR SOBRE FAIXA DESTINADA A PEDESTRE       181 * VIII         00000000054522   0000195230080320190223201904080000000000000000000000000                                                00000000000  000   91    00050383914387054522PASSAGEIRO
2000000000648420190222208030PREF. DE: MA - IMPERATRIZ               IPA0174239201902142000R TAMANDARE F/N 170                                         NJG6893MA597791     GM/VECTRA HATCH 4P GT                        PARTICULAR                    AUTOMOVEL       PRETA     00000000ELENILDE DE SOUZA SILVA                     RUA RUI BARBOSA NR NR. 207A             - SAO JOSE                              65900001IMPERATRIZ          MAESTAC. EM LOCAL/HORARIO PROIBIDO ESPECIFIC. P/SINA181*XVIII          00000000055500   0000130160080320190223201904080000000000000000000000000                                                00000000000  000   92    00040383914568655500PASSAGEIRO
2000000000648420190222208030PREF. DE: MA - IMPERATRIZ               IPA0174241201902142105R JOAO LISBOA ENTRE MARANAHAO                               NIC4764MA597791     VW/SAVEIRO 1.6                               PARTICULAR                    CAMINHONETE     PRETA     00000000MATHEUS LORRAN OLIVEIRA LAGO                RUA TIRADENTES NR. N1111                - VILA NOVA                             65900001IMPERATRIZ          MAESTACIONAR NO PASSEIO                             181 * VIII         00000000054521   0000195230080320190223201904080000000000000000000000000                                                00000000000  000   93    00050383914748454521CARGA
2000000000648420190222208030PREF. DE: MA - IMPERATRIZ               IPA0181321201902210950AV DORGIVAL P SOUSA F/N605                                  OJM5244MA535150     I/RENAULT CLIO EXP1016VH                     PARTICULAR                    AUTOMOVEL       VERMELHA  00000000MAURELI BARBOSA DE SOUSA                    AV DORGIVAL P DE SOUSA NR. N 531        - VILA LOBAO                            65900000IMPERATRIZ          MADEIXAR O CONDUTOR DE USAR O CINTO E SEGURANCA     167                00000000051851   0000195230080320190223201904080000000000000000000000000                                                00187644680MA000   94    00050383917594151851PASSAGEIRO
2000000000648420190222208030PREF. DE: MA - IMPERATRIZ               IPA0181311201902130935R MARANHAO ESQ/BERNADO SAYAO                                OJB8606MA535150     I/VW AMAROK CD 4X4 S                         PARTICULAR                    CAMINHONETE     PRATA     00000000GABRIEL DORILDO MEIRA DE JESUS              AV 02 NR. 633                           - BACABA                                65800000BALSAS              MADIRIGIR VEICULO SEGURANDO TELEFONE CELULAR        ART 252, & UNICO   00000000076331   0000293470080320190223201904080000000000000000000000000                                                00000000000  000   95    00070383917606976331ESPECIAL
2000000000648420190222208030PREF. DE: MA - IMPERATRIZ               IPA0174244201902202030R SANTA TERESA F/N42                                        NWW6900MA597791     I/KIA CERATO EX3 1.6MTNB                     PARTICULAR                    AUTOMOVEL       PRETA     00000000ZILMA LUCENA DE OLIVEIRA                    RUA OSVALDO CRUZ NR. 1014               - BACURI                                65900000IMPERATRIZ          MAESTAC. EM LOCAL/HORARIO PROIBIDO ESPECIFIC. P/SINA181*XVIII          00000000055500   0000130160080320190223201904080000000000000000000000000                                                00000000000  000   96    00040383919879855500PASSAGEIRO
2000000000648420190222208030PREF. DE: MA - IMPERATRIZ               IPA0182355201902221014ESTACIONAMENTO MATEUS R GOIAIS                              OJJ5737MA535109     RENAULT/SANDERO EXP1016V                     PARTICULAR                    AUTOMOVEL       VERMELHA  00000000GISLENE OLIVEIRA LIMA LINS                  RUA CEARA NR. NR831                     - CENTRO                                65900000IMPERATRIZ          MAESTACIONAR NAS VAGAS RESERVADAS A IDOSOS, SEM CREDART 181, XX        00000000076252   0000293470080320190223201904080000000000000000000000000                                                00000000000  000   97    00070383922691076252PASSAGEIRO
2000000000648420190222208030PREF. DE: MA - IMPERATRIZ               IPA0181576201902131435R PARAIBA F/N120                                            PSO3827MA485993     I/CHEVROLET CLASSIC LS                       PARTICULAR                    AUTOMOVEL       BRANCA    00000000ROSANA MILHOMEM BARBOSA DIAS                RUA FORTUNATO BANDEIRA NR. 737          - NOVA IMPERATRIZ                       65907010IMPERATRIZ          MAESTAC. EM DESACORDO C/ A REGULAMENTACAO ESPECIFICA181 * XVII         00000000055411   0000195230080320190223201904080000000000000000000000000                                                00000000000  000   98    00050383922771255411PASSAGEIRO
2000000000648420190222208030PREF. DE: MA - IMPERATRIZ               IPA0181761201902152020R PIAUI F/TOCANTINS SHOPPING                                NXP6923MA46532      VW/GOL 1.0 GIV                               PARTICULAR                    AUTOMOVEL       PRETA     00000000VALDEMIR DE OLIVEIRA                        QD 82 NR. 202                           - VL ILDEMAR                            65930000ACAILANDIA          MAESTACIONAR SOBRE FAIXA DESTINADA A PEDESTRE       181 * VIII         00000000054522   0000195230080320190223201904080000000000000000000000000                                                00000000000  000   99    00050383922792554522PASSAGEIRO
2000000000648420190222208030PREF. DE: MA - IMPERATRIZ               IPA0181763201902151910AV BABACULANDIA C/R DUQUE CAXI                              OXU3289MA465321     HONDA/BIZ 125 EX                             PARTICULAR                    MOTONETA        BRANCA    00000000ALLANA MARILIA DOS SANTOS SOUZA             RUA ISABEL CAFETEIRA NR. 189            - VILA CAFETEIRA                        65900000IMPERATRIZ          MAEXECUTAR OPERACAO DE RETORNO LOCAIS PROIBIDO P/SIN206 * I            00000000059910   0000293470080320190223201904080000000000000000000000000                                                00000000000  000   100   00070383922959659910PASSAGEIRO
2000000000648420190222208030PREF. DE: MA - IMPERATRIZ               IPA0181440201902190915AV DORGIVAL PINHEIRO S N1100N                               NXO8602MA46528      FIAT/STRADA FIRE FLEX                        PARTICULAR                    CAMINHONETE     PRATA     00000000ANTONIO BORGES TELES                        RUA LUIS DOMINGUES NR. 569              - CENTRO                                65900000IMPERATRIZ          MAESTACIONAR EM CALCADA REBAIXADA DEST. ENTRADA/SAID181 * IX           00000000054600   0000130160080320190223201904080000000000000000000000000                                                00000000000  000   101   00040383923240654600CARGA
2000000000648420190222208030PREF. DE: MA - IMPERATRIZ               IPA0181764201902151925R PROJETADA C SENTIDO R CEARA                               OXR8377MA465321     HYUNDAI/HB20S 1.6M COMF                      PARTICULAR                    AUTOMOVEL       BRANCA    00000000JANEY NEGREIROS DO NASCIMENTO               RUA RUI BARBOSA NR 696 NR.              - REDENCAO I                            65910540IMPERATRIZ          MATRANSIT. P/ CONTRAMAO EM VIAS C/ SENT. UNICO      186 * II           00000000057380   0000293470080320190223201904080000000000000000000000000                                                00000000000  000   102   00070383923294557380PASSAGEIRO
2000000000648420190222208030PREF. DE: MA - IMPERATRIZ               IPA0181765201902211942AV TROPICAL SUL F/AO TERM RODO                              OXY5471MA465321     CHEVROLET/ONIX 1.0MT LT                      PARTICULAR                    AUTOMOVEL       VERMELHA  00000000MARIA EUGENIO SOUSA                         RUA SAO FRANCISCO NR. SN                - SOLEDADE                              65927000DAVINOPOLIS         MATRANSPORTAR CRIANCA SEM AS NORMAS DE SEGURANCA EST168                00000000051930   0000293470080320190223201904080000000000000000000000000                                                00000000000  000   103   00070383923402651930PASSAGEIRO
2000000000648420190222208030PREF. DE: MA - IMPERATRIZ               IPA0181441201902191417AV GETULIO VARGAS PX/N1831                                  NWV2602MA46528      FIAT/UNO VIVACE 1.0                          PARTICULAR                    AUTOMOVEL       PRATA     00000000JOAO BATISTA DE SOUZA                       RUA QUATRO NR. N 05                     - SUPER QD 602                          65900000IMPERATRIZ          MAESTACIONAR SOBRE FAIXA DESTINADA A PEDESTRE       181 * VIII         00000000054522   0000195230080320190223201904080000000000000000000000000                                                00000000000  000   104   00050383923470054522PASSAGEIRO
2000000000648420190222208030PREF. DE: MA - IMPERATRIZ               IPA0181578201902140800R RAIMUNDO DE MORAIS F/N01                                  OIT0129MA48993      TOYOTA/COROLLA ALTIS20FX                     PARTICULAR                    AUTOMOVEL       PRATA     00000000LUCIANO FARIAS PINTO                        RUA SOUSA LIMA NR. N 535                - CENTRO                                65907140IMPERATRIZ          MATRANSIT. P/ CONTRAMAO EM VIAS C/ SENT. UNICO      186 * II           00000000057380   0000293470080320190223201904080000000000000000000000000                                                00000000000  000   105   00070383923474357380PASSAGEIRO
2000000000648420190222208030PREF. DE: MA - IMPERATRIZ               IPA0181443201902191520AV GETULIO VARGAS N1774                                     NHL4370MA46528      FIAT/DUCATO CARGO                            PARTICULAR                    CAMINHONETE     BRANCA    00000000NOVA O P E E ODONTOLOGICO LTDA              R PERNAMBUCO NR. 110                    - JUCARA                                65901550IMPERATRIZ          MAESTACIONAR AO LADO DE OUTRO VEICULO EM FILA DUPLA 181 * XI           00000000054870   0000195230080320190223201904080000000000000000000000000                                                00000000000  000   106   00050383923507354870CARGA
2000000000648420190222208030PREF. DE: MA - IMPERATRIZ               IPA0181315201902170915R BENEDITO LEITE MERCAD N1359                               PSO7461MA535150     VW/NOVO GOL CL MBV                           PARTICULAR                    AUTOMOVEL       PRATA     00000000MARIA DA GUIA SILVA SOUSA                   AV PEDRO N DE SANTANA NR. 02            - PQ DAS PALMEIRA                       65911700IMPERATRIZ          MADEIXAR O CONDUTOR DE USAR O CINTO E SEGURANCA     167                00000000051851   0000195230080320190223201904080000000000000000000000000                                                00000000000  000   107   00050383923567751851PASSAGEIRO
2000000000648420190222208030PREF. DE: MA - IMPERATRIZ               IPA0181444201902191730R SOUSA LIMA N780C                                          OJG2982MA46528      HONDA/CG 125 FAN KS                          PARTICULAR                    MOTOCICLETA     VERMELHA  00000000HIDELBRANDO PEREIRA FILHO                   RUA SANDER DE LIMA NR. N 148            - JANAINA                               65058021SAO LUIS            MAESTAC. EM LOCAL/HORARIO PROIBIDO ESPECIFIC. P/SINA181*XVIII          00000000055500   0000130160080320190223201904080000000000000000000000000                                                00000000000  000   108   00040383923572355500PASSAGEIRO
2000000000648420190222208030PREF. DE: MA - IMPERATRIZ               IPA0181581201902141810R RAIMUNDO DE MORAIS F/N01                                  PTA8812MA485993     HONDA/NXR160 BROS ESDD                       PARTICULAR                    MOTOCICLETA     VERMELHA  00000000GIOVANE DE MELO PEREIRA                     R SANTA TEREZINHA NR. 205               - SANTA TEREZINHA                       65750000ESPERANTINOPOLIS    MATRANSIT. P/ CONTRAMAO EM VIAS C/ SENT. UNICO      186 * II           00000000057380   0000293470080320190223201904080000000000000000000000000                                                00000000000  000   109   00070383923620757380PASSAGEIRO
2000000000648420190222208030PREF. DE: MA - IMPERATRIZ               IPA0181445201902191810AV PEDRO NEIVA F/SETRAN                                     PSV5409MA46528      TOYOTA/ETIOS SD XLS15 AT                     PARTICULAR                    AUTOMOVEL       BRANCA    00000000ANTONIO DANTAS NOBREGA                      AV PEDRO NEIVA DE SANTAN NR. 208        QD F ECO PARK IV - JOAO PAULO II        65919555IMPERATRIZ          MADIRIGIR VEICULO SEGURANDO TELEFONE CELULAR        ART 252, & UNICO   00000000076331   0000293470080320190223201904080000000000000000000000000                                                00000000000  000   110   00070383923622376331PASSAGEIRO
2000000000648420190222208030PREF. DE: MA - IMPERATRIZ               IPA0181446201902200740R SANTA TEREZA N1847B                                       OJP4373MA46528      I/TOYOTA HILUXSW4 SRV4X4                     PARTICULAR                    UTILITARIO      BRANCA    00000000ALYSSON REGO MENDES                         RUA GOIAS NR. 01                        - TRES PODERES                          65900000IMPERATRIZ          MADIRIGIR VEICULO SEGURANDO TELEFONE CELULAR        ART 252, & UNICO   00000000076331   0000293470080320190223201904080000000000000000000000000                                                00000000000  000   111   00070383923683576331MISTO
2000000000648420190222208030PREF. DE: MA - IMPERATRIZ               IPA0181316201902170922AV PEDRO N SANTAN ESQ/R D CAIX                              OJG1134MA535150     TOYOTA/ETIOS HB XLS                          PARTICULAR                    AUTOMOVEL       VERMELHA  00000000RAILANNY FREITAS DOS SANTOS                 RUA B NR. 19                            - A DA BOA VISTA                        65900001IMPERATRIZ          MAEXECUTAR OPERACAO DE RETORNO LOCAIS PROIBIDO P/SIN206 * I            00000000059910   0000293470080320190223201904080000000000000000000000000                                                00000000000  000   112   00070383923717359910PASSAGEIRO
2000000000648420190222208030PREF. DE: MA - IMPERATRIZ               IPA0181585201902140950R ESTOCOMU PROX/INCRA                                       HOY0383MA485993     VW/7.100                                     PARTICULAR                    CAMINHAO        AZUL      00000000ARLINDO CARLOS VERA EPP                     R LUIS DOMINGUES NR. 396                - ENTRONCAMENTO                         65913000IMPERATRIZ          MADIRIGIR VEICULO MANUSEANDO TELEFONE CELULAR       ART 252, & UNICO   00000000076332   0000293470080320190223201904080000000000000000000000000                                                00000000000  000   113   00070383923787476332CARGA
2000000000648420190222208030PREF. DE: MA - IMPERATRIZ               IPA0181447201902200910R BENEDITO LEITE N1103                                      NNI3075MA46528      HONDA/BIZ 125 MAIS                           PARTICULAR                    MOTONETA        VERMELHA  00000000MARIA MESSIAS F DA SILVA                    R GOV JOSE SARNEY NR. 1808              - CENTRO                                65923000AMARANTE DO MARANHAOMAESTAC. EM DESACORDO C/ A REGULAMENTACAO ESPECIFICA181 * XVII         00000000055411   0000195230080320190223201904080000000000000000000000000                                                00000000000  000   114   00050383923832355411PASSAGEIRO
2000000000648420190222208030PREF. DE: MA - IMPERATRIZ               IPA0181448201902200938AV BERNARDO SAYAO N770                                      NMQ4682MA46528      I/FIAT SIENA FIRE FLEX                       ALUGUEL                       AUTOMOVEL       CINZA     00000000FLAVIO LEITE DA SILVA SANTOS                RUA SAO FRANCISCO NR. 595               - ALTO BONITO                           65935500BURITIRANA          MADIRIGIR VEICULO SEGURANDO TELEFONE CELULAR        ART 252, & UNICO   00000000076331   0000293470080320190223201904080000000000000000000000000                                                00000000000  000   115   00070383923962176331PASSAGEIRO
2000000000648420190222208030PREF. DE: MA - IMPERATRIZ               IPA0181449201902211000R CORIOLANO MILHOMEM PROX MARI                              NKG9104MA46528      FIAT/PALIO ELX FLEX                          PARTICULAR                    AUTOMOVEL       PRATA     00000000JONAS APINAGE DINIZ                         AV PRES JOSE SARNEY NR. N1511           - CENTRO                                65925000SITIO NOVO          MADEIXAR DE DAR PREF.PEDES/VEIC NAO MOTOR.FAIXA ELE 214 * I            00000000061220   0000293470080320190223201904080000000000000000000000000                                                00000000000  000   116   00070383924149961220PASSAGEIRO
2000000000648420190222208030PREF. DE: MA - IMPERATRIZ               IPA0181588201902141530R BENEDITO LEITE F/N429                                     OJG1136MA485993     HONDA/POP100                                 PARTICULAR                    MOTOCICLETA     PRETA     00000000EDUARDO NERES PAIXAO                        RUA SAO FRANCISCO NR. 334               - GOV ED LOBAO                          65928000GOV.EDISON LOBAO    MAESTAC. EM DESACORDO C/ A REGULAMENTACAO ESPECIFICA181 * XVII         00000000055411   0000195230080320190223201904080000000000000000000000000                                                00000000000  000   117   00050383924285155411PASSAGEIRO
2000000000648420190222208030PREF. DE: MA - IMPERATRIZ               IPA0181318201902200755R PERNAMBUCO JUC ESQ/AV S TERE                              HPP7455MA535150     GM/CELTA 5 PORTAS SUPER                      PARTICULAR                    AUTOMOVEL       PRETA     00000000ANTONIO CARLOS DOS SANTOS JUNIOR            AV NEWTON BELLO NR. N 163               - STA RITA                              65919050IMPERATRIZ          MADIRIGIR VEICULO SEGURANDO TELEFONE CELULAR        ART 252, & UNICO   00000000076331   0000293470080320190223201904080000000000000000000000000                                                00000000000  000   118   00070383924300976331PASSAGEIRO
2000000000648420190222208030PREF. DE: MA - IMPERATRIZ               IPA0182701201902211350R CEARA N60                                                 PTH1349MA46528      I/TOYOTA HILUX CDSRXA4FD                     PARTICULAR                    CAMINHONETE     BRANCA    00000000JOAO ANTONIO DE SANTANA NETO                RUA BAHIA NR. 971                       AP902_ED GRUMARI - TRES PODERES         65900001IMPERATRIZ          MAESTACIONAR AO LADO DE OUTRO VEICULO EM FILA DUPLA 181 * XI           00000000054870   0000195230080320190223201904080000000000000000000000000                                                00000000000  000   119   00050383924344054870ESPECIAL
2000000000648420190222208030PREF. DE: MA - IMPERATRIZ               IPA0181589201902141700R SAO FRANCISCO F/N247                                      NSJ9841MA485993     FIAT/PALIO FIRE ECONOMY                      PARTICULAR                    AUTOMOVEL       VERMELHA  00000000MANOEL AIRES PEREIRA                        AV DORGIVAL P DE SOUSA NR. 792          - VILA LOBAO                            65901550IMPERATRIZ          MATRANSIT. P/ CONTRAMAO EM VIAS C/ SENT. UNICO      186 * II           00000000057380   0000293470080320190223201904080000000000000000000000000                                                00000000000  000   120   00070383924416157380PASSAGEIRO
2000000000648420190222208030PREF. DE: MA - IMPERATRIZ               IPA0182702201902211040R CORIOLANO MILHOMEM L/CIRETRA                              OXU0748MA46528      CHEVROLET/COBALT 1.8 LTZ                     PARTICULAR                    AUTOMOVEL       PRATA     00000000MAGNOLIA DE SOUSA VIANA                     RUA DA ASSEMB DE DEUS NR. N262          - VILA LOBAO                            65900000IMPERATRIZ          MAESTAC. EM DESACORDO C/ A REGULAMENTACAO ESPECIFICA181 * XVII         00000000055411   0000195230080320190223201904080000000000000000000000000                                                00000000000  000   121   00050383924491955411PASSAGEIRO
2000000000648420190222208030PREF. DE: MA - IMPERATRIZ               IPA0181454201902121551AV DORGIVAL P DE SOUSA F/N607                               PTE9776MA465241     HONDA/BIZ 110I                               PARTICULAR                    MOTONETA        BRANCA    00000000JULIA DOS SANTOS LEITE                      RUA MATO GROSSO NR. 410                 - MARANHAO NOVO                         65903050IMPERATRIZ          MAESTACIONAR NO PASSEIO                             181 * VIII         00000000054521   0000195230080320190223201904080000000000000000000000000                                                00000000000  000   122   00050383924743854521PASSAGEIRO
2000000000648420190222208030PREF. DE: MA - IMPERATRIZ               IPA0181319201902200910R BENEDITO LEITE MERCAD N1323                               OXX0564MA535150     VW/GOL SPECIAL MB                            PARTICULAR                    AUTOMOVEL       VERMELHA  00000000LUZILENE LINO DE SOUZA                      RUA DOIS DE JULHO NR. 14                - PARQUE DO BURITI                      65916335IMPERATRIZ          MAESTAC. EM DESACORDO C/ A REGULAMENTACAO ESPECIFICA181 * XVII         00000000055411   0000195230080320190223201904080000000000000000000000000                                                00000000000  000   123   00050383924744655411PASSAGEIRO
2000000000648420190222208030PREF. DE: MA - IMPERATRIZ               IPA0182704201902211456R SANTA TEREZA C/R CEARA                                    PTC7900MA46528      CHEVROLET/ONIX 10MT JOYE                     PARTICULAR                    AUTOMOVEL       PRETA     00000000MARIA DE SOUSA SILVA                        RUA CAROLINA NR. 20                     - BOM JESUS                             65900001IMPERATRIZ          MAAVANCAR SINAL VERMELHO DO SEMAFORO                208                00000000060501   0000293470080320190223201904080000000000000000000000000                                                00000000000  000   124   00070383924934160501PASSAGEIRO
2000000000648420190222208030PREF. DE: MA - IMPERATRIZ               IPA0182434201902161209R SOUSA LIMA N739 CENTRO                                    PSC7669MA465267     HONDA/NXR160 BROS ESDD                       PARTICULAR                    MOTOCICLETA     PRETA     00000000WAGNER LIMA                                 RUA PERNAMBUCO NR. N1039                - PARQUE SANTA LUCIA                    65912420IMPERATRIZ          MAESTACIONAR NAS VAGAS RESERVADAS A IDOSOS, SEM CREDART 181, XX        00000000076252   0000293470080320190223201904080000000000000000000000000                                                05830806374MA000   125   00070383925403576252PASSAGEIRO
2000000000648420190222208030PREF. DE: MA - IMPERATRIZ               IPA0181456201902121425AV DORGIVAL P DE SOUSA                                      CHS0498MA465241     GM/OMEGA CD                                  PARTICULAR                    AUTOMOVEL       CINZA     00000000MARGARIDA CHAVES DOS SANTOS                 RUA DA GRECIA NR. 05                    - NOVA IMPERATRIZ                       65901550IMPERATRIZ          MAAVANCAR SINAL VERMELHO DO SEMAFORO                208                00000000060501   0000293470080320190223201904080000000000000000000000000                                                00000000000  000   126   00070383925529560501PASSAGEIRO
2000000000648420190222208030PREF. DE: MA - IMPERATRIZ               IPA0181320201902200956R SIMPLICIO M PX/ESC M TOCANTI                              OJH2193MA535150     FORD/ECOSPORT FSL 1.6                        PARTICULAR                    CAMIONETA       BRANCA    00000000MONALISA MONICA S DO NASCIMENTO             RUA ATLANTICA NR. 15                    QD 48 - PQ DAS MANSOES                  65900001IMPERATRIZ          MADIRIGIR VEICULO SEGURANDO TELEFONE CELULAR        ART 252, & UNICO   00000000076331   0000293470080320190223201904080000000000000000000000000                                                00000000000  000   127   00070383925539276331MISTO
2000000000648420190222208030PREF. DE: MA - IMPERATRIZ               IPA0182705201902211643AV BERNARDO SAYAO C/R PERNAMBU                              NMR9072MA46528      VW/GOL 1.0 GIV                               PARTICULAR                    AUTOMOVEL       VERMELHA  00000000MIGUEL ARAUJO DA CRUZ                       RUA SAO BERNARDO NR. NR 10              - PLANALTO AURORA                       65060560SAO LUIS            MAAVANCAR SINAL VERMELHO DO SEMAFORO                208                00000000060501   0000293470080320190223201904080000000000000000000000000                                                00000000000  000   128   00070383925553860501PASSAGEIRO
2000000000648420190222208030PREF. DE: MA - IMPERATRIZ               IPA0180970201902140923AV GETULIO VARGAS F/LILIANI CE                              OXZ3285MA535184     FIAT/UNO EVOLUTION 1.4                       ALUGUEL                       AUTOMOVEL       BRANCA    00000000ORESTES LADEIRA LIMA                        RUA BIRA DUTRA NR 959 NR.               ESQUINA - BOCA DA MATA                  65900000IMPERATRIZ          MAESTACIONAR AO LADO DE OUTRO VEICULO EM FILA DUPLA 181 * XI           00000000054870   0000195230080320190223201904080000000000000000000000000                                                00000000000  000   129   00050383926636054870PASSAGEIRO
2000000000648420190222208030PREF. DE: MA - IMPERATRIZ               IPA0182707201902211657R PIAUI F/SHOPPING TOCANTINS                                HPH6840MA46528      VW/GOL 1.0                                   PARTICULAR                    AUTOMOVEL       PRATA     00000000CAIO CESAR ANDRADE CORREA                   RUA DOS PROTESTANTES NR. 15             - IMIGRANTES                            65900001IMPERATRIZ          MAESTACIONAR SOBRE FAIXA DESTINADA A PEDESTRE       181 * VIII         00000000054522   0000195230080320190223201904080000000000000000000000000                                                00000000000  000   130   00050383926824954522PASSAGEIRO
2000000000648420190222208030PREF. DE: MA - IMPERATRIZ               IPA0181460201902140800R RAIMUNDO DE MORAIS F/N01                                  OJP8726MA465241     YAMAHA/XTZ 125XE                             PARTICULAR                    MOTOCICLETA     PRETA     00000000HENRIQUE DA LUZ SILVA                       RUA GUANABARA NR. N 628                 - MARANHAO NOVO                         65903040IMPERATRIZ          MATRANSIT. P/ CONTRAMAO EM VIAS C/ SENT. UNICO      186 * II           00000000057380   0000293470080320190223201904080000000000000000000000000                                                00000000000  000   131   00070383926976857380PASSAGEIRO
2000000000648420190222208030PREF. DE: MA - IMPERATRIZ               IPA0182708201902211644R ALAGOAS C/AV DORGIVAL P SOUS                              OXQ0107MA46528      HONDA/NXR150 BROS ES                         PARTICULAR                    MOTOCICLETA     PRETA     00000000EDSON ALVES DE MOURA                        RUA RUI BARBOSA NR. 500                 - CENTRO                                65935000SENADOR LA ROQUE    MAAVANCAR SINAL VERMELHO DO SEMAFORO                208                00000000060501   0000293470080320190223201904080000000000000000000000000                                                00000000000  000   132   00070383926977660501PASSAGEIRO
2000000000648420190222208030PREF. DE: MA - IMPERATRIZ               IPA0181461201902140810R RAIMUNDO DE MORAIS F/N01                                  NHJ3913MA465241     HONDA/CG 150 TITAN ESD                       PARTICULAR                    MOTOCICLETA     AZUL      00000000ANTONIO RIBEIRO DA COSTA                    RUA NOVA FRIBURGO NR. 21                - JD SUMARE                             65900000IMPERATRIZ          MATRANSIT. P/ CONTRAMAO EM VIAS C/ SENT. UNICO      186 * II           00000000057380   0000293470080320190223201904080000000000000000000000000                                                00000000000  000   133   00070383927193257380PASSAGEIRO
2000000000648420190222208030PREF. DE: MA - IMPERATRIZ               IPA0182710201902211740AV DORGIVAL P SOUSA N1084                                   OJF6036MA46528      FIAT/PALIO SPORTING 1.6                      PARTICULAR                    AUTOMOVEL       PRATA     00000000ROGERIO LUCENA DE ALMEIDA                   RUA 15 DE NOVEMBRO NR. N1203            - BEIRA RIO                             65900050IMPERATRIZ          MAESTACIONAR EM CALCADA REBAIXADA DEST. ENTRADA/SAID181 * IX           00000000054600   0000130160080320190223201904080000000000000000000000000                                                06200933253MA000   134   00040383927410954600PASSAGEIRO
2000000000648420190222208030PREF. DE: MA - IMPERATRIZ               IPA0182712201902211757AV DORGIVAL P SOUSA PROX LJ MI                              PSO9345MA46528      FIAT/DUCATO FABUSFORMA                       ALUGUEL                       MICROONIBUS     PRATA     00000000JOSE REGINALDO VIANA DE CARVALHO            RUA PLINIO ARRUDA NR. SN                - CENTRO                                65943000FORMOSA DA S.NEGRA  MAESTACIONAR AO LADO DE OUTRO VEICULO EM FILA DUPLA 181 * XI           00000000054870   0000195230080320190223201904080000000000000000000000000                                                00000000000  000   135   00050383927557154870PASSAGEIRO
2000000000648420190222208030PREF. DE: MA - IMPERATRIZ               IPA0181464201902140820R RAIMUNDO DE MORAIS F/N01                                  NXN2508MA465241     FLASH/MV TEEN 50                             PARTICULAR                    CICLOMOTOR      PRATA     00000000JOAO BATISTA NUNES DA ROCHA                 RUA MANAUS NR. 814                      - NOVA IMPERATRIZ                       65900000IMPERATRIZ          MATRANSIT. P/ CONTRAMAO EM VIAS C/ SENT. UNICO      186 * II           00000000057380   0000293470080320190223201904080000000000000000000000000                                                00000000000  000   136   00070383927823657380PASSAGEIRO
2000000000648420190222208030PREF. DE: MA - IMPERATRIZ               IPA0181465201902141710R JOAO LISBOA C/SAO FRANCISCO                               AVQ8297MA465241     CHEVROLET/CELTA 1.0L LT                      PARTICULAR                    AUTOMOVEL       PRATA     00000000FRANCILENE VIEIRA DOS SANTOS                AV BABACULANDIA NR. 373                 - VILA LOBAO                            65901550IMPERATRIZ          MAAVANCAR SINAL DE PARADA OBRIGATORIA               208                00000000060502   0000293470080320190223201904080000000000000000000000000                                                00000000000  000   137   00070383927995060502PASSAGEIRO
2000000000648420190222208030PREF. DE: MA - IMPERATRIZ               IPA0182154201902220948AV DORGIVAL P SOUSA F/N 1915                                HPY5952MA46556      VW/GOLF GENERATION                           PARTICULAR                    AUTOMOVEL       PRATA     00000000IAKS WILLIAM GOMES MATOS                    RUA QUATRO NR. N 30                     - PQ DO BURITI                          65900000IMPERATRIZ          MAESTAC. EM LOCAL/HORARIO PROIBIDO ESPECIFIC. P/SINA181*XVIII          00000000055500   0000130160080320190223201904080000000000000000000000000                                                00000000000  000   138   00040383928004455500PASSAGEIRO
2000000000648420190222208030PREF. DE: MA - IMPERATRIZ               IPA0182601201902201418AV GETULIO VARGAS                                           NHP1952MA465267     VW/GOL 1.0                                   PARTICULAR                    AUTOMOVEL       PRATA     00000000MARIA VILANY BEZERRA                        RUA EUCLIDES DA CUNHA NR. 534           - BACURI                                65916017IMPERATRIZ          MAESTACIONAR AO LADO DE OUTRO VEICULO EM FILA DUPLA 181 * XI           00000000054870   0000195230080320190223201904080000000000000000000000000                                                00000000000  000   139   00050383928154754870PASSAGEIRO
2000000000648420190222208030PREF. DE: MA - IMPERATRIZ               IPA0182155201902220955R RIO DE JANEIRO F/N 312                                    OXQ0220MA46556      MOTO TRAXX/JL50Q-8                           PARTICULAR                    CICLOMOTOR      PRETA     00000000JOAO FIDELIS DOS SANTOS                     RUA 13 DE MAIO NR. 36                   - BOM JESUS                             65900000IMPERATRIZ          MATRANSIT. P/ CONTRAMAO EM VIAS C/ SENT. UNICO      186 * II           00000000057380   0000293470080320190223201904080000000000000000000000000                                                00000000000  000   140   00070383928189057380PASSAGEIRO
2000000000648420190222208030PREF. DE: MA - IMPERATRIZ               IPA0182156201902221012ESTACIONAMENTO MATEUS R GOIAIS                              OHA2371MA46556      CHEVROLET/COBALT 1.4 LT                      PARTICULAR                    AUTOMOVEL       PRATA     00000000CARLOS AUGUSTO MARQUES                      RUA 15 DE NOVEMBRO NR. N782             APT 102ED M RIO - BEIRA RIO             65915500IMPERATRIZ          MAESTACIONAR NAS VAGAS RESERVADAS A IDOSOS, SEM CREDART 181, XX        00000000076252   0000293470080320190223201904080000000000000000000000000                                                00000000000  000   141   00070383928388476252PASSAGEIRO
2000000000648420190222208030PREF. DE: MA - IMPERATRIZ               IPA0182602201902201410AV GETULIO VARGAS N/1940                                    MWG6794MA465267     FIAT/STRADA WORKING CD                       PARTICULAR                    CAMINHONETE     BEGE      00000000ALVARO SOARES NOLETO                        RUA 12 NR. N 255                        - FERROVIA                              65975000ESTREITO            MAESTACIONAR NAS VAGAS RESERV AS PESSOAS C/DEFIC.S/CART 181, XX        00000000076251   0000293470080320190223201904080000000000000000000000000                                                00000000000  000   142   00070383928709076251ESPECIAL
2000000000648420190222208030PREF. DE: MA - IMPERATRIZ               IPA0182157201902221024AV BERNARDO SAYAO F/50 BIS                                  OIW4090MA46556      CHEVROLET/ONIX 1.4MT LT                      PARTICULAR                    AUTOMOVEL       BRANCA    00000000MARCOS PEREIRA LIMA                         R RIO GRANDE DO NORTE NR. 1475          - CENTRO                                65901550IMPERATRIZ          MADESOBEDECER AS ORDENS DA AUTORIDADE DE TRANSITO/AG195                00000000058350   0000195230080320190223201904080000000000000000000000000                                                00000000000  000   143   00050383928793658350PASSAGEIRO
2000000000648420190222208030PREF. DE: MA - IMPERATRIZ               IPA0182457201902131400AV DORGIVAL PINHEIRO S N824                                 NHO1416MA535168     HONDA/BIZ 125 MAIS                           PARTICULAR                    MOTONETA        VERMELHA  00000000MARIANA MOTA MESQUITA                       RUA A NR. 19                            - OURO VERDE                            65906435IMPERATRIZ          MAESTAC. EM DESACORDO C/ A REGULAMENTACAO ESPECIFICA181 * XVII         00000000055411   0000195230080320190223201904080000000000000000000000000                                                00000000000  000   144   00050383929107055411PASSAGEIRO
2000000000648420190222208030PREF. DE: MA - IMPERATRIZ               IPA0173649201902050934R SOUSA LIMA F/N665                                         OOW7490MA535036     FIAT/UNO VIVACE 1.0                          PARTICULAR                    AUTOMOVEL       CINZA     00000000JOSE HILTON SILVA DE CARVALHO               RUA CAMPOS SANTOS NR. 38                - NOVA IMPERATRIZ                       65900001IMPERATRIZ          MAESTAC. EM LOCAL/HORARIO PROIBIDO ESPECIFIC. P/SINA181*XVIII          00000000055500   0000130160080320190223201904080000000000000000000000000                                                00000000000  000   145   00040383929111955500PASSAGEIRO
2000000000648420190222208030PREF. DE: MA - IMPERATRIZ               IPA0182458201902131405R LUIS DOMINGUES C/R PIAUI                                  NMV3775MA535168     I/HYUNDAI TUCSON GL 20L                      PARTICULAR                    CAMIONETA       PRATA     00000000MARIA LENI LUIS                             RUA SOUSA LIMA NR 255 NR.               - CENTRO                                65900320IMPERATRIZ          MAESTACIONAR SOBRE FAIXA DESTINADA A PEDESTRE       181 * VIII         00000000054522   0000195230080320190223201904080000000000000000000000000                                                00000000000  000   146   00050383929311154522MISTO
2000000000648420190222208030PREF. DE: MA - IMPERATRIZ               IPA0181920201902141212AV GETULIO VARGAS C/R ALAGOAS                               OXV2505MA535036     FIAT/PALIO FIRE                              PARTICULAR                    AUTOMOVEL       BRANCA    00000000ANA CLEIDE BARBOSA DE O DE JESUS            RUA CRISTO REI NR. 22                   - VL REDENCAO II                        65900001IMPERATRIZ          MADEIXAR DE DAR PREF.PEDES/VEIC NAO MOTOR.FAIXA ELE 214 * I            00000000061220   0000293470080320190223201904080000000000000000000000000                                                00000000000  000   147   00070383929361861220PASSAGEIRO
