1*NATI208610202001170042072020011700000000000000
2000000000420720200117208610PREF. DE: MA - PEDREIRAS                PYA0021851201912270905AV RIO BRANCO PRX A CEF                                     PTD7614MA63041      HONDA/POP 110I                               PARTICULAR                    MOTOCICLETA     VERMELHA  00000000FRANCISCO PEREIRA BATISTA                   PV JATOBA NR. 04                        - CENTRO                                65740000POCAO DE PEDRAS     MAESTAC. EM LOCAL/HORARIO PROIBIDO ESPECIFIC. P/SINA181*XVIII          00000000055500   0000130160086120200118202003020000000000000000000000000                                                00000000000  000   1     00040447734966155500PASSAGEIRO
2000000000420720200117208610PREF. DE: MA - PEDREIRAS                PYA0020595201912301005AV RIO BRANCO                                               PSN1077MA63031      I/TOYOTA HILUX CDSRVA4FD                     PARTICULAR                    CAMINHONETE     PRATA     00000000JOSE HAIRTON FERREIRA DE SOUSA              R FE E DEUS NR. N 21                    - JARDIM SAO CRISTOVAO                  65055190SAO LUIS            MAAVANCAR SINAL VERMELHO DO SEMAFORO                208                00000000060501   0000293470086120200118202003020000000000000000000000000                                                00000000000  000   2     00070447735513060501ESPECIAL
2000000000420720200117208610PREF. DE: MA - PEDREIRAS                PYA0020596201912301512AV RIO BRANCO PRX A CEF                                     NXO1793MA63031      HONDA/CG 150 FAN ESI                         PARTICULAR                    MOTOCICLETA     VERMELHA  00000000JOSE DE RIBAMAR COELHO DAS NEVES            RUA MARMORANA NR. N.562                 - CENTRO                                65727000TRIZIDELA DO VALE   MAESTAC. EM LOCAL/HORARIO PROIBIDO ESPECIFIC. P/SINA181*XVIII          00000000055500   0000130160086120200118202003020000000000000000000000000                                                00000000000  000   3     00040447736062255500PASSAGEIRO
2000000000420720200117208610PREF. DE: MA - PEDREIRAS                PYA0020597201912301515AV RIO BRANCO PRX A CEF                                     PSF1457MA63031      HONDA/NXR160 BROS ESD                        PARTICULAR                    MOTOCICLETA     BRANCA    00000000LUCAS EMANUEL SANTANA SILVA                 RUA NOVA RUA         NR. NR. 369        - CENTRO                                65727000TRIZIDELA DO VALE   MAESTAC. EM LOCAL/HORARIO PROIBIDO ESPECIFIC. P/SINA181*XVIII          00000000055500   0000130160086120200118202003020000000000000000000000000                                                00000000000  000   4     00040447736633755500PASSAGEIRO
2000000000420720200117208610PREF. DE: MA - PEDREIRAS                PYA0021621201912301514RUA MANECO REGO                                             OJQ7513MA801        HONDA/POP100                                 PARTICULAR                    MOTOCICLETA     VERMELHA  00000000VICTOR FERREIRA VIEIRA FERNANDES            RUA FREI RAIMUNDO NR. 15                - CENTRO                                65727000TRIZIDELA DO VALE   MAAVANCAR SINAL VERMELHO DO SEMAFORO                208                00000000060501   0000293470086120200118202003020000000000000000000000000                                                00000000000  000   5     00070447737508560501PASSAGEIRO
2000000000420720200117208610PREF. DE: MA - PEDREIRAS                PYA0021620201912301515AV RIO BRANCO                                               NXK8955MA801        HONDA/CG 150 FAN ESI                         PARTICULAR                    MOTOCICLETA     PRETA     00000000MARIA DA CONCEICAO LIMA SOUSA               RUA GOIABEIRAS NR. S/N                  - ROSEANA SARNEY                        65728000LIMA CAMPOS         MAESTAC. EM LOCAL/HORARIO PROIBIDO ESPECIFIC. P/SINA181*XVIII          00000000055500   0000130160086120200118202003020000000000000000000000000                                                00000000000  000   6     00040447739488855500PASSAGEIRO
2000000000420720200117208610PREF. DE: MA - PEDREIRAS                PYA0021619201912301511AV RIO BRANCO                                               NWW1658MA801        HONDA/NXR150 BROS ES                         PARTICULAR                    MOTOCICLETA     PRETA     00000000JOAO RENES DE ARAUJO SILVA                  AV BELA VISTA NR. S/N                   - POVOADO PACAS                         65725000PEDREIRAS           MAESTAC. EM LOCAL/HORARIO PROIBIDO ESPECIFIC. P/SINA181*XVIII          00000000055500   0000130160086120200118202003020000000000000000000000000                                                00000000000  000   7     00040447741063855500PASSAGEIRO
2000000000420720200117208610PREF. DE: MA - PEDREIRAS                PYA0021618201912300853AV RIO BRANCO PRX CEF N552                                  PSA6435MA801        YAMAHA/YS150 FAZER ED                        PARTICULAR                    MOTOCICLETA     PRETA     00000000RONALDO SANTANA SANTOS                      R ANECIO MONINHO NR. N 280              A - ENTRONCAMENTO                       65901550IMPERATRIZ          MAESTAC. EM LOCAL/HORARIO PROIBIDO ESPECIFIC. P/SINA181*XVIII          00000000055500   0000130160086120200118202003020000000000000000000000000                                                00000000000  000   8     00040447742021855500PASSAGEIRO
2000000000420720200117208610PREF. DE: MA - PEDREIRAS                PYA0021852201912270910AV RIO BRANCO                                               NNA2865MA63041      FIAT/UNO MILLE WAY ECON                      ALUGUEL                       AUTOMOVEL       PRATA     00000000MARIA DE LOURDES P DE OLIVEIRA              RUA DO CAMPO NR. NR 65                  - CENTRO                                65418000PERITORO            MAAVANCAR SINAL VERMELHO DO SEMAFORO                208                00000000060501   0000293470086120200118202003020000000000000000000000000                                                00000000000  000   9     00070447743186460501PASSAGEIRO
2000000000420720200117208610PREF. DE: MA - PEDREIRAS                PYA0021853201912270915AV RIO BRANCO                                               NWU4519MA63041      YAMAHA/FACTOR YBR125 E                       PARTICULAR                    MOTOCICLETA     ROXA      00000000VALDO SOUSA DA SILVA                        SEG TRAV OTAVIO PASSOS NR. 931          - GOIABAL                               65725000PEDREIRAS           MAAVANCAR SINAL VERMELHO DO SEMAFORO                208                00000000060501   0000293470086120200118202003020000000000000000000000000                                                00000000000  000   10    00070447743531260501PASSAGEIRO
2000000000420720200117208610PREF. DE: MA - PEDREIRAS                PYA0021909202001162051AV JOAO DO VALE                                             NVP6274MA20251      FORD/CARGO 2422 E                            PARTICULAR                    CAMINHAO        BRANCA    00000000EDICLECIA BEZERRA ABREU SILVA               AV CONEGO ALTEREDO NR. 23               - CENTRO                                65735000CAPINZAL DO NORTE   MADESOBEDECER AS ORDENS DA AUTORIDADE DE TRANSITO/AG195                00000000058350   0000195230086120200118202003020000000000000000000000000                                                00000000000  000   11    00050447744224658350CARGA
2000000000420720200117208610PREF. DE: MA - PEDREIRAS                PYA0021573202001021550RUA OSCAR GALVAO                                            PSX9353MA57951      HONDA/POP 110I                               PARTICULAR                    MOTOCICLETA     PRETA     00000000FRANCISCA MARIA F DA SILVA                  RUA MANOEL TRINDADE NR. 1264            - DIOGO                                 65725000PEDREIRAS           MATRANSIT. P/ CONTRAMAO EM VIAS C/ SENT. UNICO      186 * II           00000000057380   0000293470086120200118202003020000000000000000000000000                                                00000000000  000   12    00070447747082757380PASSAGEIRO
2000000000420720200117208610PREF. DE: MA - PEDREIRAS                PYA0021624201901031100AV RIO BRANCO                                               PSW7384MA801        HONDA/BIZ 110I                               PARTICULAR                    MOTONETA        VERMELHA  00000000MARIA FERREIRA ALMEIDA                      TV JOSE DE FREITAS NR. 57               - ENGENHO                               65725000PEDREIRAS           MAAVANCAR SINAL VERMELHO DO SEMAFORO                208                00000000060501   0000293470086120200118202003020000000000000000000000000                                                00000000000  000   13    00070447747486560501PASSAGEIRO
2000000000420720200117208610PREF. DE: MA - PEDREIRAS                PYA0021623202001030900RUA EURICO RIBEIRO                                          PSE2206MA801        HONDA/NXR160 BROS ESD                        PARTICULAR                    MOTOCICLETA     VERMELHA  00000000CLEVERSON E SILVA BRANDAO                   RUA SANTO ANTONIO   NR. NR. 185         - SANTO ANTONIO                         65727000TRIZIDELA DO VALE   MATRANSIT. P/ CONTRAMAO EM VIAS C/ SENT. UNICO      186 * II           00000000057380   0000293470086120200118202003020000000000000000000000000                                                00000000000  000   14    00070447748176457380PASSAGEIRO
2000000000420720200117208610PREF. DE: MA - PEDREIRAS                PYA0021156202001031111AV RIO BRANCO                                               NNF4985MA63031      HONDA/POP100                                 PARTICULAR                    MOTOCICLETA     PRETA     00000000DEUSIMAR SILVA OLIVEIRA                     RUA RAIMUNDO ANSELMO NR. 280            - SAO FRANCISCO                         65725000PEDREIRAS           MAAVANCAR SINAL VERMELHO DO SEMAFORO                208                00000000060501   0000293470086120200118202003020000000000000000000000000                                                00000000000  000   15    00070447748607360501PASSAGEIRO
2000000000420720200117208610PREF. DE: MA - PEDREIRAS                PYA0021155202001031102AV RIO BRANCO PRX A CEF                                     NWT7635MA63031      HONDA/BIZ 125 ES                             PARTICULAR                    MOTONETA        PRETA     00000000RAIMUNDINHA GADEIA DOS SANTOS               AV MAURA JORGE NR. 157                  - VL VALDIR FILHO                       65715000LAGO DA PEDRA       MAESTAC. EM LOCAL/HORARIO PROIBIDO ESPECIFIC. P/SINA181*XVIII          00000000055500   0000130160086120200118202003020000000000000000000000000                                                00000000000  000   16    00040447749126355500PASSAGEIRO
2000000000420720200117208610PREF. DE: MA - PEDREIRAS                PYA0021154202001031051AV RIO BRANCO PRX A CEF                                     OJO0669MA63031      HONDA/BIZ 100 ES                             PARTICULAR                    MOTONETA        ROSA      00000000ELISANGELA MESSIAS FARIAS                   RUA SALVACAO NR. N.179                  - JERUSALEM                             65727000TRIZIDELA DO VALE   MAESTAC. EM LOCAL/HORARIO PROIBIDO ESPECIFIC. P/SINA181*XVIII          00000000055500   0000130160086120200118202003020000000000000000000000000                                                00000000000  000   17    00040447749712155500PASSAGEIRO
2000000000420720200117208610PREF. DE: MA - PEDREIRAS                PYA0021153202001030917RUA EURICO RIBEIRO                                          PSY6738MA63031      HONDA/POP 110I                               PARTICULAR                    MOTOCICLETA     PRETA     00000000FRANCIVALDO DA SILVA CHAVIER                RUA JOSE TEIXEIRA NR. 360               - NOVA PEDREIRAS                        65725000PEDREIRAS           MATRANSIT. P/ CONTRAMAO EM VIAS C/ SENT. UNICO      186 * II           00000000057380   0000293470086120200118202003020000000000000000000000000                                                00000000000  000   18    00070447750067057380PASSAGEIRO
2000000000420720200117208610PREF. DE: MA - PEDREIRAS                PYA0021152202001030907RUA ANQUISES GONCALVES                                      NHA5100MA63031      HONDA/CG 150 TITAN ES                        PARTICULAR                    MOTOCICLETA     VERMELHA  00000000MANOEL FLORENTINO DA CONCEICAO.             RUA GEREMIAS CALDEIRAS NR.              CASA NR.343 - SERINGAL                  65725000PEDREIRAS           MAESTAC. EM DESACORDO C/ A REGULAMENTACAO ESPECIFICA181 * XVII         00000000055411   0000195230086120200118202003020000000000000000000000000                                                00000000000  000   19    00050447760381955411PASSAGEIRO
3000019000000000019
