1*NATI207570201912190047352019121900000000000000
2000000000473520191219207570PREF. DE: MA - CAXIAS                   CXA0073895201911290835RUA AFONSO PENA                                             NXO2373MA306481-SAMTHONDA/BIZ 125 ES                             PARTICULAR                    MOTONETA        PRETA     00000000DULCILENE DA SILVA RIO                      AV COSTA SOBRINHO NR. 1400              - VOLTA REDONDA                         65600000CAXIAS              MACOND. MOTOC/MOTON./CICLOM TRANSPORTANDO/PASSAG.S/C244 * II           00000000070481   0000293470075720191220202002030000000000000000000000000                                                00000000000  000   1     00070441123697470481PASSAGEIRO
2000000000473520191219207570PREF. DE: MA - CAXIAS                   CXA0078325201911280950AV NEREU BITTENCOURT                                        OXS1479MA301942-SAMTHONDA/CG 150 TITAN EX                        PARTICULAR                    MOTOCICLETA     PRETA     00000000FRANCISCO BATISTA FILHO                     AV 15 DE NOVEMBRO NR. 18                QD D-15 - TESO DURO                     65600000CAXIAS              MAAVANCAR SINAL VERMELHO DO SEMAFORO                208                00000000060501   0000293470075720191220202002030000000000000000000000000                                                00000000000  000   2     00070441123927260501PASSAGEIRO
2000000000473520191219207570PREF. DE: MA - CAXIAS                   CXA0078284201911281135RUA BENEDITO REIS                                           PTB0218MA306461-SAMTHONDA/POP 110I                               PARTICULAR                    MOTOCICLETA     VERMELHA  00000000JOSE DA SILVA SOUSA                         RUA PIAUI NR. 16                        DNER - PIRAJA                           65608725CAXIAS              MATRANSIT. P/ CONTRAMAO EM VIAS C/ SENT. UNICO      186 * II           00000000057380   0000293470075720191220202002030000000000000000000000000                                                00000000000  000   3     00070441124615557380PASSAGEIRO
2000000000473520191219207570PREF. DE: MA - CAXIAS                   CXA0078397201912020918RUA AARAO REIS                                              OJL4829MA122111-SAMTCHEVROLET/ONIX 1.0MT LT                      PARTICULAR                    AUTOMOVEL       CINZA     00000000ANA CLAUDIA AZEVEDO SILVA                   RUA 20 DE NOVEMBRO NR. NR-60            - ITAPECURUZINHO                        65600000CAXIAS              MAESTAC. VEIC. NAS ESQU. E MENOS DE 5M DO ALINHAMENT181 * I            00000000053800   0000130160075720191220202002030000000000000000000000000                                                00000000000  000   4     00040441124681353800PASSAGEIRO
2000000000473520191219207570PREF. DE: MA - CAXIAS                   CXA0077990201911291730PCA CANDIDO MENDES                                          NXE2898MA78162-SAMT HONDA/CG 125 FAN KS                          PARTICULAR                    MOTOCICLETA     ROXA      00000000RAILTON ALENCAR MELO                        RUA VESP RAMOSA NR. 701                 - PONTE                                 65600000CAXIAS              MACOND. MOTOC/MOTON./CICLOM TRANSPORTANDO/PASSAG.S/C244 * II           00000000070481   0000293470075720191220202002030000000000000000000000000                                                00000000000  000   5     00070441128364670481PASSAGEIRO
2000000000473520191219207570PREF. DE: MA - CAXIAS                   CXA0078917201911291425AV CASTELO BRANCO                                           NWW0877MA123611-SAMTHONDA/BIZ 125 ES                             PARTICULAR                    MOTONETA        VERMELHA  00000000ALDIMAR DE MARIA A D DA SILVA               AV 06 QD 07 CASA 31 NR.                 - CONJ COHAB                            65600000CAXIAS              MACOND. MOTOCICLETA/MOTONETA/CICLOM S/CAPACETE DE SE244 * I            00000000070301   0000293470075720191220202002030000000000000000000000000                                                00000000000  000   6     00070441128523170301PASSAGEIRO
2000000000473520191219207570PREF. DE: MA - CAXIAS                   CXA0078918201911291445AV GENERAL SAMPAIO                                          OJB1100MA123611-SAMTHONDA/CG 125 FAN ES                          PARTICULAR                    MOTOCICLETA     PRETA     00000000FRANCISCO JOSE DA C COSTA                   RUA SESOSTRE PEREIRA NR. 2304           - SIRIEMA                               65600000CAXIAS              MACOND. MOTOCICLETA/MOTONETA/CICLOM S/CAPACETE DE SE244 * I            00000000070301   0000293470075720191220202002030000000000000000000000000                                                00000000000  000   7     00070441128590870301PASSAGEIRO
2000000000473520191219207570PREF. DE: MA - CAXIAS                   CXA0078919201911291450AV GENERAL SAMPAIO                                          PTF7030MA123611-SAMTHONDA/NXR 160 BROS                           PARTICULAR                    MOTOCICLETA     PRETA     00000000JOSE LAECIO MOREIRA DA SILVA                RUA 10 QD-04 NR. N-32                   - COHAB                                 65604653CAXIAS              MACOND. MOTOC/MOTON./CICLOM TRANSPORTANDO/PASSAG.S/C244 * II           00000000070481   0000293470075720191220202002030000000000000000000000000                                                00000000000  000   8     00070441128778170481PASSAGEIRO
2000000000473520191219207570PREF. DE: MA - CAXIAS                   CXA0078920201911291455AV GENERAL SAMPAIO                                          NHF3704MA123611-SAMTHONDA/NXR150 BROS KS                         PARTICULAR                    MOTOCICLETA     VERMELHA  00000000MARTIM ANTONIO CARVALHO MOTA                TV DO ANGELIM N.437 NR.                 - CANGALHEIRO                           65600000CAXIAS              MACOND. MOTOCICLETA/MOTONETA/CICLOM S/CAPACETE DE SE244 * I            00000000070301   0000293470075720191220202002030000000000000000000000000                                                00000000000  000   9     00070441128932670301PASSAGEIRO
2000000000473520191219207570PREF. DE: MA - CAXIAS                   CXA0078921201911291455AV GENERAL SAMPAIO                                          NNA2238MA123611-SAMTHONDA/BIZ 125 ES                             PARTICULAR                    MOTONETA        VERMELHA  00000000RAIMUNDA SOARES LOPES                       RUA GONCALVES DIAS NR NR. 104           - SUBSTACAO                             65620000COELHO NETO         MACOND. MOTOCICLETA/MOTONETA/CICLOM S/CAPACETE DE SE244 * I            00000000070301   0000293470075720191220202002030000000000000000000000000                                                00000000000  000   10    00070441129022770301PASSAGEIRO
2000000000473520191219207570PREF. DE: MA - CAXIAS                   CXA0078923201911291535PCA CANDIDO MENDES                                          OXY0872MA122131-SAMTHONDA/POP100                                 PARTICULAR                    MOTOCICLETA     PRETA     00000000MARIA DA CONCEICAO GOMES                    II TV LEONCIO MAGNO NR. 2020            - VOLTA REDONDA                         65600000CAXIAS              MACOND. MOTOC/MOTON./CICLOM TRANSPORTANDO/PASSAG.S/C244 * II           00000000070481   0000293470075720191220202002030000000000000000000000000                                                00000000000  000   11    00070441129082070481PASSAGEIRO
2000000000473520191219207570PREF. DE: MA - CAXIAS                   CXA0078925201911291535PCA PANTHEON                                                PSK6190MA123611-SAMTHONDA/POP100                                 PARTICULAR                    MOTOCICLETA     PRETA     00000000FELIX AMORIM ROMA NETO                      RUA DO ESPIRITO SANTO NR. 2255          - VOLTA REDONDA                         65600010CAXIAS              MAAVANCAR SINAL VERMELHO DO SEMAFORO                208                00000000060501   0000293470075720191220202002030000000000000000000000000                                                00000000000  000   12    00070441129510560501PASSAGEIRO
2000000000473520191219207570PREF. DE: MA - CAXIAS                   CXA0078926201911291740PCA PANTHEON                                                NXP5812MA123611-SAMTHONDA/BIZ 125 KS                             PARTICULAR                    MOTONETA        PRETA     00000000ROSANGELA RAMOS FERREIRA                    RUA JERUSALEM NR. 1116                  - CAMPO BELEM                           65609100CAXIAS              MACOND. MOTOC/MOTON./CICLOM TRANSPORTANDO/PASSAG.S/C244 * II           00000000070481   0000293470075720191220202002030000000000000000000000000                                                00000000000  000   13    00070441129556370481PASSAGEIRO
2000000000473520191219207570PREF. DE: MA - CAXIAS                   CXA0078463201911291018AV OTAVIO PASSOS                                            PSX5363MA306051-SAMTHONDA/POP 110I                               PARTICULAR                    MOTOCICLETA     PRETA     00000000PAULO CHAVES DE OLIVEIRA                    AV SANTOS DUMONT NR. 818                - CENTRO                                65602310CAXIAS              MAESTAC. EM DESACORDO C/ A REGULAMENTACAO ESPECIFICA181 * XVII         00000000055411   0000195230075720191220202002030000000000000000000000000                                                00000000000  000   14    00050441129766355411PASSAGEIRO
2000000000473520191219207570PREF. DE: MA - CAXIAS                   CXA0078286201911291105PCA PANTHEON                                                NMQ0111MA306461-SAMTTOYOTA/COROLLA XEI18FLEX                     PARTICULAR                    AUTOMOVEL       PRETA     00000000ANTONIO JOSE SILVA                          RUA DO ALECRIM NR. 124                  - CANGALHEIRO                           65600001CAXIAS              MAESTAC. EM DESACORDO C/ A REGULAMENTACAO ESPECIFICA181 * XVII         00000000055411   0000195230075720191220202002030000000000000000000000000                                                00000000000  000   15    00050441130819355411PASSAGEIRO
2000000000473520191219207570PREF. DE: MA - CAXIAS                   CXA0078285201911291017RUA OTAVIO PASSO                                            OIR2362MA306461-SAMTHONDA/POP100                                 PARTICULAR                    MOTOCICLETA     ROXA      00000000JOCELITA MENDES DE CARVALHO                 TV AROEIRA NR. 198                      - OLHO DAGUA                            65600000CAXIAS              MAESTAC. EM DESACORDO C/ A REGULAMENTACAO ESPECIFICA181 * XVII         00000000055411   0000195230075720191220202002030000000000000000000000000                                                00000000000  000   16    00050441131306555411PASSAGEIRO
2000000000473520191219207570PREF. DE: MA - CAXIAS                   CXA0073899201911291455PCA SAO BENEDITO                                            PTB0664MA306481-SAMTCHEV/PRISMA 1.4AT LT                         PARTICULAR                    AUTOMOVEL       BRANCA    00000000FLORIANO VIEIRA CARVALHO JUNIOR             RUA SEGISMUNDO MOURA NR. 821            - PONTE                                 65609360CAXIAS              MAESTAC. VEIC. NAS ESQU. E MENOS DE 5M DO ALINHAMENT181 * I            00000000053800   0000130160075720191220202002030000000000000000000000000                                                00000000000  000   17    00040441132092453800PASSAGEIRO
2000000000473520191219207570PREF. DE: MA - CAXIAS                   CXA0077044201911300945AV SANTOS DUMONT                                            PSR1140MA138301-SAMTHONDA/CG 160 TITAN EX                        PARTICULAR                    MOTOCICLETA     PRETA     00000000MARIA ONEIDE DE MELO SILVA                  TRAV SAO JOSE NR. 247                   - BACURIZEIRO                           65603825CAXIAS              MACOND. MOTOC/MOTON./CICLOM TRANSPORTANDO/PASSAG.S/C244 * II           00000000070481   0000293470075720191220202002030000000000000000000000000                                                00000000000  000   18    00070441132699070481PASSAGEIRO
3000018000000000018
