1*NATR207570201911260046802019112600000000000000
2000000000468020191126207570PREF. DE: MA - CAXIAS                   CXA0077133201910300940PCA CANDIDO MENDES                                          PIR5623PI           CHEV/PRISMA 1.4AT LTZ                        PARTICULAR                    AUTOMOVEL       PRETA     00000000GILBERTO BATISTA DE SOUSA                   R SANTO ANTONIO NR. 00329               - AGUA MINERAL                          64006680TERESINA            PIESTAC. VEIC. NAS ESQU. E MENOS DE 5M DO ALINHAMENT181 * I            00000000053800   0000130160075720191127202001100000000000000000000000000                                                00000000000  000   1     00040435658399053800PASSAGEIRO
2000000000468020191126207570PREF. DE: MA - CAXIAS                   CXA0078144201910311530AV OTAVIO PASSOS                                            NHZ6685PI           HONDA/CG 125 FAN KS                          PARTICULAR                    MOTOCICLETA     PRETA     00000000ANTONIO QUIRINO DE BRITO                    PV BALSEIROS NR.                        CASA - ZONA RURAL                       64630000BOCAINA             PICOND. MOTOC/MOTON./CICLOM TRANSPORTANDO/PASSAG.S/C244 * II           00000000070481   0000293470075720191127202001100000000000000000000000000                                                00000000000  000   2     00070435658521670481PASSAGEIRO
2000000000468020191126207570PREF. DE: MA - CAXIAS                   CXA0078207201910311218PCA PANTHEON                                                PIN7111PI           I/KIA SPORTAGE LX2 OFFG4                     PARTICULAR                    CAMIONETA       BRANCA    00000000GILMAR BARBOSA DE SOUSA                     R PROJETADA NR. 00022                   PQ ZEQUIN - VALE DO GAVIAO              64069010TERESINA            PIDEIXAR DE DAR PREF.PEDES/VEIC NAO MOTOR.FAIXA ELE 214 * I            00000000061220   0000293470075720191127202001100000000000000000000000000                                                00000000000  000   3     00070435658657361220MISTO
2000000000468020191126207570PREF. DE: MA - CAXIAS                   CXA0078135201910301620RUA MENINO DEUS                                             NIJ0403PI           HONDA/CB 300R                                PARTICULAR                    MOTOCICLETA     AMARELA   00000000JOSE RIBAMAR DE SOUSA                       RUA MACHACO DE ASSIS 1784 NR. 01784     - LORIVAL PERENTE                       64000000TERESINA            PICOND. MOTOC/MOTON./CICLOM TRANSPORTANDO/PASSAG.S/C244 * II           00000000070481   0000293470075720191127202001100000000000000000000000000                                                00000000000  000   4     00070435658967070481PASSAGEIRO
2000000000468020191126207570PREF. DE: MA - CAXIAS                   CXA0078403201911011436PCA RUY BARBOSA                                             OEG4641PI           RENAULT/LOGAN AUTH 10                        PARTICULAR                    AUTOMOVEL       BRANCA    00000000CACILDA FIGUEIREDO NERI DE AGUIAR           R DR AREA LEAO BL D AP 303 NR.          AP 303 - PICARRA                        64010100TERESINA            PIESTACIONAR EM DESACORDO C/REGULAMENTACAO-PONTO OU 181 * XVII         00000000055413   0000195230075720191127202001100000000000000000000000000                                                00000000000  000   5     00050435665597455413PASSAGEIRO
2000000000468020191126207570PREF. DE: MA - CAXIAS                   CXA0077936201911011042AV GETULIO VARGAS                                           PIS9323PI           TOYOTA/COROLLA XEI20FLEX                     PARTICULAR                    AUTOMOVEL       PRATA     00000000MARTA REJANE CASTELO MOREIRA                RUA JOSE PAULINO NR. 00295              NORTE - FATIMA                          64049360TERESINA            PIESTAC. EM DESACORDO C/ A REGULAMENTACAO ESPECIFICA181 * XVII         00000000055411   0000195230075720191127202001100000000000000000000000000                                                00000000000  000   6     00050435665747055411PASSAGEIRO
2000000000468020191126207570PREF. DE: MA - CAXIAS                   CXA0078402201911011435PCA RUY BARBOSA                                             LVM5758PI           FIAT/UNO MILLE FIRE FLEX                     PARTICULAR                    AUTOMOVEL       VERDE     00000000JOSE MARIA SALES                            RUA ITAUNA NR. 00000                    - PINDORAMA                             64215115PARNAIBA            PIESTACIONAR EM DESACORDO C/REGULAMENTACAO-PONTO OU 181 * XVII         00000000055413   0000195230075720191127202001100000000000000000000000000                                                00000000000  000   7     00050435669691355413PASSAGEIRO
2000000000468020191126207570PREF. DE: MA - CAXIAS                   CXA0078265201911011044AV GETULIO VARGAS                                           PIQ7777PI           I/AUDI TT COUPE 230CV I                      PARTICULAR                    AUTOMOVEL       VERMELHA  00000000BRUNO LEONARDO MARTINS SANTOS               R LISANDRO NOGUEIRA NR. 00844           - CENTRO                                64000200TERESINA            PIESTACIONAR EM DESACORDO C/REGULAMENTACAO-PONTO OU 181 * XVII         00000000055413   0000195230075720191127202001100000000000000000000000000                                                00000000000  000   8     00050435670937355413PASSAGEIRO
2000000000468020191126207570PREF. DE: MA - CAXIAS                   CXA0078211201911011200RUA DAS LAGES                                               OJM0911PI           FIAT/SIENA ESSENCE 1.6                       PARTICULAR                    AUTOMOVEL       BEGE      00000000JOSE CARLOS MINEIRO                         R BENJAMIN CONSTANTE ED DA NR. 00000    - CENTRO                                64010100TERESINA            PIESTACIONAR NA PISTA DE ROLAM DAS VIAS DOTADAS DE/A181 * V            00000000054284   0000293470075720191127202001100000000000000000000000000                                                00000000000  000   9     00070435678162754284PASSAGEIRO
2000000000468020191126207570PREF. DE: MA - CAXIAS                   CXA0078210201911011157RUA DAS LAGES                                               JKI3568DF           RENAULT/SANDERO EXP1016V                     PARTICULAR                    AUTOMOVEL       BRANCA    00000000FRANCISCA MARIA FERREIRA SANTOS             ALAMEDA DAS ACACIAS QUADRA 107 NR. 401  RUA E LT 05 BL C AP - AGUAS CLARAS NORTE71920540BRASILIA            DFESTACIONAR NA PISTA DE ROLAM DAS VIAS DOTADAS DE/A181 * V            00000000054284   0000293470075720191127202001100000000000000000000000000                                                00000000000  000   10    00070435679560154284PASSAGEIRO
2000000000468020191126207570PREF. DE: MA - CAXIAS                   CXA0078187201911041525PCA PANTHEON                                                NCH5280RO           FIAT/SIENA EL FLEX                           PARTICULAR                    AUTOMOVEL       BEGE      00000000FRANCISCO LOPES DA SILVA FILHO              PARAJUBA NR. 838                        - NOVA FLORESTA                         76807100PORTO VELHO         ROAVANCAR SINAL VERMELHO DO SEMAFORO                208                00000000060501   0000293470075720191127202001100000000000000000000000000                                                00000000000  000   11    00070435686640160501PASSAGEIRO
2000000000468020191126207570PREF. DE: MA - CAXIAS                   CXA0078354201911041128AV OTAVIO PASSOS                                            OVY6919PI           FIAT/UNO VIVACE 1.0                          PARTICULAR                    AUTOMOVEL       BRANCA    00000000MARESSA SAMPAIO MARQUES                     RUA DRA LIA RACHEL DO REGO NR.          PORTAL DO - CAMPESTRE                   64053710TERESINA            PIESTAC. EM LOCAL/HORARIO PROIBIDO ESPECIFIC. P/SINA181*XVIII          00000000055500   0000130160075720191127202001100000000000000000000000000                                                00000000000  000   12    00040435687045055500PASSAGEIRO
2000000000468020191126207570PREF. DE: MA - CAXIAS                   CXA0078215201911051015AV GETULIO VARGAS                                           OIA7049PI           HONDA/CITY LX FLEX                           PARTICULAR                    AUTOMOVEL       PRATA     00000000KEYLA MARIA MOREIRA DE BRITO MATOS          RUA CINCO LOT PQ PALMEIRAI NR. 01417    - AREIAS                                64027658TERESINA            PIESTACIONAR SOBRE FAIXA DESTINADA A PEDESTRE       181 * VIII         00000000054522   0000195230075720191127202001100000000000000000000000000                                                00000000000  000   13    00050435690331554522PASSAGEIRO
3000013000000000013
