1*NIPI207570201912030046942019120300000000000000
2100000000469420191203207570PREF. DE: MA - CAXIAS                   CXA0076884201909231512TRAV DR. ALFREDO BELEZA                                     NHF9893MA122221-SAMTYAMAHA/YBR 125K                              PARTICULAR                    MOTOCICLETA     PRETA     00000000FRANCISCA DE OLIVEIRA GORJIRO               R.PROF.LEONCIO MAGNO NR. N-841          - VOLT REDONDA                          65600000CAXIAS              MAESTAC. EM LOCAL/HORARIO PROIBIDO ESPECIFIC. P/SINA181*XVIII          00000000055500   000013016007572019120420200117319036693333520000001041285650000001804120332170212007574419903669333352200000000000  000   2     00040427513879155500PASSAGEIRO
2100000000469420191203207570PREF. DE: MA - CAXIAS                   CXA0076805201909230942AV NEREU BITTENCOURT                                        OJL2907MA306461-SAMTHONDA/BIZ 100 ES                             PARTICULAR                    MOTONETA        VERMELHA  00000000REGINA CELIA SILVA COELHO                   R.PORTO POLVORA NR. 69                  - CANGALHEIRO                           65600000CAXIAS              MACOND. MOTOCICLETA/MOTONETA/CICLOM S/CAPACETE DE SE244 * I            00000000070301   000029347007572019120420200117319036693334300000002347785610000002034770332170812007574719203669333430600000000000  000   3     00070427513924070301PASSAGEIRO
2100000000469420191203207570PREF. DE: MA - CAXIAS                   CXA0076803201909230945AV GETULIO VARGAS                                           OJK7155MA306461-SAMTVW/NOVO GOL 1.0                              PARTICULAR                    AUTOMOVEL       BRANCA    00000000ANA RITA PEREIRA DE SOUSA                   RUA 7 DE SETEMBRO NR. S/N               - CENTRO                                65830000SAMBAIBA            MAESTAC. EM DESACORDO C/ A REGULAMENTACAO ESPECIFICA181 * XVII         00000000055411   000019523007572019120420200117319036693335170000001561885640000001956180332170312007574419903669333517000000000000  000   4     00050427513927555411PASSAGEIRO
2100000000469420191203207570PREF. DE: MA - CAXIAS                   CXA0077484201909231639RUA GUSTAVO COLACO                                          PSL0068MA306431-SAMTHONDA/CG 125 FAN KS                          PARTICULAR                    MOTOCICLETA     PRETA     00000000JOSE DE SOUSA NUNES                         RUA ACRISIO CRUZ NR. 314                - CENTRO                                65602250CAXIAS              MAESTACIONAR NAS VAGAS RESERVADAS A IDOSOS, SEM CREDART 181, XX        00000000076252   000029347007572019120420200117319036693336040000002347785640000002734770332170812007574419903669333604600000000000  000   5     00070427513972076252PASSAGEIRO
2100000000469420191203207570PREF. DE: MA - CAXIAS                   CXA0077482201909231635RUA GUSTAVO COLACO                                          PTD3686MA306431-SAMTHONDA/BIZ 125                                PARTICULAR                    MOTONETA        LARANJA   00000000MARIA DO PERPETUO S DA S BARROS             RUA DO TAMARINEIRO NR. 1013             - TAMARINEIRO                           65608230CAXIAS              MAESTACIONAR NAS VAGAS RESERVADAS A IDOSOS, SEM CREDART 181, XX        00000000076252   000029347007572019120420200117319036693337810000002347785600000002134770332170812007574419903669333781200000000000  000   6     00070427514253576252PASSAGEIRO
2100000000469420191203207570PREF. DE: MA - CAXIAS                   CXA0077479201909231425RUA GUSTAVO COLACO                                          PTO2421MA306431-SAMTHONDA/POP 110I                               PARTICULAR                    MOTOCICLETA     PRETA     00000000MONICA MONTEIRO DE OLIVEIRA                 RUA SEGISNANDO MOURA NR. 823            A - PONTE                               65609360CAXIAS              MAESTACIONAR EM DESACORDO C/REGULAM-VAGA DE CARGA/DE181 * XVII         00000000055414   000019523007572019120420200117319036693338690000001561885690000001456180332170312007574419903669333869500000000000  000   7     00050427514317555414PASSAGEIRO
2100000000469420191203207570PREF. DE: MA - CAXIAS                   CXA0077477201909231415RUA GUSTAVO COLACO                                          NHE4072MA306431-SAMTHONDA/POP100                                 PARTICULAR                    MOTOCICLETA     PRETA     00000000ELIZABETE SANTOS LOPES                      TV DA AROEIRA NR. N-220                 - CENTRO                                65600000CAXIAS              MAESTACIONAR NAS VAGAS RESERVADAS A IDOSOS, SEM CREDART 181, XX        00000000076252   000029347007572019120420200117319036693339460000002347785690000002234770332170812007574419903669333946100000000000  000   8     00070427514344276252PASSAGEIRO
2100000000469420191203207570PREF. DE: MA - CAXIAS                   CXA0077476201909231412RUA GUSTAVO COLACO                                          NHH2214MA306431-SAMTHONDA/POP100                                 PARTICULAR                    MOTOCICLETA     PRETA     00000000WALDEMAR SERGIO DA SILVA                    AVENIDA RODRIGO OTAVIO NR. 534          F-99-3421-6136 - PONTE                  65609270CAXIAS              MAESTACIONAR NAS VAGAS RESERV AS PESSOAS C/DEFIC.S/CART 181, XX        00000000076251   000029347007572019120420200117319036693340870000002347785610000002034770332170812007574419903669334087300000000000  000   9     00070427514476776251PASSAGEIRO
2100000000469420191203207570PREF. DE: MA - CAXIAS                   CXA0077009201909231150PCA CANDIDO MENDES                                          NHC9233MA138301-SAMTHONDA/CG 125 FAN                             PARTICULAR                    MOTOCICLETA     PRETA     00000000FRANCISCO MENEZ DE FRANCA                   TV.JOAO VIANA NR. 2060                  - JOAO VIANA                            65604460CAXIAS              MACOND. MOTOC/MOTON./CICLOM TRANSPORTANDO/PASSAG.S/C244 * II           00000000070481   000029347007572019120420200117319036693341640000002347785680000002334770332170812007574419903669334164000000000000  000   10    00070427514611570481PASSAGEIRO
2100000000469420191203207570PREF. DE: MA - CAXIAS                   CXA0077243201909231605AV LUIS SALES                                               PSG4629MA122131-SAMTHONDA/NXR150 BROS ES                         PARTICULAR                    MOTOCICLETA     PRETA     00000000MARIANA VIEIRA DAMASCENO                    RUA 7 DE SETEMBRO NR. 436               - TRIZIDELA                             65607350CAXIAS              MACOND. MOTOC/MOTON./CICLOM TRANSPORTANDO/PASSAG.S/C244 * II           00000000070481   000029347007572019120420200117319036693342410000002347785640000002734770332170812007574419903669334241600000000000  000   11    00070427514657370481PASSAGEIRO
2100000000469420191203207570PREF. DE: MA - CAXIAS                   CXA0077759201909241050TRAV DR. ALFREDO BELEZA                                     NIK3681MA306051-SAMTI/NISSAN TIIDA 18S FLEX                      PARTICULAR                    AUTOMOVEL       PRATA     00000000JOSAFA MACFENSON TEIXEIRA CAMARA            RUA SAO JOSE NR. 02                     - SAO PEDRO                             65600000CAXIAS              MAESTAC. VEIC. NAS ESQU. E MENOS DE 5M DO ALINHAMENT181 * I            00000000053800   000013016007572019120420200117319036693343290000001041285620000001104120332170212007574419903669334329900000000000  000   12    00040427514807053800PASSAGEIRO
2100000000469420191203207570PREF. DE: MA - CAXIAS                   CXA0076809201909241536RUA SENADOR COSTA RODRIGUES                                 HPW8185MA306461-SAMTGM/CELTA 2P LIFE                             PARTICULAR                    AUTOMOVEL       VERMELHA  00000000ANTONIO DE JESUS DA SILVA                   RUA DA PLACA NR. NR-46                  - KM 17                                 65400000CODO                MAESTACIONAR EM DESACORDO C/REGULAMENTACAO-PONTO OU 181 * XVII         00000000055413   000019523007572019120420200117319036693344060000001561885690000001456180332170312007574419903669334406500000000000  000   13    00050427514975055413PASSAGEIRO
2100000000469420191203207570PREF. DE: MA - CAXIAS                   CXA0076807201909241054TRAV DR. ALFREDO BELEZA                                     NXP2071MA306461-SAMTFIAT/PALIO ATTRACTIV 1.0                     PARTICULAR                    AUTOMOVEL       PRETA     00000000JANAINA ERIKA DOS SANTOS MOURA              TV PARNASIO NR. S/N                     - PONTE                                 65600000CAXIAS              MAESTAC. VEIC. NAS ESQU. E MENOS DE 5M DO ALINHAMENT181 * I            00000000053800   000013016007572019120420200117319036693345930000001041285630000001004120332170212007574419903669334593000000000000  000   14    00040427515310353800PASSAGEIRO
2100000000469420191203207570PREF. DE: MA - CAXIAS                   CXA0076886201909241439RUA GUSTAVO COLACO                                          OJG2686MA122221-SAMTHONDA/CG 150 FAN ESI                         PARTICULAR                    MOTOCICLETA     PRETA     00000000DANILSON RODRIGUES SANTOS                   TRAV SAO FRANCISCO NR. 2183             - VOLTA REDONDA                         65600000CAXIAS              MATRANSIT. P/ CONTRAMAO EM VIAS C/ SENT. UNICO      186 * II           00000000057380   000029347007572019120420200117319036693346700000002347785640000002734770332170812007574419903669334670600000000000  000   15    00070427515329457380PASSAGEIRO
2100000000469420191203207570PREF. DE: MA - CAXIAS                   CXA0076887201909241447RUA OTAVIO PASSOS                                           PSX6246MA122221-SAMTHONDA/BIZ 125 ES                             PARTICULAR                    MOTONETA        PRETA     00000000LUCAS RAMON PEREIRA E SILVA                 RUA 11 QD-C-13 NR. N-22                 RES EUG COUTINHO - TESO DURO            65604563CAXIAS              MACOND. MOTOCICLETA/MOTONETA/CICLOM S/CAPACETE DE SE244 * I            00000000070301   000029347007572019120420200117319036693347580000002347785640000002734770332170812007574719203669334758900000000000  000   16    00070427516290070301PASSAGEIRO
2100000000469420191203207570PREF. DE: MA - CAXIAS                   CXA0076888201909241448RUA OTAVIO PASSOS                                           PSX6246MA122221-SAMTHONDA/BIZ 125 ES                             PARTICULAR                    MOTONETA        PRETA     00000000LUCAS RAMON PEREIRA E SILVA                 RUA 11 QD-C-13 NR. N-22                 RES EUG COUTINHO - TESO DURO            65604563CAXIAS              MAAVANCAR SINAL VERMELHO DO SEMAFORO                208                00000000060501   000029347007572019120420200117319036693348350000002347785630000002834770332170812007574419903669334835500000000000  000   17    00070427516424560501PASSAGEIRO
2100000000469420191203207570PREF. DE: MA - CAXIAS                   CXA0076889201909241657AV DA INDEPENDENCIA                                         PTL5229MA122221-SAMTHONDA/POP 110I                               PARTICULAR                    MOTOCICLETA     PRETA     00000000MARIA DA GUIA MATOS                         RUA 06 QD-15 NR. N-11                   - COHAB                                 65604609CAXIAS              MAAVANCAR SINAL VERMELHO DO SEMAFORO                208                00000000060501   000029347007572019120420200117319036693349120000002347785600000002134770332170812007574419903669334912200000000000  000   18    00070427516543860501PASSAGEIRO
2100000000469420191203207570PREF. DE: MA - CAXIAS                   CXA0076890201909241658RUA DA INDEPENDENCIA                                        NWZ1181MA122221-SAMTHONDA/CB 300R                                PARTICULAR                    MOTOCICLETA     AMARELA   00000000RAMAR LEANES ANDRADE LOPES                  RUA 01 QD B NR. 01                      - CONJ ACARAU                           65600000CAXIAS              MACOND. MOTOCICLETA/MOTONETA/CICLOM S/CAPACETE DE SE244 * I            00000000070301   000029347007572019120420200117319036693350530000002347785690000002234770332170812007574719203669335053400000000000  000   19    00070427516648570301PASSAGEIRO
2100000000469420191203207570PREF. DE: MA - CAXIAS                   CXA0077333201909261430PCA MAGALHAES DE ALMEIDA                                    NXC7703MA123611-SAMTHONDA/CG 125 FAN KS                          PARTICULAR                    MOTOCICLETA     PRETA     00000000ISABEL MOTA DA SILVA                        R MARIA DO ROSARIO NR. 1740             - TRIZIDELA                             65600000CAXIAS              MACOND. MOTOC/MOTON./CICLOM TRANSPORTANDO/PASSAG.S/C244 * II           00000000070481   000029347007572019120420200117319036693351300000002347785680000002334770332170812007574419903669335130000000000000  000   20    00070427516675270481PASSAGEIRO
2100000000469420191203207570PREF. DE: MA - CAXIAS                   CXA0077490201909241701RUA COELHO NETO                                             OXW6373MA306431-SAMTHONDA/BIZ 125 EX                             PARTICULAR                    MOTONETA        BRANCA    00000000MARIA CLEONICE B DE OLIVEIRA                RUA E NR. 18                            - GR GILSON                             65930000ACAILANDIA          MAESTAC. EM DESACORDO C/ A REGULAMENTACAO ESPECIFICA181 * XVII         00000000055411   000019523007572019120420200117319036693352180000001561885670000001656180332170312007574419903669335218300000000000  000   21    00050427516754655411PASSAGEIRO
2100000000469420191203207570PREF. DE: MA - CAXIAS                   CXA0077488201909241605AV RODOVIARIA                                               NWT8161MA306431-SAMTGM/CELTA 4P LIFE                             PARTICULAR                    AUTOMOVEL       VERMELHA  00000000ELZILENE LIMA SOUSA PEREIRA                 AV N.SRA DE NAZARE NR. N-531            - TRIZIDELA                             65600000CAXIAS              MAESTAC. EM DESACORDO C/ A REGULAMENTACAO ESPECIFICA181 * XVII         00000000055411   000019523007572019120420200117319036693353050000001561885620000001156180332170312007574419903669335305800000000000  000   22    00050427516827555411PASSAGEIRO
2100000000469420191203207570PREF. DE: MA - CAXIAS                   CXA0077487201909240938AV OTAVIO PASSOS                                            NXE3280MA306431-SAMTHONDA/CG150 FAN ESDI                         PARTICULAR                    MOTOCICLETA     AMARELA   00000000GENIVAL SILVA ALBUQUERQUE                   RUA 05 NR. 435                          - BAIXINHA                              65600001CAXIAS              MAESTAC. EM DESACORDO C/ A REGULAMENTACAO ESPECIFICA181 * XVII         00000000055411   000019523007572019120420200117319036693354820000001561885690000001456180332170312007574419903669335482500000000000  000   23    00050427518068255411PASSAGEIRO
2100000000469420191203207570PREF. DE: MA - CAXIAS                   CXA0077502201909240939AV OTAVIO PASSOS                                            PSZ8761MA305941-SAMTYAMAHA/NEO 125                               PARTICULAR                    MOTONETA        BRANCA    00000000M & J ASSE. FINANCEIRA EIRELI ME            RUA DO FIO NR. 714                      - PONTE                                 65609315CAXIAS              MAESTAC. EM LOCAL/HORARIO PROIBIDO ESPECIFIC. P/SINA181*XVIII          00000000055500   000013016007572019120420200117319036693355600000001041285610000001204120332170212007574419903669335560800000000000  000   24    00040427518175155500PASSAGEIRO
2100000000469420191203207570PREF. DE: MA - CAXIAS                   CXA0077492201909241700AV DA INDEPENDENCIA                                         PTE7216MA306431-SAMTHONDA/POP 110I                               PARTICULAR                    MOTOCICLETA     BRANCA    00000000JOSE WELLINGTON DA SILVA SANTOS             TV SANTA MARIA NR. 133                  - VILA SAO JOSE                         65606771CAXIAS              MADIR.VEIC. UTILIZANDO-SE DE TELEFONE CELULAR       252 * VI           00000000073662   000013016007572019120420200117319036693356470000001041285630000001004120332170212007574719203669335647300000000000  000   25    00040427518353373662PASSAGEIRO
2100000000469420191203207570PREF. DE: MA - CAXIAS                   CXA0077503201909251215PCA DO PANTHEON                                             JNV6845MA305941-SAMTHONDA/CG 125 TITAN ES                        PARTICULAR                    MOTOCICLETA     BRANCA    00000000PEDRO FERREIRA DE ANDRADE                   RUA ANGELIM NR-441 NR.                  - CANGALHEIRO                           65606630CAXIAS              MADEIXAR DE DAR PREF.PEDES/VEIC NAO MOTOR.FAIXA ELE 214 * I            00000000061220   000029347007572019120420200117319036693357240000002347785680000002334770332170812007574419903669335724000000000000  000   26    00070427518486661220PASSAGEIRO
2100000000469420191203207570PREF. DE: MA - CAXIAS                   CXA0077382201909251522RUA SAO BENEDITO                                            PSP1474MA306521-SAMTHONDA/POP 110I                               PARTICULAR                    MOTOCICLETA     BRANCA    00000000JAILMA DE SOUSA CUNHA                       R ALTO CRUZ NR. 2313                    - NOVA CAXIAS                           65604330CAXIAS              MACOND. MOTOCICLETA/MOTONETA/CICLOM S/CAPACETE DE SE244 * I            00000000070301   000029347007572019120420200117319036693358010000002347785610000002034770332170812007574719203669335801600000000000  000   27    00070427518656770301PASSAGEIRO
2100000000469420191203207570PREF. DE: MA - CAXIAS                   CXA0077495201909251200AV GETULIO VARGAS                                           PSW7035MA306431-SAMTVW/SAVEIRO CD CROSS MA                       PARTICULAR                    CAMINHONETE     VERMELHA  00000000FRANCISCO RODRIGUES BEZERRA                 RUA BOM PASTOR NR. 1006                 - CANGALHEIRO                           65606120CAXIAS              MAESTACIONAR AO LADO DE OUTRO VEICULO EM FILA DUPLA 181 * XI           00000000054870   000019523007572019120420200117319036693359990000001561885620000001156180332170312007574419903669335999800000000000  000   28    00050427518965554870ESPECIAL
2100000000469420191203207570PREF. DE: MA - CAXIAS                   CXA0077494201909250706PCA DO PANTHEON                                             PSS2495MA306431-SAMTHONDA/BIZ 110I                               PARTICULAR                    MOTONETA        PRETA     00000000MARIA FRANCISCA DA SILVA SOUSA              R IGREJA NR. 68                         - VL SAO JOSE                           65600010CAXIAS              MADEIXAR DE DAR PREF.PEDES/VEIC NAO MOTOR.FAIXA ELE 214 * I            00000000061220   000029347007572019120420200117319036693360200000002347785600000002134770332170812007574419903669336020200000000000  000   29    00070427519092061220PASSAGEIRO
2100000000469420191203207570PREF. DE: MA - CAXIAS                   CXA0077244201909261445PCA MAGALHAES DE ALMEIDA                                    NWX3551MA122131-SAMTHONDA/CG 125 FAN ES                          PARTICULAR                    MOTOCICLETA     ROXA      00000000ERNALDO LIMA DA SILVA                       AV JOAO D DE FREITAS NR. S/N            - JERUSALEM                             65727000TRIZIDELA DO VALE   MACOND. MOTOC/MOTON./CICLOM TRANSPORTANDO/PASSAG.S/C244 * II           00000000070481   000029347007572019120420200117319036693361070000002347785650000002634770332170812007574419903669336107700000000000  000   30    00070427519331870481PASSAGEIRO
2100000000469420191203207570PREF. DE: MA - CAXIAS                   CXA0077345201909261750AV LUIS SALES                                               PTO1697MA123611-SAMTHONDA/CG 160 START                           PARTICULAR                    MOTOCICLETA     PRETA     00000000IVO CRISTIANO DE SOUZA ARAUJO               R ANICETO CRUZ NR. 734                  - PONTE                                 65607560CAXIAS              MACOND. MOTOC/MOTON./CICLOM TRANSPORTANDO/PASSAG.S/C244 * II           00000000070481   000029347007572019120420200117319036693362940000002347785610000002034770332170812007574419903669336294300000000000  000   31    00070427519404770481PASSAGEIRO
2100000000469420191203207570PREF. DE: MA - CAXIAS                   CXA0077343201909261740AV LUIS SALES                                               OJK8063MA123611-SAMTHONDA/BIZ 125 EX                             PARTICULAR                    MOTONETA        BRANCA    00000000MARIA DAS GRACAS MACEDO SANTOS              RUA MARIA DO ROSARIO NR. 1068           - CAMPO DE BELEM                        65600000CAXIAS              MACOND. MOTOC/MOTON./CICLOM TRANSPORTANDO/PASSAG.S/C244 * II           00000000070481   000029347007572019120420200117319036693363710000002347785670000002434770332170812007574419903669336371900000000000  000   32    00070427520628270481PASSAGEIRO
2100000000469420191203207570PREF. DE: MA - CAXIAS                   CXA0077342201909261640PCA CANDIDO MENDES                                          OJK5472MA123611-SAMTHONDA/POP100                                 PARTICULAR                    MOTOCICLETA     VERMELHA  00000000RODRIGO NASCIMENTO GALVAO                   RUA DUQUE DE CAXIAS NR. 2432            - NOVA CAXIAS                           65600000CAXIAS              MACOND. MOTOC/MOTON./CICLOM TRANSPORTANDO/PASSAG.S/C244 * II           00000000070481   000029347007572019120420200117319036693364590000002347785600000002134770332170812007574419903669336459200000000000  000   33    00070427520929070481PASSAGEIRO
2100000000469420191203207570PREF. DE: MA - CAXIAS                   CXA0077341201909261620PCA CESARIO LIMA                                            NXN3523MA123611-SAMTRENAULT/MASTER 8M3 25DCI                     PARTICULAR                    CAMINHONETE     BRANCA    00000000OLIVAN LIMA DE OLIVEIRA                     R MANOEL GONCALVES NR. 1216             - CENTRO                                65600110CAXIAS              MAESTACIONAR IMPEDINDO MOVIMENTACAO DE OUTRO VEICULO181 * X            00000000054790   000013016007572019120420200117319036693365360000001041285600000001304120332170212007574419903669336536700000000000  000   34    00040427521051454790CARGA
2100000000469420191203207570PREF. DE: MA - CAXIAS                   CXA0077340201909261610RUA MENINO DEUS                                             HPV0881MA123611-SAMTHONDA/C100 BIZ ES                            PARTICULAR                    MOTONETA        VERDE     00000000EDNA LUCIA DA CONCEICAO A SILVA             RUA SAO DOMINGOS NR. NR149              - CENTRO                                65705000LAGO VERDE          MACOND. MOTOCICLETA/MOTONETA/CICLOM S/CAPACETE DE SE244 * I            00000000070301   000029347007572019120420200117319036693366130000002347785690000002234770332170812007574719203669336613400000000000  000   35    00070427521168570301PASSAGEIRO
2100000000469420191203207570PREF. DE: MA - CAXIAS                   CXA0077339201909261610RUA MENINO DEUS                                             OJK5648MA123611-SAMTHONDA/POP100                                 PARTICULAR                    MOTOCICLETA     PRETA     00000000JOSE DE RIBAMAR DA SILVA                    TRAV SAO JOSE II NR. 180                - TRIZIDELA                             65600000CAXIAS              MACOND. MOTOCICLETA/MOTONETA/CICLOM S/CAPACETE DE SE244 * I            00000000070301   000029347007572019120420200117319036693367000000002347785640000002734770332170812007574719203669336700900000000000  000   36    00070427521275470301PASSAGEIRO
2100000000469420191203207570PREF. DE: MA - CAXIAS                   CXA0077338201909261555RUA MENINO DEUS                                             NMQ7527MA123611-SAMTHONDA/BIZ 125 KS                             PARTICULAR                    MOTONETA        VERMELHA  00000000NELTON DE SOUZA SOARES                      RUA DO TAMARINEIRO NR. N-513            - TRIZIDELA                             65608230CAXIAS              MACOND. MOTOC/MOTON./CICLOM TRANSPORTANDO/PASSAG.S/C244 * II           00000000070481   000029347007572019120420200117319036693368880000002347785600000002134770332170812007574419903669336888200000000000  000   37    00070427521425070481PASSAGEIRO
2100000000469420191203207570PREF. DE: MA - CAXIAS                   CXA0077337201909261550RUA MENINO DEUS                                             PSN2781MA123611-SAMTHONDA/BIZ 110I                               PARTICULAR                    MOTONETA        VERMELHA  00000000TANIA MARIA DE ALMEIDA SANTOS               AVENIDA 02 QD 8 NR. N-197               - SANTA TEREZINHA                       65604620CAXIAS              MACOND. MOTOC/MOTON./CICLOM TRANSPORTANDO/PASSAG.S/C244 * II           00000000070481   000029347007572019120420200117319036693369650000002347785660000002534770332170812007574419903669336965800000000000  000   38    00070427521523070481PASSAGEIRO
2100000000469420191203207570PREF. DE: MA - CAXIAS                   CXA0077336201909261545RUA MENINO DEUS                                             PTE7437MA123611-SAMTHONDA/CG 160 START                           PARTICULAR                    MOTOCICLETA     PRETA     00000000PAULO ALEX DINIZ ROSSI                      RUA ALUISIO LOBO NR. 3945               - SAO FRANCISCO                         65600450CAXIAS              MACOND. MOTOCICLETA/MOTONETA/CICLOM S/CAPACETE DE SE244 * I            00000000070301   000029347007572019120420200117319036693370060000002347785650000002634770332170812007574719203669337006000000000000  000   39    00070427521663670301PASSAGEIRO
2100000000469420191203207570PREF. DE: MA - CAXIAS                   CXA0077335201909261540RUA MENINO DEUS                                             PSX1359MA123611-SAMTHONDA/POP 110I                               PARTICULAR                    MOTOCICLETA     VERMELHA  00000000ANTONIO MESSIAS F DE MOURA                  RUA DA AROEIRA NR. 527                  OLHO D AGUA - CENTRO                    65602270CAXIAS              MACOND. MOTOC/MOTON./CICLOM TRANSPORTANDO/PASSAG.S/C244 * II           00000000070481   000029347007572019120420200117319036693371830000002347785650000002634770332170812007574419903669337183700000000000  000   40    00070427521766770481PASSAGEIRO
2100000000469420191203207570PREF. DE: MA - CAXIAS                   CXA0077334201909261535RUA 01 DE AGOSTO                                            PSU9318MA123611-SAMTHONDA/BIZ 110I                               PARTICULAR                    MOTONETA        VERMELHA  00000000MARIA HELENA VIANA DA SILVA                 RUA MANGUEIRAO NR. 060                  - VILA ALECRIM                          65605670CAXIAS              MACOND. MOTOC/MOTON./CICLOM TRANSPORTANDO/PASSAG.S/C244 * II           00000000070481   000029347007572019120420200117319036693372600000002347785610000002034770332170812007574419903669337260300000000000  000   41    00070427521909070481PASSAGEIRO
2100000000469420191203207570PREF. DE: MA - CAXIAS                   CXA0076051201910070043TRAV CAETANO CARVALHO                                       OJJ5634MA2646849PMMAHONDA/BIZ 125 ES                             PARTICULAR                    MOTONETA        PRETA     00000000MARIA DE FATIMA DE SOUSA SILVA              RUA SIQUEIRA CAMPOS NR. 71              - CENTRO                                65608050CAXIAS              MATRANSIT. P/ CONTRAMAO EM VIAS C/ SENT. UNICO      186 * II           00000000057380   000029347007572019120420200117319036693373480000002347785630000002834770332170812007574519603669337348600000000000  000   42    00070427523137657380PASSAGEIRO
2100000000469420191203207570PREF. DE: MA - CAXIAS                   CXA0076215201910020248AV NEREU BITTENCOURT                                        BBD9818MA1685163PMMARENAULT/MASTER MBUS L3H2                     ALUGUEL                       MICROONIBUS     BRANCA    00000000JOAO MEDEIROS DIAS JUNIOR                   R DOS CEDROS NR. N-03                    QD-B23 VILA PARAISO - PAMPULHA         65607848CAXIAS              MAUSAR EQUIP.SOM EM VOLUME/FREQ. NAO AUTORIZADO PELO228                00000000065300   000019523007572019120420200117319036693374250000001561885650000001856180332170312007574519603669337425204325794217MA000   43    00050427523583565300PASSAGEIRO
2100000000469420191203207570PREF. DE: MA - CAXIAS                   CXA0077332201909261410PCA RUI BARBOSA                                             HPR1030MA123611-SAMTHONDA/C100 BIZ ES                            PARTICULAR                    MOTONETA        AZUL      00000000JOZINALVA OLIVEIRA C BRANCO                 RUA INDEPENDENCIA NR. 1150              - PONTE                                 65600001CAXIAS              MACOND. MOTOCICLETA/MOTONETA/CICLOM S/CAPACETE DE SE244 * I            00000000070301   000029347007572019120420200117319036693375020000002347785630000002834770332170812007574719203669337502800000000000  000   44    00070427530302470301PASSAGEIRO
2100000000469420191203207570PREF. DE: MA - CAXIAS                   CXA0077245201909261555RUA MENINO DEUS                                             OJC6083MA122131-SAMTHONDA/POP100                                 PARTICULAR                    MOTOCICLETA     PRETA     00000000SEBASTIAO ROBERTO M DE ARAUJO               RUA CHAPADINHA NR. S/N                  - ZONA RURAL                            65615000SAO JOAO DO SOTER   MACOND. MOTOC/MOTON./CICLOM TRANSPORTANDO/PASSAG.S/C244 * II           00000000070481   000029347007572019120420200117319036693376900000002347785690000002234770332170812007574419903669337690100000000000  000   45    00070427530518370481PASSAGEIRO
2100000000469420191203207570PREF. DE: MA - CAXIAS                   CXA0077246201909261605RUA MENINO DEUS                                             OXR1825MA122131-SAMTYAMAHA/YS150 FAZER ED                        PARTICULAR                    MOTOCICLETA     PRETA     00000000RAIMUNDO JOSE PEREIRA SENA                  RUA DA GALEANA NR. 150                  - OLHO D'AGUA                           65600000CAXIAS              MACOND. MOTOCICLETA/MOTONETA/CICLOM S/CAPACETE DE SE244 * I            00000000070301   000029347007572019120420200117319036693377770000002347785610000002034770332170812007574719203669337777600000000000  000   46    00070427530574470301PASSAGEIRO
2100000000469420191203207570PREF. DE: MA - CAXIAS                   CXA0077248201909261715PCA CANDIDO MENDES                                          HPO9936MA122131-SAMTHONDA/NXR125 BROS ES                         PARTICULAR                    MOTOCICLETA     VERMELHA  00000000PEDRO FERNANDES DO NASCIMENTO               RUA 16 NR. 3137                         - PL FORMOSA                            65630000TIMON               MACOND. MOTOC/MOTON./CICLOM TRANSPORTANDO/PASSAG.S/C244 * II           00000000070481   000029347007572019120420200117319036693378540000002347785610000002034770332170812007574419903669337854300000000000  000   47    00070427530632570481PASSAGEIRO
2100000000469420191203207570PREF. DE: MA - CAXIAS                   CXA0077250201909261720PCA CANDIDO MENDES                                          OJJ5811MA122131-SAMTHONDA/CG 125 FAN KS                          PARTICULAR                    MOTOCICLETA     PRETA     00000000EDIVAN MACHADO DA SILVA                     TV RODRIGO OTAVIO NR. 387               - TRIZIDELA                             65615000SAO JOAO DO SOTER   MACOND. MOTOC/MOTON./CICLOM TRANSPORTANDO/PASSAG.S/C244 * II           00000000070481   000029347007572019120420200117319036693379310000002347785670000002434770332170812007574419903669337931900000000000  000   48    00070427530712770481PASSAGEIRO
2100000000469420191203207570PREF. DE: MA - CAXIAS                   CXA0077439201909290950PCA CESARIO LIMA                                            OXR4805MA78162-SAMT HONDA/BIZ 125 ES                             PARTICULAR                    MOTONETA        VERMELHA  00000000ANITA DOS SANTOS SOUSA                      AV DULCIMAR CASTRO QDA 07 CASA NR. 295  - PAMPULHA                              65600000CAXIAS              MACOND. MOTOC/MOTON./CICLOM TRANSPORTANDO/PASSAG.S/C244 * II           00000000070481   000029347007572019120420200117319036693380720000002347785690000002234770332170812007574419903669338072100000000000  000   49    00070427530815870481PASSAGEIRO
2100000000469420191203207570PREF. DE: MA - CAXIAS                   CXA0077436201909260719AV NEREU BITTENCOURT                                        OXV8428MA78162-SAMT HONDA/CB 300R                                PARTICULAR                    MOTOCICLETA     BRANCA    00000000JORGE ANTONIO FERREIRA DA SILVA             RUA DR BERREDO NR. 680                  - CENTRO                                65600000CAXIAS              MACOND. MOTOC/MOTON./CICLOM TRANSPORTANDO/PASSAG.S/C244 * II           00000000070481   000029347007572019120420200117319036693381500000002347785630000002834770332170812007574419903669338150500000000000  000   50    00070427531061670481PASSAGEIRO
2100000000469420191203207570PREF. DE: MA - CAXIAS                   CXA0077160201909271045RUA DR ALFREDO BELEZA                                       NHF8831MA122161-SAMTFIAT/PALIO ELX FLEX                          PARTICULAR                    AUTOMOVEL       BEGE      00000000MIRELA SILVA DE OLIVEIRA                    RUA SAO JOSE NR. 734                    - SAO PEDRO                             65600001CAXIAS              MAESTAC. VEIC. NAS ESQU. E MENOS DE 5M DO ALINHAMENT181 * I            00000000053800   000013016007572019120420200117319036693382370000001041285630000001004120332170212007574419903669338237000000000000  000   51    00040427846510653800PASSAGEIRO
2100000000469420191203207570PREF. DE: MA - CAXIAS                   CXA0075408201909201600PCA CANDIDO MENDES                                          OXY0819MA122051-SAMTHONDA/CG150 FAN ESDI                         PARTICULAR                    MOTOCICLETA     PRETA     00000000JOSE ANTONIO TAVARES                        RUA CENTRAL NR. 1347                    - TRIZIDELA                             65415000COROATA             MACOND. MOTOC/MOTON./CICLOM TRANSPORTANDO/PASSAG.S/C244 * II           00000000070481   000029347007572019120420200117319036693383140000002347785650000002634770332170812007574419903669338314700000000000  000   52    00070427847027470481PASSAGEIRO
2100000000469420191203207570PREF. DE: MA - CAXIAS                   CXA0075407201909201550PCA CANDIDO MENDES                                          NNH4315MA122051-SAMTHONDA/CG 125 FAN KS                          PARTICULAR                    MOTOCICLETA     VERMELHA  00000000RAILLA FRANCIELE OLIVEIRA CUNHA             AV N SRA SANTANA NR. 158                - BOM SUCESSO                           65620000COELHO NETO         MACOND. MOTOC/MOTON./CICLOM TRANSPORTANDO/PASSAG.S/C244 * II           00000000070481   000029347007572019120420200117319036693384010000002347785600000002134770332170812007574419903669338401200000000000  000   53    00070427847158070481PASSAGEIRO
2100000000469420191203207570PREF. DE: MA - CAXIAS                   CXA0075405201909201545PCA CANDIDO MENDES                                          PTA9535MA122051-SAMTHONDA/POP 110I                               PARTICULAR                    MOTOCICLETA     VERMELHA  00000000LUAN MORAES DA CRUZ                         RUA VICTOR GONCALVES NR. N-10           QD-G REC POETAS - NOVA CAXIAS           65604348CAXIAS              MACOND. MOTOC/MOTON./CICLOM TRANSPORTANDO/PASSAG.S/C244 * II           00000000070481   000029347007572019120420200117319036693385890000002347785620000002934770332170812007574419903669338589400000000000  000   54    00070427847519570481PASSAGEIRO
2100000000469420191203207570PREF. DE: MA - CAXIAS                   CXA0075404201909201555PCA CANDIDO MENDES                                          NMZ2621MA122051-SAMTHONDA/POP100                                 PARTICULAR                    MOTOCICLETA     PRETA     00000000MARIA FRANCISCA ALVES DA SILVA              RUA RIO BRANCO NR. NR 20                - CENTRO                                65685000BURITI BRAVO        MACOND. MOTOC/MOTON./CICLOM TRANSPORTANDO/PASSAG.S/C244 * II           00000000070481   000029347007572019120420200117319036693386660000002347785680000002334770332170812007574419903669338666000000000000  000   55    00070427847618370481PASSAGEIRO
2100000000469420191203207570PREF. DE: MA - CAXIAS                   CXA0075403201909201530PCA CANDIDO MENDES                                          NHD8619MA122051-SAMTHONDA/CG 125 FAN                             PARTICULAR                    MOTOCICLETA     PRETA     00000000ALINY DE JESUS OLIVEIRA                     R.SATURNINO BELO NR. 3004               - SAO FRANCISCO                         65600440CAXIAS              MACOND. MOTOC/MOTON./CICLOM TRANSPORTANDO/PASSAG.S/C244 * II           00000000070481   000029347007572019120420200117319036693387430000002347785650000002634770332170812007574419903669338743700000000000  000   56    00070427847660470481PASSAGEIRO
2100000000469420191203207570PREF. DE: MA - CAXIAS                   CXA0075409201909201650PCA CESARIO LIMA                                            PSH6323MA122051-SAMTHONDA/CG150 START                            PARTICULAR                    MOTOCICLETA     VERMELHA  00000000JOSIANE CESAR LIMA                          RUA PROF JOSE MEDEIROS NR. 1557         - PONTE                                 65609260CAXIAS              MACOND. MOTOC/MOTON./CICLOM TRANSPORTANDO/PASSAG.S/C244 * II           00000000070481   000029347007572019120420200117319036693388200000002347785610000002034770332170812007574419903669338820300000000000  000   57    00070427847710470481PASSAGEIRO
2100000000469420191203207570PREF. DE: MA - CAXIAS                   CXA0076892201909301550PCA CANDIDO MENDES                                          OJN3322MA122221-SAMTYAMAHA/T115 CRYPTON ED                       PARTICULAR                    MOTONETA        PRATA     00000000JOSE RODRIGUES DE SOUSA                     RUA CAMPO DE BELEM NR. 599              - CAMPO DE BELEM                        65600000CAXIAS              MACOND. MOTOC/MOTON./CICLOM TRANSPORTANDO/PASSAG.S/C244 * II           00000000070481   000029347007572019120420200117319036693389080000002347785640000002734770332170812007574419903669338908600000000000  000   58    00070427847747370481PASSAGEIRO
2100000000469420191203207570PREF. DE: MA - CAXIAS                   CXA0076894201909301605PCA CANDIDO MENDES                                          NNE4227MA122221-SAMTHONDA/CG 150 FAN ESI                         PARTICULAR                    MOTOCICLETA     PRETA     00000000RAIMUNDO NONATO BEZERRA                     RUA ITAUNA NR. NR133                    - CENTRO                                65790000SAO DOMINGOS DO MA  MACOND. MOTOC/MOTON./CICLOM TRANSPORTANDO/PASSAG.S/C244 * II           00000000070481   000029347007572019120420200117319036693390490000002347785660000002534770332170812007574419903669339049800000000000  000   59    00070427847811970481PASSAGEIRO
2100000000469420191203207570PREF. DE: MA - CAXIAS                   CXA0077505201909260908AV GETULIO VARGAS                                           PTK7993MA305941-SAMTHONDA/POP 110I                               PARTICULAR                    MOTOCICLETA     BRANCA    00000000KELMA DOS SANTOS SILVA                      RUA ISMAEL RIBEIRO NR. 306              - JOSE CASTRO                           65604760CAXIAS              MAESTAC. EM DESACORDO C/ A REGULAMENTACAO ESPECIFICA181 * XVII         00000000055411   000019523007572019120420200117319036693391260000001561885680000001556180332170312007574419903669339126400000000000  000   60    00050427847933655411PASSAGEIRO
2100000000469420191203207570PREF. DE: MA - CAXIAS                   CXA0077347201909271600RUA 01 DE AGOSTO                                            OJE3647MA123611-SAMTHONDA/POP100                                 PARTICULAR                    MOTOCICLETA     VERMELHA  00000000DYEGO EDUARDO ALMADA DA SILVA               I TRAV ESPIRITO SANTO NR. 348           - CANGALHEIRO                           65600000CAXIAS              MACOND. MOTOC/MOTON./CICLOM TRANSPORTANDO/PASSAG.S/C244 * II           00000000070481   000029347007572019120420200117319036693392030000002347785690000002234770332170812007574419903669339203100000000000  000   61    00070427848576070481PASSAGEIRO
2100000000469420191203207570PREF. DE: MA - CAXIAS                   CXA0077349201909271615RUA 01 DE AGOSTO                                            PSI0364MA123611-SAMTCHEV/PRISMA 1.4MT LT                         PARTICULAR                    AUTOMOVEL       BRANCA    00000000IRENICE MARIA UCHOA DE ASSUNCAO             RUA VENEZA NR. 305                      - FUMO VERDE                            65607762CAXIAS              MADIR.VEIC. UTILIZANDO-SE DE TELEFONE CELULAR       252 * VI           00000000073662   000013016007572019120420200117319036693393900000001041285660000001704120332170212007574719203669339390600000000000  000   62    00040427849731873662PASSAGEIRO
2100000000469420191203207570PREF. DE: MA - CAXIAS                   CXA0077350201909271800RUA 01 DE AGOSTO                                            PSD9324MA123611-SAMTHONDA/POP100                                 PARTICULAR                    MOTOCICLETA     PRETA     00000000JOAFFSON FELIPE COSTA DOS SANTOS            AV BENJAMIN CONSTANT NR. 2642           - JOAO VIANA                            65605180CAXIAS              MACOND. MOTOCICLETA/MOTONETA/CICLOM S/CAPACETE DE SE244 * I            00000000070301   000029347007572019120420200117319036693394780000002347785640000002734770332170812007574719203669339478900000000000  000   63    00070427852149970301PASSAGEIRO
2100000000469420191203207570PREF. DE: MA - CAXIAS                   CXA0077155201909271038ALFREDO BELEZA                                              NXP2071MA122161-SAMTFIAT/PALIO ATTRACTIV 1.0                     PARTICULAR                    AUTOMOVEL       PRETA     00000000JANAINA ERIKA DOS SANTOS MOURA              TV PARNASIO NR. S/N                     - PONTE                                 65600000CAXIAS              MAESTAC. VEIC. NAS ESQU. E MENOS DE 5M DO ALINHAMENT181 * I            00000000053800   000013016007572019120420200117319036693395550000001041285670000001604120332170212007574419903669339555400000000000  000   64    00040427852376953800PASSAGEIRO
2100000000469420191203207570PREF. DE: MA - CAXIAS                   CXA0076811201909270930AV OTAVIO PASSOS                                            NHG8545MA306461-SAMTHONDA/BIZ 125 KS                             PARTICULAR                    MOTONETA        CINZA     00000000SILMARITON DA SILVA MENDES                  RUA C QD 01 NR-03 NR.                   F-99-3521-4201 - CJR GALIANA            65608100CAXIAS              MAESTAC. EM LOCAL/HORARIO PROIBIDO ESPECIFIC. P/SINA181*XVIII          00000000055500   000013016007572019120420200117319036693396320000001041285640000001904120332170212007574419903669339632100000000000  000   65    00040427852619955500PASSAGEIRO
2100000000469420191203207570PREF. DE: MA - CAXIAS                   CXA0076810201909270925AV OTAVIO PASSOS                                            HQA0864MA306461-SAMTHONDA/NXR150 BROS ES                         PARTICULAR                    MOTOCICLETA     PRETA     00000000ANDRE DIVINO ALVES DA COSTA                 R LUIZ ROCHA NR. 1494                   - NOVA CAXIAS                           65604420CAXIAS              MAESTAC. EM LOCAL/HORARIO PROIBIDO ESPECIFIC. P/SINA181*XVIII          00000000055500   000013016007572019120420200117319036693397100000001041285680000001504120332170212007574419903669339710500000000000  000   66    00040427852858255500PASSAGEIRO
2100000000469420191203207570PREF. DE: MA - CAXIAS                   CXA0077508201909270807RUA SAO BENEDITO                                            PTJ6562MA305941-SAMTHONDA/POP 110I                               PARTICULAR                    MOTOCICLETA     VERMELHA  00000000MARIA DO P S DOS SANTOS TRINDADE            RUA DO ESPIRITO SANTO NR. 2247          - VOLTA REDONDA                         65606290CAXIAS              MACOND. MOTOCICLETA/MOTONETA/CICLOM S/CAPACETE DE SE244 * I            00000000070301   000029347007572019120420200117319036693398070000002347785640000002734770332170812007574719203669339807900000000000  000   67    00070427853142770301PASSAGEIRO
2100000000469420191203207570PREF. DE: MA - CAXIAS                   CXA0077509201909270933AV OTAVIO PASSOS                                            NHK9511MA305941-SAMTSUNDOWN/WEB 100                              PARTICULAR                    MOTONETA        VERMELHA  00000000JOSE LIMA MARTINS                           AV MANOEL EMIDIO NR. 903                - JAO VIANA                             65600000CAXIAS              MAESTAC. EM LOCAL/HORARIO PROIBIDO ESPECIFIC. P/SINA181*XVIII          00000000055500   000013016007572019120420200117319036693399840000001041285690000001404120332170212007574419903669339984600000000000  000   68    00040427853360855500PASSAGEIRO
2100000000469420191203207570PREF. DE: MA - CAXIAS                   CXA0077247201909281610RUA MENINO DEUS                                             PSA4761MA122131-SAMTHONDA/CG150 FAN ESDI                         PARTICULAR                    MOTOCICLETA     VERMELHA  00000000ANTONIO JOSE DA SILVA                       TV DAS FLORES NR. 1194                  - SERIEMA                               65600000CAXIAS              MACOND. MOTOC/MOTON./CICLOM TRANSPORTANDO/PASSAG.S/C244 * II           00000000070481   000029347007572019120420200117319036693400570000002347785660000002534770332170812007574419903669340057800000000000  000   69    00070427853663170481PASSAGEIRO
2100000000469420191203207570PREF. DE: MA - CAXIAS                   CXA0077512201909281156RUA DR BERREDO                                              OJG2161MA305941-SAMTHONDA/BIZ 100 KS                             PARTICULAR                    MOTONETA        VERMELHA  00000000ELISANGELA MOTA BARROS                      RUA JOSAPHA SOARES NR. 135              - OLHO D'AGUA                           65600000CAXIAS              MATRANSIT. P/ CONTRAMAO EM VIAS C/ SENT. UNICO      186 * II           00000000057380   000029347007572019120420200117319036693401340000002347785630000002834770332170812007574419903669340134500000000000  000   70    00070427854266657380PASSAGEIRO
2100000000469420191203207570PREF. DE: MA - CAXIAS                   CXA0077077201909300925RUA GUSTAVO COLACO                                          PSA8194MA122181-SAMTHONDA/POP100                                 PARTICULAR                    MOTOCICLETA     BRANCA    00000000ZULEIDE TEIXEIRA MORAIS                     RUA PAULO VI NR. 993                    - CAMPO DE BELEM                        65600000CAXIAS              MAESTAC. EM DESACORDO C/ A REGULAMENTACAO ESPECIFICA181 * XVII         00000000055411   000019523007572019120420200117319036693402110000001561885650000001856180332170312007574419903669340211100000000000  000   71    00050427855293955411PASSAGEIRO
2100000000469420191203207570PREF. DE: MA - CAXIAS                   CXA0077384201909301431PCA DO PANTHEON                                             PSD8711MA306521-SAMTHONDA/POP100                                 PARTICULAR                    MOTOCICLETA     BRANCA    00000000ROSEMARY FRAZAO MOURA                       RUA NORTE NR. 1332                      - SAO SEBASTIAO                         65400000CODO                MACOND. MOTOC/MOTON./CICLOM TRANSPORTANDO/PASSAG.S/C244 * II           00000000070481   000029347007572019120420200117319036693403090000002347785610000002034770332170812007574419903669340309300000000000  000   72    00070427855824470481PASSAGEIRO
2100000000469420191203207570PREF. DE: MA - CAXIAS                   CXA0077765201909302001RUA OTAVIO PASSOS                                           NXE1652MA306051-SAMTHONDA/BIZ 125 ES                             PARTICULAR                    MOTONETA        PRETA     00000000FRANCISCA JORDANIA DO C SILVA               BR 316 NR. 2455                         - VOLTA REDONDA                         65600000CAXIAS              MAESTAC. EM DESACORDO C/ A REGULAMENTACAO ESPECIFICA181 * XVII         00000000055411   000019523007572019120420200117319036693404860000001561885630000001056180332170312007574419903669340486900000000000  000   73    00050427859222155411PASSAGEIRO
2100000000469420191203207570PREF. DE: MA - CAXIAS                   CXA0077442201909300845PCA CESARIO LIMA                                            NNA0370MA78162-SAMT HONDA/CG 125 FAN ES                          PARTICULAR                    MOTOCICLETA     AZUL      00000000WELLINGTON CHAVES COUTINHO                  RUA ESPIRITO SANTO NR. 41               - CANGALHEIRO                           65600000CAXIAS              MACOND. MOTOC/MOTON./CICLOM TRANSPORTANDO/PASSAG.S/C244 * II           00000000070481   000029347007572019120420200117319036693405630000002347785630000002834770332170812007574419903669340563500000000000  000   74    00070427859854870481PASSAGEIRO
2100000000469420191203207570PREF. DE: MA - CAXIAS                   CXA0077441201909300750AV PIRAJA                                                   PTG2068MA78162-SAMT HONDA/NXR160 BROS ESDD                       PARTICULAR                    MOTOCICLETA     VERMELHA  00000000ANTONIO BASTOS NETO                         RUA CANDIDO ALVES NR. 463               - TREZIDELA                             65607430CAXIAS              MACOND. MOTOC/MOTON./CICLOM TRANSPORTANDO/PASSAG.S/C244 * II           00000000070481   000029347007572019120420200117319036693406400000002347785690000002234770332170812007574419903669340640100000000000  000   75    00070427860405070481PASSAGEIRO
2100000000469420191203207570PREF. DE: MA - CAXIAS                   CXA0077513201909301212AV PIRAJA                                                   PTF8829MA305941-SAMTHONDA/POP 110I                               PARTICULAR                    MOTOCICLETA     VERMELHA  00000000ASSIS ALDER QUEIROZ FILHO                   RUA CAMPO DE BELEM NR. 728              - CAMPO DE BELEM                        65609040CAXIAS              MACOND. MOTOCICLETA/MOTONETA/CICLOM S/CAPACETE DE SE244 * I            00000000070301   000029347007572019120420200117319036644511020000002347785630000002834770332170812007574719203664451102800000000000  000   76    00070427861791770301PASSAGEIRO
2100000000469420191203207570PREF. DE: MA - CAXIAS                   CXA0077012201909301520PCA RUI BARBOSA                                             PSV5656MA138301-SAMTHONDA/NXR160 BROS ESDD                       PARTICULAR                    MOTOCICLETA     VERMELHA  00000000GLADSTON COSTA E SILVA                      RUA ARAAO REIS NR. 1989                 - CENTRO                                65606020CAXIAS              MACOND. MOTOC/MOTON./CICLOM TRANSPORTANDO/PASSAG.S/C244 * II           00000000070481   000029347007572019120420200117319036693407280000002347785620000002934770332170812007574419903669340728400000000000  000   77    00070427865554170481PASSAGEIRO
2100000000469420191203207570PREF. DE: MA - CAXIAS                   CXA0077608201910031630AV NAZARE                                                   NWY9232MA122131-SAMTHONDA/POP100                                 PARTICULAR                    MOTOCICLETA     PRETA     00000000ELINOR PEREIRA DE MACEDO                    RUA MAGALHAES ALMEIDA NR. 122           - TRIZIDELA                             65600000CAXIAS              MACOND. MOTOC/MOTON./CICLOM TRANSPORTANDO/PASSAG.S/C244 * II           00000000070481   000029347007572019120420200117319036693408050000002347785680000002334770332170812007574419903669340805000000000000  000   78    00070427866304870481PASSAGEIRO
3000077000000000077
