1*NIPI207570201911120046432019111200000000000000
2100000000464320191112207570PREF. DE: MA - CAXIAS                   CXA0073886201909161536AV SANTOS DRUMONT                                           PTN9110MA306481-SAMTHONDA/NXR160 BROS ESDD                       PARTICULAR                    MOTOCICLETA     VERMELHA  00000000GRACIETE SILVEIRA DA CONCEICAO              RUA SAO JOAO NR. 858                    - SERIEMA                               65602370CAXIAS              MACOND. MOTOC/MOTON./CICLOM TRANSPORTANDO/PASSAG.S/C244 * II           00000000070481   000029347007572019111320191227319036662117120000002347785660000002534770332271421907574419903666211712000000000000  000   2     00070423449603070481PASSAGEIRO
2100000000464320191112207570PREF. DE: MA - CAXIAS                   CXA0077353201909160705AV SENADOR COSTA RODRIGUES                                  OJA1292MA306521-SAMTHONDA/POP100                                 PARTICULAR                    MOTOCICLETA     PRETA     00000000MARIA DO SOCORRO VIANA DA SILVA             TRAV BAIXINHA NR. 66                    - BAIXINHA                              65600000CAXIAS              MATRANSIT. P/ CONTRAMAO EM VIAS C/ SENT. UNICO      186 * II           00000000057380   000029347007572019111320191227319036662118000000002347785690000002234770332271421907574419903666211800300000000000  000   3     00070423449745257380PASSAGEIRO
2100000000464320191112207570PREF. DE: MA - CAXIAS                   CXA0077354201909160706RUA SENADOR COSTA RODRIGUES                                 OJG2341MA306521-SAMTHONDA/BIZ 125 EX                             PARTICULAR                    MOTONETA        VERMELHA  00000000YONE ROSAL FRANCO CARNEIRO                  RUA 27 QD 31 NR. 11                     - COHAB                                 65600000CAXIAS              MATRANSIT. P/ CONTRAMAO EM VIAS C/ SENT. UNICO      186 * II           00000000057380   000029347007572019111320191227319036662119870000002347785640000002734770332271421907574419903666211987800000000000  000   4     00070423450186757380PASSAGEIRO
2100000000464320191112207570PREF. DE: MA - CAXIAS                   CXA0077355201909160706RUA SENADOR COSTA RODRIGUES                                 OJG2341MA306521-SAMTHONDA/BIZ 125 EX                             PARTICULAR                    MOTONETA        VERMELHA  00000000YONE ROSAL FRANCO CARNEIRO                  RUA 27 QD 31 NR. 11                     - COHAB                                 65600000CAXIAS              MACOND. MOTOCICLETA/MOTONETA/CICLOM S/CAPACETE DE SE244 * I            00000000070301   000029347007572019111320191227319036662120180000002347785640000002734770332271421907574719203666212018100000000000  000   5     00070423450609570301PASSAGEIRO
2100000000464320191112207570PREF. DE: MA - CAXIAS                   CXA0077358201909100913AV RODOVIARIA                                               PTM5917MA306431-SAMTCHEV/PRISMA 1.4AT LT                         PARTICULAR                    AUTOMOVEL       CINZA     00000000MARILOURDES GOMES MENDES                    RUA DO CAJUEIRO NR. 40                  CJ IPEM - SERIEMA                       65602530CAXIAS              MAESTAC. EM DESACORDO C/ A REGULAMENTACAO ESPECIFICA181 * XVII         00000000055411   000019523007572019111320191227319036662121050000001561885680000001556180332271921907574419903666212105600000000000  000   6     00050423450674555411PASSAGEIRO
2100000000464320191112207570PREF. DE: MA - CAXIAS                   CXA0077359201909160925AV VOLTA REDONDA                                            OXR6333MA306521-SAMTHONDA/NXR125 BROS ES                         PARTICULAR                    MOTOCICLETA     VERMELHA  00000000JOSE LINALDO FERREIRA DA SILVA              RUA DA COHEB NR. 1343                   - VOLTA REDONDA                         65600000CAXIAS              MACOND. MOTOCICLETA/MOTONETA/CICLOM S/CAPACETE DE SE244 * I            00000000070301   000029347007572019111320191227319036662122820000002347785660000002534770332271421907574719203666212282300000000000  000   7     00070423450758070301PASSAGEIRO
2100000000464320191112207570PREF. DE: MA - CAXIAS                   CXA0077360201909160940AV VOLTA REDONDA                                            PSZ1074MA306521-SAMTHONDA/POP 110I                               PARTICULAR                    MOTOCICLETA     VERMELHA  00000000JOCIMAR CARVALHO OLIVEIRA                   RUA SANTA INES NR. 1240                 - VILA LOBAO                            65600001CAXIAS              MACOND. MOTOCICLETA/MOTONETA/CICLOM S/CAPACETE DE SE244 * I            00000000070301   000029347007572019111320191227319036662123600000002347785600000002134770332271421907574719203666212360700000000000  000   8     00070423450836570301PASSAGEIRO
2100000000464320191112207570PREF. DE: MA - CAXIAS                   CXA0077361201909160940AV VOLTA REDONDA                                            NXK7253MA306521-SAMTHONDA/CB 300R                                PARTICULAR                    MOTOCICLETA     VERMELHA  00000000JOAO PAULO CUNHA ARAUJO                     TV DO COTOVELO NR. 102                  - CANGALHEIRO                           65600010CAXIAS              MACOND. MOTOC/MOTON./CICLOM TRANSPORTANDO/PASSAG.S/C244 * II           00000000070481   000029347007572019111320191227319036662124470000002347785680000002334770332271421907574419903666212447200000000000  000   9     00070423450888870481PASSAGEIRO
2100000000464320191112207570PREF. DE: MA - CAXIAS                   CXA0077362201909160949AV VOLTA REDONDA                                            PTD6843MA306431-SAMTHONDA/CG 160 FAN                             PARTICULAR                    MOTOCICLETA     PRETA     00000000WANDERSON LIMA DA SILVA                     RUA N. SRA DE FATIMA NR. 654            - VILA ALECRIM                          65605600CAXIAS              MACOND. MOTOCICLETA/MOTONETA/CICLOM S/CAPACETE DE SE244 * I            00000000070301   000029347007572019111320191227319036662125240000002347785610000002034770332271421907574719203666212524800000000000  000   10    00070423450947770301PASSAGEIRO
2100000000464320191112207570PREF. DE: MA - CAXIAS                   CXA0077365201909161549AV DA INDEPENDENCIA                                         NHE9638MA306521-SAMTHONDA/CG 125 FAN                             PARTICULAR                    MOTOCICLETA     PRETA     00000000IRENE ALVES GOMES                           R.IGREJA NR-1727 NR.                    - SAO FRANCISCO                         65600000CAXIAS              MACOND. MOTOC/MOTON./CICLOM TRANSPORTANDO/PASSAG.S/C244 * II           00000000070481   000029347007572019111320191227319036662126010000002347785600000002134770332271421907574419903666212601400000000000  000   11    00070423452196570481PASSAGEIRO
2100000000464320191112207570PREF. DE: MA - CAXIAS                   CXA0076685201909121143RUA DA ALEGRIA                                              PSD5205MA306051-SAMTHONDA/BIZ 125 ES                             PARTICULAR                    MOTONETA        PRETA     00000000FRANCISCA SANTOS FELIPE                     TV CAJUEIRO NR. 1183                    - SERIEMA                               65602510CAXIAS              MACOND. MOTOCICLETA/MOTONETA/CICLOM S/CAPACETE DE SE244 * I            00000000070301   000029347007572019111320191227319036662127990000002347785690000002234770332271421907574719203666212799600000000000  000   12    00070423453091370301PASSAGEIRO
2100000000464320191112207570PREF. DE: MA - CAXIAS                   CXA0076684201909121043AV OTAVIO PASSOS                                            PSN2571MA306051-SAMTHONDA/POP 110I                               PARTICULAR                    MOTOCICLETA     BRANCA    00000000ANTONIO DIEGO DA SILVA MORAIS               RUA SAO FRANCISCO NR. SN                - RURAL                                 65610000ALDEIAS ALTAS       MAESTAC. EM DESACORDO C/ A REGULAMENTACAO ESPECIFICA181 * XVII         00000000055411   000019523007572019111320191227319036662128760000001561885640000001956180332271921907574419903666212876200000000000  000   13    00050423453703955411PASSAGEIRO
2100000000464320191112207570PREF. DE: MA - CAXIAS                   CXA0076681201909120920PCA CANDIDO MENDES                                          OIV8133MA306051-SAMTHONDA/POP100                                 PARTICULAR                    MOTOCICLETA     PRETA     00000000LUZIA PEREIRA SANTANA                       RUA DO AMOR NR. 9                       - VILA VITORIA                          65600000CAXIAS              MAESTACIONAR EM DESAC. C/REGULAMENT.-ESTACIONAMENTO 181 * XVII         00000000055412   000019523007572019111320191227319036662129530000001561885610000001256180332271921907574419903666212953900000000000  000   14    00050423453723355412PASSAGEIRO
2100000000464320191112207570PREF. DE: MA - CAXIAS                   CXA0077351201909121225PCA DO PANTHEON                                             PSY6257MA306521-SAMTHONDA/POP 110I                               PARTICULAR                    MOTOCICLETA     PRETA     00000000BIANCA MACHADO DA CUNHA                     RUA CAROLINA NR. 386                    - VILA LOBAO                            65605687CAXIAS              MADEIXAR DE DAR PREF.PEDES/VEIC NAO MOTOR.FAIXA ELE 214 * I            00000000061220   000029347007572019111320191227319036662130940000002347785670000002434770332271421907574419903666213094100000000000  000   15    00070423453810861220PASSAGEIRO
2100000000464320191112207570PREF. DE: MA - CAXIAS                   CXA0075229201909130842RUA RIO DE JANEIRO                                          PSC7281MA122111-SAMTHONDA/POP100                                 PARTICULAR                    MOTOCICLETA     VERMELHA  00000000MARIA IVANILDE ROCHA DE SOUZA               RUA ALUIZIO LOBO NR. 3137               - SAO FRANCISCO                         65600450CAXIAS              MAESTAC. EM LOCAL/HORARIO PROIBIDO ESPECIFIC. P/SINA181*XVIII          00000000055500   000013016007572019111320191227319036662131710000001041285680000001504120332271821907574419903666213171700000000000  000   16    00040423453905855500PASSAGEIRO
2100000000464320191112207570PREF. DE: MA - CAXIAS                   CXA0077060201909131033PCA RUI BARBOSA                                             HPQ2908MA122181-SAMTHONDA/NXR125 BROS ES                         PARTICULAR                    MOTOCICLETA     VERMELHA  00000000GERSON MOTA ANDRADE                         RUA 15 QD 18 CASA 01 NR.                - IPEM SERIEMA                          65600000CAXIAS              MATRANSIT. EFET. TRANSP.REMUN/PESSOAS N.LICENC. P/ES231 * VIII         00000000068661   000013016007572019111320191227319036662132590000001041285680000001504120332271821907574719203666213259000088549505MA000   17    00040423454200868661PASSAGEIRO
2100000000464320191112207570PREF. DE: MA - CAXIAS                   CXA0077055201909130925AV OTAVIO PASSOS                                            PTL2218MA122181-SAMTHONDA/BIZ 125                                PARTICULAR                    MOTONETA        BRANCA    00000000MARIA FRANCISCA DE BRITO                    RUA AMAZONAS NR. 440                    - PIRAJA                                65608430CAXIAS              MAAVANCAR SINAL VERMELHO DO SEMAFORO                208                00000000060501   000029347007572019111320191227319036662133360000002347785620000002934770332271421907574419903666213336600000000000  000   18    00070423454311060501PASSAGEIRO
2100000000464320191112207570PREF. DE: MA - CAXIAS                   CXA0077058201909130930TRAV CAETANO CARVALHO                                       PTD1945MA122181-SAMTYAMAHA/YBR150 FACTOR E                       PARTICULAR                    MOTOCICLETA     VERMELHA  00000000IRACI CRUZ LIMA DE OLIVEIRA                 RUA SATURNINO BELO NR. 3114             - SAO FRANCISCO                         65600440CAXIAS              MACOND. MOTOCICLETA/MOTONETA/CICLOM S/CAPACETE DE SE244 * I            00000000070301   000029347007572019111320191227319036662134130000002347785660000002534770332271421907574719203666213413300000000000  000   19    00070423456817170301PASSAGEIRO
2100000000464320191112207570PREF. DE: MA - CAXIAS                   CXA0077054201909130921AV OTAVIO PASSOS                                            PTL2218MA122181-SAMTHONDA/BIZ 125                                PARTICULAR                    MOTONETA        BRANCA    00000000MARIA FRANCISCA DE BRITO                    RUA AMAZONAS NR. 440                    - PIRAJA                                65608430CAXIAS              MAESTAC. EM LOCAL/HORARIO.DE ESTAC. E PARADA PROIBID181 * XIX          00000000055680   000019523007572019111320191227319036662135000000001561885690000001456180332271921907574419903666213500700000000000  000   20    00050423462155255680PASSAGEIRO
2100000000464320191112207570PREF. DE: MA - CAXIAS                   CXA0075231201909131145AV OTAVIO PASSOS                                            OXR8983MA122111-SAMTHONDA/BIZ 125 ES                             PARTICULAR                    MOTONETA        VERMELHA  00000000THAYNARA MACHADO DOS SANTOS                 RUA SANTA MARIA NR. 2126                CASA - FAVEIRA                          65602840CAXIAS              MAESTAC. EM LOCAL/HORARIO.DE ESTAC. E PARADA PROIBID181 * XIX          00000000055680   000019523007572019111320191227319036662136880000001561885620000001156180332271921907574419903666213688000000000000  000   21    00050423462330055680PASSAGEIRO
2100000000464320191112207570PREF. DE: MA - CAXIAS                   CXA0076209201909212329RUA DA UEMA                                                 PTI5848MA1685163PMMAFIAT/ARGO DRIVE 1.0                          PARTICULAR                    AUTOMOVEL       PRETA     00000000MARCOS HENOC MARTINS SOUSA                  RUA NAZEU QUADROS NR. N 41              QD 129 - SAO SEBASTIAO                  65400000CODO                MAESTAC. EM DESACORDO C/ A REGULAMENTACAO ESPECIFICA181 * XVII         00000000055411   000019523007572019111320191227319036662137650000001561885670000001656180332271921907574519603666213765600000000000  000   22    00050423959949055411PASSAGEIRO
3000021000000000021
