1*NIPI207570202001140047902020011400000000000000
2100000000479020200114207570PREF. DE: MA - CAXIAS                   CXA0078196201911061750AV LUIS SALES                                               NNI7563MA122131-SAMTYAMAHA/FACTOR YBR125 K                       PARTICULAR                    MOTOCICLETA     PRETA     00000000JOAO RAYENDER CUNHA                         R BELA VISTA NR. 1020                   - CASTELO BRANCO                        65600010CAXIAS              MACOND. MOTOCICLETA/MOTONETA/CICLOM S/CAPACETE DE SE244 * I            00000000070301   000029347007572020011520200228320036739939250000002347785660000002534770332280522007574720803673993925800000000000  000   2     00070435912028170301PASSAGEIRO
2100000000479020200114207570PREF. DE: MA - CAXIAS                   CXA0077940201911061107RUA BENEDITO REIS                                           PSO7036MA306051-SAMTHONDA/BIZ 125 ES                             PARTICULAR                    MOTONETA        PRATA     00000000QUEZIA ALBUQUERQUE D DA SILVA               R AARAO REIS NR. 1428                   - CENTRO                                65606020CAXIAS              MAESTAC. EM DESACORDO C/ A REGULAMENTACAO ESPECIFICA181 * XVII         00000000055411   000019523007572020011520200228320036739940660000001561885670000001656180332280022007574420503673994066000000000000  000   3     00050435913463055411PASSAGEIRO
2100000000479020200114207570PREF. DE: MA - CAXIAS                   CXA0078194201911061545RUA AARAO REIS                                              NHT1436MA122131-SAMTHONDA/BIZ 125 ES                             PARTICULAR                    MOTONETA        PRETA     00000000MONICA CRISTINA QUEIROZ ARAUJO              RUA TEOFILO DIAS NR. 1109               - CENTRO                                65600090CAXIAS              MATRANSIT. P/ CONTRAMAO EM VIAS C/ SENT. UNICO      186 * II           00000000057380   000029347007572020011520200228320036739941430000002347785680000002334770332280522007574420503673994143700000000000  000   4     00070435914336257380PASSAGEIRO
2100000000479020200114207570PREF. DE: MA - CAXIAS                   CXA0077697201911061222PCA PANTHEON                                                NHO5611MA306431-SAMTHONDA/POP100                                 PARTICULAR                    MOTOCICLETA     PRETA     00000000GEREMIAS SOUSA DOS SANTOS                   TV.MATADOURO NR-413 NR.                 - TRIZIDELA                             65607620CAXIAS              MADEIXAR DE DAR PREF.PEDES/VEIC NAO MOTOR.FAIXA ELE 214 * I            00000000061220   000029347007572020011520200228320036739942200000002347785640000002734770332280522007574420503673994220300000000000  000   5     00070435915579461220PASSAGEIRO
2100000000479020200114207570PREF. DE: MA - CAXIAS                   CXA0077696201911061212PCA PANTHEON                                                NIO5755MA306431-SAMTI/FIAT SIENA EL FLEX                         PARTICULAR                    AUTOMOVEL       CINZA     00000000JOSE LUIZ SILVA ALVES                       RUA SANTO EXPEDITO NR. 03               QD H - VILA ARIAS                       65603265CAXIAS              MADEIXAR DE DAR PREF.PEDES/VEIC NAO MOTOR.FAIXA ELE 214 * I            00000000061220   000029347007572020011520200228320036739943080000002347785670000002434770332280522007574420503673994308600000000000  000   6     00070435915720761220PASSAGEIRO
2100000000479020200114207570PREF. DE: MA - CAXIAS                   CXA0077695201911061209PCA PANTHEON                                                PSX0695MA306431-SAMTTOYOTA/ETIOS HB X 13L AT                     PARTICULAR                    AUTOMOVEL       BRANCA    00000000CARLOS ALBERTO DE CAMPOS MENDES             RUA JUPITER NR. 391                     - REC DOS VINHAIS                       65070270SAO LUIS            MADEIXAR DE DAR PREF.PEDES/VEIC NAO MOTOR.FAIXA ELE 214 * I            00000000061220   000029347007572020011520200228320036739944950000002347785620000002934770332280522007574420503673994495100000000000  000   7     00070435915951061220PASSAGEIRO
2100000000479020200114207570PREF. DE: MA - CAXIAS                   CXA0077694201911061206PCA PANTHEON                                                OJE3695MA306431-SAMTHONDA/POP100                                 PARTICULAR                    MOTOCICLETA     VERMELHA  00000000RAIMUNDO SENA BARBOSA                       BR 135 CASA NR. S N                     - BOIADA                                65470000SAO MATEUS          MADEIXAR DE DAR PREF.PEDES/VEIC NAO MOTOR.FAIXA ELE 214 * I            00000000061220   000029347007572020011520200228320036739945720000002347785680000002334770332280522007574420503673994572700000000000  000   8     00070435916384361220PASSAGEIRO
2100000000479020200114207570PREF. DE: MA - CAXIAS                   CXA0077693201911061204PCA DO PANTHEON                                             PTC5612MA306431-SAMTCHEV/PRISMA 10MT JOYE                        PARTICULAR                    AUTOMOVEL       CINZA     00000000PATRICIA VIEIRA DA SILVA                    RUA SAO MARCOS NR. 500                  - PAI GERALDO                           65600680CAXIAS              MADEIXAR DE DAR PREF.PEDES/VEIC NAO MOTOR.FAIXA ELE 214 * I            00000000061220   000029347007572020011520200228320036739946500000002347785620000002934770332280522007574420503673994650100000000000  000   9     00070435916516161220PASSAGEIRO
2100000000479020200114207570PREF. DE: MA - CAXIAS                   CXA0075218201911060920RUA GUSTAVO COLACO                                          PSZ2114MA305941-SAMTHONDA/POP 110I                               PARTICULAR                    MOTOCICLETA     VERMELHA  00000000MANOEL DE JESUS DOS S RIBEIRO               RUA SOL NR. 1198                        - CANGALHEIRO                           65600010CAXIAS              MAESTACIONAR EM DESACORDO C/REGULAM-VAGA DE CARGA/DE181 * XVII         00000000055414   000019523007572020011520200228320036739947370000001561885630000001056180332280022007574420503673994737600000000000  000   10    00050435916593555414PASSAGEIRO
2100000000479020200114207570PREF. DE: MA - CAXIAS                   CXA0077035201911061025RUA COELHO NETO                                             NHL7110MA138301-SAMTHONDA/BIZ 125 MAIS                           PARTICULAR                    MOTONETA        CINZA     00000000MARIA DO SOCORRO CARVALHO SOUSA             R TRILHO VELHO NR. 1576                 - CENTRO                                65608080CAXIAS              MACOND. MOTOC/MOTON./CICLOM TRANSPORTANDO/PASSAG.S/C244 * II           00000000070481   000029347007572020011520200228320036739948140000002347785640000002734770332280522007574420503673994814300000000000  000   11    00070435916625770481PASSAGEIRO
2100000000479020200114207570PREF. DE: MA - CAXIAS                   CXA0078609201911071652RUA COELHO NETO                                             PSK3290MA306431-SAMTHONDA/BIZ 125 ES                             PARTICULAR                    MOTONETA        VERMELHA  00000000GRACIENE RODRIGUES PINHEIRO                 RUA NOSSA SENHORA DE FATIMA NR. 1997    - CENTRO                                65600560CAXIAS              MATRANSIT. P/ CONTRAMAO EM VIAS C/ SENT. UNICO      186 * II           00000000057380   000029347007572020011520200228320036739949010000002347785690000002234770332280522007574420503673994901800000000000  000   12    00070435927161157380PASSAGEIRO
2100000000479020200114207570PREF. DE: MA - CAXIAS                   CXA0078608201911071625RUA RIO DE JANEIRO                                          OIW0201MA306431-SAMTHONDA/NXR150 BROS ESD                        PARTICULAR                    MOTOCICLETA     PRETA     00000000CLEBER NELES DE SOUSA                       AV MAL COSTA E SILVA NR. 1225           - CASTELO BRANCO                        65600000CAXIAS              MATRANSIT. P/ CONTRAMAO EM VIAS C/ SENT. UNICO      186 * II           00000000057380   000029347007572020011520200228320036739950320000002347785620000002934770332280522007574420503673995032100000000000  000   13    00070435927500557380PASSAGEIRO
2100000000479020200114207570PREF. DE: MA - CAXIAS                   CXA0078605201911071425COELHO NETO                                                 NXQ2338MA306431-SAMTHONDA/POP100                                 PARTICULAR                    MOTOCICLETA     VERMELHA  00000000MARIA DE NAZARE A DE S DA SILVA             RUA OTAVIO PASSOS NR. 1085              - GOIABAL                               65725000PEDREIRAS           MACOND. MOTOC/MOTON./CICLOM TRANSPORTANDO/PASSAG.S/C244 * II           00000000070481   000029347007572020011520200228320036739951100000002347785660000002534770332280522007574420503673995110500000000000  000   14    00070435928457870481PASSAGEIRO
2100000000479020200114207570PREF. DE: MA - CAXIAS                   CXA0078601201911071137PCA MAGALHAES DE ALMEIDA                                    HPT5474MA306431-SAMTHONDA/CG 150 TITAN KS                        PARTICULAR                    MOTOCICLETA     AZUL      00000000MARCELO PEREIRA SILVA                       RUA DO COQUEIRO CASA NR. 70             - CENTRO                                65138000RAPOSA              MACOND. MOTOC/MOTON./CICLOM TRANSPORTANDO/PASSAG.S/C244 * II           00000000070481   000029347007572020011520200228320036739952070000002347785600000002134770332280522007574420503673995207900000000000  000   15    00070435928861170481PASSAGEIRO
2100000000479020200114207570PREF. DE: MA - CAXIAS                   CXA0077700201911070922RUA SENADOR COSTA RODRIGUES                                 PSE6988MA306431-SAMTHONDA/BIZ 125 EX                             PARTICULAR                    MOTONETA        BRANCA    00000000MAYKERLEN ROCHA                             RUA SAO JOSE NR. 1022                   - FAZENDINHA                            65600233CAXIAS              MAESTAC. EM DESACORDO C/ A REGULAMENTACAO ESPECIFICA181 * XVII         00000000055411   000019523007572020011520200228320036739953840000001561885630000001056180332280022007574420503673995384600000000000  000   16    00050435929189255411PASSAGEIRO
2100000000479020200114207570PREF. DE: MA - CAXIAS                   CXA0077036201911070830PCA PANTHEON                                                NXC3816MA138301-SAMTHONDA/NXR150 BROS ES                         PARTICULAR                    MOTOCICLETA     LARANJA   00000000JEFFER JAMYS NASCIMENTO SOUZA               TRAV JOSE SARNEY NR. 574                - CAMPO DE BELEM                        65600000CAXIAS              MATRANSIT. P/ CONTRAMAO EM VIAS C/ SENT. UNICO      186 * II           00000000057380   000029347007572020011520200228320036739954610000002347785630000002834770332280522007574420503673995461200000000000  000   17    00070435929962157380PASSAGEIRO
2100000000479020200114207570PREF. DE: MA - CAXIAS                   CXA0077037201911071030RUA COELHO NETO                                             PSL7555MA138301-SAMTHONDA/POP 110I                               PARTICULAR                    MOTOCICLETA     VERMELHA  00000000LUCIANO BORBA DOS SANTOS                    PV JUCURUTU NR. SN                      - PV JUCURUTU                           65600010CAXIAS              MATRANSIT. P/ CONTRAMAO EM VIAS C/ SENT. UNICO      186 * II           00000000057380   000029347007572020011520200228320036739955490000002347785650000002634770332280522007574420503673995549400000000000  000   18    00070435930285157380PASSAGEIRO
2100000000479020200114207570PREF. DE: MA - CAXIAS                   CXA0078197201911071440PCA MAGALHAES DE ALMEIDA                                    NMY6081MA123611-SAMTHONDA/BIZ 125 ES                             PARTICULAR                    MOTONETA        VERMELHA  00000000FLORENCIA ALVES DA COSTA                    RUA PAZ NR. NR-57                       - SANTANA                               65620000COELHO NETO         MACOND. MOTOCICLETA/MOTONETA/CICLOM S/CAPACETE DE SE244 * I            00000000070301   000029347007572020011520200228320036739956260000002347785680000002334770332280522007574720803673995626000000000000  000   19    00070435930552470301PASSAGEIRO
2100000000479020200114207570PREF. DE: MA - CAXIAS                   CXA0078198201911071550AV NEREU BITTENCOURT                                        PTH7553MA123611-SAMTSR/RANDON SR CA                              ALUGUEL                       SEMI-REBOQUE    PRETA     00000000TRANSPORTADORA DELTA LTDA                   RUA PROJETADA NR. 51                    - SANTO AMARO                           65800000BALSAS              MAAVANCAR SINAL VERMELHO DO SEMAFORO                208                00000000060501   000029347007572020011520200228320036739957030000002347785680000002334770332280522007574420503673995703700000000000  000   20    00070435930753560501CARGA
2100000000479020200114207570PREF. DE: MA - CAXIAS                   CXA0078199201911071625AV RODOVIARIA                                               PSE1847MA123611-SAMTHONDA/NXR150 BROS ES                         PARTICULAR                    MOTOCICLETA     VERMELHA  00000000JURANDI SOARES DE JESUS                     RUA DA MANGUEIRA NR. 834                - JOAO VIANA                            65605150CAXIAS              MACOND. MOTOC/MOTON./CICLOM TRANSPORTANDO/PASSAG.S/C244 * II           00000000070481   000029347007572020011520200228320036739958900000002347785630000002834770332280522007574420503673995890200000000000  000   21    00070435930959770481PASSAGEIRO
2100000000479020200114207570PREF. DE: MA - CAXIAS                   CXA0077699201911070900RUA RIO BRANCO                                              PSX9358MA306431-SAMTHONDA/CG 125 FAN KS                          PARTICULAR                    MOTOCICLETA     PRETA     00000000LUCILANIO MARINHO DE ARAUJO                 RUA DA GLORIA NR. 935                   - CAMPO DE BELEM                        65609250CAXIAS              MAESTAC. EM DESACORDO C/ A REGULAMENTACAO ESPECIFICA181 * XVII         00000000055411   000019523007572020011520200228320036739959780000001561885620000001156180332280022007574420503673995978500000000000  000   22    00050435931357855411PASSAGEIRO
2100000000479020200114207570PREF. DE: MA - CAXIAS                   CXA0078416201911071430PCA CANDIDO MENDES                                          PSE1795MA122221-SAMTHONDA/POP100                                 PARTICULAR                    MOTOCICLETA     VERMELHA  00000000MARLENE DA SILVA                            TV CAMPOS SALES NR. 695                 - SALOBRO                               65609540CAXIAS              MACOND. MOTOC/MOTON./CICLOM TRANSPORTANDO/PASSAG.S/C244 * II           00000000070481   000029347007572020011520200228320036739960090000002347785690000002234770332280522007574420503673996009800000000000  000   23    00070435931593770481PASSAGEIRO
2100000000479020200114207570PREF. DE: MA - CAXIAS                   CXA0078610201911071656RUA PRIMEIRO DE AGOSTO                                      PSZ2349MA306431-SAMTHONDA/NXR 160 BROS                           PARTICULAR                    MOTOCICLETA     BRANCA    00000000RENON PEREIRA DA COSTA                      TV DO ESPIRITO SANTO NR. 1043           A - CANGALHEIRO                         65606300CAXIAS              MACOND. MOTOC/MOTON./CICLOM TRANSPORTANDO/PASSAG.S/C244 * II           00000000070481   000029347007572020011520200228320036739961960000002347785640000002734770332280522007574420503673996196300000000000  000   24    00070435932176770481PASSAGEIRO
2100000000479020200114207570PREF. DE: MA - CAXIAS                   CXA0078369201911081110AV OTAVIO PASSOS                                            OJN1244MA122111-SAMTHONDA/BIZ 100 ES                             PARTICULAR                    MOTONETA        PRETA     00000000ARIELE BRENDA S MARQUES ARAGAO              RUA PEDREIRA NR. 258                    - ANTENOR VIANA                         65600010CAXIAS              MAESTAC. EM LOCAL/HORARIO PROIBIDO ESPECIFIC. P/SINA181*XVIII          00000000055500   000013016007572020011520200228320036739962730000001041285660000001704120332280922007574420503673996273000000000000  000   25    00040435935576955500PASSAGEIRO
2100000000479020200114207570PREF. DE: MA - CAXIAS                   CXA0078611201911080821PCA DUQUE DE CAXIAS                                         OJP1658MA306431-SAMTHONDA/CG 125 FAN KS                          PARTICULAR                    MOTOCICLETA     VERMELHA  00000000JOSIMAR ALVES DOS SANTOS                    RUA DO FIO NR. 93                       - VENEZA                                65600000CAXIAS              MAESTAC. EM DESACORDO C/ A REGULAMENTACAO ESPECIFICA181 * XVII         00000000055411   000019523007572020011520200228320036739963500000001561885630000001056180332280022007574420503673996350600000000000  000   26    00050435935847455411PASSAGEIRO
2100000000479020200114207570PREF. DE: MA - CAXIAS                   CXA0078614201911081116PCA DUQUE DE CAXIAS                                         NHB4802MA306431-SAMTHONDA/BIZ 125 ES                             PARTICULAR                    MOTONETA        PRETA     00000000MARIA DE LOURDES DA CONCEICAO               AV ALVORADA NR. 2008                    - MUTIRAO                               65600000CAXIAS              MAESTAC. EM DESACORDO C/ A REGULAMENTACAO ESPECIFICA181 * XVII         00000000055411   000019523007572020011520200228320036739964380000001561885660000001756180332280022007574420503673996438900000000000  000   27    00050435936775955411PASSAGEIRO
2100000000479020200114207570PREF. DE: MA - CAXIAS                   CXA0078616201911081700RUA PORTO DAS PEDRAS                                        NHO0578MA306431-SAMTHONDA/POP100                                 PARTICULAR                    MOTOCICLETA     VERMELHA  00000000LUIZ RAMOS ASSUNCAO                         RUA VEREADOR G OLIVEIRA NR. 2172        - CENTRO                                65600000CAXIAS              MATRANSIT. P/ CONTRAMAO EM VIAS C/ SENT. UNICO      186 * II           00000000057380   000029347007572020011520200228320036739965150000002347785650000002634770332280522007574420503673996515400000000000  000   28    00070435937693657380PASSAGEIRO
2100000000479020200114207570PREF. DE: MA - CAXIAS                   CXA0077942201911080653PCA PANTHEON                                                NXF0253MA306051-SAMTHONDA/CG 125 FAN KS                          PARTICULAR                    MOTOCICLETA     PRETA     00000000JACKSON ALVES DA SILVA                      TV SAO SEBASTIAO NR. 1390               - BACURIZEIRO                           65600010CAXIAS              MACOND. MOTOC/MOTON./CICLOM TRANSPORTANDO/PASSAG.S/C244 * II           00000000070481   000029347007572020011520200228320036739966020000002347785610000002034770332280522007574420503673996602000000000000  000   29    00070435938279070481PASSAGEIRO
2100000000479020200114207570PREF. DE: MA - CAXIAS                   CXA0077941201911080645PCA PANTHEON                                                PTE6354MA306051-SAMTHONDA/POP 110I                               PARTICULAR                    MOTOCICLETA     BRANCA    00000000MARIA DE JESUS DOS SANTOS GOMES             RUA SAO JOSE NR. 1504                   - BACURIZEIRO                           65603820CAXIAS              MACOND. MOTOCICLETA/MOTONETA/CICLOM S/CAPACETE DE SE244 * I            00000000070301   000029347007572020011520200228320036739967800000002347785620000002934770332280522007574720803673996780400000000000  000   30    00070435938596070301PASSAGEIRO
2100000000479020200114207570PREF. DE: MA - CAXIAS                   CXA0077039201911080920RUA GUSTAVO COLACO                                          PTM5147MA138301-SAMTRENAULT/DUSTER 16 A CVT                      PARTICULAR                    CAMIONETA       PRATA     00000000DEILDE SOUZA DIAS                           RUA DO COTOVELO NR. NR850               - CANGALHEIRO                           65606580CAXIAS              MAESTAC. EM DESACORDO C/ A REGULAMENTACAO ESPECIFICA181 * XVII         00000000055411   000019523007572020011520200228320036739968670000001561885660000001756180332280022007574420503673996867900000000000  000   31    00050435939023855411MISTO
2100000000479020200114207570PREF. DE: MA - CAXIAS                   CXA0078200201911081505AV SAO LUIS                                                 PSA8268MA123611-SAMTHONDA/NXR150 BROS ES                         PARTICULAR                    MOTOCICLETA     PRETA     00000000ANA PAULA OLIVEIRA DA SILVA                 RUA 23 QD 19 NR. 18                     - TESO DURO                             65600000CAXIAS              MACOND. MOTOC/MOTON./CICLOM TRANSPORTANDO/PASSAG.S/C244 * II           00000000070481   000029347007572020011520200228320036739969440000002347785670000002434770332280522007574420503673996944600000000000  000   32    00070435941202970481PASSAGEIRO
2100000000479020200114207570PREF. DE: MA - CAXIAS                   CXA0078222201911080821PCA DUQUE DE CAXIAS                                         PSP7669MA305941-SAMTHONDA/POP100                                 PARTICULAR                    MOTOCICLETA     VERMELHA  00000000ANTONIA MARIA A DA SILVA ALMEIDA            R JOAO DE BARRO NR. N-7                 QD A10 - VL PARAISO                     65600010CAXIAS              MAESTAC. EM DESACORDO C/ A REGULAMENTACAO ESPECIFICA181 * XVII         00000000055411   000019523007572020011520200228320036739970850000001561885640000001956180332280022007574420503673997085700000000000  000   33    00050435941592355411PASSAGEIRO
2100000000479020200114207570PREF. DE: MA - CAXIAS                   CXA0078223201911081111PCA DUQUE DE CAXIAS                                         PSN0400MA305941-SAMTHONDA/BIZ 125 ES                             PARTICULAR                    MOTONETA        VERMELHA  00000000EDIVANETE SOUZA SILVA                       AVENIDA 07 QD 19 NR. 27                 - COHAB                                 65604660CAXIAS              MAESTAC. EM DESACORDO C/ A REGULAMENTACAO ESPECIFICA181 * XVII         00000000055411   000019523007572020011520200228320036739971620000001561885610000001256180332280022007574420503673997162400000000000  000   34    00050435941795055411PASSAGEIRO
2100000000479020200114207570PREF. DE: MA - CAXIAS                   CXA0078224201911081115PCA DUQUE DE CAXIAS                                         OJK5252MA305941-SAMTHONDA/BIZ 100 ES                             PARTICULAR                    MOTONETA        PRETA     00000000CARMEM LUCIA MIRANDA DOS SANTOS             RUA BELO HORIZONTE NR. 574              - CAMPO DE BELEM                        65607600CAXIAS              MAESTAC. EM DESACORDO C/ A REGULAMENTACAO ESPECIFICA181 * XVII         00000000055411   000019523007572020011520200228320036739972400000001561885650000001856180332280022007574420503673997240800000000000  000   35    00050435942138955411PASSAGEIRO
2100000000479020200114207570PREF. DE: MA - CAXIAS                   CXA0078226201911081121PCA DUQUE DE CAXIAS                                         PSW8861MA305941-SAMTHONDA/BIZ 110I                               PARTICULAR                    MOTONETA        VERMELHA  00000000NADILENE PEREIRA E S OLIVEIRA               AV BENJAMIN CONSTANT NR. 1833           - NOVA CAXIAS                           65604260CAXIAS              MAESTAC. EM DESACORDO C/ A REGULAMENTACAO ESPECIFICA181 * XVII         00000000055411   000019523007572020011520200228320036739973270000001561885600000001356180332280022007574420503673997327300000000000  000   36    00050435942720455411PASSAGEIRO
2100000000479020200114207570PREF. DE: MA - CAXIAS                   CXA0078227201911090816AV CENTRAL                                                  NXD1538MA305941-SAMTHONDA/BIZ 125 ES                             PARTICULAR                    MOTONETA        VERDE     00000000MARIA BERNADETE DA SILVA NOBRE              RUA MATADOURO QD B NR. 04               - RAIZ                                  65602620CAXIAS              MAULTRAP. VEIC EM MOVIMENTO QUE INTEGRE CORTEJO/DESF205                00000000059830   000008838007572020011520200228320036739974040000000707085650000000070700332280722007574420503673997404000000000000  000   37    00030435943067159830PASSAGEIRO
2100000000479020200114207570PREF. DE: MA - CAXIAS                   CXA0078228201911090820AV CENTRAL                                                  PQS5298MA305941-SAMTCHEVROLET/ONIX 1.4MT LTZ                     PARTICULAR                    AUTOMOVEL       PRATA     00000000MARIA DE JESUS BARBOSA DA SILVA             TV COSTA SOBRINHO NR. 1327              - VOLTA REDONDA                         65600001CAXIAS              MAULTRAP. VEIC EM MOVIMENTO QUE INTEGRE CORTEJO/DESF205                00000000059830   000008838007572020011520200228320036739975910000000707085690000000670700332280722007574420503673997591400000000000  000   38    00030435943390559830PASSAGEIRO
2100000000479020200114207570PREF. DE: MA - CAXIAS                   CXA0078229201911090841PCA MANOEL GONCALVES                                        NIQ8759MA305941-SAMTFIAT/PALIO WK ADVEN FLEX                     PARTICULAR                    AUTOMOVEL       BRANCA    00000000MARITON ALEX ARAUJO CUNHA                   TV N SRA FATIMA NR. 144                 - PIQUIZEIRO                            65600010CAXIAS              MAULTRAP. VEIC EM MOVIMENTO QUE INTEGRE CORTEJO/DESF205                00000000059830   000008838007572020011520200228320036739976790000000707085620000000370700332280722007574420503673997679700000000000  000   39    00030435943685859830PASSAGEIRO
2100000000479020200114207570PREF. DE: MA - CAXIAS                   CXA0078370201911091110AV OTAVIO PASSOS                                            PST3978MA122111-SAMTHONDA/BIZ 125                                PARTICULAR                    MOTONETA        CINZA     00000000LARISSA ALMEIDA DE ARAUJO                   TV CONEGO ADERSON_GUIMAR NR. N-234      - TREZIDELA                             65607630CAXIAS              MAESTAC. EM LOCAL/HORARIO PROIBIDO ESPECIFIC. P/SINA181*XVIII          00000000055500   000013016007572020011520200228320036739977560000001041285690000001404120332280922007574420503673997756300000000000  000   40    00040435944090155500PASSAGEIRO
2100000000479020200114207570PREF. DE: MA - CAXIAS                   CXA0078621201911111150AV GETULIO VARGAS                                           NHO8403MA306431-SAMTJTA/SUZUKI EN125 YES                         PARTICULAR                    MOTOCICLETA     PRETA     00000000KELY CRISTINE PAVAO SA MENEZES              RUA ANTONIO AUGUSTO NR. NR88            - MOROPOIA                              65110000SAO JOSE DE RIBAMAR MACOND. MOTOC/MOTON./CICLOM TRANSPORTANDO/PASSAG.S/C244 * II           00000000070481   000029347007572020011520200228320036735128400000002347785620000002934770332280522007574420503673512840100000000000  000   41    00070435947474170481PASSAGEIRO
2100000000479020200114207570PREF. DE: MA - CAXIAS                   CXA0078618201911110934RUA BENEDITO REIS                                           PSO4596MA306431-SAMTHONDA/BIZ 125 EX                             PARTICULAR                    MOTONETA        BRANCA    00000000MARIA DOS SANTOS DA C A DA MOTA             R CERAMICA NR. 550                      - CALDEIROES                            65607305CAXIAS              MAESTACIONAR NAS VAGAS RESERV AS PESSOAS C/DEFIC.S/CART 181, XX        00000000076251   000029347007572020011520200228320036739978330000002347785610000002034770332280522007574420503673997833000000000000  000   42    00070435947709076251PASSAGEIRO
2100000000479020200114207570PREF. DE: MA - CAXIAS                   CXA0078652201911111020PCA PANTHEON                                                LWH4762MA122161-SAMTGM/CELTA                                     PARTICULAR                    AUTOMOVEL       PRATA     00000000JAIEL FERREIRA ARAUJO                       R TEOFILO DIAS NR. 1467                 - CENTRO                                65600010CAXIAS              MAESTACIONAR EM DESACORDO C/REGULAMENTACAO-PONTO OU 181 * XVII         00000000055413   000019523007572020011520200228320036739979100000001561885630000001056180332280022007574420503673997910600000000000  000   43    00050435947991355413PASSAGEIRO
2100000000479020200114207570PREF. DE: MA - CAXIAS                   CXA0078651201911111005AV DA RODOVIARIA                                            OJD6987MA122161-SAMTFIAT/PALIO ATTRACTIV 1.0                     PARTICULAR                    AUTOMOVEL       PRETA     00000000DEUSDETE SILVA                              RUA 04 QD 24 NR. 23                     - COHAB                                 65600000CAXIAS              MAESTAC. EM DESACORDO C/ A REGULAMENTACAO ESPECIFICA181 * XVII         00000000055411   000019523007572020011520200228320036739980510000001561885650000001856180332280022007574420503673998051800000000000  000   44    00050435948763055411PASSAGEIRO
2100000000479020200114207570PREF. DE: MA - CAXIAS                   CXA0078308201911111040RUA MENINO DEUS                                             NWW9204MA301942-SAMTHONDA/POP100                                 PARTICULAR                    MOTOCICLETA     PRETA     00000000JACIANE OLIVEIRA DA SILVA GOMES             AV PIRAJA NR. 2210                      - PIRAJA                                65600000CAXIAS              MACOND. MOTOC/MOTON./CICLOM TRANSPORTANDO/PASSAG.S/C244 * II           00000000070481   000029347007572020011520200228320036739981390000002347785620000002934770332280522007574420503673998139100000000000  000   45    00070435948987070481PASSAGEIRO
2100000000479020200114207570PREF. DE: MA - CAXIAS                   CXA0078307201911111037RUA MENINO DEUS                                             PSW1570MA301942-SAMTHONDA/NXR 160 BROS                           PARTICULAR                    MOTOCICLETA     BRANCA    00000000WATHILLA DOS SANTOS SANTANA                 TV BOM JESUS DOS PASSOS NR. 1294        - CASTELO BRANCO                        65604130CAXIAS              MACOND. MOTOCICLETA/MOTONETA/CICLOM S/CAPACETE DE SE244 * I            00000000070301   000029347007572020011520200228320036739982160000002347785650000002634770332280522007574720803673998216700000000000  000   46    00070435949114070301PASSAGEIRO
2100000000479020200114207570PREF. DE: MA - CAXIAS                   CXA0078306201911111032RUA MENINO DEUS                                             OIX0269MA301942-SAMTHONDA/NXR150 BROS ES                         PARTICULAR                    MOTOCICLETA     PRETA     00000000DILMAR DOS SANTOS GOES                      RUA SAO FRANCISCO NR. 860               - CAMPO DE BELEM                        65600000CAXIAS              MACOND. MOTOC/MOTON./CICLOM TRANSPORTANDO/PASSAG.S/C244 * II           00000000070481   000029347007572020011520200228320036739983030000002347785640000002734770332280522007574420503673998303300000000000  000   47    00070435949314270481PASSAGEIRO
2100000000479020200114207570PREF. DE: MA - CAXIAS                   CXA0077944201911111020PCA PANTHEON                                                NHC6682MA306051-SAMTNISSAN/FRONTIER 4X4 XE                       PARTICULAR                    CAMINHONETE     PRETA     00000000ANTONIO BEZERRA DE SOUSA                    ESTRADA DA MATA QD 8 NR. NR 05          - SANTA EFIGENIA                        65045000SAO LUIS            MAESTACIONAR EM DESACORDO C/REGULAMENTACAO-PONTO OU 181 * XVII         00000000055413   000019523007572020011520200228320036739984800000001561885660000001756180332280022007574420503673998480900000000000  000   48    00050435949501355413ESPECIAL
2100000000479020200114207570PREF. DE: MA - CAXIAS                   CXA0078371201911120810RUA SAO BENEDITO                                            OXY5349MA122211-SAMTHONDA/CG 125 FAN ES                          PARTICULAR                    MOTOCICLETA     PRETA     00000000MANOEL A DOS SANTOS A DE MORAIS             RUA SAO JOSE NR. 1234                   - BACURIZEIRO                           65600000CAXIAS              MACOND. MOTOC/MOTON./CICLOM TRANSPORTANDO/PASSAG.S/C244 * II           00000000070481   000029347007572020011520200228320036739985680000002347785620000002934770332280522007574420503673998568100000000000  000   49    00070435949649470481PASSAGEIRO
2100000000479020200114207570PREF. DE: MA - CAXIAS                   CXA0078627201911120718RUA SENADOR COSTA RODRIGUES                                 PIJ5795MA306431-SAMTRENAULT/LOGAN DYNA 16 M                      PARTICULAR                    AUTOMOVEL       PRATA     00000000NAJLA CRISTINA SOUSA MAGALHAES              RUA ANICETO CRUZ NR. 716                - PONTE                                 65609900CAXIAS              MADEIXAR O CONDUTOR DE USAR O CINTO E SEGURANCA     167                00000000051851   000019523007572020011520200228320036739986450000001561885610000001256180332280022007574720803673998645700000000000  000   50    00050435949782251851PASSAGEIRO
2100000000479020200114207570PREF. DE: MA - CAXIAS                   CXA0078630201911120722RUA SENADOR COSTA RODRIGUES                                 NHO1803MA306431-SAMTHONDA/CG 125 FAN                             PARTICULAR                    MOTOCICLETA     PRETA     00000000RAIMUNDO NONATO MARTINS                     III TV VILA ARIAS NR. N-607             - VILA ARIAS                            65600000CAXIAS              MATRANSIT. P/ CONTRAMAO EM VIAS C/ SENT. UNICO      186 * II           00000000057380   000029347007572020011520200228320036739987220000002347785650000002634770332280522007574420503673998722400000000000  000   51    00070435949924857380PASSAGEIRO
2100000000479020200114207570PREF. DE: MA - CAXIAS                   CXA0078622201911111512PCA CANDIDO MENDES                                          LVR7088MA306431-SAMTGM/CLASSIC LIFE                              PARTICULAR                    AUTOMOVEL       PRETA     00000000JOSAFA FELINTO COSTA                        II TV STA LUZIA NR. 439                 - TRIZIDELA                             65600000CAXIAS              MADEIXAR O CONDUTOR DE USAR O CINTO E SEGURANCA     167                00000000051851   000019523007572020011520200228320036739988000000001561885620000001156180332280022007574720803673998800800000000000  000   52    00050435950235451851PASSAGEIRO
2100000000479020200114207570PREF. DE: MA - CAXIAS                   CXA0078631201911120735RUA SAO BENEDITO                                            JGQ5000MA306431-SAMTVW/GOL 1.0                                   PARTICULAR                    AUTOMOVEL       VERMELHA  00000000ANTONIO MARCOS COSTA DAMASCENO              AVENIDA 01 NR. 2051                     - NOVA CAXIAS                           65600000CAXIAS              MAAVANCAR SINAL VERMELHO DO SEMAFORO                208                00000000060501   000029347007572020011520200228320036739989970000002347785630000002834770332280522007574420503673998997200000000000  000   53    00070435950912060501PASSAGEIRO
2100000000479020200114207570PREF. DE: MA - CAXIAS                   CXA0078551201911131450RUA CEL LIBANIO LOBO                                        OXZ4537MA122131-SAMTHONDA/CG150 FAN ESDI                         PARTICULAR                    MOTOCICLETA     VERMELHA  00000000ANA MEIRE SILVA SOUSA                       R MIRANDA NR. 1158                      - VL ALECRIM                            65600010CAXIAS              MACOND. MOTOC/MOTON./CICLOM TRANSPORTANDO/PASSAG.S/C244 * II           00000000070481   000029347007572020011520200228320036739990280000002347785660000002534770332280522007574420503673999028500000000000  000   54    00070436184914570481PASSAGEIRO
2100000000479020200114207570PREF. DE: MA - CAXIAS                   CXA0078552201911131505AV GETULIO VARGAS                                           OJG0705MA122131-SAMTHONDA/BIZ 125 ES                             PARTICULAR                    MOTONETA        VERMELHA  00000000RUBENITA RIBEIRO CASTRO                     RUA PRES MEDICE NR. 1860                - CENTRO                                65921000CIDELANDIA          MAAVANCAR SINAL VERMELHO DO SEMAFORO                208                00000000060501   000029347007572020011520200228320036739991050000002347785620000002934770332280522007574420503673999105100000000000  000   55    00070436185049660501PASSAGEIRO
2100000000479020200114207570PREF. DE: MA - CAXIAS                   CXA0078555201911131710RUA 01 DE AGOSTO                                            OXU6175MA123611-SAMTHONDA/POP100                                 PARTICULAR                    MOTOCICLETA     PRETA     00000000MEIRE PIMENTEL CORREIA MESQUITA             RUA PRINCESA ISABEL NR. 1661            - CASTELO BRANCO                        65600000CAXIAS              MACOND. MOTOC/MOTON./CICLOM TRANSPORTANDO/PASSAG.S/C244 * II           00000000070481   000029347007572020011520200228320036739992920000002347785680000002334770332280522007574420503673999292700000000000  000   56    00070436185402570481PASSAGEIRO
2100000000479020200114207570PREF. DE: MA - CAXIAS                   CXA0077145201911131040AV OTAVIO PASSOS                                            NNG0250MA122061-SAMTHONDA/CG150 TITAN MIX EX                     PARTICULAR                    MOTOCICLETA     PRETA     00000000MARIA DO P SOCORRO A DA SILVA               AV 07 NR. 2                             QD 25 - CJR COHAB                       65600000CAXIAS              MAESTAC. EM LOCAL/HORARIO PROIBIDO ESPECIFIC. P/SINA181*XVIII          00000000055500   000013016007572020011520200228320036739993700000001041285670000001604120332280922007574420503673999370100000000000  000   57    00040436186177355500PASSAGEIRO
2100000000479020200114207570PREF. DE: MA - CAXIAS                   CXA0077144201911131035AV OTAVIO PASSOS                                            OIV5588MA122061-SAMTHONDA/BIZ 125 ES                             PARTICULAR                    MOTONETA        PRETA     00000000ANA PAULA DE CASTRO ARAUJO                  RUA ARARAS QD B NR. 35                  - SABIA                                 65607610CAXIAS              MAESTAC. EM LOCAL/HORARIO PROIBIDO ESPECIFIC. P/SINA181*XVIII          00000000055500   000013016007572020011520200228320036739994570000001041285620000001104120332280922007574420503673999457600000000000  000   58    00040436186266455500PASSAGEIRO
2100000000479020200114207570PREF. DE: MA - CAXIAS                   CXA0077149201911131020PCA CANDIDO MENDES                                          OXW1459MA122061-SAMTHONDA/BIZ 125 ES                             PARTICULAR                    MOTONETA        VERMELHA  00000000FRANCIS DALVA MAIA DOS SANTOS               RUA ERNESTO GEISEL NR. 736              - SALOBRO                               65600000CAXIAS              MACOND. MOTOC/MOTON./CICLOM TRANSPORTANDO/PASSAG.S/C244 * II           00000000070481   000029347007572020011520200228320036739995340000002347785630000002834770332280522007574420503673999534200000000000  000   59    00070436186351270481PASSAGEIRO
2100000000479020200114207570PREF. DE: MA - CAXIAS                   CXA0077041201911141120RUA RIO BRANCO                                              PTB9247MA138301-SAMTFIAT/STRADA HD WK CD E                       PARTICULAR                    CAMINHONETE     VERMELHA  00000000ABILEMAR ALVES PINHEIRO                     RUA SEN CLODOMIR CARDOSO NR. 715        - CANGALHEIRO                           65606530CAXIAS              MAESTAC. VEIC. NAS ESQU. E MENOS DE 5M DO ALINHAMENT181 * I            00000000053800   000013016007572020011520200228320036739996110000001041285640000001904120332280922007574420503673999611800000000000  000   60    00040436186403953800ESPECIAL
2100000000479020200114207570PREF. DE: MA - CAXIAS                   CXA0078558201911141605RUA MENINO DEUS                                             PTD8271MA123611-SAMTHONDA/CB 250F TWISTER                        PARTICULAR                    MOTOCICLETA     PRETA     00000000NOADIA MERCIA ALVES COUTINHO                RUA SAO VICENTE DE PAULA NR. 405        - MUTIRAO                               65604840CAXIAS              MACOND. MOTOC/MOTON./CICLOM TRANSPORTANDO/PASSAG.S/C244 * II           00000000070481   000029347007572020011520200228320036739997090000002347785610000002034770332280522007574420503673999709000000000000  000   61    00070436186464070481PASSAGEIRO
2100000000479020200114207570PREF. DE: MA - CAXIAS                   CXA0078559201911141605RUA MENINO DEUS                                             PTM4925MA123611-SAMTHONDA/POP 110I                               PARTICULAR                    MOTOCICLETA     BRANCA    00000000JOAO DE DEUS AGUIAR DA S FILHO              RUA 21 DE ABRIL NR. 1469                - VOLTA REDONDA                         65606350CAXIAS              MACOND. MOTOC/MOTON./CICLOM TRANSPORTANDO/PASSAG.S/C244 * II           00000000070481   000029347007572020011520200228320036739998860000002347785670000002434770332280522007574420503673999886600000000000  000   62    00070436186542670481PASSAGEIRO
2100000000479020200114207570PREF. DE: MA - CAXIAS                   CXA0078560201911141610RUA MENINO DEUS                                             PTM4814MA123611-SAMTHONDA/CG 160 FAN                             PARTICULAR                    MOTOCICLETA     PRETA     00000000RAYLANE DA SILVA FERREIRA                   II TV DAS FLORES NR. 1105               - SERIEMA                               65602561CAXIAS              MACOND. MOTOC/MOTON./CICLOM TRANSPORTANDO/PASSAG.S/C244 * II           00000000070481   000029347007572020011520200228320036739999630000002347785640000002734770332280522007574420503673999963300000000000  000   63    00070436186607470481PASSAGEIRO
2100000000479020200114207570PREF. DE: MA - CAXIAS                   CXA0077945201911141140AV OTAVIO PASSOS                                            PSQ5877MA306051-SAMTHONDA/POP 110I                               PARTICULAR                    MOTOCICLETA     PRETA     00000000BERNARDO NONATO DOS SANTOS                  AV VOLTA REDONDA NR. 1326               - VOLTA REDONDA                         65606730CAXIAS              MAESTAC. EM DESACORDO C/ A REGULAMENTACAO ESPECIFICA181 * XVII         00000000055411   000019523007572020011520200228320036740000540000001561885630000001056180332280022007574420503674000054600000000000  000   64    00050436186635055411PASSAGEIRO
2100000000479020200114207570PREF. DE: MA - CAXIAS                   CXA0078554201911131705RUA 01 DE AGOSTO                                            PSL3223MA123611-SAMTHONDA/POP100                                 PARTICULAR                    MOTOCICLETA     BRANCA    00000000CLAUDIO LUCIANO DA C FIGUEIRAS              R SAO JOSE NR. 1746                     - NAZARE                                65600010CAXIAS              MACOND. MOTOCICLETA/MOTONETA/CICLOM S/CAPACETE DE SE244 * I            00000000070301   000029347007572020011520200228320036740001310000002347785600000002134770332280522007574720803674000131200000000000  000   65    00070436186687270301PASSAGEIRO
2100000000479020200114207570PREF. DE: MA - CAXIAS                   CXA0078236201911180850RUA RIO BRANCO                                              NNE5549MA305941-SAMTHONDA/NXR150 BROS MIX ES                     PARTICULAR                    MOTOCICLETA     LARANJA   00000000ANDREIA ALVES DOS SANTOS                    RUA 1 DE MAIO NR. 08                    QD C13 - VL PARAISO                     65600010CAXIAS              MACOND. MOTOC/MOTON./CICLOM TRANSPORTANDO/PASSAG.S/C244 * II           00000000070481   000029347007572020011520200228320036740002190000002347785660000002534770332280522007574420503674000219500000000000  000   66    00070436193281670481PASSAGEIRO
2100000000479020200114207570PREF. DE: MA - CAXIAS                   CXA0078234201911180841RUA DAS OTICAS                                              OJN3313MA305941-SAMTHONDA/BIZ 125 ES                             PARTICULAR                    MOTONETA        PRETA     00000000CARLOS AUGUSTO O DO NASCIMENTO              RUA MANOEL GONCALVES NR. 1680           - CENTRO                                65600000CAXIAS              MACOND. MOTOCICLETA/MOTONETA/CICLOM S/CAPACETE DE SE244 * I            00000000070301   000029347007572020011520200228320036740003060000002347785680000002334770332280522007574720803674000306000000000000  000   67    00070436193991870301PASSAGEIRO
2100000000479020200114207570PREF. DE: MA - CAXIAS                   CXA0078232201911180831RUA RIO BRANCO                                              AKO7645MA305941-SAMTFORD/F 250 TROPICAL F                        PARTICULAR                    CAMIONETA       VERDE     00000000JONAS ALVES DOS SANTOS                      RUA CONEGO ANDERSON NR. 599             - CENTRO                                65783000SEN. ALEXANDRE COSTAMAESTAC. EM DESACORDO C/ A REGULAMENTACAO ESPECIFICA181 * XVII         00000000055411   000019523007572020011520200228320036740004830000001561885640000001956180332280022007574420503674000483700000000000  000   68    00050436194921255411MISTO
2100000000479020200114207570PREF. DE: MA - CAXIAS                   CXA0078230201911180715PCA PANTHEON                                                PSO2684MA305941-SAMTHONDA/NXR125 BROS ES                         PARTICULAR                    MOTOCICLETA     VERMELHA  00000000ELIVALDO DA SILVA DE SA                     R ONZE NR. 908                          - RES PAMPULHA                          65600200CAXIAS              MACOND. MOTOCICLETA/MOTONETA/CICLOM S/CAPACETE DE SE244 * I            00000000070301   000029347007572020011520200228320036740005600000002347785600000002134770332280522007574720803674000560200000000000  000   69    00070436195130670301PASSAGEIRO
2100000000479020200114207570PREF. DE: MA - CAXIAS                   CXA0077950201911180827RUA MENINO DEUS                                             OJI2185MA306051-SAMTHONDA/POP100                                 PARTICULAR                    MOTOCICLETA     LARANJA   00000000EDILEUSA ALVES DE FREITAS                   RUA SANTA RITA NR. 626                  - PONTE                                 65600000CAXIAS              MACOND. MOTOCICLETA/MOTONETA/CICLOM S/CAPACETE DE SE244 * I            00000000070301   000029347007572020011520200228320036740006480000002347785630000002834770332280522007574720803674000648500000000000  000   70    00070436195195070301PASSAGEIRO
2100000000479020200114207570PREF. DE: MA - CAXIAS                   CXA0077949201911180825MENINO DEUS                                                 OIV5588MA306051-SAMTHONDA/BIZ 125 ES                             PARTICULAR                    MOTONETA        PRETA     00000000ANA PAULA DE CASTRO ARAUJO                  RUA ARARAS QD B NR. 35                  - SABIA                                 65607610CAXIAS              MACOND. MOTOC/MOTON./CICLOM TRANSPORTANDO/PASSAG.S/C244 * II           00000000070481   000029347007572020011520200228320036740007250000002347785620000002934770332280522007574420503674000725100000000000  000   71    00070436195325270481PASSAGEIRO
2100000000479020200114207570PREF. DE: MA - CAXIAS                   CXA0077948201911180820RUA MENINO DEUS                                             OXS5803MA306051-SAMTHONDA/POP100                                 PARTICULAR                    MOTOCICLETA     VERMELHA  00000000REGINALDO FERREIRA DE MELO                  RUA 05 NR. 05                           - VL LUIZAO                             65763000TUNTUM              MACOND. MOTOC/MOTON./CICLOM TRANSPORTANDO/PASSAG.S/C244 * II           00000000070481   000029347007572020011520200228320036740008020000002347785690000002234770332280522007574420503674000802800000000000  000   72    00070436195508570481PASSAGEIRO
2100000000479020200114207570PREF. DE: MA - CAXIAS                   CXA0077946201911180810RUA MENINO DEUS                                             PTO5241MA306051-SAMTHONDA/CG 160 FAN                             PARTICULAR                    MOTOCICLETA     VERMELHA  00000000EDSON LOPES SOARES                          RUA CAJUEIRO NR. 277                    - SAO FRANCISCO                         65365000ZE DOCA             MACOND. MOTOCICLETA/MOTONETA/CICLOM S/CAPACETE DE SE244 * I            00000000070301   000029347007572020011520200228320036740009900000002347785690000002234770332280522007574720803674000990100000000000  000   73    00070436195744470301PASSAGEIRO
2100000000479020200114207570PREF. DE: MA - CAXIAS                   CXA0078374201911180921PCA RUY BARBOSA                                             PTI5321MA122111-SAMTHONDA/NXR 160 BROS                           PARTICULAR                    MOTOCICLETA     BRANCA    00000000FRANCISCO IDERLAN COSTA                     R MANOEL GONCALVES NR. 1610             - CENTRO                                65600010CAXIAS              MACOND. MOTOC/MOTON./CICLOM TRANSPORTANDO/PASSAG.S/C244 * II           00000000070481   000029347007572020011520200228320036740010200000002347785670000002434770332280522007574420503674001020600000000000  000   74    00070436203924470481PASSAGEIRO
2100000000479020200114207570PREF. DE: MA - CAXIAS                   CXA0078373201911180820RUA MENINO DEUS                                             OJQ3501MA122111-SAMTYAMAHA/T115 CRYPTON K                        PARTICULAR                    MOTONETA        AZUL      00000000SANDRA DE MORAIS SILVA                      LG SAO JOAO NR. 773                     - VL SAO JOAO                           65600000CAXIAS              MACOND. MOTOC/MOTON./CICLOM TRANSPORTANDO/PASSAG.S/C244 * II           00000000070481   000029347007572020011520200228320036740011080000002347785600000002134770332280522007574420503674001108900000000000  000   75    00070436204198270481PASSAGEIRO
2100000000479020200114207570PREF. DE: MA - CAXIAS                   CXA0078372201911180812RUA MENINO DEUS                                             OJQ0457MA122111-SAMTHONDA/BIZ 125 ES                             PARTICULAR                    MOTONETA        PRETA     00000000MARIA ZULENE MONTEIRO PINTO                 RUA MARCIA MARINHO NR. 401              - JOSE CASTRO                           65600000CAXIAS              MACOND. MOTOC/MOTON./CICLOM TRANSPORTANDO/PASSAG.S/C244 * II           00000000070481   000029347007572020011520200228320036740012950000002347785650000002634770332280522007574420503674001295400000000000  000   76    00070436204487670481PASSAGEIRO
3000075000000000075
