1*NIPI209610202002040039582020020400000000000000
2100000000395820200204209610PREF. DE: MA - ACAILANDIA               ACA0032411201912161440R.DUQUE DE CAXIAS N.1410                                    PSC7353MA3057       FIAT/SIENA ESSENCE 1.6                       PARTICULAR                    AUTOMOVEL       BRANCA    00000000TERESINHA BARBOSA PASSOS                    RUA TROPICAL NR. N 11                   QD 14 LT 4 - JACU                       65930000ACAILANDIA          MATRANSIT. P/ CONTRAMAO EM VIAS C/ SENT. UNICO      186 * II           00000000057380   000029347009612020020520200320320036764958590000002347785650000002634770332200332009614420103676495859500000000000  000   2     00070441368241657380PASSAGEIRO
2100000000395820200204209610PREF. DE: MA - ACAILANDIA               ACA0032412201912161533AV.TACITO CALDAS N.101, CENTRO                              PSD8403MA3057       FIAT/UNO WAY 1.0                             PARTICULAR                    AUTOMOVEL       BRANCA    00000000FRANCISCO TAYLON SOUSA CARVALHO             RUA 13 DE MAIO NR. 369                  - CENTRO                                65922000JOAO LISBOA         MADIR.VEIC. UTILIZANDO-SE DE TELEFONE CELULAR       252 * VI           00000000073662   000013016009612020020520200320320036764959360000001041285630000001004120332200732009614720403676495936100000000000  000   3     00040441368533473662PASSAGEIRO
2100000000395820200204209610PREF. DE: MA - ACAILANDIA               ACA0033130201912131110R.DUQUE DE CAXIAS N.1011, CENT                              PTL5700MA3165       VW/13.190 CRM 4X2 4P                         ALUGUEL                       CAMINHAO        BRANCA    00000000WR TRANSPORTES DE CARGAS LTDA ME            R GOIAS NR. 509                         - MARANHAOM NOVO                        65903060IMPERATRIZ          MAESTACIONAR AO LADO DE OUTRO VEICULO EM FILA DUPLA 181 * XI           00000000054870   000019523009612020020520200320320036764960770000001561885690000001456180332200832009614420103676496077300000000000  000   4     00050441368999254870ESPECIAL
2100000000395820200204209610PREF. DE: MA - ACAILANDIA               ACA0033131201912131130R.DR. GERVASIO N.693, CENTRO                                OXV7499MA3165       FIAT/STRADA WORKING CD                       PARTICULAR                    CAMINHONETE     VERMELHA  00000000RAYLLA RODRIGUES OLIVEIRA                   RUA SAO FCO NR. NR 02                   QD 08 - VL BOM JARDIM                   65930000ACAILANDIA          MAESTACIONAR AO LADO DE OUTRO VEICULO EM FILA DUPLA 181 * XI           00000000054870   000019523009612020020520200320320036764961540000001561885660000001756180332200832009614420103676496154000000000000  000   5     00050441369349354870ESPECIAL
2100000000395820200204209610PREF. DE: MA - ACAILANDIA               ACA0033208201912191536AV.TACITO CALDAS N.111, CENTRO                              PTJ0086MA3154       FORD/F 4000 P                                PARTICULAR                    CAMINHAO        PRATA     00000000RDC CONST E EMPREEND EIRELI                 RUA GUANABARA NR. NR91                  - TRES PODERES                          65903040IMPERATRIZ          MAESTACIONAR AO LADO DE OUTRO VEICULO EM FILA DUPLA 181 * XI           00000000054870   000019523009612020020520200320320036764962310000001561885620000001156180332200832009614420103676496231600000000000  000   6     00050441369843654870CARGA
2100000000395820200204209610PREF. DE: MA - ACAILANDIA               ACA0033206201912191456R.SAO FRANCISCO C/R.MARANHAO                                OJA6030MA3154       HONDA/CG150 FAN ESDI                         PARTICULAR                    MOTOCICLETA     VERMELHA  00000000EDIMAR FERREIRA VIANA                       RUA GIL GALLET NR. N 21                 - NOVA ACAILANDIA                       65930000ACAILANDIA          MAAVANCAR SINAL VERMELHO DO SEMAFORO                208                00000000060501   000029347009612020020520200320320036764963190000002347785690000002234770332200332009614420103676496319900000000000  000   7     00070441370296460501PASSAGEIRO
2100000000395820200204209610PREF. DE: MA - ACAILANDIA               ACA0033205201912191436AV.DORGIVAL FRT.TEND.MODAS                                  PSV0475MA3154       I/TOYOTA HILUX CSLSTM4FD                     PARTICULAR                    CAMINHONETE     BRANCA    00000000ARACIANO DOS SANTOS PEREIRA                 RUA MARLY SARNEY NR. 1279               - CENTRO                                65930000ACAILANDIA          MAESTACIONAR AO LADO DE OUTRO VEICULO EM FILA DUPLA 181 * XI           00000000054870   000019523009612020020520200320320036764964060000001561885600000001356180332200832009614420103676496406400000000000  000   8     00050441370729054870CARGA
2100000000395820200204209610PREF. DE: MA - ACAILANDIA               ACA0033204201912191034AV.TACITO CALDAS N.60, CENTRO                               HOW4681MA3154       VW/GOL 16V                                   PARTICULAR                    AUTOMOVEL       CINZA     00000000MANOEL AQUINO RIBEIRO                       RUA CASTELO BRANCO NR. 778              - CENTRO                                65930000ACAILANDIA          MAESTACIONAR NA CONTRAMAO DE DIRECAO                181 * XV           00000000055250   000013016009612020020520200320320036764965830000001041285650000001804120332200732009614420103676496583000000000000  000   9     00040441371161055250PASSAGEIRO
2100000000395820200204209610PREF. DE: MA - ACAILANDIA               ACA0032548201912181100AV.TACITO CALDAS C/D.DE CAXIAS                              OJB8028MA3154       HONDA/CG150 FAN ESDI                         PARTICULAR                    MOTOCICLETA     PRETA     00000000JUCILENE LIMA SILVA                         RUA VIENA NR. 77A                       - A FERREIRA II                         65930000ACAILANDIA          MAAVANCAR SINAL VERMELHO DO SEMAFORO                208                00000000060501   000029347009612020020520200320320036764966600000002347785660000002534770332200332009614420103676496660600000000000  000   10    00070441372330960501PASSAGEIRO
2100000000395820200204209610PREF. DE: MA - ACAILANDIA               ACA0032549201912181101AV.TACITO CLADAS, CENTRO                                    OJB8028MA3154       HONDA/CG150 FAN ESDI                         PARTICULAR                    MOTOCICLETA     PRETA     00000000JUCILENE LIMA SILVA                         RUA VIENA NR. 77A                       - A FERREIRA II                         65930000ACAILANDIA          MACOND. MOTOCICLETA/MOTONETA/CICLOM S/CAPACETE DE SE244 * I            00000000070301   000029347009612020020520200320320036764967480000002347785660000002534770332200332009614720403676496748900000000000  000   11    00070441373169770301PASSAGEIRO
2100000000395820200204209610PREF. DE: MA - ACAILANDIA               ACA0032547201912181039R.RIO GRANDE, CENTRO                                        PTJ5258MA3154       HONDA/PCX 150 DLX                            PARTICULAR                    MOTONETA        MARROM    00000000LIVIA RODRIGUES Q FERRAZ                    RUA GONACCALVES DIAS NR. N 542          - CENTRO                                65900210IMPERATRIZ          MATRANSIT. P/ CONTRAMAO EM VIAS C/ SENT. UNICO      186 * II           00000000057380   000029347009612020020520200320320036764968250000002347785650000002634770332200332009614420103676496825500000000000  000   12    00070441373756357380PASSAGEIRO
2100000000395820200204209610PREF. DE: MA - ACAILANDIA               ACA0032546201912161527R.DORGIVAL PINHEIRO N.1134                                  PTL7215MA3154       FIAT/SIENA ATTRACTIV 1.4                     PARTICULAR                    AUTOMOVEL       PRATA     00000000RAIMUNDA GOMES ARAUJO                       RUA J DOS REIS FEITOSA NR. 538          - CENTRO                                65939000ITINGA DO MARANHAO  MAESTACIONAR AO LADO DE OUTRO VEICULO EM FILA DUPLA 181 * XI           00000000054870   000019523009612020020520200320320036764969020000001561885680000001556180332200832009614420103676496902200000000000  000   13    00050441374793354870PASSAGEIRO
2100000000395820200204209610PREF. DE: MA - ACAILANDIA               ACA0033159201912191117R. DORGIVAL PINHEIRO N. 23                                  OJM1959MA3088       VW/GOL 1.0 GIV                               PARTICULAR                    AUTOMOVEL       PRATA     00000000DOUGLAS FERREIRA DE BRITO                   RUA SAO LUIZ NR. 386                    - CENTRO                                65930000ACAILANDIA          MAESTACIONAR AO LADO DE OUTRO VEICULO EM FILA DUPLA 181 * XI           00000000054870   000019523009612020020520200320320036764970430000001561885600000001356180332200832009614420103676497043400000000000  000   14    00050441374933254870PASSAGEIRO
2100000000395820200204209610PREF. DE: MA - ACAILANDIA               ACA0033157201912190907R.DORGIVAL PINHEIRO N.26                                    NWS8767MA3088       CHEVROLET/CLASSIC LS                         PARTICULAR                    AUTOMOVEL       PRATA     00000000RAIMUNDO NONATO COSTA SILVA                 RUA VALE DO RIO DOCE NR. NR09           QD09 LT09 - PLANO DA SERRA              65930000ACAILANDIA          MAESTACIONAR AO LADO DE OUTRO VEICULO EM FILA DUPLA 181 * XI           00000000054870   000019523009612020020520200320320036764971200000001561885660000001756180332200832009614420103676497120000000000000  000   15    00050441375136154870PASSAGEIRO
2100000000395820200204209610PREF. DE: MA - ACAILANDIA               ACA0033156201912171448R.DUQUE DE CAXIAS N.948, CENTR                              PSJ8729MA3088       HONDA/BIZ 125 EX                             PARTICULAR                    MOTONETA        PRETA     00000000JOSIVANIA MOURA DE PINHO                    R N CASA 12 A QD 36 NR.                 - JARDIM DE ALAH                        65930000ACAILANDIA          MAESTAC. EM LOCAL/HORARIO PROIBIDO ESPECIFIC. P/SINA181*XVIII          00000000055500   000013016009612020020520200320320036764972080000001041285680000001504120332200732009614420103676497208300000000000  000   16    00040441375341055500PASSAGEIRO
2100000000395820200204209610PREF. DE: MA - ACAILANDIA               ACA0033154201912171000RUA CEARA N.521, CENTRO                                     OJL3618MA3088       HONDA/CG150 FAN ESDI                         PARTICULAR                    MOTOCICLETA     PRETA     00000000CARLECY GOMES MEDEIROS                      RUA 13 DE JUNHO NR. 945                 - CENTRO                                65930000ACAILANDIA          MATRANSIT. P/ CONTRAMAO EM VIAS C/ SENT. UNICO      186 * II           00000000057380   000029347009612020020520200320320036764973950000002347785680000002334770332200332009614420103676497395800000000000  000   17    00070441375500657380PASSAGEIRO
2100000000395820200204209610PREF. DE: MA - ACAILANDIA               ACA0033153201912191021R. MARANHAO N.1048, CENTRO                                  PTF2764MA3088       CHEVROLET/ONIX 1.4MT LT                      PARTICULAR                    AUTOMOVEL       PRATA     00000000SUZIANE MELO MIRANDA                        RUA LUIS ALFREDO NR. 18                 - NV ACAILANDIA 2                       65930000ACAILANDIA          MADIR.VEIC. UTILIZANDO-SE DE TELEFONE CELULAR       252 * VI           00000000073662   000013016009612020020520200320320036764974720000001041285670000001604120332200732009614720403676497472500000000000  000   18    00040441375701773662PASSAGEIRO
2100000000395820200204209610PREF. DE: MA - ACAILANDIA               ACA0033152201912191019R.RIO GRANDE C/R.DORGIVAL                                   HJG4478MA3088       FIAT/PALIO FIRE FLEX                         PARTICULAR                    AUTOMOVEL       PRATA     00000000EDVALDO PEREIRA DA SILVA                    RUA STA CATARINA NR. 431                - VL TANCREDO                           65930000ACAILANDIA          MAPARAR SOBRE FAIXA DE PEDESTRE NA MUDDANCA DE SINAL183                00000000056731   000013016009612020020520200320320036764975500000001041285630000001004120332200732009614420103676497550800000000000  000   19    00040441376170756731PASSAGEIRO
2100000000395820200204209610PREF. DE: MA - ACAILANDIA               ACA0033162201912191519R.BOM JESUS N.236, CENTRO                                   OJG7119MA3088       HYUNDAI/HB20 1.6M 1.6M                       PARTICULAR                    AUTOMOVEL       PRETA     00000000FELIPE ARAUJO DE CARVALHO                   RUA 15 DE NOVEMBRO NR. N 329            - LARANJEIRAS                           65930000ACAILANDIA          MATRANSIT. P/ CONTRAMAO EM VIAS C/ SENT. UNICO      186 * II           00000000057380   000029347009612020020520200320320036764976370000002347785630000002834770332200332009614420103676497637300000000000  000   20    00070441376732257380PASSAGEIRO
2100000000395820200204209610PREF. DE: MA - ACAILANDIA               ACA0032984201912171430R.DUQUE DE CAXIAS N.948, CENTR                              NXA8177MA7763       HONDA/NXR150 BROS ES                         PARTICULAR                    MOTOCICLETA     PRETA     00000000LUCIANO ANTONIO DA SILVA                    AVENIDA JOAO CASTELO NR. 59             - PEQUIA                                65930000ACAILANDIA          MAESTAC. EM LOCAL/HORARIO PROIBIDO ESPECIFIC. P/SINA181*XVIII          00000000055500   000013016009612020020520200320320036764977140000001041285650000001804120332200732009614420103676497714000000000000  000   21    00040441377107955500PASSAGEIRO
2100000000395820200204209610PREF. DE: MA - ACAILANDIA               ACA0033163201912191602R.MARANHAO C/R.SAO FRANCISCO                                PSX2894MA3088       HONDA/CG 160 FAN ESDI                        ALUGUEL                       MOTOCICLETA     AMARELA   00000000EDSON ALMEIDA CORREIA                       QD 5 NR. 11                             - VL BOM JARDIM 2                       65930000ACAILANDIA          MAAVANCAR SINAL VERMELHO DO SEMAFORO                208                00000000060501   000029347009612020020520200320320036764978010000002347785650000002634770332200332009614420103676497801500000000000  000   22    00070441383457760501PASSAGEIRO
2100000000395820200204209610PREF. DE: MA - ACAILANDIA               ACA0032938201912170941AV.TACITO CALDAS N.362, CENTRO                              JWB6749MA3179       FIAT/STRADA FIRE CE FLEX                     PARTICULAR                    CAMINHONETE     BRANCA    00000000INFO D COMUNICACAO VISUAL LTDA              RUA BOM JESUS NR. 588                   - CENTRO                                65930000ACAILANDIA          MAESTACIONAR NA CONTRAMAO DE DIRECAO                181 * XV           00000000055250   000013016009612020020520200320320036764979890000001041285630000001004120332200732009614420103676497989800000000000  000   23    00040441383993555250CARGA
2100000000395820200204209610PREF. DE: MA - ACAILANDIA               ACA0032947201912191430R.DORGIVAL FRT.BANCO NORDESTE                               NWZ9570MA3179       FIAT/UNO VIVACE 1.0                          PARTICULAR                    AUTOMOVEL       VERMELHA  00000000ANDREIA OLIVEIRA MESQUITA                   R DAS LARANJEIRAS QD 26 NR. LT 01       - JD GLORIA CITY                        65930000ACAILANDIA          MAESTAC. EM LOCAL/HORARIO PROIBIDO ESPECIFIC. P/SINA181*XVIII          00000000055500   000013016009612020020520200320320036764980100000001041285670000001604120332200732009614420103676498010200000000000  000   24    00040441384445955500PASSAGEIRO
2100000000395820200204209610PREF. DE: MA - ACAILANDIA               ACA0032946201912181528R.CASTELO BRANCO, CENTRO                                    OXR9100MA3179       HONDA/BIZ 125 EX                             PARTICULAR                    MOTONETA        PRETA     00000000VALDEANE SANTOS CARVALHO                    QD 12 NR. LT 05                         - VILA ILDEMAR                          65930000ACAILANDIA          MATRANSIT. P/ CONTRAMAO EM VIAS C/ SENT. UNICO      186 * II           00000000057380   000029347009612020020520200320320036764981070000002347785660000002534770332200332009614420103676498107600000000000  000   25    00070441385496957380PASSAGEIRO
2100000000395820200204209610PREF. DE: MA - ACAILANDIA               ACA0032945201912181520AV.TACITO CALDAS N.291, CENTRO                              HOM8476MA3179       M.BENZ/L 1618                                PARTICULAR                    CAMINHAO        VERDE     00000000MATEUS PARTICIPACOES E LOC LTDA             AV GETULIO VARGAS NR. 405               - STOR INDUSTRIAL                       65800000BALSAS              MAESTACIONAR NA CONTRAMAO DE DIRECAO                181 * XV           00000000055250   000013016009612020020520200320320036764982840000001041285680000001504120332200732009614420103676498284300000000000  000   26    00040441387475755250CARGA
2100000000395820200204209610PREF. DE: MA - ACAILANDIA               ACA0032944201912181458R.FORTALEZA N.157, CENTRO                                   PSN3310MA3179       VW/NOVO FOX CL MB                            ALUGUEL                       AUTOMOVEL       BRANCA    00000000LINCOLN OLIVEIRA FERRAZ                     AV CONTORNO NR. 03                      - JD GLORIA                             65930000ACAILANDIA          MAENT./SAIR DE FILAS DE VEIC. EST. S/DAR PREFER. A P217                00000000062030   000013016009612020020520200320320036764983610000001041285640000001904120332200732009614420103676498361900000000000  000   27    00040441389979262030PASSAGEIRO
2100000000395820200204209610PREF. DE: MA - ACAILANDIA               ACA0032943201912181508AV.TACITO CALDAS N.371, CENTRO                              PTQ3008MA3179       HYUNDAI/HB20 16M VISION                      PARTICULAR                    AUTOMOVEL       BRANCA    00000000SOLANGE DA SILVA SANTOS                     RUA BRASILIA NR. 01                     - BARRA AZUL                            65930000ACAILANDIA          MAESTACIONAR NA CONTRAMAO DE DIRECAO                181 * XV           00000000055250   000013016009612020020520200320320036764984490000001041285670000001604120332200732009614420103676498449200000000000  000   28    00040441390074055250PASSAGEIRO
2100000000395820200204209610PREF. DE: MA - ACAILANDIA               ACA0032942201912171048R.RIO DE JANEIRO N.150, CENTRO                              JTE7809MA3179       FIAT/UNO ELECTRONIC                          PARTICULAR                    AUTOMOVEL       CINZA     00000000VALTER DE OLIVEIRA LIMA                     RUA CASTELO BRANCO NR. 807              - BACURI                                65900000IMPERATRIZ          MAESTACIONAR NA CONTRAMAO DE DIRECAO                181 * XV           00000000055250   000013016009612020020520200320320036764985260000001041285620000001104120332200732009614420103676498526700000000000  000   29    00040441390169055250PASSAGEIRO
2100000000395820200204209610PREF. DE: MA - ACAILANDIA               ACA0032941201912171047R.RIO DE JANEIRO N.157, CENTRO                              NTT4774MA3179       I/FIAT SIENA ATTRACT 1.4                     PARTICULAR                    AUTOMOVEL       PRETA     00000000LINDOJONHSON ANTUNES E SILVA                AV SANTA LUZIA NR. NR338                - CENTRO                                65930000ACAILANDIA          MAESTACIONAR NO PASSEIO                             181 * VIII         00000000054521   000019523009612020020520200320320036764986030000001561885600000001356180332200832009614420103676498603400000000000  000   30    00050441390271854521PASSAGEIRO
2100000000395820200204209610PREF. DE: MA - ACAILANDIA               ACA0032940201912170954R.ANITA GARIBALDE FRT.S.SAUDE                               OIV3089MA3179       I/CHEVROLET AGILE LTZ                        PARTICULAR                    AUTOMOVEL       PRETA     00000000JUNIOR COSTA VIEIRA                         RUA DORGIVAL P DE SOUSA NR. 598         - CENTRO                                65930000ACAILANDIA          MAESTACIONAR NA CONTRAMAO DE DIRECAO                181 * XV           00000000055250   000013016009612020020520200320320036764987900000001041285640000001904120332200732009614420103676498790900000000000  000   31    00040441390394355250PASSAGEIRO
2100000000395820200204209610PREF. DE: MA - ACAILANDIA               ACA0032939201912170953R.ANITA GARIBALDE FRT.S.SAUDE                               PTD9294MA3179       VW/NOVO GOL TRACK MCV                        PARTICULAR                    AUTOMOVEL       BRANCA    00000000JOAQUIM CESAR SILVA VIEIRA                  QUADRA 09 NR. LT 21                     - VALE DO ACAI                          65930000ACAILANDIA          MAESTACIONAR NA CONTRAMAO DE DIRECAO                181 * XV           00000000055250   000013016009612020020520200320320036764988780000001041285670000001604120332200732009614420103676498878200000000000  000   32    00040441390516455250PASSAGEIRO
2100000000395820200204209610PREF. DE: MA - ACAILANDIA               ACA0033178201912180950R.BOM JESUS C/R.FORTALEZA                                   PTF0426MA10083      TOYOTA/YARIS HB XLPLUSAT                     PARTICULAR                    AUTOMOVEL       BRANCA    00000000WAGNER FERREIRA DO NASCIMENTO               RUA SAO PAULO NR. N 655                 - CENTRO                                65930000ACAILANDIA          MADIR.VEIC. UTILIZANDO-SE DE TELEFONE CELULAR       252 * VI           00000000073662   000013016009612020020520200320320036764989550000001041285600000001304120332200732009614720403676498955800000000000  000   33    00040441390769873662PASSAGEIRO
2100000000395820200204209610PREF. DE: MA - ACAILANDIA               ACA0033177201912180935R.MARANHAO C/R.SAO FRANCISCO                                PTD9652MA10083      HONDA/CG 160 FAN                             PARTICULAR                    MOTOCICLETA     VERMELHA  00000000FRANCISCO FERREIRA DA SILVA                 ROD BR 010 KM 1200 NR. SN               - PV 1200                               65901000IMPERATRIZ          MAAVANCAR SINAL VERMELHO DO SEMAFORO                208                00000000060501   000029347009612020020520200320320036764990960000002347785600000002134770332200332009614420103676499096000000000000  000   34    00070441391070260501PASSAGEIRO
2100000000395820200204209610PREF. DE: MA - ACAILANDIA               ACA0033184201912191105R.DORGIVAL FRT.BANCO NORDESTE                               OIY3859MA10083      NISSAN/FRONTIER SVATK4X2                     PARTICULAR                    CAMINHONETE     PRETA     00000000LIANA JORGINA MARTINS MINEIRO               R GENERAL ARTUR CARVALHO NR. NR         201 BL 3 - TURU                         65110000SAO JOSE DE RIBAMAR MAESTAC. EM LOCAL/HORARIO PROIBIDO ESPECIFIC. P/SINA181*XVIII          00000000055500   000013016009612020020520200320320036764991730000001041285620000001104120332200732009614420103676499173700000000000  000   35    00040441391398155500ESPECIAL
2100000000395820200204209610PREF. DE: MA - ACAILANDIA               ACA0033182201912191011R.DORGIVAL FRT. LOJA CENTRO                                 OJA7511MA10083      HYUNDAI/HB20 1.0M 1.0 M                      PARTICULAR                    AUTOMOVEL       BRANCA    00000000MARTA REGINA E DOS REIS                     RUA GALDINO CLAUD NR. N 42              - V BOM JARDIM                          65930000ACAILANDIA          MAESTACIONAR EM DESACORDO C/REGULAM-VAGA DE CARGA/DE181 * XVII         00000000055414   000019523009612020020520200320320036764992500000001561885690000001456180332200832009614420103676499250300000000000  000   36    00050441392024455414PASSAGEIRO
2100000000395820200204209610PREF. DE: MA - ACAILANDIA               ACA0033074201912131700R.SAO RAIMUNDO, CENTRO                                      PTI3767MA3055       YAMAHA/YBR150 FACTOR ED                      PARTICULAR                    MOTOCICLETA     VERMELHA  00000000JOAO LOPES DE SOUZA                         QD 192 NR. N 339                        - VL ILDEMAR                            65930000ACAILANDIA          MADIRIGIR S/ATENCAO OU S/OS CUIDADOS INDISPENSAVEIS 169                00000000052070   000008838009612020020520200320320036764993380000000707085670000000870700332200532009614720403676499338600000000000  000   37    00030441392228052070PASSAGEIRO
2100000000395820200204209610PREF. DE: MA - ACAILANDIA               ACA0033070201912131543R.GOIAS SENTIDO SAO PAULO                                   PTO4164MA3055       FIAT/TORO RANCH AT9 D4                       PARTICULAR                    CAMINHONETE     MARROM    00000000ADEMIR DE SOUSA NASCIMENTO                  QUADRA 73 NR. 27                        - VILA ILDEMAR                          65930000ACAILANDIA          MADEIXAR O CONDUTOR DE USAR O CINTO E SEGURANCA     167                00000000051851   000019523009612020020520200320320036764994150000001561885650000001856180332200832009614720403676499415200000000000  000   38    00050441392467351851ESPECIAL
2100000000395820200204209610PREF. DE: MA - ACAILANDIA               ACA0033075201912131715R.DORGIVAL PX LOJA CENTRO                                   OJK2062MA3055       FIAT/PALIO FIRE ECONOMY                      PARTICULAR                    AUTOMOVEL       CINZA     00000000ANA ALVES COSTA                             QD 35 NR. 14                            - VL BOM JARDIM                         65930000ACAILANDIA          MAESTACIONAR AO LADO DE OUTRO VEICULO EM FILA DUPLA 181 * XI           00000000054870   000019523009612020020520200320320036764995020000001561885630000001056180332200832009614420103676499502700000000000  000   39    00050441392622654870PASSAGEIRO
2100000000395820200204209610PREF. DE: MA - ACAILANDIA               ACA0033073201912131608AV.BERNARDO SAYAO, MERCADO                                  OJO7420MA3055       I/RENAULT CLIO EXP1016VH                     PARTICULAR                    AUTOMOVEL       VERMELHA  00000000LUIZ ANTONIO COSTA CORDEIRO                 PQ ICARAI NR 81 NR.                     - AURORA                                65060285SAO LUIS            MADEIXAR O CONDUTOR DE USAR O CINTO E SEGURANCA     167                00000000051851   000019523009612020020520200320320036764996800000001561885640000001956180332200832009614720403676499680100000000000  000   40    00050441392868751851PASSAGEIRO
2100000000395820200204209610PREF. DE: MA - ACAILANDIA               ACA0033072201912131605AV.BERNARDO SAYAO, MERCADO                                  PTG5935MA3055       I/TOYOTA HILUX CDCLEA4JD                     PARTICULAR                    CAMINHONETE     BRANCA    00000000TEREZINHA DA CUNHA DELORGES                 R ANTONIO DE MIRANDA NR. 679            - CENTRO                                65900620IMPERATRIZ          MADEIXAR O CONDUTOR DE USAR O CINTO E SEGURANCA     167                00000000051851   000019523009612020020520200320320036764997670000001561885690000001456180332200832009614720403676499767600000000000  000   41    00050441393035551851ESPECIAL
2100000000395820200204209610PREF. DE: MA - ACAILANDIA               ACA0033071201912131559AV.BERNARDO SAYAO, CENTRO                                   NNI7001MA3055       GM/S10 EXECUTIVE D                           PARTICULAR                    CAMINHONETE     PRATA     00000000JOANILDES SERRA MELONIO                     RUA DO SOL QD 28 NR 06 NR.              VL SAO LUIS - ANJO DA GUARDA            65085215SAO LUIS            MADEIXAR O CONDUTOR DE USAR O CINTO E SEGURANCA     167                00000000051851   000019523009612020020520200320320036764998440000001561885660000001756180332200832009614720403676499844300000000000  000   42    00050441395099251851ESPECIAL
2100000000395820200204209610PREF. DE: MA - ACAILANDIA               ACA0033069201912131147R.JOAO Q. FILHO Q.28 LT.13                                  NMP3778MA3055       GM/ASTRA HB 4P ADVANTAGE                     PARTICULAR                    AUTOMOVEL       PRATA     00000000GLEYTON JHON VERAS SOUZA                    RUA NORTE SUL NR. N 226                 - VL CAPELOZA                           65930000ACAILANDIA          MADEIXAR O CONDUTOR DE USAR O CINTO E SEGURANCA     167                00000000051851   000019523009612020020520200320320036764999210000001561885620000001156180332200832009614720403676499921900000000000  000   43    00050441395507251851PASSAGEIRO
2100000000395820200204209610PREF. DE: MA - ACAILANDIA               ACA0033059201912181051R.SAO RAIMUNDO N.16, CENTRO                                 PSD9532MA3055       CHEV/PRISMA 1.4MT LT                         PARTICULAR                    AUTOMOVEL       BRANCA    00000000ANTONIO PIMENTEL RODRIGUES                  R TOCANTINS NR. N 548                   - BAIXAO                                65930000ACAILANDIA          MAESTACIONAR NA CONTRAMAO DE DIRECAO                181 * XV           00000000055250   000013016009612020020520200320320036765000140000001041285650000001804120332200732009614420103676500014000000000000MA000   44    00040441395599455250PASSAGEIRO
2100000000395820200204209610PREF. DE: MA - ACAILANDIA               ACA0033058201912181050R.SAO RAIMUNDO N.150, CENTRO                                QEJ7777MA3055       I/TOYOTA HILUX CDSR A4FD                     PARTICULAR                    CAMINHONETE     PRATA     00000000NILSON BRITO DE SOUSA                       RUA SANTA LUZIA NR. 798                 - CENTRO                                65930000ACAILANDIA          MAESTACIONAR NA CONTRAMAO DE DIRECAO                181 * XV           00000000055250   000013016009612020020520200320320036765001010000001041285600000001304120332200732009614420103676500101500000000000  000   45    00040441395822555250ESPECIAL
2100000000395820200204209610PREF. DE: MA - ACAILANDIA               ACA0033056201912171025R.SAO RAIMUNDO FRT.RECEITA                                  MXF9265MA3055       CHEVROLET/S10 LTZ DD4                        PARTICULAR                    CAMINHONETE     PRATA     00000000FRANCISCA DA SILVA S ALVES                  R GOIAS NR. NR115                       AP201 - MARANHAO NOVO                   65903060IMPERATRIZ          MAESTACIONAR NA CONTRAMAO DE DIRECAO                181 * XV           00000000055250   000013016009612020020520200320320036765002890000001041285630000001004120332200732009614420103676500289800000000000  000   46    00040441396049155250ESPECIAL
2100000000395820200204209610PREF. DE: MA - ACAILANDIA               ACA0033055201912171042R.RIO DE JANEIRO, 261, CENTRO                               PTI1082MA3055       VW/NOVA SAVEIRO TL MBVS                      PARTICULAR                    CAMINHONETE     BRANCA    00000000BODARO C DE ALIMENTOS LTDA                  RUA DUQUE DE CAXIAS NR. N1269           - CENTRO                                65930000ACAILANDIA          MAESTACIONAR NA CONTRAMAO DE DIRECAO                181 * XV           00000000055250   000013016009612020020520200320320036765003660000001041285690000001404120332200732009614420103676500366400000000000  000   47    00040441396201055250CARGA
2100000000395820200204209610PREF. DE: MA - ACAILANDIA               ACA0033054201912170954R.ANITA GARIBALDE FRT.S.SAUDE                               NXA7758MA3055       I/FIAT SIENA EL FLEX                         PARTICULAR                    AUTOMOVEL       PRATA     00000000CLAUDETE RODRIGUES SILVA                    RUA M NR. CS 03                         QD 59 - JARDIM DE ALAH                  65930000ACAILANDIA          MAESTACIONAR NA CONTRAMAO DE DIRECAO                181 * XV           00000000055250   000013016009612020020520200320320036765004430000001041285660000001704120332200732009614420103676500443100000000000  000   48    00040441396573655250PASSAGEIRO
2100000000395820200204209610PREF. DE: MA - ACAILANDIA               ACA0033053201912170952R.FORTALEZA, CENTRO                                         PSR0866MA3055       HONDA/POP 110I                               PARTICULAR                    MOTOCICLETA     VERMELHA  00000000KLEBSON SILVA MACIEL                        RUA CAFETEIRA NR. 158                   - COL AGRICOLA                          65393000BURITICUPU          MACOND. MOTO/MOTONETA/CICLOM C/ CRIAN. MENOR DE 7 AN244 * V            00000000070721   000029347009612020020520200320320036765005200000002347785660000002534770332200332009614420103676500520600000000000  000   49    00070441397234170721PASSAGEIRO
2100000000395820200204209610PREF. DE: MA - ACAILANDIA               ACA0033052201912170950R.FORTALEZA, CENTRO                                         PSR0866MA3055       HONDA/POP 110I                               PARTICULAR                    MOTOCICLETA     VERMELHA  00000000KLEBSON SILVA MACIEL                        RUA CAFETEIRA NR. 158                   - COL AGRICOLA                          65393000BURITICUPU          MACOND. MOTOCICLETA/MOTONETA/CICLOM S/CAPACETE DE SE244 * I            00000000070301   000029347009612020020520200320320036765006080000002347785660000002534770332200332009614720403676500608900000000000  000   50    00070441397685170301PASSAGEIRO
2100000000395820200204209610PREF. DE: MA - ACAILANDIA               ACA0033051201912131035R.DR.GERVASIO, LD.CONSTRULANDI                              PTL5700MA3055       VW/13.190 CRM 4X2 4P                         ALUGUEL                       CAMINHAO        BRANCA    00000000WR TRANSPORTES DE CARGAS LTDA ME            R GOIAS NR. 509                         - MARANHAOM NOVO                        65903060IMPERATRIZ          MAESTACIONAR AO LADO DE OUTRO VEICULO EM FILA DUPLA 181 * XI           00000000054870   000019523009612020020520200320320036765007950000001561885600000001356180332200832009614420103676500795400000000000  000   51    00050441398542754870ESPECIAL
2100000000395820200204209610PREF. DE: MA - ACAILANDIA               ACA0033061201912191158R.SAO FRANCISCO C/R.MARANHAO                                PSJ7421MA3055       HONDA/BIZ 125 ES                             PARTICULAR                    MOTONETA        VERMELHA  00000000ROSANA DOS SANTOS OLIVEIRA                  RUA MASSARANDUBA NR. LT 14              QD 20 - NV ACAILANDIA                   65930000ACAILANDIA          MAAVANCAR SINAL VERMELHO DO SEMAFORO                208                00000000060501   000029347009612020020520200320320036765008720000002347785610000002034770332200332009614420103676500872100000000000  000   52    00070441399800660501PASSAGEIRO
2100000000395820200204209610PREF. DE: MA - ACAILANDIA               ACA0033062201912131135R.CANGURU, SENT. R.S.FRANCISCO                              OIZ2037MA3055       HONDA/BIZ 125 ES                             PARTICULAR                    MOTONETA        ROSA      00000000CRISLANY OLIVEIRA DE BRITO                  RUA PAU D ARCO QDA 35 NR.               LOTE 13 - JARDIM GLORIA                 65930000ACAILANDIA          MACOND. MOTOCICLETA/MOTONETA/CICLOM S/CAPACETE DE SE244 * I            00000000070301   000029347009612020020520200320320036765009500000002347785620000002934770332200332009614720403676500950500000000000  000   53    00070441401838270301PASSAGEIRO
2100000000395820200204209610PREF. DE: MA - ACAILANDIA               ACA0033064201912191028R.RIO BRANCO, LADO PROAGRO                                  ONY5138MA3055       FIAT/STRADA WORKING CD                       PARTICULAR                    CAMINHONETE     VERMELHA  00000000SUELY ALMEIDA DOS SANTOS                    RUA IPE NR. LT 04                       QD 11 - JD GLORIA                       65930000ACAILANDIA          MAESTACIONAR NA CONTRAMAO DE DIRECAO                181 * XV           00000000055250   000013016009612020020520200320320036765010900000001041285640000001904120332200732009614420103676501090900000000000  000   54    00040441402161855250ESPECIAL
2100000000395820200204209610PREF. DE: MA - ACAILANDIA               ACA0033065201912191029R.RIO BRANCO, LADO PROAGRO                                  HPX6148MA3055       FIAT/UNO MILLE FIRE FLEX                     PARTICULAR                    AUTOMOVEL       VERMELHA  00000000GILBERTO DA SILVA                           QD 29 NR. 10 A                          - VL BOM JARDIM                         65930000ACAILANDIA          MAESTACIONAR NA CONTRAMAO DE DIRECAO                181 * XV           00000000055250   000013016009612020020520200320320036765011780000001041285670000001604120332200732009614420103676501178200000000000  000   55    00040441402247955250PASSAGEIRO
2100000000395820200204209610PREF. DE: MA - ACAILANDIA               ACA0033066201912191029R.RIO BRANCO, LADO PROAGRO                                  OJH2944MA3055       TOYOTA/ETIOS SD XS                           PARTICULAR                    AUTOMOVEL       PRETA     00000000MARCILANIA SILVA SOUSA BRAGA                AV DOS HOLANDESES N 405 NR. CD G        PARK B JEQUITIBA - CALHAU               65071380SAO LUIS            MAESTACIONAR NA CONTRAMAO DE DIRECAO                181 * XV           00000000055250   000013016009612020020520200320320036765012550000001041285630000001004120332200732009614420103676501255800000000000  000   56    00040441402372655250PASSAGEIRO
2100000000395820200204209610PREF. DE: MA - ACAILANDIA               ACA0033067201912131140R.GOIAS DA R.S.PAULO P/S.LUIS                               PSE5572MA3055       HONDA/NXR160 BROS ESDD                       PARTICULAR                    MOTOCICLETA     PRETA     00000000JOSE SANTANA BEZERRA FILHO                  RUA MARANHAO NR. 957 A                  - CENTRO                                65930000ACAILANDIA          MATRANSIT. P/ CONTRAMAO EM VIAS C/ SENT. UNICO      186 * II           00000000057380   000029347009612020020520200320320036765013320000002347785650000002634770332200332009614420103676501332500000000000  000   57    00070441402410257380PASSAGEIRO
2100000000395820200204209610PREF. DE: MA - ACAILANDIA               ACA0033068201912131143RUA MARANHAO, CENTRO                                        NLB0103MA3055       HONDA/CG 150 SPORT                           PARTICULAR                    MOTOCICLETA     VERMELHA  00000000JOSE DE RIBAMAR ALVES DA SILVA              RUA SAO BENTO NR. N198                  - VL TANCREDO                           65930000ACAILANDIA          MATRANSIT. P/ CONTRAMAO EM VIAS C/ SENT. UNICO      186 * II           00000000057380   000029347009612020020520200320320036765014100000002347785690000002234770332200332009614420103676501410900000000000  000   58    00070441402624557380PASSAGEIRO
3000057000000000057
