1*NATI209610202001140038852020011400000000000000
2000000000388520200114209610PREF. DE: MA - ACAILANDIA               ACA0015091201912241935AV.TACITO CALDAS, CENTRO                                    PSI9872MA858446PM   HONDA/BIZ 100 ES                             PARTICULAR                    MOTONETA        BRANCA    00000000LUIZ BERNARD FIGUEIREDO DA SILVA            RUA CASTELO BRANCO NR. 929              - CENTRO                                65930000ACAILANDIA          MAAVANCAR SINAL VERMELHO DO SEMAFORO                208                00000000060501   0000293470096120200115202002280000000000000000000000000                                                00000000000  000   1     00070446819580060501PASSAGEIRO
2000000000388520200114209610PREF. DE: MA - ACAILANDIA               ACA0015092201912241935AV.TACITO CALDAS, CENTRO                                    PQJ2029MA858446PM   I/VW JETTA HL AE                             PARTICULAR                    AUTOMOVEL       BRANCA    00000000JULIO CESAR DA SILVA                        R PERNAMBUCO NR. N 79                   - JUCARA                                65900500IMPERATRIZ          MAAVANCAR SINAL VERMELHO DO SEMAFORO                208                00000000060501   0000293470096120200115202002280000000000000000000000000                                                00000000000  000   2     00070446819924560501PASSAGEIRO
2000000000388520200114209610PREF. DE: MA - ACAILANDIA               ACA0015093201912241945AV.TACITO CALDAS, CENTRO                                    PTL9379MA858446PM   HONDA/BIZ 125                                PARTICULAR                    MOTONETA        VERMELHA  00000000FERNANDA SUELY DE SOUSA SOARES              RUA 13 DE JUNHO NR. 722                 - CENTRO                                65930000ACAILANDIA          MAAVANCAR SINAL VERMELHO DO SEMAFORO                208                00000000060501   0000293470096120200115202002280000000000000000000000000                                                00000000000  000   3     00070446820188660501PASSAGEIRO
2000000000388520200114209610PREF. DE: MA - ACAILANDIA               ACA0015094201912282355R.TRANSMUNDIAL N.10 CAPELOZA                                OJL9778MA858446PM   HONDA/NXR150 BROS ES                         PARTICULAR                    MOTOCICLETA     VERMELHA  00000000FRANCISCO DAS CHAGAS GOMES                  RUA ALTO BONITO NR. 03                  QD 115 - NV ACAILANDIA                  65930000ACAILANDIA          MACOND. MOTOC/MOTON./CICLOM TRANSPORTANDO/PASSAG.S/C244 * II           00000000070481   0000293470096120200115202002280000000000000000000000000                                                00000000000  000   4     00070446820677270481PASSAGEIRO
2000000000388520200114209610PREF. DE: MA - ACAILANDIA               ACA0015095201912301140AV.ALEXANDRE COSTA PX.QUARTEL                               OJP8513MA858698PM   HONDA/BIZ 125 ES                             PARTICULAR                    MOTONETA        VERMELHA  00000000CRISTIANO WANDERSON SILVA SANTOS            RUA TIRADENTES I NR. N 320              - LARANJEIRAS                           65930000ACAILANDIA          MACOND. MOTOC/MOTON./CICLOM TRANSPORTANDO/PASSAG.S/C244 * II           00000000070481   0000293470096120200115202002280000000000000000000000000                                                00000000000  000   5     00070446821157170481PASSAGEIRO
2000000000388520200114209610PREF. DE: MA - ACAILANDIA               ACA0015096201912301935AV.TACITO CALDAS, CENTRO                                    NNF2421MA858698PM   HONDA/NXR150 BROS MIX ES                     PARTICULAR                    MOTOCICLETA     PRETA     00000000WESLEN SOUSA DE ARAUJO                      AV BERNARDO SAYAO NR. N1173             - LAVA JATO                             65930000ACAILANDIA          MACOND. MOTOC/MOTON./CICLOM TRANSPORTANDO/PASSAG.S/C244 * II           00000000070481   0000293470096120200115202002280000000000000000000000000                                                00000000000  000   6     00070446821454670481PASSAGEIRO
2000000000388520200114209610PREF. DE: MA - ACAILANDIA               ACA0015090201912241935AV.TACITO CALDAS, CENTRO                                    PSI9872MA858446PM   HONDA/BIZ 100 ES                             PARTICULAR                    MOTONETA        BRANCA    00000000LUIZ BERNARD FIGUEIREDO DA SILVA            RUA CASTELO BRANCO NR. 929              - CENTRO                                65930000ACAILANDIA          MAULTRAP. P/ CONTRAMAO VEIC. PARADO EM FILA SINAL LU203 * IV           00000000059591   0001467350096120200115202002280000000000000000000000000                                                00000000000  000   7     00070446821670059591PASSAGEIRO
2000000000388520200114209610PREF. DE: MA - ACAILANDIA               ACA0015089201912231925AV.TACITO CALDAS                                            PSG7030MA858446PM   HONDA/CG150 FAN ESDI                         PARTICULAR                    MOTOCICLETA     VERMELHA  00000000FRANCISCO DE OLIVEIRA FERREIRA              RUA DO SOL NR. 38                       - JD BOA VISTA                          65930000ACAILANDIA          MAULTRAP. P/ CONTRAMAO VEIC. PARADO EM FILA SINAL LU203 * IV           00000000059591   0001467350096120200115202002280000000000000000000000000                                                00000000000  000   8     00070446821883559591PASSAGEIRO
2000000000388520200114209610PREF. DE: MA - ACAILANDIA               ACA0015087201912231925AV.TACITO CALDAS, CENTRO                                    PSG7030MA858446PM   HONDA/CG150 FAN ESDI                         PARTICULAR                    MOTOCICLETA     VERMELHA  00000000FRANCISCO DE OLIVEIRA FERREIRA              RUA DO SOL NR. 38                       - JD BOA VISTA                          65930000ACAILANDIA          MAAVANCAR SINAL VERMELHO DO SEMAFORO                208                00000000060501   0000293470096120200115202002280000000000000000000000000                                                00000000000  000   9     00070446822128360501PASSAGEIRO
2000000000388520200114209610PREF. DE: MA - ACAILANDIA               ACA0015086201912182027AV.TACITO CALDAS, CENTRO                                    PTA5846MA858698PM   HONDA/CG 160 FAN ESDI                        ALUGUEL                       MOTOCICLETA     AMARELA   00000000FRANCISCO LOPES FILHO                       QD 101 NR.                              CASA - VILA ILDEMAR                     65930000ACAILANDIA          MAAVANCAR SINAL VERMELHO DO SEMAFORO                208                00000000060501   0000293470096120200115202002280000000000000000000000000                                                00000000000  000   10    00070446822241760501PASSAGEIRO
2000000000388520200114209610PREF. DE: MA - ACAILANDIA               ACA0017170201912031213RUA SAO PAULO, CENTRO                                       PTB8970MA2430346    HONDA/CG 160 START                           ALUGUEL                       MOTOCICLETA     AMARELA   00000000EDELSON SOUSA FERREIRA                      RUA H QD 18 NR. 29                      - JARDIM DE ALAH                        65930000ACAILANDIA          MATRANSIT. P/ CONTRAMAO EM VIAS C/ SENT. UNICO      186 * II           00000000057380   0000293470096120200115202002280000000000000000000000000                                                05923864567MA000   11    00070446822512257380PASSAGEIRO
3000011000000000011
