1*NIPI207570202001100047822020011000000000000000
2100000000478220200110207570PREF. DE: MA - CAXIAS                   CXA0078254201910301550PCA CANDIDO MENDES                                          HQE3934MA122221-SAMTYAMAHA/XTZ 125E                              PARTICULAR                    MOTOCICLETA     PRETA     00000000MARIA DA CONCEICAO DA C DE MELO             RUA 7 DE SETEMBRO NR. N-612             - CENTRO                                65610000ALDEIAS ALTAS       MACOND. MOTOC/MOTON./CICLOM TRANSPORTANDO/PASSAG.S/C244 * II           00000000070481   000029347007572020011120200224320036736862440000002347785610000002034770332240922007574420503673686244600000000000  000   2     00070435351160270481PASSAGEIRO
2100000000478220200110207570PREF. DE: MA - CAXIAS                   CXA0078256201910301650PCA CANDIDO MENDES                                          PSU0525MA122221-SAMTHONDA/POP 110I                               PARTICULAR                    MOTOCICLETA     PRETA     00000000FERNANDA BEATRIZ C DE SOUSA                 AV MAL COSTA E SILVA NR. 1225           - CASTELO BRANCO                        65604210CAXIAS              MACOND. MOTOC/MOTON./CICLOM TRANSPORTANDO/PASSAG.S/C244 * II           00000000070481   000029347007572020011120200224320036736863210000002347785670000002434770332240922007574420503673686321200000000000  000   3     00070435351594270481PASSAGEIRO
2100000000478220200110207570PREF. DE: MA - CAXIAS                   CXA0078255201910301600PCA CANDIDO MENDES                                          PTH9609MA122221-SAMTHONDA/CG 125I FAN                            PARTICULAR                    MOTOCICLETA     PRETA     00000000ROBSON VIVEIRO CARDOSO                      III TV NOVA VIDA NR. 133                - ITAPECURUZINHO                        65606807CAXIAS              MACOND. MOTOC/MOTON./CICLOM TRANSPORTANDO/PASSAG.S/C244 * II           00000000070481   000029347007572020011120200224320036736864090000002347785600000002134770332240922007574420503673686409500000000000  000   4     00070435351830570481PASSAGEIRO
2100000000478220200110207570PREF. DE: MA - CAXIAS                   CXA0078351201911011010COMPLEXO HOSP. GENTIL FILHO                                 PSL3789MA122111-SAMTHONDA/CG 160 FAN ESDI                        PARTICULAR                    MOTOCICLETA     PRETA     00000000BERNARDINO CESAR COSTA MACHADO              TV DO CAJUEIRO NR. 788                  - SIRIEMA                               65602510CAXIAS              MAESTAC. EM LOCAL/HORARIO PROIBIDO ESPECIFIC. P/SINA181*XVIII          00000000055500   000013016007572020011120200224320036736865960000001041285690000001404120332240322007574420503673686596900000000000  000   5     00040435352444555500PASSAGEIRO
2100000000478220200110207570PREF. DE: MA - CAXIAS                   CXA0075294201910300640AV OTAVIO PASSOS                                            PSZ8597MA301942-SAMTHONDA/BIZ 110I                               PARTICULAR                    MOTONETA        BRANCA    00000000HUYARA FERNANDA A L DA SILVA                RUA MENINO DEUS NR. 102                 - CENTRO                                65600001CAXIAS              MAAVANCAR SINAL VERMELHO DO SEMAFORO                208                00000000060501   000029347007572020011120200224320036736866730000002347785610000002034770332240922007574420503673686673600000000000  000   6     00070435353530760501PASSAGEIRO
2100000000478220200110207570PREF. DE: MA - CAXIAS                   CXA0076849201910300722RUA SENADOR COSTA RODRIGUES                                 NXE1821MA306461-SAMTYAMAHA/FACTOR YBR125 K                       PARTICULAR                    MOTOCICLETA     VERMELHA  00000000PEDRO HENRIQUE DA SILVA SOUZA               AV BEIJA FLOR QD L NR. N-20             - SABIA                                 65600000CAXIAS              MATRANSIT. P/ CONTRAMAO EM VIAS C/ SENT. UNICO      186 * II           00000000057380   000029347007572020011120200224320036736867500000002347785670000002434770332240922007574420503673686750200000000000  000   7     00070435353970157380PASSAGEIRO
2100000000478220200110207570PREF. DE: MA - CAXIAS                   CXA0076850201910300710RUA SENADOR COSTA RODRIGUES                                 NXB4117MA306461-SAMTHONDA/BIZ 125 ES                             PARTICULAR                    MOTONETA        PRETA     00000000GLAYDIMAR FERREIRA VIDAL                    RUA DO ESPIRITO SANTO NR. 505           - CANGALHEIRO                           65600000CAXIAS              MATRANSIT. P/ CONTRAMAO EM VIAS C/ SENT. UNICO      186 * II           00000000057380   000029347007572020011120200224320036736868380000002347785600000002134770332240922007574420503673686838500000000000  000   8     00070435354184657380PASSAGEIRO
2100000000478220200110207570PREF. DE: MA - CAXIAS                   CXA0078205201910300658PCA DO PANTHEON                                             NMS1437MA305941-SAMTI/FIAT SIENA FIRE FLEX                       PARTICULAR                    AUTOMOVEL       VERMELHA  00000000DEUSDETE ALVES DA SILVA                     II TV DO FIO NR. 224                    - ITAPECURUZINHO                        65606884CAXIAS              MADEIXAR DE DAR PREF.PEDES/VEIC NAO MOTOR.FAIXA ELE 214 * I            00000000061220   000029347007572020011120200224320036736869150000002347785660000002534770332240922007574420503673686915100000000000  000   9     00070435354404761220PASSAGEIRO
2100000000478220200110207570PREF. DE: MA - CAXIAS                   CXA0078206201910301129AV GETULIO VARGAS                                           PSZ1469MA305941-SAMTI/TOYOTA HILUX CSLSTM4FD                     PARTICULAR                    CAMINHONETE     PRATA     00000000FRANCISCO ALVES DE MELO NETO                RUA COSTA SOBRINHO NR. 1050             - VOLTA REDONDA                         65606510CAXIAS              MAESTACIONAR EM DESACORDO C/REGULAMENTACAO-PONTO OU 181 * XVII         00000000055413   000019523007572020011120200224320036736870560000001561885640000001956180332240422007574420503673687056300000000000  000   10    00050435354596555413CARGA
2100000000478220200110207570PREF. DE: MA - CAXIAS                   CXA0078132201910301530PCA CANDIDO MENDES                                          PTD3010MA123611-SAMTHONDA/BIZ 125                                PARTICULAR                    MOTONETA        LARANJA   00000000CHEILA ALVES DE SOUZA                       RUA FUMO VERDE NR. 70                   - FUMO VERDE                            65606887CAXIAS              MACOND. MOTOC/MOTON./CICLOM TRANSPORTANDO/PASSAG.S/C244 * II           00000000070481   000029347007572020011120200224320036736871330000002347785650000002634770332240922007574420503673687133000000000000  000   11    00070435358474070481PASSAGEIRO
2100000000478220200110207570PREF. DE: MA - CAXIAS                   CXA0078133201910301610RUA MENINO DEUS                                             PSE7824MA123611-SAMTHONDA/HR-V EX CVT                            PARTICULAR                    AUTOMOVEL       CINZA     00000000KLENIO GUSTAVO B DE ALMEIDA                 R RIO PIMENTA CD BOSQUE NR. DE          ALA 580 - OLHO D AGUA                   65067570SAO LUIS            MADIR.VEIC. UTILIZANDO-SE DE TELEFONE CELULAR       252 * VI           00000000073662   000013016007572020011120200224320036736872100000001041285630000001004120332240322007574720803673687210600000000000  000   12    00040435359015473662PASSAGEIRO
2100000000478220200110207570PREF. DE: MA - CAXIAS                   CXA0078134201910301615RUA MENINO DEUS                                             PTK1302MA123611-SAMTHONDA/POP 110I                               PARTICULAR                    MOTOCICLETA     PRETA     00000000JAQUELINE SOUSA SILVA                       RUA DA CALMA NR. 397                    B - SERIEMA                             65602760CAXIAS              MACOND. MOTOC/MOTON./CICLOM TRANSPORTANDO/PASSAG.S/C244 * II           00000000070481   000029347007572020011120200224320036736873080000002347785630000002834770332240922007574420503673687308800000000000  000   13    00070435359452470481PASSAGEIRO
2100000000478220200110207570PREF. DE: MA - CAXIAS                   CXA0078136201910301625RUA MENINO DEUS                                             PSK3109MA123611-SAMTHONDA/NXR160 BROS ESD                        PARTICULAR                    MOTOCICLETA     BRANCA    00000000WILLAMS JAMS SANTOS DE ARAUJO               TV SAO CRISTOVAO NR. 829                - PIRAJA                                65600010CAXIAS              MACOND. MOTOCICLETA/MOTONETA/CICLOM S/CAPACETE DE SE244 * I            00000000070301   000029347007572020011120200224320036736874850000002347785660000002534770332240922007574720803673687485400000000000  000   14    00070435377769670301PASSAGEIRO
2100000000478220200110207570PREF. DE: MA - CAXIAS                   CXA0078138201910301750RUA MENINO DEUS                                             OJC1782MA123611-SAMTHONDA/POP100                                 PARTICULAR                    MOTOCICLETA     VERMELHA  00000000RAIMUNDO SOUSA SILVA                        RUA ARARAS QD J NR. 01                  - SABIA                                 65600000CAXIAS              MACOND. MOTOC/MOTON./CICLOM TRANSPORTANDO/PASSAG.S/C244 * II           00000000070481   000029347007572020011120200224320036736875620000002347785650000002634770332240922007574420503673687562000000000000  000   15    00070435378091370481PASSAGEIRO
2100000000478220200110207570PREF. DE: MA - CAXIAS                   CXA0078139201910301645RUA MENINO DEUS                                             NXL7644MA123611-SAMTHONDA/BIZ 125 KS                             PARTICULAR                    MOTONETA        VERDE     00000000CELIA VERONICA MORAES CAVALCANTE            RUA DO ANGELIM NR. 181                  - CANGALHEIRO                           65600000CAXIAS              MACOND. MOTOC/MOTON./CICLOM TRANSPORTANDO/PASSAG.S/C244 * II           00000000070481   000029347007572020011120200224320036736876400000002347785690000002234770332240922007574420503673687640400000000000  000   16    00070435378535470481PASSAGEIRO
2100000000478220200110207570PREF. DE: MA - CAXIAS                   CXA0078140201910301415AV SENADOR CLODOMIR CARDOSO                                 PSB0805MA122131-SAMTHONDA/BIZ 100 ES                             PARTICULAR                    MOTONETA        BRANCA    00000000ELIDA DAIANE DOS SANTOS FERREIRA            RUA SANTA MARIA NR. 2091                - REFINARIA                             65600000CAXIAS              MACOND. MOTOC/MOTON./CICLOM TRANSPORTANDO/PASSAG.S/C244 * II           00000000070481   000029347007572020011120200224320036736877270000002347785640000002734770332240922007574420503673687727900000000000  000   17    00070435388551070481PASSAGEIRO
2100000000478220200110207570PREF. DE: MA - CAXIAS                   CXA0078170201910301605RUA ANIZIO VIEIRA CHAVES                                    OXU6723MA122131-SAMTHONDA/CG150 FAN ESDI                         PARTICULAR                    MOTOCICLETA     VERMELHA  00000000LORENA DIAS CARNEIRO DA SILVA               RUA CASTELO BRANCO NR. 1071             - CAMPO DE BELEM                        65600000CAXIAS              MACOND. MOTOC/MOTON./CICLOM TRANSPORTANDO/PASSAG.S/C244 * II           00000000070481   000029347007572020011120200224320036736878040000002347785610000002034770332240922007574420503673687804600000000000  000   18    00070435389344070481PASSAGEIRO
2100000000478220200110207570PREF. DE: MA - CAXIAS                   CXA0078171201910301620RUA MENINO DEUS                                             PSR7557MA122131-SAMTHONDA/NXR 160 BROS                           PARTICULAR                    MOTOCICLETA     VERMELHA  00000000DIEGO BORGES DA CONCEICAO                   RUA GUSTAVO COLACO NR. 224              - CENTRO                                65606160CAXIAS              MACOND. MOTOC/MOTON./CICLOM TRANSPORTANDO/PASSAG.S/C244 * II           00000000070481   000029347007572020011120200224320036736879910000002347785660000002534770332240922007574420503673687991100000000000  000   19    00070435389538970481PASSAGEIRO
2100000000478220200110207570PREF. DE: MA - CAXIAS                   CXA0078147201910311705AV LUIS SALES                                               NXH4211MA123611-SAMTHONDA/NXR150 BROS ES                         PARTICULAR                    MOTOCICLETA     PRETA     00000000ANTONIO JOSE COSTA DOS SANTOS               RUA MONTES CLAROS NR. 1066              - CAMPO DE BELEM                        65600001CAXIAS              MACOND. MOTOC/MOTON./CICLOM C/PASSAG.S/VISEIRA/OCULO244 * II           00000000070482   000029347007572020011120200224320036736880220000002347785690000002234770332240922007574420503673688022400000000000  000   20    00070435389635070482PASSAGEIRO
2100000000478220200110207570PREF. DE: MA - CAXIAS                   CXA0078148201910311720AV LUIS SALES                                               PTH1569MA123611-SAMTHONDA/CG 160 TITAN                           PARTICULAR                    MOTOCICLETA     PRETA     00000000MARIA FERREIRA DA SILVA                     PV SANTA FILOMENA NR. S/N               - ZONA RURAL                            65615000SAO JOAO DO SOTER   MACOND. MOTOCICLETA/MOTONETA/CICLOM S/CAPACETE DE SE244 * I            00000000070301   000029347007572020011120200224320036736881000000002347785600000002134770332240922007574720803673688100800000000000  000   21    00070435389768370301PASSAGEIRO
2100000000478220200110207570PREF. DE: MA - CAXIAS                   CXA0078149201910311730AV LUIS SALES                                               PSA6031MA123611-SAMTHONDA/POP100                                 PARTICULAR                    MOTOCICLETA     BRANCA    00000000DIOLINO ALVES FERREIRA                      RUA JERUSALEM NR. 823                   - CAMPO DE BELEM                        65600000CAXIAS              MACOND. MOTOC/MOTON./CICLOM TRANSPORTANDO/PASSAG.S/C244 * II           00000000070481   000029347007572020011120200224320036736882970000002347785670000002434770332240922007574420503673688297200000000000  000   22    00070435390491470481PASSAGEIRO
2100000000478220200110207570PREF. DE: MA - CAXIAS                   CXA0078150201910311740AV LUIS SALES                                               PSJ4705MA123611-SAMTHONDA/CG 125 FAN KS                          PARTICULAR                    MOTOCICLETA     VERMELHA  00000000GEORGE DE SOUSA GARRIDO                     RUA LORETO NR. 8A                       - HELIO QUEIROZ                         65600010CAXIAS              MADIR.VEIC. UTILIZANDO-SE DE TELEFONE CELULAR       252 * VI           00000000073662   000013016007572020011120200224320036736883740000001041285660000001704120332240322007574720803673688374900000000000  000   23    00040435390569473662PASSAGEIRO
2100000000478220200110207570PREF. DE: MA - CAXIAS                   CXA0078146201910311605PCA MAGALHAES DE ALMEIDA                                    LVJ3756MA123611-SAMTVW/24.220 EURO3 WORKER                       PARTICULAR                    CAMINHAO        BRANCA    00000000SINCOPLEMA SOC IND E C P LIMP MA            RUA SAO JOSE NR. 1853                   - TREZIDELA                             65607440CAXIAS              MADIR.VEIC. UTILIZANDO-SE DE TELEFONE CELULAR       252 * VI           00000000073662   000013016007572020011120200224320036736884510000001041285620000001104120332240322007574720803673688451500000000000  000   24    00040435390723973662CARGA
2100000000478220200110207570PREF. DE: MA - CAXIAS                   CXA0078145201910311555PCA MAGALHAES DE ALMEIDA                                    OEC1668MA123611-SAMTI/NISSAN MARCH 10S FLEX                      PARTICULAR                    AUTOMOVEL       PRATA     00000000ELIANE DE J P DE ARAUJO OLIVEIRA            RUA ARARI NR. 601                       - VILA LOBAO                            65600001CAXIAS              MADIR.VEIC. UTILIZANDO-SE DE TELEFONE CELULAR       252 * VI           00000000073662   000013016007572020011120200224320036736885390000001041285640000001904120332240322007574720803673688539700000000000  000   25    00040435390784073662PASSAGEIRO
2100000000478220200110207570PREF. DE: MA - CAXIAS                   CXA0078142201910311500PCA CANDIDO MENDES                                          NXC4150MA123611-SAMTHONDA/POP100                                 PARTICULAR                    MOTOCICLETA     ROXA      00000000LIVIA DE SOUZA OLIVEIRA                     RUA TIRADENTES NR. 647                  - CANGALHEIRO                           65600000CAXIAS              MACOND. MOTOC/MOTON./CICLOM TRANSPORTANDO/PASSAG.S/C244 * II           00000000070481   000029347007572020011120200224320036736886160000002347785680000002334770332240922007574420503673688616300000000000  000   26    00070435390853770481PASSAGEIRO
2100000000478220200110207570PREF. DE: MA - CAXIAS                   CXA0078141201910311500PCA CANDIDO MENDES                                          NXK9307MA123611-SAMTHONDA/POP100                                 PARTICULAR                    MOTOCICLETA     VERMELHA  00000000FRANCISCO DE CARVALHO MORAIS                TV BAIXINHA NR. 48                      - BAIXINHA                              65600000CAXIAS              MACOND. MOTOC/MOTON./CICLOM TRANSPORTANDO/PASSAG.S/C244 * II           00000000070481   000029347007572020011120200224320036736887030000002347785640000002734770332240922007574420503673688703900000000000  000   27    00070435390912670481PASSAGEIRO
2100000000478220200110207570PREF. DE: MA - CAXIAS                   CXA0078208201910311225PCA PANTHEON                                                OXW1271MA305941-SAMTHONDA/CG150 FAN ESDI                         PARTICULAR                    MOTOCICLETA     VERMELHA  00000000JOSE DE RIBAMAR C OLIVEIRA                  RUA ANICETO CRUZ NR. 1160               - PONTE                                 65600000CAXIAS              MADEIXAR DE DAR PREF.PEDES/VEIC NAO MOTOR.FAIXA ELE 214 * I            00000000061220   000029347007572020011120200224320036736888800000002347785600000002134770332240922007574420503673688880500000000000  000   28    00070435391025661220PASSAGEIRO
2100000000478220200110207570PREF. DE: MA - CAXIAS                   CXA0077136201910310415PCA CANDIDO MENDES                                          OJA3421MA122061-SAMTYAMAHA/FACTOR YBR125 K                       PARTICULAR                    MOTOCICLETA     ROXA      00000000CLEUTON SILVA FREITAS                       RUA JAMIL M GEDEON NR.                  NR 2085 - PQ PIAUI                      65630000TIMON               MACOND. MOTOC/MOTON./CICLOM TRANSPORTANDO/PASSAG.S/C244 * II           00000000070481   000029347007572020011120200224320036736889680000002347785630000002834770332240922007574420503673688968800000000000  000   29    00070435391097370481PASSAGEIRO
2100000000478220200110207570PREF. DE: MA - CAXIAS                   CXA0077135201910310900PCA CANDIDO MENDES                                          NMS5747MA122061-SAMTHONDA/CG 125 FAN KS                          PARTICULAR                    MOTOCICLETA     PRETA     00000000MARCIO SILVA SANTOS                         RUA ESPIRITO SANTO NR. 1597             - CANGALHEIRO'                          65606290CAXIAS              MACOND. MOTOC/MOTON./CICLOM TRANSPORTANDO/PASSAG.S/C244 * II           00000000070481   000029347007572020011120200224320036736890090000002347785650000002634770332240922007574420503673689009000000000000  000   30    00070435394202670481PASSAGEIRO
2100000000478220200110207570PREF. DE: MA - CAXIAS                   CXA0077134201910310800AV NEREU BITTNCOURT                                         NNF8278MA122061-SAMTHONDA/POP100                                 PARTICULAR                    MOTOCICLETA     PRETA     00000000DAIONE DE MOURA FERREIRA                    RUA 7 SETEMBRO NR. 630                  - TRIZIDELA                             65607350CAXIAS              MACOND. MOTOCICLETA/MOTONETA/CICLOM S/CAPACETE DE SE244 * I            00000000070301   000029347007572020011120200224320036736891860000002347785680000002334770332240922007574720803673689186600000000000  000   31    00070435394429070301PASSAGEIRO
2100000000478220200110207570PREF. DE: MA - CAXIAS                   CXA0078401201910311610PCA CANDIDO MENDES                                          PST1493MA122221-SAMTHONDA/POP 110I                               PARTICULAR                    MOTOCICLETA     PRETA     00000000FRANCISCO DAS CHAGAS DE V SILVA             TV SAO CRISTOVAO NR. 242                - PIRAJA                                65600010CAXIAS              MACOND. MOTOC/MOTON./CICLOM TRANSPORTANDO/PASSAG.S/C244 * II           00000000070481   000029347007572020011120200224320036736892630000002347785680000002334770332240922007574420503673689263300000000000  000   32    00070435394620070481PASSAGEIRO
2100000000478220200110207570PREF. DE: MA - CAXIAS                   CXA0078172201910311615PCA MAGALHAES DE ALMEIDA                                    PTN9908MA122131-SAMTHONDA/BIZ 110I                               PARTICULAR                    MOTONETA        BRANCA    00000000LAIS ANDREIA SOUSA DO NASCIMENTO            TV PRESIDENTE KENNEDY NR. 936           - CASTELO BRANCO                        65604240CAXIAS              MACOND. MOTOC/MOTON./CICLOM TRANSPORTANDO/PASSAG.S/C244 * II           00000000070481   000029347007572020011120200224320036736893400000002347785640000002734770332240922007574420503673689340900000000000  000   33    00070435394676570481PASSAGEIRO
2100000000478220200110207570PREF. DE: MA - CAXIAS                   CXA0078173201910311705AV LUIS SALES                                               OIS4452MA122131-SAMTHONDA/CG 125 FAN KS                          PARTICULAR                    MOTOCICLETA     PRETA     00000000REGINALDO DE MORAIS SILVA                   RUA BARREIRINHA NR. 1322                - VILA LOBAO                            65600000CAXIAS              MACOND. MOTOC/MOTON./CICLOM TRANSPORTANDO/PASSAG.S/C244 * II           00000000070481   000029347007572020011120200224320036736894280000002347785670000002434770332240922007574420503673689428200000000000  000   34    00070435394727370481PASSAGEIRO
3000033000000000033
