1*NIPI207570201912310047582019123100000000000000
2100000000475820191231207570PREF. DE: MA - CAXIAS                   CXA0077726201910211440AV EDSON LOBAO                                              OIR3619MA123611-SAMTHONDA/CG 125 FAN ES                          PARTICULAR                    MOTOCICLETA     PRETA     00000000FELIPE AMERICO SIMOES AGUIAR                RUA 1 DE AGOSTO NR. N=398               - PONTE                                 65609340CAXIAS              MACOND. MOTOC/MOTON./CICLOM TRANSPORTANDO/PASSAG.S/C244 * II           00000000070481   000029347007572020010120200214319036723865700000002347785690000002234770332140122007574419703672386570900000000000  000   2     00070433187589070481PASSAGEIRO
2100000000475820191231207570PREF. DE: MA - CAXIAS                   CXA0077842201910131223BALNEARIO VENEZA                                            OJJ8988MA306431-SAMTVW/CROSSFOX GII                              PARTICULAR                    AUTOMOVEL       BRANCA    00000000DAVID DE OLIVEIRA PINHEIRO                  RUA BOM JESUS DOS PASSOS NR. N-503      - CASTELO BRANCO                        65604130CAXIAS              MAESTACIONAR NO PASSEIO                             181 * VIII         00000000054521   000019523007572020010120200214319036723866580000001561885680000001556180332140622007574419703672386658200000000000  000   3     00050433193628754521PASSAGEIRO
2100000000475820191231207570PREF. DE: MA - CAXIAS                   CXA0077841201910131221BALNEARIO VENEZA                                            PTB7911MA306431-SAMTVW/NOVO GOL TL MCV                           PARTICULAR                    AUTOMOVEL       AZUL      00000000MARIA ALZIRA LUCENA VITAL                   RUA DO CAMPO NR. 1309                   - VILA ALECRIM                          65605640CAXIAS              MAESTACIONAR NO PASSEIO                             181 * VIII         00000000054521   000019523007572020010120200214319036723867350000001561885640000001956180332140622007574419703672386735800000000000  000   4     00050433193973154521PASSAGEIRO
2100000000475820191231207570PREF. DE: MA - CAXIAS                   CXA0077967201911131100AV OTAVIO PASSOS                                            PTI9027MA78162-SAMT HONDA/POP 110I                               PARTICULAR                    MOTOCICLETA     PRETA     00000000ELIZABETH CONCEICAO DA SILVA                RUA ALUISIO LOBO NR. 3435               - SAO FRANCISCO                         65600450CAXIAS              MAESTAC. EM LOCAL/HORARIO PROIBIDO ESPECIFIC. P/SINA181*XVIII          00000000055500   000013016007572020010120200214319036723868120000001041285600000001304120332140522007574419703672386812500000000000  000   5     00040433209108655500PASSAGEIRO
2100000000475820191231207570PREF. DE: MA - CAXIAS                   CXA0077966201911131050AV OTAVIO PASSOS                                            OXQ3399MA78162-SAMT HONDA/POP100                                 PARTICULAR                    MOTOCICLETA     VERMELHA  00000000ANGELA MARIA P DA SILVA COSTA               TRAV SAO JOSE III NR. 1259              - TRIZIDELA                             65600000CAXIAS              MAESTAC. EM LOCAL/HORARIO PROIBIDO ESPECIFIC. P/SINA181*XVIII          00000000055500   000013016007572020010120200214319036723869000000001041285630000001004120332140522007574419703672386900800000000000  000   6     00040433209276755500PASSAGEIRO
2100000000475820191231207570PREF. DE: MA - CAXIAS                   CXA0077965201911131025AV COELO NETO                                               OXZ8467MA78162-SAMT HONDA/POP100                                 PARTICULAR                    MOTOCICLETA     VERMELHA  00000000FABIO FIALHO DA SILVA                       R DA PALMEIRINHA NR. 839                GALEANA - CENTRO                        65608110CAXIAS              MACOND. MOTOC/MOTON./CICLOM TRANSPORTANDO/PASSAG.S/C244 * II           00000000070481   000029347007572020010120200214319036723870300000002347785630000002834770332140122007574419703672387030300000000000  000   7     00070433209445070481PASSAGEIRO
2100000000475820191231207570PREF. DE: MA - CAXIAS                   CXA0077963201910310930PCA DA MATRIZ                                               PSD1576MA78162-SAMT HONDA/POP100                                 PARTICULAR                    MOTOCICLETA     VERMELHA  00000000RODRIGO DE MELO NUNES                       RUA 24 DE DEZEMBRO NR. 1172             - SIRIEMA                               65602420CAXIAS              MACOND. MOTOCICLETA/MOTONETA/CICLOM S/CAPACETE DE SE244 * I            00000000070301   000029347007572020010120200214319036723871180000002347785630000002834770332140122007574719003672387118600000000000  000   8     00070433210388270301PASSAGEIRO
2100000000475820191231207570PREF. DE: MA - CAXIAS                   CXA0077962201910310930PCA DA MATRIZ                                               PSD1576MA78162-SAMT HONDA/POP100                                 PARTICULAR                    MOTOCICLETA     VERMELHA  00000000RODRIGO DE MELO NUNES                       RUA 24 DE DEZEMBRO NR. 1172             - SIRIEMA                               65602420CAXIAS              MACOND. MOTOC/MOTON./CICLOM TRANSPORTANDO/PASSAG.S/C244 * II           00000000070481   000029347007572020010120200214319036723872050000002347785610000002034770332140122007574419703672387205100000000000  000   9     00070433210534670481PASSAGEIRO
2100000000475820191231207570PREF. DE: MA - CAXIAS                   CXA0075438201910151420PCA CANDIDO MENDES                                          NXG5585MA122221-SAMTYAMAHA/FACTOR YBR125 K                       PARTICULAR                    MOTOCICLETA     PRETA     00000000LUCELIA PEREIRA DA SILVA                    RUA SAO JOSE NR. 1340                   - PONTE                                 65600000CAXIAS              MATRANSIT. P/ CONTRAMAO EM VIAS C/ SENT. UNICO      186 * II           00000000057380   000029347007572020010120200214319036723873820000002347785680000002334770332140122007574419703672387382800000000000  000   10    00070433210707157380PASSAGEIRO
2100000000475820191231207570PREF. DE: MA - CAXIAS                   CXA0075439201910151421PCA CANDIDO MENDES                                          NXG5585MA122221-SAMTYAMAHA/FACTOR YBR125 K                       PARTICULAR                    MOTOCICLETA     PRETA     00000000LUCELIA PEREIRA DA SILVA                    RUA SAO JOSE NR. 1340                   - PONTE                                 65600000CAXIAS              MACOND. MOTOCICLETA/MOTONETA/CICLOM S/CAPACETE DE SE244 * I            00000000070301   000029347007572020010120200214319036723874600000002347785690000002234770332140122007574719003672387460200000000000  000   11    00070433210815970301PASSAGEIRO
2100000000475820191231207570PREF. DE: MA - CAXIAS                   CXA0075440201910151600AV OTAVIO PASSOS                                            OJM9652MA122221-SAMTHONDA/CG150 FAN ESDI                         PARTICULAR                    MOTOCICLETA     VERMELHA  00000000RONALDO ADRIANO DE S OLIVEIRA               RUA RIO PRATA NR. 499                   - SIRIEMA                               65600000CAXIAS              MAESTAC. EM DESACORDO C/ A REGULAMENTACAO ESPECIFICA181 * XVII         00000000055411   000019523007572020010120200214319036723875470000001561885620000001156180332140622007574419703672387547600000000000  000   12    00050433210917155411PASSAGEIRO
2100000000475820191231207570PREF. DE: MA - CAXIAS                   CXA0077625201910151640RUA AARAO REIS                                              OJF1824MA122131-SAMTHONDA/BIZ 100 ES                             PARTICULAR                    MOTONETA        VERMELHA  00000000ANA VALESCA SILVA DOS REIS                  R SANTA LUZIA NR. N-742                 - TRIZIDELA                             65608260CAXIAS              MATRANSIT. P/ CONTRAMAO EM VIAS C/ SENT. UNICO      186 * II           00000000057380   000029347007572020010120200214319036723876240000002347785630000002834770332140122007574419703672387624300000000000  000   13    00070433211016157380PASSAGEIRO
2100000000475820191231207570PREF. DE: MA - CAXIAS                   CXA0077632201910151710AV SAO LUIS                                                 PTG0712MA122131-SAMTHONDA/CG 125I FAN                            PARTICULAR                    MOTOCICLETA     PRETA     00000000ANGELITA BARBOSA ASSUNCAO                   RUA 15 DE DEZEMBRO NR. 1115             - VILA ALECRIM                          65605635CAXIAS              MACOND. MOTOC/MOTON./CICLOM TRANSPORTANDO/PASSAG.S/C244 * II           00000000070481   000029347007572020010120200214319036723877010000002347785690000002234770332140122007574419703672387701900000000000  000   14    00070433211110970481PASSAGEIRO
2100000000475820191231207570PREF. DE: MA - CAXIAS                   CXA0077858201910151425RUA RIO BRANCO                                              NHG4223MA306521-SAMTHONDA/BIZ 125 KS                             PARTICULAR                    MOTONETA        PRETA     00000000CLEIA LIMA PEREIRA                          R.SESOSTRE PEREIRA NR. 2503             F-99-3521-1828 - SIRIEMA                65602350CAXIAS              MACOND. MOTOCICLETA/MOTONETA/CICLOM S/CAPACETE DE SE244 * I            00000000070301   000029347007572020010120200214319036723878990000002347785680000002334770332140122007574719003672387899100000000000  000   15    00070433211300470301PASSAGEIRO
2100000000475820191231207570PREF. DE: MA - CAXIAS                   CXA0075441201910151610PCA RUY BARBOSA                                             PSC4131MA122221-SAMTMOTO TRAXX/JL50Q-8                           PARTICULAR                    CICLOMOTOR      BRANCA    00000000CARLOS LUIZ RIOS                            AV CASTELO BRANCO QD C NR. 02           - REC DOS POETAS                        65604170CAXIAS              MACOND. MOTOC/MOTON./CICLOM TRANSPORTANDO/PASSAG.S/C244 * II           00000000070481   000029347007572020010120200214319036723879760000002347785670000002434770332140122007574419703672387976700000000000  000   16    00070433211628370481PASSAGEIRO
2100000000475820191231207570PREF. DE: MA - CAXIAS                   CXA0075443201910151730RUA BENEDITO REIS                                           NHH2635MA122221-SAMTHONDA/BIZ 125 ES                             PARTICULAR                    MOTONETA        PRETA     00000000SHIRLEY JANE RODRIGUES MAIA                 R TRILHO VELHO NR. 1544                 - CENTRO                                65608060CAXIAS              MATRANSIT. P/ CONTRAMAO EM VIAS C/ SENT. UNICO      186 * II           00000000057380   000029347007572020010120200214319036692533290000002347785660000002534770332140122007574419703669253329600000000000  000   17    00070433211915057380PASSAGEIRO
2100000000475820191231207570PREF. DE: MA - CAXIAS                   CXA0076838201910150913AV GETULIO VARGAS                                           OJH0148MA306461-SAMTHONDA/CG 125 FAN ES                          PARTICULAR                    MOTOCICLETA     PRETA     00000000FRANCISCO NUNES DE OLIVEIRA                 RUA ANICETO CRUZ NR. 995                - PONTE                                 65600000CAXIAS              MACOND. MOTOCICLETA/MOTONETA/CICLOM S/CAPACETE DE SE244 * I            00000000070301   000029347007572020010120200214319036723880070000002347785670000002434770332140122007574719003672388007000000000000  000   18    00070433212125270301PASSAGEIRO
2100000000475820191231207570PREF. DE: MA - CAXIAS                   CXA0077532201910150843RODOVIARIA NACHOR CARVALHO                                  OJM7608MA305941-SAMTFIAT/UNO VIVACE 1.0                          PARTICULAR                    AUTOMOVEL       BRANCA    00000000IOLANDA ARAUJO DO NASCIMENTO                RUA JOAO DA C ALECRIM NR. 1218          - CENTRO                                65600000CAXIAS              MAESTAC. EM LOCAL/HORARIO PROIBIDO ESPECIFIC. P/SINA181*XVIII          00000000055500   000013016007572020010120200214319036723881940000001041285610000001204120332140522007574419703672388194600000000000  000   19    00040433212326355500PASSAGEIRO
2100000000475820191231207570PREF. DE: MA - CAXIAS                   CXA0077018201910150905RUA SENADOR COSTA RODRIGUES                                 PSF7463MA138301-SAMTHONDA/CG 125 FAN ESD                         PARTICULAR                    MOTOCICLETA     PRETA     00000000ELIAS CESAR DOS SANTOS                      RUA 05 NR. 544                          - CANGALHEIRO                           65606270CAXIAS              MACOND. MOTOC/MOTON./CICLOM TRANSPORTANDO/PASSAG.S/C244 * II           00000000070481   000029347007572020010120200214319036723882710000002347785620000002934770332140122007574419703672388271200000000000  000   20    00070433212525870481PASSAGEIRO
2100000000475820191231207570PREF. DE: MA - CAXIAS                   CXA0077019201910150920RUA SAO BENEDITO                                            PSX7478MA138301-SAMTHONDA/POP 110I                               PARTICULAR                    MOTOCICLETA     PRETA     00000000MARIA DAS GRACAS B DOS S CHAVES             RUA MOISES QD-C-15 NR. N-09             RES. - VILA PARAISO                     65606826CAXIAS              MACOND. MOTOC/MOTON./CICLOM TRANSPORTANDO/PASSAG.S/C244 * II           00000000070481   000029347007572020010120200214319036723883590000002347785650000002634770332140122007574419703672388359500000000000  000   21    00070433212625470481PASSAGEIRO
2100000000475820191231207570PREF. DE: MA - CAXIAS                   CXA0077903201910150920AV GETULIO VARGAS                                           NXQ7945MA306051-SAMTHONDA/CG 150 FAN ESI                         PARTICULAR                    MOTOCICLETA     PRETA     00000000MARIA HELENA DA SILVA ROCHA                 RUA SAO JOSE NR. 1421                   - FAZENDINHA                            65600000CAXIAS              MAESTAC. EM DESACORDO C/ A REGULAMENTACAO ESPECIFICA181 * XVII         00000000055411   000019523007572020010120200214319036723884360000001561885670000001656180332140622007574419703672388436100000000000  000   22    00050433213018955411PASSAGEIRO
2100000000475820191231207570PREF. DE: MA - CAXIAS                   CXA0077902201910150908AV OTAVIO REIS                                              BZE2131MA306051-SAMTIMP/GM D20 CUSTOM S                          PARTICULAR                    CAMINHONETE     BRANCA    00000000VALTER DE SOUSA SILVA                       III TRAV ANGELIM NR. N-247              - CANGALHEIRO                           65600000CAXIAS              MAESTAC. VEIC. NAS ESQU. E MENOS DE 5M DO ALINHAMENT181 * I            00000000053800   000013016007572020010120200214319036723885130000001041285620000001104120332140522007574419703672388513700000000000  000   23    00040433213171153800CARGA
2100000000475820191231207570PREF. DE: MA - CAXIAS                   CXA0077906201910161103RUA GETULIO VARGAS                                          OXY6070MA306051-SAMTHONDA/CG 125 FAN ES                          PARTICULAR                    MOTOCICLETA     VERMELHA  00000000LIGIANE NUNES DA SILVA                      RUA ALOISIO LOBO NR. 1651               - SAO FRANCISCO                         65600000CAXIAS              MAESTAC. EM DESACORDO C/ A REGULAMENTACAO ESPECIFICA181 * XVII         00000000055411   000019523007572020010120200214319036723886000000001561885680000001556180332140622007574419703672388600200000000000  000   24    00050433465520355411PASSAGEIRO
2100000000475820191231207570PREF. DE: MA - CAXIAS                   CXA0077703201910161535PCA CANDIDO MENDES                                          PSP2893MA123611-SAMTHONDA/POP 110I                               PARTICULAR                    MOTOCICLETA     BRANCA    00000000MARIA BEATRIZ SANTOS DA FONSECA             R 26 NR. 2                              QD B21 - TESO DURO                      65604595CAXIAS              MACOND. MOTOC/MOTON./CICLOM TRANSPORTANDO/PASSAG.S/C244 * II           00000000070481   000029347007572020010120200214319036723887880000002347785650000002634770332140122007574419703672388788500000000000  000   25    00070433465665070481PASSAGEIRO
2100000000475820191231207570PREF. DE: MA - CAXIAS                   CXA0077534201910160957AV RODOVIARIA                                               PSZ9269MA306431-SAMTVW/POLO HL AD                                PARTICULAR                    AUTOMOVEL       PRATA     00000000CAXIAS VEICULOS E PECAS LTDA                BR-316 KM-554 NR. S/N                   - VOLTA REDONDA                         65606525CAXIAS              MAESTAC. EM LOCAL/HORARIO PROIBIDO ESPECIFIC. P/SINA181*XVIII          00000000055500   000013016007572020010120200214319036723888650000001041285660000001704120332140522007574419703672388865100000000000  000   26    00040433466257955500PASSAGEIRO
2100000000475820191231207570PREF. DE: MA - CAXIAS                   CXA0077022201910161050PCA MAGALHAES DE ALMEIDA                                    OXQ6736MA138301-SAMTHONDA/CG 125 FAN ES                          PARTICULAR                    MOTOCICLETA     VERMELHA  00000000JOAO PEDRO ALVES                            R EVARISTO DA VEIGA NR. 1245            - SABAK                                 65300000SANTA INES          MATRANSIT. P/ CONTRAMAO EM VIAS C/ SENT. UNICO      186 * II           00000000057380   000029347007572020010120200214319036723889420000002347785680000002334770332140122007574419703672388942800000000000  000   27    00070433466449057380PASSAGEIRO
2100000000475820191231207570PREF. DE: MA - CAXIAS                   CXA0077633201910161630RUA DO COTOVELO                                             OJL1899MA122131-SAMTHONDA/CG150 FAN ESDI                         PARTICULAR                    MOTOCICLETA     VERMELHA  00000000WARLESSON CARLOS P DOS SANTOS               RUA EDSON LOBAO QD 23 NR. 531           - MUTIRAO                               65600000CAXIAS              MATRANSIT. P/ CONTRAMAO EM VIAS C/ SENT. UNICO      186 * II           00000000057380   000029347007572020010120200214319036723890830000002347785600000002134770332140122007574419703672389083000000000000  000   28    00070433466599357380PASSAGEIRO
2100000000475820191231207570PREF. DE: MA - CAXIAS                   CXA0077637201910171645PCA CANDIDO MENDES                                          PTM6880MA122131-SAMTHONDA/BIZ 125                                PARTICULAR                    MOTONETA        VERMELHA  00000000ANTONIA DE LISBOA LAGES SILVA               RUA SATURNINO BELO NR. 2549             - SAO FRANCISCO                         65600440CAXIAS              MACOND. MOTOC/MOTON./CICLOM TRANSPORTANDO/PASSAG.S/C244 * II           00000000070481   000029347007572020010120200214319036723891600000002347785660000002534770332140122007574419703672389160600000000000  000   29    00070433466690670481PASSAGEIRO
2100000000475820191231207570PREF. DE: MA - CAXIAS                   CXA0077020201910160740PCA CANDIDO MENDES                                          OJA6009MA138301-SAMTHONDA/POP100                                 PARTICULAR                    MOTOCICLETA     PRETA     00000000FRANCILENE RAMOS ROCHA                      RUA SEGISNANDO MOURA NR. 742            - PONTE                                 65600000CAXIAS              MACOND. MOTOC/MOTON./CICLOM TRANSPORTANDO/PASSAG.S/C244 * II           00000000070481   000029347007572020010120200214319036723892480000002347785690000002234770332140122007574419703672389248900000000000  000   30    00070433466764370481PASSAGEIRO
2100000000475820191231207570PREF. DE: MA - CAXIAS                   CXA0077021201910161040PCA MAGALHAES DE ALMEIDA                                    PSB7457MA138301-SAMTHONDA/POP100                                 PARTICULAR                    MOTOCICLETA     PRETA     00000000GIRLANE BORBA PEREIRA                       TRAV ESPIRITO SANTO III NR. 2520        - VOLTA REDONDA                         65600000CAXIAS              MACOND. MOTOC/MOTON./CICLOM TRANSPORTANDO/PASSAG.S/C244 * II           00000000070481   000029347007572020010120200214319036723893250000002347785650000002634770332140122007574419703672389325500000000000  000   31    00070433466897670481PASSAGEIRO
2100000000475820191231207570PREF. DE: MA - CAXIAS                   CXA0077860201910161346AV GETULIO VARGAS                                           PSO2689MA306521-SAMTHONDA/BIZ 110I                               PARTICULAR                    MOTONETA        VERMELHA  00000000FABIO MOURA SOBRINHO                        R SAFIRA NR. 20                         QD 12 CON P SOL - SANTA INES            65919474IMPERATRIZ          MACOND. MOTOCICLETA/MOTONETA/CICLOM S/CAPACETE DE SE244 * I            00000000070301   000029347007572020010120200214319036723894020000002347785690000002234770332140122007574719003672389402200000000000  000   32    00070433467845970301PASSAGEIRO
2100000000475820191231207570PREF. DE: MA - CAXIAS                   CXA0075445201910161545PCA CANDIDO MENDES                                          PTL2760MA122221-SAMTHONDA/POP 110I                               PARTICULAR                    MOTOCICLETA     PRETA     00000000LUIS SILVA DOS SANTOS                       TV SANTO ANTONIO NR. 207                - BACURIZEIRO                           65603815CAXIAS              MACOND. MOTOC/MOTON./CICLOM TRANSPORTANDO/PASSAG.S/C244 * II           00000000070481   000029347007572020010120200214319036723895900000002347785640000002734770332140122007574419703672389590400000000000  000   33    00070433467981170481PASSAGEIRO
2100000000475820191231207570PREF. DE: MA - CAXIAS                   CXA0075444201910161539PCA CANDIDO MENDES                                          PTH5800MA122221-SAMTHONDA/POP 110I                               PARTICULAR                    MOTOCICLETA     VERMELHA  00000000MARIA IRENICE DOS S CARVALHO                TV DO AEROPORTO NR. 2380                - SAO FRANCISCO                         65603600CAXIAS              MACOND. MOTOC/MOTON./CICLOM TRANSPORTANDO/PASSAG.S/C244 * II           00000000070481   000029347007572020010120200214319036723896770000002347785690000002234770332140122007574419703672389677900000000000  000   34    00070433468140970481PASSAGEIRO
2100000000475820191231207570PREF. DE: MA - CAXIAS                   CXA0077868201910171740PCA CANDIDO MENDES                                          NXD4390MA122221-SAMTHONDA/BIZ 125 ES                             PARTICULAR                    MOTONETA        ROSA      00000000IRACY OLIVEIRA DOS REIS                     RUA 01 NR. 06                           QD 22 - COAHB                           65600010CAXIAS              MACOND. MOTOCICLETA/MOTONETA/CICLOM S/CAPACETE DE SE244 * I            00000000070301   000029347007572020010120200214319036723897540000002347785630000002834770332140122007574719003672389754600000000000  000   35    00070433468411470301PASSAGEIRO
2100000000475820191231207570PREF. DE: MA - CAXIAS                   CXA0077867201910171732PCA CANDIDO MENDES                                          NXA2106MA122221-SAMTHONDA/LEAD 110                               PARTICULAR                    MOTONETA        BEGE      00000000IRENE SANTOS SEREJO DE OLIVEIRA             RUA RIO BRNCO NR. 69                    - CENTRO                                65600000CAXIAS              MACOND. MOTOCICLETA/MOTONETA/CICLOM S/CAPACETE DE SE244 * I            00000000070301   000029347007572020010120200214319036723898310000002347785690000002234770332140122007574719003672389831200000000000  000   36    00070433468524270301PASSAGEIRO
2100000000475820191231207570PREF. DE: MA - CAXIAS                   CXA0077864201910171458RUA GUSTAVO COLACO                                          NHJ6400MA306521-SAMTHONDA/CG 125 FAN                             PARTICULAR                    MOTOCICLETA     PRETA     00000000RAIMUNDO NONATO RIBEIRO DA SILVA            RUA CAJUEIRO NR. N-886                  - SIRIEMA                               65600000CAXIAS              MAESTAC. EM DESACORDO C/ A REGULAMENTACAO ESPECIFICA181 * XVII         00000000055411   000019523007572020010120200214319036723899190000001561885610000001256180332140622007574419703672389919500000000000  000   37    00050433468823355411PASSAGEIRO
2100000000475820191231207570PREF. DE: MA - CAXIAS                   CXA0077863201910171456RUA GUSTAVO COLACO                                          DPK2829MA306521-SAMTYAMAHA/YBR 125ED                             PARTICULAR                    MOTOCICLETA     PRETA     00000000WILLIAN JORGE DO N SILVA                    RUA ZE DOCA NR. 1340                    - VILA ALECRIM                          65605650CAXIAS              MAESTAC. EM DESACORDO C/ A REGULAMENTACAO ESPECIFICA181 * XVII         00000000055411   000019523007572020010120200214319036723900910000001561885660000001756180332140622007574419703672390091000000000000  000   38    00050433469169255411PASSAGEIRO
2100000000475820191231207570PREF. DE: MA - CAXIAS                   CXA0075449201910171457RUA GUSTAVO COLACO                                          PTN7157MA122221-SAMTHONDA/POP 110I                               PARTICULAR                    MOTOCICLETA     BRANCA    00000000MARIA DOS MILAGRES DA CONCEICAO             TV DO FIO NR. 1014                      - PONTE                                 65609320CAXIAS              MAESTAC. EM DESACORDO C/ A REGULAMENTACAO ESPECIFICA181 * XVII         00000000055411   000019523007572020010120200214319036723901790000001561885690000001456180332140622007574419703672390179300000000000  000   39    00050433469311355411PASSAGEIRO
2100000000475820191231207570PREF. DE: MA - CAXIAS                   CXA0075447201910171449RUA GUSTAVO COLACO                                          NNE8382MA122221-SAMTHONDA/BIZ 125 ES                             PARTICULAR                    MOTONETA        ROSA      00000000MARILENE SILVA TEIXEIRA COSTA               RUA PARNAISO NR. N1756                  - PONTE                                 65600000CAXIAS              MAESTAC. EM DESACORDO C/ A REGULAMENTACAO ESPECIFICA181 * XVII         00000000055411   000019523007572020010120200214319036723902560000001561885650000001856180332140622007574419703672390256900000000000  000   40    00050433469482955411PASSAGEIRO
2100000000475820191231207570PREF. DE: MA - CAXIAS                   CXA0075448201910171455RUA GUSTAVO COLACO                                          OXQ8003MA122221-SAMTHONDA/CG 125 FAN KS                          PARTICULAR                    MOTOCICLETA     VERMELHA  00000000JOSE PAIXAO MENEZES                         RUA ALOISIO LOBO NR. 3854               - SAO FRANCISCO                         65600000CAXIAS              MAESTAC. EM DESACORDO C/ A REGULAMENTACAO ESPECIFICA181 * XVII         00000000055411   000019523007572020010120200214319036723903330000001561885620000001156180332140622007574419703672390333600000000000  000   41    00050433469660055411PASSAGEIRO
2100000000475820191231207570PREF. DE: MA - CAXIAS                   CXA0077709201910171445RUA MENINO DEUS                                             PSR1140MA123611-SAMTHONDA/CG 160 TITAN EX                        PARTICULAR                    MOTOCICLETA     PRETA     00000000MARIA ONEIDE DE MELO SILVA                  TRAV SAO JOSE NR. 247                   - BACURIZEIRO                           65603825CAXIAS              MACOND. MOTOC/MOTON./CICLOM TRANSPORTANDO/PASSAG.S/C244 * II           00000000070481   000029347007572020010120200214319036723904100000002347785620000002934770332140122007574419703672390410200000000000  000   42    00070433469932470481PASSAGEIRO
2100000000475820191231207570PREF. DE: MA - CAXIAS                   CXA0077710201910171445RUA MENINO DEUS                                             OIR2131MA123611-SAMTHONDA/CG 125 FAN KS                          PARTICULAR                    MOTOCICLETA     PRETA     00000000NELSON SOUSA PEREIRA                        TV FLORES NR. 764                       - SIRIEMA                               65600001CAXIAS              MACOND. MOTOC/MOTON./CICLOM TRANSPORTANDO/PASSAG.S/C244 * II           00000000070481   000029347007572020010120200214319036723905080000002347785630000002834770332140122007574419703672390508300000000000  000   43    00070433470182570481PASSAGEIRO
2100000000475820191231207570PREF. DE: MA - CAXIAS                   CXA0077712201910171610RUA AARAO REIS                                              NXD6312MA123611-SAMTHONDA/BIZ 125 KS                             PARTICULAR                    MOTONETA        PRETA     00000000ISANICE NEVES E SILVA                       RUA MIGUEL ETHEL QD 3 NR. 22            CASA - OLHO D AGUA                      65600000CAXIAS              MACOND. MOTOC/MOTON./CICLOM TRANSPORTANDO/PASSAG.S/C244 * II           00000000070481   000029347007572020010120200214319036723906850000002347785690000002234770332140122007574419703672390685900000000000  000   44    00070433470427170481PASSAGEIRO
2100000000475820191231207570PREF. DE: MA - CAXIAS                   CXA0077713201910171630PCA MAGALHAES DE ALMEIDA                                    PTH1742MA123611-SAMTHONDA/POP 110I                               PARTICULAR                    MOTOCICLETA     VERMELHA  00000000JOSE ORLANDO DE OLIVEIRA                    TV SAO FRANCISCO NR. 1865               - VOLTA REDONDA                         65606370CAXIAS              MACOND. MOTOCICLETA/MOTONETA/CICLOM S/CAPACETE DE SE244 * I            00000000070301   000029347007572020010120200214319036723907620000002347785630000002834770332140122007574719003672390762600000000000  000   45    00070433470597970301PASSAGEIRO
2100000000475820191231207570PREF. DE: MA - CAXIAS                   CXA0077714201910171635PCA CANDIDO MENDES                                          OIW0201MA123611-SAMTHONDA/NXR150 BROS ESD                        PARTICULAR                    MOTOCICLETA     PRETA     00000000CLEBER NELES DE SOUSA                       AV MAL COSTA E SILVA NR. 1225           - CASTELO BRANCO                        65600000CAXIAS              MACOND. MOTOC/MOTON./CICLOM TRANSPORTANDO/PASSAG.S/C244 * II           00000000070481   000029347007572020010120200214319036723908400000002347785600000002134770332140122007574419703672390840000000000000  000   46    00070433470875770481PASSAGEIRO
2100000000475820191231207570PREF. DE: MA - CAXIAS                   CXA0077908201910171120RUA GETULIO VARGAS                                          OJN2147MA306051-SAMTCHEV/SPIN 1.8L MT LTZ                        OFICIAL                       AUTOMOVEL       BRANCA    00000000PREFEITURA MUNICIPAL DE CAXIAS              PC DO PANTEON NR. 600                   - CENTRO                                65606050CAXIAS              MAESTAC. VEIC. NAS ESQU. E MENOS DE 5M DO ALINHAMENT181 * I            00000000053800   000013016007572020010120200214319036723909270000001041285600000001304120332140522007574419703672390927500000000000  000   47    00040433471319053800PASSAGEIRO
2100000000475820191231207570PREF. DE: MA - CAXIAS                   CXA0077907201910171020RUA RIO DE JANEIRO                                          PTH9319MA306051-SAMTHONDA/POP 110I                               PARTICULAR                    MOTOCICLETA     VERMELHA  00000000JOSE CORREIA FILHO                          RUA SAO FRANCISCO NR. 526               - SAO FRANCISCO                         65600500CAXIAS              MACOND. MOTOC/MOTON./CICLOM TRANSPORTANDO/PASSAG.S/C244 * II           00000000070481   000029347007572020010120200214319036723910680000002347785670000002434770332140122007574419703672391068700000000000  000   48    00070433471491970481PASSAGEIRO
2100000000475820191231207570PREF. DE: MA - CAXIAS                   CXA0075450201910171458RUA GUSTAVO COLACO                                          OXW3532MA122221-SAMTHONDA/BIZ 125 ES                             PARTICULAR                    MOTONETA        PRETA     00000000MARIA CONCEICAO SILVA AMORIM                RUA VENEZA NR. 33                       - VENEZA                                65600010CAXIAS              MAESTAC. EM DESACORDO C/ A REGULAMENTACAO ESPECIFICA181 * XVII         00000000055411   000019523007572020010120200214319036723911450000001561885690000001456180332140622007574419703672391145300000000000  000   49    00050433471694655411PASSAGEIRO
2100000000475820191231207570PREF. DE: MA - CAXIAS                   CXA0077708201910171435RUA MENINO DEUS                                             PTL2798MA123611-SAMTHONDA/NXR160 BROS ESDD                       PARTICULAR                    MOTOCICLETA     VERMELHA  00000000ANTONIO EDUARDO BARREIRA LIMA               RUA PAULO RAMOS NR. 70                  EM FRENTE A PCA DOS - CENTRO            65800000BALSAS              MACOND. MOTOC/MOTON./CICLOM TRANSPORTANDO/PASSAG.S/C244 * II           00000000070481   000029347007572020010120200214319036723912220000002347785600000002134770332140122007574419703672391222000000000000  000   50    00070433471807870481PASSAGEIRO
2100000000475820191231207570PREF. DE: MA - CAXIAS                   CXA0077707201910171418RUA MENINO DEUS                                             PTI1007MA123611-SAMTHONDA/POP 110I                               PARTICULAR                    MOTOCICLETA     BRANCA    00000000VIRGINIA MARQUES DA S FEITOSA               RUA 07 QD-28 NR. N-11                   - COHAB                                 65604661CAXIAS              MACOND. MOTOC/MOTON./CICLOM TRANSPORTANDO/PASSAG.S/C244 * II           00000000070481   000029347007572020010120200214319036723913000000002347785640000002734770332140122007574419703672391300400000000000  000   51    00070433472050170481PASSAGEIRO
2100000000475820191231207570PREF. DE: MA - CAXIAS                   CXA0077706201910171410RUA MENINO DEUS                                             OXR1825MA123611-SAMTYAMAHA/YS150 FAZER ED                        PARTICULAR                    MOTOCICLETA     PRETA     00000000RAIMUNDO JOSE PEREIRA SENA                  RUA DA GALEANA NR. 150                  - OLHO D'AGUA                           65600000CAXIAS              MACOND. MOTOCICLETA/MOTONETA/CICLOM S/CAPACETE DE SE244 * I            00000000070301   000029347007572020010120200214319036723914970000002347785650000002634770332140122007574719003672391497800000000000  000   52    00070433472138970301PASSAGEIRO
2100000000475820191231207570PREF. DE: MA - CAXIAS                   CXA0077705201910171405AV. OTAVIO PASSOS                                           PTH2147MA123611-SAMTHONDA/POP 110I                               PARTICULAR                    MOTOCICLETA     BRANCA    00000000FRANCISCA ANERIS DOS S SOUSA                RUA ANTONIO GONCALVES NR. 1102          - VILA ARIAS                            65600001CAXIAS              MACOND. MOTOCICLETA/MOTONETA/CICLOM S/CAPACETE DE SE244 * I            00000000070301   000029347007572020010120200214319036723915740000002347785610000002034770332140122007574719003672391574400000000000  000   53    00070433472306370301PASSAGEIRO
2100000000475820191231207570PREF. DE: MA - CAXIAS                   CXA0077634201910171410RUA MENINO DEUS                                             NNB5205MA122131-SAMTHONDA/NXR150 BROS MIX ES                     PARTICULAR                    MOTOCICLETA     VERMELHA  00000000IRIZETE ALVES LIMA                          AVENIDA CENTRAL NR. 2502                - MUTIRAO                               65600000CAXIAS              MACOND. MOTOC/MOTON./CICLOM TRANSPORTANDO/PASSAG.S/C244 * II           00000000070481   000029347007572020010120200214319036723916510000002347785600000002134770332140122007574419703672391651000000000000  000   54    00070433472472870481PASSAGEIRO
2100000000475820191231207570PREF. DE: MA - CAXIAS                   CXA0077635201910171405RUA MENINO DEUS                                             NNG7317MA122131-SAMTHONDA/POP100                                 PARTICULAR                    MOTOCICLETA     VERMELHA  00000000PEDRINA DE SOUSA                            TRAV CALDEIROES IV NR. 1554             - CALDEIROES                            65600000CAXIAS              MACOND. MOTOC/MOTON./CICLOM TRANSPORTANDO/PASSAG.S/C244 * II           00000000070481   000029347007572020010120200214319036723917390000002347785630000002834770332140122007574419703672391739300000000000  000   55    00070433474167370481PASSAGEIRO
2100000000475820191231207570PREF. DE: MA - CAXIAS                   CXA0077636201910171425RUA MENINO DEUS                                             PTI2160MA122131-SAMTJTZ/CHOPPER RC                               PARTICULAR                    MOTOCICLETA     PRETA     00000000VICTORIA HANNAH A DE A PASSOS               RUA TAPAJOS NR. 28                      - PQ SANTA LUCIA                        65912305IMPERATRIZ          MACOND. MOTOC/MOTON./CICLOM TRANSPORTANDO/PASSAG.S/C244 * II           00000000070481   000029347007572020010120200214319036723918160000002347785690000002234770332140122007574419703672391816900000000000  000   56    00070433474492370481PASSAGEIRO
2100000000475820191231207570PREF. DE: MA - CAXIAS                   CXA0077953201910170900PCA CANDIDO MENDES                                          OJN4185MA78162-SAMT HONDA/NXR150 BROS ES                         PARTICULAR                    MOTOCICLETA     VERMELHA  00000000JOSE DO NASCIMENTO BARBOSA                  RUA JOTA NUNES NR. SN                   - TERRA BELA                            65395000BURITICUPU          MACOND. MOTOC/MOTON./CICLOM TRANSPORTANDO/PASSAG.S/C244 * II           00000000070481   000029347007572020010120200214319036723919030000002347785650000002634770332140122007574419703672391903500000000000  000   57    00070433475372870481PASSAGEIRO
2100000000475820191231207570PREF. DE: MA - CAXIAS                   CXA0077644201910211730AV RODOVIARIA                                               NXN2311MA122131-SAMTHONDA/CG 150 FAN ESI                         PARTICULAR                    MOTOCICLETA     VERMELHA  00000000MARCIO MARQUES DA SILVA                     RUA 14 NR. NR140                        - VL BEC                                65630000TIMON               MACOND. MOTOCICLETA/MOTONETA/CICLOM S/CAPACETE DE SE244 * I            00000000070301   000029347007572020010120200214319036723920340000002347785650000002634770332140122007574719003672392034800000000000  000   58    00070433475745670301PASSAGEIRO
2100000000475820191231207570PREF. DE: MA - CAXIAS                   CXA0077645201910211735AV SAO LUIS                                                 NND2892MA122131-SAMTHONDA/NXR150 BROS MIX ES                     PARTICULAR                    MOTOCICLETA     PRETA     00000000GILSON ALVES DOS SANTOS                     RUA PROFA ANA  CORREIA NR.              CASA NR 1427 - CENTRO                   65600000CAXIAS              MACOND. MOTOC/MOTON./CICLOM TRANSPORTANDO/PASSAG.S/C244 * II           00000000070481   000029347007572020010120200214319036723921110000002347785640000002734770332140122007574419703672392111400000000000  000   59    00070433475996370481PASSAGEIRO
2100000000475820191231207570PREF. DE: MA - CAXIAS                   CXA0077646201910221730AV LUIS SALES                                               HOM7946MA122131-SAMTHONDA/CG 125 TITAN KS                        PARTICULAR                    MOTOCICLETA     VERMELHA  00000000LUIS AUGUSTO SOUSA TEIXEIRA                 R DA ESTRELA N 28 NR.                   - VL BOM VIVER                          65138000RAPOSA              MACOND. MOTOC/MOTON./CICLOM TRANSPORTANDO/PASSAG.S/C244 * II           00000000070481   000029347007572020010120200214319036723922090000002347785660000002534770332140122007574419703672392209600000000000  000   60    00070433476315470481PASSAGEIRO
2100000000475820191231207570PREF. DE: MA - CAXIAS                   CXA0077911201910181131RUA GUSTAVO COLACO                                          OJG2686MA306051-SAMTHONDA/CG 150 FAN ESI                         PARTICULAR                    MOTOCICLETA     PRETA     00000000DANILSON RODRIGUES SANTOS                   TRAV SAO FRANCISCO NR. 2183             - VOLTA REDONDA                         65600000CAXIAS              MAESTAC. EM DESACORDO C/ A REGULAMENTACAO ESPECIFICA181 * XVII         00000000055411   000019523007572020010120200214319036723923860000001561885680000001556180332140622007574419703672392386200000000000  000   61    00050433476662555411PASSAGEIRO
2100000000475820191231207570PREF. DE: MA - CAXIAS                   CXA0077711201910171450RUA MENINO DEUS                                             OXS4413MA123611-SAMTYAMAHA/YBR125 FACTOR ED                      PARTICULAR                    MOTOCICLETA     AZUL      00000000JOSE RAIMUNDO R DO NASCIMENTO               TV SAO JOAO N-234 NR.                   - SERIEMA                               65602810CAXIAS              MACOND. MOTOC/MOTON./CICLOM TRANSPORTANDO/PASSAG.S/C244 * II           00000000070481   000029347007572020010120200214319036723924630000002347785690000002234770332140122007574419703672392463900000000000  000   62    00070433478339270481PASSAGEIRO
2100000000475820191231207570PREF. DE: MA - CAXIAS                   CXA0077905201910160935PCA CANDIDO MENDES                                          NXG7314MA122111-SAMTHONDA/POP100                                 PARTICULAR                    MOTOCICLETA     VERMELHA  00000000MARCOS AURELIO SILVA COELHO                 R 19 NR. 09                             QD A17 - EUG COUTINHO                   65600010CAXIAS              MAESTAC. EM DESACORDO C/ A REGULAMENTACAO ESPECIFICA181 * XVII         00000000055411   000019523007572020010120200214319036723925400000001561885600000001356180332140622007574419703672392540400000000000  000   63    00050433480713555411PASSAGEIRO
2100000000475820191231207570PREF. DE: MA - CAXIAS                   CXA0077904201910160933PCA DUQUE DE CAXIAS                                         OJJ8003MA122111-SAMTHONDA/POP100                                 PARTICULAR                    MOTOCICLETA     VERMELHA  00000000MARIA JULIA PIRES                           RUA  COHAB NR. 129                      - VENEZA                                65606600CAXIAS              MAESTAC. EM DESACORDO C/ A REGULAMENTACAO ESPECIFICA181 * XVII         00000000055411   000019523007572020010120200214319036723926280000001561885630000001056180332140622007574419703672392628700000000000  000   64    00050433480778055411PASSAGEIRO
3000063000000000063
