1*NATI207570202001170048022020011700000000000000
2000000000480220200117207570PREF. DE: MA - CAXIAS                   CXA0079081201912191555AV GENERAL SAMPAIO                                          NXM9552MA123611-SAMTHONDA/POP100                                 PARTICULAR                    MOTOCICLETA     ROXA      00000000ANA KELLY DE OLIVEIRA                       RUA 02 NR. 26                           - BAIXINHA                              65600000CAXIAS              MACOND. MOTOC/MOTON./CICLOM TRANSPORTANDO/PASSAG.S/C244 * II           00000000070481   0000293470075720200118202003020000000000000000000000000                                                00000000000  000   1     00070447746644770481PASSAGEIRO
2000000000480220200117207570PREF. DE: MA - CAXIAS                   CXA0079083201912191605RUA AARAO REIS                                              OJG7728MA123611-SAMTHONDA/BIZ 125 ES                             PARTICULAR                    MOTONETA        ROSA      00000000PEDRO DA SILVA SANTOS                       TV SANTA MARIA NR. 133                  - VL SAO JOSE                           65600010CAXIAS              MACOND. MOTOC/MOTON./CICLOM TRANSPORTANDO/PASSAG.S/C244 * II           00000000070481   0000293470075720200118202003020000000000000000000000000                                                00000000000  000   2     00070447747197170481PASSAGEIRO
2000000000480220200117207570PREF. DE: MA - CAXIAS                   CXA0079084201912191605RUA AARAO REIS                                              PSE4956MA123611-SAMTHONDA/CG 125 FAN ES                          PARTICULAR                    MOTOCICLETA     VERMELHA  00000000MAGNO CARDOSO DOS SANTOS                    RUA DO FIO NR. 1035                     - CANGALHEIRO                           65600250CAXIAS              MACOND. MOTOC/MOTON./CICLOM TRANSPORTANDO/PASSAG.S/C244 * II           00000000070481   0000293470075720200118202003020000000000000000000000000                                                00000000000  000   3     00070447747437770481PASSAGEIRO
2000000000480220200117207570PREF. DE: MA - CAXIAS                   CXA0079085201912191615RUA AARAO REIS                                              PSR1611MA123611-SAMTYAMAHA/YS150 FAZER SED                       PARTICULAR                    MOTOCICLETA     LARANJA   00000000EDMAR CONCEICAO BARRETO                     RUA DEUS E AMOR NR. 313                 - JOAO VIANA                            65605100CAXIAS              MACOND. MOTOC/MOTON./CICLOM TRANSPORTANDO/PASSAG.S/C244 * II           00000000070481   0000293470075720200118202003020000000000000000000000000                                                00000000000  000   4     00070447747538170481PASSAGEIRO
2000000000480220200117207570PREF. DE: MA - CAXIAS                   CXA0079086201912191615RUA AARAO REIS                                              OXV1332MA123611-SAMTHONDA/NXR150 BROS ESD                        PARTICULAR                    MOTOCICLETA     BRANCA    00000000CLAUDEMIR ROXO CARNEIRO                     PV CAMPINA DOS ROCHOS NR. 24            - CAMPINA ROCHOS                        65278000TURIACU             MACOND. MOTOC/MOTON./CICLOM TRANSPORTANDO/PASSAG.S/C244 * II           00000000070481   0000293470075720200118202003020000000000000000000000000                                                00000000000  000   5     00070447747651570481PASSAGEIRO
2000000000480220200117207570PREF. DE: MA - CAXIAS                   CXA0079087201912191620RUA AARAO REIS                                              NXB5443MA123611-SAMTHONDA/CG 125 FAN KS                          PARTICULAR                    MOTOCICLETA     PRETA     00000000GILCIVAN FERREIRA SILVA                     RUA DA PROSPERIDADE NR. 15              QD B05 - EUG COUTINHO                   65600010CAXIAS              MACOND. MOTOCICLETA/MOTONETA/CICLOM S/CAPACETE DE SE244 * I            00000000070301   0000293470075720200118202003020000000000000000000000000                                                00000000000  000   6     00070447747729570301PASSAGEIRO
2000000000480220200117207570PREF. DE: MA - CAXIAS                   CXA0079089201912191625RUA AARAO REIS                                              OIS9864MA123611-SAMTHONDA/CG150 FAN ESDI                         PARTICULAR                    MOTOCICLETA     PRETA     00000000CRISTIANE DE OLIVEIRA                       RUA L NR. N13                           QD E 05 - VL PARAISO                    65600010CAXIAS              MACOND. MOTOC/MOTON./CICLOM TRANSPORTANDO/PASSAG.S/C244 * II           00000000070481   0000293470075720200118202003020000000000000000000000000                                                00000000000  000   7     00070447747937970481PASSAGEIRO
2000000000480220200117207570PREF. DE: MA - CAXIAS                   CXA0079090201912191625RUA AARAO REIS                                              PTK8802MA123611-SAMTHONDA/BIZ 125                                PARTICULAR                    MOTONETA        VERMELHA  00000000MARIA MIRACI SILVA DO NASCIMENTO            RUA PROF LEONCIO MAGNO NR. 1088         - VOLTA REDONDA                         65606410CAXIAS              MACOND. MOTOCICLETA/MOTONETA/CICLOM S/CAPACETE DE SE244 * I            00000000070301   0000293470075720200118202003020000000000000000000000000                                                00000000000  000   8     00070447747963870301PASSAGEIRO
2000000000480220200117207570PREF. DE: MA - CAXIAS                   CXA0079091201912191715RUA MAGALHAES DE ALMEIDA                                    NND5129MA123611-SAMTHONDA/CG 125 FAN KS                          PARTICULAR                    MOTOCICLETA     PRETA     00000000ANDERSON LEONARDO VENUTO FEITOSA            AV JERUSALEM NR. 2443                   - NOVA CAXIAS                           65600000CAXIAS              MACOND. MOTOC/MOTON./CICLOM TRANSPORTANDO/PASSAG.S/C244 * II           00000000070481   0000293470075720200118202003020000000000000000000000000                                                00000000000  000   9     00070447748166770481PASSAGEIRO
2000000000480220200117207570PREF. DE: MA - CAXIAS                   CXA0079092201912191730AV SENADOR CLODOMIR CARDOSO                                 HPR3141MA123611-SAMTHONDA/C100 BIZ ES                            PARTICULAR                    MOTONETA        VERMELHA  00000000CONCEICAO DE MARIA SANTANA                  R.VINICIUS DUARTE N.50 NR.              - GALIANA                               65600000CAXIAS              MATRANSIT. P/ CONTRAMAO EM VIAS C/ SENT. UNICO      186 * II           00000000057380   0000293470075720200118202003020000000000000000000000000                                                00000000000  000   10    00070447748222157380PASSAGEIRO
2000000000480220200117207570PREF. DE: MA - CAXIAS                   CXA0079093201912191750AV LUIS SALES                                               HQA6435MA123611-SAMTHONDA/CG 125 TITAN KSE                       PARTICULAR                    MOTOCICLETA     VERMELHA  00000000JACKSON SOUSA DOS SANTOS                    RUA MONTE CARMELO NR. 1062              - CAMPO BELEM                           65600010CAXIAS              MACOND. MOTOC/MOTON./CICLOM TRANSPORTANDO/PASSAG.S/C244 * II           00000000070481   0000293470075720200118202003020000000000000000000000000                                                00000000000  000   11    00070447748318070481PASSAGEIRO
2000000000480220200117207570PREF. DE: MA - CAXIAS                   CXA0079095201912191805AV LUIS SALES                                               PSV4406MA123611-SAMTHONDA/CG 125 FAN KS                          PARTICULAR                    MOTOCICLETA     VERMELHA  00000000ALINE AGUIAR OLIVEIRA E SILVA               RUA DO COTOVELO NR. 761                 - CANGALHEIRO                           65606580CAXIAS              MACOND. MOTOC/MOTON./CICLOM TRANSPORTANDO/PASSAG.S/C244 * II           00000000070481   0000293470075720200118202003020000000000000000000000000                                                00000000000  000   12    00070447748601470481PASSAGEIRO
2000000000480220200117207570PREF. DE: MA - CAXIAS                   CXA0078985201912191052RUA RIO DE JANEIRO                                          HPL4403MA305941-SAMTHONDA/CG 125 TITAN KS                        PARTICULAR                    MOTOCICLETA     VERMELHA  00000000OSMAR NUNES DA SILVA                        RUA N S DE FATIMA N.1498 NR.            - VILA LOBAO                            65600000CAXIAS              MAESTAC. EM LOCAL/HORARIO.DE ESTAC. E PARADA PROIBID181 * XIX          00000000055680   0000195230075720200118202003020000000000000000000000000                                                00000000000  000   13    00050447749025955680PASSAGEIRO
2000000000480220200117207570PREF. DE: MA - CAXIAS                   CXA0078988201912191120RUA BENEDITO REIS                                           NHE5456MA305941-SAMTHONDA/CG 125 FAN                             PARTICULAR                    MOTOCICLETA     PRETA     00000000IRACEMA SILVA RAMALHO                       R.CALDEIROES N-197 NR.                  - CALDEIROES                            65608300CAXIAS              MAESTAC. EM DESACORDO C/ A REGULAMENTACAO ESPECIFICA181 * XVII         00000000055411   0000195230075720200118202003020000000000000000000000000                                                00000000000  000   14    00050447749369055411PASSAGEIRO
3000014000000000014
