1*NIPI208030201902260064972019022600000000000000
2100000000649720190226208030PREF. DE: MA - IMPERATRIZ               IPA0177096201812071711R SOUSA LIMA CENTRO P/JUNIOR G                              NND3462MA465437     HONDA/CG 125 FAN ES                          PARTICULAR                    MOTOCICLETA     PRETA     00000000PRESLEY DA SILVA SANTANA                    RUA PROJETADA C NR. 5                   - LEANDRA                               65900000IMPERATRIZ          MAESTACIONAR NAS VAGAS RESERVADAS A IDOSOS, SEM CREDART 181, XX        00000000076252   000029347008032019022720190412319036262413390000002347785670000002434770332120341908034419703626241339000000000000  000   2     00070374291905976252PASSAGEIRO
2100000000649720190226208030PREF. DE: MA - IMPERATRIZ               IPA0177097201812071713R SOUSA LIMA CENTRO P/JUNIOR G                              NWW5403MA465437     HONDA/BIZ 125 ES                             PARTICULAR                    MOTONETA        PRETA     00000000CLAUDIA VIEIRA SILVA                        RUA RUI BARBOSA NR. 1364                - JUCARA                                65900570IMPERATRIZ          MAESTACIONAR NAS VAGAS RESERVADAS A IDOSOS, SEM CREDART 181, XX        00000000076252   000029347008032019022720190412319036262414160000002347785630000002834770332120341908034419703626241416600000000000  000   3     00070374292764776252PASSAGEIRO
2100000000649720190226208030PREF. DE: MA - IMPERATRIZ               IPA0177099201812101646AV GETULIO VARGS CENT P/L TIM                               PTC6215MA465437     HONDA/HR-V EXL CVT                           PARTICULAR                    AUTOMOVEL       BRANCA    00000000MARIA ZILMA MAGALHAES NASCIMENTO            RUA ARAME NR. 01                        - VILINHA                               65915575IMPERATRIZ          MAESTACIONAR AO LADO DE OUTRO VEICULO EM FILA DUPLA 181 * XI           00000000054870   000019523008032019022720190412319036262415030000001561885640000001956180332120841908034419703626241503100000000000  000   4     00050374294525454870PASSAGEIRO
2100000000649720190226208030PREF. DE: MA - IMPERATRIZ               IPA0180012201811271658AV DORGIVAL PINH F/N607 CENTRO                              PSM2720MA465402     CHEVROLET/S10 ADV FD2                        PARTICULAR                    CAMINHONETE     BRANCA    00000000MARIA LUCI BEZERRA CARVALHO                 RUA SIMPLICIO MOREIRA NR. 3312          - BACURI                                65913420IMPERATRIZ          MAESTACIONAR NAS VAGAS RESERV AS PESSOAS C/DEFIC.S/CART 181, XX        00000000076251   000029347008032019022720190412319036262416800000002347785640000002734770332120341908034419703626241680700000000000  000   5     00070374296984676251ESPECIAL
2100000000649720190226208030PREF. DE: MA - IMPERATRIZ               IPA0180015201812080925R EMILIANO AZEVEDO F/N10 CENTR                              HOW7199MA465402     GM/VECTRA GLS                                PARTICULAR                    AUTOMOVEL       PRATA     00000000CLEMILSON BARBOSA COSTA                     RUA SAO RAIMUNDO NR. 155                - CAMACARI                              65900001IMPERATRIZ          MAESTACIONAR EM DESACORDO C/REGULAM-VAGA DE CARGA/DE181 * XVII         00000000055414   000019523008032019022720190412319036262417680000001561885630000001056180332120841908034419703626241768000000000000  000   6     00050374299377155414PASSAGEIRO
2100000000649720190226208030PREF. DE: MA - IMPERATRIZ               IPA0180016201812081119AV PIAUI F/SHOPING TOCANTINS C                              PTE7481MA465402     JEEP/COMPASS LONGITUDE D                     PARTICULAR                    UTILITARIO      BRANCA    00000000SILVIA OLIVEIRA LOIOLA                      RUA 11 NR. 02                           R DA SEREC - PQ DO BURITI               65916390IMPERATRIZ          MAESTACIONAR SOBRE FAIXA DESTINADA A PEDESTRE       181 * VIII         00000000054522   000019523008032019022720190412319036262418450000001561885690000001456180332120841908034419703626241845600000000000  000   7     00050374299916854522MISTO
2100000000649720190226208030PREF. DE: MA - IMPERATRIZ               IPA0180017201812081132RUA MARANHAO L/BANCO ITAU CENT                              PST8599MA465402     FIAT/STRADA HD WK CD E                       PARTICULAR                    CAMINHONETE     VERMELHA  00000000JHONNY DOS SANTOS                           R DIAMANTE NR. 18                       - CJ H BRASIL                           65918525IMPERATRIZ          MAESTACIONAR EM CALCADA REBAIXADA DEST. ENTRADA/SAID181 * IX           00000000054600   000013016008032019022720190412319036262419220000001041285650000001804120332120741908034419703626241922300000000000  000   8     00040374300366054600ESPECIAL
2100000000649720190226208030PREF. DE: MA - IMPERATRIZ               IPA0180018201812081138AV MARANHAO F/BANCO ITAU CENTR                              OIW9134MA465402     FIAT/STRADA WORKING                          PARTICULAR                    CAMINHONETE     BRANCA    00000000ISRAEL VIEIRA DE PAULO                      RUA AQUILES LISBOA NR. N 34             - CENTRO                                65900000IMPERATRIZ          MAESTACIONAR EM DESACORDO C/REGULAMENTACAO-PONTO OU 181 * XVII         00000000055413   000019523008032019022720190412319036262420630000001561885680000001556180332120841908034419703626242063500000000000  000   9     00050374300876955413CARGA
2100000000649720190226208030PREF. DE: MA - IMPERATRIZ               IPA0173402201812201003RUA PIAUI F/TOCANTINS SHOPING                               PSD8241MA535109     FIAT/LINEA ESSENCE 1.8                       PARTICULAR                    AUTOMOVEL       PRETA     00000000SANDRA MARIA M DE MACEDO PACHECO            RUA URBANO SANTOS NR. 650               - CENTRO                                65901550IMPERATRIZ          MAESTAC. EM LOCAL/HORARIO PROIBIDO ESPECIFIC. P/SINA181*XVIII          00000000055500   000013016008032019022720190412319036262421400000001041285630000001004120332120741908034419703626242140100000000000  000   10    00040374303505755500PASSAGEIRO
2100000000649720190226208030PREF. DE: MA - IMPERATRIZ               IPA0173404201812201557AV DORGIVAL PINHEIRO PX PARAIB                              PSK2659MA535109     HONDA/CG 160 FAN ESDI                        PARTICULAR                    MOTOCICLETA     PRETA     00000000KELIANNE SILVA COSTA                        RUA 4 NR. 125                           - BACURI                                65916170IMPERATRIZ          MAESTAC. EM DESACORDO C/ A REGULAMENTACAO ESPECIFICA181 * XVII         00000000055411   000019523008032019022720190412319036262422280000001561885670000001656180332120841908034419703626242228400000000000  000   11    00050374304105755411PASSAGEIRO
2100000000649720190226208030PREF. DE: MA - IMPERATRIZ               IPA0173405201812201558AV DORGIGAL PINHEIRO PX PARAIB                              OXU1460MA535109     HONDA/POP100                                 PARTICULAR                    MOTOCICLETA     PRETA     00000000FERNANDO DE LIMA ALVES                      AV SILVINO SANTOS NR. 64                - VILA MACEDO                           65900000IMPERATRIZ          MAESTAC. EM DESACORDO C/ A REGULAMENTACAO ESPECIFICA181 * XVII         00000000055411   000019523008032019022720190412319036262423050000001561885630000001056180332120841908034419703626242305000000000000  000   12    00050374304884155411PASSAGEIRO
2100000000649720190226208030PREF. DE: MA - IMPERATRIZ               IPA0173426201812270832R SIMPLICIO MOREIRA ESQ.RUI BA                              PSV0199MA535109     RENAULT/SANDERO AUTH 10                      PARTICULAR                    AUTOMOVEL       PRATA     00000000JORGE VALFREDO BATISTA VENTURA              RUA XV DE NOVEMBRO NR. N 932            AP 802 - BEIRA RIO                      65900050IMPERATRIZ          MAAVANCAR SINAL VERMELHO DO SEMAFORO                208                00000000060501   000029347008032019022720190412319036262424920000002347785630000002834770332120341908034419703626242492600000000000  000   13    00070374305382960501PASSAGEIRO
2100000000649720190226208030PREF. DE: MA - IMPERATRIZ               IPA0173427201812281154RUA SOUS LIMA N599                                          PSI0449MA535109     HONDA/BIZ 125 EX                             PARTICULAR                    MOTONETA        BRANCA    00000000IGEANE MADEIRA SILVA                        RUA HENRRIQUE DIAS NR. N 13             - VL NOVA                               65901550IMPERATRIZ          MAESTAC. EM DESACORDO C/ A REGULAMENTACAO ESPECIFICA181 * XVII         00000000055411   000019523008032019022720190412319036262425700000001561885620000001156180332120841908034419703626242570900000000000  000   14    00050374306106655411PASSAGEIRO
2100000000649720190226208030PREF. DE: MA - IMPERATRIZ               IPA0173429201812281158RUA SOUSA LIMA PX/N615                                      PSC8155MA535109     TRAXX/JL50Q-9                                PARTICULAR                    CICLOMOTOR      PRETA     00000000MARIA RAIMUNDA DA SILVA FELIX               AV SANTIAGO CHILE NR. N 117             - PQ AMAZONAS                           65915500IMPERATRIZ          MAESTACIONAR NAS VAGAS RESERVADAS A IDOSOS, SEM CREDART 181, XX        00000000076252   000029347008032019022720190412319036262426570000002347785610000002034770332120341908034419703626242657400000000000  000   15    00070374307654376252PASSAGEIRO
2100000000649720190226208030PREF. DE: MA - IMPERATRIZ               IPA0173430201812281159RUA SOUSA LIMA N615                                         NWV6967MA535109     HONDA/NXR150 BROS ESD                        PARTICULAR                    MOTOCICLETA     LARANJA   00000000MARIA FRANCISCA ALVES BEZERRA               RUA LOS ANGELIS NR. 05                  - VILA VIANA                            65940000GRAJAU              MAESTACIONAR NAS VAGAS RESERVADAS A IDOSOS, SEM CREDART 181, XX        00000000076252   000029347008032019022720190412319036262427340000002347785680000002334770332120341908034419703626242734100000000000  000   16    00070374308329976252PASSAGEIRO
2100000000649720190226208030PREF. DE: MA - IMPERATRIZ               IPA0173432201812291003RUA SOUSA LIMA PX/N615                                      OJM6693MA535109     HONDA/BIZ 125 ES                             PARTICULAR                    MOTONETA        PRETA     00000000ANTONIA CLAUDIA SILVA DOS SANTOS            RUA 51 NR. N 08                         - VL VITORIA                            65900000IMPERATRIZ          MAESTACIONAR NAS VAGAS RESERVADAS A IDOSOS, SEM CREDART 181, XX        00000000076252   000029347008032019022720190412319036262428110000002347785640000002734770332120341908034419703626242811700000000000  000   17    00070374309094576252PASSAGEIRO
2100000000649720190226208030PREF. DE: MA - IMPERATRIZ               IPA0171284201812182210R DA ASSEMBLEIA PROX N152 VL L                              PSO5019MA465321     I/TOYOTA HILUX CDSRVA4FD                     PARTICULAR                    CAMINHONETE     CINZA     00000000GUARUJA EMPREEND REFLOREST LTDA             ROD BR 010 NR. 500                      KM 1351 - ENTRONCAMENTO                 65903390IMPERATRIZ          MAESTAC. EM LOCAL/HORARIO PROIBIDO ESPECIFIC. P/SINA181*XVIII          00000000055500   000013016008032019022720190412319036262429090000001041285610000001204120332120741908034419703626242909900000000000  000   18    00040374311962555500ESPECIAL
2100000000649720190226208030PREF. DE: MA - IMPERATRIZ               IPA0171286201812182135AV DORGIVAL P SOUSA C/R PARAIB                              PSL8783MA465321     JEEP/RENEGADE SPORT AT                       PARTICULAR                    CAMIONETA       BRANCA    00000000LUCIMARY DE SOUSA FREIRES                   RUA PADRE CICERO NR. N 89               - NV HORIZONTE                          65929000SAO FCO. DO BREJAO  MAAVANCAR SINAL VERMELHO DO SEMAFORO                208                00000000060501   000029347008032019022720190412319036262430300000002347785600000002134770332120341908034419703626243030300000000000  000   19    00070374312343660501MISTO
2100000000649720190226208030PREF. DE: MA - IMPERATRIZ               IPA0171287201812212110R EUCLIDES DA CUNHA ATRAS IMPE                              NHR7494MA465321     FIAT/SIENA FIRE FLEX                         PARTICULAR                    AUTOMOVEL       PRATA     00000000ANTONIO MARUEUDES A SILVA                   R TEOTONIO VILELA NR. 2231              - VL NOVA                               65912090IMPERATRIZ          MAESTACIONAR AO LADO DE OUTRO VEICULO EM FILA DUPLA 181 * XI           00000000054870   000019523008032019022720190412319036262431170000001561885610000001256180332120841908034419703626243117800841253597MA000   20    00050374313138254870PASSAGEIRO
2100000000649720190226208030PREF. DE: MA - IMPERATRIZ               IPA0170971201811271003AV DORGIVAL P F/POSTO GOIANO                                PTA5438MA46528      FIAT/TORO FREEDOM AT                         PARTICULAR                    CAMINHONETE     CINZA     00000000OZIMA CURY RAD MELO                         RUA CHAVES NR. 577                      - CENTRO                                65935000SENADOR LA ROQUE    MAESTACIONAR EM CALCADA REBAIXADA DEST. ENTRADA/SAID181 * IX           00000000054600   000013016008032019022720190412319036262432040000001041285660000001704120332120741908034419703626243204400000000000  000   21    00040374313448954600ESPECIAL
2100000000649720190226208030PREF. DE: MA - IMPERATRIZ               IPA0171288201812261941R DOM PEDRO II PROX N1568 BACU                              OJP0625MA465321     CHEVROLET/ONIX 1.0MT LT                      PARTICULAR                    AUTOMOVEL       BRANCA    00000000MICHEL COSTA                                R SIMPLICIO MOREIRA NR. N3115           - BACURI                                65901550IMPERATRIZ          MAESTAC. EM LOCAL/HORARIO PROIBIDO ESPECIFIC. P/SINA181*XVIII          00000000055500   000013016008032019022720190412319036262433810000001041285620000001104120332120741908034419703626243381000000000000  000   22    00040374314675455500PASSAGEIRO
2100000000649720190226208030PREF. DE: MA - IMPERATRIZ               IPA0170972201811280705RUA EUCLIDES APOS PRACA FERRO                               NMW5844MA46528      HONDA/NXR150 BROS ESD                        PARTICULAR                    MOTOCICLETA     PRETA     00000000WANDERSON DOS SANTOS MACHADO                RUA PIRACICABA NR. 501                  C - PQ SANTA LUCIA                      65900010IMPERATRIZ          MAAVANCAR SINAL VERMELHO DO SEMAFORO                208                00000000060501   000029347008032019022720190412319036262434690000002347785600000002134770332120341908034419703626243469300000000000  000   23    00070374315069760501PASSAGEIRO
2100000000649720190226208030PREF. DE: MA - IMPERATRIZ               IPA0171289201812262131R JOSE BONIFACIO F/IMPERIAL SH                              OJC6059MA465321     CHEVROLET/CELTA 1.0L LT                      PARTICULAR                    AUTOMOVEL       PRATA     00000000JOSE SILVA SALES                            AV JOAO CASTELO NR. N 41                - CENTRO                                65395000BURITICUPU          MADIRIGIR VEICULO MANUSEANDO TELEFONE CELULAR       ART 252, & UNICO   00000000076332   000029347008032019022720190412319036262435460000002347785620000002934770332120341908034719003626243546800000000000  000   24    00070374318968276332PASSAGEIRO
2100000000649720190226208030PREF. DE: MA - IMPERATRIZ               IPA0170974201811280847AV DORGIVAL PINHEIRO N824                                   PSH8081MA46528      HONDA/CG 160 TITAN EX                        PARTICULAR                    MOTOCICLETA     VERMELHA  00000000RAILSON RODRIGUES SANTOS BEZERRA            RUA SANTIAGO DO CHILLE NR. N 04A        - PQ AMAZONAS                           65911020IMPERATRIZ          MAESTAC. EM DESACORDO C/ A REGULAMENTACAO ESPECIFICA181 * XVII         00000000055411   000019523008032019022720190412319036262436230000001561885680000001556180332120841908034419703626243623500000000000  000   25    00050374320096155411PASSAGEIRO
2100000000649720190226208030PREF. DE: MA - IMPERATRIZ               IPA0170975201811280913RUA JOAO LISBOA L/N520                                      PTB8491MA46528      FORD/ECOSPORT FSL AT 1.5                     PARTICULAR                    CAMIONETA       PRETA     00000000DIEGO TARSIS SOUSA DE BRITO                 RUA MARANHAO NR. 441                    - CENTRO                                65901590IMPERATRIZ          MAESTACIONAR NO PASSEIO                             181 * VIII         00000000054521   000019523008032019022720190412319036262437000000001561885640000001956180332120841908034419703626243700100000000000  000   26    00050374321393154521MISTO
2100000000649720190226208030PREF. DE: MA - IMPERATRIZ               IPA0171291201812272124R GODOFREDO VIANA PROX N272 CE                              PTE9027MA465321     FORD/KA SE 1.0 HA B                          PARTICULAR                    AUTOMOVEL       VERMELHA  00000000FRANCISCO ASSUNCAO C FILHO                  RUA BANDEIRANTE NR. 589                 - BACURI                                65900001IMPERATRIZ          MAESTACIONAR AO LADO DE OUTRO VEICULO EM FILA DUPLA 181 * XI           00000000054870   000019523008032019022720190412319036262438980000001561885660000001756180332120841908034419703626243898300000000000  000   27    00050374321800354870PASSAGEIRO
2100000000649720190226208030PREF. DE: MA - IMPERATRIZ               IPA0170977201811281100RUA JOAO LISBOA L/N520                                      HOT9936MA46528      FIAT/UNO ELECTRONIC                          PARTICULAR                    AUTOMOVEL       VERDE     00000000OLAVO MARTINS CAMPOS                        RUA F QUADRA 16 NR. 12                  CONJUNTO - NOVA VITORIA II              65900000IMPERATRIZ          MAESTACIONAR NO PASSEIO                             181 * VIII         00000000054521   000019523008032019022720190412319036262439750000001561885620000001156180332120841908034419703626243975900000000000  000   28    00050374323216254521PASSAGEIRO
2100000000649720190226208030PREF. DE: MA - IMPERATRIZ               IPA0172035201812112138R PIAUI FRENT TOCANTINS                                     OJJ3681MA465216     VW/FOX 1.0 BLUEM. GII                        PARTICULAR                    AUTOMOVEL       BRANCA    00000000FERNANDA DE SOUSA FERNANDES                 RUA HERMES DA FONSECA NR. 1214          - VL REDENCAO II                        65900000IMPERATRIZ          MAESTACIONAR SOBRE FAIXA DESTINADA A PEDESTRE       181 * VIII         00000000054522   000019523008032019022720190412319036262440060000001561885650000001856180332120841908034419703626244006200000000000  000   29    00050374323510254522PASSAGEIRO
2100000000649720190226208030PREF. DE: MA - IMPERATRIZ               IPA0170978201811300823AV DORGIVAL O L/RAIUGA MOVEIS                               PSF7448MA46528      TOYOTA/ETIOS HB X                            PARTICULAR                    AUTOMOVEL       PRATA     00000000OLINDA MILHOMEM DA SILVA                    RUA B CASA 18 NR.                       - INDEPENDENCIA                         65915500IMPERATRIZ          MAESTAC. EM DESACORDO C/ A REGULAMENTACAO ESPECIFICA181 * XVII         00000000055411   000019523008032019022720190412319036262441930000001561885610000001256180332120841908034419703626244193800000000000  000   30    00050374324150155411PASSAGEIRO
2100000000649720190226208030PREF. DE: MA - IMPERATRIZ               IPA0172039201812142320R SIMPLICIO MOREIRA F/PRACA DE                              OXT2996MA535206     HONDA/NXR150 BROS ES                         PARTICULAR                    MOTOCICLETA     PRETA     00000000REGINALDO DA SILVA SANTOS                   RUA LEONCIO P DOURADO NR. 983           - BACURI                                65901020IMPERATRIZ          MAESTACIONAR NO PASSEIO                             181 * VIII         00000000054521   000019523008032019022720190412319036262442700000001561885670000001656180332120841908034419703626244270400000000000  000   31    00050374324389054521PASSAGEIRO
2100000000649720190226208030PREF. DE: MA - IMPERATRIZ               IPA0172046201812180056AV MOACYR SPOSITO ESTACIONAMEN                              PSP3113MA465216     VW/NOVO GOL TL MBV                           PARTICULAR                    AUTOMOVEL       BRANCA    00000000JORGE LUIS SOARES MARQUES                   TRAV CAROLINA NR. 17                    CS 2 COND CAROL - JD S MANOEL           65970000PORTO FRANCO        MAESTACIONAR NAS VAGAS RESERVADAS A IDOSOS, SEM CREDART 181, XX        00000000076252   000029347008032019022720190412319036262443580000002347785640000002734770332120341908034419703626244358700000000000  000   32    00070374325151576252PASSAGEIRO
2100000000649720190226208030PREF. DE: MA - IMPERATRIZ               IPA0172047201812180058AV MOACYR SPOSITO ESTACIONAMEN                              JUW7084MA465216     FIAT/PALIO ELX FLEX                          PARTICULAR                    AUTOMOVEL       PRETA     00000000AIRTON LIMA DOS REIS                        RUA MARANHAO NR 150 NR.                 - CENTRO                                65900000IMPERATRIZ          MAESTACIONAR NAS VAGAS RESERV AS PESSOAS C/DEFIC.S/CART 181, XX        00000000076251   000029347008032019022720190412319036262444350000002347785600000002134770332120341908034419703626244435300000000000  000   33    00070374325284876251PASSAGEIRO
2100000000649720190226208030PREF. DE: MA - IMPERATRIZ               IPA0172269201812201708R SOUSA LIMA F/813A CENTRO                                  PSF5438MA465259     VW/NOVO FOX ROCK RIO MB                      PARTICULAR                    AUTOMOVEL       BRANCA    00000000WEIG LIMA OLIVEIRA                          RUA PROJETADA NR. N211A                 - VILA REDENCAO I                       65915500IMPERATRIZ          MAESTACIONAR SOBRE FAIXA DESTINADA A PEDESTRE       181 * VIII         00000000054522   000019523008032019022720190412319036262445120000001561885620000001156180332120841908034419703626244512900000000000  000   34    00050374327184254522PASSAGEIRO
2100000000649720190226208030PREF. DE: MA - IMPERATRIZ               IPA0172270201812201722AV GETULIO VARGAS F/N1543A CEN                              NXB9181MA465259     HONDA/CG 150 TITAN ESD                       PARTICULAR                    MOTOCICLETA     PRETA     00000000MARCELO DA COSTA SOUSA                      RUA IMPERATRIZ LEOPODINA NR. 478        B - BOM SUCESSO                         65901550IMPERATRIZ          MAESTAC. EM DESACORDO C/ A REGULAMENTACAO ESPECIFICA181 * XVII         00000000055411   000019523008032019022720190412319036262446000000001561885650000001856180332120841908034419703626244600200000000000  000   35    00050374327405155411PASSAGEIRO
2100000000649720190226208030PREF. DE: MA - IMPERATRIZ               IPA0170981201811301030RUA JOAO LISBOA N416                                        NNI4183MA46528      FIAT/UNO VIVACE 1.0                          PARTICULAR                    AUTOMOVEL       CINZA     00000000MARIA ARLETE DE SOUSA GOMES                 RUA PERNAMBUCO NR. 105                  - JUCARA                                65900000IMPERATRIZ          MAESTACIONAR SOBRE FAIXA DESTINADA A PEDESTRE       181 * VIII         00000000054522   000019523008032019022720190412319036171728640000001561885620000001156180332120841908034419703617172864900000000000  000   36    00050374327438854522PASSAGEIRO
2100000000649720190226208030PREF. DE: MA - IMPERATRIZ               IPA0170982201811301035AV GETULIO VARGAS N1332                                     HPK9377MA46528      HONDA/C100 BIZ ES                            PARTICULAR                    MOTONETA        PRETA     00000000IARA BARROS BARBOSA                         RUA TUPINAMBA 2519 NR.                  - BACURI                                65900000IMPERATRIZ          MAESTAC. EM DESACORDO C/ A REGULAMENTACAO ESPECIFICA181 * XVII         00000000055411   000019523008032019022720190412319036262447870000001561885600000001356180332120841908034419703626244787700000000000  000   37    00050374327598855411PASSAGEIRO
2100000000649720190226208030PREF. DE: MA - IMPERATRIZ               IPA0170984201811301042AV GETULIO VARGAS N1587                                     OIR2156MA46528      FIAT/UNO SPORTING 1.4                        PARTICULAR                    AUTOMOVEL       VERMELHA  00000000ALFRAN SOUZA DE ALBUQUERQUE                 R CAMBURIU NR. N 24                     - OURO VERDE                            65906372IMPERATRIZ          MAESTAC. EM DESACORDO C/ A REGULAMENTACAO ESPECIFICA181 * XVII         00000000055411   000019523008032019022720190412319036262448640000001561885670000001656180332120841908034419703626244864400000000000  000   38    00050374328049355411PASSAGEIRO
2100000000649720190226208030PREF. DE: MA - IMPERATRIZ               IPA0172669201812132150AV BERNARDO SAYAO F/UPA                                     NMS2230MA597791     GM/CLASSIC LIFE                              PARTICULAR                    AUTOMOVEL       PRATA     00000000MARIA SALETE CONCEICAO DA SILVA             R SAO JOAQUIM NR. SN                    - CENTRO                                65927000DAVINOPOLIS         MAESTACIONAR EM DESACORDO C/REGULAMENTACAO-PONTO OU 181 * XVII         00000000055413   000019523008032019022720190412319036262449410000001561885630000001056180332120841908034419703626244941000000000000  000   39    00050374328336055413PASSAGEIRO
2100000000649720190226208030PREF. DE: MA - IMPERATRIZ               IPA0171542201811141335AV DORGIVAL P N193 VILA LOBAO                               PTD5934MA465267     HONDA/CIVIC SPORT CVT                        PARTICULAR                    AUTOMOVEL       PRETA     00000000TALLES ANTONIO SANTOS FERREIRA              ALAMEDA E 710 C.B LIFE NR.  710         - QUITANDINHA                           65070628SAO LUIS            MADIRIGIR VEICULO MANUSEANDO TELEFONE CELULAR       ART 252, & UNICO   00000000076332   000029347008032019022720190412319036262450820000002347785670000002434770332120341908034619203626245082200000000000  000   40    00070374328965276332PASSAGEIRO
2100000000649720190226208030PREF. DE: MA - IMPERATRIZ               IPA0171545201811141422AV DORGIGAL PINHEIRO N611 CENT                              OJH0263MA465267     CHEVROLET/CLASSIC LS                         PARTICULAR                    AUTOMOVEL       BRANCA    00000000ADEMAR SILVA ARAUJO                         RUA SAO BENTO NR. SN                    - CAB GRANDE                            65968000CAMPESTRE DO MARANHAMAESTAC. EM DESACORDO C/ A REGULAMENTACAO ESPECIFICA181 * XVII         00000000055411   000019523008032019022720190412319036262451600000001561885690000001456180332120841908034419703626245160600000000000  000   41    00050374330379555411PASSAGEIRO
2100000000649720190226208030PREF. DE: MA - IMPERATRIZ               IPA0172671201812182220R DA ASSEMBLEIA LADO BEZERRAO                               PSE4836MA597791     HONDA/HR-V EXL CVT                           PARTICULAR                    AUTOMOVEL       PRATA     00000000AMANDA ALICE GOMES DANTAS                   RUA SAO PAULO NR. 1167                  - NOVA IMPERATRIZ                       65907020IMPERATRIZ          MAESTAC. EM LOCAL/HORARIO PROIBIDO ESPECIFIC. P/SINA181*XVIII          00000000055500   000013016008032019022720190412319036262452470000001041285630000001004120332120741908034419703626245247100000000000  000   42    00040374330551855500PASSAGEIRO
2100000000649720190226208030PREF. DE: MA - IMPERATRIZ               IPA0172674201812140915R RUI BARBOSA C/R SIMPLICIO MO                              PSV2116MA597791     RENAULT/OROCH DYN 16 SCE                     PARTICULAR                    CAMINHONETE     BRANCA    00000000MARIA ALZENY DOS SANTOS LIMA                AV SANTA TEREZA NR. N 150               PROX UNIMED - CENTRO                    65900001IMPERATRIZ          MAAVANCAR SINAL VERMELHO DO SEMAFORO                208                00000000060501   000029347008032019022720190412319036262453240000002347785650000002634770332120341908034419703626245324800000000000  000   43    00070374330690560501ESPECIAL
2100000000649720190226208030PREF. DE: MA - IMPERATRIZ               IPA0171546201811141437RUA SOUSA LIMA N600 CENTRO                                  NXG6060MA465267     HONDA/CG 150 FAN ESI                         PARTICULAR                    MOTOCICLETA     PRETA     00000000VALDECY PAIANA DA SILVA                     RUA 07 NR. N11                          - SUPER QD 602                          65915500IMPERATRIZ          MAESTACIONAR NAS VAGAS RESERV AS PESSOAS C/DEFIC.S/CART 181, XX        00000000076251   000029347008032019022720190412319036262454010000002347785610000002034770332120341908034419703626245401400000000000  000   44    00070374330747276251PASSAGEIRO
2100000000649720190226208030PREF. DE: MA - IMPERATRIZ               IPA0172679201812182145R LEONCIO P DOURADO F/CAIXA EC                              OLN1298MA597791     HYUNDAI/HB20S 1.6M PREM                      PARTICULAR                    AUTOMOVEL       BRANCA    00000000MARIA ANTONIA BASTISTA DE SOUSA             R PROJETADA NR. 15                      - CAEMA                                 65900766IMPERATRIZ          MAESTACIONAR SOBRE FAIXA DESTINADA A PEDESTRE       181 * VIII         00000000054522   000019523008032019022720190412319036262455990000001561885680000001556180332120841908034419703626245599500000000000  000   45    00050374331073254522PASSAGEIRO
2100000000649720190226208030PREF. DE: MA - IMPERATRIZ               IPA0172681201812211055R TANCREDO NEVES ESQ C/AV PEDR                              PSB8781MA597791     HONDA/POP100                                 PARTICULAR                    MOTOCICLETA     PRETA     00000000EDIVALDO DA CONCEICAO DA SILVA              RUA CAROLINA NR. N 24                   - HABIT BRASIL II                       65901550IMPERATRIZ          MAAVANCAR SINAL VERMELHO DO SEMAFORO                208                00000000060501   000029347008032019022720190412319036262456760000002347785680000002334770332120341908034419703626245676100000000000  000   46    00070374331181060501PASSAGEIRO
2100000000649720190226208030PREF. DE: MA - IMPERATRIZ               IPA0171547201811141441AV SOUSA LIMA N900 CENTRO                                   NHK9629MA465267     HONDA/BIZ 125 ES                             PARTICULAR                    MOTONETA        PRETA     00000000SAMARA CARDOSO PEREIRA                      AV DORGIVAL P SOUSA NR. 1855            - ENTROCAMENTO                          65903270IMPERATRIZ          MAESTACIONAR NAS VAGAS RESERV AS PESSOAS C/DEFIC.S/CART 181, XX        00000000076251   000029347008032019022720190412319036262457530000002347785650000002634770332120341908034419703626245753800000000000  000   47    00070374331309076251PASSAGEIRO
2100000000649720190226208030PREF. DE: MA - IMPERATRIZ               IPA0172682201812232250AV BEIRA RIO F/N28                                          PSC1951MA597791     HONDA/CG 150 TITAN EX                        PARTICULAR                    MOTOCICLETA     VERMELHA  00000000LUCAS DOS SANTOS ARAUJO                     RUA AMAZONAS NR. 1237                   - NOVA IMPERATRIZ                       65907140IMPERATRIZ          MAESTAC. EM LOCAL/HORARIO PROIBIDO ESPECIFIC. P/SINA181*XVIII          00000000055500   000013016008032019022720190412319036262458300000001041285660000001704120332120741908034419703626245830400000000000  000   48    00040374331335955500PASSAGEIRO
2100000000649720190226208030PREF. DE: MA - IMPERATRIZ               IPA0172683201812240050AEROPORTO AREA DE EMBARQUE                                  OJG5751MA597791     FIAT/STRADA WORKING CD                       PARTICULAR                    CAMINHONETE     VERMELHA  00000000ITALO INACIO DE LAZARO FILHO                RUA ONILDO GOMES NR. 51                 - CENTRO                                65968000CAMPESTRE DO MARANHAMAESTAC. EM LOCAL/HORARIO PROIBIDO ESPECIFIC. P/SINA181*XVIII          00000000055500   000013016008032019022720190412319036262459180000001041285690000001404120332120741908034419703626245918700000000000  000   49    00040374331394455500ESPECIAL
2100000000649720190226208030PREF. DE: MA - IMPERATRIZ               IPA0172684201812240110AEROPORTO AREA DE EMBARQUE                                  PSF2488MA597791     MMC/L200 TRITON GLS D                        PARTICULAR                    CAMINHONETE     PRETA     00000000RAIMUNDO PEREIRA BRINGEL                    AV ELIAS BARROS NR. N 493               - CENTRO                                65980000CAROLINA            MAESTACIONAR EM DESACORDO C/REGULAMENTACAO-PONTO OU 181 * XVII         00000000055413   000019523008032019022720190412319036262460590000001561885620000001156180332120841908034419703626246059900000000000  000   50    00050374331432055413ESPECIAL
2100000000649720190226208030PREF. DE: MA - IMPERATRIZ               IPA0171548201811141457RUA PIAUI N 1039 CENTRO                                     OXX5756MA465267     VW/NOVO FOX TL MB                            PARTICULAR                    AUTOMOVEL       BRANCA    00000000JOSE LINO DE JESUS                          RUA STA LUZIA NR. N284                  - PEQUIA                                65930000ACAILANDIA          MAESTACIONAR AO LADO DE OUTRO VEICULO EM FILA DUPLA 181 * XI           00000000054870   000019523008032019022720190412319036262461360000001561885680000001556180332120841908034419703626246136500000000000  000   51    00050374331440154870PASSAGEIRO
2100000000649720190226208030PREF. DE: MA - IMPERATRIZ               IPA0172685201812240110AEROPORTO AREA DE EMBARQUE                                  PYP9095MA597791     FIAT/UNO ATTRACTIVE 1.0E                     PARTICULAR                    AUTOMOVEL       CINZA     00000000CLODOALDO MACIEL OLIVEIRA                   RUA BAHIA NR. SN                        - VILA LOBAO                            65970000PORTO FRANCO        MAESTACIONAR EM DESACORDO C/REGULAMENTACAO-PONTO OU 181 * XVII         00000000055413   000019523008032019022720190412319036262462130000001561885650000001856180332120841908034419703626246213200000000000  000   52    00050374331463055413PASSAGEIRO
2100000000649720190226208030PREF. DE: MA - IMPERATRIZ               IPA0172686201812251940AV BEIRA RIO AREA DE ESTACIONA                              OJE9408MA597791     VW/NOVO GOL 1.0 TRACK                        PARTICULAR                    AUTOMOVEL       VERMELHA  00000000LUCIANO GABRIEL DE SOUSA LIMA               AV SAO SEBASTIAO NR. 568                - VILA NOVA                             65930000IMPERATRIZ          MAESTACIONAR AO LADO DE OUTRO VEICULO EM FILA DUPLA 181 * XI           00000000054870   000019523008032019022720190412319036262463000000001561885600000001356180332120841908034419703626246300700000000000  000   53    00050374331529754870PASSAGEIRO
2100000000649720190226208030PREF. DE: MA - IMPERATRIZ               IPA0172687201812251945AV BEIRA RIO F/N28                                          OIT4199MA597791     FIAT/PALIO FIRE ECONOMY                      ALUGUEL                       AUTOMOVEL       PRATA     00000000ISIDORIO VIRGINIO DE SOUSA                  RUA PADRE CICERO NR. 364                - SANTA RITA                            65900001IMPERATRIZ          MAESTAC. EM LOCAL/HORARIO PROIBIDO ESPECIFIC. P/SINA181*XVIII          00000000055500   000013016008032019022720190412319036262464880000001041285620000001104120332120741908034419703626246488000000000000  000   54    00040374331546755500PASSAGEIRO
2100000000649720190226208030PREF. DE: MA - IMPERATRIZ               IPA0171549201811141514RUA LUIS DOMINGUES N 1386                                   PSI5933MA465267     RENAULT/SANDERO EXPR 10                      PARTICULAR                    AUTOMOVEL       BRANCA    00000000KASSANDRA FREITAS DE CARVALHO               RUA PARANAIBA NR. N 777                 - CARAIBAS                              65915500IMPERATRIZ          MAESTACIONAR NO PONTO DE EMBARQUE/DESEMBARQUE DE PAS181 * XIII         00000000055090   000013016008032019022720190412319036262465650000001041285670000001604120332120741908034419703626246565500000000000  000   55    00040374331551355090PASSAGEIRO
2100000000649720190226208030PREF. DE: MA - IMPERATRIZ               IPA0172688201812251950AV BEIRA RIO PROXIMO N28                                    MXB5181MA597791     GM/PRISMA MAXX                               PARTICULAR                    AUTOMOVEL       VERMELHA  00000000JORGE LUIZ DE JESUS ALVES                   RUA ESMERALDA NR. 23                    - CJ HB BRASIL                          65918480IMPERATRIZ          MAESTAC. EM LOCAL/HORARIO PROIBIDO ESPECIFIC. P/SINA181*XVIII          00000000055500   000013016008032019022720190412319036262466420000001041285640000001904120332120741908034419703626246642200000000000  000   56    00040374331577755500PASSAGEIRO
2100000000649720190226208030PREF. DE: MA - IMPERATRIZ               IPA0172689201812251950AV BEIRA RIO F/N07                                          JVQ8498MA597791     VW/GOL 1.0                                   PARTICULAR                    AUTOMOVEL       VERMELHA  00000000BRUNA ELAINE L LUCENA                       RUA TUPI NR. N 253                      - VL REDENCAO                           65900000IMPERATRIZ          MAESTAC. EM LOCAL/HORARIO PROIBIDO ESPECIFIC. P/SINA181*XVIII          00000000055500   000013016008032019022720190412319036262467200000001041285680000001504120332120741908034419703626246720600000000000  000   57    00040374331818055500PASSAGEIRO
2100000000649720190226208030PREF. DE: MA - IMPERATRIZ               IPA0172690201812252020AV BEIRA RIO LADO N28                                       NXN0909MA597791     VW/FOX 1.0 GII                               PARTICULAR                    AUTOMOVEL       PRATA     00000000CHAYANE PIRES DE CARVALHO                   RUA TIRADENTES I NR. NR627              - CENTRO                                65930000ACAILANDIA          MAESTAC. EM LOCAL/HORARIO PROIBIDO ESPECIFIC. P/SINA181*XVIII          00000000055500   000013016008032019022720190412319036262468070000001041285630000001004120332120741908034419703626246807100000000000  000   58    00040374331938155500PASSAGEIRO
2100000000649720190226208030PREF. DE: MA - IMPERATRIZ               IPA0172691201812260100AEROPORTO AREA DE EMBARQUE                                  NMT9301MA597791     GM/CORSA SEDAN PREMIUM                       PARTICULAR                    AUTOMOVEL       BRANCA    00000000OSVANIR DUARTE ALMEIDA                      R MTE ALEGRE NR. 39                     - PARQUE AMAZONAS                       65911075IMPERATRIZ          MAESTAC. EM LOCAL/HORARIO PROIBIDO ESPECIFIC. P/SINA181*XVIII          00000000055500   000013016008032019022720190412319036262469940000001041285690000001404120332120741908034419703626246994706276903551MA000   59    00040374332124655500PASSAGEIRO
2100000000649720190226208030PREF. DE: MA - IMPERATRIZ               IPA0173001201812181615R PARA 761 CENTRO                                           NMZ9475MA535141     FORD/KA FLEX                                 PARTICULAR                    AUTOMOVEL       VERDE     00000000ANTONIO GILVAN N MARINHO                    RUA MARANHAO NR.735 NR.                 - CENTRO                                65900000IMPERATRIZ          MAESTAC. EM LOCAL/HORARIO PROIBIDO ESPECIFIC. P/SINA181*XVIII          00000000055500   000013016008032019022720190412319036262470250000001041285610000001204120332120741908034419703626247025900000000000  000   60    00040374332446655500PASSAGEIRO
2100000000649720190226208030PREF. DE: MA - IMPERATRIZ               IPA0173002201812181618R AQUILES LISBOA 498 MERCADINH                              PSW4345MA535141     HYUNDAI/HB20 1.6A COMF                       PARTICULAR                    AUTOMOVEL       BRANCA    00000000ENRICO FERMI ROSENDO L RIBEIRO              RUA RIO DE JANEIRO NR. 386              - ENTRONCAMENTO                         65903030IMPERATRIZ          MAESTACIONAR AO LADO DE OUTRO VEICULO EM FILA DUPLA 181 * XI           00000000054870   000019523008032019022720190412319036262471020000001561885690000001456180332120841908034419703626247102600000000000  000   61    00050374332659054870PASSAGEIRO
2100000000649720190226208030PREF. DE: MA - IMPERATRIZ               IPA0173003201812181630R SOUSA LIMA 699 CENTRO                                     NXE3168MA535141     HONDA/BIZ 125 ES                             PARTICULAR                    MOTONETA        PRETA     00000000STEPHESON SOUZA DA SILVA                    RUA PERNAMBUCO NR. 1986                 - SANTA RITA                            65919160IMPERATRIZ          MAESTACIONAR NAS VAGAS RESERV AS PESSOAS C/DEFIC.S/CART 181, XX        00000000076251   000029347008032019022720190412319036262472900000002347785660000002534770332120341908034419703626247290900000000000  000   62    00070374332756276251PASSAGEIRO
2100000000649720190226208030PREF. DE: MA - IMPERATRIZ               IPA0173005201812181645R SOUSA LIMA 748 CENTRO                                     ORH6087MA535141     TOYOTA/ETIOS SD XLS                          PARTICULAR                    AUTOMOVEL       BRANCA    00000000NELSON MOTA MONTEIRO                        RUA SANTO AGOSTINHO NR. 702             - BOM SUCESSO                           65905090IMPERATRIZ          MAESTAC. EM LOCAL/HORARIO PROIBIDO ESPECIFIC. P/SINA181*XVIII          00000000055500   000013016008032019022720190412319036262473770000001041285660000001704120332120741908034419703626247377400000000000  000   63    00040374332835655500PASSAGEIRO
2100000000649720190226208030PREF. DE: MA - IMPERATRIZ               IPA0173008201812181725R PIAUI 790 CENTRO                                          NWW3150MA535141     MMC/PAJERO TR4 FLEX HP                       PARTICULAR                    UTILITARIO      VERMELHA  00000000SILVIO LOPES ZANNI                          RUA GOIAS NR. N 01                      APT 1702 - MARANHAO NOVO                65903060IMPERATRIZ          MAESTACIONAR EM DESACORDO C/REGULAM-VAGA DE CARGA/DE181 * XVII         00000000055414   000019523008032019022720190412319036262474540000001561885640000001956180332120841908034419703626247454100000000000  000   64    00050374332898455414MISTO
2100000000649720190226208030PREF. DE: MA - IMPERATRIZ               IPA0173009201812181727R PIAUI 790 CENTRO                                          NWS6834MA535141     FORD/KA FLEX                                 PARTICULAR                    AUTOMOVEL       VERMELHA  00000000SAYMON COSTA TIAGO                          RUA BOM FUTURO NR. N1748                - CENTRO                                65900440IMPERATRIZ          MAESTACIONAR EM DESACORDO C/REGULAM-VAGA DE CARGA/DE181 * XVII         00000000055414   000019523008032019022720190412319036262475310000001561885690000001456180332120841908034419703626247531600000000000  000   65    00050374332956555414PASSAGEIRO
2100000000649720190226208030PREF. DE: MA - IMPERATRIZ               IPA0173010201812190930AV DORGIVAL P SOUSA LADO ARMAZ                              OIS6023MA535141     HONDA/CG 125 FAN KS                          PARTICULAR                    MOTOCICLETA     ROXA      00000000ANTONIO AIRES LIMA                          R URBANO SANTOS NR. 648                 - JUCARA                                65900505IMPERATRIZ          MAESTAC. EM DESACORDO C/ A REGULAMENTACAO ESPECIFICA181 * XVII         00000000055411   000019523008032019022720190412319036262476190000001561885620000001156180332120841908034419703626247619900000000000  000   66    00050374333016455411PASSAGEIRO
2100000000649720190226208030PREF. DE: MA - IMPERATRIZ               IPA0173013201812191520R SIMPLICIO MOREIRA 1657 CENTR                              NHC0005MA535141     GM/PRISMA MAXX                               PARTICULAR                    AUTOMOVEL       PRATA     00000000VERA LUCIA DE CASTRO ROSIGNOLI              AV NEWTON BELLO NR. 484                 - STA RITA                              65919050IMPERATRIZ          MAESTACIONAR NAS VAGAS RESERV AS PESSOAS C/DEFIC.S/CART 181, XX        00000000076251   000029347008032019022720190412319036262477060000002347785610000002034770332120341908034419703626247706400000000000  000   67    00070374333074176251PASSAGEIRO
2100000000649720190226208030PREF. DE: MA - IMPERATRIZ               IPA0173015201812191627R LUIS DOMINGUES 1091 CENTRO                                PTC9106MA535141     HONDA/BIZ 125                                PARTICULAR                    MOTONETA        BRANCA    00000000TEREZINHA DE JESUS B VELOSO                 RUA TUPINAMBA NR. 88                    - CENTRO                                65901110IMPERATRIZ          MAESTACIONAR EM CALCADA REBAIXADA DEST. ENTRADA/SAID181 * IX           00000000054600   000013016008032019022720190412319036262478830000001041285630000001004120332120741908034419703626247883100000000000  000   68    00040374333137354600PASSAGEIRO
2100000000649720190226208030PREF. DE: MA - IMPERATRIZ               IPA0173016201812191635R SOUSA LIMA 615 CENTRO                                     NHO9481MA535141     HONDA/CG 150 SPORT                           PARTICULAR                    MOTOCICLETA     VERMELHA  00000000JOSE NILTON NASCIMENTO DE MOURA             RUA E NR. 401                           - SANTA RITA                            65900000IMPERATRIZ          MAESTACIONAR NAS VAGAS RESERV AS PESSOAS C/DEFIC.S/CART 181, XX        00000000076251   000029347008032019022720190412319036262479600000002347785640000002734770332120341908034419703626247960700000000000  000   69    00070374333155176251PASSAGEIRO
2100000000649720190226208030PREF. DE: MA - IMPERATRIZ               IPA0173017201812191637R SOUSA LIMA 615 CENTRO                                     PSV9229MA535141     HONDA/CG 160 TITAN EX                        PARTICULAR                    MOTOCICLETA     PRETA     00000000EUSILENE DE SOUSA COSTA                     RUA P DE CARVALHO NR. 634               - BOM SUCESSO                           65905100IMPERATRIZ          MAESTACIONAR NAS VAGAS RESERV AS PESSOAS C/DEFIC.S/CART 181, XX        00000000076251   000029347008032019022720190412319036262480010000002347785660000002534770332120341908034419703626248001900000000000  000   70    00070374333179976251PASSAGEIRO
2100000000649720190226208030PREF. DE: MA - IMPERATRIZ               IPA0173018201812191640R SOUSA LIMA 615 CENTRO                                     NWT1291MA535141     HONDA/CG150 FAN ESDI                         PARTICULAR                    MOTOCICLETA     VERMELHA  00000000WALDIJO DE FREITAS SILVA                    RUA OSVALDO CRUZ NR. 195                - BACURI                                65901550IMPERATRIZ          MAESTACIONAR NAS VAGAS RESERV AS PESSOAS C/DEFIC.S/CART 181, XX        00000000076251   000029347008032019022720190412319036262481890000002347785690000002234770332120341908034419703626248189200000000000  000   71    00070374333253176251PASSAGEIRO
2100000000649720190226208030PREF. DE: MA - IMPERATRIZ               IPA0173020201812191646R SOUSA LIMA 603 CENTRO                                     NMT8928MA535141     HONDA/BIZ 125 ES                             PARTICULAR                    MOTONETA        VERMELHA  00000000ZILMA CARVALHO DOS SANTOS                   RUA 2 IRMAOS NR. 526                    - VILA LOBAL                            65910550IMPERATRIZ          MAESTACIONAR NAS VAGAS RESERVADAS A IDOSOS, SEM CREDART 181, XX        00000000076252   000029347008032019022720190412319036262482660000002347785650000002634770332120341908034419703626248266800000000000  000   72    00070374333455076252PASSAGEIRO
2100000000649720190226208030PREF. DE: MA - IMPERATRIZ               IPA0173021201812191924AV DORGIVAL P SOUSA C/R SIMPLI                              PTF9266MA535141     HONDA/CG150 FAN ESDI                         PARTICULAR                    MOTOCICLETA     VERMELHA  00000000CLAUDENILDE DA CRUZ LIMA                    RUA 7 DE SETEMBRO NR. 0                 - CUMARU                                65935000SENADOR LA ROQUE    MAAVANCAR SINAL VERMELHO DO SEMAFORO                208                00000000060501   000029347008032019022720190412319036262483430000002347785620000002934770332120341908034419703626248343500000000000  000   73    00070374333568960501PASSAGEIRO
2100000000649720190226208030PREF. DE: MA - IMPERATRIZ               IPA0173022201812201423R CORIOLANO MILHOMEM CALCADAO                               NMW7544MA535141     HONDA/NXR150 BROS ES                         PARTICULAR                    MOTOCICLETA     PRETA     00000000ABNOAM DOS PRAZERES MARTINS                 RUA CAROLINA NR.                        - CJ BRASIL NOVO                        65900000IMPERATRIZ          MAESTACIONAR NAS VAGAS RESERV AS PESSOAS C/DEFIC.S/CART 181, XX        00000000076251   000029347008032019022720190412319036262484200000002347785680000002334770332120341908034419703626248420100000000000  000   74    00070374333714276251PASSAGEIRO
2100000000649720190226208030PREF. DE: MA - IMPERATRIZ               IPA0173023201812201430R AMAZONAS ENTRE AV DORGIVAL P                              NHA2457MA535141     HONDA/NXR150 BROS ESD                        PARTICULAR                    MOTOCICLETA     PRETA     00000000FRANCISCO ROMARIO G. DA SILVA               AV SIMPLICIO MOREIRA NR NR. 2236        - CENTRO                                65922000JOAO LISBOA         MATRANSIT. P/ CONTRAMAO EM VIAS C/ SENT. UNICO      186 * II           00000000057380   000029347008032019022720190412319036262485080000002347785600000002134770332120341908034419703626248508300000000000  000   75    00070374333831957380PASSAGEIRO
2100000000649720190226208030PREF. DE: MA - IMPERATRIZ               IPA0173025201812201432R PARA PROX N761 CENTRO                                     KAV7704MA535141     FORD/F100                                    PARTICULAR                    CAMINHONETE     VERMELHA  00000000JOSE LUIZ DA SILVA                          RUA SIMPLICIO MOREIRA NR. 3737          - BACURI                                65900000IMPERATRIZ          MADEIXAR O CONDUTOR DE USAR O CINTO E SEGURANCA     167                00000000051851   000019523008032019022720190412319036262486950000001561885680000001556180332120841908034719003626248695800000000000  000   76    00050374333975751851CARGA
2100000000649720190226208030PREF. DE: MA - IMPERATRIZ               IPA0171550201811141729AV DORGIVAL P N1879 ENTRONCAME                              NXF8029MA465267     FIAT/PALIO ATTRACTIV 1.4                     PARTICULAR                    AUTOMOVEL       BRANCA    00000000FRANCINEIDE DA SILVA DUARTE                 QUADRA 45 NR. LT 82                     - VL ILDEMAR                            65930000ACAILANDIA          MAESTAC. EM LOCAL/HORARIO PROIBIDO ESPECIFIC. P/SINA181*XVIII          00000000055500   000013016008032019022720190412319036262487720000001041285670000001604120332120741908034419703626248772500000000000  000   77    00040374334205755500PASSAGEIRO
2100000000649720190226208030PREF. DE: MA - IMPERATRIZ               IPA0173027201812201558AV DORGIVAL P SOUSA LADO ARMAZ                              OIZ6696MA535141     HONDA/CG 150 TITAN ESD                       PARTICULAR                    MOTOCICLETA     VERMELHA  00000000MAYANE DURVAL SOUSA                         RUA MARANHAO NR. N 635                  - NV IMPERATRIZ                         65900000IMPERATRIZ          MAESTAC. EM DESACORDO C/ A REGULAMENTACAO ESPECIFICA181 * XVII         00000000055411   000019523008032019022720190412319036262488500000001561885620000001156180332120841908034419703626248850900000000000  000   78    00050374334242155411PASSAGEIRO
2100000000649720190226208030PREF. DE: MA - IMPERATRIZ               IPA0173028201812260958R SIMPLICIO MOREIRA 1590 CENTR                              PSI3085MA535141     HONDA/BIZ 125 ES                             PARTICULAR                    MOTONETA        PRATA     00000000SAMARA LIMA CARVALHO                        AV INSDUSTRIAL NR. 584                  A - BOM SUCESSO                         65901550IMPERATRIZ          MAESTACIONAR EM DESACORDO C/REGULAM-VAGA DE CARGA/DE181 * XVII         00000000055414   000019523008032019022720190412319036262489370000001561885670000001656180332120841908034419703626248937400000000000  000   79    00050374334376255414PASSAGEIRO
2100000000649720190226208030PREF. DE: MA - IMPERATRIZ               IPA0173029201812261005R CORIOLANO MILHOMEM 1727 CENT                              OJO2507MA535141     RENAULT/SANDERO EXP1016V                     PARTICULAR                    AUTOMOVEL       VERMELHA  00000000ELENILSON ALVES GOMES                       RUA 04 NR. 13                           - VL IPIRANGA                           65900000IMPERATRIZ          MAESTACIONAR EM CALCADA REBAIXADA DEST. ENTRADA/SAID181 * IX           00000000054600   000013016008032019022720190412319036262490780000001041285680000001504120332120741908034419703626249078600000000000  000   80    00040374334623054600PASSAGEIRO
2100000000649720190226208030PREF. DE: MA - IMPERATRIZ               IPA0171594201811300940AV DORGIVAL P CENTR C/AV CEARA                              QKB1447MA535150     TOYOTA/COROLLA GLI18 CVT                     PARTICULAR                    AUTOMOVEL       BRANCA    00000000K A OLIVEIRA E CIA LTDA                     AV DORGIVAL P DE SOUSA NR. 1025A        - CENTRO                                65903270IMPERATRIZ          MAESTAC. VEIC. NAS ESQU. E MENOS DE 5M DO ALINHAMENT181 * I            00000000053800   000013016008032019022720190412319036262491550000001041285640000001904120332120741908034419703626249155200000000000  000   81    00040374335498553800PASSAGEIRO
2100000000649720190226208030PREF. DE: MA - IMPERATRIZ               IPA0171596201811300955RUA SOUSA LIMA CENTRO F/N599                                PSL7296MA535150     HONDA/NXR160 BROS ESDD                       PARTICULAR                    MOTOCICLETA     PRETA     00000000LUCILENE DE ALMEIDA SA                      R DAVI MICHEL NR. 523                   - CENTRO                                65927000DAVINOPOLIS         MAESTACIONAR NAS VAGAS RESERV AS PESSOAS C/DEFIC.S/CART 181, XX        00000000076251   000029347008032019022720190412319036262492320000002347785660000002534770332120341908034419703626249232900000000000  000   82    00070374336922276251PASSAGEIRO
2100000000649720190226208030PREF. DE: MA - IMPERATRIZ               IPA0171598201811301015R PARA CENTRO F/PST ALVORADA 2                              PZY6079MA535150     FIAT/UNO DRIVE 1.0                           PARTICULAR                    AUTOMOVEL       PRATA     00000000WILLAS CHARLYS MELO MACIEL                  RUA PARAIBA NR. 727                     - NOVA IMPERATRIZ                       65907260IMPERATRIZ          MAESTACIONAR NO PASSEIO                             181 * VIII         00000000054521   000019523008032019022720190412319036262493100000001561885660000001756180332120841908034419703626249310300000000000  000   83    00050374338353554521PASSAGEIRO
2100000000649720190226208030PREF. DE: MA - IMPERATRIZ               IPA0171599201811301020R PARA CENTRO F/POST ALVORAD 3                              NMQ0972MA535150     VW/GOL 1.0 GIV                               PARTICULAR                    AUTOMOVEL       PRATA     00000000ROBSON SIQUEIRA OLIVEIRA                    R CEARA NR. 1644                        - BACURI                                65900000IMPERATRIZ          MAESTACIONAR NO PASSEIO                             181 * VIII         00000000054521   000019523008032019022720190412319036262494070000001561885600000001356180332120841908034419703626249407700000000000  000   84    00050374339199654521PASSAGEIRO
2100000000649720190226208030PREF. DE: MA - IMPERATRIZ               IPA0171600201811301030AV CEARA CENT ESQ.C/AQUILIS LI                              NXM2377MA535150     I/FIAT SIENA FIRE FLEX                       PARTICULAR                    AUTOMOVEL       VERMELHA  00000000MARIA DO AMPARO L DOS S VIEIRA              RUA 16 NR. 36                           - PQ SAO JOSE                           65901000IMPERATRIZ          MAESTAC. VEIC. NAS ESQU. E MENOS DE 5M DO ALINHAMENT181 * I            00000000053800   000013016008032019022720190412319036262495840000001041285650000001804120332120741908034419703626249584300000000000  000   85    00040374339817653800PASSAGEIRO
2100000000649720190226208030PREF. DE: MA - IMPERATRIZ               IPA0122670201901041000RUA EUCLIDES DA CUNHA N94                                   HPP0247MA71340      VW/GOL 1.0                                   PARTICULAR                    AUTOMOVEL       BRANCA    00000000NILTON CESAR DE ARAUJO                      RUA IMPERATRIZ NR. 36                   - VL BRASIL                             65900000IMPERATRIZ          MAESTAC. EM LOCAL/HORARIO PROIBIDO ESPECIFIC. P/SINA181*XVIII          00000000055500   000013016008032019022720190412319036262496610000001041285610000001204120332120741908034419703626249661900000000000  000   86    00040374341584455500PASSAGEIRO
2100000000649720190226208030PREF. DE: MA - IMPERATRIZ               IPA0122669201811121406RUA EUCLIDES DA CUNHA N94                                   NLH4321MA1694634    VW/GOL 1.0                                   PARTICULAR                    AUTOMOVEL       PRATA     00000000MARIA VALDELICE FONSECA                     RUA DOM ORIONE NR. NR01                 SETOR - BELA VISTA                      65975000ESTREITO            MAESTAC. EM LOCAL/HORARIO PROIBIDO ESPECIFIC. P/SINA181*XVIII          00000000055500   000013016008032019022720190412319036262497490000001041285640000001904120332120741908034419703626249749200000000000  000   87    00040374343084355500PASSAGEIRO
2100000000649720190226208030PREF. DE: MA - IMPERATRIZ               IPA0122664201901041000RUA EUCLIDES DA CUNHA N94                                   OJI9600MA71340      RENAULT/SANDERO EXP1016V                     PARTICULAR                    AUTOMOVEL       PRATA     00000000DENYS RODRIGUES B MARINHO                   RUA HERMES DA FONSECA NR. N 276         - CENTRO                                65900400IMPERATRIZ          MAESTAC. EM LOCAL/HORARIO PROIBIDO ESPECIFIC. P/SINA181*XVIII          00000000055500   000013016008032019022720190412319036262498260000001041285600000001304120332120741908034419703626249826800000000000  000   88    00040374344975755500PASSAGEIRO
2100000000649720190226208030PREF. DE: MA - IMPERATRIZ               IPA0174261201811301426AV DORGIVAL PINHEIRO F/N1515                                PSX5246MA387053     I/TOYOTA HILUX CDSRVA4FD                     PARTICULAR                    CAMINHONETE     PRATA     00000000JACOBINA AUTO PECAS LTDA                    AV SANTA LUZIA NR. NR 33                - CENTRO                                65930000ACAILANDIA          MAESTAC. EM LOCAL/HORARIO PROIBIDO ESPECIFIC. P/SINA181*XVIII          00000000055500   000013016008032019022720190412319036262499030000001041285670000001604120332120741908034419703626249903500000000000  000   89    00040374346349055500ESPECIAL
2100000000649720190226208030PREF. DE: MA - IMPERATRIZ               IPA0174263201811301520AV DORGIVAL PINHEIRO F/N1193                                NWV5936MA387053     I/KIA PICANTO EX3 1.0L                       PARTICULAR                    AUTOMOVEL       BRANCA    00000000REJANE MOREIRA PESSOA                       RUA URBUNO SANTOS NR. 482               - CENTRO                                65907070IMPERATRIZ          MAESTAC. EM LOCAL/HORARIO PROIBIDO ESPECIFIC. P/SINA181*XVIII          00000000055500   000013016008032019022720190412319036262500860000001041285670000001604120332120741908034419703626250086500000000000  000   90    00040374590556355500PASSAGEIRO
2100000000649720190226208030PREF. DE: MA - IMPERATRIZ               IPA0172630201812091513R JOAO LISBOA F/SINDI DOS TRAB                              OLH6560MA53447      I/TOYOTA HILUX CD4X4 SRV                     PARTICULAR                    CAMINHONETE     PRATA     00000000JOSE ROBERTO FERNANDES                      RUA JOAO LISBOA NR. 1249                - CENTRO                                65900000IMPERATRIZ          MAESTACIONAR EM CALCADA REBAIXADA DEST. ENTRADA/SAID181 * IX           00000000054600   000013016008032019022720190412319036262501630000001041285640000001904120332120741908034419703626250163200000000000  000   91    00040374590840654600ESPECIAL
2100000000649720190226208030PREF. DE: MA - IMPERATRIZ               IPA0172635201812071400AV GETULIO VARGAS N/1833                                    OXZ7130MA53447      CHEVROLET/ONIX 1.4MT LT                      PARTICULAR                    AUTOMOVEL       BRANCA    00000000ANA EUGENIA DE JESUS S QUEIROGA             RUA DOS BENTIVIS APT 04 NR. N 04        BL 05 - SANTA INES                      65900000IMPERATRIZ          MAESTAC. EM DESACORDO C/ A REGULAMENTACAO ESPECIFICA181 * XVII         00000000055411   000019523008032019022720190412319036262502400000001561885610000001256180332120841908034419703626250240800000000000  000   92    00050374591361255411PASSAGEIRO
2100000000649720190226208030PREF. DE: MA - IMPERATRIZ               IPA0173032201812270920R SIMPLICIO MOREIRA C/AV GETUL                              PTF5895MA53511      FIAT/TORO FREEDOM AT9 D                      PARTICULAR                    CAMINHONETE     VERMELHA  00000000ADAO OLIVEIRA DE SOUSA                      RUA 12 DE OUTUBRO NR. SN                - CENTRO                                65970000PORTO FRANCO        MAAVANCAR SINAL VERMELHO DO SEMAFORO                208                00000000060501   000029347008032019022720190412319036262503280000002347785680000002334770332120341908034419703626250328100000000000  000   93    00070374591726060501ESPECIAL
2100000000649720190226208030PREF. DE: MA - IMPERATRIZ               IPA0172636201812071406AV GETULIO VARGAS N/1933                                    NHJ0611MA53447      I/GM CLASSIC LIFE                            PARTICULAR                    AUTOMOVEL       PRATA     00000000LUCIANO CARVALHO DE SOUSA                   RUA PARA NR. N1262                      - CENTRO                                65900000IMPERATRIZ          MAESTAC. EM LOCAL/HORARIO PROIBIDO ESPECIFIC. P/SINA181*XVIII          00000000055500   000013016008032019022720190412319036262504050000001041285690000001404120332120741908034419703626250405700000000000  000   94    00040374591839855500PASSAGEIRO
2100000000649720190226208030PREF. DE: MA - IMPERATRIZ               IPA0174264201811301522AV DORGIVAL PINHEIRO F/N1193                                PSV2014MA387053     RENAULT/DUSTER EXP16 SCE                     PARTICULAR                    CAMIONETA       BRANCA    00000000EDINEUDES P B DAMASCENO PERPETUO            RUA ANTONIO MIRANDA NR. N1414           - ENTRONCAMENTO                         65903130IMPERATRIZ          MAESTAC. EM LOCAL/HORARIO PROIBIDO ESPECIFIC. P/SINA181*XVIII          00000000055500   000013016008032019022720190412319036262505920000001041285640000001904120332120741908034419703626250592200000000000  000   95    00040374591848755500MISTO
2100000000649720190226208030PREF. DE: MA - IMPERATRIZ               IPA0172637201812071410AV GETULIO VARGAS                                           NIP4579MA53447      VW/GOLF 1.6 SPORTLINE                        PARTICULAR                    AUTOMOVEL       CINZA     00000000FRANCISCO DAS CHAGAS O SILVA                RUA QUATORZE NR. NR498                  - VL MACEDO                             65904670IMPERATRIZ          MAESTAC. EM LOCAL/HORARIO PROIBIDO ESPECIFIC. P/SINA181*XVIII          00000000055500   000013016008032019022720190412319036262506700000001041285680000001504120332120741908034419703626250670600000000000  000   96    00040374592102055500PASSAGEIRO
2100000000649720190226208030PREF. DE: MA - IMPERATRIZ               IPA0174265201811301523AV DORGIVAL PINHEIRO F/N1055                                OHO5486MA387053     CHEVROLET/ONIX 1.4AT LTZ                     PARTICULAR                    AUTOMOVEL       PRETA     00000000ALFARQUICADO ALVES DOS SANTOS               RUA UM NR. 05                           QD 902 - PQ DO BURITI                   65900001IMPERATRIZ          MAESTAC. EM LOCAL/HORARIO PROIBIDO ESPECIFIC. P/SINA181*XVIII          00000000055500   000013016008032019022720190412319036262507570000001041285630000001004120332120741908034419703626250757100000000000  000   97    00040374592291355500PASSAGEIRO
2100000000649720190226208030PREF. DE: MA - IMPERATRIZ               IPA0172638201812071435AV GETULIO VARGAS N/1991                                    NHI2510MA53447      HONDA/POP100                                 PARTICULAR                    MOTOCICLETA     AMARELA   00000000CLAUDEANIA CARVALHO LOPES                   RUA SANTO AGOSTINHO NR. 704             - BOM SUCESSO                           65905090IMPERATRIZ          MAESTAC. EM DESACORDO C/ A REGULAMENTACAO ESPECIFICA181 * XVII         00000000055411   000019523008032019022720190412319036262508340000001561885610000001256180332120841908034419703626250834800000000000  000   98    00050374592455055411PASSAGEIRO
2100000000649720190226208030PREF. DE: MA - IMPERATRIZ               IPA0174267201811301533AV GETULIO VARGAS F/N1333                                   OJD6477MA387053     FORD/ECOSPORT TIT AT 2.0                     PARTICULAR                    CAMIONETA       BRANCA    00000000IRAM BEZERRA FIALHO                         RUA SOUSA LIMA NR. 14                   - CENTRO                                65900010IMPERATRIZ          MAESTACIONAR AO LADO DE OUTRO VEICULO EM FILA DUPLA 181 * XI           00000000054870   000019523008032019022720190412319036262509110000001561885670000001656180332120841908034419703626250911400000000000  000   99    00050374592615354870MISTO
2100000000649720190226208030PREF. DE: MA - IMPERATRIZ               IPA0172639201812071520R SOUSA LIMA N7912                                          OJI2754MA53447      YAMAHA/FAZER250 BLUEFLEX                     PARTICULAR                    MOTOCICLETA     AZUL      00000000LEONARDO PEREIRA DE SOUSA                   RUA PARAIBA NR. 1640                    - NOVA IMPERATRIZ                       65907260IMPERATRIZ          MAESTAC. EM LOCAL/HORARIO PROIBIDO ESPECIFIC. P/SINA181*XVIII          00000000055500   000013016008032019022720190412319036262510520000001041285680000001504120332120741908034419703626251052600000000000  000   100   00040374592874155500PASSAGEIRO
2100000000649720190226208030PREF. DE: MA - IMPERATRIZ               IPA0174268201811301657RUA SOUSA LIMA F/N599                                       NWV3492MA387053     HONDA/BIZ 125 ES                             PARTICULAR                    MOTONETA        PRETA     00000000NEUSIVANIA PEREIRA NASCIMENTO               RUA E NR. 574                           CASA A - BOM SUCESSO                    65900000IMPERATRIZ          MAESTACIONAR NAS VAGAS RESERV AS PESSOAS C/DEFIC.S/CART 181, XX        00000000076251   000029347008032019022720190412319036262511300000002347785670000002434770332120341908034419703626251130000000000000  000   101   00070374592911076251PASSAGEIRO
2100000000649720190226208030PREF. DE: MA - IMPERATRIZ               IPA0174270201811301650R AMAZONAS F/A ESCOLA ADVENTIS                              GZX3237MA387053     MMC/L200 4X4 GLS                             PARTICULAR                    CAMINHONETE     BRANCA    00000000WILSON XISCATTI AGUEIRO                     RUA 03 NR. N 34                         - CENTRO                                65927000DAVINOPOLIS         MAESTACIONAR AO LADO DE OUTRO VEICULO EM FILA DUPLA 181 * XI           00000000054870   000019523008032019022720190412319036262512170000001561885680000001556180332120841908034419703626251217500000000000  000   102   00050374593408354870ESPECIAL
2100000000649720190226208030PREF. DE: MA - IMPERATRIZ               IPA0174272201812031455AV GETULIO VARGAS F/N1353A                                  OIV7209MA387053     HYUNDAI/HB20 1.6M 1.6M                       PARTICULAR                    AUTOMOVEL       PRATA     00000000GILMAR RODRIGUES ALVES                      RUA CEARA NR. 1056                      - CENTRO                                65901550IMPERATRIZ          MAESTACIONAR AO LADO DE OUTRO VEICULO EM FILA DUPLA 181 * XI           00000000054870   000019523008032019022720190412319036262513040000001561885640000001956180332120841908034419703626251304106328114701TO000   103   00050374594469054870PASSAGEIRO
2100000000649720190226208030PREF. DE: MA - IMPERATRIZ               IPA0173034201812270957R SOUSA LIMA 615 CENTRO                                     OJD9197MA535141     HONDA/CG 150 TITAN EX                        PARTICULAR                    MOTOCICLETA     VERMELHA  00000000ANTONIO LIRA DOCA                           R JOSE F PARMA NR. N 108                - BOCA DA MATA                          65900000IMPERATRIZ          MAESTACIONAR NAS VAGAS RESERV AS PESSOAS C/DEFIC.S/CART 181, XX        00000000076251   000029347008032019022720190412319036262514810000002347785640000002734770332120341908034419703626251481700000000000  000   104   00070374594844076251PASSAGEIRO
2100000000649720190226208030PREF. DE: MA - IMPERATRIZ               IPA0173035201812271005R PARA N07 CENTRO                                           KDP0826MA535141     FIAT/PALIO WEEKEND STILE                     PARTICULAR                    AUTOMOVEL       CINZA     00000000LUIS DA SILVA SANTOS                        RUA SANTA LUZIA NR. 82                  - PQ ALVORADA II                        65900001IMPERATRIZ          MAESTAC. EM LOCAL/HORARIO PROIBIDO ESPECIFIC. P/SINA181*XVIII          00000000055500   000013016008032019022720190412319036262515690000001041285610000001204120332120741908034419703626251569900000000000  000   105   00040374595004655500PASSAGEIRO
2100000000649720190226208030PREF. DE: MA - IMPERATRIZ               IPA0174273201812031346AV DORGIVAL PINHEIRO F/N415                                 OIU8377MA387053     I/VW AMAROK CD 4X4 TREND                     PARTICULAR                    CAMINHONETE     PRATA     00000000FABIANO SAMPAIO CHAVES                      RUA PIAUI NR. 628                       - CENTRO                                65901600IMPERATRIZ          MAESTAC. EM LOCAL/HORARIO PROIBIDO ESPECIFIC. P/SINA181*XVIII          00000000055500   000013016008032019022720190412319036262516460000001041285670000001604120332120741908034419703626251646500000000000  000   106   00040374595113155500ESPECIAL
2100000000649720190226208030PREF. DE: MA - IMPERATRIZ               IPA0173037201812271030R PIAUI N790 CENTRO                                         OXS4971MA535141     HONDA/BIZ 125 EX                             PARTICULAR                    MOTONETA        PRETA     00000000PATRICIA BILIO ALVES                        RUA SAO PAULO NR. 1793                  - NOVA IMPERATRIZ                       65907020IMPERATRIZ          MAESTACIONAR EM DESACORDO C/REGULAM-VAGA DE CARGA/DE181 * XVII         00000000055414   000019523008032019022720190412319036262517230000001561885650000001856180332120841908034419703626251723200000000000  000   107   00050374595117455414PASSAGEIRO
2100000000649720190226208030PREF. DE: MA - IMPERATRIZ               IPA0173038201812271205AV GETULIO VARGAS 1932 CENTRO                               PSJ7221MA535141     CHEVROLET/S10 FR FD2                         PARTICULAR                    CAMINHONETE     PRATA     00000000RUBENS BEZERRA CAVALCANTE                   RUA 04 RES VALE RIO DOCE NR. 53         - LARANJEIRA                            65300000SANTA INES          MAESTAC. EM LOCAL/HORARIO PROIBIDO ESPECIFIC. P/SINA181*XVIII          00000000055500   000013016008032019022720190412319036262518000000001041285600000001304120332120741908034419703626251800800000000000  000   108   00040374595332055500ESPECIAL
2100000000649720190226208030PREF. DE: MA - IMPERATRIZ               IPA0173053201812181114R PARAIBA PROX N555B                                        NMT3138MA535184     I/HYUNDAI TUCSON GLS 20L                     PARTICULAR                    CAMIONETA       PRETA     00000000REBERT ALMEIDA COELHO EIRELI ME             AV GETULIO VARGAS NR. 1973              - CENTRO                                65901550IMPERATRIZ          MAESTACIONAR EM CALCADA REBAIXADA DEST. ENTRADA/SAID181 * IX           00000000054600   000013016008032019022720190412319036262519980000001041285620000001104120332120741908034419703626251998000000000000  000   109   00040374595483154600MISTO
2100000000649720190226208030PREF. DE: MA - IMPERATRIZ               IPA0173054201812181920R PIAUI PROX SHOPPING TOCANTIN                              PSQ4102MA535184     FIAT/TORO FREEDOM AT                         PARTICULAR                    CAMINHONETE     VERMELHA  00000000SILVIA FEITOSA DE AGUIAR                    RUA EUCLIDES DA CUNHA NR. 30            - PQ SANTA LUCIA                        65912180IMPERATRIZ          MAESTAC. EM LOCAL/HORARIO PROIBIDO ESPECIFIC. P/SINA181*XVIII          00000000055500   000013016008032019022720190412319036262520290000001041285650000001804120332120741908034419703626252029300000000000  000   110   00040374595745855500ESPECIAL
2100000000649720190226208030PREF. DE: MA - IMPERATRIZ               IPA0173058201812182011R PIAUI FREN SHOPPING TOCANTIN                              PTE9514MA535184     I/TOYOTA HILUX CDSRVA4GF                     PARTICULAR                    CAMINHONETE     PRATA     00000000MARIZA ROCHA SILVA                          RUA 7 DE SETEMBRO NR. N 21              - BACURI                                65916130IMPERATRIZ          MADIRIGIR VEICULO SEGURANDO TELEFONE CELULAR        ART 252, & UNICO   00000000076331   000029347008032019022720190412319036262521060000002347785630000002834770332120341908034719003626252106900000000000  000   111   00070374595970176331ESPECIAL
2100000000649720190226208030PREF. DE: MA - IMPERATRIZ               IPA0174274201812031505AV GETULIO VARGAS F/N1991                                   NXF9365MA387053     HONDA/BIZ 125 ES                             PARTICULAR                    MOTONETA        PRETA     00000000THACYLLA FERREIRA ROLINS                    R BANDEIRANTES NR. 1209D                - VL NOVA                               65912200IMPERATRIZ          MAESTAC. EM DESACORDO C/ A REGULAMENTACAO ESPECIFICA181 * XVII         00000000055411   000019523008032019022720190412319036262522930000001561885680000001556180332120841908034419703626252293500000000000  000   112   00050374596170655411PASSAGEIRO
2100000000649720190226208030PREF. DE: MA - IMPERATRIZ               IPA0174275201812061506AV GETULIO VARGAS F/N1991                                   NNF8543MA387053     HONDA/NXR150 BROS MIX ES                     PARTICULAR                    MOTOCICLETA     VERMELHA  00000000ERNI PIVA                                   RUA XV DE NOVEMBRO NR. 4488             PIVAS GELO - BEIRA RIO                  65900000IMPERATRIZ          MAESTAC. EM DESACORDO C/ A REGULAMENTACAO ESPECIFICA181 * XVII         00000000055411   000019523008032019022720190412319036262523700000001561885640000001956180332120841908034419703626252370100000000000  000   113   00050374596585055411PASSAGEIRO
2100000000649720190226208030PREF. DE: MA - IMPERATRIZ               IPA0172642201812111655R CORIOLANO MILHOMEM                                        NXL3739MA53447      DAFRA/ZIG 50                                 PARTICULAR                    CICLOMOTOR      PRETA     00000000ELIETE MUNIZ DO NASCIMENTO                  RUA JOAQUIM NABUCO NR. N 42             QD 05 - VL PARATI                       65900000IMPERATRIZ          MAESTACIONAR NAS VAGAS RESERVADAS A IDOSOS, SEM CREDART 181, XX        00000000076252   000029347008032019022720190412319036262524580000002347785610000002034770332120341908034419703626252458400000000000  000   114   00070374596649076252PASSAGEIRO
2100000000649720190226208030PREF. DE: MA - IMPERATRIZ               IPA0173060201812190934AV CEARA PROX N117 JUCARA                                   OTS2215MA535184     CHEVROLET/S10 LTZ FD2                        PARTICULAR                    CAMINHONETE     PRETA     00000000VANICELIO OLIVEIRA DA SILVA                 AV INDUSTRIAL NR. 463                   - SANTA RITA                            65901550IMPERATRIZ          MAESTACIONAR AO LADO DE OUTRO VEICULO EM FILA DUPLA 181 * XI           00000000054870   000019523008032019022720190412319036262525350000001561885620000001156180332120841908034419703626252535900000000000  000   115   00050374596792554870ESPECIAL
2100000000649720190226208030PREF. DE: MA - IMPERATRIZ               IPA0173063201812191138R SOUSA LIMA F/N739 CENTRO                                  PSW2556MA535184     HONDA/CG 160 START                           PARTICULAR                    MOTOCICLETA     VERMELHA  00000000ANA IZABEL DE SOUZA FARIAS                  RUA SAO SEBASTIAO NR. 1016              BL 02 AP503 - N IMPERATRIZ              65907240IMPERATRIZ          MAESTACIONAR NAS VAGAS RESERVADAS A IDOSOS, SEM CREDART 181, XX        00000000076252   000029347008032019022720190412319036262526120000002347785630000002834770332120341908034419703626252612600000000000  000   116   00070374596931676252PASSAGEIRO
2100000000649720190226208030PREF. DE: MA - IMPERATRIZ               IPA0173065201812191145R SOUSA LIMA F/N739 CENTRO                                  NXD5666MA535184     HONDA/NXR150 BROS ES                         PARTICULAR                    MOTOCICLETA     PRETA     00000000DANIEL DANTAS DE CASTRO                     RUA BOM JESUS NR. 339                   - VL JOAO CASTELO                       65900010IMPERATRIZ          MAESTACIONAR NAS VAGAS RESERVADAS A IDOSOS, SEM CREDART 181, XX        00000000076252   000029347008032019022720190412319036262527000000002347785660000002534770332120341908034419703626252700900000000000  000   117   00070374597610076252PASSAGEIRO
2100000000649720190226208030PREF. DE: MA - IMPERATRIZ               IPA0174277201812031743AV DORGIVAL PINHEIRO F/N1201                                OXV6183MA387053     TOYOTA/ETIOS HB PLATINUM                     PARTICULAR                    AUTOMOVEL       PRETA     00000000FLAVIA SILVA MARTINHO                       AV PEDRO N DE SANTANA NR. N60           - JOAO PAULO II                         65900000IMPERATRIZ          MAESTAC. EM LOCAL/HORARIO PROIBIDO ESPECIFIC. P/SINA181*XVIII          00000000055500   000013016008032019022720190412319036262528870000001041285660000001704120332120741908034419703626252887400000000000  000   118   00040374597835855500PASSAGEIRO
2100000000649720190226208030PREF. DE: MA - IMPERATRIZ               IPA0172302201811151018AV BERNADO SAYAO F/BANCO ITAU                               NXH1218MA465267     HONDA/BIZ 125 ES                             PARTICULAR                    MOTONETA        VERMELHA  00000000THYAGO RODRIGUES DE MELO                    RUA CEL MANOEL BANDEIRA NR. 2819        - BACURI                                65900000IMPERATRIZ          MATRANSIT. P/ CONTRAMAO EM VIAS C/ SENT. UNICO      186 * II           00000000057380   000029347008032019022720190412319036262529640000002347785680000002334770332120341908034419703626252964100000000000  000   119   00070374598611357380PASSAGEIRO
2100000000649720190226208030PREF. DE: MA - IMPERATRIZ               IPA0172644201812171435AV GETULIO VARGAS N/1932                                    NHO0784MA53447      HONDA/CG 150 TITAN ES                        PARTICULAR                    MOTOCICLETA     VERMELHA  00000000STELMAN NOGUEIRA FILHO                      RUA ALZENIRA GALVAO NR. 12              - BOM SUCESSO                           65905153IMPERATRIZ          MAESTAC. EM LOCAL/HORARIO PROIBIDO ESPECIFIC. P/SINA181*XVIII          00000000055500   000013016008032019022720190412319036262530050000001041285640000001904120332120741908034419703626253005200000000000  000   120   00040374598755155500PASSAGEIRO
2100000000649720190226208030PREF. DE: MA - IMPERATRIZ               IPA0172304201811161541R SIMPILO MOREIRA PC DE FATIMA                              PSF0684MA465267     HONDA/CITY EXL CVT                           PARTICULAR                    AUTOMOVEL       BRANCA    00000000WASHINGTON ALVES DE BRITO                   RUA C 7 NR. 03                          QD 58 - JD TROPICAL                     65900010IMPERATRIZ          MAESTACIONAR EM DESACORDO C/REGULAM-VAGA DE CARGA/DE181 * XVII         00000000055414   000019523008032019022720190412319036262531820000001561885620000001156180332120841908034419703626253182900000000000  000   121   00050374599465555414PASSAGEIRO
2100000000649720190226208030PREF. DE: MA - IMPERATRIZ               IPA0173066201812191155R BENEDITO LEITE F/N344 CENTRO                              PSJ5905MA535184     I/KIA SPORTAGE EX2 OFFG4                     PARTICULAR                    CAMIONETA       BRANCA    00000000ELIEL DE SOUSA CARNEIRO                     RUA ALAGOAS NR. 516                     APTO 201 - CENTRO                       65900490IMPERATRIZ          MAESTAC. EM DESACORDO C/ A REGULAMENTACAO ESPECIFICA181 * XVII         00000000055411   000019523008032019022720190412319036262532600000001561885660000001756180332120841908034419703626253260300000000000  000   122   00050374600241955411MISTO
2100000000649720190226208030PREF. DE: MA - IMPERATRIZ               IPA0172305201811161540R SIMPLICIO MOREIRA PC DE FATI                              NSW6616MA465267     FORD/KA FLEX                                 PARTICULAR                    AUTOMOVEL       PRETA     00000000GERALDO FERREIRA DE SOUSA                   RUA PERNAMBUCO NR. N 357                - NV IMPERATRIZ                         65900001IMPERATRIZ          MADEIXAR O CONDUTOR DE USAR O CINTO E SEGURANCA     167                00000000051851   000019523008032019022720190412319036262533470000001561885690000001456180332120841908034619203626253347800000000000  000   123   00050374600370951851PASSAGEIRO
2100000000649720190226208030PREF. DE: MA - IMPERATRIZ               IPA0172645201812171240AV GETULIO VARGAS N/1932                                    OXU6209MA53447      HONDA/BIZ 125 EX                             PARTICULAR                    MOTONETA        PRETA     00000000ELIZANGELA ARAUJO MACHADO                   RUA TUPINAMBA NR. NR 28                 - BACURI                                65900000IMPERATRIZ          MAESTAC. EM LOCAL/HORARIO PROIBIDO ESPECIFIC. P/SINA181*XVIII          00000000055500   000013016008032019022720190412319036262534240000001041285670000001604120332120741908034419703626253424500000000000  000   124   00040374600720855500PASSAGEIRO
2100000000649720190226208030PREF. DE: MA - IMPERATRIZ               IPA0173067201812200956R SOUSA LIMA F/N739 CENTRO                                  NXN3243MA535184     HONDA/BIZ 125 ES                             PARTICULAR                    MOTONETA        PRETA     00000000FERNANDA SILVA MOURA                        RUA D NR. N 635                         - BOM SUCESSO                           65900000IMPERATRIZ          MAESTACIONAR NAS VAGAS RESERVADAS A IDOSOS, SEM CREDART 181, XX        00000000076252   000029347008032019022720190412319036262535010000002347785670000002434770332120341908034419703626253501000000000000  000   125   00070374600825576252PASSAGEIRO
2100000000649720190226208030PREF. DE: MA - IMPERATRIZ               IPA0172307201811170624RUA CEARA C/R HENRIQUE DIAS BA                              NXN1919MA465267     FIAT/STRADA WORKING CD                       PARTICULAR                    CAMINHONETE     BRANCA    00000000LUIS HENRIQUE FORTES VIEIRA                 RUA CEL MANOEL BANDEIRA NR. 2801        - BACURI                                65900000IMPERATRIZ          MAAVANCAR SINAL VERMELHO DO SEMAFORO                208                00000000060501   000029347008032019022720190412319036262536990000002347785690000002234770332120341908034419703626253699200000000000  000   126   00070374601684360501ESPECIAL
2100000000649720190226208030PREF. DE: MA - IMPERATRIZ               IPA0173068201812201001R SOUSA LIMA F/N739 CENTRO                                  PSF3222MA535184     HONDA/BIZ 125 ES                             PARTICULAR                    MOTONETA        VERMELHA  00000000RAFAEL RIBEIRO SOARES                       RUA 16 NR. 27                           - VL MACEDO                             65900001IMPERATRIZ          MAESTACIONAR NAS VAGAS RESERVADAS A IDOSOS, SEM CREDART 181, XX        00000000076252   000029347008032019022720190412319036262537760000002347785650000002634770332120341908034419703626253776800000000000  000   127   00070374602443976252PASSAGEIRO
2100000000649720190226208030PREF. DE: MA - IMPERATRIZ               IPA0173069201812200948R SOUSA LIMA PROX N641 CENTRO                               PTE1014MA535184     VW/UP MOVE MDV                               PARTICULAR                    AUTOMOVEL       VERMELHA  00000000FRANCISCO ANSELMO M DA S PAZ                RUA LAGUNA NR. 40                       - J MORADA DO SOL                       65900001IMPERATRIZ          MADIRIGIR VEICULO SEGURANDO TELEFONE CELULAR        ART 252, & UNICO   00000000076331   000029347008032019022720190412319036262538530000002347785690000002234770332120341908034719003626253853500000000000  000   128   00070374602767576331PASSAGEIRO
2100000000649720190226208030PREF. DE: MA - IMPERATRIZ               IPA0173070201812201219R SIMPLICIO MOREIRA PROX N1590                              NXE1424MA535184     HONDA/CG 125 FAN ES                          PARTICULAR                    MOTOCICLETA     PRETA     00000000CAIO FELIPE SANTOS BRITO                    RUA BARAO RIO BRANCO NR. 50             - CENTRO                                65900000IMPERATRIZ          MAESTACIONAR EM DESACORDO C/REGULAM-VAGA DE CARGA/DE181 * XVII         00000000055414   000019523008032019022720190412319036262539300000001561885640000001956180332120841908034419703626253930100000000000  000   129   00050374603715855414PASSAGEIRO
2100000000649720190226208030PREF. DE: MA - IMPERATRIZ               IPA0172310201811170949R DOM PEDRO LL C/ AQUILES LISB                              NXM7850MA465267     VW/VOYAGE 1.0                                PARTICULAR                    AUTOMOVEL       CINZA     00000000JOSEFA NASCIMENTO RODRIGUES                 R TUPINAMBA NR. 2300                    APT 102 BL E - SAO J DO EGITO           65900000IMPERATRIZ          MADEIXAR O CONDUTOR DE USAR O CINTO E SEGURANCA     167                00000000051851   000019523008032019022720190412319036262540710000001561885640000001956180332120841908034619203626254071300000000000  000   130   00050374604882651851PASSAGEIRO
2100000000649720190226208030PREF. DE: MA - IMPERATRIZ               IPA0172311201811170958R AQUILES LISBOA F/N60 PC UNIA                              OIU1529MA465267     I/CHEVROLET CLASSIC LS                       PARTICULAR                    AUTOMOVEL       PRETA     00000000RAELMA DOS SANTOS N MACEDO                  RUA SOUSA LIMA NR. 530                  - CENTRO                                65900320IMPERATRIZ          MAESTACIONAR EM CALCADA REBAIXADA DEST. ENTRADA/SAID181 * IX           00000000054600   000013016008032019022720190412319036262541590000001041285680000001504120332120741908034419703626254159600000000000  000   131   00040374605506754600PASSAGEIRO
2100000000649720190226208030PREF. DE: MA - IMPERATRIZ               IPA0173073201812211002AV DORGIVAL P SOUSA PROX N461                               NXP2469MA535184     VW/POLO SEDAN 1.6 COMFOR                     PARTICULAR                    AUTOMOVEL       PRATA     00000000JOANA DARC ALBUQUERQUE DUARTE               RUA CARIOLANO MILHOMEN NR. 1218         - BACURI                                65900000IMPERATRIZ          MAESTACIONAR AO LADO DE OUTRO VEICULO EM FILA DUPLA 181 * XI           00000000054870   000019523008032019022720190412319036262542360000001561885650000001856180332120841908034419703626254236200000000000  000   132   00050374606532154870PASSAGEIRO
2100000000649720190226208030PREF. DE: MA - IMPERATRIZ               IPA0172312201811171019R DOM PEDRO II F/N28 PC UNIAO                               NXC3992MA535010     FIAT/STRADA WORKING CD                       PARTICULAR                    CAMINHONETE     PRATA     00000000ADEVANDE TEIXEIRA COSTA                     RUA EUCLIDES DA CUNHA NR. SN            LT 4 QD 2 - BACURI                      65916017IMPERATRIZ          MADIRIGIR VEICULO SEGURANDO TELEFONE CELULAR        ART 252, & UNICO   00000000076331   000029347008032019022720190412319036262543130000002347785640000002734770332120341908034619203626254313900000000000  000   133   00070374606891676331ESPECIAL
2100000000649720190226208030PREF. DE: MA - IMPERATRIZ               IPA0173075201812220841AV GETULIO VARGAS PROX N472 CE                              OXQ1461MA535184     HONDA/BIZ 125 ES                             PARTICULAR                    MOTONETA        VERMELHA  00000000LUANA CARVALHO SILVA B DE MELO              RUA CEL MANOEL BANDEIRA     NR NR. 2252 - CENTRO                                65901010IMPERATRIZ          MAESTAC. EM DESACORDO C/ A REGULAMENTACAO ESPECIFICA181 * XVII         00000000055411   000019523008032019022720190412319036262544000000001561885670000001656180332120841908034419703626254400400000000000  000   134   00050374608322255411PASSAGEIRO
2100000000649720190226208030PREF. DE: MA - IMPERATRIZ               IPA0172313201711171057R MARANHAO S/N L/DROGARIA POPU                              NVR9867MA465267     VW/CROSSFOX GII                              PARTICULAR                    AUTOMOVEL       VERMELHA  00000000ABIGAIL TMAR DE ARAUJO PEREIRA              RUA IRACEMA NR. 537                     - NOVA IMPERATRIZ                       65901550IMPERATRIZ          MAESTACIONAR NAS VAGAS RESERV AS PESSOAS C/DEFIC.S/CART 181, XX        00000000076251   000029347008032019022720190412319036262545880000002347785630000002834770332120341908034419703626254588600000000000  000   135   00070374608445876251PASSAGEIRO
2100000000649720190226208030PREF. DE: MA - IMPERATRIZ               IPA0173076201812220938R SOUSA LIMA PROX N603 CENTRO                               PTE6815MA535184     HONDA/BIZ 110I                               PARTICULAR                    MOTONETA        VERMELHA  00000000ARITAYANA DE MIRANDA MELO                   RUA SAO MARCOS NR. N 45                 - JARDIM ORIENTAL                       65913250IMPERATRIZ          MAESTACIONAR NAS VAGAS RESERVADAS A IDOSOS, SEM CREDART 181, XX        00000000076252   000029347008032019022720190412319036262546650000002347785690000002234770332120341908034419703626254665200000000000  000   136   00070374609502676252PASSAGEIRO
2100000000649720190226208030PREF. DE: MA - IMPERATRIZ               IPA0172316201811171103RUA PIAUI N449 NOVA IMPERATRIZ                              PSM2551MA465267     HYUNDAI/HB20S 1.6M COMF                      PARTICULAR                    AUTOMOVEL       PRATA     00000000OSIANO GALVAO AMORIM                        RUA DO COMERCIO NR.                     - CATERPILAR                            65500000CHAPADINHA          MAESTAC. EM LOCAL/HORARIO PROIBIDO ESPECIFIC. P/SINA181*XVIII          00000000055500   000013016008032019022720190412319036262547420000001041285610000001204120332120741908034419703626254742900000000000  000   137   00040374609643055500PASSAGEIRO
2100000000649720190226208030PREF. DE: MA - IMPERATRIZ               IPA0173077201812220942R SOUSA LIMA PROX N603 CENTRO                               NXO5186MA535184     HONDA/NXR150 BROS ES                         PARTICULAR                    MOTOCICLETA     PRETA     00000000JOAO ALEIXO BARBOSA                         RUA CEARA NR. 1520                      - BACURI                                65916117IMPERATRIZ          MAESTACIONAR NAS VAGAS RESERVADAS A IDOSOS, SEM CREDART 181, XX        00000000076252   000029347008032019022720190412319036262548200000002347785600000002134770332120341908034419703626254820300000000000  000   138   00070374609766576252PASSAGEIRO
2100000000649720190226208030PREF. DE: MA - IMPERATRIZ               IPA0173101201812190710R LUIS DOMINGUES C/R PARAIBA                                PTG3159MA23150      HONDA/NXR 160 BROS                           PARTICULAR                    MOTOCICLETA     BRANCA    00000000WENNAS FABRIZIO M CAVALCANTE                RUA 16 DE NOVEMBRO NR. 22               - JARDIM SAO LUIS                       65913160IMPERATRIZ          MAAVANCAR SINAL VERMELHO DO SEMAFORO                208                00000000060501   000029347008032019022720190412319036262549070000002347785650000002634770332120341908034419703626254907800000000000  000   139   00070374610019460501PASSAGEIRO
2100000000649720190226208030PREF. DE: MA - IMPERATRIZ               IPA0172317201811171104RUA PIAUI N449 NOVA IMPERATRIZ                              PSC1249MA465267     CHEVROLET/S10 LTZ FD2                        PARTICULAR                    CAMINHONETE     BRANCA    00000000VICTOR FRANCO B DA SILVA                    RUA 10 NR. 06                           QD 205 - PQ BURITI                      65916380IMPERATRIZ          MAESTAC. EM LOCAL/HORARIO PROIBIDO ESPECIFIC. P/SINA181*XVIII          00000000055500   000013016008032019022720190412319036262550480000001041285620000001104120332120741908034419703626255048000000000000  000   140   00040374610157355500ESPECIAL
2100000000649720190226208030PREF. DE: MA - IMPERATRIZ               IPA0173102201812200935AV DORGIVAL P SOUSA F/N889                                  NXP0634MA23150      VW/VOYAGE 1.0                                PARTICULAR                    AUTOMOVEL       PRATA     00000000ERISMAR SOARES NASCIMENTO                   RUA SAO PEDRO NR. SN                    - PQ AMAZONAS                           65900000IMPERATRIZ          MAESTACIONAR NO PASSEIO                             181 * VIII         00000000054521   000019523008032019022720190412319036262551250000001561885690000001456180332120841908034419703626255125600000000000  000   141   00050374610542054521PASSAGEIRO
2100000000649720190226208030PREF. DE: MA - IMPERATRIZ               IPA0173103201812200948R SOUSA LIMA F/N615                                         PSO5821MA23150      HONDA/BIZ 125 EX                             PARTICULAR                    MOTONETA        VERMELHA  00000000MARIA LUANA FERNANDES MORAIS                RUA EUCLIDES DA CUNHA NR. N1058         CS A - VL NOVA                          65912180IMPERATRIZ          MAESTACIONAR NAS VAGAS RESERVADAS A IDOSOS, SEM CREDART 181, XX        00000000076252   000029347008032019022720190412319036262552020000002347785600000002134770332120341908034419703626255202300000000000  000   142   00070374610752076252PASSAGEIRO
2100000000649720190226208030PREF. DE: MA - IMPERATRIZ               IPA0172318201811171441RUA JOAO PESSOA N18                                         HQC4300MA465267     HONDA/CG 150 SPORT                           PARTICULAR                    MOTOCICLETA     VERMELHA  00000000IVAN PEREIRA VIEIRA                         RUA PAZ NR. N 04                        QUADRA 57 - PQ DAS PALMEIRAS            65900001IMPERATRIZ          MADIRIGIR VEICULO MANUSEANDO TELEFONE CELULAR       ART 252, & UNICO   00000000076332   000029347008032019022720190412319036262553900000002347785610000002034770332120341908034619203626255390600000000000  000   143   00070374610787376332PASSAGEIRO
2100000000649720190226208030PREF. DE: MA - IMPERATRIZ               IPA0173104201812200949R SOUSA LIMA F/N739                                         OJE7585MA23150      HONDA/CG 150 FAN ESI                         PARTICULAR                    MOTOCICLETA     VERMELHA  00000000ISAMAR FIRMO DE SOUSA                       AV JK NR. N1338                         - NOVA IMPERATRIZ                       65900000IMPERATRIZ          MAESTACIONAR NAS VAGAS RESERVADAS A IDOSOS, SEM CREDART 181, XX        00000000076252   000029347008032019022720190412319036262554770000002347785680000002334770332120341908034419703626255477100000000000  000   144   00070374610966376252PASSAGEIRO
2100000000649720190226208030PREF. DE: MA - IMPERATRIZ               IPA0172319201811171121RUA PIAUI F/SHOPPING CENTRO                                 PSR2645MA465267     HYUNDAI/HB20 1.6A COMF                       PARTICULAR                    AUTOMOVEL       BRANCA    00000000GISELY ROCHA SOARES                         RUA DOM PEDRO I NR. 298                 - CENTRO                                65928000GOV.EDISON LOBAO    MAESTACIONAR SOBRE FAIXA DESTINADA A PEDESTRE       181 * VIII         00000000054522   000019523008032019022720190412319036262555540000001561885600000001356180332120841908034419703626255554700000000000  000   145   00050374611099854522PASSAGEIRO
2100000000649720190226208030PREF. DE: MA - IMPERATRIZ               IPA0173106201812211025AV DORGIVAL P SOUSA F/N1281                                 PTF4275MA23150      FIAT/STRADA HD WK CE E                       PARTICULAR                    CAMINHONETE     VERMELHA  00000000C FERREIRA TEIXEIRA ME                      DT POVOADO VL DA PAZ NR. 01             - ZONA RURAL                            65360000MONCAO              MAESTAC. EM LOCAL/HORARIO PROIBIDO ESPECIFIC. P/SINA181*XVIII          00000000055500   000013016008032019022720190412319036262556310000001041285650000001804120332120741908034419703626255631300000000000  000   146   00040374611123455500CARGA
2100000000649720190226208030PREF. DE: MA - IMPERATRIZ               IPA0173108201812211033R SOUSA LIMA F/N615                                         OJN3453MA23150      HONDA/NXR150 BROS ESD                        PARTICULAR                    MOTOCICLETA     BRANCA    00000000MARIA CONCEICAO DA SILVA                    RUA GUARAPARI NR. 08                    - PQ BURITI                             65900000IMPERATRIZ          MAESTACIONAR NAS VAGAS RESERVADAS A IDOSOS, SEM CREDART 181, XX        00000000076252   000029347008032019022720190412319036262557190000002347785630000002834770332120341908034419703626255719600000000000  000   147   00070374611252476252PASSAGEIRO
2100000000649720190226208030PREF. DE: MA - IMPERATRIZ               IPA0173109201812211040R SOUSA LIMA F/N615                                         OXT6281MA23150      HONDA/CG 125 FAN ES                          PARTICULAR                    MOTOCICLETA     VERMELHA  00000000FAGNA LIMA DA SILVA                         RUA OSVALDO CRUZ NR. 1078               - BACURI                                65900001IMPERATRIZ          MAESTACIONAR NAS VAGAS RESERVADAS A IDOSOS, SEM CREDART 181, XX        00000000076252   000029347008032019022720190412319036262558060000002347785680000002334770332120341908034419703626255806100000000000  000   148   00070374611305976252PASSAGEIRO
