1*NATI207570201911140046502019111400000000000000
2000000000465020191114207570PREF. DE: MA - CAXIAS                   CXA0077906201910161103RUA GETULIO VARGAS                                          OXY6070MA306051-SAMTHONDA/CG 125 FAN ES                          PARTICULAR                    MOTOCICLETA     VERMELHA  00000000LIGIANE NUNES DA SILVA                      RUA ALOISIO LOBO NR. 1651               - SAO FRANCISCO                         65600000CAXIAS              MAESTAC. EM DESACORDO C/ A REGULAMENTACAO ESPECIFICA181 * XVII         00000000055411   0000195230075720191115201912300000000000000000000000000                                                00000000000  000   1     00050433465520355411PASSAGEIRO
2000000000465020191114207570PREF. DE: MA - CAXIAS                   CXA0077703201910161535PCA CANDIDO MENDES                                          PSP2893MA123611-SAMTHONDA/POP 110I                               PARTICULAR                    MOTOCICLETA     BRANCA    00000000MARIA BEATRIZ SANTOS DA FONSECA             R 26 NR. 2                              QD B21 - TESO DURO                      65604595CAXIAS              MACOND. MOTOC/MOTON./CICLOM TRANSPORTANDO/PASSAG.S/C244 * II           00000000070481   0000293470075720191115201912300000000000000000000000000                                                00000000000  000   2     00070433465665070481PASSAGEIRO
2000000000465020191114207570PREF. DE: MA - CAXIAS                   CXA0077534201910160957AV RODOVIARIA                                               PSZ9269MA306431-SAMTVW/POLO HL AD                                PARTICULAR                    AUTOMOVEL       PRATA     00000000CAXIAS VEICULOS E PECAS LTDA                BR-316 KM-554 NR. S/N                   - VOLTA REDONDA                         65606525CAXIAS              MAESTAC. EM LOCAL/HORARIO PROIBIDO ESPECIFIC. P/SINA181*XVIII          00000000055500   0000130160075720191115201912300000000000000000000000000                                                00000000000  000   3     00040433466257955500PASSAGEIRO
2000000000465020191114207570PREF. DE: MA - CAXIAS                   CXA0077022201910161050PCA MAGALHAES DE ALMEIDA                                    OXQ6736MA138301-SAMTHONDA/CG 125 FAN ES                          PARTICULAR                    MOTOCICLETA     VERMELHA  00000000JOAO PEDRO ALVES                            R EVARISTO DA VEIGA NR. 1245            - SABAK                                 65300000SANTA INES          MATRANSIT. P/ CONTRAMAO EM VIAS C/ SENT. UNICO      186 * II           00000000057380   0000293470075720191115201912300000000000000000000000000                                                00000000000  000   4     00070433466449057380PASSAGEIRO
2000000000465020191114207570PREF. DE: MA - CAXIAS                   CXA0077633201910161630RUA DO COTOVELO                                             OJL1899MA122131-SAMTHONDA/CG150 FAN ESDI                         PARTICULAR                    MOTOCICLETA     VERMELHA  00000000WARLESSON CARLOS P DOS SANTOS               RUA EDSON LOBAO QD 23 NR. 531           - MUTIRAO                               65600000CAXIAS              MATRANSIT. P/ CONTRAMAO EM VIAS C/ SENT. UNICO      186 * II           00000000057380   0000293470075720191115201912300000000000000000000000000                                                00000000000  000   5     00070433466599357380PASSAGEIRO
2000000000465020191114207570PREF. DE: MA - CAXIAS                   CXA0077637201910171645PCA CANDIDO MENDES                                          PTM6880MA122131-SAMTHONDA/BIZ 125                                PARTICULAR                    MOTONETA        VERMELHA  00000000ANTONIA DE LISBOA LAGES SILVA               RUA SATURNINO BELO NR. 2549             - SAO FRANCISCO                         65600440CAXIAS              MACOND. MOTOC/MOTON./CICLOM TRANSPORTANDO/PASSAG.S/C244 * II           00000000070481   0000293470075720191115201912300000000000000000000000000                                                00000000000  000   6     00070433466690670481PASSAGEIRO
2000000000465020191114207570PREF. DE: MA - CAXIAS                   CXA0077020201910160740PCA CANDIDO MENDES                                          OJA6009MA138301-SAMTHONDA/POP100                                 PARTICULAR                    MOTOCICLETA     PRETA     00000000FRANCILENE RAMOS ROCHA                      RUA SEGISNANDO MOURA NR. 742            - PONTE                                 65600000CAXIAS              MACOND. MOTOC/MOTON./CICLOM TRANSPORTANDO/PASSAG.S/C244 * II           00000000070481   0000293470075720191115201912300000000000000000000000000                                                00000000000  000   7     00070433466764370481PASSAGEIRO
2000000000465020191114207570PREF. DE: MA - CAXIAS                   CXA0077021201910161040PCA MAGALHAES DE ALMEIDA                                    PSB7457MA138301-SAMTHONDA/POP100                                 PARTICULAR                    MOTOCICLETA     PRETA     00000000GIRLANE BORBA PEREIRA                       TRAV ESPIRITO SANTO III NR. 2520        - VOLTA REDONDA                         65600000CAXIAS              MACOND. MOTOC/MOTON./CICLOM TRANSPORTANDO/PASSAG.S/C244 * II           00000000070481   0000293470075720191115201912300000000000000000000000000                                                00000000000  000   8     00070433466897670481PASSAGEIRO
2000000000465020191114207570PREF. DE: MA - CAXIAS                   CXA0077860201910161346AV GETULIO VARGAS                                           PSO2689MA306521-SAMTHONDA/BIZ 110I                               PARTICULAR                    MOTONETA        VERMELHA  00000000FABIO MOURA SOBRINHO                        R SAFIRA NR. 20                         QD 12 CON P SOL - SANTA INES            65919474IMPERATRIZ          MACOND. MOTOCICLETA/MOTONETA/CICLOM S/CAPACETE DE SE244 * I            00000000070301   0000293470075720191115201912300000000000000000000000000                                                00000000000  000   9     00070433467845970301PASSAGEIRO
2000000000465020191114207570PREF. DE: MA - CAXIAS                   CXA0075445201910161545PCA CANDIDO MENDES                                          PTL2760MA122221-SAMTHONDA/POP 110I                               PARTICULAR                    MOTOCICLETA     PRETA     00000000LUIS SILVA DOS SANTOS                       TV SANTO ANTONIO NR. 207                - BACURIZEIRO                           65603815CAXIAS              MACOND. MOTOC/MOTON./CICLOM TRANSPORTANDO/PASSAG.S/C244 * II           00000000070481   0000293470075720191115201912300000000000000000000000000                                                00000000000  000   10    00070433467981170481PASSAGEIRO
2000000000465020191114207570PREF. DE: MA - CAXIAS                   CXA0075444201910161539PCA CANDIDO MENDES                                          PTH5800MA122221-SAMTHONDA/POP 110I                               PARTICULAR                    MOTOCICLETA     VERMELHA  00000000MARIA IRENICE DOS S CARVALHO                TV DO AEROPORTO NR. 2380                - SAO FRANCISCO                         65603600CAXIAS              MACOND. MOTOC/MOTON./CICLOM TRANSPORTANDO/PASSAG.S/C244 * II           00000000070481   0000293470075720191115201912300000000000000000000000000                                                00000000000  000   11    00070433468140970481PASSAGEIRO
2000000000465020191114207570PREF. DE: MA - CAXIAS                   CXA0077868201910171740PCA CANDIDO MENDES                                          NXD4390MA122221-SAMTHONDA/BIZ 125 ES                             PARTICULAR                    MOTONETA        ROSA      00000000IRACY OLIVEIRA DOS REIS                     RUA 01 NR. 06                           QD 22 - COAHB                           65600010CAXIAS              MACOND. MOTOCICLETA/MOTONETA/CICLOM S/CAPACETE DE SE244 * I            00000000070301   0000293470075720191115201912300000000000000000000000000                                                00000000000  000   12    00070433468411470301PASSAGEIRO
2000000000465020191114207570PREF. DE: MA - CAXIAS                   CXA0077867201910171732PCA CANDIDO MENDES                                          NXA2106MA122221-SAMTHONDA/LEAD 110                               PARTICULAR                    MOTONETA        BEGE      00000000IRENE SANTOS SEREJO DE OLIVEIRA             RUA RIO BRNCO NR. 69                    - CENTRO                                65600000CAXIAS              MACOND. MOTOCICLETA/MOTONETA/CICLOM S/CAPACETE DE SE244 * I            00000000070301   0000293470075720191115201912300000000000000000000000000                                                00000000000  000   13    00070433468524270301PASSAGEIRO
2000000000465020191114207570PREF. DE: MA - CAXIAS                   CXA0077864201910171458RUA GUSTAVO COLACO                                          NHJ6400MA306521-SAMTHONDA/CG 125 FAN                             PARTICULAR                    MOTOCICLETA     PRETA     00000000RAIMUNDO NONATO RIBEIRO DA SILVA            RUA CAJUEIRO NR. N-886                  - SIRIEMA                               65600000CAXIAS              MAESTAC. EM DESACORDO C/ A REGULAMENTACAO ESPECIFICA181 * XVII         00000000055411   0000195230075720191115201912300000000000000000000000000                                                00000000000  000   14    00050433468823355411PASSAGEIRO
2000000000465020191114207570PREF. DE: MA - CAXIAS                   CXA0077863201910171456RUA GUSTAVO COLACO                                          DPK2829MA306521-SAMTYAMAHA/YBR 125ED                             PARTICULAR                    MOTOCICLETA     PRETA     00000000WILLIAN JORGE DO N SILVA                    RUA ZE DOCA NR. 1340                    - VILA ALECRIM                          65605650CAXIAS              MAESTAC. EM DESACORDO C/ A REGULAMENTACAO ESPECIFICA181 * XVII         00000000055411   0000195230075720191115201912300000000000000000000000000                                                00000000000  000   15    00050433469169255411PASSAGEIRO
2000000000465020191114207570PREF. DE: MA - CAXIAS                   CXA0075449201910171457RUA GUSTAVO COLACO                                          PTN7157MA122221-SAMTHONDA/POP 110I                               PARTICULAR                    MOTOCICLETA     BRANCA    00000000MARIA DOS MILAGRES DA CONCEICAO             TV DO FIO NR. 1014                      - PONTE                                 65609320CAXIAS              MAESTAC. EM DESACORDO C/ A REGULAMENTACAO ESPECIFICA181 * XVII         00000000055411   0000195230075720191115201912300000000000000000000000000                                                00000000000  000   16    00050433469311355411PASSAGEIRO
2000000000465020191114207570PREF. DE: MA - CAXIAS                   CXA0075447201910171449RUA GUSTAVO COLACO                                          NNE8382MA122221-SAMTHONDA/BIZ 125 ES                             PARTICULAR                    MOTONETA        ROSA      00000000MARILENE SILVA TEIXEIRA COSTA               RUA PARNAISO NR. N1756                  - PONTE                                 65600000CAXIAS              MAESTAC. EM DESACORDO C/ A REGULAMENTACAO ESPECIFICA181 * XVII         00000000055411   0000195230075720191115201912300000000000000000000000000                                                00000000000  000   17    00050433469482955411PASSAGEIRO
2000000000465020191114207570PREF. DE: MA - CAXIAS                   CXA0075448201910171455RUA GUSTAVO COLACO                                          OXQ8003MA122221-SAMTHONDA/CG 125 FAN KS                          PARTICULAR                    MOTOCICLETA     VERMELHA  00000000JOSE PAIXAO MENEZES                         RUA ALOISIO LOBO NR. 3854               - SAO FRANCISCO                         65600000CAXIAS              MAESTAC. EM DESACORDO C/ A REGULAMENTACAO ESPECIFICA181 * XVII         00000000055411   0000195230075720191115201912300000000000000000000000000                                                00000000000  000   18    00050433469660055411PASSAGEIRO
2000000000465020191114207570PREF. DE: MA - CAXIAS                   CXA0077709201910171445RUA MENINO DEUS                                             PSR1140MA123611-SAMTHONDA/CG 160 TITAN EX                        PARTICULAR                    MOTOCICLETA     PRETA     00000000MARIA ONEIDE DE MELO SILVA                  TRAV SAO JOSE NR. 247                   - BACURIZEIRO                           65603825CAXIAS              MACOND. MOTOC/MOTON./CICLOM TRANSPORTANDO/PASSAG.S/C244 * II           00000000070481   0000293470075720191115201912300000000000000000000000000                                                00000000000  000   19    00070433469932470481PASSAGEIRO
2000000000465020191114207570PREF. DE: MA - CAXIAS                   CXA0077710201910171445RUA MENINO DEUS                                             OIR2131MA123611-SAMTHONDA/CG 125 FAN KS                          PARTICULAR                    MOTOCICLETA     PRETA     00000000NELSON SOUSA PEREIRA                        TV FLORES NR. 764                       - SIRIEMA                               65600001CAXIAS              MACOND. MOTOC/MOTON./CICLOM TRANSPORTANDO/PASSAG.S/C244 * II           00000000070481   0000293470075720191115201912300000000000000000000000000                                                00000000000  000   20    00070433470182570481PASSAGEIRO
2000000000465020191114207570PREF. DE: MA - CAXIAS                   CXA0077712201910171610RUA AARAO REIS                                              NXD6312MA123611-SAMTHONDA/BIZ 125 KS                             PARTICULAR                    MOTONETA        PRETA     00000000ISANICE NEVES E SILVA                       RUA MIGUEL ETHEL QD 3 NR. 22            CASA - OLHO D AGUA                      65600000CAXIAS              MACOND. MOTOC/MOTON./CICLOM TRANSPORTANDO/PASSAG.S/C244 * II           00000000070481   0000293470075720191115201912300000000000000000000000000                                                00000000000  000   21    00070433470427170481PASSAGEIRO
2000000000465020191114207570PREF. DE: MA - CAXIAS                   CXA0077713201910171630PCA MAGALHAES DE ALMEIDA                                    PTH1742MA123611-SAMTHONDA/POP 110I                               PARTICULAR                    MOTOCICLETA     VERMELHA  00000000JOSE ORLANDO DE OLIVEIRA                    TV SAO FRANCISCO NR. 1865               - VOLTA REDONDA                         65606370CAXIAS              MACOND. MOTOCICLETA/MOTONETA/CICLOM S/CAPACETE DE SE244 * I            00000000070301   0000293470075720191115201912300000000000000000000000000                                                00000000000  000   22    00070433470597970301PASSAGEIRO
2000000000465020191114207570PREF. DE: MA - CAXIAS                   CXA0077714201910171635PCA CANDIDO MENDES                                          OIW0201MA123611-SAMTHONDA/NXR150 BROS ESD                        PARTICULAR                    MOTOCICLETA     PRETA     00000000CLEBER NELES DE SOUSA                       AV MAL COSTA E SILVA NR. 1225           - CASTELO BRANCO                        65600000CAXIAS              MACOND. MOTOC/MOTON./CICLOM TRANSPORTANDO/PASSAG.S/C244 * II           00000000070481   0000293470075720191115201912300000000000000000000000000                                                00000000000  000   23    00070433470875770481PASSAGEIRO
2000000000465020191114207570PREF. DE: MA - CAXIAS                   CXA0077908201910171120RUA GETULIO VARGAS                                          OJN2147MA306051-SAMTCHEV/SPIN 1.8L MT LTZ                        OFICIAL                       AUTOMOVEL       BRANCA    00000000PREFEITURA MUNICIPAL DE CAXIAS              PC DO PANTEON NR. 600                   - CENTRO                                65606050CAXIAS              MAESTAC. VEIC. NAS ESQU. E MENOS DE 5M DO ALINHAMENT181 * I            00000000053800   0000130160075720191115201912300000000000000000000000000                                                00000000000  000   24    00040433471319053800PASSAGEIRO
2000000000465020191114207570PREF. DE: MA - CAXIAS                   CXA0077907201910171020RUA RIO DE JANEIRO                                          PTH9319MA306051-SAMTHONDA/POP 110I                               PARTICULAR                    MOTOCICLETA     VERMELHA  00000000JOSE CORREIA FILHO                          RUA SAO FRANCISCO NR. 526               - SAO FRANCISCO                         65600500CAXIAS              MACOND. MOTOC/MOTON./CICLOM TRANSPORTANDO/PASSAG.S/C244 * II           00000000070481   0000293470075720191115201912300000000000000000000000000                                                00000000000  000   25    00070433471491970481PASSAGEIRO
2000000000465020191114207570PREF. DE: MA - CAXIAS                   CXA0075450201910171458RUA GUSTAVO COLACO                                          OXW3532MA122221-SAMTHONDA/BIZ 125 ES                             PARTICULAR                    MOTONETA        PRETA     00000000MARIA CONCEICAO SILVA AMORIM                RUA VENEZA NR. 33                       - VENEZA                                65600010CAXIAS              MAESTAC. EM DESACORDO C/ A REGULAMENTACAO ESPECIFICA181 * XVII         00000000055411   0000195230075720191115201912300000000000000000000000000                                                00000000000  000   26    00050433471694655411PASSAGEIRO
2000000000465020191114207570PREF. DE: MA - CAXIAS                   CXA0077708201910171435RUA MENINO DEUS                                             PTL2798MA123611-SAMTHONDA/NXR160 BROS ESDD                       PARTICULAR                    MOTOCICLETA     VERMELHA  00000000ANTONIO EDUARDO BARREIRA LIMA               RUA PAULO RAMOS NR. 70                  EM FRENTE A PCA DOS - CENTRO            65800000BALSAS              MACOND. MOTOC/MOTON./CICLOM TRANSPORTANDO/PASSAG.S/C244 * II           00000000070481   0000293470075720191115201912300000000000000000000000000                                                00000000000  000   27    00070433471807870481PASSAGEIRO
2000000000465020191114207570PREF. DE: MA - CAXIAS                   CXA0077707201910171418RUA MENINO DEUS                                             PTI1007MA123611-SAMTHONDA/POP 110I                               PARTICULAR                    MOTOCICLETA     BRANCA    00000000VIRGINIA MARQUES DA S FEITOSA               RUA 07 QD-28 NR. N-11                   - COHAB                                 65604661CAXIAS              MACOND. MOTOC/MOTON./CICLOM TRANSPORTANDO/PASSAG.S/C244 * II           00000000070481   0000293470075720191115201912300000000000000000000000000                                                00000000000  000   28    00070433472050170481PASSAGEIRO
2000000000465020191114207570PREF. DE: MA - CAXIAS                   CXA0077706201910171410RUA MENINO DEUS                                             OXR1825MA123611-SAMTYAMAHA/YS150 FAZER ED                        PARTICULAR                    MOTOCICLETA     PRETA     00000000RAIMUNDO JOSE PEREIRA SENA                  RUA DA GALEANA NR. 150                  - OLHO D'AGUA                           65600000CAXIAS              MACOND. MOTOCICLETA/MOTONETA/CICLOM S/CAPACETE DE SE244 * I            00000000070301   0000293470075720191115201912300000000000000000000000000                                                00000000000  000   29    00070433472138970301PASSAGEIRO
2000000000465020191114207570PREF. DE: MA - CAXIAS                   CXA0077705201910171405AV. OTAVIO PASSOS                                           PTH2147MA123611-SAMTHONDA/POP 110I                               PARTICULAR                    MOTOCICLETA     BRANCA    00000000FRANCISCA ANERIS DOS S SOUSA                RUA ANTONIO GONCALVES NR. 1102          - VILA ARIAS                            65600001CAXIAS              MACOND. MOTOCICLETA/MOTONETA/CICLOM S/CAPACETE DE SE244 * I            00000000070301   0000293470075720191115201912300000000000000000000000000                                                00000000000  000   30    00070433472306370301PASSAGEIRO
2000000000465020191114207570PREF. DE: MA - CAXIAS                   CXA0077634201910171410RUA MENINO DEUS                                             NNB5205MA122131-SAMTHONDA/NXR150 BROS MIX ES                     PARTICULAR                    MOTOCICLETA     VERMELHA  00000000IRIZETE ALVES LIMA                          AVENIDA CENTRAL NR. 2502                - MUTIRAO                               65600000CAXIAS              MACOND. MOTOC/MOTON./CICLOM TRANSPORTANDO/PASSAG.S/C244 * II           00000000070481   0000293470075720191115201912300000000000000000000000000                                                00000000000  000   31    00070433472472870481PASSAGEIRO
2000000000465020191114207570PREF. DE: MA - CAXIAS                   CXA0077635201910171405RUA MENINO DEUS                                             NNG7317MA122131-SAMTHONDA/POP100                                 PARTICULAR                    MOTOCICLETA     VERMELHA  00000000PEDRINA DE SOUSA                            TRAV CALDEIROES IV NR. 1554             - CALDEIROES                            65600000CAXIAS              MACOND. MOTOC/MOTON./CICLOM TRANSPORTANDO/PASSAG.S/C244 * II           00000000070481   0000293470075720191115201912300000000000000000000000000                                                00000000000  000   32    00070433474167370481PASSAGEIRO
2000000000465020191114207570PREF. DE: MA - CAXIAS                   CXA0077636201910171425RUA MENINO DEUS                                             PTI2160MA122131-SAMTJTZ/CHOPPER RC                               PARTICULAR                    MOTOCICLETA     PRETA     00000000VICTORIA HANNAH A DE A PASSOS               RUA TAPAJOS NR. 28                      - PQ SANTA LUCIA                        65912305IMPERATRIZ          MACOND. MOTOC/MOTON./CICLOM TRANSPORTANDO/PASSAG.S/C244 * II           00000000070481   0000293470075720191115201912300000000000000000000000000                                                00000000000  000   33    00070433474492370481PASSAGEIRO
2000000000465020191114207570PREF. DE: MA - CAXIAS                   CXA0077953201910170900PCA CANDIDO MENDES                                          OJN4185MA78162-SAMT HONDA/NXR150 BROS ES                         PARTICULAR                    MOTOCICLETA     VERMELHA  00000000JOSE DO NASCIMENTO BARBOSA                  RUA JOTA NUNES NR. SN                   - TERRA BELA                            65395000BURITICUPU          MACOND. MOTOC/MOTON./CICLOM TRANSPORTANDO/PASSAG.S/C244 * II           00000000070481   0000293470075720191115201912300000000000000000000000000                                                00000000000  000   34    00070433475372870481PASSAGEIRO
2000000000465020191114207570PREF. DE: MA - CAXIAS                   CXA0077644201910211730AV RODOVIARIA                                               NXN2311MA122131-SAMTHONDA/CG 150 FAN ESI                         PARTICULAR                    MOTOCICLETA     VERMELHA  00000000MARCIO MARQUES DA SILVA                     RUA 14 NR. NR140                        - VL BEC                                65630000TIMON               MACOND. MOTOCICLETA/MOTONETA/CICLOM S/CAPACETE DE SE244 * I            00000000070301   0000293470075720191115201912300000000000000000000000000                                                00000000000  000   35    00070433475745670301PASSAGEIRO
2000000000465020191114207570PREF. DE: MA - CAXIAS                   CXA0077645201910211735AV SAO LUIS                                                 NND2892MA122131-SAMTHONDA/NXR150 BROS MIX ES                     PARTICULAR                    MOTOCICLETA     PRETA     00000000GILSON ALVES DOS SANTOS                     RUA PROFA ANA  CORREIA NR.              CASA NR 1427 - CENTRO                   65600000CAXIAS              MACOND. MOTOC/MOTON./CICLOM TRANSPORTANDO/PASSAG.S/C244 * II           00000000070481   0000293470075720191115201912300000000000000000000000000                                                00000000000  000   36    00070433475996370481PASSAGEIRO
2000000000465020191114207570PREF. DE: MA - CAXIAS                   CXA0077646201910221730AV LUIS SALES                                               HOM7946MA122131-SAMTHONDA/CG 125 TITAN KS                        PARTICULAR                    MOTOCICLETA     VERMELHA  00000000LUIS AUGUSTO SOUSA TEIXEIRA                 R DA ESTRELA N 28 NR.                   - VL BOM VIVER                          65138000RAPOSA              MACOND. MOTOC/MOTON./CICLOM TRANSPORTANDO/PASSAG.S/C244 * II           00000000070481   0000293470075720191115201912300000000000000000000000000                                                00000000000  000   37    00070433476315470481PASSAGEIRO
2000000000465020191114207570PREF. DE: MA - CAXIAS                   CXA0077911201910181131RUA GUSTAVO COLACO                                          OJG2686MA306051-SAMTHONDA/CG 150 FAN ESI                         PARTICULAR                    MOTOCICLETA     PRETA     00000000DANILSON RODRIGUES SANTOS                   TRAV SAO FRANCISCO NR. 2183             - VOLTA REDONDA                         65600000CAXIAS              MAESTAC. EM DESACORDO C/ A REGULAMENTACAO ESPECIFICA181 * XVII         00000000055411   0000195230075720191115201912300000000000000000000000000                                                00000000000  000   38    00050433476662555411PASSAGEIRO
2000000000465020191114207570PREF. DE: MA - CAXIAS                   CXA0077711201910171450RUA MENINO DEUS                                             OXS4413MA123611-SAMTYAMAHA/YBR125 FACTOR ED                      PARTICULAR                    MOTOCICLETA     AZUL      00000000JOSE RAIMUNDO R DO NASCIMENTO               TV SAO JOAO N-234 NR.                   - SERIEMA                               65602810CAXIAS              MACOND. MOTOC/MOTON./CICLOM TRANSPORTANDO/PASSAG.S/C244 * II           00000000070481   0000293470075720191115201912300000000000000000000000000                                                00000000000  000   39    00070433478339270481PASSAGEIRO
2000000000465020191114207570PREF. DE: MA - CAXIAS                   CXA0077905201910160935PCA CANDIDO MENDES                                          NXG7314MA122111-SAMTHONDA/POP100                                 PARTICULAR                    MOTOCICLETA     VERMELHA  00000000MARCOS AURELIO SILVA COELHO                 R 19 NR. 09                             QD A17 - EUG COUTINHO                   65600010CAXIAS              MAESTAC. EM DESACORDO C/ A REGULAMENTACAO ESPECIFICA181 * XVII         00000000055411   0000195230075720191115201912300000000000000000000000000                                                00000000000  000   40    00050433480713555411PASSAGEIRO
2000000000465020191114207570PREF. DE: MA - CAXIAS                   CXA0077904201910160933PCA DUQUE DE CAXIAS                                         OJJ8003MA122111-SAMTHONDA/POP100                                 PARTICULAR                    MOTOCICLETA     VERMELHA  00000000MARIA JULIA PIRES                           RUA  COHAB NR. 129                      - VENEZA                                65606600CAXIAS              MAESTAC. EM DESACORDO C/ A REGULAMENTACAO ESPECIFICA181 * XVII         00000000055411   0000195230075720191115201912300000000000000000000000000                                                00000000000  000   41    00050433480778055411PASSAGEIRO
3000041000000000041
