1*NATI207570202001140047922020011400000000000000
2000000000479220200114207570PREF. DE: MA - CAXIAS                   CXA0079056201912171525PCA CANDIDO MENDES                                          OJC2378MA123611-SAMTHONDA/NXR125 BROS ES                         ALUGUEL                       MOTOCICLETA     AMARELA   00000000CLODOALDO ALVES LIRA                        AV CENTRAL NR. 2502                     - PAI GERALDO                           65600010CAXIAS              MACOND. MOTOC/MOTON./CICLOM TRANSPORTANDO/PASSAG.S/C244 * II           00000000070481   0000293470075720200115202002280000000000000000000000000                                                00000000000  000   1     00070446790779370481PASSAGEIRO
2000000000479220200114207570PREF. DE: MA - CAXIAS                   CXA0079058201912171540RUA AARAO REIS                                              NXK2512MA123611-SAMTHONDA/CG 125 FAN KS                          PARTICULAR                    MOTOCICLETA     PRETA     00000000JOANA DARC DIAS DE OLIVEIRA                 RUA MIGUEL SOBRINHO QD 3 NR. 21         - GALIANA                               65600000CAXIAS              MACOND. MOTOCICLETA/MOTONETA/CICLOM S/CAPACETE DE SE244 * I            00000000070301   0000293470075720200115202002280000000000000000000000000                                                00000000000  000   2     00070446790918470301PASSAGEIRO
2000000000479220200114207570PREF. DE: MA - CAXIAS                   CXA0079059201912171540RUA AARAO REIS                                              PTF8961MA123611-SAMTHONDA/POP 110I                               PARTICULAR                    MOTOCICLETA     PRETA     00000000FRANCISCA JESSICA P DOS SANTOS              RUA SANTA INES NR. 1117                 - VILA LOBAO                            65605547CAXIAS              MACOND. MOTOCICLETA/MOTONETA/CICLOM S/CAPACETE DE SE244 * I            00000000070301   0000293470075720200115202002280000000000000000000000000                                                00000000000  000   3     00070446791403070301PASSAGEIRO
2000000000479220200114207570PREF. DE: MA - CAXIAS                   CXA0079402201912171140AV GETULIO VARGAS                                           PTQ6117MA306431-SAMTHONDA/NXR160 BROS ESDD                       PARTICULAR                    MOTOCICLETA     VERMELHA  00000000ARMANDO JOSE DA CONCEICAO                   R PERIMETRAL EUG COUTINH NR. 01         QD A04 - VL PARAISO                     65600001CAXIAS              MACOND. MOTOC/MOTON./CICLOM TRANSPORTANDO/PASSAG.S/C244 * II           00000000070481   0000293470075720200115202002280000000000000000000000000                                                00000000000  000   4     00070446791499470481PASSAGEIRO
2000000000479220200114207570PREF. DE: MA - CAXIAS                   CXA0079403201912171147AV MENINO DEUS                                              NXG4571MA306431-SAMTHONDA/POP100                                 PARTICULAR                    MOTOCICLETA     VERMELHA  00000000PEDRO BRITO SANTOS SOUSA                    RUA SIQUEIRA CAMPOS NR. 47              - OLHO DAGUA                            65608050CAXIAS              MACOND. MOTOC/MOTON./CICLOM TRANSPORTANDO/PASSAG.S/C244 * II           00000000070481   0000293470075720200115202002280000000000000000000000000                                                00000000000  000   5     00070446792514770481PASSAGEIRO
2000000000479220200114207570PREF. DE: MA - CAXIAS                   CXA0079405201912171147RUA MENINO DEUS                                             NXG4571MA306431-SAMTHONDA/POP100                                 PARTICULAR                    MOTOCICLETA     VERMELHA  00000000PEDRO BRITO SANTOS SOUSA                    RUA SIQUEIRA CAMPOS NR. 47              - OLHO DAGUA                            65608050CAXIAS              MAAVANCAR SINAL VERMELHO DO SEMAFORO                208                00000000060501   0000293470075720200115202002280000000000000000000000000                                                00000000000  000   6     00070446792580560501PASSAGEIRO
2000000000479220200114207570PREF. DE: MA - CAXIAS                   CXA0079406201912171548PCA CANDIDO MENDES                                          NXE4852MA306431-SAMTHONDA/CG 125 FAN KS                          PARTICULAR                    MOTOCICLETA     PRETA     00000000PAULO DE OLIVEIRA                           RUA JOSE NUNES NR. 492                  - CALDEIROES                            65600000CAXIAS              MACOND. MOTOC/MOTON./CICLOM TRANSPORTANDO/PASSAG.S/C244 * II           00000000070481   0000293470075720200115202002280000000000000000000000000                                                00000000000  000   7     00070446792632170481PASSAGEIRO
2000000000479220200114207570PREF. DE: MA - CAXIAS                   CXA0079407201912171658AV DA INDEPENDENCIA                                         PTM2604MA306431-SAMTHONDA/BIZ 110I                               PARTICULAR                    MOTONETA        BRANCA    00000000SOFIA DOS SANTOS ALBUQUERQUE                RUA DA PROSPERIDADE NR. N-08            QD-D-22 RES. - EUGEN. COUTINHO          65604515CAXIAS              MACOND. MOTOC/MOTON./CICLOM TRANSPORTANDO/PASSAG.S/C244 * II           00000000070481   0000293470075720200115202002280000000000000000000000000                                                00000000000  000   8     00070446792698470481PASSAGEIRO
2000000000479220200114207570PREF. DE: MA - CAXIAS                   CXA0079409201912171740PCA CANDIDO MENDES                                          NIV9434MA306431-SAMTVW/GOL 1.0                                   PARTICULAR                    AUTOMOVEL       VERMELHA  00000000ALAN KARDEC GONCALVES FERREIRA              TRAV DUQUE DE CAXIAS NR. 541            - NOVA CAXIAS                           65604300CAXIAS              MADEIXAR O CONDUTOR DE USAR O CINTO E SEGURANCA     167                00000000051851   0000195230075720200115202002280000000000000000000000000                                                00000000000  000   9     00050446792875851851PASSAGEIRO
2000000000479220200114207570PREF. DE: MA - CAXIAS                   CXA0078335201912170925PCA GONCALVES DIAS                                          OIS7781MA301942-SAMTYAMAHA/T115 CRYPTON K                        PARTICULAR                    MOTONETA        PRETA     00000000JOSE BENEDITO FERREIRA SILVA                RUA ALUIZIO LOBO NR. 3705               - SAO FRANCISCO                         65600000CAXIAS              MAESTAC. EM DESACORDO C/ A REGULAMENTACAO ESPECIFICA181 * XVII         00000000055411   0000195230075720200115202002280000000000000000000000000                                                00000000000  000   10    00050446793848655411PASSAGEIRO
3000010000000000010
