1*NATI207570201911210046682019112100000000000000
2000000000466820191121207570PREF. DE: MA - CAXIAS                   CXA0077888201910211700PCA GENTIL FILHO                                            PSW4256MA306521-SAMTHONDA/CG150 FAN ESDI                         PARTICULAR                    MOTOCICLETA     PRETA     00000000JOILSON DO NASCIMENTO ALVES                 RUA MARANHAO NR. 523                    - ANTENOR VIANA                         65603510CAXIAS              MAESTAC. EM LOCAL/HORARIO.DE ESTAC. E PARADA PROIBID181 * XIX          00000000055680   0000195230075720191122202001060000000000000000000000000                                                00000000000  000   1     00050434730420055680PASSAGEIRO
2000000000466820191121207570PREF. DE: MA - CAXIAS                   CXA0077887201910211700PCA GENTIL FILHO                                            PSV4888MA122221-SAMTHONDA/CG 160 START                           PARTICULAR                    MOTOCICLETA     VERMELHA  00000000ANTONIA DAYLIS ARAUJO LIMA                  RUA SESOSTE PEREIRA NR. 2307            - SERIEMA                               65602350CAXIAS              MAESTAC. EM LOCAL/HORARIO.DE ESTAC. E PARADA PROIBID181 * XIX          00000000055680   0000195230075720191122202001060000000000000000000000000                                                00000000000  000   2     00050434730547855680PASSAGEIRO
2000000000466820191121207570PREF. DE: MA - CAXIAS                   CXA0077886201910211610PCA MAGALHAES DE ALMEIDA                                    PTP5027MA122221-SAMTHONDA/CG 160 TITAN                           PARTICULAR                    MOTOCICLETA     VERMELHA  00000000ERYSON LOPES SILVA                          RUA ITAPECURU NR. 112                   - VILA LOBAO                            65605565CAXIAS              MACOND. MOTOCICLETA/MOTONETA/CICLOM S/CAPACETE DE SE244 * I            00000000070301   0000293470075720191122202001060000000000000000000000000                                                00000000000  000   3     00070434730890670301PASSAGEIRO
2000000000466820191121207570PREF. DE: MA - CAXIAS                   CXA0077885201910211559RUA MENINO DEUS                                             NNG9118MA122221-SAMTHONDA/CG 125 FAN KS                          PARTICULAR                    MOTOCICLETA     PRETA     00000000LUIS DE SOUSA BRAGA                         RUA PARAIBA NR. 829                     - ANTENOR VIANA                         65603585CAXIAS              MACOND. MOTOCICLETA/MOTONETA/CICLOM S/CAPACETE DE SE244 * I            00000000070301   0000293470075720191122202001060000000000000000000000000                                                00000000000  000   4     00070434731129070301PASSAGEIRO
2000000000466820191121207570PREF. DE: MA - CAXIAS                   CXA0077884201910211555PCA DO PANTHEON                                             PSO0691MA122221-SAMTHONDA/POP 110I                               PARTICULAR                    MOTOCICLETA     BRANCA    00000000CASSIA REGINA DA SILVA TOTE                 TV ANICETO CRUZ NR. 169                 - TREZIDELA                             65600010CAXIAS              MACOND. MOTOCICLETA/MOTONETA/CICLOM S/CAPACETE DE SE244 * I            00000000070301   0000293470075720191122202001060000000000000000000000000                                                00000000000  000   5     00070434731241570301PASSAGEIRO
2000000000466820191121207570PREF. DE: MA - CAXIAS                   CXA0077883201910211536PCA DO PANTHEON                                             OXQ0884MA122221-SAMTHONDA/POP100                                 PARTICULAR                    MOTOCICLETA     VERMELHA  00000000JANILSON DA SILVA REIS                      RUA JABOTIS NR. 843                     - JOAO VIANA                            65600000CAXIAS              MAAVANCAR SINAL VERMELHO DO SEMAFORO                208                00000000060501   0000293470075720191122202001060000000000000000000000000                                                00000000000  000   6     00070434731295460501PASSAGEIRO
2000000000466820191121207570PREF. DE: MA - CAXIAS                   CXA0077881201910211515RUA OTAVIO PASSOS                                           OXS3449MA122221-SAMTHONDA/NXR150 BROS ES                         PARTICULAR                    MOTOCICLETA     PRETA     00000000ROBERTO RIVELINO ARAUJO SANTOS              RUA GALEANA NR. 06                      - OLHO D'AGUA                           65600000CAXIAS              MAAVANCAR SINAL VERMELHO DO SEMAFORO                208                00000000060501   0000293470075720191122202001060000000000000000000000000                                                00000000000  000   7     00070434731376460501PASSAGEIRO
2000000000466820191121207570PREF. DE: MA - CAXIAS                   CXA0077879201910211510RUA GUSTAVO COLACO                                          PSL8010MA122221-SAMTCHEVROLET/ONIX 1.0MT LT                      PARTICULAR                    AUTOMOVEL       AZUL      00000000LILA LEA CARDOSO CHAVES                     RUA 07 DE SETEMBRO NR. 215              - TREZIDELA                             65607350CAXIAS              MAESTACIONAR EM DESACORDO C/REGULAM-VAGA DE CARGA/DE181 * XVII         00000000055414   0000195230075720191122202001060000000000000000000000000                                                00000000000  000   8     00050434731495755414PASSAGEIRO
2000000000466820191121207570PREF. DE: MA - CAXIAS                   CXA0077890201910211706AV SANTOS DUMONT                                            OXR1538MA122221-SAMTHONDA/NXR150 BROS ES                         PARTICULAR                    MOTOCICLETA     BRANCA    00000000GIORGINA SANTOS SOUSA                       PCA DO CEMIT DOS REMEDIO NR. 1279       - CASTELO BRANCO                        65600280CAXIAS              MACOND. MOTOC/MOTON./CICLOM TRANSPORTANDO/PASSAG.S/C244 * II           00000000070481   0000293470075720191122202001060000000000000000000000000                                                00000000000  000   9     00070434731633070481PASSAGEIRO
2000000000466820191121207570PREF. DE: MA - CAXIAS                   CXA0077889201910211705AV SANTOS DUMONT                                            OXR1538MA122221-SAMTHONDA/NXR150 BROS ES                         PARTICULAR                    MOTOCICLETA     BRANCA    00000000GIORGINA SANTOS SOUSA                       PCA DO CEMIT DOS REMEDIO NR. 1279       - CASTELO BRANCO                        65600280CAXIAS              MACOND. MOTOCICLETA/MOTONETA/CICLOM S/CAPACETE DE SE244 * I            00000000070301   0000293470075720191122202001060000000000000000000000000                                                00000000000  000   10    00070434731806570301PASSAGEIRO
2000000000466820191121207570PREF. DE: MA - CAXIAS                   CXA0077914201910210700RUA GUSTAVO COLACO                                          OJC9495MA306051-SAMTHONDA/CG 125 FAN KS                          PARTICULAR                    MOTOCICLETA     VERMELHA  00000000HAYLA WANESSA S DE CARVALHO                 TRAV OTAVIO PASSOS NR. 228              - CENTRO                                65600010CAXIAS              MACOND. MOTOCICLETA/MOTONETA/CICLOM S/CAPACETE DE SE244 * I            00000000070301   0000293470075720191122202001060000000000000000000000000                                                00000000000  000   11    00070434731961470301PASSAGEIRO
2000000000466820191121207570PREF. DE: MA - CAXIAS                   CXA0077915201910210716RUA GUSTAVO COLACO                                          NHA4991MA306051-SAMTHONDA/CG 150 TITAN KS                        PARTICULAR                    MOTOCICLETA     PRETA     00000000SEBASTIAO RAMOS DOS SANTOS                  R SANHARO NR-634 NR.                    - TRIZIDELA                             65600000CAXIAS              MAESTAC. EM DESACORDO C/ A REGULAMENTACAO ESPECIFICA181 * XVII         00000000055411   0000195230075720191122202001060000000000000000000000000                                                00000000000  000   12    00050434732231355411PASSAGEIRO
2000000000466820191121207570PREF. DE: MA - CAXIAS                   CXA0077916201910210922PCA GENTIL FILHO                                            PSW4256MA306521-SAMTHONDA/CG150 FAN ESDI                         PARTICULAR                    MOTOCICLETA     PRETA     00000000JOILSON DO NASCIMENTO ALVES                 RUA MARANHAO NR. 523                    - ANTENOR VIANA                         65603510CAXIAS              MAESTAC. EM LOCAL/HORARIO.DE ESTAC. E PARADA PROIBID181 * XIX          00000000055680   0000195230075720191122202001060000000000000000000000000                                                00000000000  000   13    00050434732526655680PASSAGEIRO
2000000000466820191121207570PREF. DE: MA - CAXIAS                   CXA0077917201910210934AV SANTOS DRUMONT                                           PSF6324MA306521-SAMTHONDA/CG150 FAN ESDI                         PARTICULAR                    MOTOCICLETA     PRETA     00000000WELSON TULIO FERRO ROCHA                    RUA CRISTO REI NR. 1691                 - CASTELO BRANCO                        65600320CAXIAS              MACOND. MOTOCICLETA/MOTONETA/CICLOM S/CAPACETE DE SE244 * I            00000000070301   0000293470075720191122202001060000000000000000000000000                                                00000000000  000   14    00070434732905970301PASSAGEIRO
2000000000466820191121207570PREF. DE: MA - CAXIAS                   CXA0077919201910211032RUA GUSTAVO COLACO                                          NNE2774MA306521-SAMTYAMAHA/FACTOR YBR125 K                       PARTICULAR                    MOTOCICLETA     PRETA     00000000ANTONIO JOSE M COSTA                        TRAV AEROPORTO NR. 2087                 - SAO FRANCISCO                         65600010CAXIAS              MAESTAC. EM DESACORDO C/ A REGULAMENTACAO ESPECIFICA181 * XVII         00000000055411   0000195230075720191122202001060000000000000000000000000                                                00000000000  000   15    00050434733187855411PASSAGEIRO
2000000000466820191121207570PREF. DE: MA - CAXIAS                   CXA0077920201910211035RUA GUSTAVO COLACO                                          OJB0468MA306521-SAMTYAMAHA/FACTOR YBR125 K                       PARTICULAR                    MOTOCICLETA     PRETA     00000000HELDER DE AQUINO ROCHA                      TRAV SANTA RITA NR. 264                 - PONTE                                 65600000CAXIAS              MAESTAC. EM DESACORDO C/ A REGULAMENTACAO ESPECIFICA181 * XVII         00000000055411   0000195230075720191122202001060000000000000000000000000                                                00000000000  000   16    00050434733476155411PASSAGEIRO
2000000000466820191121207570PREF. DE: MA - CAXIAS                   CXA0077923201910211106PCA DO PANTHEON                                             LVY4009MA306051-SAMTI/TOYOTA LAND CRUISER PR                     PARTICULAR                    UTILITARIO      PRETA     00000000SHIRLENE DE SOUSA N SUDARIO                 AV SANTOS DUMONT NR. 4160               - ANTENOR VIANA                         65600010CAXIAS              MAESTACIONAR EM DESACORDO C/REGULAMENTACAO-PONTO OU 181 * XVII         00000000055413   0000195230075720191122202001060000000000000000000000000                                                00000000000  000   17    00050434733972055413MISTO
2000000000466820191121207570PREF. DE: MA - CAXIAS                   CXA0077925201910211110PCA DO PANTHEON                                             PTO0883MA306051-SAMTCHEVROLET/S10 LT DD4A                        PARTICULAR                    CAMINHONETE     BRANCA    00000000PRISCILA KARLA SOUSA R MAGALHAES            R SANTOS DUMONT NR. 580                 - SERIEMA                               65602500CAXIAS              MAESTACIONAR EM DESACORDO C/REGULAMENTACAO-PONTO OU 181 * XVII         00000000055413   0000195230075720191122202001060000000000000000000000000                                                00000000000  000   18    00050434736378855413ESPECIAL
2000000000466820191121207570PREF. DE: MA - CAXIAS                   CXA0077735201910211730AV DA RODOVIARIA                                            PTA3442MA123611-SAMTHONDA/POP 110I                               PARTICULAR                    MOTOCICLETA     PRETA     00000000GRAZIELE SANTOS CAMPOS                      RUA ITAPECURU NR. 1347                  - VILA LOBAO                            65605565CAXIAS              MACOND. MOTOCICLETA/MOTONETA/CICLOM S/CAPACETE DE SE244 * I            00000000070301   0000293470075720191122202001060000000000000000000000000                                                00000000000  000   19    00070434736617570301PASSAGEIRO
2000000000466820191121207570PREF. DE: MA - CAXIAS                   CXA0077733201910211600PCA MAGALHAES DE ALMEIDA                                    NNA4394MA123611-SAMTFIAT/PALIO WK ADVEN DUAL                     PARTICULAR                    AUTOMOVEL       PRETA     00000000BANCO ITAUCARD S/A                          RUA 06 QD 25 CASA 21 NR.                - CONJ COHAB                            65600000CAXIAS              MADIR.VEIC. UTILIZANDO-SE DE TELEFONE CELULAR       252 * VI           00000000073662   0000130160075720191122202001060000000000000000000000000                                                00000000000  000   20    00040434736854273662PASSAGEIRO
2000000000466820191121207570PREF. DE: MA - CAXIAS                   CXA0077732201910211500RUA CORONEL LIBANIO LOBO                                    OJN4842MA123611-SAMTHONDA/CG150 FAN ESDI                         PARTICULAR                    MOTOCICLETA     PRETA     00000000RAFAEL SILVA SOUSA                          VL VINICIUS DUARTE NR. 39               - OLHO DAGUA                            65600000CAXIAS              MACOND. MOTOC/MOTON./CICLOM TRANSPORTANDO/PASSAG.S/C244 * II           00000000070481   0000293470075720191122202001060000000000000000000000000                                                00000000000  000   21    00070434737106370481PASSAGEIRO
2000000000466820191121207570PREF. DE: MA - CAXIAS                   CXA0077731201910211450PCA CANDIDO MENDES                                          NXC3009MA123611-SAMTHONDA/CG 125 FAN KS                          PARTICULAR                    MOTOCICLETA     PRETA     00000000FRANCINALDO PEREIRA DA SILVA                II TRAV FAVEIRA NR. 228                 - BAIXINHA                              65600000CAXIAS              MACOND. MOTOC/MOTON./CICLOM TRANSPORTANDO/PASSAG.S/C244 * II           00000000070481   0000293470075720191122202001060000000000000000000000000                                                00000000000  000   22    00070434737338470481PASSAGEIRO
2000000000466820191121207570PREF. DE: MA - CAXIAS                   CXA0077730201910211450PCA CANDIDO MENDES                                          PSX6615MA123611-SAMTHONDA/NXR160 BROS ESD                        PARTICULAR                    MOTOCICLETA     PRETA     00000000ANA MARIA BRAGA MOTTA                       PV BAIXA DO ENGENHO NR. S/N             - ZONA RURAL                            65609899CAXIAS              MACOND. MOTOC/MOTON./CICLOM TRANSPORTANDO/PASSAG.S/C244 * II           00000000070481   0000293470075720191122202001060000000000000000000000000                                                00000000000  000   23    00070434737526370481PASSAGEIRO
2000000000466820191121207570PREF. DE: MA - CAXIAS                   CXA0077729201910211450PCA CANDIDO MENDES                                          OIW8731MA123611-SAMTHONDA/POP100                                 PARTICULAR                    MOTOCICLETA     VERMELHA  00000000JOSEANE MONTEIRO DA SILVA                   RUA BELA VISTA NR. 0                    - BELA VISTA                            65600000CAXIAS              MACOND. MOTOC/MOTON./CICLOM TRANSPORTANDO/PASSAG.S/C244 * II           00000000070481   0000293470075720191122202001060000000000000000000000000                                                00000000000  000   24    00070434737690170481PASSAGEIRO
2000000000466820191121207570PREF. DE: MA - CAXIAS                   CXA0077728201910211450PCA CANDIDO MENDES                                          PTB1240MA123611-SAMTFIAT/MOBI LIKE                               PARTICULAR                    AUTOMOVEL       BRANCA    00000000GALBA SYONE BRITTO M FIGUEIREDO             RUA ANISIO V CHAVES NR. 181             - CENTRO                                65608490CAXIAS              MADIR.VEIC. UTILIZANDO-SE DE TELEFONE CELULAR       252 * VI           00000000073662   0000130160075720191122202001060000000000000000000000000                                                00000000000  000   25    00040434758149173662PASSAGEIRO
2000000000466820191121207570PREF. DE: MA - CAXIAS                   CXA0077727201910211445RUA 01 DE AGOSTO                                            NHS6018MA123611-SAMTHONDA/CG 125 FAN                             PARTICULAR                    MOTOCICLETA     PRETA     00000000CLEIDIANE MARIA SANTOS ANDRADE              RUA MATADOURO NR. N-471                 - TRIZIDELA                             65607610CAXIAS              MACOND. MOTOC/MOTON./CICLOM TRANSPORTANDO/PASSAG.S/C244 * II           00000000070481   0000293470075720191122202001060000000000000000000000000                                                00000000000  000   26    00070434763176670481PASSAGEIRO
2000000000466820191121207570PREF. DE: MA - CAXIAS                   CXA0077959201910291720PCA CANDIDO MENDES                                          PSK8270MA78162-SAMT HONDA/CG150 START                            PARTICULAR                    MOTOCICLETA     AMARELA   00000000LUIZ ANTONIO DA CONCEICAO ALVES             RUA GILBERTO BARBOSA NR. 764            - VILA ARIAS                            65603240CAXIAS              MACOND. MOTOC/MOTON./CICLOM TRANSPORTANDO/PASSAG.S/C244 * II           00000000070481   0000293470075720191122202001060000000000000000000000000                                                00000000000  000   27    00070434763317370481PASSAGEIRO
2000000000466820191121207570PREF. DE: MA - CAXIAS                   CXA0077957201910291700PCA CANDIDO MENDES                                          HQE8684MA78162-SAMT HONDA/BIZ 125 ES                             PARTICULAR                    MOTONETA        PRETA     00000000GRACINEIDE MARIA DE SA COUTINHO             RUA NOVA NR. N-262                      - JOSE CASTRO                           65600000CAXIAS              MACOND. MOTOC/MOTON./CICLOM TRANSPORTANDO/PASSAG.S/C244 * II           00000000070481   0000293470075720191122202001060000000000000000000000000                                                00000000000  000   28    00070434763466870481PASSAGEIRO
2000000000466820191121207570PREF. DE: MA - CAXIAS                   CXA0076843201910290912PCA DO PANTHEON                                             OXX1461MA306461-SAMTVW/SAVEIRO CD CROSS MA                       PARTICULAR                    CAMINHONETE     VERMELHA  00000000MARCO MAGNO B G DE JESUS JUNIOR             R 11 NR. 27                             QD 7 - COHAB                            65604400CAXIAS              MAESTACIONAR EM DESACORDO C/REGULAMENTACAO-PONTO OU 181 * XVII         00000000055413   0000195230075720191122202001060000000000000000000000000                                                00000000000  000   29    00050434763662855413ESPECIAL
2000000000466820191121207570PREF. DE: MA - CAXIAS                   CXA0077132201910290830RUA 13 DE MAIO                                              NMZ5684MA122061-SAMTHONDA/NXR150 BROS MIX KS                     PARTICULAR                    MOTOCICLETA     PRETA     00000000FRANCISCO JEFFERSON A DA SILVA              I TV DO FIO NR. N-649                   - CANGALHEIRO                           65600000CAXIAS              MACOND. MOTOCICLETA/MOTONETA/CICLOM S/CAPACETE DE SE244 * I            00000000070301   0000293470075720191122202001060000000000000000000000000                                                00000000000  000   30    00070434763848570301PASSAGEIRO
2000000000466820191121207570PREF. DE: MA - CAXIAS                   CXA0077131201910290925PCA CANDIDO MENDES                                          NHA8811MA122061-SAMTVW/FOX 1.0                                   PARTICULAR                    AUTOMOVEL       PRETA     00000000IGOR VELOZO VIANA                           R PIACAVA NR. SN                        - Z RURAL                               65600010CAXIAS              MAESTAC. VEIC. NAS ESQU. E MENOS DE 5M DO ALINHAMENT181 * I            00000000053800   0000130160075720191122202001060000000000000000000000000                                                00000000000  000   31    00040434763985653800PASSAGEIRO
2000000000466820191121207570PREF. DE: MA - CAXIAS                   CXA0077129201910290830PCA GONCALVES DIAS                                          NNA1821MA122061-SAMTTOYOTA/COROLLA GLI18FLEX                     PARTICULAR                    AUTOMOVEL       PRETA     00000000MARIA IRACI LEODORO                         RUA DA GLORIA NR. 948                   - CAMPO BELEM                           65609250CAXIAS              MADIR.VEIC. UTILIZANDO-SE DE TELEFONE CELULAR       252 * VI           00000000073662   0000130160075720191122202001060000000000000000000000000                                                00000000000  000   32    00040434764375673662PASSAGEIRO
2000000000466820191121207570PREF. DE: MA - CAXIAS                   CXA0078159201910291410AV. GETULIO VARGAS                                          OXT8107MA122131-SAMTHONDA/POP100                                 PARTICULAR                    MOTOCICLETA     VERMELHA  00000000FRANCISCA DAS CHAGAS A DA SILVA             RUA 9 NR. 1104                          - BAIXINHA                              65600010CAXIAS              MACOND. MOTOC/MOTON./CICLOM TRANSPORTANDO/PASSAG.S/C244 * II           00000000070481   0000293470075720191122202001060000000000000000000000000                                                00000000000  000   33    00070434764657770481PASSAGEIRO
2000000000466820191121207570PREF. DE: MA - CAXIAS                   CXA0078161201910291450RUA MENINO DEUS                                             PTC2460MA122131-SAMTHONDA/POP 110I                               PARTICULAR                    MOTOCICLETA     PRETA     00000000IVANETE CANTANHEDE DOS SANTOS               RUA PAULISTANO NR. 557                  - PIRAJA                                65608420CAXIAS              MACOND. MOTOC/MOTON./CICLOM TRANSPORTANDO/PASSAG.S/C244 * II           00000000070481   0000293470075720191122202001060000000000000000000000000                                                00000000000  000   34    00070434764970370481PASSAGEIRO
2000000000466820191121207570PREF. DE: MA - CAXIAS                   CXA0078162201910291450RUA MENINO DEUS                                             OXT7821MA122131-SAMTHONDA/POP100                                 PARTICULAR                    MOTOCICLETA     VERMELHA  00000000IVANI DOS SANTOS SILVA                      RUA JOSE NUNES NR. 101                  - CALDEIROES                            65600000CAXIAS              MACOND. MOTOC/MOTON./CICLOM TRANSPORTANDO/PASSAG.S/C244 * II           00000000070481   0000293470075720191122202001060000000000000000000000000                                                00000000000  000   35    00070434765018370481PASSAGEIRO
2000000000466820191121207570PREF. DE: MA - CAXIAS                   CXA0078163201910291455RUA MENINO DEUS                                             PSF8248MA12213-SAMT HONDA/BIZ 125 EX                             PARTICULAR                    MOTONETA        VERMELHA  00000000ROSANGELA MONTEIRO                          RUA TURI NR.                            - TURIRANA                              65275000APICUM-ACU          MACOND. MOTOC/MOTON./CICLOM TRANSPORTANDO/PASSAG.S/C244 * II           00000000070481   0000293470075720191122202001060000000000000000000000000                                                00000000000  000   36    00070434765138470481PASSAGEIRO
2000000000466820191121207570PREF. DE: MA - CAXIAS                   CXA0078164201910291540RUA AARAO REIS                                              PSN4649MA122131-SAMTHONDA/POP 110I                               PARTICULAR                    MOTOCICLETA     BRANCA    00000000KAROLAINE DA S CRUZ GOMES                   AV BRASIL QD A NR. 01                   - VILA ARIAS                            65603200CAXIAS              MACOND. MOTOC/MOTON./CICLOM TRANSPORTANDO/PASSAG.S/C244 * II           00000000070481   0000293470075720191122202001060000000000000000000000000                                                00000000000  000   37    00070434765181370481PASSAGEIRO
2000000000466820191121207570PREF. DE: MA - CAXIAS                   CXA0078126201910291455RUA MENINO DEUS                                             OIY0916MA123611-SAMTHONDA/POP100                                 PARTICULAR                    MOTOCICLETA     PRETA     00000000RONIERYTON DE OLIVEIRA CARVALHO             RUA PONTE CLARO NR. 1071                - CAMPO BELEM                           65600001CAXIAS              MACOND. MOTOC/MOTON./CICLOM TRANSPORTANDO/PASSAG.S/C244 * II           00000000070481   0000293470075720191122202001060000000000000000000000000                                                00000000000  000   38    00070434765226770481PASSAGEIRO
2000000000466820191121207570PREF. DE: MA - CAXIAS                   CXA0078127201910291500RUA MENINO DEUS                                             PSG1686MA123611-SAMTHONDA/POP100                                 PARTICULAR                    MOTOCICLETA     PRETA     00000000ANDERSON RAFAEL SANTOS CARDOSO              AV BENJAMIM CONTANTE NR. 1341           - NOVA CAXIAS                           65604260CAXIAS              MACOND. MOTOC/MOTON./CICLOM TRANSPORTANDO/PASSAG.S/C244 * II           00000000070481   0000293470075720191122202001060000000000000000000000000                                                00000000000  000   39    00070434765279870481PASSAGEIRO
2000000000466820191121207570PREF. DE: MA - CAXIAS                   CXA0078121201910291430RUA MENINO DEUS                                             NMP0392MA123611-SAMTHONDA/CG 125 FAN ES                          PARTICULAR                    MOTOCICLETA     VERMELHA  00000000MARCOS VINICIUS DA SILVA SENA               TV SAO JOSE II NR. N154                 - TRIZIDELA                             65600010CAXIAS              MACOND. MOTOC/MOTON./CICLOM TRANSPORTANDO/PASSAG.S/C244 * II           00000000070481   0000293470075720191122202001060000000000000000000000000                                                00000000000  000   40    00070434765384070481PASSAGEIRO
2000000000466820191121207570PREF. DE: MA - CAXIAS                   CXA0078122201910291435RUA MENINO DEUS                                             PTC4349MA123611-SAMTHONDA/CG150 START                            PARTICULAR                    MOTOCICLETA     AMARELA   00000000MARIA DAS GRACAS DE S LACERDA               TV DO ESPIRITO SANTO I NR. 338          - CANGALHEIRO                           65606300CAXIAS              MACOND. MOTOC/MOTON./CICLOM TRANSPORTANDO/PASSAG.S/C244 * II           00000000070481   0000293470075720191122202001060000000000000000000000000                                                00000000000  000   41    00070434765500270481PASSAGEIRO
2000000000466820191121207570PREF. DE: MA - CAXIAS                   CXA0078123201910291445RUA MENINO DEUS                                             PSK3156MA123611-SAMTHONDA/BIZ 125 ES                             PARTICULAR                    MOTONETA        VERMELHA  00000000JOSE PROTASIO DOS SANTOS                    RUA BOA VONTADE NR. 463                 - ANTENOR VIANA                         65603505CAXIAS              MACOND. MOTOC/MOTON./CICLOM TRANSPORTANDO/PASSAG.S/C244 * II           00000000070481   0000293470075720191122202001060000000000000000000000000                                                00000000000  000   42    00070434765680770481PASSAGEIRO
2000000000466820191121207570PREF. DE: MA - CAXIAS                   CXA0078115201910291555AV SANTOS DRUMONT                                           NMR2877MA123611-SAMTHONDA/CG 125 FAN KS                          PARTICULAR                    MOTOCICLETA     PRETA     00000000SEBASTIAO DA CRUZ MORAES                    R.DO CAJUEIRO NR. NR-18                 - SIRIEMA                               65602530CAXIAS              MACOND. MOTOCICLETA/MOTONETA/CICLOM S/CAPACETE DE SE244 * I            00000000070301   0000293470075720191122202001060000000000000000000000000                                                00000000000  000   43    00070434765895870301PASSAGEIRO
2000000000466820191121207570PREF. DE: MA - CAXIAS                   CXA0076848201910291646AV NEREU BITTECOURT                                         HQE8684MA306461-SAMTHONDA/BIZ 125 ES                             PARTICULAR                    MOTONETA        PRETA     00000000GRACINEIDE MARIA DE SA COUTINHO             RUA NOVA NR. N-262                      - JOSE CASTRO                           65600000CAXIAS              MACOND. MOTOCICLETA/MOTONETA/CICLOM S/CAPACETE DE SE244 * I            00000000070301   0000293470075720191122202001060000000000000000000000000                                                00000000000  000   44    00070434765948270301PASSAGEIRO
3000044000000000044
