1*NATI207570201912160047232019121600000000000000
2000000000472320191216207570PREF. DE: MA - CAXIAS                   CXA0078716201911251505AV DA INDEPENDENCIA                                         NHP0421MA123611-SAMTHONDA/CG 150 TITAN ES                        PARTICULAR                    MOTOCICLETA     VERMELHA  00000000LUIZ GONZAGA ALVES                          RUA 24 DE DEZEMBRO NR. N-955            - SERIEMA                               65600000CAXIAS              MACOND. MOTOC/MOTON./CICLOM TRANSPORTANDO/PASSAG.S/C244 * II           00000000070481   0000293470075720191217202001300000000000000000000000000                                                00000000000  000   1     00070440258437070481PASSAGEIRO
2000000000472320191216207570PREF. DE: MA - CAXIAS                   CXA0078717201911251505AV INDEPENDENCIA                                            OIX5701MA123611-SAMTYAMAHA/XTZ 125E                              PARTICULAR                    MOTOCICLETA     PRETA     00000000JOSE DA SILVA VILARINHO                     AVENIDA ALEXANDRE COSTA NR. 3138        - NOVA CAXIAS                           65600000CAXIAS              MACOND. MOTOCICLETA/MOTONETA/CICLOM S/CAPACETE DE SE244 * I            00000000070301   0000293470075720191217202001300000000000000000000000000                                                00000000000  000   2     00070440258674770301PASSAGEIRO
2000000000472320191216207570PREF. DE: MA - CAXIAS                   CXA0078718201911251520AV DA INDEPENDENCIA                                         HPV2127MA123611-SAMTHONDA/CG 150 TITAN KS                        PARTICULAR                    MOTOCICLETA     VERMELHA  00000000DEUZILENE ANDRADE DA SILVA                  R.DO ESPIRITO SANTO NR. 1221            - CANGALHEIRO                           65600000CAXIAS              MACOND. MOTOC/MOTON./CICLOM TRANSPORTANDO/PASSAG.S/C244 * II           00000000070481   0000293470075720191217202001300000000000000000000000000                                                00000000000  000   3     00070440258871570481PASSAGEIRO
2000000000472320191216207570PREF. DE: MA - CAXIAS                   CXA0078722201911251635AV DA INDEPENDENCIA                                         OXQ1599MA123611-SAMTHONDA/BIZ 125 ES                             PARTICULAR                    MOTONETA        VERMELHA  00000000BETANIA MARIA S DA SILVA PINHO              RUA INDEPENDENCIA NR. 1205              - CENTRO                                65602210CAXIAS              MACOND. MOTOC/MOTON./CICLOM TRANSPORTANDO/PASSAG.S/C244 * II           00000000070481   0000293470075720191217202001300000000000000000000000000                                                00000000000  000   4     00070440259293370481PASSAGEIRO
2000000000472320191216207570PREF. DE: MA - CAXIAS                   CXA0078321201911261128AV GETULIO VARGAS                                           PSB3432MA301942-SAMTHONDA/BIZ 100 KS                             PARTICULAR                    MOTONETA        PRETA     00000000DAYRES MILHOMEM ARAUJO                      TRAV 7 DE SETEMBRO II NR. 946           - TREZIDELA                             65600000CAXIAS              MAAVANCAR SINAL VERMELHO DO SEMAFORO                208                00000000060501   0000293470075720191217202001300000000000000000000000000                                                00000000000  000   5     00070440259548760501PASSAGEIRO
2000000000472320191216207570PREF. DE: MA - CAXIAS                   CXA0078322201911261133RUA MENINO DEUS                                             PSA8489MA301942-SAMTHONDA/NXR125 BROS ES                         PARTICULAR                    MOTOCICLETA     PRETA     00000000MAICON DOS SANTOS SOUSA                     R DOS CALDEIROES NR. 818                - CALDEIROES                            65607305CAXIAS              MACOND. MOTOC/MOTON./CICLOM TRANSPORTANDO/PASSAG.S/C244 * II           00000000070481   0000293470075720191217202001300000000000000000000000000                                                00000000000  000   6     00070440298703270481PASSAGEIRO
2000000000472320191216207570PREF. DE: MA - CAXIAS                   CXA0078733201911261450PCA CANDIDO MENDES                                          OIY1107MA123611-SAMTYAMAHA/T115 CRYPTON ED                       PARTICULAR                    MOTONETA        PRATA     00000000FRANCISCO DAS CHAGAS PEREIRA                AVENIDA SANTOS DUMONT NR. SN            - SERIEMA                               65600000CAXIAS              MACOND. MOTOC/MOTON./CICLOM TRANSPORTANDO/PASSAG.S/C244 * II           00000000070481   0000293470075720191217202001300000000000000000000000000                                                00000000000  000   7     00070440299475670481PASSAGEIRO
2000000000472320191216207570PREF. DE: MA - CAXIAS                   CXA0078734201911261625AV OTAVIO PASSOS                                            OIX5701MA122131-SAMTYAMAHA/XTZ 125E                              PARTICULAR                    MOTOCICLETA     PRETA     00000000JOSE DA SILVA VILARINHO                     AVENIDA ALEXANDRE COSTA NR. 3138        - NOVA CAXIAS                           65600000CAXIAS              MACOND. MOTOC/MOTON./CICLOM TRANSPORTANDO/PASSAG.S/C244 * II           00000000070481   0000293470075720191217202001300000000000000000000000000                                                00000000000  000   8     00070440299979070481PASSAGEIRO
2000000000472320191216207570PREF. DE: MA - CAXIAS                   CXA0078735201911261600AV ALEXANDRE COSTA                                          PSR1931MA123611-SAMTVW/SAVEIRO CD CROSS MA                       PARTICULAR                    CAMINHONETE     BRANCA    00000000CAXIAS MULTIMARCAS DE V LTDA ME             AV GETULIO VARGAS NR. 319               - CENTRO                                65608140CAXIAS              MADIR.VEIC. UTILIZANDO-SE DE TELEFONE CELULAR       252 * VI           00000000073662   0000130160075720191217202001300000000000000000000000000                                                00000000000  000   9     00040440300209973662ESPECIAL
2000000000472320191216207570PREF. DE: MA - CAXIAS                   CXA0078384201911251135AV CENTRAL                                                  NXN1693MA122111-SAMTHONDA/POP100                                 PARTICULAR                    MOTOCICLETA     PRETA     00000000CLAUDEILSON MENDES LIMA                     R DOUTOR WALTER BRITO NR. 846           - CAMPO DE BELEM                        65600010CAXIAS              MACOND. MOTOC/MOTON./CICLOM TRANSPORTANDO/PASSAG.S/C244 * II           00000000070481   0000293470075720191217202001300000000000000000000000000                                                00000000000  000   10    00070440300993070481PASSAGEIRO
3000010000000000010
