1*NATI207570201912100047092019121000000000000000
2000000000470920191210207570PREF. DE: MA - CAXIAS                   CXA0078418201911111500PCA CANDIDO MENDES                                          PTC6790MA122221-SAMTHONDA/POP 110I                               PARTICULAR                    MOTOCICLETA     VERMELHA  00000000JULIANA RAMOS SANTIAGO                      TV JOSE SARNEY NR. 619                  - CAMPO DE BELEM                        65609210CAXIAS              MACOND. MOTOC/MOTON./CICLOM TRANSPORTANDO/PASSAG.S/C244 * II           00000000070481   0000293470075720191211202001240000000000000000000000000                                                00000000000  000   1     00070439010949970481PASSAGEIRO
2000000000470920191210207570PREF. DE: MA - CAXIAS                   CXA0078419201911111510PCA CANDIDO MENDES                                          PTN9657MA122051-SAMTHONDA/BIZ 110I                               PARTICULAR                    MOTONETA        VERMELHA  00000000EMANUELLE CATARINA S DE MOURA               AV GENERAL SAMPAIO NR. 1505             - CENTRO                                65604090CAXIAS              MACOND. MOTOC/MOTON./CICLOM TRANSPORTANDO/PASSAG.S/C244 * II           00000000070481   0000293470075720191211202001240000000000000000000000000                                                00000000000  000   2     00070439010976670481PASSAGEIRO
2000000000470920191210207570PREF. DE: MA - CAXIAS                   CXA0078420201911111630RUA NEREU BITTENCOURT                                       OJK6005MA122221-SAMTHONDA/CG 125 FAN ES                          PARTICULAR                    MOTOCICLETA     PRETA     00000000INACIO ALVES DE SOUSA                       RUA DO CAMPO NR. NR 05                  - PRESIDIO                              65700000BACABAL             MACOND. MOTOC/MOTON./CICLOM TRANSPORTANDO/PASSAG.S/C244 * II           00000000070481   0000293470075720191211202001240000000000000000000000000                                                00000000000  000   3     00070439011005570481PASSAGEIRO
2000000000470920191210207570PREF. DE: MA - CAXIAS                   CXA0078421201911111706PCA GONCALVES DIAS                                          PSO0691MA122221-SAMTHONDA/POP 110I                               PARTICULAR                    MOTOCICLETA     BRANCA    00000000CASSIA REGINA DA SILVA TOTE                 TV ANICETO CRUZ NR. 169                 - TREZIDELA                             65600010CAXIAS              MACOND. MOTOCICLETA/MOTONETA/CICLOM S/CAPACETE DE SE244 * I            00000000070301   0000293470075720191211202001240000000000000000000000000                                                00000000000  000   4     00070439011093470301PASSAGEIRO
2000000000470920191210207570PREF. DE: MA - CAXIAS                   CXA0078422201911111706PCA GONCALVES DIAS                                          PSO0691MA122221-SAMTHONDA/POP 110I                               PARTICULAR                    MOTOCICLETA     BRANCA    00000000CASSIA REGINA DA SILVA TOTE                 TV ANICETO CRUZ NR. 169                 - TREZIDELA                             65600010CAXIAS              MACOND. MOTOC/MOTON./CICLOM TRANSPORTANDO/PASSAG.S/C244 * II           00000000070481   0000293470075720191211202001240000000000000000000000000                                                00000000000  000   5     00070439011114070481PASSAGEIRO
2000000000470920191210207570PREF. DE: MA - CAXIAS                   CXA0078425201911111855AV ALEXANDRE COSTA                                          OJC0170MA122221-SAMTHONDA/POP100                                 PARTICULAR                    MOTOCICLETA     VERMELHA  00000000MARIA DA CONCEICAO SILVA TORRES             RUA GETULIO VARGAS NR. 1512             - SALOBRO                               65600000CAXIAS              MACOND. MOTOCICLETA/MOTONETA/CICLOM S/CAPACETE DE SE244 * I            00000000070301   0000293470075720191211202001240000000000000000000000000                                                00000000000  000   6     00070439011145070301PASSAGEIRO
2000000000470920191210207570PREF. DE: MA - CAXIAS                   CXA0078424201911111856AV ALEXANDRE COSTA                                          OJC0170MA122221-SAMTHONDA/POP100                                 PARTICULAR                    MOTOCICLETA     VERMELHA  00000000MARIA DA CONCEICAO SILVA TORRES             RUA GETULIO VARGAS NR. 1512             - SALOBRO                               65600000CAXIAS              MACOND. MOTOC/MOTON./CICLOM TRANSPORTANDO/PASSAG.S/C244 * II           00000000070481   0000293470075720191211202001240000000000000000000000000                                                00000000000  000   7     00070439011163970481PASSAGEIRO
2000000000470920191210207570PREF. DE: MA - CAXIAS                   CXA0078427201911131505AV NOSSA SENHORA DE NAZARE                                  PTP4165MA122221-SAMTHONDA/POP 110I                               PARTICULAR                    MOTOCICLETA     PRETA     00000000JOCIANE CARDOSO SANTOS FERREIRA             II TV DOS CALDEIROES NR. 455            TV SAO FRANCISCO - CALDEIROES           65608330CAXIAS              MACOND. MOTOCICLETA/MOTONETA/CICLOM S/CAPACETE DE SE244 * I            00000000070301   0000293470075720191211202001240000000000000000000000000                                                00000000000  000   8     00070439011336470301PASSAGEIRO
2000000000470920191210207570PREF. DE: MA - CAXIAS                   CXA0078428201911131515RUA AARAO REIS                                              PSG0663MA122221-SAMTHONDA/POP100                                 PARTICULAR                    MOTOCICLETA     BRANCA    00000000HAENDALL CHAGAS MORAIS ROCHA                RUA 9 QD 3 NR. 2563                     - SIRIEMA                               65603100CAXIAS              MACOND. MOTOCICLETA/MOTONETA/CICLOM S/CAPACETE DE SE244 * I            00000000070301   0000293470075720191211202001240000000000000000000000000                                                00000000000  000   9     00070439011667370301PASSAGEIRO
2000000000470920191210207570PREF. DE: MA - CAXIAS                   CXA0078429201911131542PCA CANDIDO MENDES                                          OIS4576MA122221-SAMTI/SHINERAY XY50Q PHOENIX                     PARTICULAR                    CICLOMOTOR      VERMELHA  00000000VALDILSON MOTTA KOS                         AV NOSSA SRA DE NAZARE NR. 112          - TRIZIDELA                             65600000CAXIAS              MACOND. MOTOC/MOTON./CICLOM TRANSPORTANDO/PASSAG.S/C244 * II           00000000070481   0000293470075720191211202001240000000000000000000000000                                                00000000000  000   10    00070439011688670481PASSAGEIRO
2000000000470920191210207570PREF. DE: MA - CAXIAS                   CXA0078430201911131556PCA CANDIDO MENDES                                          OXQ7736MA122221-SAMTHONDA/NXR150 BROS ES                         PARTICULAR                    MOTOCICLETA     PRETA     00000000WILLAMES DA CONCEICAO ALVES                 RUA GAL SAMPAIO NR. 1116                - CASTELO BRANCO                        65600000CAXIAS              MADIR.VEIC. UTILIZANDO-SE DE TELEFONE CELULAR       252 * VI           00000000073662   0000130160075720191211202001240000000000000000000000000                                                00000000000  000   11    00040439011739473662PASSAGEIRO
2000000000470920191210207570PREF. DE: MA - CAXIAS                   CXA0078431201911131600PCA CANDIDO MENDES                                          PTJ9065MA122221-SAMTHONDA/POP 110I                               PARTICULAR                    MOTOCICLETA     PRETA     00000000MARIA ELIETE SANTOS DE SOUSA                TV N. SRA DE FATIMA NR. 1240            - VOLTA REDONDA                         65606450CAXIAS              MACOND. MOTOC/MOTON./CICLOM TRANSPORTANDO/PASSAG.S/C244 * II           00000000070481   0000293470075720191211202001240000000000000000000000000                                                00000000000  000   12    00070439011908770481PASSAGEIRO
2000000000470920191210207570PREF. DE: MA - CAXIAS                   CXA0078432201911141520RUA CEL. LIBANIO LOBO                                       PTK5884MA122221-SAMTVW/VOYAGE 1.6L AF5                           ALUGUEL                       AUTOMOVEL       VERMELHA  00000000WALTON LOPES LIMA                           AV GENERAL SAMPAIO NR. 367              - MORRO ALECRIM                         65604090CAXIAS              MADIR.VEIC. UTILIZANDO-SE DE TELEFONE CELULAR       252 * VI           00000000073662   0000130160075720191211202001240000000000000000000000000                                                00000000000  000   13    00040439012320373662PASSAGEIRO
2000000000470920191210207570PREF. DE: MA - CAXIAS                   CXA0078433201911141605RUA MENINO DEUS                                             PSX4867MA122221-SAMTHONDA/CG 160 TITAN EX                        PARTICULAR                    MOTOCICLETA     PRETA     00000000RODRIGO FELIPE PINTO                        RUA SANTA LUZIA NR. 603                 - TREZIDELA                             65600340CAXIAS              MACOND. MOTOC/MOTON./CICLOM TRANSPORTANDO/PASSAG.S/C244 * II           00000000070481   0000293470075720191211202001240000000000000000000000000                                                00000000000  000   14    00070439012362970481PASSAGEIRO
2000000000470920191210207570PREF. DE: MA - CAXIAS                   CXA0078434201911141616RUA MENINO DEUS                                             NHK5202MA122221-SAMTHONDA/CG 125 FAN                             PARTICULAR                    MOTOCICLETA     AZUL      00000000FRANCISCO RODRIGUES DA SILVA                RUA SAO FRANCISCO NR. 842               - CAMPO DE BELEM                        65600000CAXIAS              MACOND. MOTOC/MOTON./CICLOM TRANSPORTANDO/PASSAG.S/C244 * II           00000000070481   0000293470075720191211202001240000000000000000000000000                                                00000000000  000   15    00070439012433170481PASSAGEIRO
2000000000470920191210207570PREF. DE: MA - CAXIAS                   CXA0078435201911181500PCA CANDIDO MENDES                                          PSP5045MA122221-SAMTHONDA/CG 160 FAN ESDI                        PARTICULAR                    MOTOCICLETA     VERMELHA  00000000FRANCISCO VICTOR COUTINHO VIEIRA            RUA BELA VISTA NR. 1151                 - CANGALHEIRO                           65600010CAXIAS              MACOND. MOTOC/MOTON./CICLOM TRANSPORTANDO/PASSAG.S/C244 * II           00000000070481   0000293470075720191211202001240000000000000000000000000                                                00000000000  000   16    00070439012489770481PASSAGEIRO
2000000000470920191210207570PREF. DE: MA - CAXIAS                   CXA0078436201911181510RUA COELHO NETO                                             OJL1152MA122221-SAMTHONDA/BIZ 125 ES                             PARTICULAR                    MOTONETA        PRETA     00000000ANTONIA TELMA ROMANA DA SILVA               RUA GOV JOAO CASTELO NR. 02             QD 02 - MUTIRAO                         65600000CAXIAS              MACOND. MOTOC/MOTON./CICLOM TRANSPORTANDO/PASSAG.S/C244 * II           00000000070481   0000293470075720191211202001240000000000000000000000000                                                00000000000  000   17    00070439012607570481PASSAGEIRO
2000000000470920191210207570PREF. DE: MA - CAXIAS                   CXA0078438201911181800RUA RIO DE JANEIRO                                          NXF2394MA122221-SAMTHONDA/CG 125 FAN KS                          PARTICULAR                    MOTOCICLETA     PRETA     00000000JOSIMAR DE SOUSA OLIVEIRA                   RUA MARANHAO NR. 821                    - ANTENOR VIANA                         65600000CAXIAS              MAESTAC. EM LOCAL/HORARIO PROIBIDO ESPECIFIC. P/SINA181*XVIII          00000000055500   0000130160075720191211202001240000000000000000000000000                                                00000000000  000   18    00040439012649055500PASSAGEIRO
2000000000470920191210207570PREF. DE: MA - CAXIAS                   CXA0078562201911191730AV DA RODOVIARIA                                            OJM4504MA123611-SAMTHONDA/CG 125 FAN KS                          PARTICULAR                    MOTOCICLETA     PRETA     00000000ELISANGELA LIMA FREITAS                     AV ALVORADA NR. 1673                    - MUTIRAO                               65600000CAXIAS              MADESOBEDECER AS ORDENS DA AUTORIDADE DE TRANSITO/AG195                00000000058350   0000195230075720191211202001240000000000000000000000000                                                00000000000  000   19    00050439012727658350PASSAGEIRO
2000000000470920191210207570PREF. DE: MA - CAXIAS                   CXA0077043201911190950RUA SAO BENEDITO                                            PTN5931MA138301-SAMTHONDA/POP 110I                               PARTICULAR                    MOTOCICLETA     BRANCA    00000000LAIS DE SOUSA SANTOS                        RUA HERACLITO NORONHA NR. 97            - SALOBRO                               65609527CAXIAS              MACOND. MOTOC/MOTON./CICLOM TRANSPORTANDO/PASSAG.S/C244 * II           00000000070481   0000293470075720191211202001240000000000000000000000000                                                00000000000  000   20    00070439012750070481PASSAGEIRO
2000000000470920191210207570PREF. DE: MA - CAXIAS                   CXA0078453201911190755RUA MENINO DEUS                                             PSL7870MA306051-SAMTHONDA/CG 160 FAN ESDI                        PARTICULAR                    MOTOCICLETA     PRATA     00000000ELISABETE ARRUDA DA SILVA                   TV SAO PEDRO NR. 782                    - REFINARIA                             65602290CAXIAS              MACOND. MOTOCICLETA/MOTONETA/CICLOM S/CAPACETE DE SE244 * I            00000000070301   0000293470075720191211202001240000000000000000000000000                                                00000000000  000   21    00070439012763270301PASSAGEIRO
2000000000470920191210207570PREF. DE: MA - CAXIAS                   CXA0078249201911191439RUA GUSTAVO COLACO                                          NHN8752MA305941-SAMTHONDA/BIZ 125 KS                             PARTICULAR                    MOTONETA        PRETA     00000000FRANCISCA RAIMUNDA DA C.SILVA               AV.CENTRAL NR-2150 NR.                  - PAI GERALDO                           65600650CAXIAS              MAESTAC. EM DESACORDO C/ A REGULAMENTACAO ESPECIFICA181 * XVII         00000000055411   0000195230075720191211202001240000000000000000000000000                                                00000000000  000   22    00050439012824855411PASSAGEIRO
2000000000470920191210207570PREF. DE: MA - CAXIAS                   CXA0078574201911201745AV LUIS SALES                                               OJK9912MA123611-SAMTHONDA/CG 125 FAN KS                          PARTICULAR                    MOTOCICLETA     VERMELHA  00000000ADELSON DE SOUSA FURTADO                    RUA PARA NR. 311                        - ANTENOR VIANA                         65600000CAXIAS              MACOND. MOTOC/MOTON./CICLOM TRANSPORTANDO/PASSAG.S/C244 * II           00000000070481   0000293470075720191211202001240000000000000000000000000                                                00000000000  000   23    00070439018050970481PASSAGEIRO
2000000000470920191210207570PREF. DE: MA - CAXIAS                   CXA0078752201911200813PCA PANTHEON                                                OJC0646MA305941-SAMTHONDA/CG 125 FAN KS                          PARTICULAR                    MOTOCICLETA     PRETA     00000000FRANCISCO DAS CHAGAS S FREITAS              RUA PARNARAMA NR. 1067                  - VL LOBAO                              65600000CAXIAS              MACOND. MOTOCICLETA/MOTONETA/CICLOM S/CAPACETE DE SE244 * I            00000000070301   0000293470075720191211202001240000000000000000000000000                                                00000000000  000   24    00070439018427070301PASSAGEIRO
2000000000470920191210207570PREF. DE: MA - CAXIAS                   CXA0078753201911200814PCA PANTHEON                                                OJC0646MA305941-SAMTHONDA/CG 125 FAN KS                          PARTICULAR                    MOTOCICLETA     PRETA     00000000FRANCISCO DAS CHAGAS S FREITAS              RUA PARNARAMA NR. 1067                  - VL LOBAO                              65600000CAXIAS              MATRANSIT. P/ CONTRAMAO EM VIAS C/ SENT. UNICO      186 * II           00000000057380   0000293470075720191211202001240000000000000000000000000                                                00000000000  000   25    00070439018714757380PASSAGEIRO
2000000000470920191210207570PREF. DE: MA - CAXIAS                   CXA0078668201911200944AV NEREU BITTENCOURT                                        NIW8295MA122181-SAMTVW/SAVEIRO 1.6 CS TROOP.                     PARTICULAR                    CAMINHONETE     VERMELHA  00000000RITA DE CASSIA DOS SANTOS                   R ALVORADA QDRA 20 CASA NR. 1713A       - MUTIRAO                               65600001CAXIAS              MAAVANCAR SINAL VERMELHO DO SEMAFORO                208                00000000060501   0000293470075720191211202001240000000000000000000000000                                                00000000000  000   26    00070439018808960501CARGA
2000000000470920191210207570PREF. DE: MA - CAXIAS                   CXA0078377201911200846AV VOLTA REDONDA                                            PSP6457MA122111-SAMTHONDA/CG 160 TITAN EX                        PARTICULAR                    MOTOCICLETA     BRANCA    00000000FELIPE FERNANDES ASSUNCAO                   AV RIO BRANCO NR. 1470                  - VOLTA REDONDA                         65606490CAXIAS              MACOND. MOTOCICLETA/MOTONETA/CICLOM S/CAPACETE DE SE244 * I            00000000070301   0000293470075720191211202001240000000000000000000000000                                                00000000000  000   27    00070439018841070301PASSAGEIRO
2000000000470920191210207570PREF. DE: MA - CAXIAS                   CXA0078379201911201554PCA DUQUE DE CAXIAS                                         NHN4131MA122111-SAMTHONDA/BIZ 125 ES                             PARTICULAR                    MOTONETA        PRETA     00000000FRANCISCA JOVENIR F.DA SILVA                R.CRISTINO GONCALVES NR. 1306           - VOLTA REDONDA                         65606430CAXIAS              MAESTAC. EM DESACORDO C/ A REGULAMENTACAO ESPECIFICA181 * XVII         00000000055411   0000195230075720191211202001240000000000000000000000000                                                00000000000  000   28    00050439018869055411PASSAGEIRO
3000028000000000028
