1*NIPR207570201912310047592019123100000000000000
2000000000475920191231207570PREF. DE: MA - CAXIAS                   CXA0078214201911051004AV OTAVIO PASSOS                                            NJO1520MT           HONDA/NXR150 BROS ESD                        PARTICULAR                    MOTOCICLETA     PRETA     00000000MAURIM LOPES MOURA                          HONORATO DA ROCHA NR. 0                 QD1C, LT14 - SETOR INDUSTRIAL           78643000QUERENCIA           MTAVANCAR SINAL VERMELHO DO SEMAFORO                208                00000000060501   000029347007572020010120200214319036724524660000002347787790000002893475867200045207570090936724524660100000000000  000   1     00070433192223560501PASSAGEIRO
2000000000475920191231207570PREF. DE: MA - CAXIAS                   CXA0077859201910151743PCA RUI BARBOSA                                             NIE5377PI           VW/POLO 1.6                                  PARTICULAR                    AUTOMOVEL       PRETA     00000000RENATA CARVALHO LINHARES                    Q 63 CS 23 A NR.                        - RENASCENCA II                         64000200TERESINA            PIESTACIONAR EM DESACORDO C/REGULAMENTACAO-PONTO OU 181 * XVII         00000000055413   000019523007572020010120200214319036724525430000001561887730000001695235867200645207570090936724525430800000000000  000   2     00050433214381755413PASSAGEIRO
2000000000475920191231207570PREF. DE: MA - CAXIAS                   CXA0077856201910151436PCA CANDIDO MENDES                                          QVG6964PA           TOYOTA/ETIOS HB X VSC MT                     PARTICULAR                    AUTOMOVEL       CINZA     00000000DALBAX SUD REPRESENTACOES LTDA EPP          RUA VEIGA CABRAL 920 NR.                - CIDADE VELHA                          66023735BELEM               PAESTACIONAR EM DESACORDO C/REGULAMENTACAO-PONTO OU 181 * XVII         00000000055413   000019523007572020010120200214319036724526200000001561887790000001095235867200645207570090936724526200400000000000  000   3     00050433214605055413PASSAGEIRO
2000000000475920191231207570PREF. DE: MA - CAXIAS                   CXA0077176201910150835RUA CEL. LIBANIO LOBO                                       IUY4982RS           FORD/CARGO 2429 L                            ALUGUEL                       CAMINHAO        BRANCA    00000000SULMOVEIS TRANSPORTES LTDA                  RUA RECYDE POSSAMAI NR. 00043           - SAO VENDELINO                         95700000BENTO GONCALVES     RSESTAC. VEIC. NAS ESQU. E MENOS DE 5M DO ALINHAMENT181 * I            00000000053800   000013016007572020010120200214319036724527080000001041287710000001830165867200345207570090936724527080900000000000  000   4     00040433214905053800CARGA
2000000000475920191231207570PREF. DE: MA - CAXIAS                   CXA0077843201910131226BALNEARIO VENEZA                                            QRR9641PI           I/TOYOTA HILUX SWSRXA4FD                     PARTICULAR                    UTILITARIO      MARROM    00000000CARLA REGINA DE SOUSA VIANA                 RUA NILO BRITO NR. 01386                - MORADA DO SOL                         64056385TERESINA            PIESTACIONAR NO PASSEIO                             181 * VIII         00000000054521   000019523007572020010120200214319036724528950000001561887770000001295235867200645207570090936724528950200000000000  000   5     00050433215210754521MISTO
2000000000475920191231207570PREF. DE: MA - CAXIAS                   CXA0077840201910131217BALNEARIO VENEZA                                            ATN6033PI           GM/CELTA 4P SPIRIT                           PARTICULAR                    AUTOMOVEL       PRATA     00000000RAFAEL SALES DA SILVA                       R PROFA SINHA BORGES NR. 03535          - BUENOS AIRES                          64010100TERESINA            PIESTACIONAR NO PASSEIO                             181 * VIII         00000000054521   000019523007572020010120200214319036724529720000001561887730000001695235867200645207570090936724529720800000000000  000   6     00050433215370754521PASSAGEIRO
2000000000475920191231207570PREF. DE: MA - CAXIAS                   CXA0077839201910131212BALNEARIO VENEZA                                            LVT5039PI           GM/CELTA 3 PORTAS                            PARTICULAR                    AUTOMOVEL       BRANCA    00000000ANTONIO CARLOS RODRIGUES                    AV DUQUE DE CAXIAS NR. 05936            - BUENOS AIRES                          64009280TERESINA            PIESTACIONAR NO PASSEIO                             181 * VIII         00000000054521   000019523007572020010120200214319036724530030000001561887740000001595235867200645207570090936724530030900000000000  000   7     00050433216266854521PASSAGEIRO
2000000000475920191231207570PREF. DE: MA - CAXIAS                   CXA0077701201910181450PCA CANDIDO MENDES                                          OJO8367BA           HONDA/POP100                                 PARTICULAR                    MOTOCICLETA     PRETA     00000000FABIO GOMES DE SOUZA MARTINS ME             TRAV FERNANDO JATOBA NR. 22             BOM JARDIM - CENTRO                     48970000SENHOR DO BONFIM    BACOND. MOTOC/MOTON./CICLOM TRANSPORTANDO/PASSAG.S/C244 * II           00000000070481   000029347007572020010120200214319036724531900000002347787700000002793475867200045207570090936724531900200000000000  000   8     00070433478381370481PASSAGEIRO
2000000000475920191231207570PREF. DE: MA - CAXIAS                   CXA0077704201910161625PCA CANDIDO MENDES                                          LVW9877PI           I/TRAXX JL50Q 2                              PARTICULAR                    MOTONETA        VERMELHA  00000000LIDIA MARIA PEREIRA DA SILVA                CJ T NEVES QD 02 BL 08 NR.              AP202 - TANCREDO NEVES                  64076510TERESINA            PICOND. MOTOC/MOTON./CICLOM TRANSPORTANDO/PASSAG.S/C244 * II           00000000070481   000029347007572020010120200214319036724532780000002347787750000002293475867200045207570090936724532780700000000000  000   9     00070433478499270481PASSAGEIRO
2000000000475920191231207570PREF. DE: MA - CAXIAS                   CXA0076839201910160930RUA GETULIO VARGAS                                          OUD4346PI           HONDA/CG 150 FAN ESI                         PARTICULAR                    MOTOCICLETA     PRETA     00000000MARCELA CAMELO DOS SANTOS                   CONJ GIOVANI PRADO QD-E CS NR.          - VALE QUEM TEM                         64057200TERESINA            PICOND. MOTOCICLETA/MOTONETA/CICLOM S/CAPACETE DE SE244 * I            00000000070301   000029347007572020010120200214319036724533550000002347787710000002693475867200045207570090936724533550300000000000  000   10    00070433478694470301PASSAGEIRO
2000000000475920191231207570PREF. DE: MA - CAXIAS                   CXA0077891201910220825RUA CONSELHEIRO FURTADO                                     OJM0911PI           FIAT/SIENA ESSENCE 1.6                       PARTICULAR                    AUTOMOVEL       BEGE      00000000JOSE CARLOS MINEIRO                         R BENJAMIN CONSTANTE ED DA NR. 00000    - CENTRO                                64010100TERESINA            PIDIRIGIR VEICULO SEGURANDO TELEFONE CELULAR        ART 252, & UNICO   00000000076331   000029347007572020010120200214319036724534320000002347787780000002993475867200045207570090936724534320000000000000  000   11    00070433478871876331PASSAGEIRO
2000000000475920191231207570PREF. DE: MA - CAXIAS                   CXA0077866201910171522PCA RUY BARBOSA                                             NIE5377PI           VW/POLO 1.6                                  PARTICULAR                    AUTOMOVEL       PRETA     00000000RENATA CARVALHO LINHARES                    Q 63 CS 23 A NR.                        - RENASCENCA II                         64000200TERESINA            PIESTACIONAR EM DESACORDO C/REGULAMENTACAO-PONTO OU 181 * XVII         00000000055413   000019523007572020010120200214319036724535100000001561887700000001995235867200645207570090936724535100500000000000  000   12    00050433479011955413PASSAGEIRO
2000000000475920191231207570PREF. DE: MA - CAXIAS                   CXA0077023201910170950RUA SAO BENEDITO                                            OUC7400PI           HONDA/CG 125 FAN KS                          PARTICULAR                    MOTOCICLETA     VERMELHA  00000000JOSIEL LOPES DA SILVA                       RUA AMAPA NR. 01291                     - ILHOTAS                               64014045TERESINA            PICOND. MOTOC/MOTON./CICLOM TRANSPORTANDO/PASSAG.S/C244 * II           00000000070481   000029347007572020010120200214319036724536070000002347787770000002093475867200045207570090936724536070900000000000  000   13    00070433479158170481PASSAGEIRO
2000000000475920191231207570PREF. DE: MA - CAXIAS                   CXA0077909201910180909RUA GETULIO VARGAS                                          PIM6983PI           FIAT/PALIO SPORTING 1.6                      PARTICULAR                    AUTOMOVEL       BRANCA    00000000LUCIANA ANDREA DA COSTA SOARES              RUA DES ADALBERTO CORREIA NR. 03125     AP 202 - PLANALTO ININGA BL A           64049680TERESINA            PIESTAC. VEIC. NAS ESQU. E MENOS DE 5M DO ALINHAMENT181 * I            00000000053800   000013016007572020010120200214319036724537840000001041287760000001330165867200345207570090936724537840400000000000  000   14    00040433479456453800PASSAGEIRO
2000000000475920191231207570PREF. DE: MA - CAXIAS                   CXA0077725201910181805AV LUIS SALES                                               PIA7171PI           CHEVROLET/S10 LT DD4A                        PARTICULAR                    CAMINHONETE     PRATA     00000000C P FEITOZA                                 AV BARAO DE GURGUEIA NR. 01196          - VERMELHA                              64018290TERESINA            PIDIR.VEIC. UTILIZANDO-SE DE TELEFONE CELULAR       252 * VI           00000000073662   000013016007572020010120200214319036724538610000001041287720000001730165867200345207570090936724538610000000000000  000   15    00040433479682673662ESPECIAL
3000015000000000015
