1*NIPR209610201912270038342019122700000000000000
2000000000383420191227209610PREF. DE: MA - ACAILANDIA               ACA0032653201911051440R.DORGIVAL P. SOUSA N.1046                                  JVR6214PA           FIAT/UNO MILLE WAY ECON                      PARTICULAR                    AUTOMOVEL       PRETA     00000000EDIVALSON GOMES DE SOUSA                    RUA GONCALVES DIAS NR 191 NR.           - D ELISEU                              68633000DOM ELISEU          PADIR.VEIC. UTILIZANDO-SE DE TELEFONE CELULAR       252 * VI           00000000073662   000013016009612019122820200210319036721493640000001041287790000001030165867200341209610090136721493640600000000000  000   2     00040432688627773662PASSAGEIRO
2000000000383420191227209610PREF. DE: MA - ACAILANDIA               ACA0032682201911061602R.SANTOIS DUMONT N.82, CENTRO                               DHP6295MG           HONDA/CIVIC LX                               PARTICULAR                    AUTOMOVEL       CINZA     00000000ANTONIO JOSE DE BESSA                       R JOSE CARLOS PEREIRA NR. 159           - NOVO HORIZONTE                        38108000DELTA               MGESTACIONAR NA CONTRAMAO DE DIRECAO                181 * XV           00000000055250   000013016009612019122820200210319036721494410000001041287760000001330165867200341209610090136721494410300000000000  000   3     00040432688799055250PASSAGEIRO
2000000000383420191227209610PREF. DE: MA - ACAILANDIA               ACA0032683201911061611R.SANTOS DUMONT, FRT.CENTRAL                                QQT9170MG           FIAT/DOBLO ESSENCE 1.8                       PARTICULAR                    AUTOMOVEL       BRANCA    00000000MOVIDA LOCACAO DE VEICULOS S.A              AV. BIAS FORTES NR. 00704               - LOURDES                               30170011BELO HORIZONTE      MGESTACIONAR NA CONTRAMAO DE DIRECAO                181 * XV           00000000055250   000013016009612019122820200210319036721495290000001041287710000001830165867200341209610090136721495290800000000000  000   4     00040432689486555250PASSAGEIRO
2000000000383420191227209610PREF. DE: MA - ACAILANDIA               ACA0032684201911061342AV.TACITO CALDAS, CENTRO                                    QKM7592TO           YAMAHA/YS150 FAZER SED                       PARTICULAR                    MOTOCICLETA     VERMELHA  00000000MARIA IVA MARANHAO MOREIRA                  RUA DAS PALMEIRAS NR. 329               CASA - CENTRO                           77800000ARAGUAINA           TOAVANCAR SINAL VERMELHO DO SEMAFORO                208                00000000060501   000029347009612019122820200210319036721496060000002347787730000002493475867200041209610090136721496060400000000000  000   5     00070432689744960501PASSAGEIRO
2000000000383420191227209610PREF. DE: MA - ACAILANDIA               ACA0032511201911080930R.DUQUE DE CAXIAS C/R.CEARA                                 FOV0801SP           FIAT/UNO DRIVE 1.0                           PARTICULAR                    AUTOMOVEL       BRANCA    00000000FM MODEL TRANSPORTES LTDA                   ROD HILARIO FERRARI NR. 01900           FIRMA - PEDREGULHO                      13300000ITU                 SPESTAC. VEIC. NAS ESQU. E MENOS DE 5M DO ALINHAMENT181 * I            00000000053800   000013016009612019122820200210319036721497930000001041287700000001930165867200341209610090136721497930705585574104MA000   6     00040432691262653800PASSAGEIRO
2000000000383420191227209610PREF. DE: MA - ACAILANDIA               ACA0032703201911081443R.MARANHAO, CENTRO                                          QPQ3578MG           RENAULT/DUSTER 20 D 4X2A                     PARTICULAR                    CAMIONETA       PRETA     00000000LOCALIZA RENT A CAR S.A.                    AV. BERNARDO MONTEIRO NR. 1563          - FUNCIONARIOS                          30150902BELO HORIZONTE      MGAVANCAR SINAL VERMELHO DO SEMAFORO                208                00000000060501   000029347009612019122820200210319036721498700000002347787720000002593475867200041209610090136721498700300000000000  000   7     00070432691267760501MISTO
2000000000383420191227209610PREF. DE: MA - ACAILANDIA               ACA0032699201911081414R.MARANHAO C/R.SAO FRANCISCO                                OIJ7292CE           HONDA/CG 125 FAN ES                          PARTICULAR                    MOTOCICLETA     VERMELHA  00000000FRANCISCO JOSE SOUSA DA SILVA               RUA ZECA NOBRE NR. 2004                 - POPULARES                             62940000MORADA NOVA         CEAVANCAR SINAL VERMELHO DO SEMAFORO                208                00000000060501   000029347009612019122820200210319036721499580000002347787770000002093475867200041209610090136721499580800000000000  000   8     00070432691277460501PASSAGEIRO
2000000000383420191227209610PREF. DE: MA - ACAILANDIA               ACA0032690201911071454R.MARANHAO, CENTRO                                          QEC8543PA           HONDA/NXR 160 BROS                           PARTICULAR                    MOTOCICLETA     PRETA     00000000WARLES DE LIMA SANTOS                       FL 28 QD 26 LT 16 NR.                   - NOVA MARABA                           68506260MARABA              PAAVANCAR SINAL VERMELHO DO SEMAFORO                208                00000000060501   000029347009612019122820200210319036721500200000002347787790000002893475867200041209610090136721500200000000000000  000   9     00070432691296060501PASSAGEIRO
3000008000000000008
