1*NIPI209610201912310038412019123100000000000000
2100000000384120191231209610PREF. DE: MA - ACAILANDIA               ACA0032215201911100635R.MARLY SARNEY N.450, CENTRO                                NNC7691MA3123       HONDA/POP100                                 PARTICULAR                    MOTOCICLETA     PRETA     00000000FRANCISCO DEMONTIEX F DA SILVA              RUA AUGUSTO CAPELOSA NR.                N 328 - VILA CAPELOSA                   65930000ACAILANDIA          MATRANSIT. P/ CONTRAMAO EM VIAS C/ SENT. UNICO      186 * II           00000000057380   000029347009612020010120200214319036724397910000002347785600000002134770332140122009614419503672439791800000000000  000   2     00070433200994057380PASSAGEIRO
2100000000384120191231209610PREF. DE: MA - ACAILANDIA               ACA0032726201911110951R.SAO LUIS, CENTRO                                          NXD4811MA4445       FIAT/STRADA ADVENTURE CD                     PARTICULAR                    CAMINHONETE     PRATA     00000000EDILSON IZAIAS DE VASCONCELOS               RUA 15 DE NOVEMBRO NR. 345              - LARANJEIRAS                           65930000ACAILANDIA          MAAVANCAR SINAL VERMELHO DO SEMAFORO                208                00000000060501   000029347009612020010120200214319036724398790000002347785630000002834770332140122009614419503672439879100000000000  000   3     00070433436276160501ESPECIAL
2100000000384120191231209610PREF. DE: MA - ACAILANDIA               ACA0032729201911121040RUA SAO LUIS, CENTRO                                        NNC0711MA4445       HONDA/NXR150 BROS MIX ES                     PARTICULAR                    MOTOCICLETA     VERMELHA  00000000REGINALDO DOS SANTOS DA SILVA               RUA PARANA NR. 335                      - SAO SEBASTIAO                         65939000ITINGA DO MARANHAO  MAAVANCAR SINAL VERMELHO DO SEMAFORO                208                00000000060501   000029347009612020010120200214319036724399560000002347785690000002234770332140122009614419503672439956700000000000  000   4     00070433436977460501PASSAGEIRO
2100000000384120191231209610PREF. DE: MA - ACAILANDIA               ACA0032637201911081140R.SAO LUIS, CENTRO                                          PTK0681MA3157       HONDA/BIZ 110I                               PARTICULAR                    MOTONETA        VERMELHA  00000000JHONNATA CUNHA DA SILVA                     VALE DO ACAI NR. LT 34                  QD 50 - VALE DO ACAI                    65930000ACAILANDIA          MAAVANCAR SINAL VERMELHO DO SEMAFORO                208                00000000060501   000029347009612020010120200214319036724400290000002347785620000002934770332140122009614419503672440029000000000000  000   5     00070433437143460501PASSAGEIRO
2100000000384120191231209610PREF. DE: MA - ACAILANDIA               ACA0032639201911111018R.DORGIVAL P. SOUSA, CENTRO                                 PSB6549MA3157       HONDA/NXR160 BROS ESDD                       PARTICULAR                    MOTOCICLETA     VERMELHA  00000000JOSAFA REIS DE MOURA                        QUADRA 17 NR. 01                        - PEQUIA                                65930000ACAILANDIA          MAESTAC. EM LOCAL/HORARIO PROIBIDO ESPECIFIC. P/SINA181*XVIII          00000000055500   000013016009612020010120200214319036724401060000001041285630000001004120332140522009614419503672440106600000000000  000   6     00040433437387955500PASSAGEIRO
2100000000384120191231209610PREF. DE: MA - ACAILANDIA               ACA0032640201911111021R.DORGIVAL P. SOSUA, N.26                                   PTO3479MA3157       HONDA/BIZ 125                                PARTICULAR                    MOTONETA        VERMELHA  00000000MARIA CIRENE DA SILVA                       R S NR. N 192                           - PEQUIA                                65930000ACAILANDIA          MAESTAC. EM LOCAL/HORARIO PROIBIDO ESPECIFIC. P/SINA181*XVIII          00000000055500   000013016009612020010120200214319036724402930000001041285690000001404120332140522009614419503672440293200000000000  000   7     00040433437422055500PASSAGEIRO
2100000000384120191231209610PREF. DE: MA - ACAILANDIA               ACA0032642201911121021RUA SAO LUIS, CENTRO                                        PSP5749MA3157       HONDA/NXR160 BROS ESDD                       PARTICULAR                    MOTOCICLETA     BRANCA    00000000ROBEVAL NOLETO PEREIRA                      RUA LARANJEIRA NR. 264                  - LARANJEIRAS                           65930000ACAILANDIA          MAAVANCAR SINAL VERMELHO DO SEMAFORO                208                00000000060501   000029347009612020010120200214319036724403700000002347785600000002134770332140122009614419503672440370800000000000  000   8     00070433437488360501PASSAGEIRO
2100000000384120191231209610PREF. DE: MA - ACAILANDIA               ACA0032643201911121034R.SAO LUIS, CENTRO                                          NMS0490MA3157       HONDA/BIZ 125 ES                             PARTICULAR                    MOTONETA        VERMELHA  00000000MARIA DE FATIMA DA S CONCEICAO              RUA STA CATARINA NR. N 425              - VL TANCREDO                           65930000ACAILANDIA          MAAVANCAR SINAL VERMELHO DO SEMAFORO                208                00000000060501   000029347009612020010120200214319036724404580000002347785630000002834770332140122009614419503672440458100000000000  000   9     00070433437524360501PASSAGEIRO
2100000000384120191231209610PREF. DE: MA - ACAILANDIA               ACA0032645201911121037R.SAO LUIS, CENTRO                                          OJE5488MA3157       HONDA/NXR150 BROS ES                         PARTICULAR                    MOTOCICLETA     VERMELHA  00000000JHONATAN RODRIGUES DE S COSTA               QD 3CEARA NR. 6                         - CADETE                                65930000ACAILANDIA          MAAVANCAR SINAL VERMELHO DO SEMAFORO                208                00000000060501   000029347009612020010120200214319036724405350000002347785680000002334770332140122009614419503672440535600000000000  000   10    00070433438197960501PASSAGEIRO
2100000000384120191231209610PREF. DE: MA - ACAILANDIA               ACA0032754201911121524R.ANITA GARIBALDE, FRT.S.SAUDE                              PTH5765MA3179       HONDA/FIT EXL CVT                            PARTICULAR                    AUTOMOVEL       VERMELHA  00000000PEDRO GUIMARAES JUNIOR                      AV. JK NR. S/N                          - JARDIM AMERICA                        65930000ACAILANDIA          MAESTACIONAR NA CONTRAMAO DE DIRECAO                181 * XV           00000000055250   000013016009612020010120200214319036724406120000001041285600000001304120332140522009614419503672440612300000000000  000   11    00040433439127355250PASSAGEIRO
2100000000384120191231209610PREF. DE: MA - ACAILANDIA               ACA0032710201911121116AV.TACITO CALDAS N.256, CENTRO                              PTA4925MA3088       RENAULT/CAPTUR INTEN 16A                     PARTICULAR                    AUTOMOVEL       BRANCA    00000000MARIA IRECEUDA FELISMINO COSTA              RUA JARANA NR. SN                       LT 250 QS 19 - N ACAILANDIA             65930000ACAILANDIA          MADIR.VEIC. UTILIZANDO-SE DE TELEFONE CELULAR       252 * VI           00000000073662   000013016009612020010120200214319036724407000000001041285600000001304120332140522009614719803672440700600000000000  000   12    00040433439703473662PASSAGEIRO
2100000000384120191231209610PREF. DE: MA - ACAILANDIA               ACA0032709201911121200R,TIRADENTES N,1198, CENTRO                                 PSK8801MA3088       HONDA/CG150 FAN ESDI                         ALUGUEL                       MOTOCICLETA     AMARELA   00000000WILKINSON CANDIDO DA SILVA                  RUA G GARIBALDE QD 13 NR. 16            - SUNIL II                              65930000ACAILANDIA          MATRANSIT. P/ CONTRAMAO EM VIAS C/ SENT. UNICO      186 * II           00000000057380   000029347009612020010120200214319036724408870000002347785630000002834770332140122009614419503672440887105592922975MA000   13    00070433441094457380PASSAGEIRO
2100000000384120191231209610PREF. DE: MA - ACAILANDIA               ACA0032708201911121110AV.TACITOC ALDAS N.256, CENTRO                              NNI4037MA3088       FIAT/SIENA EL FLEX                           PARTICULAR                    AUTOMOVEL       BEGE      00000000ROSIMEIRE ALVES BATISTA                     QUADRA 125 NR. L313                     - VILA ILDEMAR                          65930000ACAILANDIA          MAESTACIONAR NA CONTRAMAO DE DIRECAO                181 * XV           00000000055250   000013016009612020010120200214319036724409640000001041285650000001804120332140522009614419503672440964800000000000  000   14    00040433441655155250PASSAGEIRO
2100000000384120191231209610PREF. DE: MA - ACAILANDIA               ACA0032707201911121053AV.SANTA LUZIA, CENTRO                                      PTN3955MA3088       VW/T CROSS HL TSI AE                         PARTICULAR                    AUTOMOVEL       BRANCA    00000000MIRACY DE JESUS ANDRADE SOUZA               RUA ESMERALDA NR. 105                   - JD AMERICA                            65930000ACAILANDIA          MAEXEC. CONVERSAO A ESQUERDA EM LOCAL PROIBIDO P/SIN207                00000000060412   000019523009612020010120200214319036724410050000001561885670000001656180332140622009614419503672441005900000000000  000   15    00050433442216060412PASSAGEIRO
2100000000384120191231209610PREF. DE: MA - ACAILANDIA               ACA0032514201911121031TV. DUQUE DE CAXIAS, CENTRO                                 PSY7742MA7760       RENAULT/SANDERO EXPR 10                      PARTICULAR                    AUTOMOVEL       BRANCA    00000000JOAO BATISTA CORREA                         RUA QUADRA NR. 15                       LOTE 21 - COLINAS PARK                  65930000ACAILANDIA          MAESTAC. VEIC. NAS ESQU. E MENOS DE 5M DO ALINHAMENT181 * I            00000000053800   000013016009612020010120200214319036724411820000001041285630000001004120332140522009614419503672441182600000000000  000   16    00040433444042853800PASSAGEIRO
2100000000384120191231209610PREF. DE: MA - ACAILANDIA               ACA0032519201911121651AV.TACITO CALDAS, CENTRO                                    PST0697MA7760       HONDA/CG 160 FAN ESDI                        PARTICULAR                    MOTOCICLETA     PRETA     00000000JACKSON PEREIRA DA SILVA COSTA              RUA CURITIBA NR. 232                    - VL TANCREDO NEV                       65930000ACAILANDIA          MAAVANCAR SINAL VERMELHO DO SEMAFORO                208                00000000060501   000029347009612020010120200214319036724412600000002347785620000002934770332140122009614419503672441260000000000000  000   17    00070433444469560501PASSAGEIRO
2100000000384120191231209610PREF. DE: MA - ACAILANDIA               ACA0032520201911121700AV.TACITO CALDAS FRT.OTICA DIN                              PSN8179MA7760       HONDA/NXR160 BROS ESDD                       PARTICULAR                    MOTOCICLETA     BRANCA    00000000PEDRA BARBOSA DE SOUSA DE MORAIS            RUA BOA VISTA NR. 243                   - JACU                                  65930000ACAILANDIA          MAAVANCAR SINAL VERMELHO DO SEMAFORO                208                00000000060501   000029347009612020010120200214319036724413470000002347785670000002434770332140122009614419503672441347500000000000  000   18    00070433444976060501PASSAGEIRO
2100000000384120191231209610PREF. DE: MA - ACAILANDIA               ACA0032218201911121035TV. COM R.BONAIRE, CENTRO                                   OJB1690MA3123       MMC/L200 TRITON 3.2 D                        PARTICULAR                    CAMINHONETE     PRATA     00000000RICARDO MELO DE OLIVEIRA                    R JOSE BONIFACIO NR. 340                - CENTRO                                65930000ACAILANDIA          MAESTAC. VEIC. NAS ESQU. E MENOS DE 5M DO ALINHAMENT181 * I            00000000053800   000013016009612020010120200214319036724414240000001041285690000001404120332140522009614419503672441424200000000000  000   19    00040433448118353800ESPECIAL
2100000000384120191231209610PREF. DE: MA - ACAILANDIA               ACA0032296201911100929R.MARLY SARNEY SETOR MERCADO                                OJQ9940MA3132       HONDA/BIZ 100 ES                             PARTICULAR                    MOTONETA        ROSA      00000000WESLEN SOUSA DE ARAUJO                      AV BERNARDO SAIAO NR. N1173             - CENTRO                                65930000ACAILANDIA          MACOND. MOTO/MOTONETA/CICLOM C/ CRIAN. MENOR DE 7 AN244 * V            00000000070721   000029347009612020010120200214319036724415010000002347785690000002234770332140122009614419503672441501700000000000  000   20    00070433448616970721PASSAGEIRO
2100000000384120191231209610PREF. DE: MA - ACAILANDIA               ACA0032299201911121051AV.SANTA LUZIA C/R.DORGIVAL                                 OIV9896MA3132       MBENZ/MPOLO PARADISO R                       ALUGUEL                       ONIBUS          BRANCA    00000000VIACAO NOSSA SENHORA A LTDA                 ROD BR 010 KM 01 NR. SN                 - MARANHAO NOVO                         65900000IMPERATRIZ          MAEXEC. CONVERSAO A ESQUERDA EM LOCAL PROIBIDO P/SIN207                00000000060412   000019523009612020010120200214319036724416990000001561885670000001656180332140622009614419503672441699900000000000  000   21    00050433450004860412PASSAGEIRO
2100000000384120191231209610PREF. DE: MA - ACAILANDIA               ACA0032484201911121016R.SAO FRANCISCO, CENTRO                                     OXR6382MA3090       HONDA/BIZ 125 EX                             PARTICULAR                    MOTONETA        BRANCA    00000000ELIANE MARIA FERREIRA                       RUA DO SOL NR. 09                       - JD BOA VISTA                          65930000ACAILANDIA          MATRANSIT. P/ CONTRAMAO EM VIAS C/ SENT. UNICO      186 * II           00000000057380   000029347009612020010120200214319036724417760000002347785670000002434770332140122009614419503672441776500000000000  000   22    00070433451265857380PASSAGEIRO
2100000000384120191231209610PREF. DE: MA - ACAILANDIA               ACA0032587201911111446R.DUQUE DE CAXIAS, CENTRO                                   PSC5536MA7008       HONDA/CG150 FAN ESDI                         PARTICULAR                    MOTOCICLETA     VERMELHA  00000000LEIDIANE RODRIGUES FORTES                   RUA LAMANTE JR NR. 263                  - VL MARANHAO                           65930000ACAILANDIA          MATRANSIT. P/ CONTRAMAO EM VIAS C/ SENT. UNICO      186 * II           00000000057380   000029347009612020010120200214319036724418530000002347785640000002734770332140122009614419503672441853200000000000  000   23    00070433451697157380PASSAGEIRO
2100000000384120191231209610PREF. DE: MA - ACAILANDIA               ACA0032585201911110921R.MARLY SARNEY N.533, CENTRO                                OJQ2441MA7008       CHEVROLET/S10 LTZ DD4A                       PARTICULAR                    CAMINHONETE     BRANCA    00000000ANCELMO LEANDRO ROCHA                       RUA DR GERVASIO NR. N 697               - CENTRO                                65930000ACAILANDIA          MAESTACIONAR AO LADO DE OUTRO VEICULO EM FILA DUPLA 181 * XI           00000000054870   000019523009612020010120200214319036724419300000001561885660000001756180332140622009614419503672441930800000000000  000   24    00050433452235154870ESPECIAL
2100000000384120191231209610PREF. DE: MA - ACAILANDIA               ACA0032589201911111455AV.BERNARDO SAYAO N.1681                                    LWF9681MA7008       VW/NOVO GOL 1.0                              PARTICULAR                    AUTOMOVEL       PRETA     00000000KLEBIVAN LIMA SARAIVA                       RUA DOM PEDRO I NR. NR77                - CENTRO                                65393000BURITICUPU          MAESTACIONAR AO LADO DE OUTRO VEICULO EM FILA DUPLA 181 * XI           00000000054870   000019523009612020010120200214319036724420710000001561885680000001556180332140622009614419503672442071000000000000  000   25    00050433454437154870PASSAGEIRO
2100000000384120191231209610PREF. DE: MA - ACAILANDIA               ACA0032656201911111437AV.BERNARDO SAYAO PX. N.1681                                NSM6289MA7763       VW/SAVEIRO 1.6 CE                            PARTICULAR                    CAMIONETA       PRATA     00000000VANESSA BARLETA RODRIGUES                   RUA MARANHAO NR. 1230                   - CENTRO                                65930000ACAILANDIA          MAESTACIONAR AO LADO DE OUTRO VEICULO EM FILA DUPLA 181 * XI           00000000054870   000019523009612020010120200214319036724421590000001561885610000001256180332140622009614419503672442159300000000000  000   26    00050433457546354870MISTO
2100000000384120191231209610PREF. DE: MA - ACAILANDIA               ACA0032404201911111448R.DORGIVAL FRT.BRADESCO, CENTR                              PTK7341MA3057       VW/FOX XTREME MB                             ALUGUEL                       AUTOMOVEL       BRANCA    00000000VICENTE MORAIS DOS SANTOS                   RUA BERTELE NR. 19                      - VILA MARANHAO                         65930000ACAILANDIA          MADEIXAR DE DAR PREF.PEDES/VEIC NAO MOTOR.FAIXA ELE 214 * I            00000000061220   000029347009612020010120200214319036724422360000002347785610000002034770332140122009614419503672442236900000000000  000   27    00070433457996561220PASSAGEIRO
2100000000384120191231209610PREF. DE: MA - ACAILANDIA               ACA0032751201911111444R.DORGIVAL FRT.BRADESCO, CENTR                              OXZ7009MA3179       HONDA/CG150 FAN ESDI                         PARTICULAR                    MOTOCICLETA     VERMELHA  00000000KADYMIEL FERREIRA DE JEZUS                  QD 46 NR. 02                            - RES TROPICAL                          65930000ACAILANDIA          MAESTAC. EM LOCAL/HORARIO PROIBIDO ESPECIFIC. P/SINA181*XVIII          00000000055500   000013016009612020010120200214319036724423130000001041285630000001004120332140522009614419503672442313600000000000  000   28    00040433459027655500PASSAGEIRO
2100000000384120191231209610PREF. DE: MA - ACAILANDIA               ACA0032752201911111458R.MARANHAO C/R.SAO FRANCISCO                                NNE4036MA3179       HONDA/NXR150 BROS MIX ES                     PARTICULAR                    MOTOCICLETA     LARANJA   00000000LUIZ CARLOS SAMPAIO NASCIMENTO              QD 133 NR. LT 07                        - VILA ILDEMAR                          65930000ACAILANDIA          MAAVANCAR SINAL VERMELHO DO SEMAFORO                208                00000000060501   000029347009612020010120200214319036724424000000002347785630000002834770332140122009614419503672442400100000000000  000   29    00070433459454960501PASSAGEIRO
2100000000384120191231209610PREF. DE: MA - ACAILANDIA               ACA0032646201911121202RUA TIRADENTES, CENTRO                                      NMY4630MA3157       HONDA/BIZ 125 ES                             PARTICULAR                    MOTONETA        VERMELHA  00000000MARIA DE NAZARE LIMA LOPES                  RUA TACITO CALDAS NR. 78                - CENTRO                                65930000ACAILANDIA          MATRANSIT. P/ CONTRAMAO EM VIAS C/ SENT. UNICO      186 * II           00000000057380   000029347009612020010120200214319036724425880000002347785650000002634770332140122009614419503672442588300000000000  000   30    00070433466902657380PASSAGEIRO
3000029000000000029
