1*NATI209610201911270037262019112700000000000000
2000000000372620191127209610PREF. DE: MA - ACAILANDIA               ACA0032882201911201054R.J.REINALDO TAVARES, V.ILDEMA                              NSH8517MA3157       MMC/PAJERO SPORT HPE                         PARTICULAR                    UTILITARIO      PRATA     00000000JONAS DE OLIVEIRA SILVA                     RUA BOM FUTURO NR. N197                 - JACU                                  65930000ACAILANDIA          MAESTACIONAR EM DESACORDO C/ POSICOES ESTABELECIDAS 181 * IV           00000000054100   0000130160096120191128202001130000000000000000000000000                                                00000000000  000   1     00040435912124554100MISTO
2000000000372620191127209610PREF. DE: MA - ACAILANDIA               ACA0032735201911200856AV.DORGIVAL P. SOUSA, CENTRO                                OXY4060MA4445       HONDA/POP100                                 PARTICULAR                    MOTOCICLETA     VERMELHA  00000000ELIAS ALVES BRASIL                          R MARANHAO NR. 1723                     - GETAT                                 65930000ACAILANDIA          MATRANSIT. P/ CONTRAMAO EM VIAS C/ SENT. UNICO      186 * II           00000000057380   0000293470096120191128202001130000000000000000000000000                                                00000000000  000   2     00070435913462257380PASSAGEIRO
2000000000372620191127209610PREF. DE: MA - ACAILANDIA               ACA0032736201911201105R.BOM JESUS, CENTRO                                         OXY5952MA4445       VW/UP HIGH MA                                PARTICULAR                    AUTOMOVEL       BRANCA    00000000PEDRO ORLANDO DE ANDRADE SANTOS             RUA 9 DE JULHO QD 1 NR. N08             - JACU                                  65930000ACAILANDIA          MAESTAC. EM DESACORDO C/ A REGULAMENTACAO ESPECIFICA181 * XVII         00000000055411   0000195230096120191128202001130000000000000000000000000                                                00000000000  000   3     00050435916085255411PASSAGEIRO
2000000000372620191127209610PREF. DE: MA - ACAILANDIA               ACA0032876201911200848AV.SANTA LUZIA, CENTRO                                      NMR0175MA3157       HONDA/BIZ 125 ES                             PARTICULAR                    MOTONETA        VERMELHA  00000000RAYLLA DE SOUSA MORAES                      RUA 09 DE JULHO NR. SN                  - VL MARANHAO                           65930000ACAILANDIA          MAEXEC. CONVERSAO A ESQUERDA EM LOCAL PROIBIDO P/SIN207                00000000060412   0000195230096120191128202001130000000000000000000000000                                                00000000000  000   4     00050435916628160412PASSAGEIRO
2000000000372620191127209610PREF. DE: MA - ACAILANDIA               ACA0032878201911200854R.DORGIVAL P. SOUSA, CENTRO                                 NMS4533MA3157       HONDA/CG 150 TITAN ES                        PARTICULAR                    MOTOCICLETA     AMARELA   00000000JOAO BATISTA VIEIRA ARAUJO                  QD I NR. 07                             - VILA ILDEMAR                          65930000ACAILANDIA          MATRANSIT. P/ CONTRAMAO EM VIAS C/ SENT. UNICO      186 * II           00000000057380   0000293470096120191128202001130000000000000000000000000                                                00000000000  000   5     00070435917151057380PASSAGEIRO
2000000000372620191127209610PREF. DE: MA - ACAILANDIA               ACA0032879201911201112R.DORGIVAL P. SOUSA, 26, CENTR                              OXR3005MA3157       HONDA/NXR150 BROS ES                         PARTICULAR                    MOTOCICLETA     PRETA     00000000JULIANA DA SILVA CRUZ                       RUA BOM JESUS NR. NR 30                 - CENTRO                                65930000ACAILANDIA          MAESTAC. EM LOCAL/HORARIO PROIBIDO ESPECIFIC. P/SINA181*XVIII          00000000055500   0000130160096120191128202001130000000000000000000000000                                                00000000000  000   6     00040435917781055500PASSAGEIRO
2000000000372620191127209610PREF. DE: MA - ACAILANDIA               ACA0032881201911201054AV.J.REINALDO TAVARES, V.ILDEM                              PSS6422MA3157       I/CHEV CRUZE LTZ NB AT                       PARTICULAR                    AUTOMOVEL       BRANCA    00000000LEILIANE SOARES DIAS                        RUA BOLIVIA NR. 21                      QD 21 - PQ DAS NACOES                   65930000ACAILANDIA          MAESTACIONAR EM DESACORDO C/ POSICOES ESTABELECIDAS 181 * IV           00000000054100   0000130160096120191128202001130000000000000000000000000                                                00000000000  000   7     00040435930586954100PASSAGEIRO
2000000000372620191127209610PREF. DE: MA - ACAILANDIA               ACA0032715201911221531R.FORTALEZA N.415, CENTRO                                   PTL4939MA3088       HONDA/BIZ 125                                PARTICULAR                    MOTONETA        BRANCA    00000000MANOEL GOMES NETO                           RUA ALTO DA COLINA NR. N 05             QD 13 - PORTO SEGURO II                 65930000ACAILANDIA          MATRANSIT. P/ CONTRAMAO EM VIAS C/ SENT. UNICO      186 * II           00000000057380   0000293470096120191128202001130000000000000000000000000                                                00000000000  000   8     00070435932430857380PASSAGEIRO
2000000000372620191127209610PREF. DE: MA - ACAILANDIA               ACA0032714201911221455R.DUQUE DE CAXIAS C/T.CALDAS                                PSE7235MA3088       HONDA/BIZ 125 EX                             PARTICULAR                    MOTONETA        VERMELHA  00000000ALANE DE MATOS MOTA                         RUA JOAO PESSOA NR. N 270               - JACU                                  65930000ACAILANDIA          MAAVANCAR SINAL VERMELHO DO SEMAFORO                208                00000000060501   0000293470096120191128202001130000000000000000000000000                                                00000000000  000   9     00070435932747160501PASSAGEIRO
2000000000372620191127209610PREF. DE: MA - ACAILANDIA               ACA0032713201911221417R.MARANHAO C/R.SAO FRANCISCO                                PSY8406MA3088       VW/UP MOVE MDV                               PARTICULAR                    AUTOMOVEL       BRANCA    00000000HALAN GUTEMBERG MOTA PEREIRA                RUA JOAO DE DEUS NR. 95                 - GETAT                                 65930000ACAILANDIA          MAAVANCAR SINAL VERMELHO DO SEMAFORO                208                00000000060501   0000293470096120191128202001130000000000000000000000000                                                00000000000  000   10    00070435932903260501PASSAGEIRO
2000000000372620191127209610PREF. DE: MA - ACAILANDIA               ACA0032712201911221507AV.TACITO CALDAS, CENTRO                                    PSS5902MA3088       VW/NOVO VOYAGE CL MBV                        ALUGUEL                       AUTOMOVEL       BRANCA    00000000CARLEANE DE SOUSA PEREIRA                   RUA GUANABARA NR. 311                   CASA B - ENTRONCAMENTO                  65913447IMPERATRIZ          MAESTACIONAR NA CONTRAMAO DE DIRECAO                181 * XV           00000000055250   0000130160096120191128202001130000000000000000000000000                                                00000000000  000   11    00040435933145255250PASSAGEIRO
2000000000372620191127209610PREF. DE: MA - ACAILANDIA               ACA0032768201911221515R.MARLY SARNEY, CENTRO                                      PTB3771MA3179       HONDA/CG 160 FAN                             PARTICULAR                    MOTOCICLETA     PRETA     00000000ALAN FERREIRA MOURA                         QD 27 NR. 43                            - COLINAS PARK                          65930000ACAILANDIA          MATRANSIT. P/ CONTRAMAO EM VIAS C/ SENT. UNICO      186 * II           00000000057380   0000293470096120191128202001130000000000000000000000000                                                00000000000  000   12    00070435934213657380PASSAGEIRO
2000000000372620191127209610PREF. DE: MA - ACAILANDIA               ACA0032865201911221401RUA GOIAS, CENTRO                                           PTH7350MA7760       HONDA/BIZ 125                                PARTICULAR                    MOTONETA        PRATA     00000000MAIKELINY VAZ DE OLIVEIRA                   RUA 13 DE MAIO NR. N1086                - CENTRO                                65930000ACAILANDIA          MATRANSIT. P/ CONTRAMAO EM VIAS C/ SENT. UNICO      186 * II           00000000057380   0000293470096120191128202001130000000000000000000000000                                                00000000000  000   13    00070435934420157380PASSAGEIRO
2000000000372620191127209610PREF. DE: MA - ACAILANDIA               ACA0032863201911201118AV.TACITO CALDAS FRT.O. DINIZ                               PTA0395MA7760       TOYOTA/ETIOS HB CROSS AT                     PARTICULAR                    AUTOMOVEL       BRANCA    00000000FRANCISCO XAVIER DE GOUVEA NETO             RUA 6 QD 03 NR. N 15                    - C NV ACAILANDIA                       65930000ACAILANDIA          MADIR.VEIC. UTILIZANDO-SE DE TELEFONE CELULAR       252 * VI           00000000073662   0000130160096120191128202001130000000000000000000000000                                                00000000000  000   14    00040435934993973662PASSAGEIRO
2000000000372620191127209610PREF. DE: MA - ACAILANDIA               ACA0032862201911201058AV.TACITO CALDAS FRT. O.DINIZ                               PTA7687MA7760       HONDA/BIZ 125                                PARTICULAR                    MOTONETA        VERMELHA  00000000ANA LEIDE FERNANDES DA SILVA                RUA GONCALVES DIAS NR. 455              - JACU                                  65930000ACAILANDIA          MAAVANCAR SINAL VERMELHO DO SEMAFORO                208                00000000060501   0000293470096120191128202001130000000000000000000000000                                                00000000000  000   15    00070435935377460501PASSAGEIRO
2000000000372620191127209610PREF. DE: MA - ACAILANDIA               ACA0032885201911250921RUA SAO LUIS, CENTRO                                        OJK7097MA3157       HONDA/BIZ 125 ES                             PARTICULAR                    MOTONETA        VERMELHA  00000000ANA C SILVA DOS S TEIXEIRA                  AV JOSE R TAVARES QD 01 NR. LT 3        - JD BELA VISTA                         65930000ACAILANDIA          MAAVANCAR SINAL VERMELHO DO SEMAFORO                208                00000000060501   0000293470096120191128202001130000000000000000000000000                                                00000000000  000   16    00070435936151360501PASSAGEIRO
2000000000372620191127209610PREF. DE: MA - ACAILANDIA               ACA0032884201911250905RUA SAO LUIS, CENTRO                                        PTB9964MA3157       HONDA/NXR160 BROS ESDD                       PARTICULAR                    MOTOCICLETA     VERMELHA  00000000WALBER LIMA DA SILVA                        QUADRA 42 NR. 18                        - RES TROPICAL                          65930000ACAILANDIA          MAAVANCAR SINAL VERMELHO DO SEMAFORO                208                00000000060501   0000293470096120191128202001130000000000000000000000000                                                00000000000  000   17    00070435936475060501PASSAGEIRO
2000000000372620191127209610PREF. DE: MA - ACAILANDIA               ACA0032883201911211058RUA CEARA, CENTRO                                           OJK4066MA3157       HONDA/CG150 FAN ESDI                         PARTICULAR                    MOTOCICLETA     AZUL      00000000RAIMUNDA SOUSA VIANA                        RUA STA CLARA NR. N 114                 - JARDIM AMERICA                        65930000ACAILANDIA          MAESTAC. EM DESACORDO C/ A REGULAMENTACAO ESPECIFICA181 * XVII         00000000055411   0000195230096120191128202001130000000000000000000000000                                                00000000000  000   18    00050435944125855411PASSAGEIRO
2000000000372620191127209610PREF. DE: MA - ACAILANDIA               ACA0032613201911250914R.SAO LUIS, CENTRO                                          NXM8077MA3095       VW/MASCA GRANMIDI EOD O                      PARTICULAR                    ONIBUS          AMARELA   00000000LINUX TRANSPORTES LTDA ME                   RUA VINTE E QUATRO NR. NR 08            C JD S CRISTOVAO - ALAM DOS SONHOS      65055462SAO LUIS            MAAVANCAR SINAL VERMELHO DO SEMAFORO                208                00000000060501   0000293470096120191128202001130000000000000000000000000                                                00000000000  000   19    00070435944865160501PASSAGEIRO
2000000000372620191127209610PREF. DE: MA - ACAILANDIA               ACA0032612201911250910R.SAO LUIS C/R.BONAIRE, CENTRO                              PSV7487MA3095       HYUNDAI/HB20S 1.0M COMF                      PARTICULAR                    AUTOMOVEL       BRANCA    00000000PAULO DOS SANTOS BARBOSA JUNIOR             RUA TOPAZIO NR. 01                      - JD AMERICA                            65930000ACAILANDIA          MADIRIGIR VEICULO MANUSEANDO TELEFONE CELULAR       ART 252, & UNICO   00000000076332   0000293470096120191128202001130000000000000000000000000                                                00000000000  000   20    00070435945942476332PASSAGEIRO
2000000000372620191127209610PREF. DE: MA - ACAILANDIA               ACA0032611201911250909R.SAO LUIS C/R.BONAIRE, CENTRO                              OIZ5698MA3095       HONDA/CG 125 CARGO ES                        PARTICULAR                    MOTOCICLETA     BRANCA    00000000FRANCISCO DE SOUSA VERA                     AV CHICO BRITO NR. 1028'                - ESTREITO                              65975000ESTREITO            MAAVANCAR SINAL VERMELHO DO SEMAFORO                208                00000000060501   0000293470096120191128202001130000000000000000000000000                                                00000000000  000   21    00070435946383960501CARGA
2000000000372620191127209610PREF. DE: MA - ACAILANDIA               ACA0032609201911211422R.VENEZUELA PX.CEMITERIO                                    NXJ6125MA3095       HONDA/CG150 FAN ESDI                         PARTICULAR                    MOTOCICLETA     PRETA     00000000AGUINALDO MARTINS DOS SANTOS                R SAO RAIMUNDO NR. 66                   - VL IPIRANGA                           65930000ACAILANDIA          MACOND. MOTO/MOTONETA/CICLOM C/ CRIAN. MENOR DE 7 AN244 * V            00000000070721   0000293470096120191128202001130000000000000000000000000                                                00000000000  000   22    00070435946881470721PASSAGEIRO
2000000000372620191127209610PREF. DE: MA - ACAILANDIA               ACA0032247201911250925R.DR.GERVASIO, CENTRO                                       OXW3414MA3084       HONDA/BIZ 125 ES                             PARTICULAR                    MOTONETA        PRETA     00000000ROSANGELA SANTOS LIMA                       RUA EQUADOR QD 27 NR. 29                - PQ DAS NACOES                         65939000ITINGA DO MARANHAO  MATRANSIT. P/ CONTRAMAO EM VIAS C/ SENT. UNICO      186 * II           00000000057380   0000293470096120191128202001130000000000000000000000000                                                00000000000  000   23    00070435947531457380PASSAGEIRO
2000000000372620191127209610PREF. DE: MA - ACAILANDIA               ACA0032245201911250929R.MARLY SARNEY C/R.SAO PAULO                                OXW3414MA3084       HONDA/BIZ 125 ES                             PARTICULAR                    MOTONETA        PRETA     00000000ROSANGELA SANTOS LIMA                       RUA EQUADOR QD 27 NR. 29                - PQ DAS NACOES                         65939000ITINGA DO MARANHAO  MADESOBEDECER AS ORDENS DA AUTORIDADE DE TRANSITO/AG195                00000000058350   0000195230096120191128202001130000000000000000000000000                                                00000000000  000   24    00050435948276058350PASSAGEIRO
2000000000372620191127209610PREF. DE: MA - ACAILANDIA               ACA0032246201911250926R.DR.GERVASIO, CENTRO                                       OXW3414MA3084       HONDA/BIZ 125 ES                             PARTICULAR                    MOTONETA        PRETA     00000000ROSANGELA SANTOS LIMA                       RUA EQUADOR QD 27 NR. 29                - PQ DAS NACOES                         65939000ITINGA DO MARANHAO  MADIR.VEIC. UTILIZANDO-SE DE TELEFONE CELULAR       252 * VI           00000000073662   0000130160096120191128202001130000000000000000000000000                                                00000000000  000   25    00040435948741073662PASSAGEIRO
2000000000372620191127209610PREF. DE: MA - ACAILANDIA               ACA0032772201911251558R.RIO DE JANEIRO FRT.ODONTON                                OIT8995MA3179       VW/FOX 1.0 GII                               PARTICULAR                    AUTOMOVEL       BRANCA    00000000FERNANDA OLIVEIRA SILVA                     RUA L QD 58 NR. 13                      - JD DE ALAH                            65930000ACAILANDIA          MAESTACIONAR NA CONTRAMAO DE DIRECAO                181 * XV           00000000055250   0000130160096120191128202001130000000000000000000000000                                                00000000000  000   26    00040435950697055250PASSAGEIRO
3000026000000000026
