1*NATI207570201911130046462019111300000000000000
2000000000464620191113207570PREF. DE: MA - CAXIAS                   CXA0077726201910211440AV EDSON LOBAO                                              OIR3619MA123611-SAMTHONDA/CG 125 FAN ES                          PARTICULAR                    MOTOCICLETA     PRETA     00000000FELIPE AMERICO SIMOES AGUIAR                RUA 1 DE AGOSTO NR. N=398               - PONTE                                 65609340CAXIAS              MACOND. MOTOC/MOTON./CICLOM TRANSPORTANDO/PASSAG.S/C244 * II           00000000070481   0000293470075720191114201912300000000000000000000000000                                                00000000000  000   1     00070433187589070481PASSAGEIRO
2000000000464620191113207570PREF. DE: MA - CAXIAS                   CXA0077844201910131230BALNEARIO VENEZA                                            PSL0844MA306431-SAMTCHEVROLET/ONIX 1.4AT LTZ                     PARTICULAR                    AUTOMOVEL       PRATA     00000000GILMAR SOUZA PEREIRA                        TV RIO BRANCO NR. 208                   - CENTRO                                65600001CAXIAS              MAESTACIONAR NO PASSEIO                             181 * VIII         00000000054521   0000195230075720191114201912300000000000000000000000000                                                00000000000  000   2     00050433192867554521PASSAGEIRO
2000000000464620191113207570PREF. DE: MA - CAXIAS                   CXA0077842201910131223BALNEARIO VENEZA                                            OJJ8988MA306431-SAMTVW/CROSSFOX GII                              PARTICULAR                    AUTOMOVEL       BRANCA    00000000DAVID DE OLIVEIRA PINHEIRO                  RUA BOM JESUS DOS PASSOS NR. N-503      - CASTELO BRANCO                        65604130CAXIAS              MAESTACIONAR NO PASSEIO                             181 * VIII         00000000054521   0000195230075720191114201912300000000000000000000000000                                                00000000000  000   3     00050433193628754521PASSAGEIRO
2000000000464620191113207570PREF. DE: MA - CAXIAS                   CXA0077841201910131221BALNEARIO VENEZA                                            PTB7911MA306431-SAMTVW/NOVO GOL TL MCV                           PARTICULAR                    AUTOMOVEL       AZUL      00000000MARIA ALZIRA LUCENA VITAL                   RUA DO CAMPO NR. 1309                   - VILA ALECRIM                          65605640CAXIAS              MAESTACIONAR NO PASSEIO                             181 * VIII         00000000054521   0000195230075720191114201912300000000000000000000000000                                                00000000000  000   4     00050433193973154521PASSAGEIRO
2000000000464620191113207570PREF. DE: MA - CAXIAS                   CXA0077967201911131100AV OTAVIO PASSOS                                            PTI9027MA78162-SAMT HONDA/POP 110I                               PARTICULAR                    MOTOCICLETA     PRETA     00000000ELIZABETH CONCEICAO DA SILVA                RUA ALUISIO LOBO NR. 3435               - SAO FRANCISCO                         65600450CAXIAS              MAESTAC. EM LOCAL/HORARIO PROIBIDO ESPECIFIC. P/SINA181*XVIII          00000000055500   0000130160075720191114201912300000000000000000000000000                                                00000000000  000   5     00040433209108655500PASSAGEIRO
2000000000464620191113207570PREF. DE: MA - CAXIAS                   CXA0077966201911131050AV OTAVIO PASSOS                                            OXQ3399MA78162-SAMT HONDA/POP100                                 PARTICULAR                    MOTOCICLETA     VERMELHA  00000000ANGELA MARIA P DA SILVA COSTA               TRAV SAO JOSE III NR. 1259              - TRIZIDELA                             65600000CAXIAS              MAESTAC. EM LOCAL/HORARIO PROIBIDO ESPECIFIC. P/SINA181*XVIII          00000000055500   0000130160075720191114201912300000000000000000000000000                                                00000000000  000   6     00040433209276755500PASSAGEIRO
2000000000464620191113207570PREF. DE: MA - CAXIAS                   CXA0077965201911131025AV COELO NETO                                               OXZ8467MA78162-SAMT HONDA/POP100                                 PARTICULAR                    MOTOCICLETA     VERMELHA  00000000FABIO FIALHO DA SILVA                       R DA PALMEIRINHA NR. 839                GALEANA - CENTRO                        65608110CAXIAS              MACOND. MOTOC/MOTON./CICLOM TRANSPORTANDO/PASSAG.S/C244 * II           00000000070481   0000293470075720191114201912300000000000000000000000000                                                00000000000  000   7     00070433209445070481PASSAGEIRO
2000000000464620191113207570PREF. DE: MA - CAXIAS                   CXA0077963201910310930PCA DA MATRIZ                                               PSD1576MA78162-SAMT HONDA/POP100                                 PARTICULAR                    MOTOCICLETA     VERMELHA  00000000RODRIGO DE MELO NUNES                       RUA 24 DE DEZEMBRO NR. 1172             - SIRIEMA                               65602420CAXIAS              MACOND. MOTOCICLETA/MOTONETA/CICLOM S/CAPACETE DE SE244 * I            00000000070301   0000293470075720191114201912300000000000000000000000000                                                00000000000  000   8     00070433210388270301PASSAGEIRO
2000000000464620191113207570PREF. DE: MA - CAXIAS                   CXA0077962201910310930PCA DA MATRIZ                                               PSD1576MA78162-SAMT HONDA/POP100                                 PARTICULAR                    MOTOCICLETA     VERMELHA  00000000RODRIGO DE MELO NUNES                       RUA 24 DE DEZEMBRO NR. 1172             - SIRIEMA                               65602420CAXIAS              MACOND. MOTOC/MOTON./CICLOM TRANSPORTANDO/PASSAG.S/C244 * II           00000000070481   0000293470075720191114201912300000000000000000000000000                                                00000000000  000   9     00070433210534670481PASSAGEIRO
2000000000464620191113207570PREF. DE: MA - CAXIAS                   CXA0075438201910151420PCA CANDIDO MENDES                                          NXG5585MA122221-SAMTYAMAHA/FACTOR YBR125 K                       PARTICULAR                    MOTOCICLETA     PRETA     00000000LUCELIA PEREIRA DA SILVA                    RUA SAO JOSE NR. 1340                   - PONTE                                 65600000CAXIAS              MATRANSIT. P/ CONTRAMAO EM VIAS C/ SENT. UNICO      186 * II           00000000057380   0000293470075720191114201912300000000000000000000000000                                                00000000000  000   10    00070433210707157380PASSAGEIRO
2000000000464620191113207570PREF. DE: MA - CAXIAS                   CXA0075439201910151421PCA CANDIDO MENDES                                          NXG5585MA122221-SAMTYAMAHA/FACTOR YBR125 K                       PARTICULAR                    MOTOCICLETA     PRETA     00000000LUCELIA PEREIRA DA SILVA                    RUA SAO JOSE NR. 1340                   - PONTE                                 65600000CAXIAS              MACOND. MOTOCICLETA/MOTONETA/CICLOM S/CAPACETE DE SE244 * I            00000000070301   0000293470075720191114201912300000000000000000000000000                                                00000000000  000   11    00070433210815970301PASSAGEIRO
2000000000464620191113207570PREF. DE: MA - CAXIAS                   CXA0075440201910151600AV OTAVIO PASSOS                                            OJM9652MA122221-SAMTHONDA/CG150 FAN ESDI                         PARTICULAR                    MOTOCICLETA     VERMELHA  00000000RONALDO ADRIANO DE S OLIVEIRA               RUA RIO PRATA NR. 499                   - SIRIEMA                               65600000CAXIAS              MAESTAC. EM DESACORDO C/ A REGULAMENTACAO ESPECIFICA181 * XVII         00000000055411   0000195230075720191114201912300000000000000000000000000                                                00000000000  000   12    00050433210917155411PASSAGEIRO
2000000000464620191113207570PREF. DE: MA - CAXIAS                   CXA0077625201910151640RUA AARAO REIS                                              OJF1824MA122131-SAMTHONDA/BIZ 100 ES                             PARTICULAR                    MOTONETA        VERMELHA  00000000ANA VALESCA SILVA DOS REIS                  R SANTA LUZIA NR. N-742                 - TRIZIDELA                             65608260CAXIAS              MATRANSIT. P/ CONTRAMAO EM VIAS C/ SENT. UNICO      186 * II           00000000057380   0000293470075720191114201912300000000000000000000000000                                                00000000000  000   13    00070433211016157380PASSAGEIRO
2000000000464620191113207570PREF. DE: MA - CAXIAS                   CXA0077632201910151710AV SAO LUIS                                                 PTG0712MA122131-SAMTHONDA/CG 125I FAN                            PARTICULAR                    MOTOCICLETA     PRETA     00000000ANGELITA BARBOSA ASSUNCAO                   RUA 15 DE DEZEMBRO NR. 1115             - VILA ALECRIM                          65605635CAXIAS              MACOND. MOTOC/MOTON./CICLOM TRANSPORTANDO/PASSAG.S/C244 * II           00000000070481   0000293470075720191114201912300000000000000000000000000                                                00000000000  000   14    00070433211110970481PASSAGEIRO
2000000000464620191113207570PREF. DE: MA - CAXIAS                   CXA0077858201910151425RUA RIO BRANCO                                              NHG4223MA306521-SAMTHONDA/BIZ 125 KS                             PARTICULAR                    MOTONETA        PRETA     00000000CLEIA LIMA PEREIRA                          R.SESOSTRE PEREIRA NR. 2503             F-99-3521-1828 - SIRIEMA                65602350CAXIAS              MACOND. MOTOCICLETA/MOTONETA/CICLOM S/CAPACETE DE SE244 * I            00000000070301   0000293470075720191114201912300000000000000000000000000                                                00000000000  000   15    00070433211300470301PASSAGEIRO
2000000000464620191113207570PREF. DE: MA - CAXIAS                   CXA0075441201910151610PCA RUY BARBOSA                                             PSC4131MA122221-SAMTMOTO TRAXX/JL50Q-8                           PARTICULAR                    CICLOMOTOR      BRANCA    00000000CARLOS LUIZ RIOS                            AV CASTELO BRANCO QD C NR. 02           - REC DOS POETAS                        65604170CAXIAS              MACOND. MOTOC/MOTON./CICLOM TRANSPORTANDO/PASSAG.S/C244 * II           00000000070481   0000293470075720191114201912300000000000000000000000000                                                00000000000  000   16    00070433211628370481PASSAGEIRO
2000000000464620191113207570PREF. DE: MA - CAXIAS                   CXA0075443201910151730RUA BENEDITO REIS                                           NHH2635MA122221-SAMTHONDA/BIZ 125 ES                             PARTICULAR                    MOTONETA        PRETA     00000000SHIRLEY JANE RODRIGUES MAIA                 R TRILHO VELHO NR. 1544                 - CENTRO                                65608060CAXIAS              MATRANSIT. P/ CONTRAMAO EM VIAS C/ SENT. UNICO      186 * II           00000000057380   0000293470075720191114201912300000000000000000000000000                                                00000000000  000   17    00070433211915057380PASSAGEIRO
2000000000464620191113207570PREF. DE: MA - CAXIAS                   CXA0076838201910150913AV GETULIO VARGAS                                           OJH0148MA306461-SAMTHONDA/CG 125 FAN ES                          PARTICULAR                    MOTOCICLETA     PRETA     00000000FRANCISCO NUNES DE OLIVEIRA                 RUA ANICETO CRUZ NR. 995                - PONTE                                 65600000CAXIAS              MACOND. MOTOCICLETA/MOTONETA/CICLOM S/CAPACETE DE SE244 * I            00000000070301   0000293470075720191114201912300000000000000000000000000                                                00000000000  000   18    00070433212125270301PASSAGEIRO
2000000000464620191113207570PREF. DE: MA - CAXIAS                   CXA0077532201910150843RODOVIARIA NACHOR CARVALHO                                  OJM7608MA305941-SAMTFIAT/UNO VIVACE 1.0                          PARTICULAR                    AUTOMOVEL       BRANCA    00000000IOLANDA ARAUJO DO NASCIMENTO                RUA JOAO DA C ALECRIM NR. 1218          - CENTRO                                65600000CAXIAS              MAESTAC. EM LOCAL/HORARIO PROIBIDO ESPECIFIC. P/SINA181*XVIII          00000000055500   0000130160075720191114201912300000000000000000000000000                                                00000000000  000   19    00040433212326355500PASSAGEIRO
2000000000464620191113207570PREF. DE: MA - CAXIAS                   CXA0077018201910150905RUA SENADOR COSTA RODRIGUES                                 PSF7463MA138301-SAMTHONDA/CG 125 FAN ESD                         PARTICULAR                    MOTOCICLETA     PRETA     00000000ELIAS CESAR DOS SANTOS                      RUA 05 NR. 544                          - CANGALHEIRO                           65606270CAXIAS              MACOND. MOTOC/MOTON./CICLOM TRANSPORTANDO/PASSAG.S/C244 * II           00000000070481   0000293470075720191114201912300000000000000000000000000                                                00000000000  000   20    00070433212525870481PASSAGEIRO
2000000000464620191113207570PREF. DE: MA - CAXIAS                   CXA0077019201910150920RUA SAO BENEDITO                                            PSX7478MA138301-SAMTHONDA/POP 110I                               PARTICULAR                    MOTOCICLETA     PRETA     00000000MARIA DAS GRACAS B DOS S CHAVES             RUA MOISES QD-C-15 NR. N-09             RES. - VILA PARAISO                     65606826CAXIAS              MACOND. MOTOC/MOTON./CICLOM TRANSPORTANDO/PASSAG.S/C244 * II           00000000070481   0000293470075720191114201912300000000000000000000000000                                                00000000000  000   21    00070433212625470481PASSAGEIRO
2000000000464620191113207570PREF. DE: MA - CAXIAS                   CXA0077903201910150920AV GETULIO VARGAS                                           NXQ7945MA306051-SAMTHONDA/CG 150 FAN ESI                         PARTICULAR                    MOTOCICLETA     PRETA     00000000MARIA HELENA DA SILVA ROCHA                 RUA SAO JOSE NR. 1421                   - FAZENDINHA                            65600000CAXIAS              MAESTAC. EM DESACORDO C/ A REGULAMENTACAO ESPECIFICA181 * XVII         00000000055411   0000195230075720191114201912300000000000000000000000000                                                00000000000  000   22    00050433213018955411PASSAGEIRO
2000000000464620191113207570PREF. DE: MA - CAXIAS                   CXA0077902201910150908AV OTAVIO REIS                                              BZE2131MA306051-SAMTIMP/GM D20 CUSTOM S                          PARTICULAR                    CAMINHONETE     BRANCA    00000000VALTER DE SOUSA SILVA                       III TRAV ANGELIM NR. N-247              - CANGALHEIRO                           65600000CAXIAS              MAESTAC. VEIC. NAS ESQU. E MENOS DE 5M DO ALINHAMENT181 * I            00000000053800   0000130160075720191114201912300000000000000000000000000                                                00000000000  000   23    00040433213171153800CARGA
3000023000000000023
