1*NIPI207570201912240047452019122400000000000000
2100000000474520191224207570PREF. DE: MA - CAXIAS                   CXA0075421201910091631RUA VITOR GONCALVES NETO                                    HPU9847MA122221-SAMTHONDA/CG 150 TITAN KS                        PARTICULAR                    MOTOCICLETA     PRETA     00000000FRANCISCO HELENN SOUSA DE FARIAS            TV JOSE CRUZ N.138 NR.                  - CENTRO                                65600000CAXIAS              MACOND. MOTOCICLETA/MOTONETA/CICLOM S/CAPACETE DE SE244 * I            00000000070301   000029347007572019122520200207319036716968080000002347785660000002534770332070022007574719003671696808000000000000  000   2     00070431719489970301PASSAGEIRO
2100000000474520191224207570PREF. DE: MA - CAXIAS                   CXA0075430201910091634RUA VITOR GONCALVES NETO                                    PTH2017MA122221-SAMTHONDA/CG 160 FAN                             PARTICULAR                    MOTOCICLETA     BRANCA    00000000MARIA DO SOCORRO SENA                       RUA ALUISIO LOBO NR. 3355               - SAO FRANCISCO                         65600450CAXIAS              MACOND. MOTOC/MOTON./CICLOM TRANSPORTANDO/PASSAG.S/C244 * II           00000000070481   000029347007572019122520200207319036716969850000002347785650000002634770332070022007574419703671696985600000000000  000   3     00070431719517870481PASSAGEIRO
2100000000474520191224207570PREF. DE: MA - CAXIAS                   CXA0075431201910091644RUA MENINO DEUS                                             NXQ4100MA122221-SAMTHONDA/POP100                                 PARTICULAR                    MOTOCICLETA     VERMELHA  00000000RAIMUNDA MARIA LIMA VIEIRA                  RUA COLINAS QD 6 NR. N-02               - NOVA CAXIAS                           65600000CAXIAS              MACOND. MOTOC/MOTON./CICLOM TRANSPORTANDO/PASSAG.S/C244 * II           00000000070481   000029347007572019122520200207319036716970160000002347785680000002334770332070022007574419703671697016900000000000  000   4     00070431719611570481PASSAGEIRO
2100000000474520191224207570PREF. DE: MA - CAXIAS                   CXA0075429201910091632R VITOR GONCALVES NETO                                      PSP7669MA122221-SAMTHONDA/POP100                                 PARTICULAR                    MOTOCICLETA     VERMELHA  00000000ANTONIA MARIA A DA SILVA ALMEIDA            R JOAO DE BARRO NR. N-7                 QD A10 - VL PARAISO                     65600010CAXIAS              MACOND. MOTOCICLETA/MOTONETA/CICLOM S/CAPACETE DE SE244 * I            00000000070301   000029347007572019122520200207319036716971030000002347785610000002034770332070022007574719003671697103500000000000  000   5     00070431719754570301PASSAGEIRO
2100000000474520191224207570PREF. DE: MA - CAXIAS                   CXA0077824201910091007RUA BENEDITO REIS                                           PSV1765MA306431-SAMTHONDA/POP 110I                               PARTICULAR                    MOTOCICLETA     PRETA     00000000FRANCISCA DAS CHAGAS B D ALMEIDA            TV SAO PEDRO NR. 80                     - CENTRO                                65608510CAXIAS              MAESTACIONAR NAS VAGAS RESERV AS PESSOAS C/DEFIC.S/CART 181, XX        00000000076251   000029347007572019122520200207319036716972800000002347785600000002134770332070022007574419703671697280100000000000  000   6     00070431720615376251PASSAGEIRO
2100000000474520191224207570PREF. DE: MA - CAXIAS                   CXA0077826201910091515PCA CANDIDO MENDES                                          PST3143MA122201-SAMTYAMAHA/XTZ150 CROSSER E                      PARTICULAR                    MOTOCICLETA     CINZA     00000000BENEDITA MARIA COELHO DE ALMEIDA            II TRAV BELA VISTA NR. 1091             - CANGALHEIRO                           65606317CAXIAS              MACOND. MOTOC/MOTON./CICLOM TRANSPORTANDO/PASSAG.S/C244 * II           00000000070481   000029347007572019122520200207319036716973680000002347785630000002834770332070022007574419703671697368400000000000  000   7     00070431720876870481PASSAGEIRO
2100000000474520191224207570PREF. DE: MA - CAXIAS                   CXA0077828201910091530PCA CANDIDO MENDES                                          PSY1076MA306431-SAMTHYUNDAI/HR HDB                               PARTICULAR                    CAMINHONETE     BRANCA    00000000CLAUDINAR DA C S SILVEIRA-ME                YV JOSE GUIMARAES NR. 149               - CENTRO                                65600010CAXIAS              MADEIXAR O CONDUTOR DE USAR O CINTO E SEGURANCA     167                00000000051851   000019523007572019122520200207319036716974450000001561885620000001156180332070522007574719003671697445000000000000  000   8     00050431720908051851CARGA
2100000000474520191224207570PREF. DE: MA - CAXIAS                   CXA0077832201910091725AV PIRAJA                                                   PSG7897MA306431-SAMTHONDA/NXR160 BROS ESD                        ALUGUEL                       MOTOCICLETA     AMARELA   00000000ADINAEL BANDEIRA CONCEICAO                  RUA SAO JOSE NR. 1265                   - BACURIZEIRO                           65603820CAXIAS              MAAVANCAR SINAL VERMELHO DO SEMAFORO                208                00000000060501   000029347007572019122520200207319036716975220000002347785650000002634770332070022007574419703671697522600000000000  000   9     00070431720973060501PASSAGEIRO
2100000000474520191224207570PREF. DE: MA - CAXIAS                   CXA0077600201910101740AV LUIS SALES                                               PSE6544MA123611-SAMTHONDA/BIZ 125 ES                             PARTICULAR                    MOTONETA        PRETA     00000000VANUSA FERREIRA DA SILVA                    R.DO SOL N.1013 NR.                     - CANGALHEIRO                           65606320CAXIAS              MACOND. MOTOC/MOTON./CICLOM TRANSPORTANDO/PASSAG.S/C244 * II           00000000070481   000029347007572019122520200207319036716976000000002347785690000002234770332070022007574419703671697600000000000000  000   10    00070431721181570481PASSAGEIRO
2100000000474520191224207570PREF. DE: MA - CAXIAS                   CXA0077599201910101735AV LUIS SALES                                               OIV6693MA123611-SAMTHONDA/POP100                                 PARTICULAR                    MOTOCICLETA     VERMELHA  00000000BETANHA ELESBAO DA SILVA                    AV.VOLTA REDONDA NR. 1387               F-3421-4624 - VOLTA REDONDA             65600000CAXIAS              MACOND. MOTOC/MOTON./CICLOM TRANSPORTANDO/PASSAG.S/C244 * II           00000000070481   000029347007572019122520200207319036716977970000002347785630000002834770332070022007574419703671697797400000000000  000   11    00070431721568370481PASSAGEIRO
2100000000474520191224207570PREF. DE: MA - CAXIAS                   CXA0077598201910101735AV LUIS SALES                                               PST1775MA123611-SAMTHONDA/BIZ 110I                               PARTICULAR                    MOTONETA        PRETA     00000000KEILANE PEREIRA DE SOUSA                    RUA ESPERANTINOPOLIS NR. 1168           - VILA LOBAO                            65605520CAXIAS              MACOND. MOTOC/MOTON./CICLOM TRANSPORTANDO/PASSAG.S/C244 * II           00000000070481   000029347007572019122520200207319036716978740000002347785600000002134770332070022007574419703671697874100000000000  000   12    00070431722056370481PASSAGEIRO
2100000000474520191224207570PREF. DE: MA - CAXIAS                   CXA0077597201910101725AV LUIS SALES                                               PSM5299MA123611-SAMTHONDA/POP 110I                               PARTICULAR                    MOTOCICLETA     PRETA     00000000MARIA DE FATIMA DO N SILVA                  AV BEIJA FLOR QD I NR. 14               - RESID SABIA                           65603720CAXIAS              MATRANSIT. P/ CONTRAMAO EM VIAS C/ SENT. UNICO      186 * II           00000000057380   000029347007572019122520200207319036716979510000002347785660000002534770332070022007574419703671697951700000000000  000   13    00070431722553057380PASSAGEIRO
2100000000474520191224207570PREF. DE: MA - CAXIAS                   CXA0077595201910101445PCA MAGALHAES DE ALMEIDA                                    PSK4887MA123611-SAMTVW/GOL SPECIAL MB                            PARTICULAR                    AUTOMOVEL       VERMELHA  00000000DANIEL PAULINO DE LIMA                      TV SEN ALEXANDRE COSTA NR. 981          - MULTIRAO                              65604845CAXIAS              MADIR.VEIC. UTILIZANDO-SE DE TELEFONE CELULAR       252 * VI           00000000073662   000013016007572019122520200207319036716980920000001041285600000001304120332070422007574719003671698092900000000000  000   14    00040431723826873662PASSAGEIRO
2100000000474520191224207570PREF. DE: MA - CAXIAS                   CXA0077594201910101430PCA MAGALHAES DE ALMEIDA                                    HPT7915MA123611-SAMTHONDA/C100 BIZ                               PARTICULAR                    MOTONETA        AZUL      00000000MARIA ALICE DE ABREU OLIVEIRA               R.SESOSTRES PEREIRA NR. 2245            - SIRIEMA                               65600000CAXIAS              MATRANSIT. P/ CONTRAMAO EM VIAS C/ SENT. UNICO      186 * II           00000000057380   000029347007572019122520200207319036716981700000002347785620000002934770332070022007574419703671698170300000000000  000   15    00070431724320257380PASSAGEIRO
2100000000474520191224207570PREF. DE: MA - CAXIAS                   CXA0075288201910100648AV GETULIO VARGAS                                           PTG9330MA301942-SAMTHONDA/CG 160 TITAN                           PARTICULAR                    MOTOCICLETA     VERMELHA  00000000KEYSON WELLERSON C CORREIA LIMA             RUA 15 QD-18 NR. N-02                   CJ IPEM - SERIEMA                       65603160CAXIAS              MAAVANCAR SINAL VERMELHO DO SEMAFORO                208                00000000060501   000029347007572019122520200207319036716982570000002347785670000002434770332070022007574419703671698257800000000000  000   16    00070431725202360501PASSAGEIRO
2100000000474520191224207570PREF. DE: MA - CAXIAS                   CXA0077167201910100817RUA SAO BENEDITO                                            PSH7419MA122161-SAMTHONDA/CG 125 FAN KS                          PARTICULAR                    MOTOCICLETA     PRATA     00000000FRANCISCA DAS GRACAS DE S ARAUJO            RUA DOS CALDEIROES NR. 632              - CALDEIROES                            65607305CAXIAS              MACOND. MOTOC/MOTON./CICLOM TRANSPORTANDO/PASSAG.S/C244 * II           00000000070481   000029347007572019122520200207319036716983340000002347785640000002734770332070022007574419703671698334500000000000  000   17    00070431726260670481PASSAGEIRO
2100000000474520191224207570PREF. DE: MA - CAXIAS                   CXA0076833201910101742AV OTAVIO PASSOS                                            NMT7291MA306461-SAMTFIAT/UNO MILLE WAY ECON                      PARTICULAR                    AUTOMOVEL       PRATA     00000000JOSE EVILAZIO PEREIRA DA SILVA              RUA 5 NR. SN                            QD 3 CASA 40 - RES STA TEREZIN          65600001CAXIAS              MAAVANCAR SINAL VERMELHO DO SEMAFORO                208                00000000060501   000029347007572019122520200207319036716984110000002347785600000002134770332070022007574419703671698411100000000000  000   18    00070431727244060501PASSAGEIRO
2100000000474520191224207570PREF. DE: MA - CAXIAS                   CXA0076831201910101100RUA RIO DE JANEIRO                                          PSM0621MA306461-SAMTHONDA/CG150 START                            PARTICULAR                    MOTOCICLETA     VERMELHA  00000000MAURICIO CASTRO DA SILVA                    TV24 DE DEZEMBRO NR. 1047               - SIRIEMA                               65602420CAXIAS              MACOND. MOTOCICLETA/MOTONETA/CICLOM S/CAPACETE DE SE244 * I            00000000070301   000029347007572019122520200207319036716985090000002347785680000002334770332070022007574719003671698509200000000000  000   19    00070431728985770301PASSAGEIRO
2100000000474520191224207570PREF. DE: MA - CAXIAS                   CXA0077800201910101100RUA RIO DE JANEIRO                                          PSV9944MA306051-SAMTHONDA/POP 110I                               PARTICULAR                    MOTOCICLETA     PRETA     00000000MARIA DAS NEVES DE OLIVEIRA                 RUA SAO FRANCISCO NR. 386               - SERIEMA                               65602490CAXIAS              MACOND. MOTOCICLETA/MOTONETA/CICLOM S/CAPACETE DE SE244 * I            00000000070301   000029347007572019122520200207319036716986860000002347785640000002734770332070022007574719003671698686800000000000  000   20    00070431729895370301PASSAGEIRO
2100000000474520191224207570PREF. DE: MA - CAXIAS                   CXA0077529201910100900PCA CANDIDO MENDES                                          OXR4986MA305941-SAMTHONDA/POP100                                 PARTICULAR                    MOTOCICLETA     VERMELHA  00000000MARINETE DOS SANTOS SOUSA                   RUA ALOISIO LOBO NR. 2059               - SAO FRANCISCO                         65600000CAXIAS              MACOND. MOTOC/MOTON./CICLOM TRANSPORTANDO/PASSAG.S/C244 * II           00000000070481   000029347007572019122520200207319036716987630000002347785640000002734770332070022007574419703671698763500000000000  000   21    00070431730950570481PASSAGEIRO
2100000000474520191224207570PREF. DE: MA - CAXIAS                   CXA0077528201910100844PCA CANDIDO MENDES                                          PTB7566MA305941-SAMTHONDA/POP 110I                               PARTICULAR                    MOTOCICLETA     VERMELHA  00000000AYANNA RHAIELLY DA COSTA SANTOS             RUA ALVINO BATISTA NR. 1456             - LUIZA QUEIROZ                         65607713CAXIAS              MACOND. MOTOC/MOTON./CICLOM TRANSPORTANDO/PASSAG.S/C244 * II           00000000070481   000029347007572019122520200207319036716988400000002347785600000002134770332070022007574419703671698840100000000000  000   22    00070431731599870481PASSAGEIRO
2100000000474520191224207570PREF. DE: MA - CAXIAS                   CXA0077527201910100836RUA COELHO NETO                                             PSL0448MA305941-SAMTHONDA/CG 125 FAN KS                          PARTICULAR                    MOTOCICLETA     VERMELHA  00000000ERICK DO CARMO DE ARAUJO                    RUA DA IGREJA NR. 1840                  - SAO FRANCISCO                         65600010CAXIAS              MAESTAC. EM LOCAL/HORARIO.DE ESTAC. E PARADA PROIBID181 * XIX          00000000055680   000019523007572019122520200207319036716989280000001561885690000001456180332070522007574419703671698928400000000000  000   23    00050431732307955680PASSAGEIRO
2100000000474520191224207570PREF. DE: MA - CAXIAS                   CXA0077833201910100956PCA CANDIDO MENDES                                          OXS1714MA306431-SAMTHONDA/POP100                                 PARTICULAR                    MOTOCICLETA     PRETA     00000000MARIA DA CONCEICAO CRUZ                     RUA BOA VISTA NR. 753                   - TAMARINEIRO                           65600000CAXIAS              MACOND. MOTOC/MOTON./CICLOM TRANSPORTANDO/PASSAG.S/C244 * II           00000000070481   000029347007572019122520200207319036716990690000002347785650000002634770332070022007574419703671699069600000000000  000   24    00070431732881070481PASSAGEIRO
2100000000474520191224207570PREF. DE: MA - CAXIAS                   CXA0077834201910101040PCA CANDIDO MENDES                                          NIF1978MA306431-SAMTHONDA/CB 300R                                PARTICULAR                    MOTOCICLETA     VERMELHA  00000000SIMONE AREIA LEAO SOUTO                     AV N SRA NAZARE NR. 370                 - TRIZIDELA                             65608460CAXIAS              MACOND. MOTOC/MOTON./CICLOM TRANSPORTANDO/PASSAG.S/C244 * II           00000000070481   000029347007572019122520200207319036716991460000002347785610000002034770332070022007574419703671699146200000000000  000   25    00070431733459370481PASSAGEIRO
2100000000474520191224207570PREF. DE: MA - CAXIAS                   CXA0077836201910101044PCA CANDIDO MENDES                                          OXR8821MA306431-SAMTHONDA/NXR150 BROS ESD                        PARTICULAR                    MOTOCICLETA     BRANCA    00000000JOSE CLEMILTON PEREIRA MENDES               RUA DA AROEIRA NR. 1628                 - CENTRO                                65602270CAXIAS              MACOND. MOTOC/MOTON./CICLOM TRANSPORTANDO/PASSAG.S/C244 * II           00000000070481   000029347007572019122520200207319036716992230000002347785680000002334770332070022007574419703671699223900000000000  000   26    00070431734540470481PASSAGEIRO
2100000000474520191224207570PREF. DE: MA - CAXIAS                   CXA0077837201910101652RUA DR ALFREDO BELEZA                                       OJN6879MA306431-SAMTHONDA/CG 150 TITAN EX                        PARTICULAR                    MOTOCICLETA     BRANCA    00000000KATIA CILENE PEREIRA LIMA                   TV CAJUEIRO N-1229 NR.                  - SIRIEMA                               65600000CAXIAS              MAESTAC. EM LOCAL/HORARIO PROIBIDO ESPECIFIC. P/SINA181*XVIII          00000000055500   000013016007572019122520200207319036716993000000001041285690000001404120332070422007574419703671699300500000000000  000   27    00040431735124255500PASSAGEIRO
3000026000000000026
