1*NIPI207570201911190046602019111900000000000000
2100000000466020191119207570PREF. DE: MA - CAXIAS                   CXA0076999201909101600RUA 01 DE AGOSTO                                            OJE3622MA123611-SAMTHONDA/CG 150 TITAN EX                        PARTICULAR                    MOTOCICLETA     VERMELHA  00000000FRANCISCO LEONARDO P DA SILVA               R 7 DE SETEMBRO NR. 210                 - TREZIDELA                             65600001CAXIAS              MACOND. MOTOC/MOTON./CICLOM TRANSPORTANDO/PASSAG.S/C244 * II           00000000070481   000029347007572019112020200103319036671226660000002347785680000002334770332030412007574419903667122666400000000000  000   2     00070424822085770481PASSAGEIRO
2100000000466020191119207570PREF. DE: MA - CAXIAS                   CXA0075226201909101014RUA GUSTAVO COLACO                                          NNE1374MA122111-SAMTGM/CELTA 2P LIFE                             PARTICULAR                    AUTOMOVEL       PRATA     00000000ANALIO GONCALVES DOS S JUNIOR               RUA DR BERREDO NR. 717                  - CENTRO                                65604050CAXIAS              MAESTACIONAR EM DESACORDO C/REGULAMENTACAO-PONTO OU 181 * XVII         00000000055413   000019523007572019112020200103319036671227430000001561885610000001256180332030912007574419903667122743100000000000  000   3     00050424822355455413PASSAGEIRO
2100000000466020191119207570PREF. DE: MA - CAXIAS                   CXA0076997201909101510RUA MENINO DEUS                                             HQD4872MA123611-SAMTHONDA/BIZ 125 KS                             PARTICULAR                    MOTONETA        PRETA     00000000SERGIO ROBERTO JORGE S E SILVA              AV CANARIOS QD O NR. NR-38              - CJR SABIA                             65600000CAXIAS              MACOND. MOTOC/MOTON./CICLOM TRANSPORTANDO/PASSAG.S/C244 * II           00000000070481   000029347007572019112020200103319036671228200000002347785610000002034770332030412007574419903667122820700000000000  000   4     00070424823512970481PASSAGEIRO
2100000000466020191119207570PREF. DE: MA - CAXIAS                   CXA0076792201909101728PCA CANDIDO MENDES                                          PSU4663MA306431-SAMTHONDA/BIZ 110I                               PARTICULAR                    MOTONETA        VERMELHA  00000000MARCIONE DOS SANTOS RODRIGUES               RUA CAJUEIRO NR. 1010                   - SIRIEMA                               65602530CAXIAS              MACOND. MOTOC/MOTON./CICLOM TRANSPORTANDO/PASSAG.S/C244 * II           00000000070481   000029347007572019112020200103319036671229080000002347785640000002734770332030412007574419903667122908000000000000  000   5     00070424823686970481PASSAGEIRO
2100000000466020191119207570PREF. DE: MA - CAXIAS                   CXA0076515201909101610AV LUIS SALES                                               OJJ3470MA123611-SAMTHONDA/POP100                                 PARTICULAR                    MOTOCICLETA     LARANJA   00000000JUCIVAN DIAS OLIVEIRA                       RUA MONTE CAMELO NR. 1216               - CAMPO DE BELEM                        65600000CAXIAS              MACOND. MOTOC/MOTON./CICLOM TRANSPORTANDO/PASSAG.S/C244 * II           00000000070481   000029347007572019112020200103319036671230490000002347785660000002534770332030412007574419903667123049200000000000  000   6     00070424823934570481PASSAGEIRO
2100000000466020191119207570PREF. DE: MA - CAXIAS                   CXA0076516201909101615AV LUIS SALES                                               OIU8728MA123611-SAMTYAMAHA/T115 CRYPTON ED                       PARTICULAR                    MOTONETA        PRATA     00000000MARINETE SOARES DOS SANTOS                  AV JERUSALEM NR. 2110                   - NOVA CAXIAS                           65600000CAXIAS              MACOND. MOTOCICLETA/MOTONETA/CICLOM S/CAPACETE DE SE244 * I            00000000070301   000029347007572019112020200103319036671231260000002347785690000002234770332030412007574719203667123126800000000000  000   7     00070424824074270301PASSAGEIRO
2100000000466020191119207570PREF. DE: MA - CAXIAS                   CXA0076783201909101550RUA OTAVIO PASSOS                                           PSN0714MA306431-SAMTHONDA/POP 110I                               PARTICULAR                    MOTOCICLETA     VERMELHA  00000000RITA DE CASSIA ARAUJO RODRIGUES             AV CENTRAL NR. 1246                     - REFINARIA                             65600175CAXIAS              MAESTAC. EM DESACORDO C/ A REGULAMENTACAO ESPECIFICA181 * XVII         00000000055411   000019523007572019112020200103319036671232030000001561885650000001856180332030912007574419903667123203500000000000  000   8     00050424828060455411PASSAGEIRO
2100000000466020191119207570PREF. DE: MA - CAXIAS                   CXA0076781201909101400PCA MAGALHAES DE ALMEIDA                                    PSK1731MA306431-SAMTHONDA/CG 160 FAN ESDI                        PARTICULAR                    MOTOCICLETA     PRETA     00000000WELTON DA SILVA AQUINO                      RUA DORGIVAL PINHEIRO NR. 117           - CENTRO                                65927000DAVINOPOLIS         MACOND. MOTOC/MOTON./CICLOM TRANSPORTANDO/PASSAG.S/C244 * II           00000000070481   000029347007572019112020200103319036671233900000002347785640000002734770332030412007574419903667123390000000000000  000   9     00070424828456170481PASSAGEIRO
2100000000466020191119207570PREF. DE: MA - CAXIAS                   CXA0076992201909101420RUA MENINO DEUS                                             HQC3222MA123611-SAMTHONDA/BIZ 125 KS                             PARTICULAR                    MOTONETA        VERMELHA  00000000MARCELO CARVALHO CUNHA                      R 22 NR. 20                             - COHAB                                 65604400CAXIAS              MACOND. MOTOC/MOTON./CICLOM TRANSPORTANDO/PASSAG.S/C244 * II           00000000070481   000029347007572019112020200103319036671234780000002347785670000002434770332030412007574419903667123478300000000000  000   10    00070424828626270481PASSAGEIRO
2100000000466020191119207570PREF. DE: MA - CAXIAS                   CXA0076537201909111605AV LUIS SALES                                               PSR4015MA123611-SAMTHONDA/POP 110I                               PARTICULAR                    MOTOCICLETA     PRETA     00000000FRANCISCO PEREIRA DE ASSUNCAO               AV RIO BRANCO NR. 1470                  - VOLTA REDONDA                         65606490CAXIAS              MACOND. MOTOC/MOTON./CICLOM TRANSPORTANDO/PASSAG.S/C244 * II           00000000070481   000029347007572019112020200103319036671235550000002347785620000002934770332030412007574419903667123555800000000000  000   11    00070424828746370481PASSAGEIRO
2100000000466020191119207570PREF. DE: MA - CAXIAS                   CXA0073880201908101453RUA 13 DE MAIO                                              PTA0316MA306481-SAMTHONDA/POP 110I                               PARTICULAR                    MOTOCICLETA     BRANCA    00000000WELLINGTON THIAGO F DE SOUSA                PV BEBEDOURO NR. S/N                    - ZONA RURAL                            65609899CAXIAS              MACOND. MOTOC/MOTON./CICLOM TRANSPORTANDO/PASSAG.S/C244 * II           00000000070481   000029347007572019112020200103319036671236320000002347785690000002234770332030412007574419903667123632500000000000  000   12    00070424829036770481PASSAGEIRO
2100000000466020191119207570PREF. DE: MA - CAXIAS                   CXA0076518201909101630AV LUIS SALES                                               NNI1045MA123611-SAMTHONDA/CG 125 FAN KS                          PARTICULAR                    MOTOCICLETA     PRETA     00000000FRANCISCO LUAN COSTA SILVA                  RUA SANTOS REIS NR. 156                 - CAMPO BELEM                           65600010CAXIAS              MACOND. MOTOC/MOTON./CICLOM TRANSPORTANDO/PASSAG.S/C244 * II           00000000070481   000029347007572019112020200103319036671237100000002347785630000002834770332030412007574419903667123710900000000000  000   13    00070424829630670481PASSAGEIRO
2100000000466020191119207570PREF. DE: MA - CAXIAS                   CXA0077000201909101600RUA 01 DE AGOSTO                                            OXY4193MA123611-SAMTHONDA/NXR125 BROS ES                         ALUGUEL                       MOTOCICLETA     AMARELA   00000000MIGUEL WILLIAMS COSTA DA SILVA              RUA DA FERROVIA NR. 1100                - CALDEIROES                            65607290CAXIAS              MACOND. MOTOC/MOTON./CICLOM TRANSPORTANDO/PASSAG.S/C244 * II           00000000070481   000029347007572019112020200103319036671238070000002347785670000002434770332030412007574419903667123807300000000000  000   14    00070424830018470481PASSAGEIRO
2100000000466020191119207570PREF. DE: MA - CAXIAS                   CXA0076525201909101655AV LUIS SALES                                               OJM9247MA123611-SAMTHONDA/BIZ 125 ES                             PARTICULAR                    MOTONETA        PRETA     00000000MANOEL LAECIO BATISTA LEMOS                 TRAV WALTER BRITO II NR. 587            - CAMPO DE BELEM                        65600000CAXIAS              MACOND. MOTOC/MOTON./CICLOM TRANSPORTANDO/PASSAG.S/C244 * II           00000000070481   000029347007572019112020200103319036671239840000002347785640000002734770332030412007574419903667123984000000000000  000   15    00070425058697970481PASSAGEIRO
2100000000466020191119207570PREF. DE: MA - CAXIAS                   CXA0076787201909101701PCA DUQUE DE CAXIAS                                         PSN6097MA306431-SAMTHONDA/XRE 300                                PARTICULAR                    MOTOCICLETA     VERMELHA  00000000JOSE FERREIRA LIMA NETO                     TV BENJAMIM CONSTANT 3 NR. N273         - JOAO VIANA                            65600010CAXIAS              MAESTAC. EM DESACORDO C/ A REGULAMENTACAO ESPECIFICA181 * XVII         00000000055411   000019523007572019112020200103319036671240150000001561885620000001156180332030912007574419903667124015200000000000  000   16    00050425058808455411PASSAGEIRO
2100000000466020191119207570PREF. DE: MA - CAXIAS                   CXA0076784201909101652DUQUE DE CAXIAS                                             PSQ3049MA306431-SAMTHONDA/POP 110I                               PARTICULAR                    MOTOCICLETA     BRANCA    00000000SEBASTIAO FERREIRA DA SILVA                 RUA 7 DE SETEMBRO NR. N-831             - TRIZIDELA                             65600010CAXIAS              MAESTAC. EM DESACORDO C/ A REGULAMENTACAO ESPECIFICA181 * XVII         00000000055411   000019523007572019112020200103319036671241020000001561885680000001556180332030912007574419903667124102800000000000  000   17    00050425058830055411PASSAGEIRO
2100000000466020191119207570PREF. DE: MA - CAXIAS                   CXA0076790201909101710PCA DUQUE DE CAXIAS                                         NHK3576MA306431-SAMTHONDA/POP100                                 PARTICULAR                    MOTOCICLETA     PRETA     00000000FRANCISLENE DJALMA SOUSA SANTOS             R SAO PEDRO NR-1858 NR.                 - SERIEMA                               65600000CAXIAS              MAESTACIONAR EM DESACORDO C/REGULAM-VAGA DE CARGA/DE181 * XVII         00000000055414   000019523007572019112020200103319036671242800000001561885620000001156180332030912007574419903667124280200000000000  000   18    00050425058879355414PASSAGEIRO
2100000000466020191119207570PREF. DE: MA - CAXIAS                   CXA0076791201909101714PCA DUQUE DE CAXIAS                                         PSX9644MA306431-SAMTHONDA/CG 160 FAN ESDI                        PARTICULAR                    MOTOCICLETA     PRETA     00000000JOSE FERREIRA DE SOUSA FILHO                R DA FAVEIRA NR. 969                    - REFINARIA                             65600001CAXIAS              MAESTAC. EM DESACORDO C/ A REGULAMENTACAO ESPECIFICA181 * XVII         00000000055411   000019523007572019112020200103319036671243670000001561885670000001656180332030912007574419903667124367700000000000  000   19    00050425058909955411PASSAGEIRO
2100000000466020191119207570PREF. DE: MA - CAXIAS                   CXA0076782201909101115AV OTAVIO PASSOS                                            PSQ8055MA306431-SAMTHONDA/NXR 160 BROS                           PARTICULAR                    MOTOCICLETA     PRETA     00000000FRANCISCO DAS CHAGAS D ALMEIDA              RUA DO CURIO QD-B-14 NR. N-09           - VILA PARAISO                          65600010CAXIAS              MAESTAC. EM DESACORDO C/ A REGULAMENTACAO ESPECIFICA181 * XVII         00000000055411   000019523007572019112020200103319036671244440000001561885640000001956180332030912007574419903667124444400000000000  000   20    00050425058953655411PASSAGEIRO
2100000000466020191119207570PREF. DE: MA - CAXIAS                   CXA0077025201909101605RUA MENINO DEUS                                             PSY0432MA138301-SAMTHONDA/CG 160 FAN ESDI                        PARTICULAR                    MOTOCICLETA     VERMELHA  00000000LUCIA MARIA SOUSA DA SILVA                  RUA DOS CALDEIROES NR. 672              - CALDEIROES                            65607305CAXIAS              MACOND. MOTOCICLETA/MOTONETA/CICLOM S/CAPACETE DE SE244 * I            00000000070301   000029347007572019112020200103319036671245210000002347785600000002134770332030412007574719203667124521900000000000  000   21    00070425059767970301PASSAGEIRO
2100000000466020191119207570PREF. DE: MA - CAXIAS                   CXA0076724201909101115RUA RIO BRANCO                                              NMP7204MA305941-SAMTHONDA/XR 250 TORNADO                         PARTICULAR                    MOTOCICLETA     AMARELA   00000000ANTONIO ALVES RODRIGUES FILHO               R DO CAJUEIRO NR. 1498                  - SIRIEMA                               65600000CAXIAS              MATRANSIT. P/ CONTRAMAO EM VIAS C/ SENT. UNICO      186 * II           00000000057380   000029347007572019112020200103319036671246090000002347785660000002534770332030412007574419903667124609200000000000  000   22    00070425059921357380PASSAGEIRO
2100000000466020191119207570PREF. DE: MA - CAXIAS                   CXA0076723201909101112RUA RIO BRANCO                                              NND4701MA305941-SAMTYAMAHA/T115 CRYPTON ED                       PARTICULAR                    MOTONETA        PRETA     00000000MARLY DE JESUS REIS SOUSA                   PC CEM DOS REMEDIOS NR. 1436            - CASTELO BRANCO                        65600000CAXIAS              MATRANSIT. P/ CONTRAMAO EM VIAS C/ SENT. UNICO      186 * II           00000000057380   000029347007572019112020200103319036671247960000002347785610000002034770332030412007574419903667124796700000000000  000   23    00070425060082357380PASSAGEIRO
2100000000466020191119207570PREF. DE: MA - CAXIAS                   CXA0073879201909101449RUA 13 DE MAIO                                              OJD7633MA306481-SAMTHONDA/NXR150 BROS ES                         PARTICULAR                    MOTOCICLETA     PRETA     00000000RAIMUNDO NONATO ALVES DA SILVA              R SAO JUDAS TADEU NR. 346               - PONTE                                 65600000CAXIAS              MACOND. MOTOC/MOTON./CICLOM TRANSPORTANDO/PASSAG.S/C244 * II           00000000070481   000029347007572019112020200103319036671248730000002347785680000002334770332030412007574419903667124873400000000000  000   24    00070425060307570481PASSAGEIRO
2100000000466020191119207570PREF. DE: MA - CAXIAS                   CXA0076517201909101620AV LUIS SALES                                               PTA0316MA123611-SAMTHONDA/POP 110I                               PARTICULAR                    MOTOCICLETA     BRANCA    00000000WELLINGTON THIAGO F DE SOUSA                PV BEBEDOURO NR. S/N                    - ZONA RURAL                            65609899CAXIAS              MACOND. MOTOC/MOTON./CICLOM TRANSPORTANDO/PASSAG.S/C244 * II           00000000070481   000029347007572019112020200103319036671249500000002347785640000002734770332030412007574419903667124950000000000000  000   25    00070425060346670481PASSAGEIRO
2100000000466020191119207570PREF. DE: MA - CAXIAS                   CXA0076994201909101450RUA MENINO DEUS                                             PSC3604MA123611-SAMTHONDA/NXR160 BROS ESDD                       PARTICULAR                    MOTOCICLETA     VERMELHA  00000000GEYLTON JOSE DAS CHAGAS OLIVEIRA            R AEROPORTO NR. 2331                    - TESO DURO                             65603600CAXIAS              MACOND. MOTOC/MOTON./CICLOM TRANSPORTANDO/PASSAG.S/C244 * II           00000000070481   000029347007572019112020200103319036671250910000002347785660000002534770332030412007574419903667125091200000000000  000   26    00070425060379270481PASSAGEIRO
2100000000466020191119207570PREF. DE: MA - CAXIAS                   CXA0076995201909101450RUA MENINO DEUS                                             PSQ3551MA123611-SAMTHONDA/CG 160 FAN ESDI                        PARTICULAR                    MOTOCICLETA     PRETA     00000000JAYNARA ELLEN SILVA ALENCAR                 RUA AROEIRA NR. 158                     OLHO DAGUA - CENTRO                     65602270CAXIAS              MACOND. MOTOC/MOTON./CICLOM TRANSPORTANDO/PASSAG.S/C244 * II           00000000070481   000029347007572019112020200103319036671251790000002347785690000002234770332030412007574419903667125179500000000000  000   27    00070425060637670481PASSAGEIRO
2100000000466020191119207570PREF. DE: MA - CAXIAS                   CXA0076524201909101645AV LUIS SALES                                               PTK8361MA123611-SAMTHONDA/POP 110I                               PARTICULAR                    MOTOCICLETA     VERMELHA  00000000MANOEL FRANCISCO MATOS                      R. PROF MARINALVA SOARES NR. N-14       - ITAPECURUZINHO                        65607730CAXIAS              MACOND. MOTOC/MOTON./CICLOM TRANSPORTANDO/PASSAG.S/C244 * II           00000000070481   000029347007572019112020200103319036671252560000002347785650000002634770332030412007574419903667125256100000000000  000   28    00070425060723270481PASSAGEIRO
2100000000466020191119207570PREF. DE: MA - CAXIAS                   CXA0076523201909101645AV LUIS SALES                                               PSM1035MA123611-SAMTHONDA/BIZ 125 EX                             PARTICULAR                    MOTONETA        VERMELHA  00000000GEISIELE ALMEIDA DA SILVA                   TV III NOVA VIDA NR. 112                - ITAPECURUZINHO                        65606807CAXIAS              MACOND. MOTOCICLETA/MOTONETA/CICLOM S/CAPACETE DE SE244 * I            00000000070301   000029347007572019112020200103319036671253330000002347785690000002234770332030412007574719203667125333800000000000  000   29    00070425060756970301PASSAGEIRO
2100000000466020191119207570PREF. DE: MA - CAXIAS                   CXA0076522201909101635AV LUIS SALES                                               OJL2907MA123611-SAMTHONDA/BIZ 100 ES                             PARTICULAR                    MOTONETA        VERMELHA  00000000REGINA CELIA SILVA COELHO                   R.PORTO POLVORA NR. 69                  - CANGALHEIRO                           65600000CAXIAS              MACOND. MOTOCICLETA/MOTONETA/CICLOM S/CAPACETE DE SE244 * I            00000000070301   000029347007572019112020200103319036671254100000002347785650000002634770332030412007574719203667125410400000000000  000   30    00070425060790970301PASSAGEIRO
2100000000466020191119207570PREF. DE: MA - CAXIAS                   CXA0076521201909101630AV LUIS SALES                                               PSL4326MA123611-SAMTHONDA/POP100                                 PARTICULAR                    MOTOCICLETA     VERMELHA  00000000RITA BEZERRA DE SOUSA RAMOS                 RUA CASTELO BRANCO NR. 736              - CAMPO DE BELEM                        65609130CAXIAS              MACOND. MOTOC/MOTON./CICLOM TRANSPORTANDO/PASSAG.S/C244 * II           00000000070481   000029347007572019112020200103319036671255080000002347785690000002234770332030412007574419903667125508500000000000  000   31    00070425060825570481PASSAGEIRO
2100000000466020191119207570PREF. DE: MA - CAXIAS                   CXA0076520201909101630AV LUIS SALES                                               PSY3191MA123611-SAMTHONDA/NXR160 BROS ESDD                       PARTICULAR                    MOTOCICLETA     AZUL      00000000DYANATHA CRISTINA ALMADA MACHADO            RUA PEDREIRAS NR. 1132                  - VILA LOBAO                            65605550CAXIAS              MACOND. MOTOC/MOTON./CICLOM TRANSPORTANDO/PASSAG.S/C244 * II           00000000070481   000029347007572019112020200103319036671256850000002347785650000002634770332030412007574419903667125685100000000000  000   32    00070425060920070481PASSAGEIRO
2100000000466020191119207570PREF. DE: MA - CAXIAS                   CXA0076519201909101630AV LUIS SALES                                               PSD2229MA123611-SAMTHONDA/POP100                                 PARTICULAR                    MOTOCICLETA     PRETA     00000000ALMIR DA CONCEICAO MAGALHAES                RUA EDSON LOBAO QD 18 NR. 227           - MUTIRAO                               65604885CAXIAS              MACOND. MOTOC/MOTON./CICLOM TRANSPORTANDO/PASSAG.S/C244 * II           00000000070481   000029347007572019112020200103319036671257620000002347785620000002934770332030412007574419903667125762800000000000  000   33    00070425061060870481PASSAGEIRO
2100000000466020191119207570PREF. DE: MA - CAXIAS                   CXA0076700201909100934RUA GUSTAVO COLACO                                          PSZ8920MA305941-SAMTHONDA/NXR 160 BROS                           PARTICULAR                    MOTOCICLETA     BRANCA    00000000DAIANA PAULA DA SILVA                       RUA DA IGREJA NR. 1535                  - VILA SAO JOSE                         65606787CAXIAS              MAESTACIONAR EM DESACORDO C/REGULAM-VAGA DE CARGA/DE181 * XVII         00000000055414   000019523007572019112020200103319036671258400000001561885620000001156180332030912007574419903667125840200000000000  000   34    00050425061153155414PASSAGEIRO
2100000000466020191119207570PREF. DE: MA - CAXIAS                   CXA0076726201909110900UEMA                                                        NWZ4377MA305941-SAMTHONDA/NXR150 BROS KS                         PARTICULAR                    MOTOCICLETA     VERMELHA  00000000JOSE ANTONIO DOS S RODRIGUES                2 TRAV BEIJAMIM CONSTANT NR. 2138       - NOVA CAXIAS                           65604280CAXIAS              MAESTAC. EM DESACORDO C/ A REGULAMENTACAO ESPECIFICA181 * XVII         00000000055411   000019523007572019112020200103319036671259270000001561885670000001656180332030912007574419903667125927700000000000  000   35    00050425061222855411PASSAGEIRO
2100000000466020191119207570PREF. DE: MA - CAXIAS                   CXA0076530201909111445RUA MENINO DEUS                                             OXT4797MA123611-SAMTYAMAHA/XTZ150 CROSSER E                      PARTICULAR                    MOTOCICLETA     BRANCA    00000000ISABEL SILVA DE SOUSA                       RUA SIQUEIRA CAMPOS NR. 426             - OLHO DAGUA                            65600000CAXIAS              MACOND. MOTOC/MOTON./CICLOM TRANSPORTANDO/PASSAG.S/C244 * II           00000000070481   000029347007572019112020200103319036671260680000002347785630000002834770332030412007574419903667126068900000000000  000   36    00070425061299670481PASSAGEIRO
2100000000466020191119207570PREF. DE: MA - CAXIAS                   CXA0076526201909111355PCA DO PANTHEON                                             NHC6517MA123611-SAMTYAMAHA/YBR 125K                              PARTICULAR                    MOTOCICLETA     VERDE     00000000PAULO CESAR DOS SANTOS ALMEIDA              TV LUIS ROCHA NR. 1835                  - MUTIRAO                               65604430CAXIAS              MACOND. MOTOC/MOTON./CICLOM TRANSPORTANDO/PASSAG.S/C244 * II           00000000070481   000029347007572019112020200103319036671261450000002347785690000002234770332030412007574419903667126145500000000000  000   37    00070425061327570481PASSAGEIRO
2100000000466020191119207570PREF. DE: MA - CAXIAS                   CXA0076727201909110953AV RODRIGUES OTAVIO                                         PSD7636MA305941-SAMTHONDA/BIZ 125 ES                             PARTICULAR                    MOTONETA        PRETA     00000000ALCIONEIDE DE ASSIS P SOARES                BECO DO GALO NR. 476                    - CENTRO                                65600240CAXIAS              MATRANSIT. P/ CONTRAMAO EM VIAS C/ SENT. UNICO      186 * II           00000000057380   000029347007572019112020200103319036671262220000002347785660000002534770332030412007574419903667126222200000000000  000   38    00070425061387957380PASSAGEIRO
2100000000466020191119207570PREF. DE: MA - CAXIAS                   CXA0076527201909111405RUA MENINO DEUS                                             HQB2354MA123611-SAMTHONDA/BIZ 125 ES                             PARTICULAR                    MOTONETA        AZUL      00000000GEOVANIO DA SILVA                           RUA SIQUEIRA CAMPOS NR. 88              - OLHO D'AGUA                           65600000CAXIAS              MACOND. MOTOC/MOTON./CICLOM TRANSPORTANDO/PASSAG.S/C244 * II           00000000070481   000029347007572019112020200103319036671263000000002347785600000002134770332030412007574419903667126300600000000000  000   39    00070425061413170481PASSAGEIRO
2100000000466020191119207570PREF. DE: MA - CAXIAS                   CXA0076529201909111440RUA MENINO DEUS                                             OJN0687MA123611-SAMTHONDA/POP100                                 PARTICULAR                    MOTOCICLETA     PRETA     00000000MARIA JANETE BRITO REGO                     RUA SANTO ANTONIO NR. 1256              - CAMPO DE BELEM                        65600000CAXIAS              MACOND. MOTOC/MOTON./CICLOM TRANSPORTANDO/PASSAG.S/C244 * II           00000000070481   000029347007572019112020200103319036671264970000002347785640000002734770332030412007574419903667126497000000000000  000   40    00070425061499970481PASSAGEIRO
2100000000466020191119207570PREF. DE: MA - CAXIAS                   CXA0076531201909111445RUA MENINO DEUS                                             PTB5589MA123611-SAMTHONDA/NXR160 BROS ESDD                       PARTICULAR                    MOTOCICLETA     VERMELHA  00000000ELDEMIR MARTINS DE SOUSA                    II TRAV DAS FLORES NR. 1050             - SERIEMA                               65602561CAXIAS              MACOND. MOTOC/MOTON./CICLOM TRANSPORTANDO/PASSAG.S/C244 * II           00000000070481   000029347007572019112020200103319036671265740000002347785600000002134770332030412007574419903667126574600000000000  000   41    00070425062148070481PASSAGEIRO
2100000000466020191119207570PREF. DE: MA - CAXIAS                   CXA0076534201909111500RUA MENINO DEUS                                             OJK5648MA123611-SAMTHONDA/POP100                                 PARTICULAR                    MOTOCICLETA     PRETA     00000000JOSE DE RIBAMAR DA SILVA                    TRAV SAO JOSE II NR. 180                - TRIZIDELA                             65600000CAXIAS              MACOND. MOTOC/MOTON./CICLOM TRANSPORTANDO/PASSAG.S/C244 * II           00000000070481   000029347007572019112020200103319036671266510000002347785660000002534770332030412007574419903667126651200000000000  000   42    00070425062203770481PASSAGEIRO
2100000000466020191119207570PREF. DE: MA - CAXIAS                   CXA0076538201909111610AV LUIS SALES                                               PSK3265MA123611-SAMTHONDA/BIZ 125 ES                             PARTICULAR                    MOTONETA        PRETA     00000000JACIARA DA CONCEICAO GUIMARAES              AV BENJAMIM CONSTANT NR. 1764           - NOVA CAXIAS                           65604260CAXIAS              MACOND. MOTOC/MOTON./CICLOM TRANSPORTANDO/PASSAG.S/C244 * II           00000000070481   000029347007572019112020200103319036671267390000002347785690000002234770332030412007574419903667126739500000000000  000   43    00070425062229070481PASSAGEIRO
2100000000466020191119207570PREF. DE: MA - CAXIAS                   CXA0076213201909280211AV NEREU BITTENCOURT                                        OIU9680MA1685163PMMAVW/POLO SEDAN 1.6 COMFOR                     PARTICULAR                    AUTOMOVEL       BRANCA    00000000RICARDO SANTOS PEREIRA                      RUA 7 DE SETEMBRO NR. SN                - CENTRO                                65610000ALDEIAS ALTAS       MAUSAR EQUIP.SOM EM VOLUME/FREQ. NAO AUTORIZADO PELO228                00000000065300   000019523007572019112020200103319036671268160000001561885600000001356180332030912007574519603667126816105837214914MA000   44    00050425064975065300PASSAGEIRO
3000043000000000043
