1*NIPI209610201912230038152019122300000000000000
2100000000381520191223209610PREF. DE: MA - ACAILANDIA               ACA0032049201910180929AV.DORGIVAL P. SOUSA, CENTRO                                PSK6934MA4445       HONDA/POP 110I                               PARTICULAR                    MOTOCICLETA     PRETA     00000000MARIA SUELDE SANTANA CABRAL                 QD 03 NR. LT 06                         RES MONTE SINAI - VILA ILDEMAR          65930000ACAILANDIA          MAESTACIONAR NO PASSEIO                             181 * VIII         00000000054521   000019523009612019122420200206319036715947130000001561885630000001056180332060622009614419503671594713500000000000  000   2     00050431483318154521PASSAGEIRO
2100000000381520191223209610PREF. DE: MA - ACAILANDIA               ACA0032050201910180931AV.DORGIVAL P. SOUSA, CENTRO                                PTC2735MA4445       HONDA/NXR160 BROS ESDD                       PARTICULAR                    MOTOCICLETA     AZUL      00000000ALLAN SANTOS DA SILVA                       RUA DOM PEDRO I NR. N 67                - JACU                                  65930000ACAILANDIA          MAAVANCAR SINAL VERMELHO DO SEMAFORO                208                00000000060501   000029347009612019122420200206319036715948000000002347785620000002934770332060122009614419503671594800000000000000  000   3     00070431493082960501PASSAGEIRO
2100000000381520191223209610PREF. DE: MA - ACAILANDIA               ACA0032326201910240841R.RIO GRANDE C/R. DORGIVAL                                  PTL3337MA4445       VW/FOX CONNECT MB                            ALUGUEL                       AUTOMOVEL       BRANCA    00000000JOSE VIEIRA DA SILVA                        QD 56 NR NR. N 146                      - VL ILDEMAR                            65930000ACAILANDIA          MAAVANCAR SINAL VERMELHO DO SEMAFORO                208                00000000060501   000029347009612019122420200206319036715949880000002347785650000002634770332060122009614419503671594988300000000000  000   4     00070431493288060501PASSAGEIRO
2100000000381520191223209610PREF. DE: MA - ACAILANDIA               ACA0032327201910241040AV.TACITO CALDAS N.123, CENTRO                              OTS5132MA4445       I/TOYOTA HILUX CD4X4 SRV                     PARTICULAR                    CAMINHONETE     BRANCA    00000000VALQUIRIA LUZIA BRITO DA SILVA              RUA BOA VSITA NR. NR 64                 - JACU                                  65930000ACAILANDIA          MAESTACIONAR AO LADO DE OUTRO VEICULO EM FILA DUPLA 181 * XI           00000000054870   000019523009612019122420200206319036715950190000001561885640000001956180332060622009614419503671595019600000000000  000   5     00050431493566954870ESPECIAL
2100000000381520191223209610PREF. DE: MA - ACAILANDIA               ACA0032328201910301033AV.DORGIVAL P. SOUSA N.1062                                 PTC0825MA4445       HONDA/CG 160 FAN                             PARTICULAR                    MOTOCICLETA     PRETA     00000000ARIELLY KARINY A DO NASCIMENTO              R TOCANTINS N 107 NR.                   - JD AMERICA                            65930000ACAILANDIA          MAESTAC. EM LOCAL/HORARIO PROIBIDO ESPECIFIC. P/SINA181*XVIII          00000000055500   000013016009612019122420200206319036715951060000001041285680000001504120332060522009614419503671595106100000000000  000   6     00040431496797855500PASSAGEIRO
2100000000381520191223209610PREF. DE: MA - ACAILANDIA               ACA0032329201910301136R.DORGIVAL P. SOUSA, CENTRO                                 OFL4258MA4445       I/VW SPACECROSS GII                          PARTICULAR                    AUTOMOVEL       PRATA     00000000GILMAR SIVAROL                              RUA LOCAL 14 NR. CS 06                  QD 34 - JACU                            65930000ACAILANDIA          MAESTAC. EM LOCAL/HORARIO PROIBIDO ESPECIFIC. P/SINA181*XVIII          00000000055500   000013016009612019122420200206319036715952830000001041285650000001804120332060522009614419503671595283800000000000  000   7     00040431500697155500PASSAGEIRO
2100000000381520191223209610PREF. DE: MA - ACAILANDIA               ACA0032330201910311057AV.DORGIVAL P. SOUSA, CENTRO                                QOC8985MA4445       VW/NOVO GOL TL MBV                           PARTICULAR                    AUTOMOVEL       PRATA     00000000BONATTO COM E LOCADORA LTDA                 AV SANTA LUZIA NR. NR110                QD001 LT 246 - CENTRO                   65930000ACAILANDIA          MATRANSIT. P/ CONTRAMAO EM VIAS C/ SENT. UNICO      186 * II           00000000057380   000029347009612019122420200206319036715953600000002347785660000002534770332060122009614419503671595360400000000000  000   8     00070431505947157380PASSAGEIRO
2100000000381520191223209610PREF. DE: MA - ACAILANDIA               ACA0032601201911010940R.SAO LUIS C/R.BONAIRE, CENTRO                              PSF4808MA3095       HONDA/CG150 START                            PARTICULAR                    MOTOCICLETA     PRETA     00000000FRANCISCA LUCIENE DA SILVA                  RUA 43 QUADRA 16 NR. 09                 - JARDIM DE AULIDIA                     65930000ACAILANDIA          MAAVANCAR SINAL VERMELHO DO SEMAFORO                208                00000000060501   000029347009612019122420200206319036715954480000002347785690000002234770332060122009614419503671595448700000000000  000   9     00070431506521860501PASSAGEIRO
2100000000381520191223209610PREF. DE: MA - ACAILANDIA               ACA0032387201910291433RUA BONAIRE N.153, CENTRO                                   OTZ2273MA3088       TOYOTA/COROLLA XEI20FLEX                     PARTICULAR                    AUTOMOVEL       CINZA     00000000NORIVALDA NEVES ANDRADE                     AV SANTA LUZIA NR. SN                   - CENTRO                                65930000ACAILANDIA          MADIR.VEIC. UTILIZANDO-SE DE TELEFONE CELULAR       252 * VI           00000000073662   000013016009612019122420200206319036715955250000001041285660000001704120332060522009614719803671595525200000000000  000   10    00040431506595173662PASSAGEIRO
2100000000381520191223209610PREF. DE: MA - ACAILANDIA               ACA0032386201910291420RUA BONAIRE N.153, CENTRO                                   PSO5059MA3088       HONDA/CG 160 FAN ESDI                        PARTICULAR                    MOTOCICLETA     PRETA     00000000LUIS FILLIPE PASSOS DE ALMEIDA              RUA GOIAS NR. N1710                     - CENTRO                                65930000ACAILANDIA          MAESTAC. EM LOCAL/HORARIO PROIBIDO ESPECIFIC. P/SINA181*XVIII          00000000055500   000013016009612019122420200206319036715956020000001041285660000001704120332060522009614419503671595602900000000000  000   11    00040431506615055500PASSAGEIRO
2100000000381520191223209610PREF. DE: MA - ACAILANDIA               ACA0032360201910311508R.DUQUE DE CAXIAS N.830, CENTR                              NNF2404MA3110       GM/CELTA 4P LIFE                             PARTICULAR                    AUTOMOVEL       PRETA     00000000PAULO SERGIO SOUSA MATOS                    RUA 13 DE JUMBO NR. N 992               QUADRA 22 - LARANJEIRAS                 65930000ACAILANDIA          MATRANSIT. P/ CONTRAMAO EM VIAS C/ SENT. UNICO      186 * II           00000000057380   000029347009612019122420200206319036715957900000002347785640000002734770332060122009614419503671595790200000000000  000   12    00070431506729657380PASSAGEIRO
2100000000381520191223209610PREF. DE: MA - ACAILANDIA               ACA0032359201910311507RUA CEARA N.499, CENTRO                                     EMD6321MA3110       TOYOTA/COROLLA GLI18FLEX                     PARTICULAR                    AUTOMOVEL       PRETA     00000000BRUNO TEODORO VILARINO                      RUA SAO FCO NR. N 812                   - CENTRO                                65930000ACAILANDIA          MAESTAC. EM LOCAL/HORARIO PROIBIDO ESPECIFIC. P/SINA181*XVIII          00000000055500   000013016009612019122420200206319036715958770000001041285640000001904120332060522009614419503671595877700000000000  000   13    00040431506811055500PASSAGEIRO
2100000000381520191223209610PREF. DE: MA - ACAILANDIA               ACA0032358201910311500R.SAO FRANCISCO C/R.MARANHAO                                NHC8310MA3110       HONDA/BIZ 125 ES                             PARTICULAR                    MOTONETA        VERMELHA  00000000IVANETE OLIVEIRA DE MACEDO                  RUA SAO PAULO NR. NR 53                 - CENTRO                                65930000ACAILANDIA          MAAVANCAR SINAL VERMELHO DO SEMAFORO                208                00000000060501   000029347009612019122420200206319036715959540000002347785660000002534770332060122009614419503671595954400000000000  000   14    00070431506850060501PASSAGEIRO
2100000000381520191223209610PREF. DE: MA - ACAILANDIA               ACA0032436201910311155RUA BONAIRE, CENTRO                                         PTG5915MA3165       VW/GOL 1.6L MB5                              ALUGUEL                       AUTOMOVEL       PRATA     00000000JOSE CARLOS VIEIRA                          RUA PRIMEIRO DE MAIO NR.                - CENTRO                                65393000BURITICUPU          MADEIXAR O CONDUTOR DE USAR O CINTO E SEGURANCA     167                00000000051851   000019523009612019122420200206319036715960950000001561885600000001356180332060622009614719803671596095504499692057MA000   15    00050431508380151851PASSAGEIRO
2100000000381520191223209610PREF. DE: MA - ACAILANDIA               ACA0032435201910311055AV.DORGIVAL N.23, CENTRO                                    OIW5042MA3165       FIAT/UNO SPORTING 1.4                        ALUGUEL                       AUTOMOVEL       PRATA     00000000EUDIMARQUES OLIVEIRA DA SILVA               BR 010 KL 03 NR. SN                     - CENTRO                                65921000CIDELANDIA          MAESTACIONAR AO LADO DE OUTRO VEICULO EM FILA DUPLA 181 * XI           00000000054870   000019523009612019122420200206319036715961720000001561885600000001356180332060622009614419503671596172200000000000  000   16    00050431508583954870PASSAGEIRO
2100000000381520191223209610PREF. DE: MA - ACAILANDIA               ACA0032310201910311644R.DORGIVAL FRT.BRADESCO                                     PTP3101MA3179       FORD/KA SE 1.0 HA C                          PARTICULAR                    AUTOMOVEL       BRANCA    00000000MARIA RODRIGUES DA SILVA                    R CARLOS AMORIM NR. 68                  - TRECHO SECO                           65929000SAO FCO. DO BREJAO  MAESTACIONAR SOBRE FAIXA DESTINADA A PEDESTRE       181 * VIII         00000000054522   000019523009612019122420200206319036715962500000001561885640000001956180332060622009614419503671596250600000000000  000   17    00050431508846354522PASSAGEIRO
2100000000381520191223209610PREF. DE: MA - ACAILANDIA               ACA0032311201911011426R.SAO FRANCISCO N.660, CENTRO                               NMY9097MA3179       RENAULT/LOGAN EXP 1016V                      PARTICULAR                    AUTOMOVEL       PRATA     00000000EDNALVA BATISTA DE SOUZA                    RUA D NR. 5                             QD 7 - JARDIM DE ALAH                   65930000ACAILANDIA          MAAVANCAR SINAL VERMELHO DO SEMAFORO                208                00000000060501   000029347009612019122420200206319036715963370000002347785630000002834770332060122009614419503671596337100000000000  000   18    00070431508884660501PASSAGEIRO
2100000000381520191223209610PREF. DE: MA - ACAILANDIA               ACA0032313201911011502AV.TACITOM CALDAS, PX.OUZADIA                               QKD5555MA3179       CHEVROLET/ONIX 1.0MT LT                      PARTICULAR                    AUTOMOVEL       BRANCA    00000000EVANDRO SENA CARVALHO                       RUA VENEZUELA NR. NR28                  QD 41 - RES TROPICAL                    65930000ACAILANDIA          MAENT./SAIR DE FILAS DE VEIC. EST. S/DAR PREFER. A P217                00000000062030   000013016009612019122420200206319036715964140000001041285650000001804120332060522009614419503671596414800000000000  000   19    00040431508945162030PASSAGEIRO
2100000000381520191223209610PREF. DE: MA - ACAILANDIA               ACA0032314201911011533AV.TACITO CALDAS N.112, CENTRO                              PSI0835MA3179       VW/SAVEIRO CD HL MB                          PARTICULAR                    CAMINHONETE     BRANCA    00000000COMFER COM DE FERRAGENS LTDA ME             RUA DORGIVAL P DE SOUSA NR. 1392        - CENTRO                                65930000ACAILANDIA          MAESTACIONAR NA CONTRAMAO DE DIRECAO                181 * XV           00000000055250   000013016009612019122420200206319036715965010000001041285690000001404120332060522009614419503671596501200000000000  000   20    00040431508994055250ESPECIAL
2100000000381520191223209610PREF. DE: MA - ACAILANDIA               ACA0032389201911011120R.RIO GRANDE N.41, CENTRO                                   PTI7202MA3088       HONDA/NXR160 BROS ESDD                       PARTICULAR                    MOTOCICLETA     BRANCA    00000000JOSEILSON ROCHA DE BRITO                    RUA BAHIA NR. NR933                     - LARANJEIRAS                           65930000ACAILANDIA          MATRANSPOR BLOQUEIO VIARIO C/S SINALIZACAO OU DISP/A209                00000000060681   000019523009612019122420200206319036715966890000001561885600000001356180332060622009614719803671596689506492600430MA000   21    00050431509225860681PASSAGEIRO
2100000000381520191223209610PREF. DE: MA - ACAILANDIA               ACA0032391201911011200R.RIO GRANDE N.41, CENTRO                                   PSI8678MA3088       HONDA/NXR160 BROS ESD                        PARTICULAR                    MOTOCICLETA     PRETA     00000000THIAGO SILVA BANDEIRA                       R CASTELO BRANCO NR. N1194              - CENTRO                                65930000ACAILANDIA          MATRANSPOR BLOQUEIO VIARIO C/S SINALIZACAO OU DISP/A209                00000000060681   000019523009612019122420200206319036715967660000001561885660000001756180332060622009614719803671596766100000000000  000   22    00050431509314960681PASSAGEIRO
2100000000381520191223209610PREF. DE: MA - ACAILANDIA               ACA0032392201911011500AV.TACITO CALDAS, CENTRO                                    PTH1495MA3088       TOYOTA/YARIS HB XLPLUSAT                     PARTICULAR                    AUTOMOVEL       PRATA     00000000GIDEAO GRANGEIRO SILVA                      RUA CEL MANOEL BANDEIRA NR. 200         APT 16 - CENTRO                         65919555IMPERATRIZ          MAESTACIONAR NA CONTRAMAO DE DIRECAO                181 * XV           00000000055250   000013016009612019122420200206319036715968430000001041285650000001804120332060522009614419503671596843800000000000  000   23    00040431509435855250PASSAGEIRO
2100000000381520191223209610PREF. DE: MA - ACAILANDIA               ACA0032557201911010737RUA BONAIRE, CENTRO                                         HQB1230MA3157       JTA/SUZUKI EN125 YES                         PARTICULAR                    MOTOCICLETA     VERMELHA  00000000MARIA CICERA NOBRE SANTOS                   QUADRA 104 NR. N 240                    - VL ILDEMAR                            65930000ACAILANDIA          MATRANSIT. P/ CONTRAMAO EM VIAS C/ SENT. UNICO      186 * II           00000000057380   000029347009612019122420200206319036715969200000002347785660000002534770332060122009614419503671596920400000000000  000   24    00070431509591557380PASSAGEIRO
2100000000381520191223209610PREF. DE: MA - ACAILANDIA               ACA0032558201911010750RUA SAO LUIS, CENTRO                                        PST9507MA3157       HONDA/CG 160 FAN ESDI                        ALUGUEL                       MOTOCICLETA     AMARELA   00000000ROBERIO DE JESUS DA CONCEICAO               QD 07 NR. 29                            - CJ JOAO PAULO                         65930000ACAILANDIA          MAAVANCAR SINAL VERMELHO DO SEMAFORO                208                00000000060501   000029347009612019122420200206319036686168770000002347785600000002134770332060122009614419503668616877800000000000  000   25    00070431509895760501PASSAGEIRO
2100000000381520191223209610PREF. DE: MA - ACAILANDIA               ACA0032560201911010756RUA SAO LUIS, CENTRO                                        OXV3872MA3157       VW/UP HIGH MA                                PARTICULAR                    AUTOMOVEL       PRATA     00000000IVONETE DOMINGAS MARQUES ALMEIDA            RUA JOSE MURTA N 521 NR.                - ALEMANHA                              65036190SAO LUIS            MAAVANCAR SINAL VERMELHO DO SEMAFORO                208                00000000060501   000029347009612019122420200206319036692593670000002347785620000002934770332060122009614419503669259367000000000000  000   26    00070431510136260501PASSAGEIRO
2100000000381520191223209610PREF. DE: MA - ACAILANDIA               ACA0032561201911010800RUA SAO LUIS, CENTRO                                        PSV7065MA3157       FIAT/SIENA ATTRACTIV 1.4                     ALUGUEL                       AUTOMOVEL       BRANCA    00000000MARIA DERONILDE DOS S TAVEIRA               AV SETE DE SETEMBRO NR. 614             - CENTRO                                65395000BOM JESUS DAS SELVASMAAVANCAR SINAL VERMELHO DO SEMAFORO                208                00000000060501   000029347009612019122420200206319036715970610000002347785680000002334770332060122009614419503671597061600000000000  000   27    00070431510192360501PASSAGEIRO
2100000000381520191223209610PREF. DE: MA - ACAILANDIA               ACA0032562201911010803RUA SAO LUIS, CENTRO                                        PSV4949MA3157       HONDA/CG 125I FAN                            PARTICULAR                    MOTOCICLETA     VERMELHA  00000000DOMINGAS DOS SANTOS COSTA                   RUA MARIA DAVI NR. 214                  - VL MARCONY                            65300000SANTA INES          MAAVANCAR SINAL VERMELHO DO SEMAFORO                208                00000000060501   000029347009612019122420200206319036715971490000002347785610000002034770332060122009614419503671597149900000000000  000   28    00070431510354360501PASSAGEIRO
2100000000381520191223209610PREF. DE: MA - ACAILANDIA               ACA0032563201911010840RUA SAO LUIS, CENTRO                                        NXC4922MA3157       HONDA/BIZ 125 ES                             PARTICULAR                    MOTONETA        ROSA      00000000GEZIEL RIBEIRO ARAUJO                       RUA ESMERALDA NR.                       NR 203 - VL S FRANCISCO                 65930000ACAILANDIA          MAAVANCAR SINAL VERMELHO DO SEMAFORO                208                00000000060501   000029347009612019122420200206319036715972260000002347785670000002434770332060122009614419503671597226500000000000  000   29    00070431510568660501PASSAGEIRO
2100000000381520191223209610PREF. DE: MA - ACAILANDIA               ACA0032564201911010831RUA SAO LUIS, CENTRO                                        OXR8231MA3157       HONDA/BIZ 125 EX                             PARTICULAR                    MOTONETA        BRANCA    00000000FERNANDA SOARES VIANA                       R LAMANTE JUNIOR NR. 300                - VL MARANHAO                           65930000ACAILANDIA          MAAVANCAR SINAL VERMELHO DO SEMAFORO                208                00000000060501   000029347009612019122420200206319036715973030000002347785640000002734770332060122009614419503671597303200000000000  000   30    00070431510821960501PASSAGEIRO
2100000000381520191223209610PREF. DE: MA - ACAILANDIA               ACA0032565201911010839RUA SAO LUIS, CENTRO                                        PTG1138MA3157       HONDA/POP 110I                               PARTICULAR                    MOTOCICLETA     VERMELHA  00000000DIEGO BARBOSA SILVA                         RUA 02 NR. NR 05                        - 50 BIS                                65930000ACAILANDIA          MAAVANCAR SINAL VERMELHO DO SEMAFORO                208                00000000060501   000029347009612019122420200206319036715974900000002347785690000002234770332060122009614419503671597490700000000000  000   31    00070431511004360501PASSAGEIRO
2100000000381520191223209610PREF. DE: MA - ACAILANDIA               ACA0032566201911010856RUA SAO LUIS, CENTRO                                        OIX4236MA3157       I/FORD FIESTA SE HA                          PARTICULAR                    AUTOMOVEL       PRETA     00000000CARLOS ALBERTO DA SILVA SULEIMAN            ROD BR 222 KM 0718 NR.                  - PLANO DA SERRA                        65930000ACAILANDIA          MADIR.VEIC. UTILIZANDO-SE DE TELEFONE CELULAR       252 * VI           00000000073662   000013016009612019122420200206319036715975780000001041285630000001004120332060522009614719803671597578900000000000  000   32    00040431511120173662PASSAGEIRO
2100000000381520191223209610PREF. DE: MA - ACAILANDIA               ACA0032567201911010857RUA SAO LUIS, CENTRO                                        PSP2954MA3157       HONDA/BIZ 110I                               PARTICULAR                    MOTONETA        VERMELHA  00000000ANTONIA SIRLENE DA C SILVA                  RUA VALE DO RIO DOCE NR. 01             QD 17 - PLANO DA SERRA                  65930000ACAILANDIA          MAAVANCAR SINAL VERMELHO DO SEMAFORO                208                00000000060501   000029347009612019122420200206319036715976550000002347785670000002434770332060122009614419503671597655505806268144  000   33    00070431511347660501PASSAGEIRO
2100000000381520191223209610PREF. DE: MA - ACAILANDIA               ACA0032569201911011005RUA SAO LUIS, CENTRO                                        NXM8956MA3157       FIAT/PALIO FIRE ECONOMY                      PARTICULAR                    AUTOMOVEL       PRATA     00000000CLEIA SANTOS GONCALVES                      RUA NILO DE SOUSA NR. NR12              - VL BOM JARDIM                         65930000ACAILANDIA          MAAVANCAR SINAL VERMELHO DO SEMAFORO                208                00000000060501   000029347009612019122420200206319036715977320000002347785640000002734770332060122009614419503671597732200000000000  000   34    00070431511624660501PASSAGEIRO
2100000000381520191223209610PREF. DE: MA - ACAILANDIA               ACA0032571201911011013RUA SAO LUIS, CENTRO                                        OXR0757MA3157       HONDA/CG 125 FAN ESD                         PARTICULAR                    MOTOCICLETA     VERMELHA  00000000JOSE NUNES DA SILVA                         RUA DOM PEDRO I NR. N 38                - JACU                                  65930000ACAILANDIA          MAAVANCAR SINAL VERMELHO DO SEMAFORO                208                00000000060501   000029347009612019122420200206319036715978100000002347785680000002334770332060122009614419503671597810600000000000  000   35    00070431512014660501PASSAGEIRO
2100000000381520191223209610PREF. DE: MA - ACAILANDIA               ACA0032572201911011014RUA SAO LUIS, CENTRO                                        OXU8827MA3157       I/TOYOTA RAV4 20L 4X4                        PARTICULAR                    CAMIONETA       CINZA     00000000JOAO LEAO ROSA                              RUA GOIAS CASA 1943 NR. 1943            - GETATE                                65930000ACAILANDIA          MAAVANCAR SINAL VERMELHO DO SEMAFORO                208                00000000060501   000029347009612019122420200206319036715979070000002347785620000002934770332060122009614419503671597907000000000000  000   36    00070431512175460501MISTO
2100000000381520191223209610PREF. DE: MA - ACAILANDIA               ACA0032573201911011045RUA SAO LUIS, CENTRO                                        OJB8009MA3157       VW/FOX 1.0 GII                               PARTICULAR                    AUTOMOVEL       PRETA     00000000MARIA NILMA R COSTA DE HOLANDA              RUA FILOGONIO NR. 33                    QD 50 - BOM JARDIM                      65930000ACAILANDIA          MAAVANCAR SINAL VERMELHO DO SEMAFORO                208                00000000060501   000029347009612019122420200206319036715980380000002347785650000002634770332060122009614419503671598038300000000000  000   37    00070431512286660501PASSAGEIRO
2100000000381520191223209610PREF. DE: MA - ACAILANDIA               ACA0032575201911011109R.SAO LUIS, CENTRO                                          MWS4590MA3157       VW/GOL 1.0                                   PARTICULAR                    AUTOMOVEL       CINZA     00000000ANTONIO GRANGEIRO DA SILVA                  RUA JOSE DE ALENCAR NR. N1087           - BOM SUCESSO                           65900000IMPERATRIZ          MAAVANCAR SINAL VERMELHO DO SEMAFORO                208                00000000060501   000029347009612019122420200206319036715981150000002347785610000002034770332060122009614419503671598115900000000000  000   38    00070431512477060501PASSAGEIRO
3000037000000000037
