1*NATI209610202001170039002020011700000000000000
2000000000390020200117209610PREF. DE: MA - ACAILANDIA               ACA0032988202001151515R.DORGIVAL FRT.TEND.MODAS                                   PAZ8316MA7763       I/TOYOTA HILUX CD4X4 SRV                     PARTICULAR                    CAMINHONETE     BRANCA    00000000ELISMAYANY OLIVEIRA SILVA LIMA              RUA PARANA NR. NR121                    - VL TANCREDO                           65930000ACAILANDIA          MAESTACIONAR AO LADO DE OUTRO VEICULO EM FILA DUPLA 181 * XI           00000000054870   0000195230096120200118202003020000000000000000000000000                                                00000000000  000   1     00050447706224954870ESPECIAL
2000000000390020200117209610PREF. DE: MA - ACAILANDIA               ACA0033217202001151528R.DORGIVAL FRT.MATEUS, CENTRO                               NXE0609MA3154       FORD/KA FLEX                                 PARTICULAR                    AUTOMOVEL       AZUL      00000000JOEDSON GOMES DE OLIVEIRA                   QD 39 LT 107 NR. 107                    - VL ILDEMAR                            65930000ACAILANDIA          MAESTACIONAR AO LADO DE OUTRO VEICULO EM FILA DUPLA 181 * XI           00000000054870   0000195230096120200118202003020000000000000000000000000                                                00000000000  000   2     00050447706551554870PASSAGEIRO
2000000000390020200117209610PREF. DE: MA - ACAILANDIA               ACA0032987202001151438R.DORGIVAL N.1122, CENTRO                                   PSY7742MA7763       RENAULT/SANDERO EXPR 10                      PARTICULAR                    AUTOMOVEL       BRANCA    00000000JOAO BATISTA CORREA                         RUA QUADRA NR. 15                       LOTE 21 - COLINAS PARK                  65930000ACAILANDIA          MAESTACIONAR AO LADO DE OUTRO VEICULO EM FILA DUPLA 181 * XI           00000000054870   0000195230096120200118202003020000000000000000000000000                                                00000000000  000   3     00050447706947254870PASSAGEIRO
2000000000390020200117209610PREF. DE: MA - ACAILANDIA               ACA0032986202001131519AV.TACITO CALDAS C/R.M.SARNEY                               PTO7783MA7763       HONDA/CG 160 TITAN                           PARTICULAR                    MOTOCICLETA     VERMELHA  00000000VALDOMIRO GONCALVES DA SILVA                R GERVASIO FREITAS NR. N 40             - VL IPIRANGA                           65930000ACAILANDIA          MAAVANCAR SINAL VERMELHO DO SEMAFORO                208                00000000060501   0000293470096120200118202003020000000000000000000000000                                                00000000000  000   4     00070447712279960501PASSAGEIRO
2000000000390020200117209610PREF. DE: MA - ACAILANDIA               ACA0033006202001151638R.DORGIVAL N.954, CENTRO                                    NTA4510MA7008       VW/CROSSFOX GII                              PARTICULAR                    AUTOMOVEL       BRANCA    00000000FRANCISCO DAS CHAGAS SANTOS                 AV STA LUZIA NR. NR 71                  - PARQUE LAGOA                          65930000ACAILANDIA          MAESTACIONAR AO LADO DE OUTRO VEICULO EM FILA DUPLA 181 * XI           00000000054870   0000195230096120200118202003020000000000000000000000000                                                00000000000  000   5     00050447712684054870PASSAGEIRO
2000000000390020200117209610PREF. DE: MA - ACAILANDIA               ACA0033216202001150944AV.SANTA LUZIA C/AV.DORGIVAL                                OIW8376MA3154       MBENZ/MPOLO VIAGGIO R                        ALUGUEL                       ONIBUS          BRANCA    00000000VIACAO NOSSA SRA APARECIDA LTDA             ROD BR 010 KM01 NR. SN                  - MARANHAO NOVO                         65900000IMPERATRIZ          MAEXEC. CONVERSAO A ESQUERDA EM LOCAL PROIBIDO P/SIN207                00000000060412   0000195230096120200118202003020000000000000000000000000                                                00000000000  000   6     00050447713126760412PASSAGEIRO
2000000000390020200117209610PREF. DE: MA - ACAILANDIA               ACA0033136202001141203AV.BERNARDO SAYAO N.1715                                    KDP6377MA3165       FORD/F1000 TURBO XL                          PARTICULAR                    CAMINHONETE     VERMELHA  00000000ANANIAS SILVA VIANA                         RUA JOSE BONIFACIO NR. 439              MALHARIA FIO DE PRAT - LARANJEIRA       65930000ACAILANDIA          MAESTACIONAR AO LADO DE OUTRO VEICULO EM FILA DUPLA 181 * XI           00000000054870   0000195230096120200118202003020000000000000000000000000                                                00000000000  000   7     00050447713630754870CARGA
2000000000390020200117209610PREF. DE: MA - ACAILANDIA               ACA0033137202001150927R.SAO FRANCISCO C/R.MARANHAO                                HPO0824MA3165       HONDA/C100 BIZ ES                            PARTICULAR                    MOTONETA        AZUL      00000000MARCELINO RIBEIRO DE LIMA                   R MANOEL EUSEBIO DA COSTA NR. SN        QD 58 LT 06 A02 - NV ACAILANDIA II      65930000ACAILANDIA          MAAVANCAR SINAL VERMELHO DO SEMAFORO                208                00000000060501   0000293470096120200118202003020000000000000000000000000                                                00000000000  000   8     00070447714024060501PASSAGEIRO
2000000000390020200117209610PREF. DE: MA - ACAILANDIA               ACA0033032202001151022R.BONAIRE N.153, CENTRO                                     NNB0147MA3132       FORD/FIESTA SEDAN1.6FLEX                     PARTICULAR                    AUTOMOVEL       PRATA     00000000ADILBERTO DE CASTRO CARVALHO                QUADRA 07 NR. 16                        - VL ILDEMAR                            65930000ACAILANDIA          MAESTAC. EM LOCAL/HORARIO PROIBIDO ESPECIFIC. P/SINA181*XVIII          00000000055500   0000130160096120200118202003020000000000000000000000000                                                00000000000  000   9     00040447714824055500PASSAGEIRO
2000000000390020200117209610PREF. DE: MA - ACAILANDIA               ACA0033356202001151040RUA CEARA N.571, CENTRO                                     OJQ8769MA4445       HONDA/CG150 FAN ESDI                         PARTICULAR                    MOTOCICLETA     VERMELHA  00000000DARLYS ALMEIDA DA SILVA                     QD 21 NR. 06                            - VL BOM JARDIM                         65930000ACAILANDIA          MAESTAC. EM LOCAL/HORARIO PROIBIDO ESPECIFIC. P/SINA181*XVIII          00000000055500   0000130160096120200118202003020000000000000000000000000                                                00000000000  000   10    00040447715177255500PASSAGEIRO
2000000000390020200117209610PREF. DE: MA - ACAILANDIA               ACA0033345202001161102R.BONAIRE, CENTRO                                           PSB0673MA3157       HONDA/CG 125 FAN ES                          ALUGUEL                       MOTOCICLETA     AMARELA   00000000ANTONIO IRAN FERREIRA SOUZA                 QUADRA 217____LOTE NR. 336              PROX PANIFICADORA - VL ILDEMAR          65930000ACAILANDIA          MATRANSIT. P/ CONTRAMAO EM VIAS C/ SENT. UNICO      186 * II           00000000057380   0000293470096120200118202003020000000000000000000000000                                                00000000000  000   11    00070447717320257380PASSAGEIRO
2000000000390020200117209610PREF. DE: MA - ACAILANDIA               ACA0033346202001161036R.BOM JESUS, CENTRO                                         PST5524MA3157       HONDA/CG 160 FAN ESDI                        PARTICULAR                    MOTOCICLETA     VERMELHA  00000000FERNANDO LIMA PASSOS                        QD 104 NR. 254                          - VILA ILDEMAR                          65930000ACAILANDIA          MATRANSITAR COM O VEICULO EM CALCADAS, PASSEIOS     193                00000000058191   0000880410096120200118202003020000000000000000000000000                                                00000000000  000   12    00070447717884058191PASSAGEIRO
2000000000390020200117209610PREF. DE: MA - ACAILANDIA               ACA0033358202001161042R.BOM JESUS N.248, CENTRO                                   PSB4679MA4445       HONDA/CG 150 TITAN EX                        PARTICULAR                    MOTOCICLETA     BRANCA    00000000JOSUE MARTINS DE SOUZA                      RUA D PINHEIRO NR. 479                  - CENTRO                                65930000ACAILANDIA          MAESTAC. EM LOCAL/HORARIO PROIBIDO ESPECIFIC. P/SINA181*XVIII          00000000055500   0000130160096120200118202003020000000000000000000000000                                                00000000000  000   13    00040447718740855500PASSAGEIRO
2000000000390020200117209610PREF. DE: MA - ACAILANDIA               ACA0033360202001161034R.BOM JESUS, CENTRO                                         PST5524MA4445       HONDA/CG 160 FAN ESDI                        PARTICULAR                    MOTOCICLETA     VERMELHA  00000000FERNANDO LIMA PASSOS                        QD 104 NR. 254                          - VILA ILDEMAR                          65930000ACAILANDIA          MATRANSIT. P/ CONTRAMAO EM VIAS C/ SENT. UNICO      186 * II           00000000057380   0000293470096120200118202003020000000000000000000000000                                                00000000000  000   14    00070447724741957380PASSAGEIRO
2000000000390020200117209610PREF. DE: MA - ACAILANDIA               ACA0033289202001161215R.DORGIVAL P. SOUSA, CENTRO                                 NNG2453MA7760       HONDA/XRE 300                                PARTICULAR                    MOTOCICLETA     VERMELHA  00000000MATEUS BASSANI MENDES                       RUA DOM PEDRO 2 NR. N51                 - JACU                                  65930000ACAILANDIA          MATRANSIT. P/ CONTRAMAO EM VIAS C/ SENT. UNICO      186 * II           00000000057380   0000293470096120200118202003020000000000000000000000000                                                00000000000  000   15    00070447725480657380PASSAGEIRO
2000000000390020200117209610PREF. DE: MA - ACAILANDIA               ACA0033290202001161615R.BOM JESUS, CENTRO                                         PTJ0730MA7760       AUDI/A3 LM 150CV                             PARTICULAR                    AUTOMOVEL       VERMELHA  00000000MARCO ANTONIO MENDES PIMENTEL               AV DESEMBARGADOR NR. N 164              - CENTRO                                65930000ACAILANDIA          MATRANSIT. P/ CONTRAMAO EM VIAS C/ SENT. UNICO      186 * II           00000000057380   0000293470096120200118202003020000000000000000000000000                                                00000000000  000   16    00070447726159457380PASSAGEIRO
2000000000390020200117209610PREF. DE: MA - ACAILANDIA               ACA0032991202001161427R.SAO LUIS C/R.BONAIRE, CENTRO                              OYB4740MA7763       I/TOYOTA HILUX CD4X4 SRV                     PARTICULAR                    CAMINHONETE     BRANCA    00000000ANTONIO GONCALVES SILVA FILHO               RUA GOIAS NR. 1848                      - CENTRO                                65930000ACAILANDIA          MADIR.VEIC. UTILIZANDO-SE DE TELEFONE CELULAR       252 * VI           00000000073662   0000130160096120200118202003020000000000000000000000000                                                00000000000  000   17    00040447726970673662ESPECIAL
3000017000000000017
