1*NIPI207570201912090047042019120900000000000000
2100000000470420191209207570PREF. DE: MA - CAXIAS                   CXA0077117201909301030PCA RUI BARBOSA                                             OJL2662MA122061-SAMTYAMAHA/XTZ 125K                              PARTICULAR                    MOTOCICLETA     AZUL      00000000RAIMUNDO ALVES DE SOUSA                     R BENJAMIM CONSTANT NR. 1855            - NOVA CAXIAS                           65600010CAXIAS              MAESTAC. EM DESACORDO C/ A REGULAMENTACAO ESPECIFICA181 * XVII         00000000055411   000019523007572019121020200123319036699181560000001561885660000001756180332230512007574419903669918156000000000000  000   2     00050428712367055411PASSAGEIRO
2100000000470420191209207570PREF. DE: MA - CAXIAS                   CXA0077118201909301035AV OTAVIO PASSOS                                            NXG5704MA122061-SAMTHONDA/POP100                                 PARTICULAR                    MOTOCICLETA     PRETA     00000000BENEDITO MOREIRA DOS SANTOS                 POV ALIANCA NR. S/N                     - SANTA ROSA                            65600000CAXIAS              MAESTACIONAR EM CALCADA REBAIXADA DEST. ENTRADA/SAID181 * IX           00000000054600   000013016007572019121020200123319036699182330000001041285620000001104120332230412007574419903669918233700000000000  000   3     00040428712428654600PASSAGEIRO
2100000000470420191209207570PREF. DE: MA - CAXIAS                   CXA0077119201909301046AV OTAVIO PASSOS                                            PTC4545MA122061-SAMTHONDA/POP 110I                               PARTICULAR                    MOTOCICLETA     VERMELHA  00000000ANGELA MARIA SILVA DE SOUSA                 TV DO FIO I NR. 565                     - CANGALHEIRO                           65600010CAXIAS              MAESTAC. EM LOCAL/HORARIO PROIBIDO ESPECIFIC. P/SINA181*XVIII          00000000055500   000013016007572019121020200123319036699183100000001041285680000001504120332230412007574419903669918310300000000000  000   4     00040428712651355500PASSAGEIRO
2100000000470420191209207570PREF. DE: MA - CAXIAS                   CXA0077120201909301050AV OTAVIO PASSOS                                            NWV1386MA122061-SAMTHONDA/POP100                                 PARTICULAR                    MOTOCICLETA     PRETA     00000000ELIAS SANTOS SOBRINHO                       RUA LA PAZ QD J NR. 04                  - RESD VILA ARIAS                       65600000CAXIAS              MAESTAC. EM DESACORDO C/ A REGULAMENTACAO ESPECIFICA181 * XVII         00000000055411   000019523007572019121020200123319036699184080000001561885610000001256180332230512007574419903669918408500000000000  000   5     00050428712674255411PASSAGEIRO
2100000000470420191209207570PREF. DE: MA - CAXIAS                   CXA0077122201909301055AV OTAVIO PASSOS                                            PSS4210MA122061-SAMTHONDA/CG 125I FAN                            PARTICULAR                    MOTOCICLETA     PRETA     00000000CARMEM SANTA SILVA LIMA OLIVEIRA            RUA DUQUE DE CAXIAS NR. N-14            QD-1 RESIDENC. - VILA PARAISO           65600010CAXIAS              MAESTAC. EM DESACORDO C/ A REGULAMENTACAO ESPECIFICA181 * XVII         00000000055411   000019523007572019121020200123319036699185850000001561885660000001756180332230512007574419903669918585000000000000  000   6     00050428712703055411PASSAGEIRO
2100000000470420191209207570PREF. DE: MA - CAXIAS                   CXA0077127201910071105PCA RUI BARBOSA                                             NWZ0154MA122061-SAMTHONDA/BIZ 125 EX                             PARTICULAR                    MOTONETA        AMARELA   00000000EDNA FERREIRA PIRES                         RUA 17 QD 04 NR. 10                     - CONJ COHAB                            65604400CAXIAS              MACOND. MOTOCICLETA/MOTONETA/CICLOM S/CAPACETE DE SE244 * I            00000000070301   000029347007572019121020200123319036699186620000002347785640000002734770332230012007574719203669918662700000000000  000   7     00070428712819270301PASSAGEIRO
2100000000470420191209207570PREF. DE: MA - CAXIAS                   CXA0077123201910020850RUA QUININHA PIRES                                          PSP8452MA122061-SAMTHONDA/CG 125I FAN                            PARTICULAR                    MOTOCICLETA     PRETA     00000000JOSE ANTONIO DA CONCEICAO SOUSA             RUA 12 DE OUTUBRO NR. 8                 QD C 14 - RES VL PARAISO                65600010CAXIAS              MAESTAC. EM DESACORDO C/ A REGULAMENTACAO ESPECIFICA181 * XVII         00000000055411   000019523007572019121020200123319036699187400000001561885670000001656180332230512007574419903669918740100000000000  000   8     00050428712918055411PASSAGEIRO
2100000000470420191209207570PREF. DE: MA - CAXIAS                   CXA0077124201910020855RUA QUININHA PIRES                                          NHG3092MA122061-SAMTYAMAHA/YBR 125E                              PARTICULAR                    MOTOCICLETA     PRETA     00000000RAIMUNDA SANTOS COSTA                       TRAV SAO JOSE NR. 1878                  - CENTRO                                65600000CAXIAS              MAESTAC. EM DESACORDO C/ A REGULAMENTACAO ESPECIFICA181 * XVII         00000000055411   000019523007572019121020200123319036699188270000001561885620000001156180332230512007574419903669918827600000000000  000   9     00050428713106155411PASSAGEIRO
2100000000470420191209207570PREF. DE: MA - CAXIAS                   CXA0076896201910011545RUA GUSTAVO COLACO                                          NWT6769MA122221-SAMTHONDA/CG 125 FAN KS                          PARTICULAR                    MOTOCICLETA     VERMELHA  00000000EDUARDO FERNANDES DOS SANTOS                RUA SEGISNANDO MOURA NR. N-247          - PONTE                                 65609360CAXIAS              MAESTAC. EM DESACORDO C/ A REGULAMENTACAO ESPECIFICA181 * XVII         00000000055411   000019523007572019121020200123319036699189040000001561885690000001456180332230512007574419903669918904300000000000  000   10    00050428713363355411PASSAGEIRO
2100000000470420191209207570PREF. DE: MA - CAXIAS                   CXA0076813201910010713RUA 01 DE AGOSTO                                            OJB1100MA306461-SAMTHONDA/CG 125 FAN ES                          PARTICULAR                    MOTOCICLETA     PRETA     00000000FRANCISCO JOSE DA C COSTA                   RUA SESOSTRE PEREIRA NR. 2304           - SIRIEMA                               65600000CAXIAS              MACOND. MOTOCICLETA/MOTONETA/CICLOM S/CAPACETE DE SE244 * I            00000000070301   000029347007572019121020200123319036699190450000002347785610000002034770332230012007574719203669919045400000000000  000   11    00070428713392770301PASSAGEIRO
2100000000470420191209207570PREF. DE: MA - CAXIAS                   CXA0076815201910010821RUA RIO DE JANEIRO                                          NNC6681MA306461-SAMTYAMAHA/FACTOR YBR125 K                       PARTICULAR                    MOTOCICLETA     PRETA     00000000FABIANA MARIA SENA L DE SOUSA               RUA SATURNINO BELO NR. 3242             - SAO FRANCISCO                         65600010CAXIAS              MAESTAC. EM DESACORDO C/ A REGULAMENTACAO ESPECIFICA181 * XVII         00000000055411   000019523007572019121020200123319036699191220000001561885670000001656180332230512007574419903669919122100000000000  000   12    00050428715727355411PASSAGEIRO
2100000000470420191209207570PREF. DE: MA - CAXIAS                   CXA0076816201910010909RUA SENADOR COSTA RODRIGUES                                 NWS1633MA306461-SAMTHONDA/POP100                                 PARTICULAR                    MOTOCICLETA     PRETA     00000000MARIA GERALDA DE O ALBINO                   R MATADOURO NR. 321                     - TRIZIDELA                             65607610CAXIAS              MAESTAC. EM DESACORDO C/ A REGULAMENTACAO ESPECIFICA181 * XVII         00000000055411   000019523007572019121020200123319036699192000000001561885610000001256180332230512007574419903669919200500000000000  000   13    00050428715859855411PASSAGEIRO
2100000000470420191209207570PREF. DE: MA - CAXIAS                   CXA0076818201910011039PCA DUQUE DE CAXIAS                                         PSP9523MA306461-SAMTHONDA/BIZ 110I                               PARTICULAR                    MOTONETA        VERMELHA  00000000MARIA DAS DORES ROCHA DE JESUS              RUA 10 NR. 34                           QD 4 - COHAB                            65604400CAXIAS              MAESTAC. EM DESACORDO C/ A REGULAMENTACAO ESPECIFICA181 * XVII         00000000055411   000019523007572019121020200123319036699193970000001561885650000001856180332230512007574419903669919397900000000000  000   14    00050428715886555411PASSAGEIRO
2100000000470420191209207570PREF. DE: MA - CAXIAS                   CXA0076820201910011119TRAV DR ALFREDO BELEZA                                      PIH5121MA306461-SAMTFIAT/SIENA ATTRACTIV 1.4                     PARTICULAR                    AUTOMOVEL       PRETA     00000000JOSE NILTON DE ALBUQUERQUE MOURA            RUA SAO PAULO NR. 06                    QD C 18 - VILA PARAISO                  65600012CAXIAS              MAESTAC. VEIC. NAS ESQU. E MENOS DE 5M DO ALINHAMENT181 * I            00000000053800   000013016007572019121020200123319036699194740000001041285610000001204120332230412007574419903669919474600000000000  000   15    00040428715917953800PASSAGEIRO
2100000000470420191209207570PREF. DE: MA - CAXIAS                   CXA0077773201910011151AV GETULIO VARGAS                                           PTL8943MA306051-SAMTCHEVROLET/ONIX 1.0MT LT                      PARTICULAR                    AUTOMOVEL       PRATA     00000000IVO FERRO DA SILVA                          RUA GODOFREDO VIANA NR. 259             - TREZIDELA                             65608480CAXIAS              MAESTAC. VEIC. NAS ESQU. E MENOS DE 5M DO ALINHAMENT181 * I            00000000053800   000013016007572019121020200123319036699195510000001041285660000001704120332230412007574419903669919551100000000000  000   16    00040428716067353800PASSAGEIRO
2100000000470420191209207570PREF. DE: MA - CAXIAS                   CXA0077767201910010818RUA RIO DE JANEIRO                                          PSF9199MA306051-SAMTHONDA/POP100                                 PARTICULAR                    MOTOCICLETA     VERMELHA  00000000REGIANE ALMEIDA DA SILVA                    AV PEDREIRA NR. 15                      (RES EUGENIO COUTINH - TESO DURO        65604511CAXIAS              MAESTAC. EM DESACORDO C/ A REGULAMENTACAO ESPECIFICA181 * XVII         00000000055411   000019523007572019121020200123319036699196390000001561885600000001356180332230512007574419903669919639400000000000  000   17    00050428716125455411PASSAGEIRO
2100000000470420191209207570PREF. DE: MA - CAXIAS                   CXA0077768201910010920RUA OTAVIO PASSOS                                           KKB4447MA306051-SAMTHONDA/CG 150 TITAN ES                        PARTICULAR                    MOTOCICLETA     PRETA     00000000ADONIAS DO NASCIMENTO                       RUA SAO SEBASTIAO NR. 24                VILA CONQUISTA - PAI GERALDO            65600001CAXIAS              MAESTAC. EM DESACORDO C/ A REGULAMENTACAO ESPECIFICA181 * XVII         00000000055411   000019523007572019121020200123319036699197160000001561885660000001756180332230512007574419903669919716000000000000  000   18    00050428716145955411PASSAGEIRO
2100000000470420191209207570PREF. DE: MA - CAXIAS                   CXA0077766201910010720RUA 01 DE AGOSTO                                            PTF7221MA306051-SAMTHONDA/POP 110I                               PARTICULAR                    MOTOCICLETA     VERMELHA  00000000DANIEL MENDES DOS SANTOS REIS               II TV DO FIO NR. 777                    - CANGALHEIRO                           65606270CAXIAS              MACOND. MOTOCICLETA/MOTONETA/CICLOM S/CAPACETE DE SE244 * I            00000000070301   000029347007572019121020200123319036699198030000002347785630000002834770332230012007574719203669919803600000000000  000   19    00070428716184070301PASSAGEIRO
2100000000470420191209207570PREF. DE: MA - CAXIAS                   CXA0077386201910011515RUA MENINO DEUS                                             OJA0182MA306521-SAMTHONDA/CG 125 FAN KS                          PARTICULAR                    MOTOCICLETA     PRETA     00000000DIOGO MARCIEL DA CONCEICAO                  RUA ANTONIO G TORRES NR. 1405           - VL ARIAS                              65600000CAXIAS              MACOND. MOTOC/MOTON./CICLOM TRANSPORTANDO/PASSAG.S/C244 * II           00000000070481   000029347007572019121020200123319036699199800000002347785620000002934770332230012007574419903669919980200000000000  000   20    00070428716274970481PASSAGEIRO
2100000000470420191209207570PREF. DE: MA - CAXIAS                   CXA0077014201910011540RUA GUSTAVO COLACO                                          NHG7449MA138301-SAMTHONDA/BIZ 125 KS                             PARTICULAR                    MOTONETA        PRETA     00000000MARIZETE BITTENCOURT DOS SANTOS             TV. BERENICE CASTELO NR. N-895          F-99-3521-4412 - SALOBRO                65609600CAXIAS              MAESTAC. EM DESACORDO C/ A REGULAMENTACAO ESPECIFICA181 * XVII         00000000055411   000019523007572019121020200123319036699200530000001561885610000001256180332230512007574419903669920053500000000000  000   21    00050428716551955411PASSAGEIRO
2100000000470420191209207570PREF. DE: MA - CAXIAS                   CXA0077771201910011040PCA DUQUE DE CAXIAS                                         OIT8342MA306051-SAMTHONDA/POP100                                 PARTICULAR                    MOTOCICLETA     ROXA      00000000LILIANE DE ARAUJO SILVA                     RUA BAHIA NR. 44                        - ANTENOR VIANA                         65600000CAXIAS              MAESTAC. EM DESACORDO C/ A REGULAMENTACAO ESPECIFICA181 * XVII         00000000055411   000019523007572019121020200123319036699201300000001561885670000001656180332230512007574419903669920130100000000000  000   22    00050428716687655411PASSAGEIRO
2100000000470420191209207570PREF. DE: MA - CAXIAS                   CXA0077078201910010845AV GETULIO VARGAS                                           PSS9184MA122181-SAMTHONDA/POP 110I                               PARTICULAR                    MOTOCICLETA     PRETA     00000000TAINARA DA CUNHA RODRIGUES                  RUA SESOSTE PEREIRA NR. 2314            - SERIEMA                               65602350CAXIAS              MAAVANCAR SINAL VERMELHO DO SEMAFORO                208                00000000060501   000029347007572019121020200123319036699202180000002347785640000002734770332230012007574419903669920218400000000000  000   23    00070428716907760501PASSAGEIRO
2100000000470420191209207570PREF. DE: MA - CAXIAS                   CXA0077607201910011735AV SAO LUIZ                                                 PTF8624MA122131-SAMTHONDA/NXR160 BROS ESDD                       PARTICULAR                    MOTOCICLETA     VERMELHA  00000000ANTONIO EUFRASIO DE OLIVEIRA                RUA 21 QD-18 NR. N-08                   - COHAB                                 65604673CAXIAS              MACOND. MOTOC/MOTON./CICLOM TRANSPORTANDO/PASSAG.S/C244 * II           00000000070481   000029347007572019121020200123319036699203050000002347785690000002234770332230012007574419903669920305900000000000  000   24    00070428717003270481PASSAGEIRO
2100000000470420191209207570PREF. DE: MA - CAXIAS                   CXA0077606201910011710AV SAO LUIZ                                                 NHO9610MA122131-SAMTHONDA/POP100                                 PARTICULAR                    MOTOCICLETA     PRETA     00000000CONCEICAO DE M M DA S E SILVA               RUA 09 NR. 402                          - RES PAMPULHA                          65606872CAXIAS              MACOND. MOTOCICLETA/MOTONETA/CICLOM S/CAPACETE DE SE244 * I            00000000070301   000029347007572019121020200123319036699204820000002347785630000002834770332230012007574719203669920482600000000000  000   25    00070428717402070301PASSAGEIRO
2100000000470420191209207570PREF. DE: MA - CAXIAS                   CXA0077605201910011700AV SENADOR CLODOMIR CARDOSO                                 OIX7793MA122131-SAMTHONDA/NXR150 BROS ES                         PARTICULAR                    MOTOCICLETA     VERMELHA  00000000JANIER ARLEY M GONZALEZ                     TV ESPIRITO SANTO I NR. 205             - CANGALHEIRO                           65600001CAXIAS              MACOND. MOTOC/MOTON./CICLOM TRANSPORTANDO/PASSAG.S/C244 * II           00000000070481   000029347007572019121020200123319036699205600000002347785690000002234770332230012007574419903669920560900000000000  000   26    00070428717511570481PASSAGEIRO
2100000000470420191209207570PREF. DE: MA - CAXIAS                   CXA0077603201910011655AV SENADOR COSTA RODRIGUES                                  NHQ2812MA122131-SAMTHONDA/BIZ 125 ES                             PARTICULAR                    MOTONETA        CINZA     00000000JOELMA ROCHA MEDEIROS DA SILVA              R SENADOR C CARDOSO NR. 893             - CANGALHEIRO                           65600001CAXIAS              MACOND. MOTOC/MOTON./CICLOM TRANSPORTANDO/PASSAG.S/C244 * II           00000000070481   000029347007572019121020200123319036699206470000002347785640000002734770332230012007574419903669920647400000000000  000   27    00070428717565470481PASSAGEIRO
2100000000470420191209207570PREF. DE: MA - CAXIAS                   CXA0077602201910011635PCA CANDIDO MENDES                                          PTH1569MA122131-SAMTHONDA/CG 160 TITAN                           PARTICULAR                    MOTOCICLETA     PRETA     00000000MARIA FERREIRA DA SILVA                     PV SANTA FILOMENA NR. S/N               - ZONA RURAL                            65615000SAO JOAO DO SOTER   MACOND. MOTOC/MOTON./CICLOM TRANSPORTANDO/PASSAG.S/C244 * II           00000000070481   000029347007572019121020200123319036699207240000002347785610000002034770332230012007574419903669920724100000000000  000   28    00070428717621970481PASSAGEIRO
2100000000470420191209207570PREF. DE: MA - CAXIAS                   CXA0077601201910011630PCA CANDIDO MENDES                                          OJD9540MA122131-SAMTHONDA/CG 125 FAN ES                          PARTICULAR                    MOTOCICLETA     VERMELHA  00000000DEUSA HELENA ALVES SOUSA                    AV JERONIMO DE A MARANHAO NR. 71        - ANGELIM                               65060641SAO LUIS            MACOND. MOTOC/MOTON./CICLOM TRANSPORTANDO/PASSAG.S/C244 * II           00000000070481   000029347007572019121020200123319036699208010000002347785670000002434770332230012007574419903669920801700000000000  000   29    00070428717759270481PASSAGEIRO
2100000000470420191209207570PREF. DE: MA - CAXIAS                   CXA0077514201910010730PCA CANDIDO MENDES                                          PSG4058MA305941-SAMTHONDA/BIZ 125 EX                             PARTICULAR                    MOTONETA        PRETA     00000000JOEDNA MONTEIRO DE FREITAS                  R PINDARE MIRIM NR. 1158                - VL ALECRIM                            65605667CAXIAS              MACOND. MOTOC/MOTON./CICLOM TRANSPORTANDO/PASSAG.S/C244 * II           00000000070481   000029347007572019121020200123319036699209990000002347785690000002234770332230012007574419903669920999900000000000  000   30    00070428717922670481PASSAGEIRO
2100000000470420191209207570PREF. DE: MA - CAXIAS                   CXA0077449201910011700RUA DO MATADOURO                                            PTA7943MA78162-SAMT HONDA/NXR 160 BROS                           PARTICULAR                    MOTOCICLETA     BRANCA    00000000ROSINALDA ALBUQUERQUE DA SILVA              RUA DO CAJUEIRO NR. 917                 - SERIEMA                               65602530CAXIAS              MACOND. MOTOC/MOTON./CICLOM TRANSPORTANDO/PASSAG.S/C244 * II           00000000070481   000029347007572019121020200123319036699210200000002347785630000002834770332230012007574419903669921020300000000000  000   31    00070428718161170481PASSAGEIRO
2100000000470420191209207570PREF. DE: MA - CAXIAS                   CXA0077446201910011100PCA CANDIDO MENDES                                          PSK8270MA78162-SAMT HONDA/CG150 START                            PARTICULAR                    MOTOCICLETA     AMARELA   00000000LUIZ ANTONIO DA CONCEICAO ALVES             RUA GILBERTO BARBOSA NR. 764            - VILA ARIAS                            65603240CAXIAS              MACOND. MOTOC/MOTON./CICLOM TRANSPORTANDO/PASSAG.S/C244 * II           00000000070481   000029347007572019121020200123319036699211070000002347785680000002334770332230012007574419903669921107800000000000  000   32    00070428719645770481PASSAGEIRO
2100000000470420191209207570PREF. DE: MA - CAXIAS                   CXA0077445201910011050PCA CANDIDO MENDES                                          PSJ2743MA78162-SAMT FIAT/PALIO ATTRACTIV 1.4                     PARTICULAR                    AUTOMOVEL       BRANCA    00000000MARLITA ARAUJO DE ALMEIDA                   RUA 12 NR. 11                           QD 08 - IPEM                            65602630CAXIAS              MAESTAC. EM DESACORDO C/ A REGULAMENTACAO ESPECIFICA181 * XVII         00000000055411   000019523007572019121020200123319036699212940000001561885600000001356180332230512007574419903669921294400000000000  000   33    00050428721318155411PASSAGEIRO
2100000000470420191209207570PREF. DE: MA - CAXIAS                   CXA0077387201910011713TRAV ANICETO CRUZ                                           PSM3113MA306521-SAMTHONDA/CG150 FAN ESDI                         PARTICULAR                    MOTOCICLETA     PRETA     00000000ELIENE DE SOUSA ARAUJO                      RUA DA GLORIA NR. 923                   - CAMPO DE BELEM                        65609250CAXIAS              MACOND. MOTOCICLETA/MOTONETA/CICLOM S/CAPACETE DE SE244 * I            00000000070301   000029347007572019121020200123319036699213710000002347785670000002434770332230012007574719203669921371000000000000  000   34    00070428722310170301PASSAGEIRO
2100000000470420191209207570PREF. DE: MA - CAXIAS                   CXA0077770201910011035PCA DUQUE DE CAXIAS                                         PSU1293MA306051-SAMTHONDA/POP 110I                               PARTICULAR                    MOTOCICLETA     PRETA     00000000KEURY CAROLAINE PEREIRA DA SILVA            RUA DO TAMARINEIRO NR. 413              - TAMARINEIRO                           65608230CAXIAS              MAESTAC. EM DESACORDO C/ A REGULAMENTACAO ESPECIFICA181 * XVII         00000000055411   000019523007572019121020200123319036699214590000001561885690000001456180332230512007574419903669921459300000000000  000   35    00050428722904555411PASSAGEIRO
2100000000470420191209207570PREF. DE: MA - CAXIAS                   CXA0077551201910011735AV SAO LUIZ                                                 OXS6798MA123611-SAMTHONDA/BIZ 125 ES                             PARTICULAR                    MOTONETA        VERMELHA  00000000ROZANA DA SILVA PASSOS BARBOSA              RUA AMIGOS NR. 1392                     - SERIEMA                               65602530CAXIAS              MACOND. MOTOC/MOTON./CICLOM TRANSPORTANDO/PASSAG.S/C244 * II           00000000070481   000029347007572019121020200123319036699215360000002347785680000002334770332230012007574419903669921536800000000000  000   36    00070428723114770481PASSAGEIRO
2100000000470420191209207570PREF. DE: MA - CAXIAS                   CXA0077015201910021640PCA CANDIDO MENDES                                          OXQ5976MA138301-SAMTHONDA/NXR125 BROS ES                         PARTICULAR                    MOTOCICLETA     PRETA     00000000MARIA DOS REMEDIOS DA S DE SOUZA            RUA ANICETO CRUZ NR. 734                - TRIZIDELA                             65600000CAXIAS              MACOND. MOTOC/MOTON./CICLOM TRANSPORTANDO/PASSAG.S/C244 * II           00000000070481   000029347007572019121020200123319036699216130000002347785650000002634770332230012007574419903669921613500000000000  000   37    00070428723418970481PASSAGEIRO
2100000000470420191209207570PREF. DE: MA - CAXIAS                   CXA0077500201910020907RUA RIO BRANCO                                              NXK5189MA306431-SAMTYAMAHA/T115 CRYPTON K                        PARTICULAR                    MOTONETA        PRETA     00000000TERESINHA DE JESUS DA S BARRETO             II TV BELA VISTA NR. 2095               - CASTELO BRANCO                        65604190CAXIAS              MAESTAC. EM DESACORDO C/ A REGULAMENTACAO ESPECIFICA181 * XVII         00000000055411   000019523007572019121020200123319036699217000000001561885660000001756180332230512007574419903669921700000000000000  000   38    00050428724581455411PASSAGEIRO
2100000000470420191209207570PREF. DE: MA - CAXIAS                   CXA0077312201910021435RUA RIACHUELO                                               NHR6059MA123611-SAMTHONDA/CG 150 TITAN ES                        PARTICULAR                    MOTOCICLETA     PRETA     00000000MARIA JOSE ALMADA DE OLIVEIRA               R RIACHUELO NR. 270                     - CENTRO                                65600000CAXIAS              MACOND. MOTOCICLETA/MOTONETA/CICLOM S/CAPACETE DE SE244 * I            00000000070301   000029347007572019121020200123319036699218880000002347785600000002134770332230012007574719203669921888300000000000  000   39    00070428725000170301PASSAGEIRO
2100000000470420191209207570PREF. DE: MA - CAXIAS                   CXA0077552201910021440PCA CANDIDO MENDES                                          OJF0802MA123611-SAMTHONDA/BIZ 100 ES                             PARTICULAR                    MOTONETA        PRETA     00000000MARIA EDITE VIEIRA DO NASCIMENTO            RUA EDSON VIDIGAL NR. 1037              - MUTIRAO                               65600000CAXIAS              MACOND. MOTOC/MOTON./CICLOM TRANSPORTANDO/PASSAG.S/C244 * II           00000000070481   000029347007572019121020200123319036699219650000002347785690000002234770332230012007574419903669921965900000000000  000   40    00070428725241170481PASSAGEIRO
2100000000470420191209207570PREF. DE: MA - CAXIAS                   CXA0077553201910021605PCA CANDIDO MENDES                                          PSN3923MA123611-SAMTHONDA/NXR150 BROS ES                         PARTICULAR                    MOTOCICLETA     PRETA     00000000ROSEANE DE JESUS COSTA OLIVEIRA             TV DO AEROPORTO NR. 2394                - TESO DURO                             65603603CAXIAS              MACOND. MOTOC/MOTON./CICLOM TRANSPORTANDO/PASSAG.S/C244 * II           00000000070481   000029347007572019121020200123319036699220060000002347785610000002034770332230012007574419903669922006100000000000  000   41    00070428725522470481PASSAGEIRO
2100000000470420191209207570PREF. DE: MA - CAXIAS                   CXA0077554201910021610PCA CANDIDO MENDES                                          OXX3743MA123611-SAMTHONDA/BIZ 100 ES                             PARTICULAR                    MOTONETA        PRETA     00000000MARIA JOSIANE DOS SANTOS PEREIRA            RUA CEL SIMPLICIO QDA 13 NR. N11        - PQ M LACERDA                          65700000BACABAL             MACOND. MOTOC/MOTON./CICLOM TRANSPORTANDO/PASSAG.S/C244 * II           00000000070481   000029347007572019121020200123319036699221830000002347785680000002334770332230012007574419903669922183800000000000  000   42    00070428726051170481PASSAGEIRO
2100000000470420191209207570PREF. DE: MA - CAXIAS                   CXA0077555201910021635PCA CANDIDO MENDES                                          NXQ4433MA123611-SAMTHONDA/CG 125 FAN KS                          PARTICULAR                    MOTOCICLETA     VERMELHA  00000000GEAN SIQUEIRA DA SILVA                      RUA SANTA CLARA NR. 102                 - BAIXINHA                              65600010CAXIAS              MACOND. MOTOC/MOTON./CICLOM TRANSPORTANDO/PASSAG.S/C244 * II           00000000070481   000029347007572019121020200123319036699222600000002347785640000002734770332230012007574419903669922260400000000000  000   43    00070428728626070481PASSAGEIRO
2100000000470420191209207570PREF. DE: MA - CAXIAS                   CXA0077556201910021645PCA CANDIDO MENDES                                          HQE8684MA123611-SAMTHONDA/BIZ 125 ES                             PARTICULAR                    MOTONETA        PRETA     00000000GRACINEIDE MARIA DE SA COUTINHO             RUA NOVA NR. N-262                      - JOSE CASTRO                           65600000CAXIAS              MACOND. MOTOC/MOTON./CICLOM TRANSPORTANDO/PASSAG.S/C244 * II           00000000070481   000029347007572019121020200123319036699223480000002347785670000002434770332230012007574419903669922348700000000000  000   44    00070428728995170481PASSAGEIRO
2100000000470420191209207570PREF. DE: MA - CAXIAS                   CXA0077557201910021720PCA CANDIDO MENDES                                          PTF2438MA123611-SAMTHONDA/BIZ 110I                               PARTICULAR                    MOTONETA        VERMELHA  00000000MARIA DE JESUS INES DA C SILVA              RUA BENEDITO LEITE NR. 2282             - MATADOURO                             65645000MATOES              MACOND. MOTOC/MOTON./CICLOM TRANSPORTANDO/PASSAG.S/C244 * II           00000000070481   000029347007572019121020200123319036699224250000002347785630000002834770332230012007574419903669922425300000000000  000   45    00070428730735670481PASSAGEIRO
2100000000470420191209207570PREF. DE: MA - CAXIAS                   CXA0077560201910021745PCA CANDIDO MENDES                                          PSL8010MA123611-SAMTCHEVROLET/ONIX 1.0MT LT                      PARTICULAR                    AUTOMOVEL       AZUL      00000000LILA LEA CARDOSO CHAVES                     RUA 07 DE SETEMBRO NR. 215              - TREZIDELA                             65607350CAXIAS              MADIR.VEIC. UTILIZANDO-SE DE TELEFONE CELULAR       252 * VI           00000000073662   000013016007572019121020200123319036699225020000001041285610000001204120332230412007574719203669922502900000000000  000   46    00040428731412373662PASSAGEIRO
2100000000470420191209207570PREF. DE: MA - CAXIAS                   CXA0076897201910021510RUA AARAO REIS                                              NNE5649MA122221-SAMTHONDA/NXR150 BROS ES                         PARTICULAR                    MOTOCICLETA     VERMELHA  00000000ADAO CARLOS DOS SANTOS FILHO                AV EDSON LOBAO NR. NR31                 - VILINHA                               65940000GRAJAU              MAAVANCAR SINAL VERMELHO DO SEMAFORO                208                00000000060501   000029347007572019121020200123319036699226900000002347785620000002934770332230012007574419903669922690200000000000  000   47    00070428731882060501PASSAGEIRO
2100000000470420191209207570PREF. DE: MA - CAXIAS                   CXA0076898201910021537RUA SENADOR CLODOMIR CARDOSO                                PTI2825MA122221-SAMTYAMAHA/YBR150 FACTOR E                       PARTICULAR                    MOTOCICLETA     VERMELHA  00000000FRANCISCA ANDRADE DA SILVA                  TV SEN CLODOMIR CARDOSO NR. 346         - CANGALHEIRO                           65606535CAXIAS              MACOND. MOTOCICLETA/MOTONETA/CICLOM S/CAPACETE DE SE244 * I            00000000070301   000029347007572019121020200123319036699227770000002347785640000002734770332230012007574719203669922777700000000000  000   48    00070428732295970301PASSAGEIRO
2100000000470420191209207570PREF. DE: MA - CAXIAS                   CXA0076822201910020910RUA RIO DE JANEIRO                                          HQE1282MA306461-SAMTHONDA/CG 125 FAN                             PARTICULAR                    MOTOCICLETA     PRETA     00000000KYDSON MOTA DO NASCIMENTO                   R JOAO JOCA ASSUNCAO N NR. 1060         - PQ PIAUI                              65630020TIMON               MAESTAC. EM DESACORDO C/ A REGULAMENTACAO ESPECIFICA181 * XVII         00000000055411   000019523007572019121020200123319036699228540000001561885600000001356180332230512007574419903669922854400000000000  000   49    00050428733050155411PASSAGEIRO
2100000000470420191209207570PREF. DE: MA - CAXIAS                   CXA0076824201910020910AV GETULIO VARGAS                                           NXQ7069MA306461-SAMTVW/GOL 1.6 RALLYE                            PARTICULAR                    AUTOMOVEL       PRATA     00000000RONALDO PEREIRA DOS SANTOS                  TV N SRA DE FATIMA NR. 1360             - VOLTA REDONDA                         65606440CAXIAS              MAESTAC. VEIC. NAS ESQU. E MENOS DE 5M DO ALINHAMENT181 * I            00000000053800   000013016007572019121020200123319036699229310000001041285650000001804120332230412007574419903669922931000000000000  000   50    00040428733541453800PASSAGEIRO
2100000000470420191209207570PREF. DE: MA - CAXIAS                   CXA0077801201910021000TV CASTELO CARVALHO                                         JEX1897MA306431-SAMTGM/CORSA SUPER                               PARTICULAR                    AUTOMOVEL       BRANCA    00000000MARIA DO ROSARIO VIANA DA SILVA             PV ROSARIO NR. 15148                    - ROSARIO                               65600010CAXIAS              MAESTAC. EM LOCAL/HORARIO PROIBIDO ESPECIFIC. P/SINA181*XVIII          00000000055500   000013016007572019121020200123319036699230720000001041285670000001604120332230412007574419903669923072200000000000  000   51    00040428734010855500PASSAGEIRO
2100000000470420191209207570PREF. DE: MA - CAXIAS                   CXA0077388201910030818PCA DUQUE DE CAXIAS                                         NMP6936MA306521-SAMTHONDA/CG 125 FAN ES                          PARTICULAR                    MOTOCICLETA     PRETA     00000000MARIA LUCIA DA SILVA                        AV AIRTON SENA NR. N-223                - CJR DINIR SILVA                       65600000CAXIAS              MACOND. MOTOC/MOTON./CICLOM TRANSPORTANDO/PASSAG.S/C244 * II           00000000070481   000029347007572019121020200123319036699231500000002347785660000002534770332230012007574419903669923150600000000000  000   52    00070428736590970481PASSAGEIRO
2100000000470420191209207570PREF. DE: MA - CAXIAS                   CXA0077389201910030851AV OTAVIO PASSOS                                            PSB4135MA306521-SAMTHONDA/BIZ 125 ES                             PARTICULAR                    MOTONETA        VERMELHA  00000000ROSANGELA SENA DE OLIVEIRA                  R 24 DE JUNHO NR. 5                     QD C5 - RD VL PARAISO                   65600010CAXIAS              MAESTAC. EM DESACORDO C/ A REGULAMENTACAO ESPECIFICA181 * XVII         00000000055411   000019523007572019121020200123319036699232370000001561885670000001656180332230512007574419903669923237100000000000  000   53    00050428736845255411PASSAGEIRO
2100000000470420191209207570PREF. DE: MA - CAXIAS                   CXA0077780201910030754PCA DUQUE DE CAXIAS                                         NHI6620MA306051-SAMTHONDA/POP100                                 PARTICULAR                    MOTOCICLETA     PRETA     00000000ANTONIO BRUNO GOMES DA SILVA                R4UA NATAL NR-963 NR.                   F-99-3421-4380 - JOAO VIANA             65600000CAXIAS              MACOND. MOTOC/MOTON./CICLOM TRANSPORTANDO/PASSAG.S/C244 * II           00000000070481   000029347007572019121020200123319036699233140000002347785680000002334770332230012007574419903669923314800000000000  000   54    00070428737018070481PASSAGEIRO
2100000000470420191209207570PREF. DE: MA - CAXIAS                   CXA0077781201910030854AV OTAVIO PASSOS                                            HON6254MA306051-SAMTHONDA/XL 125 S                               PARTICULAR                    MOTOCICLETA     PRETA     00000000FLORENTINO ASSENCO A FILHO                  RUA 14 QDA 15  CASA NR. 09              - COHATRAC II                           65000000SAO LUIS            MAESTAC. EM DESACORDO C/ A REGULAMENTACAO ESPECIFICA181 * XVII         00000000055411   000019523007572019121020200123319036699234010000001561885690000001456180332230512007574419903669923401300000000000  000   55    00050428737152655411PASSAGEIRO
2100000000470420191209207570PREF. DE: MA - CAXIAS                   CXA0077782201910030900PCA PANTHEON                                                OJK8063MA306051-SAMTHONDA/BIZ 125 EX                             PARTICULAR                    MOTONETA        BRANCA    00000000MARIA DAS GRACAS MACEDO SANTOS              RUA MARIA DO ROSARIO NR. 1068           - CAMPO DE BELEM                        65600000CAXIAS              MACOND. MOTOCICLETA/MOTONETA/CICLOM S/CAPACETE DE SE244 * I            00000000070301   000029347007572019121020200123319036699235890000002347785620000002934770332230012007574719203669923589500000000000  000   56    00070428737458470301PASSAGEIRO
2100000000470420191209207570PREF. DE: MA - CAXIAS                   CXA0077016201910031530PCA CANDIDO MENDES                                          NXB6047MA138301-SAMTHONDA/CG 125 FAN KS                          PARTICULAR                    MOTOCICLETA     VERMELHA  00000000IVALDO DA SILVA PRIMO                       RUA ALTO CRUZ NR. 2541                  - NOVA CAXIAS                           65600000CAXIAS              MACOND. MOTOC/MOTON./CICLOM TRANSPORTANDO/PASSAG.S/C244 * II           00000000070481   000029347007572019121020200123319036699236660000002347785610000002034770332230012007574419903669923666100000000000  000   57    00070428737638270481PASSAGEIRO
2100000000470420191209207570PREF. DE: MA - CAXIAS                   CXA0077450201910030950AV NEREU BITTENCOURT                                        PSQ3214MA78162-SAMT HONDA/POP 110I                               PARTICULAR                    MOTOCICLETA     PRETA     00000000AGNALDO ELESBAO DA SILVA                    AV VOLTA REDONDA NR. 1385               - VOLTA REDONDA                         65606730CAXIAS              MACOND. MOTOC/MOTON./CICLOM TRANSPORTANDO/PASSAG.S/C244 * II           00000000070481   000029347007572019121020200123319036699237430000002347785680000002334770332230012007574419903669923743800000000000  000   58    00070428737858070481PASSAGEIRO
2100000000470420191209207570PREF. DE: MA - CAXIAS                   CXA0077390201910031556RUA AARAO REIS                                              PSV4596MA306521-SAMTHONDA/BIZ 110I                               PARTICULAR                    MOTONETA        PRETA     00000000JOSE RAIMUNDO MENDES                        RUA JOSE A P LUBAMBO NR. N-03           QD-01 - GALEANA                         65607005CAXIAS              MACOND. MOTOC/MOTON./CICLOM TRANSPORTANDO/PASSAG.S/C244 * II           00000000070481   000029347007572019121020200123319036699238200000002347785640000002734770332230012007574419903669923820400000000000  000   59    00070428738051770481PASSAGEIRO
2100000000470420191209207570PREF. DE: MA - CAXIAS                   CXA0076900201910031555PCA CANDIDO MENDES                                          PTO2841MA122221-SAMTI/TOYOTA HILUX CDSRXA4FD                     PARTICULAR                    CAMINHONETE     PRATA     00000000MAXCLIN IND DE S O E COM LTDA               EST DE BACABAL A B VISTA NR. N 100      KM 02 - SATUBA                          65700000BACABAL             MAESTACIONAR EM DESACORDO C/REGULAMENTACAO-PONTO OU 181 * XVII         00000000055413   000019523007572019121020200123319036699239080000001561885630000001056180332230512007574419903669923908700000000000  000   60    00050428738418055413ESPECIAL
2100000000470420191209207570PREF. DE: MA - CAXIAS                   CXA0076895201909301617PCA CANDIDO MENDES                                          OIV5360MA122221-SAMTHONDA/BIZ 125 ES                             PARTICULAR                    MOTONETA        ROSA      00000000YARA DE NAZARE MORAIS SOUTO                 RUA SAO FRANCISCO NR. 1128              - VOLTA REDONDA                         65600000CAXIAS              MACOND. MOTOC/MOTON./CICLOM TRANSPORTANDO/PASSAG.S/C244 * II           00000000070481   000029347007572019121020200123319036699240490000002347785690000002234770332230012007574419903669924049900000000000  000   61    00070428738541170481PASSAGEIRO
2100000000470420191209207570PREF. DE: MA - CAXIAS                   CXA0075410201910031457AV OTAVIO PASSOS                                            PSN3438MA122051-SAMTHONDA/POP 110I                               PARTICULAR                    MOTOCICLETA     PRETA     00000000LAIANE ARAUJO DA CONCEICAO                  AVENIDA QUATRO NR. 1977                 - BELA VISTA                            65604640CAXIAS              MAESTAC. EM LOCAL/HORARIO.DE ESTAC. E PARADA PROIBID181 * XIX          00000000055680   000019523007572019121020200123319036699241260000001561885610000001256180332230512007574419903669924126500000000000  000   62    00050428738751155680PASSAGEIRO
2100000000470420191209207570PREF. DE: MA - CAXIAS                   CXA0075411201910031556PCA CANDIDO MENDES                                          PSR3796MA122051-SAMTTOYOTA/ETIOS SD PLT15 AT                     PARTICULAR                    AUTOMOVEL       PRETA     00000000M I A MARINHO EIRELI-ME                     RUA COLATINO BORBOREMA NR. 79           - CENTRO                                65400000CODO                MAESTACIONAR EM DESACORDO C/REGULAMENTACAO-PONTO OU 181 * XVII         00000000055413   000019523007572019121020200123319036699242030000001561885680000001556180332230512007574419903669924203200000000000  000   63    00050428738951455413PASSAGEIRO
2100000000470420191209207570PREF. DE: MA - CAXIAS                   CXA0075412201910031434AV NEREU BITTENCOURT                                        OIS2304MA122221-SAMTHONDA/CG 125 FAN KS                          PARTICULAR                    MOTOCICLETA     PRETA     00000000FRANCISCO LEIDSON ALVES FERREIRA            POV RIACHAO NR. 757                     - RIACHAO                               65600000CAXIAS              MACOND. MOTOC/MOTON./CICLOM TRANSPORTANDO/PASSAG.S/C244 * II           00000000070481   000029347007572019121020200123319036699243900000002347785670000002434770332230012007574419903669924390700000000000  000   64    00070428739252370481PASSAGEIRO
2100000000470420191209207570PREF. DE: MA - CAXIAS                   CXA0075413201910031439RUA COELHO NETO                                             NHG3711MA122221-SAMTHONDA/POP100                                 PARTICULAR                    MOTOCICLETA     PRETA     00000000CARLOS ALBERTO V DE OLIVEIRA                RUA DO CAJUEIRO NR. S/N                 - IPEM                                  65600000CAXIAS              MACOND. MOTOCICLETA/MOTONETA/CICLOM S/CAPACETE DE SE244 * I            00000000070301   000029347007572019121020200123319036699244780000002347785670000002434770332230012007574719203669924478000000000000  000   65    00070428739463170301PASSAGEIRO
2100000000470420191209207570PREF. DE: MA - CAXIAS                   CXA0075415201910031456AV OTAVIO PASSOS                                            NHM3306MA122221-SAMTHONDA/BIZ 125 MAIS                           PARTICULAR                    MOTONETA        VERMELHA  00000000FRANCISCO DA CONCEICAO SOUSA                RUA 24 DE DEZEMBRO NR. 1078             - SERIEMA                               65600000CAXIAS              MACOND. MOTOC/MOTON./CICLOM TRANSPORTANDO/PASSAG.S/C244 * II           00000000070481   000029347007572019121020200123319036699245550000002347785650000002634770332230012007574419903669924555500000000000  000   66    00070428739623570481PASSAGEIRO
2100000000470420191209207570PREF. DE: MA - CAXIAS                   CXA0075414201910031440RUA COELHO NETO                                             NHG3711MA122221-SAMTHONDA/POP100                                 PARTICULAR                    MOTOCICLETA     PRETA     00000000CARLOS ALBERTO V DE OLIVEIRA                RUA DO CAJUEIRO NR. S/N                 - IPEM                                  65600000CAXIAS              MACOND. MOTOC/MOTON./CICLOM TRANSPORTANDO/PASSAG.S/C244 * II           00000000070481   000029347007572019121020200123319036699246320000002347785620000002934770332230012007574419903669924632200000000000  000   67    00070428739963370481PASSAGEIRO
2100000000470420191209207570PREF. DE: MA - CAXIAS                   CXA0077561201910031410PCA CANDIDO MENDES                                          PSE8890MA123611-SAMTHONDA/POP100                                 PARTICULAR                    MOTOCICLETA     BRANCA    00000000JOSE HENRIQUE DE SOUZA COSTA                R. DO FIO NR. 895                       - PONTE                                 65609315CAXIAS              MACOND. MOTOCICLETA/MOTONETA/CICLOM S/CAPACETE DE SE244 * I            00000000070301   000029347007572019121020200123319036699247100000002347785630000002834770332230012007574719203669924710600000000000  000   68    00070428740166270301PASSAGEIRO
2100000000470420191209207570PREF. DE: MA - CAXIAS                   CXA0077563201910031540PCA CANDIDO MENDES                                          OIR3253MA123611-SAMTHONDA/NXR150 BROS ES                         PARTICULAR                    MOTOCICLETA     VERMELHA  00000000MARONILTON ALVES DA SILVA                   RUA VESPAZIANO RAMOS NR. N-06           QD G - REC DOS POETAS                   65600000CAXIAS              MACOND. MOTOC/MOTON./CICLOM TRANSPORTANDO/PASSAG.S/C244 * II           00000000070481   000029347007572019121020200123319036699248070000002347785600000002134770332230012007574419903669924807000000000000  000   69    00070428740525070481PASSAGEIRO
2100000000470420191209207570PREF. DE: MA - CAXIAS                   CXA0077565201910031620PCA CANDIDO MENDES                                          NHK2545MA123611-SAMTHONDA/CG 125 FAN                             PARTICULAR                    MOTOCICLETA     CINZA     00000000FRANCISCO NASCIMENTO DE ALMEIDA             R DAS FLORES NR-1089 NR.                - SIRIEMA                               65600000CAXIAS              MACOND. MOTOC/MOTON./CICLOM TRANSPORTANDO/PASSAG.S/C244 * II           00000000070481   000029347007572019121020200123319036699249840000002347785670000002434770332230012007574419903669924984700000000000  000   70    00070428740865970481PASSAGEIRO
2100000000470420191209207570PREF. DE: MA - CAXIAS                   CXA0075419201910050944PCA CANDIDO MENDES                                          NNE4361MA122221-SAMTFIAT/UNO MILLE WAY ECON                      PARTICULAR                    AUTOMOVEL       BRANCA    00000000IACI CARVALHO CORREIA                       TV DOS CALDEIROES NR. 249               - CALDEIROES                            65607320CAXIAS              MAESTACIONAR EM DESACORDO C/REGULAMENTACAO-PONTO OU 181 * XVII         00000000055413   000019523007572019121020200123319036699250150000001561885650000001856180332230512007574419903669925015900000000000  000   71    00050428741815855413PASSAGEIRO
2100000000470420191209207570PREF. DE: MA - CAXIAS                   CXA0075280201910071053PCA GONCALVES DIAS                                          PTF3453MA301942-SAMTHONDA/POP 110I                               PARTICULAR                    MOTOCICLETA     VERMELHA  00000000SHARA SANTOS PEREIRA                        RUA NOVA NR. 1091                       - PONTE                                 65609490CAXIAS              MAESTAC. EM DESACORDO C/ A REGULAMENTACAO ESPECIFICA181 * XVII         00000000055411   000019523007572019121020200123319036699251020000001561885610000001256180332230512007574419903669925102500000000000  000   72    00050428742334855411PASSAGEIRO
2100000000470420191209207570PREF. DE: MA - CAXIAS                   CXA0075420201910051056TRAV CAETANO CARVALHO                                       NIJ4311MA122221-SAMTVW/GOL 1.0 GIV                               PARTICULAR                    AUTOMOVEL       PRATA     00000000GEOVANE FEITOSA DE SOUSA                    RUA VENEZA NR. 44                       - VENEZA                                65600211CAXIAS              MAESTACIONAR EM DESACORDO C/REGULAM-VAGA DE CARGA/DE181 * XVII         00000000055414   000019523007572019121020200123319036699252800000001561885650000001856180332230512007574419903669925280900000000000  000   73    00050428744979755414PASSAGEIRO
3000072000000000072
