1*NIPR207570201911250046742019112500000000000000
2000000000467420191125207570PREF. DE: MA - CAXIAS                   CXA0077314201909181445PCA MAGALHAES DE ALMEIDA                                    OEA3299PI           YAMAHA/FACTOR YBR125 K                       PARTICULAR                    MOTOCICLETA     PRETA     00000000FRANCISCA SUZIANE DE SOUSA MIRANDA          CJ SANTA LUZIA QD 03 CS 05 NR.          - BUNLUNGAO                             06400000AGUA BRANCA         PICOND. MOTOC/MOTON./CICLOM TRANSPORTANDO/PASSAG.S/C244 * II           00000000070481   000029347007572019112620200109319036682329710000002347787750000002293475867200009207570090336682329710100000000000  000   1     00070426399448570481PASSAGEIRO
2000000000467420191125207570PREF. DE: MA - CAXIAS                   CXA0077462201909180718TRAV DESENBARGADOR MORATO                                   LVT7713PI           FORD/KA                                      PARTICULAR                    AUTOMOVEL       PRETA     00000000CRISTINO GOMES DE OLIVEIRA PEREIRA          RUA BELEM NR. 02381                     - TRES ANDARES                          64000100TERESINA            PIESTACIONAR AO LADO DE OUTRO VEICULO EM FILA DUPLA 181 * XI           00000000054870   000019523007572019112620200109319036682330020000001561887730000001695235867200609207570090336682330020200000000000  000   2     00050426399936354870PASSAGEIRO
2000000000467420191125207570PREF. DE: MA - CAXIAS                   CXA0077754201909200940RUA GUSTAVO COLACO                                          NHY3450PI           HONDA/CG 125 FAN                             PARTICULAR                    MOTOCICLETA     PRETA     00000000ERIVELTON DA SILVA MACHADO                  QUADRA 070 CS 06B NR. 00000             - PROMORAR                              64010200TERESINA            PIESTAC. EM DESACORDO C/ A REGULAMENTACAO ESPECIFICA181 * XVII         00000000055411   000019523007572019112620200109319036682331900000001561887750000001495235867200609207570090336682331900400000000000  000   3     00050426423376355411PASSAGEIRO
2000000000467420191125207570PREF. DE: MA - CAXIAS                   CXA0076879201909201500RUA SAO BENEDITO                                            QRO9391PI           HONDA/HR-V EXL CVT                           PARTICULAR                    AUTOMOVEL       BRANCA    00000000NARIANE REJANE DE OLIVEIRA S SILVA          RUA DAS ORQUIDEAS NR. 00164             -AP 1301 - JOQUEI                       64048152TERESINA            PIESTACIONAR AO LADO DE OUTRO VEICULO EM FILA DUPLA 181 * XI           00000000054870   000019523007572019112620200109319036682332770000001561887710000001895235867200609207570090336682332770000000000000  000   4     00050426424135954870PASSAGEIRO
2000000000467420191125207570PREF. DE: MA - CAXIAS                   CXA0077412201909190800PCA DO PANTHEON                                             ELA8769SP           HONDA/CG 160 FAN                             PARTICULAR                    MOTOCICLETA     VERMELHA  00000000DEIVID WENDEL PEREIRA SILVERT               RUA SIRLEI CONCEICAO GOMES ALV NR. 00141CASA - CAMPO DOS ALEMA                  12239720SAO JOSE DOS CAMPOS SPCOND. MOTOC/MOTON./CICLOM TRANSPORTANDO/PASSAG.S/C244 * II           00000000070481   000029347007572019112620200109319036682333540000002347787700000002793475867200009207570090336682333540600000000000  000   5     00070426633126670481PASSAGEIRO
2000000000467420191125207570PREF. DE: MA - CAXIAS                   CXA0076750201909191206PCA CANDIDO MENDES                                          LVZ1470PI           FORD/CARGO 815                               ALUGUEL                       CAMINHAO        BRANCA    00000000EUDES RONALD BRANDAO SOBRINHO               QD 47 CS 07 NR.                         - BELA VISTA I                          64030120TERESINA            PIESTACIONAR AO LADO DE OUTRO VEICULO EM FILA DUPLA 181 * XI           00000000054870   000019523007572019112620200109319036682334310000001561887740000001595235867200609207570090336682334310300000000000  000   6     00050426633722154870CARGA
2000000000467420191125207570PREF. DE: MA - CAXIAS                   CXA0077326201909191705RUA 01 DE AGOSTO                                            PIX2230PI           TOYOTA/COROLLA XRS20FLEX                     PARTICULAR                    AUTOMOVEL       BRANCA    00000000RENATA SOARES MOREIRA                       RUA LINDOLFO MONTEIRO NR. 02801         - FATIMA                                64000080TERESINA            PIDIR.VEIC. UTILIZANDO-SE DE TELEFONE CELULAR       252 * VI           00000000073662   000013016007572019112620200109319036682335190000001041287760000001330165867200309207570090336682335190800000000000  000   7     00040426637657073662PASSAGEIRO
2000000000467420191125207570PREF. DE: MA - CAXIAS                   CXA0077413201909190810PCA DO PANTHEON                                             NIT2371PI           HONDA/CB 300R                                PARTICULAR                    MOTOCICLETA     VERMELHA  00000000MOACIR GONCALVES PALMEIRA JUNIOR            R LUCRECIO AVELINO NR. 01138            - AGUA MINERAL                          64007500TERESINA            PICOND. MOTOC/MOTON./CICLOM TRANSPORTANDO/PASSAG.S/C244 * II           00000000070481   000029347007572019112620200109319036682336060000002347787760000002193475867200009207570090336682336060200000000000  000   8     00070426643216070481PASSAGEIRO
2000000000467420191125207570PREF. DE: MA - CAXIAS                   CXA0076747201909191005RODOVIARIA NACHOR CARVALHO                                  NHV2038PI           GM/PRISMA JOY                                PARTICULAR                    AUTOMOVEL       VERMELHA  00000000MARIA DAS DORES DA CONCEICAO                RUA DESEM ARIMATEIA TITO NR. 00791      - MONTE CASTELO                         64010090TERESINA            PIESTAC. EM LOCAL/HORARIO PROIBIDO ESPECIFIC. P/SINA181*XVIII          00000000055500   000013016007572019112620200109319036682337830000001041287750000001430165867200309207570090336682337830700000000000  000   9     00040426643793555500PASSAGEIRO
3000009000000000009
