1*NIPI207570201911220046712019112200000000000000
2100000000467120191122207570PREF. DE: MA - CAXIAS                   CXA0076542201909111710AV LUIS SALES                                               NIE8320MA123611-SAMTI/TOYOTA HILUX CD4X4 SRV                     PARTICULAR                    CAMINHONETE     VERDE     00000000JOACI PEREIRA DA SILVA                      RUA CASTELO BRANCO NR. 1110             - CAMPO BELEM                           65600010CAXIAS              MADIR.VEIC. UTILIZANDO-SE DE TELEFONE CELULAR       252 * VI           00000000073662   000013016007572019112320200106319036678791630000001041285600000001304120332060512007574719203667879163700000000000  000   2     00040425680700473662ESPECIAL
2100000000467120191122207570PREF. DE: MA - CAXIAS                   CXA0076541201909111615AV LUIS SALES                                               PSG4629MA123611-SAMTHONDA/NXR150 BROS ES                         PARTICULAR                    MOTOCICLETA     PRETA     00000000MARIANA VIEIRA DAMASCENO                    RUA 7 DE SETEMBRO NR. 436               - TRIZIDELA                             65607350CAXIAS              MACOND. MOTOC/MOTON./CICLOM TRANSPORTANDO/PASSAG.S/C244 * II           00000000070481   000029347007572019112320200106319036678792400000002347785640000002734770332060112007574419903667879240300000000000  000   3     00070425680957070481PASSAGEIRO
2100000000467120191122207570PREF. DE: MA - CAXIAS                   CXA0076540201909111625AV LUIS SALES                                               PSD2229MA123611-SAMTHONDA/POP100                                 PARTICULAR                    MOTOCICLETA     PRETA     00000000ALMIR DA CONCEICAO MAGALHAES                RUA EDSON LOBAO QD 18 NR. 227           - MUTIRAO                               65604885CAXIAS              MACOND. MOTOC/MOTON./CICLOM TRANSPORTANDO/PASSAG.S/C244 * II           00000000070481   000029347007572019112320200106319036678793280000002347785670000002434770332060112007574419903667879328600000000000  000   4     00070425681057970481PASSAGEIRO
2100000000467120191122207570PREF. DE: MA - CAXIAS                   CXA0076539201909111615AV LUIS SALES                                               OJN0330MA123611-SAMTHONDA/CG 150 FAN ESI                         PARTICULAR                    MOTOCICLETA     VERMELHA  00000000ANTONIEL OLIVEIRA VIEIRA                    TRAV JOSE TADEU NR. 544                 - PONTE                                 65600000CAXIAS              MACOND. MOTOC/MOTON./CICLOM TRANSPORTANDO/PASSAG.S/C244 * II           00000000070481   000029347007572019112320200106319036678794050000002347785630000002834770332060112007574419903667879405200000000000  000   5     00070425681070670481PASSAGEIRO
2100000000467120191122207570PREF. DE: MA - CAXIAS                   CXA0076547201909111750RUA 01 DE AGOSTO                                            OJM8574MA123611-SAMTHONDA/NXR125 BROS ES                         PARTICULAR                    MOTOCICLETA     PRETA     00000000EDINETE DA SILVA P RODRIGUES                TV DQ DE CAXIAS NR. 521                 - NOVA CAXIAS                           65604300CAXIAS              MACOND. MOTOC/MOTON./CICLOM TRANSPORTANDO/PASSAG.S/C244 * II           00000000070481   000029347007572019112320200106319036678795920000002347785680000002334770332060112007574419903667879592700000000000  000   6     00070425681145170481PASSAGEIRO
2100000000467120191122207570PREF. DE: MA - CAXIAS                   CXA0076546201909111745RUA 01 DE AGOSTO                                            OIR8403MA123611-SAMTYAMAHA/FACTOR YBR125 K                       PARTICULAR                    MOTOCICLETA     PRETA     00000000LETICIA DE CASSIA M DA SILVA                TRAV DA RUA 02 NR. 977                  - TAMARINEIRO                           65600000CAXIAS              MACOND. MOTOC/MOTON./CICLOM TRANSPORTANDO/PASSAG.S/C244 * II           00000000070481   000029347007572019112320200106319036678796700000002347785620000002934770332060112007574419903667879670100000000000  000   7     00070425681269570481PASSAGEIRO
2100000000467120191122207570PREF. DE: MA - CAXIAS                   CXA0076545201909111740RUA 01 DE AGOSTO                                            PTH1569MA123611-SAMTHONDA/CG 160 TITAN                           PARTICULAR                    MOTOCICLETA     PRETA     00000000MARIA FERREIRA DA SILVA                     PV SANTA FILOMENA NR. S/N               - ZONA RURAL                            65615000SAO JOAO DO SOTER   MACOND. MOTOC/MOTON./CICLOM TRANSPORTANDO/PASSAG.S/C244 * II           00000000070481   000029347007572019112320200106319036678797570000002347785670000002434770332060112007574419903667879757600000000000  000   8     00070425681345470481PASSAGEIRO
2100000000467120191122207570PREF. DE: MA - CAXIAS                   CXA0076543201909111715AV LUIS SALES                                               PSD6398MA123611-SAMTHONDA/CG150 FAN ESDI                         PARTICULAR                    MOTOCICLETA     VERMELHA  00000000ATANIAS LEDA DOS SANTOS                     ET SOARA NR. SN                         SAO BENTO - ZONA RURAL                  65943000FORMOSA DA S.NEGRA  MACOND. MOTOC/MOTON./CICLOM TRANSPORTANDO/PASSAG.S/C244 * II           00000000070481   000029347007572019112320200106319036678798340000002347785640000002734770332060112007574419903667879834300000000000  000   9     00070425681372170481PASSAGEIRO
2100000000467120191122207570PREF. DE: MA - CAXIAS                   CXA0077405201909121700PCA DO PANTHEON                                             PTG2068MA78162-SAMT HONDA/NXR160 BROS ESDD                       PARTICULAR                    MOTOCICLETA     VERMELHA  00000000ANTONIO BASTOS NETO                         RUA CANDIDO ALVES NR. 463               - TREZIDELA                             65607430CAXIAS              MAAVANCAR SINAL VERMELHO DO SEMAFORO                208                00000000060501   000029347007572019112320200106319036678799110000002347785600000002134770332060112007574419903667879911900000000000  000   10    00070425681388860501PASSAGEIRO
2100000000467120191122207570PREF. DE: MA - CAXIAS                   CXA0077103201909121105TRAV SENADOR COSTA RODRIGUES                                OJB1555MA122061-SAMTCHEVROLET/CELTA 1.0L LS                      ALUGUEL                       AUTOMOVEL       VERMELHA  00000000MARIA DA PAZ MOTA RODRIGUES                 R 20 NR. 12                             QD B09 - TESO DURO                      65600010CAXIAS              MAESTAC. EM DESACORDO C/ A REGULAMENTACAO ESPECIFICA181 * XVII         00000000055411   000019523007572019112320200106319036678800940000001561885680000001556180332060612007574419903667880094100000000000  000   11    00050425681407855411PASSAGEIRO
2100000000467120191122207570PREF. DE: MA - CAXIAS                   CXA0076735201909120930RUA GUSTAVO COLACO                                          NMQ3535MA305941-SAMTHONDA/CG 125 FAN                             PARTICULAR                    MOTOCICLETA     PRETA     00000000JOAO GOMES DA CONCEICAO                     RUA VENEZA NR. N-222                    - FUMO VERDE                            65600000CAXIAS              MAESTAC. EM DESACORDO C/ A REGULAMENTACAO ESPECIFICA181 * XVII         00000000055411   000019523007572019112320200106319036678801710000001561885640000001956180332060612007574419903667880171700000000000  000   12    00050425681441855411PASSAGEIRO
2100000000467120191122207570PREF. DE: MA - CAXIAS                   CXA0076733201909120925RUA GUSTAVO COLACO                                          NXD1030MA305941-SAMTHONDA/POP100                                 PARTICULAR                    MOTOCICLETA     VERMELHA  00000000MARIA DA C DOS SANTOS DAMASCENO             TRAV CAJUEIRO NR. 1474                  - SERIEMA                               65600000CAXIAS              MAESTAC. EM DESACORDO C/ A REGULAMENTACAO ESPECIFICA181 * XVII         00000000055411   000019523007572019112320200106319036678802590000001561885670000001656180332060612007574419903667880259000000000000  000   13    00050425681455855411PASSAGEIRO
2100000000467120191122207570PREF. DE: MA - CAXIAS                   CXA0076731201909120805AV GENERAL SAMPAIO                                          OJP6510MA305941-SAMTHONDA/POP100                                 PARTICULAR                    MOTOCICLETA     AZUL      00000000JEFFERSON FRANCISCO DOS S LIMA              RUA N SRA DE FATIMA NR. 215             - BELA VISTA                            65600000CAXIAS              MACOND. MOTOCICLETA/MOTONETA/CICLOM S/CAPACETE DE SE244 * I            00000000070301   000029347007572019112320200106319036678803360000002347785640000002734770332060112007574719203667880336600000000000  000   14    00070425681465570301PASSAGEIRO
2100000000467120191122207570PREF. DE: MA - CAXIAS                   CXA0075230201909130840COMPLEXO GENTIL FILHO                                       OIU3838MA122111-SAMTHONDA/CB 300R                                PARTICULAR                    MOTOCICLETA     AMARELA   00000000DAYANE MASCEDO COSTA                        RUA MONTE CASTELO NR. 1655              - VOLTA REDONDA                         65606380CAXIAS              MAESTAC. EM LOCAL/HORARIO PROIBIDO ESPECIFIC. P/SINA181*XVIII          00000000055500   000013016007572019112320200106319036656922600000001041285660000001704120332060512007574419903665692260000000000000  000   15    00040425681599655500PASSAGEIRO
2100000000467120191122207570PREF. DE: MA - CAXIAS                   CXA0077402201909130905PCA CANDIDO MENDES                                          OIY8746MA78162-SAMT HONDA/POP100                                 PARTICULAR                    MOTOCICLETA     ROXA      00000000ROSALINA DA SILVA                           RUA RIO BRANCO NR. N-236                - CENTRO                                65600000CAXIAS              MAESTAC. EM DESACORDO C/ A REGULAMENTACAO ESPECIFICA181 * XVII         00000000055411   000019523007572019112320200106319036678804130000001561885600000001356180332060612007574419903667880413300000000000  000   16    00050425681736055411PASSAGEIRO
2100000000467120191122207570PREF. DE: MA - CAXIAS                   CXA0077403201909130915PCA CANDIDO MENDES                                          OJG4283MA78162-SAMT HONDA/CG 150 FAN ESI                         PARTICULAR                    MOTOCICLETA     PRETA     00000000ELIVELTON CHAVES DOS SANTOS                 RUA CEARENSE NR. SN                     POV STA LUZIA - ZONA RURAL              65762000SAO JOSE DOS BASILIOMACOND. MOTOC/MOTON./CICLOM TRANSPORTANDO/PASSAG.S/C244 * II           00000000070481   000029347007572019112320200106319036678805000000002347785680000002334770332060112007574419903667880500700000000000  000   17    00070425681786770481PASSAGEIRO
2100000000467120191122207570PREF. DE: MA - CAXIAS                   CXA0077404201909130950AV OTAVIO PASSOS                                            PTD7085MA78161-SAMT HONDA/POP 110I                               PARTICULAR                    MOTOCICLETA     BRANCA    00000000FRANCISCA LELES B C O DOS SANTOS            RUA DA FELICIDADE QD-A15 NR. N-11       RES EUG COUTINHO - TESO DURO            65604597CAXIAS              MAESTAC. EM DESACORDO C/ A REGULAMENTACAO ESPECIFICA181 * XVII         00000000055411   000019523007572019112320200106319036678806880000001561885670000001656180332060612007574419903667880688000000000000  000   18    00050425685157755411PASSAGEIRO
2100000000467120191122207570PREF. DE: MA - CAXIAS                   CXA0077409201909181730PCA CANDIDO MENDES                                          OJI3525MA78162-SAMT HONDA/BIZ 100 KS                             PARTICULAR                    MOTONETA        PRETA     00000000ANGELYCA INGRID DOS SANTOS NUNES            RUA DJALMA DUTRA NR. 901                               E - AREIA                65700000BACABAL             MACOND. MOTOC/MOTON./CICLOM TRANSPORTANDO/PASSAG.S/C244 * II           00000000070481   000029347007572019112320200106319036678807650000002347785670000002434770332060112007574419903667880765600000000000  000   19    00070425685196870481PASSAGEIRO
2100000000467120191122207570PREF. DE: MA - CAXIAS                   CXA0077313201909131740PCA MAGALHAES DE ALMEIDA                                    OJH5610MA123611-SAMTYAMAHA/YBR125 FACTOR K                       PARTICULAR                    MOTOCICLETA     PRETA     00000000SALOMAO LEITAO POVOAS                       RUA ESPIRITO SANTO NR. 627              - SIRIEMA                               65600000CAXIAS              MACOND. MOTOC/MOTON./CICLOM TRANSPORTANDO/PASSAG.S/C244 * II           00000000070481   000029347007572019112320200106319036678808420000002347785640000002734770332060112007574419903667880842300000000000  000   20    00070425685329470481PASSAGEIRO
2100000000467120191122207570PREF. DE: MA - CAXIAS                   CXA0077215201909131545PCA CANDIDO MENDES                                          OJF2468MA122131-SAMTHONDA/CG 125 FAN KS                          PARTICULAR                    MOTOCICLETA     PRETA     00000000FRANCISCO DOS SANTOS SILVA                  RUA 24 DE JUNHO NR. N 20                Q C4 - R VL PARAISO                     65606820CAXIAS              MACOND. MOTOC/MOTON./CICLOM TRANSPORTANDO/PASSAG.S/C244 * II           00000000070481   000029347007572019112320200106319036678809200000002347785680000002334770332060112007574419903667880920700000000000  000   21    00070425685471170481PASSAGEIRO
2100000000467120191122207570PREF. DE: MA - CAXIAS                   CXA0077210201909131230RUA BOM PASTOR                                              OXX6768MA122131-SAMTHONDA/CG150 FAN ESDI                         PARTICULAR                    MOTOCICLETA     VERMELHA  00000000WILIO SOARES DE SOUSA                       RUA 02 NR. 227                          - VL BANDEIRANTE                        65638900TIMON               MAAVANCAR SINAL VERMELHO DO SEMAFORO                208                00000000060501   000029347007572019112320200106319036678810600000002347785620000002934770332060112007574419903667881060100000000000  000   22    00070425685510660501PASSAGEIRO
2100000000467120191122207570PREF. DE: MA - CAXIAS                   CXA0076550201909131420PCA CANDIDO MENDES                                          PSO9716MA123611-SAMTFIAT/TORO FREEDOM AT                         PARTICULAR                    CAMINHONETE     VERMELHA  00000000PEDRO JONAS FILGUEIRAS SILVA                R CENTRO OESTE NR. 07                   QUADRA 03 - PLANALTO TURU III           65066660SAO LUIS            MAESTAC. VEIC. NAS ESQU. E MENOS DE 5M DO ALINHAMENT181 * I            00000000053800   000013016007572019112320200106319036678811480000001041285600000001304120332060512007574419903667881148400000000000  000   23    00040425685637453800ESPECIAL
2100000000467120191122207570PREF. DE: MA - CAXIAS                   CXA0076689201909160834RUA RIO BRANCO                                              PTF3087MA306051-SAMTHONDA/POP 110I                               PARTICULAR                    MOTOCICLETA     VERMELHA  00000000JAILSON DA SILVA RODRIGUES                  TV RIO BRANCO NR. 2108                  - VOLTA REDONDA                         65606490CAXIAS              MAESTAC. EM DESACORDO C/ A REGULAMENTACAO ESPECIFICA181 * XVII         00000000055411   000019523007572019112320200106319036678812250000001561885670000001656180332060612007574419903667881225000000000000  000   24    00050425699114055411PASSAGEIRO
2100000000467120191122207570PREF. DE: MA - CAXIAS                   CXA0077307201909131640RUA 01 DE AGOSTO                                            OXZ0719MA123611-SAMTHONDA/NXR150 BROS ES                         PARTICULAR                    MOTOCICLETA     PRETA     00000000AFRANIO FRANKLIN RODRIGUES LEITE            RUA 25 QD 29 NR. 29                     - COHAB                                 65600000CAXIAS              MACOND. MOTOC/MOTON./CICLOM TRANSPORTANDO/PASSAG.S/C244 * II           00000000070481   000029347007572019112320200106319036678813020000002347785680000002334770332060112007574419903667881302700000000000  000   25    00070425704811570481PASSAGEIRO
2100000000467120191122207570PREF. DE: MA - CAXIAS                   CXA0077308201909131645RUA 01 DE AGOSTO                                            OXU8254MA123611-SAMTCHEVROLET/ONIX 1.0MT LT                      PARTICULAR                    AUTOMOVEL       BRANCA    00000000ANTONIO SOUSA DOS SANTOS                    AV TANCREDO NEVES NR. 597               - VILA MILITAR                          65760000PRESIDENTE DUTRA    MADIR.VEIC. UTILIZANDO-SE DE TELEFONE CELULAR       252 * VI           00000000073662   000013016007572019112320200106319036678814900000001041285630000001004120332060512007574719203667881490000000000000  000   26    00040425705086173662PASSAGEIRO
2100000000467120191122207570PREF. DE: MA - CAXIAS                   CXA0077309201909131650RUA 01 DE AGOSTO                                            OJB7588MA123611-SAMTHONDA/POP100                                 PARTICULAR                    MOTOCICLETA     PRETA     00000000RICARDO LIMA DE SOUSA                       TRAV PALMEIRINHA     NR. NR. 190        - ENGENHO                               65725000PEDREIRAS           MACOND. MOTOC/MOTON./CICLOM TRANSPORTANDO/PASSAG.S/C244 * II           00000000070481   000029347007572019112320200106319036678815770000002347785650000002634770332060112007574419903667881577400000000000  000   27    00070425705270870481PASSAGEIRO
2100000000467120191122207570PREF. DE: MA - CAXIAS                   CXA0077311201909131705RUA 01 DE AGOSTO                                            NNA5650MA123611-SAMTHONDA/BIZ 125 ES                             PARTICULAR                    MOTONETA        ROSA      00000000LUIS MARIANO FIGUEIRA FERREIRA              RUA FREI SERAFIM NR. 1640               - NOVA CAXIAS                           65600000CAXIAS              MACOND. MOTOCICLETA/MOTONETA/CICLOM S/CAPACETE DE SE244 * I            00000000070301   000029347007572019112320200106319036678816540000002347785690000002234770332060112007574719203667881654100000000000  000   28    00070425705409370301PASSAGEIRO
2100000000467120191122207570PREF. DE: MA - CAXIAS                   CXA0077303201909131600RUA 01 DE AGOSTO                                            OUB6747MA123611-SAMTI/FIAT SIENA EL 1.4 FLEX                     PARTICULAR                    AUTOMOVEL       BRANCA    00000000ESLEIDSON PEREIRA DA SILVA                  R SANTA LUZIA NR. SN                    - CENTRO                                65615000SAO JOAO DO SOTER   MADIR.VEIC. UTILIZANDO-SE DE TELEFONE CELULAR       252 * VI           00000000073662   000013016007572019112320200106319036678817310000001041285600000001304120332060512007574719203667881731700000000000  000   29    00040425705539173662PASSAGEIRO
2100000000467120191122207570PREF. DE: MA - CAXIAS                   CXA0077301201909131425RUA 01 DE AGOSTO                                            NWX1474MA123611-SAMTHONDA/BIZ 125 KS                             PARTICULAR                    MOTONETA        PRETA     00000000ELINALDA DOS SANTOS RODRIGUES               RUA AEROPORTO NR. 2422                  - SAO FRANCISCO                         65600000CAXIAS              MACOND. MOTOC/MOTON./CICLOM TRANSPORTANDO/PASSAG.S/C244 * II           00000000070481   000029347007572019112320200106319036678818190000002347785610000002034770332060112007574419903667881819000000000000  000   30    00070425705747570481PASSAGEIRO
2100000000467120191122207570PREF. DE: MA - CAXIAS                   CXA0077223201909131740PCA MAGALHAES DE ALMEIDA                                    PTJ2126MA122131-SAMTHONDA/CG 160 TITAN                           PARTICULAR                    MOTOCICLETA     VERMELHA  00000000FERDINAND SOARES DA SILVA                   RUA PRIMEIRO DE AGOSTO NR. 409          - PONTE                                 65609340CAXIAS              MACOND. MOTOC/MOTON./CICLOM TRANSPORTANDO/PASSAG.S/C244 * II           00000000070481   000029347007572019112320200106319036678819060000002347785660000002534770332060112007574419903667881906500000000000  000   31    00070425705862570481PASSAGEIRO
2100000000467120191122207570PREF. DE: MA - CAXIAS                   CXA0077220201909131650PCA CANDIDO MENDES                                          NXJ3835MA122131-SAMTHONDA/POP100                                 PARTICULAR                    MOTOCICLETA     VERMELHA  00000000SIMONE ALVES DE ALMEIDA                     RUA ESPIRITO SANTO NR. 1413             - CANGALHEIRO                           65600000CAXIAS              MACOND. MOTOC/MOTON./CICLOM TRANSPORTANDO/PASSAG.S/C244 * II           00000000070481   000029347007572019112320200106319036678820370000002347785690000002234770332060112007574419903667882037800000000000  000   32    00070425705998270481PASSAGEIRO
2100000000467120191122207570PREF. DE: MA - CAXIAS                   CXA0077222201909131700PCA CANDIDO MENDES                                          OJF8955MA122131-SAMTHONDA/BIZ 125 ES                             PARTICULAR                    MOTONETA        VERMELHA  00000000RAIMUNDO MEDEIROS BEZERRA                   RUA DO ESPIRITO SANTO NR. 1636          - CANGALHEIRO                           65606290CAXIAS              MACOND. MOTOC/MOTON./CICLOM TRANSPORTANDO/PASSAG.S/C244 * II           00000000070481   000029347007572019112320200106319036678821140000002347785660000002534770332060112007574419903667882114500000000000  000   33    00070425706140570481PASSAGEIRO
2100000000467120191122207570PREF. DE: MA - CAXIAS                   CXA0077310201909131705RUA 01 DE AGOSTO                                            OJA6009MA123611-SAMTHONDA/POP100                                 PARTICULAR                    MOTOCICLETA     PRETA     00000000FRANCILENE RAMOS ROCHA                      RUA SEGISNANDO MOURA NR. 742            - PONTE                                 65600000CAXIAS              MACOND. MOTOC/MOTON./CICLOM TRANSPORTANDO/PASSAG.S/C244 * II           00000000070481   000029347007572019112320200106319036678822010000002347785610000002034770332060112007574419903667882201000000000000  000   34    00070425706207070481PASSAGEIRO
2100000000467120191122207570PREF. DE: MA - CAXIAS                   CXA0077216201909131550PCA CANDIDO MENDES                                          PSF9663MA122131-SAMTHONDA/BIZ 100 KS                             PARTICULAR                    MOTONETA        VERMELHA  00000000SONIA GORETE SILVA CHAGAS                   TV SAO JOSE NR. 578                     - JOSE CASTRO                           65604720CAXIAS              MACOND. MOTOC/MOTON./CICLOM TRANSPORTANDO/PASSAG.S/C244 * II           00000000070481   000029347007572019112320200106319036678823890000002347785640000002734770332060112007574419903667882389300000000000  000   35    00070425706610570481PASSAGEIRO
2100000000467120191122207570PREF. DE: MA - CAXIAS                   CXA0077217201909131635PCA CANDIDO MENDES                                          OJL5734MA122131-SAMTHONDA/POP100                                 PARTICULAR                    MOTOCICLETA     PRETA     00000000KALIANE PRICILA A DA CONCEICAO              RUA 13 QD C-15 NR. 12                   - TESO DURO                             65600000CAXIAS              MACOND. MOTOC/MOTON./CICLOM TRANSPORTANDO/PASSAG.S/C244 * II           00000000070481   000029347007572019112320200106319036678824660000002347785600000002134770332060112007574419903667882466900000000000  000   36    00070425706740370481PASSAGEIRO
2100000000467120191122207570PREF. DE: MA - CAXIAS                   CXA0077218201909131635PCA CANDIDO MENDES                                          NHS4490MA122131-SAMTHONDA/CBX 250 TWISTER                        PARTICULAR                    MOTOCICLETA     PRETA     00000000ANTONIO EDSON RODRIGUES JUNIOR              RUA SIQUEIRA CAMPOS NR NR. 374          - CENTRO                                65600000CAXIAS              MACOND. MOTOC/MOTON./CICLOM TRANSPORTANDO/PASSAG.S/C244 * II           00000000070481   000029347007572019112320200106319036678825430000002347785660000002534770332060112007574419903667882543500000000000  000   37    00070425706794270481PASSAGEIRO
2100000000467120191122207570PREF. DE: MA - CAXIAS                   CXA0077219201909131642PCA CANDIDO MENDES                                          OJJ5589MA122131-SAMTHONDA/NXR150 BROS ES                         PARTICULAR                    MOTOCICLETA     PRETA     00000000ALDILENE LOURENCO LIMA                      AV SAO JOSE NR. N1156                   - MUNDO NOVO                            65923000AMARANTE DO MARANHAOMACOND. MOTOC/MOTON./CICLOM TRANSPORTANDO/PASSAG.S/C244 * II           00000000070481   000029347007572019112320200106319036678826200000002347785620000002934770332060112007574419903667882620100000000000  000   38    00070425706842670481PASSAGEIRO
2100000000467120191122207570PREF. DE: MA - CAXIAS                   CXA0076688201909130740RUA MENINO DEUS                                             NXE4913MA306051-SAMTHONDA/POP100                                 PARTICULAR                    MOTOCICLETA     PRETA     00000000JOSEANE PEREIRA DA S S COSTA                TV SIQUEIRA CAMPOS NR. 344              - OLHO D'AGUA                           65608050CAXIAS              MACOND. MOTOCICLETA/MOTONETA/CICLOM S/CAPACETE DE SE244 * I            00000000070301   000029347007572019112320200106319036678827080000002347785620000002934770332060112007574719203667882708400000000000  000   39    00070425706926070301PASSAGEIRO
2100000000467120191122207570PREF. DE: MA - CAXIAS                   CXA0076687201909130725HOSPITAL GENTIL FILHO                                       PTN2111MA306051-SAMTYAMAHA/YBR125I FACTOR ED                     PARTICULAR                    MOTOCICLETA     PRETA     00000000ANDREIA BATISTA DOS REIS                    RUA SAO JOAO NR. 560                    - SERIEMA                               65602370CAXIAS              MAESTAC. EM DESACORDO C/ A REGULAMENTACAO ESPECIFICA181 * XVII         00000000055411   000019523007572019112320200106319036678828950000001561885660000001756180332060612007574419903667882895900000000000  000   40    00050425707114155411PASSAGEIRO
2100000000467120191122207570PREF. DE: MA - CAXIAS                   CXA0076740201909160850AV GENERAL SAMPAIO                                          PTI1734MA305941-SAMTHONDA/POP 110I                               PARTICULAR                    MOTOCICLETA     VERMELHA  00000000WENDEL DE JESUS SANTOS                      RUA 07 QD-C03 NR. N-24                  RES EUG COUTINHO - TESO DURO            65604550CAXIAS              MACOND. MOTOCICLETA/MOTONETA/CICLOM S/CAPACETE DE SE244 * I            00000000070301   000029347007572019112320200106319036678829720000002347785640000002734770332060112007574719203667882972600000000000  000   41    00070425707335770301PASSAGEIRO
2100000000467120191122207570PREF. DE: MA - CAXIAS                   CXA0077224201909161750PCA CANDIDO MENDES                                          PSX3857MA122131-SAMTHONDA/POP 110I                               PARTICULAR                    MOTOCICLETA     VERMELHA  00000000ANTONIO GLECIO DA SILVA DIAS                RUA SALVADOR BARBOSA NR. 1311           - NOVA CAXIAS                           65604800CAXIAS              MACOND. MOTOC/MOTON./CICLOM TRANSPORTANDO/PASSAG.S/C244 * II           00000000070481   000029347007572019112320200106319036678830030000002347785600000002134770332060112007574419903667883003900000000000  000   42    00070425707516370481PASSAGEIRO
2100000000467120191122207570PREF. DE: MA - CAXIAS                   CXA0077225201909161800PCA CANDIDO MENDES                                          PSN4489MA122131-SAMTHONDA/POP 110I                               PARTICULAR                    MOTOCICLETA     PRETA     00000000RITA DE KASSYA BACELAR CORREA               RUA TRINTA E UM DE MARCO NR. 2133       - SERIEMA                               65602320CAXIAS              MACOND. MOTOC/MOTON./CICLOM TRANSPORTANDO/PASSAG.S/C244 * II           00000000070481   000029347007572019112320200106319036678831900000002347785650000002634770332060112007574419903667883190400000000000  000   43    00070425707751470481PASSAGEIRO
2100000000467120191122207570PREF. DE: MA - CAXIAS                   CXA0077226201909161505PCA CANDIDO MENDES                                          PSM8727MA122131-SAMTHONDA/POP 110I                               PARTICULAR                    MOTOCICLETA     VERMELHA  00000000JESSILENE OLIVEIRA PEREIRA                  RUA DO TAMARINEIRO NR. 434              - TREZIDELA                             65608230CAXIAS              MACOND. MOTOC/MOTON./CICLOM TRANSPORTANDO/PASSAG.S/C244 * II           00000000070481   000029347007572019112320200106319036678832780000002347785680000002334770332060112007574419903667883278700000000000  000   44    00070425708017570481PASSAGEIRO
2100000000467120191122207570PREF. DE: MA - CAXIAS                   CXA0076532201909131550RUA 01 DE AGOSTO                                            PSJ4938MA123611-SAMTHONDA/POP100                                 PARTICULAR                    MOTOCICLETA     VERMELHA  00000000JOSIAS ALVES VIEIRA JUNIOR                  R. GETULIO VARGAS NR. SN                - BELA VISTA                            65645000MATOES              MACOND. MOTOC/MOTON./CICLOM TRANSPORTANDO/PASSAG.S/C244 * II           00000000070481   000029347007572019112320200106319036678833550000002347785640000002734770332060112007574419903667883355300000000000  000   45    00070425710651470481PASSAGEIRO
3000044000000000044
