1*NIPI208610201912300041702019123000000000000000
2100000000417020191230208610PREF. DE: MA - PEDREIRAS                PYA0019613201911090749AVENIDA RIO BRANCO                                          OJD9190MA051/2019   HONDA/NXR150 BROS ES                         PARTICULAR                    MOTOCICLETA     PRETA     00000000JOSE LEONILDO DE ARAUJO SILVA               RUA PRINCIPAL NR. S/N                   POV PALMEIRAL - ZONA RURAL              65750000ESPERANTINOPOLIS    MAAVANCAR SINAL VERMELHO DO SEMAFORO                208                00000000060501   000029347008612019123120200213319036722100230000002347785650000002634770332130222008614419703672210023100000000000  000   2     00070432955637560501PASSAGEIRO
2100000000417020191230208610PREF. DE: MA - PEDREIRAS                PYA0021101201911051055RUA CRESCENCIO RAPOSO                                       NXI1760MA6301-1     HONDA/BIZ 125 ES                             PARTICULAR                    MOTONETA        ROSA      00000000FRANCISCA ERICA DA SILVA                    RUA MESSIAS FILHO NR. 579               - CENTRO                                65727000TRIZIDELA DO VALE   MATRANSIT. P/ CONTRAMAO EM VIAS C/ SENT. UNICO      186 * II           00000000057380   000029347008612019123120200213319036722101000000002347785610000002034770332130222008614419703672210100700000000000  000   3     00070432956244857380PASSAGEIRO
2100000000417020191230208610PREF. DE: MA - PEDREIRAS                PYA0020936201911061450AVENIDA RIO BRANCO                                          PSB0535MA137/98     FIAT/SIENA ESSENCE 1.6                       PARTICULAR                    AUTOMOVEL       PRATA     00000000LIDIVAM ALVES MONTEIRO                      RUA DO ACUDE NR. 1031                   - CENTRO                                65418000PERITORO            MAESTAC. EM LOCAL/HORARIO PROIBIDO ESPECIFIC. P/SINA181*XVIII          00000000055500   000013016008612019123120200213319036722102980000001041285680000001504120332130622008614419703672210298900000000000  000   4     00040432956346055500PASSAGEIRO
2100000000417020191230208610PREF. DE: MA - PEDREIRAS                PYA0021102201911052033RUA HABILHO MOTEIRO                                         OXY7675MA6301-1     HONDA/CG 150 TITAN EX                        PARTICULAR                    MOTOCICLETA     VERMELHA  00000000RODOLPHO PATRYCK DE MORAIS COSTA            RUA 06 QD 07 NR. 13                     CONJ PARQUE - DAS PALMEIRAS             65725000PEDREIRAS           MADEIXAR DE DAR PREF.PEDES/VEIC NAO MOTOR.FAIXA ELE 214 * I            00000000061220   000029347008612019123120200213319036722103750000002347785690000002234770332130222008614419703672210375500000000000  000   5     00070432956454861220PASSAGEIRO
2100000000417020191230208610PREF. DE: MA - PEDREIRAS                PYA0020926201910301030RUA MANECO REGO                                             OJF6035MA132/98     HONDA/NXR150 BROS ES                         PARTICULAR                    MOTOCICLETA     VERMELHA  00000000WALESSON AZEVEDO VIEIRA PINTO               RUA SAO JOAO NR. 69                     - ENGENHO                               65725000PEDREIRAS           MATRANSIT. P/ CONTRAMAO EM VIAS C/ SENT. UNICO      186 * II           00000000057380   000029347008612019123120200213319036722104520000002347785660000002534770332130222008614419703672210452200000000000  000   6     00070432956972857380PASSAGEIRO
2100000000417020191230208610PREF. DE: MA - PEDREIRAS                PYA0021068201911061040AVENIDA RIO BRANCO                                          HQD4065MA5795-1     HONDA/CG 125 FAN                             PARTICULAR                    MOTOCICLETA     AZUL      00000000CLEONE DAS NEVES DA C SANTOS                AV OTAVIO PASSOS NR. 415                - GOIABAL                               65725000PEDREIRAS           MAAVANCAR SINAL VERMELHO DO SEMAFORO                208                00000000060501   000029347008612019123120200213319036722105300000002347785690000002234770332130222008614419703672210530500000000000  000   7     00070432957317260501PASSAGEIRO
2100000000417020191230208610PREF. DE: MA - PEDREIRAS                PYA0021063201911121030PRACA DO MERCADO                                            NXI4469MA5795-1     HONDA/CG 125 FAN KS                          PARTICULAR                    MOTOCICLETA     PRETA     00000000CLAUDENOR DA C MARCAL                       RUA TEIXEIRA DE FREITAS NR. 1276        - CENTRO                                65700000BACABAL             MAESTAC. EM LOCAL/HORARIO PROIBIDO ESPECIFIC. P/SINA181*XVIII          00000000055500   000013016008612019123120200213319036722106170000001041285690000001404120332130622008614419703672210617000000000000  000   8     00040432957500055500PASSAGEIRO
2100000000417020191230208610PREF. DE: MA - PEDREIRAS                PYA0020928201910310830RUA MANECO REGO                                             PTB9611MA137/98     CHEV/PRISMA 1.4MT LT                         PARTICULAR                    AUTOMOVEL       PRETA     00000000LEONILSON DA CONCEICAO SILVA                TV SAO RAIMUNDO II NR. NR 38            - CENTRO                                65418000PERITORO            MATRANSIT. P/ CONTRAMAO EM VIAS C/ SENT. UNICO      186 * II           00000000057380   000029347008612019123120200213319036722107040000002347785600000002134770332130222008614419703672210704600000000000  000   9     00070432957544257380PASSAGEIRO
2100000000417020191230208610PREF. DE: MA - PEDREIRAS                PYA0021069201911080950AVENIDA RIO BRANCO                                          PTK7484MA5795-1     HONDA/POP 110I                               PARTICULAR                    MOTOCICLETA     VERMELHA  00000000MANOEL MESSIAS GOMES                        PV AROEIRA NR. SN                       - ZONA RURAL                            65728000LIMA CAMPOS         MAAVANCAR SINAL VERMELHO DO SEMAFORO                208                00000000060501   000029347008612019123120200213319036722108810000002347785660000002534770332130222008614419703672210881200000000000  000   10    00070432957805060501PASSAGEIRO
2100000000417020191230208610PREF. DE: MA - PEDREIRAS                PYA0020929201911012030RUA CRENCIO RAPOSO                                          NNA7458MA137/98     FIAT/PALIO FIRE ECONOMY                      PARTICULAR                    AUTOMOVEL       PRATA     00000000BERNARDO DA COSTA ARAUJO                    VP 05 QDA 23 CS N NR. 09                - COHAB II                              65700000BACABAL             MAESTACIONAR NA CONTRAMAO DE DIRECAO                181 * XV           00000000055250   000013016008612019123120200213319036722109690000001041285640000001904120332130622008614419703672210969500000000000  000   11    00040432957920055250PASSAGEIRO
2100000000417020191230208610PREF. DE: MA - PEDREIRAS                PYA0020927201910310810RUA MANECO REGO                                             NHP6861MA137/98     FIAT/IDEA ELX FLEX                           PARTICULAR                    AUTOMOVEL       PRETA     00000000ADALBERTO LACERDA RIBEIRO                   RUA GOIAS NR. 01                        CASA B - PQ MANGUEIRAS                  65901550IMPERATRIZ          MATRANSIT. P/ CONTRAMAO EM VIAS C/ SENT. UNICO      186 * II           00000000057380   000029347008612019123120200213319036722110000000002347785620000002934770332130222008614419703672211000800000000000  000   12    00070432958169857380PASSAGEIRO
2100000000417020191230208610PREF. DE: MA - PEDREIRAS                PYA0020990201911011056AV RIO BRANCO                                               HPR8886MA80-1       HONDA/C100 BIZ ES                            PARTICULAR                    MOTONETA        AZUL      00000000EDILENE AVELINO DOS ANJOS                   AV MARLY BOUERES NR. 1409               - MUTIRAO                               65725000PEDREIRAS           MAESTAC. EM LOCAL/HORARIO PROIBIDO ESPECIFIC. P/SINA181*XVIII          00000000055500   000013016008612019123120200213319036722111870000001041285620000001104120332130622008614419703672211187300000000000  000   13    00040432958511155500PASSAGEIRO
2100000000417020191230208610PREF. DE: MA - PEDREIRAS                PYA0021070201911081010AVENIDA RIO BRANCO                                          HPN6248MA5795-1     HONDA/CG 125 TITAN ES                        PARTICULAR                    MOTOCICLETA     AZUL      00000000JACIRO PEREIRA CASTRO                       RUA SALVACAO NR. 121                    - CENTRO                                65727000TRIZIDELA DO VALE   MAESTAC. EM LOCAL/HORARIO PROIBIDO ESPECIFIC. P/SINA181*XVIII          00000000055500   000013016008612019123120200213319036722112640000001041285690000001404120332130622008614419703672211264000000000000  000   14    00040432958729755500PASSAGEIRO
2100000000417020191230208610PREF. DE: MA - PEDREIRAS                PYA0021313201911121050ROD JOAO DO VALE                                            PTJ9303MA5812-1     HONDA/CG 160 FAN                             PARTICULAR                    MOTOCICLETA     VERMELHA  00000000MARINALVA LUZ SILVA                         RUA OURO VIVO NR. 403                   STO ANTONIO DOS - OLIVEIRAS             65727000TRIZIDELA DO VALE   MAEXECUTAR OPERACOES DE RETORNO NOS ACLIVES/DECLIVES206 * II           00000000060092   000029347008612019123120200213319036722113410000002347785600000002134770332130222008614419703672211341600000000000  000   15    00070432959100660092PASSAGEIRO
2100000000417020191230208610PREF. DE: MA - PEDREIRAS                PYA0021071201911081120AVENIDA RIO BRANCO                                          PSX1218MA5795-1     HONDA/POP 110I                               PARTICULAR                    MOTOCICLETA     VERMELHA  00000000WALDIRENE SEBASTIAO DIAS                    RUA ANGICAL NR. S/N                     - BAIXAO DO MESQU                       65725000PEDREIRAS           MAESTAC. EM LOCAL/HORARIO PROIBIDO ESPECIFIC. P/SINA181*XVIII          00000000055500   000013016008612019123120200213319036722114290000001041285680000001504120332130622008614419703672211429900000000000  000   16    00040432959319055500PASSAGEIRO
2100000000417020191230208610PREF. DE: MA - PEDREIRAS                PYA0021064201911061015RUA MANECO REGO                                             PSU1237MA5795-1     HONDA/CG 125I FAN                            PARTICULAR                    MOTOCICLETA     VERMELHA  00000000FRANCISCA RIZONETE DE S LIMA                RUA DA LARANJEIRA NR. SN                - CENTRO                                65720000IGARAPE GRANDE      MATRANSIT. P/ CONTRAMAO EM VIAS C/ SENT. UNICO      186 * II           00000000057380   000029347008612019123120200213319036722115060000002347785680000002334770332130222008614419703672211506400000000000  000   17    00070432959804357380PASSAGEIRO
2100000000417020191230208610PREF. DE: MA - PEDREIRAS                PYA0021311201911111555RUA MANECO REGO                                             NNC6454MA5812-1     HONDA/POP100                                 PARTICULAR                    MOTOCICLETA     VERMELHA  00000000SEBASTIAO LIMA BRITO                        RUA FLORESTA   CASA NR. NR. 062         - CENTRO                                65727000TRIZIDELA DO VALE   MATRANSIT. P/ CONTRAMAO EM VIAS C/ SENT. UNICO      186 * II           00000000057380   000029347008612019123120200213319036701501100000002347785660000002534770332130222008614419703670150110200000000000  000   18    00070432962175457380PASSAGEIRO
2100000000417020191230208610PREF. DE: MA - PEDREIRAS                PYA0021309201911111430RUA MANECO REGO                                             NMR5966MA5812-1     HONDA/CG 150 TITAN ES                        PARTICULAR                    MOTOCICLETA     PRETA     00000000DOMINGAS MESQUITA                           POVOADO NOVA LUZ NR. SN                 - ZONA RURAL                            65728000LIMA CAMPOS         MATRANSIT. P/ CONTRAMAO EM VIAS C/ SENT. UNICO      186 * II           00000000057380   000029347008612019123120200213319036722116930000002347785640000002734770332130222008614419703672211693000000000000  000   19    00070432962479657380PASSAGEIRO
2100000000417020191230208610PREF. DE: MA - PEDREIRAS                PYA0021308201911111425AVENIDA RIO BRANCO                                          NHC9376MA5812-1     HONDA/BIZ 125 KS                             PARTICULAR                    MOTONETA        PRETA     00000000JOAO FRANCISCO ALVES DA SILVA               RUA 13 A UNID 103 NR. NR 03             - CIDADE OPERARIA                       65058000SAO LUIS            MAESTAC. EM LOCAL/HORARIO PROIBIDO ESPECIFIC. P/SINA181*XVIII          00000000055500   000013016008612019123120200213319036722117700000001041285650000001804120332130622008614419703672211770600000000000  000   20    00040432962682955500PASSAGEIRO
2100000000417020191230208610PREF. DE: MA - PEDREIRAS                PYA0021307201911111420AVENIDA RIO  BRANCO                                         OXT6965MA5812-1     HONDA/CG150 FAN ESDI                         PARTICULAR                    MOTOCICLETA     PRETA     00000000MAGAIVER SA DE LIMA                         RUA 01 NR. 12                           - AUGUSTO LUNA                          65750000ESPERANTINOPOLIS    MAESTAC. EM LOCAL/HORARIO PROIBIDO ESPECIFIC. P/SINA181*XVIII          00000000055500   000013016008612019123120200213319036722118580000001041285680000001504120332130622008614419703672211858900000000000  000   21    00040432963044355500PASSAGEIRO
2100000000417020191230208610PREF. DE: MA - PEDREIRAS                PYA0021108201911112119RUA CRESCENCIO RAPOSO                                       OIS5327MA6301-1     HONDA/NXR150 BROS ES                         PARTICULAR                    MOTOCICLETA     PRETA     00000000E. DE J. D. DE ANDRADE                      RUA DO MATADOURO NR. N.143              - CENTRO                                65740000POCAO DE PEDRAS     MATRANSIT. P/ CONTRAMAO EM VIAS C/ SENT. UNICO      186 * II           00000000057380   000029347008612019123120200213319036722119350000002347785690000002234770332130222008614419703672211935500000000000  000   22    00070432963374457380PASSAGEIRO
2100000000417020191230208610PREF. DE: MA - PEDREIRAS                PYA0021107201911111440AVENIDA RIO BRANCO                                          HQA6745MA6301-1     HONDA/C100 BIZ                               PARTICULAR                    MOTONETA        VERDE     00000000MARIA LUISA DE SOUSA SILVA.                 AVENIDA FREITAS   CASA NR. NR.98        - SAO FRANCISCO                         65725000PEDREIRAS           MAESTAC. EM LOCAL/HORARIO PROIBIDO ESPECIFIC. P/SINA181*XVIII          00000000055500   000013016008612019123120200213319036722120760000001041285660000001704120332130622008614419703672212076700000000000  000   23    00040432964041455500PASSAGEIRO
2100000000417020191230208610PREF. DE: MA - PEDREIRAS                PYA0021106201911111111RUA EURICO RIBEIRO                                          NNE6070MA6301-1     HONDA/POP100                                 PARTICULAR                    MOTOCICLETA     PRETA     00000000FRANCILENE CAROLINA DA SILVA                AVENIDA ZECA BRANCO CASA NR. N.342      - BAIRRO MUTIRAO                        65725000PEDREIRAS           MATRANSIT. P/ CONTRAMAO EM VIAS C/ SENT. UNICO      186 * II           00000000057380   000029347008612019123120200213319036722121530000002347785680000002334770332130222008614419703672212153400000000000  000   24    00070432964632357380PASSAGEIRO
3000023000000000023
