1*NIPI209610201912240038192019122400000000000000
2100000000381920191224209610PREF. DE: MA - ACAILANDIA               ACA0032332201911010807R.SAO LUIS, CENTRO                                          PSV7065MA4445       FIAT/SIENA ATTRACTIV 1.4                     ALUGUEL                       AUTOMOVEL       BRANCA    00000000MARIA DERONILDE DOS S TAVEIRA               AV SETE DE SETEMBRO NR. 614             - CENTRO                                65395000BOM JESUS DAS SELVASMAAVANCAR SINAL VERMELHO DO SEMAFORO                208                00000000060501   000029347009612019122520200207319036717771270000002347785680000002334770332070022009614419503671777127700000000000  000   2     00070431733259060501PASSAGEIRO
2100000000381920191224209610PREF. DE: MA - ACAILANDIA               ACA0032333201911010808R.SAO LUIS, CENTRO                                          PSF9886MA4445       FIAT/SIENA ATTRACTIV 1.4                     PARTICULAR                    AUTOMOVEL       BRANCA    00000000RONALDO ALVARENGA COELHO PESSOA             R AMAZONAS NR. 218A                     - CENTRO                                65901520IMPERATRIZ          MAAVANCAR SINAL VERMELHO DO SEMAFORO                208                00000000060501   000029347008032019122520200207319036717772040000002347785670000002434770332070022008034419903671777204400000000000MA000   3     00070431734526960501PASSAGEIRO
2100000000381920191224209610PREF. DE: MA - ACAILANDIA               ACA0032334201911010809RUA SAO LUIS, CENTRO                                        PSJ4949MA4445       HONDA/POP100                                 PARTICULAR                    MOTOCICLETA     PRETA     00000000IRANILSON CARNEIRO DE SOUZA                 RUA SANTO AGOSTINHO NR. 570             - BOM SUCESSO                           65900090IMPERATRIZ          MAAVANCAR SINAL VERMELHO DO SEMAFORO                208                00000000060501   000029347009612019122520200207319036717773910000002347785600000002134770332070022009614419503671777391900000000000  000   4     00070431735244360501PASSAGEIRO
2100000000381920191224209610PREF. DE: MA - ACAILANDIA               ACA0032335201911010816RUA SAO LUIS, CENTRO                                        NXP9467MA4445       HONDA/BIZ 125 ES                             PARTICULAR                    MOTONETA        VERMELHA  00000000FRANCISCA VIANA DA SILVA                    QD88 LT219 NR.                          - VILA ILDEMAR                          65930000ACAILANDIA          MAAVANCAR SINAL VERMELHO DO SEMAFORO                208                00000000060501   000029347009612019122520200207319036717774790000002347785630000002834770332070022009614419503671777479200000000000  000   5     00070431735994460501PASSAGEIRO
2100000000381920191224209610PREF. DE: MA - ACAILANDIA               ACA0032336201911010837RUA SAO LUIS, CENTRO                                        PTK3934MA4445       HONDA/NXR 160 BROS                           PARTICULAR                    MOTOCICLETA     BRANCA    00000000RAFAEL SILVA A FERREIRA                     QD 96 NR. N 12                          - VL ILDEMAR                            65930000ACAILANDIA          MAAVANCAR SINAL VERMELHO DO SEMAFORO                208                00000000060501   000029347009612019122520200207319036717775560000002347785680000002334770332070022009614419503671777556700000000000  000   6     00070431737187160501PASSAGEIRO
2100000000381920191224209610PREF. DE: MA - ACAILANDIA               ACA0032337201911010847RUA SOA LUIS, CENTRO                                        OXX5803MA4445       HONDA/NXR150 BROS ES                         PARTICULAR                    MOTOCICLETA     BRANCA    00000000ANTONIO CELIO MARQUES DA SILVA              QD 180 NR. 339                          - VILA ILDEMAR                          65930000ACAILANDIA          MAAVANCAR SINAL VERMELHO DO SEMAFORO                208                00000000060501   000029347009612019122520200207319036717776330000002347785650000002634770332070022009614419503671777633400000000000  000   7     00070431737310660501PASSAGEIRO
2100000000381920191224209610PREF. DE: MA - ACAILANDIA               ACA0032338201911010858RUA SAO LUIS, CENTRO                                        HPX2770MA4445       YAMAHA/YBR 125E                              PARTICULAR                    MOTOCICLETA     PRETA     00000000ANTONIO DO NASCIMENTO                       QDA 109 LOTE  07 NR.                    - VILA ILDEMAR                          65930000ACAILANDIA          MAAVANCAR SINAL VERMELHO DO SEMAFORO                208                00000000060501   000029347009612019122520200207319036717777100000002347785610000002034770332070022009614419503671777710000000000000  000   8     00070431737487060501PASSAGEIRO
2100000000381920191224209610PREF. DE: MA - ACAILANDIA               ACA0032339201911010906RUA SAO LUIS, CENTRO                                        OIT6648MA4445       HONDA/CG 150 FAN ESI                         ALUGUEL                       MOTOCICLETA     AMARELA   00000000ANIBAL SILVA ALMEIDA LIMA                   RUA EDILSON GOMES QD 14 NR. N 13        - JD GLORIA III                         65930000ACAILANDIA          MAAVANCAR SINAL VERMELHO DO SEMAFORO                208                00000000060501   000029347009612019122520200207319036717778080000002347785630000002834770332070022009614419503671777808200000000000  000   9     00070431738469860501PASSAGEIRO
2100000000381920191224209610PREF. DE: MA - ACAILANDIA               ACA0032340201911010908RUA SAO LUIS, CENTRO                                        PSS6957MA4445       HONDA/NXR160 BROS ESDD                       PARTICULAR                    MOTOCICLETA     VERMELHA  00000000JORDANIA PEREIRA DUTRA                      AV BERNARDO SAYAO NR. 13                - MATADOURO                             65930000ACAILANDIA          MAAVANCAR SINAL VERMELHO DO SEMAFORO                208                00000000060501   000029347009612019122520200207319036717779850000002347785690000002234770332070022009614419503671777985800000000000  000   10    00070431739085060501PASSAGEIRO
2100000000381920191224209610PREF. DE: MA - ACAILANDIA               ACA0032341201911010911RUA SO LUIS, CENTRO                                         NWS4347MA4445       FORD/F350 G                                  PARTICULAR                    CAMINHAO        PRATA     00000000FRANCISCO DA CONCEICAO ROCHA                RUA RIO DE JANEIRO NR. N137             - CENTRO                                65930000ACAILANDIA          MAAVANCAR SINAL VERMELHO DO SEMAFORO                208                00000000060501   000029347009612019122520200207319036717780160000002347785620000002934770332070022009614419503671778016100000000000  000   11    00070431739740460501CARGA
2100000000381920191224209610PREF. DE: MA - ACAILANDIA               ACA0032342201911011014RUA SAO LUIS, CENTRO                                        PSY7331MA4445       HONDA/BIZ 125                                PARTICULAR                    MOTONETA        CINZA     00000000LILIANA PAIVA SANTOS                        RUA PIAUI NR. 1176                      - LARANJEIRAS                           65930000ACAILANDIA          MAAVANCAR SINAL VERMELHO DO SEMAFORO                208                00000000060501   000029347009612019122520200207319036717781030000002347785680000002334770332070022009614419503671778103700000000000  000   12    00070431739948260501PASSAGEIRO
2100000000381920191224209610PREF. DE: MA - ACAILANDIA               ACA0032343201911011047RUA SAO LUIS, CENTRO                                        PSJ2280MA4445       HONDA/CG150 FAN ESDI                         ALUGUEL                       MOTOCICLETA     AMARELA   00000000JOSE RODRIGUES DA CONCEICAO                 R RAIMUNDO P FILHO NR. 28               - VILA BOM JARDIM                       65930000ACAILANDIA          MAAVANCAR SINAL VERMELHO DO SEMAFORO                208                00000000060501   000029347009612019122520200207319036717782800000002347785640000002734770332070022009614419503671778280300000000000  000   13    00070431740180060501PASSAGEIRO
2100000000381920191224209610PREF. DE: MA - ACAILANDIA               ACA0032344201911011128RUA SAO LUIS, CENTRO                                        NXO7757MA4445       HONDA/BIZ 125 KS                             PARTICULAR                    MOTONETA        PRETA     00000000RAONY SOBRINHO GUIMARAES                    RUA 01 NR. LT05                         QD04 - PEQUIA                           65930000ACAILANDIA          MAAVANCAR SINAL VERMELHO DO SEMAFORO                208                00000000060501   000029347009612019122520200207319036717783680000002347785670000002434770332070022009614419503671778368600000000000  000   14    00070431740577660501PASSAGEIRO
2100000000381920191224209610PREF. DE: MA - ACAILANDIA               ACA0032345201911041006AV.BERNARDO SAYAO, CENTRO                                   PSB2693MA4445       CHEV/PRISMA 1.4AT LTZ                        PARTICULAR                    AUTOMOVEL       BRANCA    00000000JOSUE JOSE DA ROCHA                         RUA DO CONTORNO C NR. N 03              QD 02 LOTE 03 - JD GLORIA II            65930000ACAILANDIA          MAESTACIONAR AO LADO DE OUTRO VEICULO EM FILA DUPLA 181 * XI           00000000054870   000019523009612019122520200207319036717784450000001561885690000001456180332070522009614419503671778445200000000000  000   15    00050431740704354870PASSAGEIRO
2100000000381920191224209610PREF. DE: MA - ACAILANDIA               ACA0032346201911041018R.DORGIVAL P. SOUSA, CENTRO                                 OJI7409MA4445       CHEVROLET/CLASSIC LS                         PARTICULAR                    AUTOMOVEL       BRANCA    00000000OSANAN DE CASTRO LIMA                       QD 01 NR. LT19                          - VL BOM JARDIM                         65930000ACAILANDIA          MATRANSIT. P/ CONTRAMAO EM VIAS C/ SENT. UNICO      186 * II           00000000057380   000029347009612019122520200207319036717785220000002347785690000002234770332070022009614419503671778522800000000000  000   16    00070431740953457380PASSAGEIRO
2100000000381920191224209610PREF. DE: MA - ACAILANDIA               ACA0032626201911040907RUA CEARA N.437, CENTRO                                     OJA7394MA3157       FORD/ECOSPORT FSL 1.6                        PARTICULAR                    CAMIONETA       BRANCA    00000000ANTONIO LIMA DOS SANTOS                     RUA VALE DO RIO DOCE NR. LT18           QD15 - PLANO DA SERRA                   65930000ACAILANDIA          MAESTAC. EM LOCAL/HORARIO PROIBIDO ESPECIFIC. P/SINA181*XVIII          00000000055500   000013016009612019122520200207319036717786000000001041285680000001504120332070422009614419503671778600200000000000  000   17    00040431741617455500MISTO
2100000000381920191224209610PREF. DE: MA - ACAILANDIA               ACA0032627201911041012R.DUQUE DE CAXIAS N.727                                     PSV6167MA3157       VW/NOVO GOL TL MCV                           PARTICULAR                    AUTOMOVEL       VERMELHA  00000000ROSALIA SOUSA FRANCO                        R DUQUE DE CAXIAS NR. 727               - CENTRO                                65930000ACAILANDIA          MAESTACIONAR NO PASSEIO                             181 * VIII         00000000054521   000019523009612019122520200207319036717787970000001561885630000001056180332070522009614419503671778797600000000000  000   18    00050431745512954521PASSAGEIRO
2100000000381920191224209610PREF. DE: MA - ACAILANDIA               ACA0032628201911041016R.TACITO CALDAS, CENTRO                                     PTD0154MA3157       I/TOYOTA HILUX CDSRVA4FD                     PARTICULAR                    CAMINHONETE     BRANCA    00000000FERNANDA PORTO FIGUEREDO                    RUA DOM PEDRO I NR. N 597               - JACU                                  65930000ACAILANDIA          MAAVANCAR SINAL VERMELHO DO SEMAFORO                208                00000000060501   000029347009612019122520200207319036717788740000002347785640000002734770332070022009614419503671778874300000000000  000   19    00070431747271660501ESPECIAL
2100000000381920191224209610PREF. DE: MA - ACAILANDIA               ACA0032629201911041030AV.TACITO CALDAS, CENTRO                                    OJD0050MA3157       HONDA/BIZ 125 EX                             PARTICULAR                    MOTONETA        VERMELHA  00000000TAMIRES RIBEIRO LIMA                        QD 02 NR. N 12                          - RES JK                                65930000ACAILANDIA          MAULTRAP. VEICULOS MOTORIZADOS EM FILA PARADOS SINAL211                00000000060841   000019523009612019122520200207319036717789510000001561885630000001056180332070522009614719803671778951900000000000  000   20    00050431747510360841PASSAGEIRO
2100000000381920191224209610PREF. DE: MA - ACAILANDIA               ACA0032437201911011120R.RIO GRANDE PX. N.50, CENTRO                               NHE8442MA3165       SUNDOWN/STX MOTARD 200                       PARTICULAR                    MOTOCICLETA     PRETA     00000000JOSE ALBECY LEITE TORRES                    RUA SAO FRANCISCO NR. NR 01             QD 04 - VL BOM JARDIM                   65930000ACAILANDIA          MATRANSPOR BLOQUEIO VIARIO C/S SINALIZACAO OU DISP/A209                00000000060681   000019523009612019122520200207319036717790920000001561885650000001856180332070522009614719803671779092105795187011MA000   21    00050431747851060681PASSAGEIRO
2100000000381920191224209610PREF. DE: MA - ACAILANDIA               ACA0032438201911011220R.07 DE SETEMBRO, CENTRO                                    OJH6146MA3165       HONDA/BIZ 125 ES                             PARTICULAR                    MOTONETA        VERMELHA  00000000MARINALDA DE CARVALHO PEREIRA               RUA JOSE BONIFACIO NR. 425              - LARANJEIRAS                           65930000ACAILANDIA          MATRANSPOR BLOQUEIO VIARIO C/S SINALIZACAO OU DISP/A209                00000000060681   000019523009612019122520200207319036717791700000001561885690000001456180332070522009614719803671779170500000000000  000   22    00050431748071960681PASSAGEIRO
2100000000381920191224209610PREF. DE: MA - ACAILANDIA               ACA0032439201911041055R.DUQUE DE CAXIAS, CENTRO                                   OJL3386MA3165       HONDA/CB 300R                                PARTICULAR                    MOTOCICLETA     VERMELHA  00000000MARIA RAIMUNDA RIBEIRO SILVA                RUA TIRADENTES I NR. 860                - CENTRO                                65930000ACAILANDIA          MATRANSIT. P/ CONTRAMAO EM VIAS C/ SENT. UNICO      186 * II           00000000057380   000029347009612019122520200207319036717792570000002347785610000002034770332070022009614419503671779257000000000000  000   23    00070431748333557380PASSAGEIRO
2100000000381920191224209610PREF. DE: MA - ACAILANDIA               ACA0032440201911041224R.DUQUE DE CAXIAS, CENTRO                                   OIR7006MA3165       VW/SAVEIRO 1.6 CE CROSS                      PARTICULAR                    CAMINHONETE     BRANCA    00000000GILVANE DE JESUS NASCIMENTO                 R SAO MIGUEL NR. 19                     - PLANO DA SERRA                        65930000ACAILANDIA          MADIR.VEIC. UTILIZANDO-SE DE TELEFONE CELULAR       252 * VI           00000000073662   000013016009612019122520200207319036717793340000001041285600000001304120332070422009614719803671779334700000000000  000   24    00040431748392073662CARGA
2100000000381920191224209610PREF. DE: MA - ACAILANDIA               ACA0032506201911040951AV.TACITO CALDAS, CENTRO                                    PTD0154MA7760       I/TOYOTA HILUX CDSRVA4FD                     PARTICULAR                    CAMINHONETE     BRANCA    00000000FERNANDA PORTO FIGUEREDO                    RUA DOM PEDRO I NR. N 597               - JACU                                  65930000ACAILANDIA          MAAVANCAR SINAL VERMELHO DO SEMAFORO                208                00000000060501   000029347009612019122520200207319036717794110000002347785640000002734770332070022009614419503671779411300000000000  000   25    00070431748478160501ESPECIAL
2100000000381920191224209610PREF. DE: MA - ACAILANDIA               ACA0032505201911040942AV.TACITO CALDAS, CENTRO                                    NXE9294MA7760       FIAT/UNO MILLE WAY ECON                      PARTICULAR                    AUTOMOVEL       PRATA     00000000FLAVIO ARAUJO DOS SANTOS                    RUA GURUPI NR. N 100                    - VL SAMUEL                             65939000ITINGA DO MARANHAO  MADEIXAR O CONDUTOR DE USAR O CINTO E SEGURANCA     167                00000000051851   000019523009612019122520200207319036717795090000001561885680000001556180332070522009614719803671779509400000000000  000   26    00050431749423051851PASSAGEIRO
2100000000381920191224209610PREF. DE: MA - ACAILANDIA               ACA0032504201911040941AV.TACITO CALDAS, CENTRO                                    OSZ7060MA7760       YAMAHA/FAZER YS250                           PARTICULAR                    MOTOCICLETA     AZUL      00000000CLEYTON DAVID LOPES NASCIMENTO              QUADRA 88 NR. L194                      - VILA ILDEMAR                          65930000ACAILANDIA          MAAVANCAR SINAL VERMELHO DO SEMAFORO                208                00000000060501   000029347009612019122520200207319036717796860000002347785610000002034770332070022009614419503671779686000000000000  000   27    00070431750054060501PASSAGEIRO
2100000000381920191224209610PREF. DE: MA - ACAILANDIA               ACA0032503201911040931AV.TACITO CALDAS, CENTRO                                    OXZ2274MA7760       HONDA/POP100                                 PARTICULAR                    MOTOCICLETA     PRETA     00000000MARIA ILDENETE B DA SILVA                   RUA SAO RAIMUNDO NR. 55                 - VL IPIRANGA                           65930000ACAILANDIA          MAAVANCAR SINAL VERMELHO DO SEMAFORO                208                00000000060501   000029347009612019122520200207319036717797630000002347785680000002334770332070022009614419503671779763700000000000  000   28    00070431750384060501PASSAGEIRO
2100000000381920191224209610PREF. DE: MA - ACAILANDIA               ACA0032502201911040921AV.TACITO CALDAS, CENTRO                                    NHN4197MA7760       HONDA/CG 150 SPORT                           PARTICULAR                    MOTOCICLETA     VERMELHA  00000000ANA LEIDE DA SILVA A RODRIGUES              RUA COPAIBA NR. LT 15                   QD 292 - NV ACAILANDIA                  65930000ACAILANDIA          MAAVANCAR SINAL VERMELHO DO SEMAFORO                208                00000000060501   000029347009612019122520200207319036717798400000002347785640000002734770332070022009614419503671779840300000000000  000   29    00070431750671860501PASSAGEIRO
2100000000381920191224209610PREF. DE: MA - ACAILANDIA               ACA0032199201911041658RUA CEARA N. 502, CENTRO                                    OXR3988MA7760       I/TOYOTA HILUX CD4X4 SRV                     PARTICULAR                    CAMINHONETE     PRETA     00000000SERGIO PAIVA SANTOS                         RUA GAMELEIRA NR. LT 16                 QD 03 - NV ACAILANDIA 2                 65930000ACAILANDIA          MAESTAC. EM LOCAL/HORARIO PROIBIDO ESPECIFIC. P/SINA181*XVIII          00000000055500   000013016009612019122520200207319036717799280000001041285620000001104120332070422009614419503671779928600000000000  000   30    00040431752851755500ESPECIAL
2100000000381920191224209610PREF. DE: MA - ACAILANDIA               ACA0032236201910311056R.BOM JESUS, CENTRO                                         OFW3367MA3084       FORD/FIESTA SEDAN1.6FLEX                     PARTICULAR                    AUTOMOVEL       PRETA     00000000SINVAL DA COSTA LIMA                        AV DORGIVAL P DE SOUSA NR. N1538        - BEIRA RIO                             65900110IMPERATRIZ          MATRANSIT. EFET. TRANSP.REMUN/PESSOAS N.LICENC. P/ES231 * VIII         00000000068661   000013016009612019122520200207319036717800000000001041285640000001904120332070422009614719803671780000102780493416MA000   31    00040431753154268661PASSAGEIRO
2100000000381920191224209610PREF. DE: MA - ACAILANDIA               ACA0032198201911041651R.CEARA N.502, CENTRO                                       PTJ9618MA7760       VW/POLO AF                                   PARTICULAR                    AUTOMOVEL       BRANCA    00000000HEITOR TAIEGO CAETANO LIMA                  ROD BR 222 NR. N 305                    - PQ DAS NACOES                         65930000ACAILANDIA          MAESTAC. EM LOCAL/HORARIO PROIBIDO ESPECIFIC. P/SINA181*XVIII          00000000055500   000013016009612019122520200207319036717801880000001041285600000001304120332070422009614419503671780188400000000000  000   32    00040431758571555500PASSAGEIRO
2100000000381920191224209610PREF. DE: MA - ACAILANDIA               ACA0032200201911041721RUA CEARA N.500, CENTRO                                     JVE5733MA7760       VW/GOL 1.0                                   PARTICULAR                    AUTOMOVEL       PRATA     00000000NUBIA DANTAS DE CASTRO                      RUA IPIRANGA NR. NR 02                  - PEQUIA                                65930000ACAILANDIA          MAESTAC. EM LOCAL/HORARIO PROIBIDO ESPECIFIC. P/SINA181*XVIII          00000000055500   000013016009612019122520200207319036717802650000001041285660000001704120332070422009614419503671780265000000000000  000   33    00040431758684355500PASSAGEIRO
2100000000381920191224209610PREF. DE: MA - ACAILANDIA               ACA0032208201911041555R.DORGIVAL P. SOUSA, CENTRO                                 JHA2285MA3123       VW/FOX 1.0                                   PARTICULAR                    AUTOMOVEL       PRATA     00000000AURELIO PEREIRA DO AMARAL FILHO             QD 10 NR. LT01A                         - COLINAS PARK                          65930000ACAILANDIA          MAESTACIONAR AO LADO DE OUTRO VEICULO EM FILA DUPLA 181 * XI           00000000054870   000019523009612019122520200207319036717803420000001561885640000001956180332070522009614419503671780342700000000000  000   34    00050431760692554870PASSAGEIRO
2100000000381920191224209610PREF. DE: MA - ACAILANDIA               ACA0032319201911041410R.DORGIVAL FRT. BANCO BRASIL                                OFN4613MA3179       FORD/FIESTA FLEX                             PARTICULAR                    AUTOMOVEL       PRETA     00000000SEVERINO GONCALVES DA COSTA LIMA            RUA 40 NR. QD 19                        LOTEAMENTO CIDADE JA - JD AULIDIA       65930000ACAILANDIA          MAESTAC. EM LOCAL/HORARIO PROIBIDO ESPECIFIC. P/SINA181*XVIII          00000000055500   000013016009612019122520200207319036717804200000001041285670000001604120332070422009614419503671780420100000000000  000   35    00040432035335855500PASSAGEIRO
2100000000381920191224209610PREF. DE: MA - ACAILANDIA               ACA0032321201911041440AV.TACITO CALDAS N.144, CENTRO                              NMS7180MA3179       FIAT/PALIO WEEK TREKKING                     PARTICULAR                    AUTOMOVEL       PRATA     00000000JOSE BARBOSA PEREIRA                        RUA BETA NR. N 177                      - BACURI                                65900000IMPERATRIZ          MAESTACIONAR NA CONTRAMAO DE DIRECAO                181 * XV           00000000055250   000013016009612019122520200207319036717805070000001041285610000001204120332070422009614419503671780507500000000000  000   36    00040432036845255250PASSAGEIRO
2100000000381920191224209610PREF. DE: MA - ACAILANDIA               ACA0032322201911041500R.DORGIVAL P. SOUSA, CENTRO                                 NWX3397MA3179       HONDA/BIZ 125 ES                             PARTICULAR                    MOTONETA        PRETA     00000000DERLANE SOUSA DA SILVA                      RUA SAO FRANCISCO NR 192 NR.            - VILA CAPELOZA                         65930000ACAILANDIA          MACOND. MOTO/MOTONETA/CICLOM C/ CRIAN. MENOR DE 7 AN244 * V            00000000070721   000029347009612019122520200207319036717806940000002347785620000002934770332070022009614419503671780694100000000000  000   37    00070432036935170721PASSAGEIRO
2100000000381920191224209610PREF. DE: MA - ACAILANDIA               ACA0032532201911020948R.VENEZUELA PX. CEMITERIO                                   OIS6474MA3154       HONDA/CG 150 FAN ESI                         PARTICULAR                    MOTOCICLETA     PRETA     00000000MANOEL DA PAZ DE SOUSA                      QUADRA 22 NR. 04 B                      - MASSARANDUBA                          65930000ACAILANDIA          MACOND. MOTOC/MOTON./CICLOM TRANSPORTANDO/PASSAG.S/C244 * II           00000000070481   000029347009612019122520200207319036717807710000002347785680000002334770332070022009614419503671780771700000000000  000   38    00070432037005870481PASSAGEIRO
2100000000381920191224209610PREF. DE: MA - ACAILANDIA               ACA0032533201911020949R.VENEZUELA PX. IGREJA S. JOSE                              OIS6474MA3154       HONDA/CG 150 FAN ESI                         PARTICULAR                    MOTOCICLETA     PRETA     00000000MANOEL DA PAZ DE SOUSA                      QUADRA 22 NR. 04 B                      - MASSARANDUBA                          65930000ACAILANDIA          MATRANSIT. VEICULO COM LOTACAO EXCEDENTE            231 * VII          00000000068580   000013016009612019122520200207319036717808590000001041285630000001004120332070422009614719803671780859000000000000  000   39    00040432037109768580PASSAGEIRO
2100000000381920191224209610PREF. DE: MA - ACAILANDIA               ACA0032535201911031009R.MARLY SARNEY FRT.MERCADO                                  OXY0669MA3154       HONDA/NXR125 BROS ES                         PARTICULAR                    MOTOCICLETA     VERMELHA  00000000JOAO DOS SANTOS LIMA                        AVENIDA 03   NR 02 NR.                  - AREA AVANCADA                         65805000FORT. DOS NOGUEIRAS MATRANSIT. VEICULO COM LOTACAO EXCEDENTE            231 * VII          00000000068580   000013016009612019122520200207319036717809360000001041285690000001404120332070422009614719803671780936600000000000  000   40    00040432037177168580PASSAGEIRO
2100000000381920191224209610PREF. DE: MA - ACAILANDIA               ACA0032534201911031008R.MARLY SARNEY, CENTRO                                      OXY0559MA3154       HONDA/NXR150 BROS ESD                        PARTICULAR                    MOTOCICLETA     PRETA     00000000WIGO SILVA VIEIRA                           AVENIDA SANTA LUZIA QD 54 LT01 NR. 173  - VILA SAO FRANCISCO                    65930000ACAILANDIA          MACOND. MOTOC/MOTON./CICLOM TRANSPORTANDO/PASSAG.S/C244 * II           00000000070481   000029347009612019122520200207319036717810770000002347785690000002234770332070022009614419503671781077800000000000  000   41    00070432039835170481PASSAGEIRO
2100000000381920191224209610PREF. DE: MA - ACAILANDIA               ACA0032576201911030741AV.BERNARDO SAYAO, CENTRO                                   PTJ7268MA7008       HONDA/POP100                                 PARTICULAR                    MOTOCICLETA     PRETA     00000000CLEMILTON GABRIEL SANTOS                    PC MERCADO NR. 74                       - CENTRO                                65935000SENADOR LA ROQUE    MACOND. MOTOCICLETA/MOTONETA/CICLOM S/CAPACETE DE SE244 * I            00000000070301   000029347009612019122520200207319036717811540000002347785630000002834770332070022009614719803671781154500000000000  000   42    00070432041140470301PASSAGEIRO
2100000000381920191224209610PREF. DE: MA - ACAILANDIA               ACA0032577201911030814AV.BERNARDO SAYAO, CENTRO                                   PTB0511MA7008       HONDA/NXR160 BROS ESDD                       PARTICULAR                    MOTOCICLETA     AZUL      00000000SUELY DE SOUSA NASCIMENTO                   QD 41 NR. 34 B                          - VL BOM JARDIM                         65930000ACAILANDIA          MADIRIGIR S/ATENCAO OU S/OS CUIDADOS INDISPENSAVEIS 169                00000000052070   000008838009612019122520200207319036717812310000000707085630000000270700332070222009614719803671781231100000000000  000   43    00030432041164152070PASSAGEIRO
2100000000381920191224209610PREF. DE: MA - ACAILANDIA               ACA0032318201911031008AV.BERNARDO SAYAO PX. MERCADO                               PTP7592MA3179       HONDA/CG 160 START                           PARTICULAR                    MOTOCICLETA     PRETA     00000000SANDRA HELENA P LIMA DOS SANTOS             R DORGIVAL PINHEIRO DE S NR. 961        - CENTRO                                65930000ACAILANDIA          MACOND. MOTO/MOTONETA/CICLOM C/ CRIAN. MENOR DE 7 AN244 * V            00000000070721   000029347009612019122520200207319036717813190000002347785650000002634770332070022009614419503671781319400000000000  000   44    00070432041823970721PASSAGEIRO
2100000000381920191224209610PREF. DE: MA - ACAILANDIA               ACA0032316201911030749AV.BERNARDO SAYAO FRT.MERCADO                               HQD4169MA3179       HONDA/BIZ 125 ES                             PARTICULAR                    MOTONETA        VERMELHA  00000000MISAEL DA SILVA SANTOS                      RUA MEDEIROS NETO NR. N540A             - JACU                                  65930000ACAILANDIA          MACOND. MOTOCICLETA/MOTONETA/CICLOM S/CAPACETE DE SE244 * I            00000000070301   000029347009612019122520200207319036717814060000002347785670000002434770332070022009614719803671781406900000000000  000   45    00070432041929470301PASSAGEIRO
2100000000381920191224209610PREF. DE: MA - ACAILANDIA               ACA0032315201911030749AV.BERNARDO SAYAO, CENTRO                                   HQD4169MA3179       HONDA/BIZ 125 ES                             PARTICULAR                    MOTONETA        VERMELHA  00000000MISAEL DA SILVA SANTOS                      RUA MEDEIROS NETO NR. N540A             - JACU                                  65930000ACAILANDIA          MATRANSIT. P/ CONTRAMAO EM VIAS C/ SENT. UNICO      186 * II           00000000057380   000029347009612019122520200207319036717815830000002347785660000002534770332070022009614419503671781583500000000000  000   46    00070432041994457380PASSAGEIRO
2100000000381920191224209610PREF. DE: MA - ACAILANDIA               ACA0032578201911041523R.MARLY SARNEY, CENTRO                                      PSJ3419MA7008       HONDA/NXR160 BROS ESD                        PARTICULAR                    MOTOCICLETA     BRANCA    00000000ELIVALDO DA SILVA LIMA                      RUA CARLOS NR. 71                       - V GASTAO VIEIRA                       65930000ACAILANDIA          MAAVANCAR SINAL VERMELHO DO SEMAFORO                208                00000000060501   000029347009612019122520200207319036717816600000002347785620000002934770332070022009614419503671781660100000000000  000   47    00070432042351860501PASSAGEIRO
2100000000381920191224209610PREF. DE: MA - ACAILANDIA               ACA0032580201911041532R.FORTALEZA N.123, CENTRO                                   PSA5446MA7008       HONDA/POP100                                 PARTICULAR                    MOTOCICLETA     VERMELHA  00000000PAMARA LIMA BATISTA                         RUA CASTELO BRANCO NR. 1171             - CENTRO                                65930000ACAILANDIA          MATRANSIT. P/ CONTRAMAO EM VIAS C/ SENT. UNICO      186 * II           00000000057380   000029347009612019122520200207319036717817480000002347785650000002634770332070022009614419503671781748400000000000  000   48    00070432043172357380PASSAGEIRO
2100000000381920191224209610PREF. DE: MA - ACAILANDIA               ACA0032289201911051051AV.TACITO CALDAS, CENTRO                                    PSY4677MA3132       HONDA/CG 160 FAN ESDI                        PARTICULAR                    MOTOCICLETA     AMARELA   00000000EDENICE RODRIGUES V BARBOSA                 QD 120 NR. 316                          - VILA ILDEMAR                          65930000ACAILANDIA          MAAVANCAR SINAL VERMELHO DO SEMAFORO                208                00000000060501   000029347009612019122520200207319036717818250000002347785610000002034770332070022009614419503671781825000000000000  000   49    00070432048358860501PASSAGEIRO
2100000000381920191224209610PREF. DE: MA - ACAILANDIA               ACA0032478201911050914R.MARANHAO C/R.SAO FRANCISCO                                NWT7364MA3090       FIAT/UNO ATTRACTIVE 1.4                      PARTICULAR                    AUTOMOVEL       PRETA     00000000RAIMUNDO PEREIRA DO NASCIMENTO              RUA A UM QD 03 NR.                      CASA 03 - JD BRASIL                     65930000ACAILANDIA          MAAVANCAR SINAL VERMELHO DO SEMAFORO                208                00000000060501   000029347009612019122520200207319036717819020000002347785680000002334770332070022009614419503671781902700000000000  000   50    00070432048568860501PASSAGEIRO
2100000000381920191224209610PREF. DE: MA - ACAILANDIA               ACA0032441201911051040R.FILOGONIO, VILA BOM JARDIM                                PTB0511MA3165       HONDA/NXR160 BROS ESDD                       PARTICULAR                    MOTOCICLETA     AZUL      00000000SUELY DE SOUSA NASCIMENTO                   QD 41 NR. 34 B                          - VL BOM JARDIM                         65930000ACAILANDIA          MATRANSIT. VEICULO COM LOTACAO EXCEDENTE            231 * VII          00000000068580   000013016009612019122520200207319036717820430000001041285620000001104120332070422009614719803671782043900000000000  000   51    00040432048921768580PASSAGEIRO
2100000000381920191224209610PREF. DE: MA - ACAILANDIA               ACA0032442201911051150AV.SANTA LUZIA C/R.DORGIVAL                                 QKA6662MA3165       HONDA/CIVIC LXR                              PARTICULAR                    AUTOMOVEL       BRANCA    00000000LEONARDO EVANGELISTA DA SILVA               R NOVO ESTADO NR. 12                    - SUPER QUADRA 602                      65913347IMPERATRIZ          MAEXEC. CONVERSAO A ESQUERDA EM LOCAL PROIBIDO P/SIN207                00000000060412   000019523008032019122520200207319036717821200000001561885640000001956180332070522008034419903671782120500000000000MA000   52    00050432049141660412PASSAGEIRO
2100000000381920191224209610PREF. DE: MA - ACAILANDIA               ACA0032323201911051424R.DORGIVAL P. SOUSA, CENTRO                                 OIU8308MA3179       VW/GOL 1.0 GIV                               PARTICULAR                    AUTOMOVEL       PRETA     00000000ANTONIO SOUSA OLIVEIRA                      QD 118 LOTE 10 NR. SN                   - VILA ILDEMAR                          65930000ACAILANDIA          MAESTAC. EM LOCAL/HORARIO PROIBIDO ESPECIFIC. P/SINA181*XVIII          00000000055500   000013016009612019122520200207319036717822080000001041285640000001904120332070422009614419503671782208800000000000  000   53    00040432049441555500PASSAGEIRO
2100000000381920191224209610PREF. DE: MA - ACAILANDIA               ACA0032324201911051430R.BONAIRE. CENTRO                                           OXZ2451MA3179       HONDA/BIZ 125 EX                             PARTICULAR                    MOTONETA        BRANCA    00000000CAROLINA DA SILVA CRUZ                      RUA RIO GRANDE NR. 478                  - CENTRO                                65930000ACAILANDIA          MATRANSIT. P/ CONTRAMAO EM VIAS C/ SENT. UNICO      186 * II           00000000057380   000029347009612019122520200207319036717823950000002347785640000002734770332070022009614419503671782395300000000000  000   54    00070432053376357380PASSAGEIRO
2100000000381920191224209610PREF. DE: MA - ACAILANDIA               ACA0032325201911051450R.SAO RAIMUNDO FRT. CONFER                                  MXC0256MA3179       CHEVROLET/CLASSIC LS                         PARTICULAR                    AUTOMOVEL       BRANCA    00000000PAULO ROGERIO DE OLIVEIRA COSTA             R SANTA CECILIA NR. N 15                - VL REDENCAO II                        65901550IMPERATRIZ          MAESTACIONAR NA CONTRAMAO DE DIRECAO                181 * XV           00000000055250   000013016009612019122520200207319036717824720000001041285660000001704120332070422009614419503671782472000000000000  000   55    00040432053718155250PASSAGEIRO
2100000000381920191224209610PREF. DE: MA - ACAILANDIA               ACA0032479201911051457R.SAO RAIMUNDO N.183, CENTRO                                AUX7272MA3090       VW/GOL 1.0                                   PARTICULAR                    AUTOMOVEL       BRANCA    00000000ELISANDRA DE SOUZA OLIVEIRA                 AV SANTA LUZIA NR. N1004                - CENTRO                                65930000ACAILANDIA          MAESTACIONAR NA CONTRAMAO DE DIRECAO                181 * XV           00000000055250   000013016009612019122520200207319036717825500000001041285690000001404120332070422009614419503671782550300000000000  000   56    00040432054464155250PASSAGEIRO
2100000000381920191224209610PREF. DE: MA - ACAILANDIA               ACA0032652201911051555R.SANTOS DUMONT N.230, CENTRO                               PSP4089MA7763       HONDA/CIVIC EXR                              PARTICULAR                    AUTOMOVEL       CINZA     00000000ARIADNE RIBEIRO SALES                       R TUPINAMBA NR. 499                     - MERCADINHO                            65901370IMPERATRIZ          MAESTACIONAR NA CONTRAMAO DE DIRECAO                181 * XV           00000000055250   000013016009612019122520200207319036717826370000001041285640000001904120332070422009614419503671782637800000000000  000   57    00040432055039055250PASSAGEIRO
2100000000381920191224209610PREF. DE: MA - ACAILANDIA               ACA0032677201911051513R.SAO RAIMUNDO N.463, CENTRO                                PTC5277MA3179       JEEP/RENEGADE 1.8 AT                         PARTICULAR                    CAMIONETA       BRANCA    00000000MARIA LUCIA BORGES CARVALHO                 RUA PADRE CICERO NR. 28                 CASA A - VL NOVA                        65912120IMPERATRIZ          MAESTACIONAR NA CONTRAMAO DE DIRECAO                181 * XV           00000000055250   000013016009612019122520200207319036717827140000001041285610000001204120332070422009614419503671782714500000000000  000   58    00040432055516355250MISTO
2100000000381920191224209610PREF. DE: MA - ACAILANDIA               ACA0032678201911051541R.ANITA GARILADE N.193, CENTRO                              OJP1602MA3179       FIAT/PALIO SPORTING 1.6                      PARTICULAR                    AUTOMOVEL       BRANCA    00000000WELITON SILVA COSTA                         RUA DOM PEDRO I NR. 278                 - JACU                                  65930000ACAILANDIA          MAESTACIONAR NA CONTRAMAO DE DIRECAO                181 * XV           00000000055250   000013016009612019122520200207319036717828010000001041285660000001704120332070422009614419503671782801000000000000  000   59    00040432055768955250PASSAGEIRO
2100000000381920191224209610PREF. DE: MA - ACAILANDIA               ACA0032679201911051548R.SANTOS DUMONT N.239, CENTRO                               HPV9151MA3179       VW/GOL 1.6 POWER                             PARTICULAR                    AUTOMOVEL       PRETA     00000000ANA LEILA DE SOUZA GOMES                    RUA SENADOR MILLET NR. 446              BL H APT 103 - MARANHAO NOVO            65900000IMPERATRIZ          MAESTACIONAR NA CONTRAMAO DE DIRECAO                181 * XV           00000000055250   000013016009612019122520200207319036717829890000001041285690000001404120332070422009614419503671782989300000000000  000   60    00040432056002755250PASSAGEIRO
2100000000381920191224209610PREF. DE: MA - ACAILANDIA               ACA0032305201910291431R.BONAIRE, FRT.CAIXA, CENTRO                                PTQ2481MA3179       HONDA/NXR160 BROS ESDD                       PARTICULAR                    MOTOCICLETA     BRANCA    00000000VALDILENE SALES SANTOS                      QD 39 NR. N 88                          - VL ILDEMAR                            65930000ACAILANDIA          MAESTACIONAR NAS VAGAS RESERV AS PESSOAS C/DEFIC.S/CART 181, XX        00000000076251   000029347009612019122520200207319036717830100000002347785680000002334770332070022009614419503671783010700000000000  000   61    00070432057724876251PASSAGEIRO
3000060000000000060
