1*NIPI209610202001280039332020012800000000000000
2100000000393320200128209610PREF. DE: MA - ACAILANDIA               ACA0032920201912111645AV.BEERNARDO SAYAO, CENTRO                                  NHS6577MA3165       I/VW SPACEFOX SPORTLINE                      PARTICULAR                    AUTOMOVEL       PRETA     00000000BANCO FINASA BMC SA                         RUA IDEPENDENCIA NR. 01                 - CENTRO                                65395000BURITICUPU          MADIR.VEIC. UTILIZANDO-SE DE TELEFONE CELULAR       252 * VI           00000000073662   000013016009612020012920200313320036754150430000001041285660000001704120332130632009614720403675415043500000000000  000   2     00040439859192373662PASSAGEIRO
2100000000393320200128209610PREF. DE: MA - ACAILANDIA               ACA0033109201912111637R.DR.GERVASIO, CENTRO                                       HPN2437MA3090       GM/CELTA                                     PARTICULAR                    AUTOMOVEL       BRANCA    00000000SAMUEL LUCIO COSTA                          RUA GILSEPE GARIBALDI NR. L 10A         QD 16 - JACU                            65930000ACAILANDIA          MAESTACIONAR AO LADO DE OUTRO VEICULO EM FILA DUPLA 181 * XI           00000000054870   000019523009612020012920200313320036754151200000001561885660000001756180332130732009614420103675415120100000000000  000   3     00050439859301254870PASSAGEIRO
2100000000393320200128209610PREF. DE: MA - ACAILANDIA               ACA0033108201912110932AV.BERNARDO SAYAO, CENTRO                                   OJD5969MA3090       I/TOYOTA HILUX CS4X4                         PARTICULAR                    CAMINHONETE     PRATA     00000000HENRIQUE DA CRUZ MAIA PATEZ                 AV SANTA LUZIA NR. 338                  - CENTRO                                65930000ACAILANDIA          MAESTAC. EM LOCAL/HORARIO PROIBIDO ESPECIFIC. P/SINA181*XVIII          00000000055500   000013016009612020012920200313320036754152080000001041285680000001504120332130632009614420103675415208400000000000  000   4     00040439859425655500CARGA
2100000000393320200128209610PREF. DE: MA - ACAILANDIA               ACA0033104201912100943AV.DORGIVAL FRT.LILIAN MODAS                                ONF9104MA3090       FIAT/SIENA ESSENCE 1.6                       PARTICULAR                    AUTOMOVEL       BRANCA    00000000JOSE RILDO OLIVEIRA                         RUA TANCREDO NEVES NR. N 650            - CENTRO                                65393000BURITICUPU          MAESTACIONAR AO LADO DE OUTRO VEICULO EM FILA DUPLA 181 * XI           00000000054870   000019523009612020012920200313320036754153950000001561885640000001956180332130732009614420103675415395900000000000  000   5     00050439859535054870PASSAGEIRO
2100000000393320200128209610PREF. DE: MA - ACAILANDIA               ACA0033102201912091119R.DUQUE DE CAXIAS C/S. DUMONT                               PTE1490MA3090       HONDA/NXR 160 BROS                           PARTICULAR                    MOTOCICLETA     BRANCA    00000000MARCELO DO NASCIMENTO PEREIRA               QD 131 NR. 325                          - VILA ILDEMAR                          65930000ACAILANDIA          MAAVANCAR SINAL DE PARADA OBRIGATORIA               208                00000000060502   000029347009612020012920200313320036754154720000002347785650000002634770332130232009614420103675415472600000000000  000   6     00070439859724760502PASSAGEIRO
2100000000393320200128209610PREF. DE: MA - ACAILANDIA               ACA0033101201912091015AV.SANTA LUZIA C/AV.DORGIVAL                                OJE9734MA3090       HONDA/BIZ 125 EX                             PARTICULAR                    MOTONETA        VERMELHA  00000000GRACILENE COELHO DOS SANTOS                 RUA 13 DE MAIO NR. 757                  - LARANJEIRAS                           65930000ACAILANDIA          MAEXEC. CONVERSAO A ESQUERDA EM LOCAL PROIBIDO P/SIN207                00000000060412   000019523009612020012920200313320036754155500000001561885640000001956180332130732009614420103675415550900000000000  000   7     00050439860376060412PASSAGEIRO
2100000000393320200128209610PREF. DE: MA - ACAILANDIA               ACA0032909201912091029AV.SANTA LUZIA AV.AV.DORGIVAL                               NWW9439MA3165       FIAT/DOBLO HLX 1.8 FLEX                      ALUGUEL                       AUTOMOVEL       PRATA     00000000FRANCINO DE JESUS NASCIMENTO                RUA SENADOR JOSE SARNEY NR. 976 B       - COQUEIRAL                             65939000ITINGA DO MARANHAO  MAEXEC. CONVERSAO A ESQUERDA EM LOCAL PROIBIDO P/SIN207                00000000060412   000019523009612020012920200313320036754156370000001561885690000001456180332130732009614420103675415637400000000000  000   8     00050439861034060412PASSAGEIRO
2100000000393320200128209610PREF. DE: MA - ACAILANDIA               ACA0032910201912091027AV.SANTA LUZIA C/AV.DORGIVAL                                PTE4024MA3165       I/KIA UK2500 HD SC                           PARTICULAR                    CAMINHONETE     BRANCA    00000000EDGAR RIBEIRO DE ABREU                      RUA CEL MARIO ANDREAZA NR. 09           - TRES PODERES                          65903210IMPERATRIZ          MAEXEC. CONVERSAO A ESQUERDA EM LOCAL PROIBIDO P/SIN207                00000000060412   000019523009612020012920200313320036754157140000001561885660000001756180332130732009614420103675415714100000000000  000   9     00050439861626860412CARGA
2100000000393320200128209610PREF. DE: MA - ACAILANDIA               ACA0032911201912091230AV.SANTA LUZIA C/AV.DORGIVAL                                NHM9278MA3165       M.BENZ/710                                   PARTICULAR                    CAMINHAO        AZUL      00000000JOAO DE DEUS FERNANDES                      RUA SAO RAIMUNDO NR. 382                - CENTRO                                65930000ACAILANDIA          MAEXEC. CONVERSAO A ESQUERDA EM LOCAL PROIBIDO P/SIN207                00000000060412   000019523009612020012920200313320036754158010000001561885610000001256180332130732009614420103675415801600000000000  000   10    00050439862025760412CARGA
2100000000393320200128209610PREF. DE: MA - ACAILANDIA               ACA0032912201912091019AV.SANTA LUZIA C/AV.DORGIVAL                                NMW1405MA3165       VW/GOLF                                      PARTICULAR                    AUTOMOVEL       VERMELHA  00000000JOSE DE RIBAMAR P RODRIGUES                 RUA BENJAMIN CONSTANT NR. 74            - JACU                                  65930000ACAILANDIA          MAEXEC. CONVERSAO A ESQUERDA EM LOCAL PROIBIDO P/SIN207                00000000060412   000019523009612020012920200313320036754159890000001561885640000001956180332130732009614420103675415989900000000000  000   11    00050439869722560412PASSAGEIRO
2100000000393320200128209610PREF. DE: MA - ACAILANDIA               ACA0032915201912091700AV.SANTA LUZIA C/AV.DORGIVAL                                PSE7634MA3165       FIAT/PALIO FIRE WAY                          PARTICULAR                    AUTOMOVEL       VERMELHA  00000000ELIZEU SOARES DE OLIVEIRA                   RUA ANTONIO COELHO NR. NR-16            - CENTRO                                65715000LAGO DA PEDRA       MAEXEC. CONVERSAO A ESQUERDA EM LOCAL PROIBIDO P/SIN207                00000000060412   000019523009612020012920200313320036754160100000001561885680000001556180332130732009614420103675416010300000000000  000   12    00050439869954660412PASSAGEIRO
2100000000393320200128209610PREF. DE: MA - ACAILANDIA               ACA0032916201912100950R.DUQUE DE CAXIAS C/R.S.PAULO                               HPZ9315MA3165       HONDA/CG 150 TITAN ES                        PARTICULAR                    MOTOCICLETA     VERMELHA  00000000FRANCISCO BARROS DE ARAUJO                  RUA SETE DE SETEMBRO NR. 65             - CENTRO                                65929000SAO FCO. DO BREJAO  MAAVANCAR SINAL VERMELHO DO SEMAFORO                208                00000000060501   000029347009612020012920200313320036754161070000002347785660000002534770332130232009614420103675416107700000000000  000   13    00070439877535860501PASSAGEIRO
2100000000393320200128209610PREF. DE: MA - ACAILANDIA               ACA0032917201912100940R.DUQUE DE CAXIAS N.1011                                    PSI1748MA3165       FIAT/STRADA WORKING CE                       PARTICULAR                    CAMINHONETE     VERMELHA  00000000JOSE FERREIRA DE SOUZA                      AV BERNARDO SAYAO NR. 1373              - CENTRO                                65930000ACAILANDIA          MAESTACIONAR AO LADO DE OUTRO VEICULO EM FILA DUPLA 181 * XI           00000000054870   000019523009612020012920200313320036754162840000001561885690000001456180332130732009614420103675416284400000000000  000   14    00050439877929954870CARGA
2100000000393320200128209610PREF. DE: MA - ACAILANDIA               ACA0032918201912100925R.ANITA GARINALDE N.35, CENTRO                              NXN9710MA3165       VW/GOLF 1.6 SPORTLINE                        PARTICULAR                    AUTOMOVEL       BRANCA    00000000JOSE GEDSON BARROS DE SENA                  BR 222QD 28 NR. 01                      - VSAO FRANCISCO                        65930000ACAILANDIA          MADIR.VEIC. UTILIZANDO-SE DE TELEFONE CELULAR       252 * VI           00000000073662   000013016009612020012920200313320036754163610000001041285610000001204120332130632009614720403675416361000000000000  000   15    00040439878780173662PASSAGEIRO
2100000000393320200128209610PREF. DE: MA - ACAILANDIA               ACA0032919201912101518R.MARLY SARNEY N.898, CENTRO                                OJQ2805MA3165       HONDA/BIZ 125 ES                             PARTICULAR                    MOTONETA        ROSA      00000000ELMA VAZ                                    QD 53 NR. 14                            LT -  RES GLORIA                        65930000ACAILANDIA          MATRANSIT. P/ CONTRAMAO EM VIAS C/ SENT. UNICO      186 * II           00000000057380   000029347009612020012920200313320036754164490000002347785620000002934770332130232009614420103675416449300000000000  000   16    00070439889208757380PASSAGEIRO
2100000000393320200128209610PREF. DE: MA - ACAILANDIA               ACA0031706201912121044AV.TACITO CALDAS N.271, CENTRO                              NMQ9337MA4445       GM/CELTA 4P LIFE                             PARTICULAR                    AUTOMOVEL       VERMELHA  00000000ANTONIO RODRIGUES FILHO                     RUA VIENA QD 12 NR. 29                  - PEQUIA                                65930000ACAILANDIA          MAESTACIONAR AO LADO DE OUTRO VEICULO EM FILA DUPLA 181 * XI           00000000054870   000019523009612020012920200313320036754165260000001561885630000001056180332130732009614420103675416526800000000000  000   17    00050439891021254870PASSAGEIRO
2100000000393320200128209610PREF. DE: MA - ACAILANDIA               ACA0031707201912121045RUA GOIAS, CENTRO                                           PSQ9278MA4445       HONDA/NXR160 BROS ESDD                       PARTICULAR                    MOTOCICLETA     PRETA     00000000JANIO CARLOS SOUSA SILVA                    RUA SAO RAIMUNDO NR. 285                - CENTRO                                65930000ACAILANDIA          MATRANSIT. P/ CONTRAMAO EM VIAS C/ SENT. UNICO      186 * II           00000000057380   000029347009612020012920200313320036754166030000002347785640000002734770332130232009614420103675416603500000000000  000   18    00070439891299157380PASSAGEIRO
2100000000393320200128209610PREF. DE: MA - ACAILANDIA               ACA0031708201912121101AV.TACITO CALDAS N.281, CENTRO                              PSM0490MA4445       TOYOTA/ETIOS SD PLATINUM                     PARTICULAR                    AUTOMOVEL       BRANCA    00000000JOSE SILVA LUNA                             RUA CASTELO BRANCO NR. N-695            - CENTRO                                65930000ACAILANDIA          MAESTACIONAR AO LADO DE OUTRO VEICULO EM FILA DUPLA 181 * XI           00000000054870   000019523009612020012920200313320036754167900000001561885650000001856180332130732009614420103675416790000000000000  000   19    00050439891527354870PASSAGEIRO
2100000000393320200128209610PREF. DE: MA - ACAILANDIA               ACA0031709201912121106R.MARLY SARNEY C/R.FORTALEZA                                PTP6728MA4445       HONDA/BIZ 125                                PARTICULAR                    MOTONETA        VERMELHA  00000000DAIANE CAMEUS FERNANDES                     RUA 2 QD 10 NR. N 32                    - RES JD AULIDIA                        65930000ACAILANDIA          MAAVANCAR SINAL DE PARADA OBRIGATORIA               208                00000000060502   000029347009612020012920200313320036754168780000002347785620000002934770332130232009614420103675416878300000000000  000   20    00070439891796960502PASSAGEIRO
2100000000393320200128209610PREF. DE: MA - ACAILANDIA               ACA0031710201912121442AV.DORGIVAL P. SOSUA, CENTRO                                PSM1095MA4445       HONDA/BIZ 125                                PARTICULAR                    MOTONETA        VERMELHA  00000000NATHALIA OLIVEIRA CARVALHO                  ROD BR 222 NR. 978                      - PQ DAS NACOES                         65930000ACAILANDIA          MATRANSIT. P/ CONTRAMAO EM VIAS C/ SENT. UNICO      186 * II           00000000057380   000029347009612020012920200313320036754169550000002347785680000002334770332130232009614420103675416955900000000000  000   21    00070439892003057380PASSAGEIRO
2100000000393320200128209610PREF. DE: MA - ACAILANDIA               ACA0032922201912120940RUA CEARA N.499, CENTRO                                     PTD7502MA3165       VW/POLO MCA                                  PARTICULAR                    AUTOMOVEL       BRANCA    00000000MARCIO FERREIRA CRUZ                        AV SANTA LUZIA NR 03 NR.                - CENTRO                                65930000ACAILANDIA          MAESTAC. EM LOCAL/HORARIO PROIBIDO ESPECIFIC. P/SINA181*XVIII          00000000055500   000013016009612020012920200313320036754170960000001041285650000001804120332130632009614420103675417096100000000000  000   22    00040439892235055500PASSAGEIRO
2100000000393320200128209610PREF. DE: MA - ACAILANDIA               ACA0032923201912121110R.BONAIRE CRENTE CAIXA, CENTRO                              PSW6642MA3165       HONDA/CG 160 FAN ESDI                        PARTICULAR                    MOTOCICLETA     PRETA     00000000JUCILENE BARBOSA DE OLIVEIRA                QUADRA D NR. 25                         - VL ILDEMAR                            65930000ACAILANDIA          MAESTACIONAR NAS VAGAS RESERV AS PESSOAS C/DEFIC.S/CART 181, XX        00000000076251   000029347009612020012920200313320036754171730000002347785670000002434770332130232009614420103675417173800000000000  000   23    00070439892427276251PASSAGEIRO
2100000000393320200128209610PREF. DE: MA - ACAILANDIA               ACA0032925201912121112R.BOM JESUS, RODOVIARIA, CENTR                              QNE0292MA3165       CHEVROLET/ONIX 10MT JOYE                     PARTICULAR                    AUTOMOVEL       BRANCA    00000000DIOCLECIO RIBEIRO SILVA                     R SAO LUIS NR. 108                      - CENTRO                                65930000ACAILANDIA          MAESTACIONAR AO LADO DE OUTRO VEICULO EM FILA DUPLA 181 * XI           00000000054870   000019523009612020012920200313320036754172500000001561885690000001456180332130732009614420103675417250400000000000  000   24    00050439892604654870PASSAGEIRO
2100000000393320200128209610PREF. DE: MA - ACAILANDIA               ACA0033126201912121446R.RIO GRANDE C/R.SAO LUIS                                   PTI6457MA3165       HONDA/BIZ 110I                               PARTICULAR                    MOTONETA        VERMELHA  00000000LOURIVAL VIEIRA DA SILVA                    RUA 26 QD 47 NR. N 23                   - RES V DO ACAI                         65930000ACAILANDIA          MADIR.VEIC. UTILIZANDO-SE DE TELEFONE CELULAR       252 * VI           00000000073662   000013016009612020012920200313320036754173380000001041285680000001504120332130632009614720403675417338700000000000  000   25    00040439892910073662PASSAGEIRO
2100000000393320200128209610PREF. DE: MA - ACAILANDIA               ACA0033127201912121520R.BONAIRE FRT.CAIXA, CENTRO                                 PIC0769MA3165       FIAT/PALIO FIRE                              PARTICULAR                    AUTOMOVEL       BRANCA    00000000TIAGO LIMA SILVA                            RUA 11 NR. N 560                        - ALTO BONITO                           65975000ESTREITO            MAESTACIONAR SOBRE FAIXA DESTINADA A PEDESTRE       181 * VIII         00000000054522   000019523009612020012920200313320036754174150000001561885680000001556180332130732009614420103675417415300000000000  000   26    00050439893155454522PASSAGEIRO
2100000000393320200128209610PREF. DE: MA - ACAILANDIA               ACA0032804201912121132R.SAO PAULO C/R.BOM JESUS                                   OXX8653MA3165       CHEVROLET/S10 LT DD4                         OFICIAL                       CAMINHONETE     BRANCA    00000000SEC DE EST DES S E AGR FAMILIAR             RUA 28 DE JULHO N 249 NR.               - CENTRO                                65010680SAO LUIS            MADIR.VEIC. UTILIZANDO-SE DE TELEFONE CELULAR       252 * VI           00000000073662   000013016009612020012920200313320036754175020000001041285690000001404120332130632009614720403675417502800000000000  000   27    00040439893394873662ESPECIAL
3000026000000000026
