1*NATR207570201912120047182019121200000000000000
2000000000471820191212207570PREF. DE: MA - CAXIAS                   CXA0078572201911201730AV LUIS SALES                                               NWW2660TO           FIAT/PALIO FIRE ECONOMY                      PARTICULAR                    AUTOMOVEL       PRATA     00000000MICAELLE DA SILVA LUZ                       RUA PAULO VI NR. 124                    - SAO MIGUEL                            77800000ARAGUAINA           TOCOND. MOTOCICLETA/MOTONETA/CICLOM S/CAPACETE DE SE244 * I            00000000070301   0000293470075720191213202001270000000000000000000000000                                                00000000000  000   1     00070439601169570301PASSAGEIRO
2000000000471820191212207570PREF. DE: MA - CAXIAS                   CXA0078454201911200845AV VOLTA REDONDA                                            OGY8038GO           HONDA/CG150 FAN ESDI                         PARTICULAR                    MOTOCICLETA     PRETA     00000000THYAGO RAFFAEL GOMES SOARES                 RUA 13 QD 32 L A NR.                    - PARQEU SAO BERNARDO                   72870410VALPARAISO DE GOIAS GOCOND. MOTOCICLETA/MOTONETA/CICLOM S/CAPACETE DE SE244 * I            00000000070301   0000293470075720191213202001270000000000000000000000000                                                00000000000  000   2     00070439601284570301PASSAGEIRO
2000000000471820191212207570PREF. DE: MA - CAXIAS                   CXA0078376201911200704PCA PANTHEON                                                OLO0241MG           I/FORD FOCUS HC FLEX                         PARTICULAR                    AUTOMOVEL       BRANCA    00000000RODRIGO POLIZEL TAVARES                     RUA PALERMO NR. 00289                   CASA - JARDIM EUROPA                    38414539UBERLANDIA          MGDEIXAR DE DAR PREF.PEDES/VEIC NAO MOTOR.FAIXA ELE 214 * I            00000000061220   0000293470075720191213202001270000000000000000000000000                                                00000000000  000   3     00070439601376061220PASSAGEIRO
2000000000471820191212207570PREF. DE: MA - CAXIAS                   CXA0078705201911221600PCA MAGALHAES DE ALMEIDA                                    ODW1500PI           HONDA/BIZ 125 ES                             PARTICULAR                    MOTONETA        PRETA     00000000LYANNA COSTA DA SILVA DAMASCENO             RUA MARECHAL DUTRA NR. 05271            - LOURIVAL PARENTE                      64022250TERESINA            PICOND. MOTOC/MOTON./CICLOM TRANSPORTANDO/PASSAG.S/C244 * II           00000000070481   0000293470075720191213202001270000000000000000000000000                                                00000000000  000   4     00070439608223170481PASSAGEIRO
2000000000471820191212207570PREF. DE: MA - CAXIAS                   CXA0078769201911221550PCA CANDIDO MENDES                                          PSB2417SE           HONDA/NXR160 BROS ESD                        PARTICULAR                    MOTOCICLETA     PRETA     00000000EVERBALDINO ALVES SANTOS                    RUA AGNALDO ALVES DE SOUZA 28 NR.       CENTRO -                                49300000TOBIAS BARRETO      SECOND. MOTOCICLETA/MOTONETA/CICLOM S/CAPACETE DE SE244 * I            00000000070301   0000293470075720191213202001270000000000000000000000000                                                00000000000  000   5     00070439608589370301PASSAGEIRO
2000000000471820191212207570PREF. DE: MA - CAXIAS                   CXA0078707201911221610PCA MAGALHAES DE ALMEIDA                                    PIL3184PI           HONDA/NXR160 BROS ESD                        PARTICULAR                    MOTOCICLETA     VERMELHA  00000000FRANCISCA MARIA DA CONCEICAO DE SOUSA GO    R ESMERALDA NR. 03124                   3124 - SAO MIGUEL                       64130000MIGUEL ALVES        PICOND. MOTOC/MOTON./CICLOM TRANSPORTANDO/PASSAG.S/C244 * II           00000000070481   0000293470075720191213202001270000000000000000000000000                                                00000000000  000   6     00070439608799370481PASSAGEIRO
3000006000000000006
