1*NIPI209610202001030038532020010300000000000000
2100000000385320200103209610PREF. DE: MA - ACAILANDIA               ACA0032447201911141130AV.SANTA LUZIA C/AV.DORGIVAL                                QNE0292MA3165       CHEVROLET/ONIX 10MT JOYE                     PARTICULAR                    AUTOMOVEL       BRANCA    00000000DIOCLECIO RIBEIRO SILVA                     R SAO LUIS NR. 108                      - CENTRO                                65930000ACAILANDIA          MAEXEC. CONVERSAO A ESQUERDA EM LOCAL PROIBIDO P/SIN207                00000000060412   000019523009612020010420200217320036727120570000001561885640000001956180332170322009614420303672712057200000000000  000   2     00050433846243460412PASSAGEIRO
2100000000385320200103209610PREF. DE: MA - ACAILANDIA               ACA0032826201911141145AV.SANTA LUZIA C/R.DORGIVAL                                 OXQ2862MA3132       HONDA/BIZ 125 EX                             PARTICULAR                    MOTONETA        BRANCA    00000000SUZANE MAYERE VIANA LIMA                    RUA FILOGONIO NR. 10                    QD 51 - VL BOM JARDIM                   65930000ACAILANDIA          MAEXEC. CONVERSAO A ESQUERDA EM LOCAL PROIBIDO P/SIN207                00000000060412   000019523009612020010420200217320036727121340000001561885610000001256180332170322009614420303672712134900000000000  000   3     00050433846377560412PASSAGEIRO
2100000000385320200103209610PREF. DE: MA - ACAILANDIA               ACA0032539201911131654AV.TACITO CALDAS N.266, CENTRO                              LCK1315MA3154       GM/BLAZER DLX                                PARTICULAR                    CAMIONETA       PRETA     00000000GUILHERME MAMEDE B BARBOSA                  RUA BOA ESPERANCA NR. NR 11             - JD AMERICA                            65930000ACAILANDIA          MAESTACIONAR NA CONTRAMAO DE DIRECAO                181 * XV           00000000055250   000013016009612020010420200217320036727122110000001041285660000001704120332170222009614420303672712211500000000000  000   4     00040433846469055250MISTO
2100000000385320200103209610PREF. DE: MA - ACAILANDIA               ACA0032755201911131436R.SAO RAIMUNDO N.130, CENTRO                                OIT5574MA3179       FORD/FIESTA FLEX                             PARTICULAR                    AUTOMOVEL       BRANCA    00000000JOSE LEANDRO DA SILVA CHAVES                AV BERNARDO SAYAO NR. 1681              - CENTRO                                65930000ACAILANDIA          MAESTACIONAR NA CONTRAMAO DE DIRECAO                181 * XV           00000000055250   000013016009612020010420200217320036727123090000001041285680000001504120332170222009614420303672712309700000000000  000   5     00040433846527155250PASSAGEIRO
2100000000385320200103209610PREF. DE: MA - ACAILANDIA               ACA0032756201911131538AV.TACITO CALDAS N.47, CENTRO                               PTP1112MA3179       I/VW AMAROK V6 HIGH AC4                      PARTICULAR                    CAMINHONETE     PRETA     00000000ULISSES VIEIRA C DOS SANTOS                 RUA CEL M ANDREAZA NR. 201              APT 101 - TRES PODERES                  65903210IMPERATRIZ          MAESTACIONAR NA CONTRAMAO DE DIRECAO                181 * XV           00000000055250   000013016009612020010420200217320036727124860000001041285640000001904120332170222009614420303672712486300000000000  000   6     00040433846848355250ESPECIAL
2100000000385320200103209610PREF. DE: MA - ACAILANDIA               ACA0032757201911131702R.SAO LUIS FRT.INFO DESING                                  HPN9727MA3179       GM/CELTA 5 PORTAS                            PARTICULAR                    AUTOMOVEL       BRANCA    00000000ILDO BESERRA DOS SANTOS                     QD 211 NR. 306                          - VL ILDEMAR                            65930000ACAILANDIA          MAESTACIONAR AO LADO DE OUTRO VEICULO EM FILA DUPLA 181 * XI           00000000054870   000019523009612020010420200217320036727125630000001561885610000001256180332170322009614420303672712563900000000000  000   7     00050433846949854870PASSAGEIRO
2100000000385320200103209610PREF. DE: MA - ACAILANDIA               ACA0032855201911141550R.DORGIVAL C/R.RIO DE JANEIRO                               PSE1072MA7760       HONDA/CG150 FAN ESDI                         PARTICULAR                    MOTOCICLETA     VERMELHA  00000000JOAO DE DEUS PEREIRA DE BRITO               RUA PREF GUSTAVO SANTOS NR. NR28        QD 35 - ALBERTO BERETA                  65940000GRAJAU              MACOND. MOTO/MOTONETA/CICLOM FAZENDO MALABARISMO EQU244 * III          00000000070561   000029347009612020010420200217320036727126400000002347785610000002034770332170822009614420303672712640500000000000  000   8     00070433847012770561PASSAGEIRO
2100000000385320200103209610PREF. DE: MA - ACAILANDIA               ACA0032657201911141715R.MARLY SARNEY C/R.DORGIVAL                                 OGW9397MA7763       VW/GOL 1.0                                   PARTICULAR                    AUTOMOVEL       PRETA     00000000OSEAS FLORENTINO ARRUDA FILHO               QUADRA 16 NR. 16                        - BOM JD DE CIMA                        65930000ACAILANDIA          MAESTAC. VEIC. NAS ESQU. E MENOS DE 5M DO ALINHAMENT181 * I            00000000053800   000013016009612020010420200217320036727127280000001041285690000001404120332170222009614420303672712728800000000000  000   9     00040433847057753800PASSAGEIRO
2100000000385320200103209610PREF. DE: MA - ACAILANDIA               ACA0032854201911141515R.DORGIVAL P. SOUSA, CENTRO                                 NXD9762MA7760       HONDA/BIZ 125 ES                             PARTICULAR                    MOTONETA        PRETA     00000000KATIUCYA FERREIRA B. DE PINA                RUA SAO BENTO NR. N 214                 - TANC NEVES                            65930000ACAILANDIA          MATRANSIT. P/ CONTRAMAO EM VIAS C/ SENT. UNICO      186 * II           00000000057380   000029347009612020010420200217320036727128050000002347785600000002134770332170822009614420303672712805400000000000  000   10    00070433847117457380PASSAGEIRO
2100000000385320200103209610PREF. DE: MA - ACAILANDIA               ACA0032851201911161019AV.TACITO CALDAS C/R.DR.GERVAS                              OXU9048MA7760       HONDA/BIZ 125 EX                             PARTICULAR                    MOTONETA        PRETA     00000000JACKSON PEDRO LIMA SERRA                    QD 017 N16 NR.                          - VL BOM JARDIM                         65930000ACAILANDIA          MAAVANCAR SINAL VERMELHO DO SEMAFORO                208                00000000060501   000029347009612020010420200217320036727129920000002347785660000002534770332170822009614420303672712992000000000000  000   11    00070433847184060501PASSAGEIRO
2100000000385320200103209610PREF. DE: MA - ACAILANDIA               ACA0032592201911141002R.07 DE SETEMBRO N.879, CENTRO                              PSP1019MA7008       RENAULT/LOGAN EXPR 16 M                      PARTICULAR                    AUTOMOVEL       PRATA     00000000CLODOALDO FUMAGALLI                         RUA NILO DE S RIBEIRO NR. 20            QD 16 - VL BOM JARDIM                   65930000ACAILANDIA          MADIR.VEIC. UTILIZANDO-SE DE TELEFONE CELULAR       252 * VI           00000000073662   000013016009612020010420200217320036727130230000001041285610000001204120332170222009614720603672713023300000000000  000   12    00040433847243073662PASSAGEIRO
2100000000385320200103209610PREF. DE: MA - ACAILANDIA               ACA0032590201911140901R.MARLY SARNEY, MATEUS ELETRO                               PSQ4279MA7008       TOYOTA/COROLLA GLI18 CVT                     PARTICULAR                    AUTOMOVEL       BRANCA    00000000KARLA REGINA DA SILVA LINHARES              AV ALEXANDRE COSTA NR. LT 18            QD 08 - PQ PLANALTO                     65930000ACAILANDIA          MADIRIGIR VEICULO SEGURANDO TELEFONE CELULAR        ART 252, & UNICO   00000000076331   000029347009612020010420200217320036727131000000002347785620000002934770332170822009614720603672713100900000000000  000   13    00070433847350976331PASSAGEIRO
3000012000000000012
