1*NATI207570201912120047162019121200000000000000
2000000000471620191212207570PREF. DE: MA - CAXIAS                   CXA0078590201911211730AV LUIS SALES                                               PSC4737MA123611-SAMTHONDA/CG 125 FAN KS                          PARTICULAR                    MOTOCICLETA     PRETA     00000000ACRES FERREIRA DA SILVA FILHO               RUA SANTO ANTONIO NR. 115               - SERIEMA                               65602410CAXIAS              MACOND. MOTOC/MOTON./CICLOM TRANSPORTANDO/PASSAG.S/C244 * II           00000000070481   0000293470075720191213202001270000000000000000000000000                                                00000000000  000   1     00070439599237470481PASSAGEIRO
2000000000471620191212207570PREF. DE: MA - CAXIAS                   CXA0078760201911210948AV GETULIO VARGAS                                           PTD5241MA305941-SAMTHONDA/POP 110I                               PARTICULAR                    MOTOCICLETA     VERMELHA  00000000ADYLLA VICTORIA MOURAO NUNES                TV DO SANHARO NR. 617                   - TREZIDELA                             65608400CAXIAS              MAAVANCAR SINAL VERMELHO DO SEMAFORO                208                00000000060501   0000293470075720191213202001270000000000000000000000000                                                00000000000  000   2     00070439599529260501PASSAGEIRO
2000000000471620191212207570PREF. DE: MA - CAXIAS                   CXA0078758201911210838AV NEREU BITTENCOURT                                        NNG7541MA305941-SAMTCHEVROLET/CLASSIC LS                         PARTICULAR                    AUTOMOVEL       PRETA     00000000BRUNO RAFAEL DE JESUS C ROCHA               R ADAO NR. 13                           QD B24 - VL PARAISO                     65600010CAXIAS              MAAVANCAR SINAL VERMELHO DO SEMAFORO                208                00000000060501   0000293470075720191213202001270000000000000000000000000                                                00000000000  000   3     00070439599760060501PASSAGEIRO
2000000000471620191212207570PREF. DE: MA - CAXIAS                   CXA0077978201911211050RUA JOSE GUIMARAES                                          NXE1652MA78162-SAMT HONDA/BIZ 125 ES                             PARTICULAR                    MOTONETA        PRETA     00000000FRANCISCA JORDANIA DO C SILVA               BR 316 NR. 2455                         - VOLTA REDONDA                         65600000CAXIAS              MAESTAC. EM DESACORDO C/ A REGULAMENTACAO ESPECIFICA181 * XVII         00000000055411   0000195230075720191213202001270000000000000000000000000                                                00000000000  000   4     00050439599998055411PASSAGEIRO
2000000000471620191212207570PREF. DE: MA - CAXIAS                   CXA0077979201911211640PCA CANDIDO MENDES                                          PTC3777MA78162-SAMT HONDA/POP 110I                               PARTICULAR                    MOTOCICLETA     VERMELHA  00000000ALDECI DE CARVALHO SANTOS                   TV 1 DE AGOSTO NR. 843                  - PONTE                                 65600010CAXIAS              MACOND. MOTOCICLETA/MOTONETA/CICLOM S/CAPACETE DE SE244 * I            00000000070301   0000293470075720191213202001270000000000000000000000000                                                00000000000  000   5     00070439600081270301PASSAGEIRO
2000000000471620191212207570PREF. DE: MA - CAXIAS                   CXA0077980201911211640PCA CANDIDO MENDES                                          PTC3777MA78162-SAMT HONDA/POP 110I                               PARTICULAR                    MOTOCICLETA     VERMELHA  00000000ALDECI DE CARVALHO SANTOS                   TV 1 DE AGOSTO NR. 843                  - PONTE                                 65600010CAXIAS              MACOND. MOTOC/MOTON./CICLOM TRANSPORTANDO/PASSAG.S/C244 * II           00000000070481   0000293470075720191213202001270000000000000000000000000                                                00000000000  000   6     00070439600181970481PASSAGEIRO
2000000000471620191212207570PREF. DE: MA - CAXIAS                   CXA0077981201911211706PCA CANDIDO MENDES                                          NHF8891MA78162-SAMT HONDA/BIZ 125 ES                             PARTICULAR                    MOTONETA        VERMELHA  00000000ANA PAULA LIMA SOUSA                        RUA INDEPENDENCIA NR. 1143              - CENTRO                                65602210CAXIAS              MACOND. MOTOCICLETA/MOTONETA/CICLOM S/CAPACETE DE SE244 * I            00000000070301   0000293470075720191213202001270000000000000000000000000                                                00000000000  000   7     00070439600255670301PASSAGEIRO
2000000000471620191212207570PREF. DE: MA - CAXIAS                   CXA0078593201911211750AV LUIS SALES                                               NWZ1149MA123611-SAMTHONDA/CG 150 TITAN EX                        PARTICULAR                    MOTOCICLETA     PRETA     00000000CARLOS ROGERIO DE SOUSA SILVA               RUA DO FIO NR. 929                      - CANGALHEIRO                           65600000CAXIAS              MACOND. MOTOC/MOTON./CICLOM TRANSPORTANDO/PASSAG.S/C244 * II           00000000070481   0000293470075720191213202001270000000000000000000000000                                                00000000000  000   8     00070439600320070481PASSAGEIRO
2000000000471620191212207570PREF. DE: MA - CAXIAS                   CXA0078578201911211450RUA AARAO REIS                                              OXZ0719MA123611-SAMTHONDA/NXR150 BROS ES                         PARTICULAR                    MOTOCICLETA     PRETA     00000000AFRANIO FRANKLIN RODRIGUES LEITE            RUA 25 QD 29 NR. 29                     - COHAB                                 65600000CAXIAS              MACOND. MOTOC/MOTON./CICLOM TRANSPORTANDO/PASSAG.S/C244 * II           00000000070481   0000293470075720191213202001270000000000000000000000000                                                00000000000  000   9     00070439600417670481PASSAGEIRO
2000000000471620191212207570PREF. DE: MA - CAXIAS                   CXA0078771201911221558PCA CANDIDO MENDES                                          PTO5354MA305941-SAMTHONDA/NXR160 BROS ESDD                       PARTICULAR                    MOTOCICLETA     VERMELHA  00000000LEONARDO ALMEIDA DE ARAUJO                  TV CONEGO ADERSON GUIMAR NR. 234        - TREZIDELA                             65607630CAXIAS              MACOND. MOTOC/MOTON./CICLOM TRANSPORTANDO/PASSAG.S/C244 * II           00000000070481   0000293470075720191213202001270000000000000000000000000                                                00000000000  000   10    00070439600524570481PASSAGEIRO
2000000000471620191212207570PREF. DE: MA - CAXIAS                   CXA0078772201911221601PCA CANDIDO MENDES                                          OJG2275MA305941-SAMTHONDA/BIZ 100 ES                             PARTICULAR                    MOTONETA        PRETA     00000000MARCIANA DUARTE  BRANDAO                    RUA JOAO PAULO II NR. NR300             - GUANABARA                             65690000COLINAS             MACOND. MOTOC/MOTON./CICLOM TRANSPORTANDO/PASSAG.S/C244 * II           00000000070481   0000293470075720191213202001270000000000000000000000000                                                00000000000  000   11    00070439600676470481PASSAGEIRO
2000000000471620191212207570PREF. DE: MA - CAXIAS                   CXA0078702201911221600PCA MAGALHAES DE ALMEIDA                                    NMU7732MA123611-SAMTHONDA/CG 125 FAN KS                          PARTICULAR                    MOTOCICLETA     VERMELHA  00000000SOLANGE COSTA DO NASCIMENTO                 R DO CAJUEIRO NR. 910                   - SERIEMA                               65602530CAXIAS              MACOND. MOTOC/MOTON./CICLOM TRANSPORTANDO/PASSAG.S/C244 * II           00000000070481   0000293470075720191213202001270000000000000000000000000                                                00000000000  000   12    00070439602553070481PASSAGEIRO
2000000000471620191212207570PREF. DE: MA - CAXIAS                   CXA0078710201911221615PCA MAGALHAES DE ALMEIDA                                    PSL3223MA123611-SAMTHONDA/POP100                                 PARTICULAR                    MOTOCICLETA     BRANCA    00000000CLAUDIO LUCIANO DA C FIGUEIRAS              R SAO JOSE NR. 1746                     - NAZARE                                65600010CAXIAS              MACOND. MOTOC/MOTON./CICLOM TRANSPORTANDO/PASSAG.S/C244 * II           00000000070481   0000293470075720191213202001270000000000000000000000000                                                00000000000  000   13    00070439602683870481PASSAGEIRO
2000000000471620191212207570PREF. DE: MA - CAXIAS                   CXA0078706201911221610PCA MAGALHAES DE ALMEIDA                                    PSJ5116MA123611-SAMTHONDA/POP100                                 PARTICULAR                    MOTOCICLETA     PRETA     00000000IVANY DOS SANTOS SILVA                      RUA 22 NR. 24                           QD B16 - RES E. COUTINHO                65604587CAXIAS              MACOND. MOTOC/MOTON./CICLOM TRANSPORTANDO/PASSAG.S/C244 * II           00000000070481   0000293470075720191213202001270000000000000000000000000                                                00000000000  000   14    00070439602805970481PASSAGEIRO
2000000000471620191212207570PREF. DE: MA - CAXIAS                   CXA0078701201911221555PCA MAGALHAES DE ALMEIDA                                    NHJ7813MA123611-SAMTJTA/SUZUKI EN125 YES                         PARTICULAR                    MOTOCICLETA     AZUL      00000000VALDECI GONCALVES DE SOUSA                  AV PRINCIPAL NR 23 A NR.                - SANTA EFIGENIA                        65130000PACO DO LUMIAR      MACOND. MOTOC/MOTON./CICLOM TRANSPORTANDO/PASSAG.S/C244 * II           00000000070481   0000293470075720191213202001270000000000000000000000000                                                00000000000  000   15    00070439602966770481PASSAGEIRO
2000000000471620191212207570PREF. DE: MA - CAXIAS                   CXA0078712201911221735AV DA RODOVIARIA                                            PTK3579MA123611-SAMTHONDA/CG 160 START                           PARTICULAR                    MOTOCICLETA     PRETA     00000000FRANCISCO DA SILVA BARRETO                  RUA COELHO NETO N NR. 27                - CENTRO                                65706000O.DAGUA DAS CUNHAS  MAAVANCAR SINAL VERMELHO DO SEMAFORO                208                00000000060501   0000293470075720191213202001270000000000000000000000000                                                00000000000  000   16    00070439603133560501PASSAGEIRO
2000000000471620191212207570PREF. DE: MA - CAXIAS                   CXA0078711201911221620RUA RIACHUELO                                               PSM7173MA123611-SAMTHONDA/BIZ 100 ES                             PARTICULAR                    MOTONETA        VERMELHA  00000000GIRLENE DE CARVALHO DIAS                    RUA RIACHUELO NR. 358                   - CENTRO                                65606620CAXIAS              MACOND. MOTOC/MOTON./CICLOM TRANSPORTANDO/PASSAG.S/C244 * II           00000000070481   0000293470075720191213202001270000000000000000000000000                                                00000000000  000   17    00070439603235870481PASSAGEIRO
2000000000471620191212207570PREF. DE: MA - CAXIAS                   CXA0078762201911221108PCA PANTHEON                                                NWX7871MA305941-SAMTVW/FOX 1.0 GII                               PARTICULAR                    AUTOMOVEL       VERMELHA  00000000CONCEICAO DE MARIA DE MELO ALMEIDA          II TRAV DO FIO NR. N-649                - CANGALHEIRO                           65606270CAXIAS              MAESTACIONAR NAS VAGAS RESERVADAS A IDOSOS, SEM CREDART 181, XX        00000000076252   0000293470075720191213202001270000000000000000000000000                                                00000000000  000   18    00070439603339776252PASSAGEIRO
2000000000471620191212207570PREF. DE: MA - CAXIAS                   CXA0078595201911221445RUA ANISIO VIEIRA CHAVES                                    NWV7819MA123611-SAMTHONDA/POP100                                 PARTICULAR                    MOTOCICLETA     ROXA      00000000ODETE PEREIRA DE ARAUJO SANTOS              AV BENJAMIM CONSTANT NR. 1933           - NOVA CAXIAS                           65600000CAXIAS              MACOND. MOTOC/MOTON./CICLOM TRANSPORTANDO/PASSAG.S/C244 * II           00000000070481   0000293470075720191213202001270000000000000000000000000                                                00000000000  000   19    00070439603510170481PASSAGEIRO
2000000000471620191212207570PREF. DE: MA - CAXIAS                   CXA0078594201911221445RUA ANISIO VIEIRA CHAVES                                    OIT6108MA123611-SAMTHONDA/CG 125 FAN KS                          PARTICULAR                    MOTOCICLETA     VERMELHA  00000000CARTEGIANE SILVA DOS SANTOS                 R WALTER BRITO NR. 1381                 - CAMPO DE BELEM                        65600000CAXIAS              MACOND. MOTOC/MOTON./CICLOM TRANSPORTANDO/PASSAG.S/C244 * II           00000000070481   0000293470075720191213202001270000000000000000000000000                                                00000000000  000   20    00070439603679570481PASSAGEIRO
2000000000471620191212207570PREF. DE: MA - CAXIAS                   CXA0078777201911221653PCA MAGALHAES DE ALMEIDA                                    KVA8236MA305941-SAMTHONDA/XR 250 TORNADO                         PARTICULAR                    MOTOCICLETA     VERMELHA  00000000MARCOS AURELIO V SILVA FILHO                RUA SENADOR C CARDOSO NR. 1221          - CANGALHEIRO                           65600001CAXIAS              MACOND. MOTOC/MOTON./CICLOM TRANSPORTANDO/PASSAG.S/C244 * II           00000000070481   0000293470075720191213202001270000000000000000000000000                                                00000000000  000   21    00070439603909370481PASSAGEIRO
2000000000471620191212207570PREF. DE: MA - CAXIAS                   CXA0078704201911221609PCA MAGALHAES DE ALMEIDA                                    OJG3970MA123611-SAMTHONDA/CG 150 FAN ESI                         PARTICULAR                    MOTOCICLETA     PRETA     00000000TASSIA MARTINS PEREIRA                      RUA 06 NR. N03                          F 02 - RES VL PARAISO                   65600010CAXIAS              MACOND. MOTOC/MOTON./CICLOM TRANSPORTANDO/PASSAG.S/C244 * II           00000000070481   0000293470075720191213202001270000000000000000000000000                                                00000000000  000   22    00070439604125070481PASSAGEIRO
2000000000471620191212207570PREF. DE: MA - CAXIAS                   CXA0078600201911221550PCA MAGALHAES DE ALMEIDA                                    OJF4639MA123611-SAMTHONDA/NXR150 BROS ES                         PARTICULAR                    MOTOCICLETA     VERMELHA  00000000ELMARK MARTINS DA SILVA                     R.SAO JOSE N-1404 NR.                   - TRIZIDELA                             65600000CAXIAS              MACOND. MOTOC/MOTON./CICLOM TRANSPORTANDO/PASSAG.S/C244 * II           00000000070481   0000293470075720191213202001270000000000000000000000000                                                00000000000  000   23    00070439604188870481PASSAGEIRO
2000000000471620191212207570PREF. DE: MA - CAXIAS                   CXA0078599201911221520RUA 24 DE AGOSTO                                            PTD3596MA123611-SAMTHONDA/POP 110I                               PARTICULAR                    MOTOCICLETA     PRETA     00000000LUCILENE GONCALVES DOS S BRITO              TV BELA VISTA NR. 1026                  - CASTELO BRANCO                        65604180CAXIAS              MACOND. MOTOC/MOTON./CICLOM TRANSPORTANDO/PASSAG.S/C244 * II           00000000070481   0000293470075720191213202001270000000000000000000000000                                                00000000000  000   24    00070439604307470481PASSAGEIRO
2000000000471620191212207570PREF. DE: MA - CAXIAS                   CXA0078598201911221420RUA 24 DE AGOSTO                                            OJO0552MA123611-SAMTHONDA/BIZ 100 ES                             PARTICULAR                    MOTONETA        VERMELHA  00000000LUCIANA VIEIRA DA SILVA                     AV BENJAMIM CONSTANT NR. 1031           - CASTELO BRANCO                        65600000CAXIAS              MACOND. MOTOCICLETA/MOTONETA/CICLOM S/CAPACETE DE SE244 * I            00000000070301   0000293470075720191213202001270000000000000000000000000                                                00000000000  000   25    00070439604417870301PASSAGEIRO
2000000000471620191212207570PREF. DE: MA - CAXIAS                   CXA0078708201911221610PCA MAGALHAES DE ALMEIDA                                    PSM3633MA123611-SAMTHONDA/CG 160 TITAN EX                        PARTICULAR                    MOTOCICLETA     PRETA     00000000FRANCISCO DAS CHAGAS S DA SILVA             RUA ALTO BONITO NR. 118                 - SAO RAIMUNDO                          65400000CODO                MACOND. MOTOC/MOTON./CICLOM TRANSPORTANDO/PASSAG.S/C244 * II           00000000070481   0000293470075720191213202001270000000000000000000000000                                                00000000000  000   26    00070439604472070481PASSAGEIRO
2000000000471620191212207570PREF. DE: MA - CAXIAS                   CXA0078597201911221510RUA CORONEL LIBANIO LOBO                                    OXU7333MA123611-SAMTHONDA/CG 125 FAN ES                          PARTICULAR                    MOTOCICLETA     VERMELHA  00000000WANDERSON LIMA DA SILVA                     TV CALDEIROES III NR. 336               - CALDEIROES                            65600010CAXIAS              MACOND. MOTOC/MOTON./CICLOM TRANSPORTANDO/PASSAG.S/C244 * II           00000000070481   0000293470075720191213202001270000000000000000000000000                                                00000000000  000   27    00070439604560370481PASSAGEIRO
2000000000471620191212207570PREF. DE: MA - CAXIAS                   CXA0078596201911221505RUA CEL. LIBANIO LOBO                                       OJC2049MA122131-SAMTHONDA/BIZ 125 ES                             PARTICULAR                    MOTONETA        PRETA     00000000KEILA REJANE COSTA SILVA                    RUA SANTA MARIA NR. 1375                - CENTRO                                65600000CAXIAS              MACOND. MOTOC/MOTON./CICLOM TRANSPORTANDO/PASSAG.S/C244 * II           00000000070481   0000293470075720191213202001270000000000000000000000000                                                00000000000  000   28    00070439604635970481PASSAGEIRO
2000000000471620191212207570PREF. DE: MA - CAXIAS                   CXA0078703201911221600PCA MAGALHAES DE ALMEIDA                                    NXL7644MA123611-SAMTHONDA/BIZ 125 KS                             PARTICULAR                    MOTONETA        VERDE     00000000CELIA VERONICA MORAES CAVALCANTE            RUA DO ANGELIM NR. 181                  - CANGALHEIRO                           65600000CAXIAS              MACOND. MOTOC/MOTON./CICLOM TRANSPORTANDO/PASSAG.S/C244 * II           00000000070481   0000293470075720191213202001270000000000000000000000000                                                00000000000  000   29    00070439604762270481PASSAGEIRO
2000000000471620191212207570PREF. DE: MA - CAXIAS                   CXA0077982201911220830PCA DO SENADINHO                                            PSA3305MA78162-SAMT HONDA/POP100                                 PARTICULAR                    MOTOCICLETA     PRETA     00000000ROSANGELA RODRIGUES DA SILVA                RUA DA GLORIA NR. 1114                  - CAMPO DE BELEM                        65600000CAXIAS              MACOND. MOTOC/MOTON./CICLOM TRANSPORTANDO/PASSAG.S/C244 * II           00000000070481   0000293470075720191213202001270000000000000000000000000                                                00000000000  000   30    00070439604974970481PASSAGEIRO
2000000000471620191212207570PREF. DE: MA - CAXIAS                   CXA0078768201911221535PCA CANDIDO MENDES                                          NWX6424MA122231-SAMTHONDA/CG 150 FAN ESI                         PARTICULAR                    MOTOCICLETA     PRETA     00000000GILSON RODRIGUES DA SILVA                   TRAV INOVA VIDA NR. 26                  - ITAPECURUZINHO                        65600000CAXIAS              MACOND. MOTOC/MOTON./CICLOM TRANSPORTANDO/PASSAG.S/C244 * II           00000000070481   0000293470075720191213202001270000000000000000000000000                                                00000000000  000   31    00070439605244870481PASSAGEIRO
2000000000471620191212207570PREF. DE: MA - CAXIAS                   CXA0078763201911221157PCA CANDIDO MATRIZ                                          PSN3802MA305941-SAMTHONDA/POP 110I                               PARTICULAR                    MOTOCICLETA     BRANCA    00000000ELIANE LIMA DE SOUSA                        TV LUIS ROCHA NR. 2113                  - NOVA CAXIAS                           65604420CAXIAS              MACOND. MOTOC/MOTON./CICLOM TRANSPORTANDO/PASSAG.S/C244 * II           00000000070481   0000293470075720191213202001270000000000000000000000000                                                00000000000  000   32    00070439605522670481PASSAGEIRO
2000000000471620191212207570PREF. DE: MA - CAXIAS                   CXA0078767201911221513PCA CANDIDO MENDES                                          NHD1370MA305941-SAMTHONDA/POP100                                 PARTICULAR                    MOTOCICLETA     PRETA     00000000ANTONIO JOSE PEREIRA DE SOUSA               RUA 24 DE DEZEMBRO NR. 967              - SERIEMA                               65602420CAXIAS              MACOND. MOTOC/MOTON./CICLOM TRANSPORTANDO/PASSAG.S/C244 * II           00000000070481   0000293470075720191213202001270000000000000000000000000                                                00000000000  000   33    00070439606091270481PASSAGEIRO
2000000000471620191212207570PREF. DE: MA - CAXIAS                   CXA0078766201911221510PCA CANDIDO MENDES                                          PTK3373MA122231-SAMTHONDA/POP 110I                               PARTICULAR                    MOTOCICLETA     PRETA     00000000FRANCISCA ADRIELE R SANTOS                  II TV DO FIO NR. N-19                   - PONTE                                 65609325CAXIAS              MACOND. MOTOC/MOTON./CICLOM TRANSPORTANDO/PASSAG.S/C244 * II           00000000070481   0000293470075720191213202001270000000000000000000000000                                                00000000000  000   34    00070439606712770481PASSAGEIRO
2000000000471620191212207570PREF. DE: MA - CAXIAS                   CXA0078765201911221505PCA CANDIDO MENDES                                          PTA1173MA122231-SAMTHONDA/POP 110I                               PARTICULAR                    MOTOCICLETA     PRETA     00000000FRANCISCO GOMES RODRIGUES                   RUA ANTONIO COELHO N NR. 604            - CENTRO                                65715000LAGO DA PEDRA       MACOND. MOTOCICLETA/MOTONETA/CICLOM S/CAPACETE DE SE244 * I            00000000070301   0000293470075720191213202001270000000000000000000000000                                                00000000000  000   35    00070439606805070301PASSAGEIRO
2000000000471620191212207570PREF. DE: MA - CAXIAS                   CXA0078776201911221651PCA MAGALHAES DE  ALMEIDA                                   NMT7432MA305941-SAMTJTA/SUZUKI EN125 YES                         PARTICULAR                    MOTOCICLETA     VERMELHA  00000000DANIEL CHARLLETT PEREIRA LIMA               RUA SENADOR C RODRIGUES NR. 784         - CENTRO                                65602250CAXIAS              MACOND. MOTOC/MOTON./CICLOM TRANSPORTANDO/PASSAG.S/C244 * II           00000000070481   0000293470075720191213202001270000000000000000000000000                                                00000000000  000   36    00070439606929470481PASSAGEIRO
2000000000471620191212207570PREF. DE: MA - CAXIAS                   CXA0078775201911221648PCA MAGALHAES DE ALMEIDA                                    OJN0687MA305941-SAMTHONDA/POP100                                 PARTICULAR                    MOTOCICLETA     PRETA     00000000MARIA JANETE BRITO REGO                     RUA SANTO ANTONIO NR. 1256              - CAMPO DE BELEM                        65600000CAXIAS              MACOND. MOTOC/MOTON./CICLOM TRANSPORTANDO/PASSAG.S/C244 * II           00000000070481   0000293470075720191213202001270000000000000000000000000                                                00000000000  000   37    00070439607192270481PASSAGEIRO
2000000000471620191212207570PREF. DE: MA - CAXIAS                   CXA0078774201911221640PCA MAGALHAES DE ALMEIDA                                    OJC4527MA305941-SAMTHONDA/BIZ 100 ES                             PARTICULAR                    MOTONETA        VERMELHA  00000000LAURIZETE DA SILVA                          RUA N S DA CONCEICAO NR. N-260          QD 15 - MUTIRAO                         65600000CAXIAS              MACOND. MOTOC/MOTON./CICLOM TRANSPORTANDO/PASSAG.S/C244 * II           00000000070481   0000293470075720191213202001270000000000000000000000000                                                00000000000  000   38    00070439607367470481PASSAGEIRO
2000000000471620191212207570PREF. DE: MA - CAXIAS                   CXA0078773201911221622RUA SENADOR COSTA RODRIGUES                                 NHD8215MA305941-SAMTHONDA/BIZ 125 ES                             PARTICULAR                    MOTONETA        PRETA     00000000JOSELIA ALVES OLIVEIRA                      TV MAL COSTA SILVA QD F NR. NR-16       - REC.DOS POETAS                        65600000CAXIAS              MATRANSIT. P/ CONTRAMAO EM VIAS C/ SENT. UNICO      186 * II           00000000057380   0000293470075720191213202001270000000000000000000000000                                                00000000000  000   39    00070439607588057380PASSAGEIRO
2000000000471620191212207570PREF. DE: MA - CAXIAS                   CXA0078784201911231005AV CENTRAL                                                  PSP9044MA305941-SAMTHONDA/CB 250F TWISTER                        PARTICULAR                    MOTOCICLETA     VERMELHA  00000000APRIGIO VIEIRA DE QUEIROZ NETO              RUA ALTO DA CRUZ NR. 1549               - NOVA CAXIAS                           65604330CAXIAS              MACOND. MOTOCICLETA/MOTONETA/CICLOM S/CAPACETE DE SE244 * I            00000000070301   0000293470075720191213202001270000000000000000000000000                                                00000000000  000   40    00070439607668170301PASSAGEIRO
2000000000471620191212207570PREF. DE: MA - CAXIAS                   CXA0078783201911230950RUA DA INDEPENDENCIA                                        NMR3918MA305941-SAMTHONDA/BIZ 125 KS                             PARTICULAR                    MOTONETA        PRETA     00000000MARIA JOSE OLIVEIRA HENRIQUE                RUA SATURNINO BELO NR. 3333             - SAO FRANCISCO                         65600440CAXIAS              MACOND. MOTOCICLETA/MOTONETA/CICLOM S/CAPACETE DE SE244 * I            00000000070301   0000293470075720191213202001270000000000000000000000000                                                00000000000  000   41    00070439607826970301PASSAGEIRO
2000000000471620191212207570PREF. DE: MA - CAXIAS                   CXA0078782201911230933AV SANTOS DUMONT                                            PSZ4484MA305941-SAMTHONDA/POP 110I                               PARTICULAR                    MOTOCICLETA     VERMELHA  00000000MARIA DOS SANTOS CONCEICAO                  RUA BELA VISTA NR. 1611                 - CASTELO BRANCO                        65604160CAXIAS              MACOND. MOTOCICLETA/MOTONETA/CICLOM S/CAPACETE DE SE244 * I            00000000070301   0000293470075720191213202001270000000000000000000000000                                                00000000000  000   42    00070439608041770301PASSAGEIRO
3000042000000000042
