1*NATI209610202002040039602020020400000000000000
2000000000396020200204209610PREF. DE: MA - ACAILANDIA               ACA0033013202001301057AV. JK, 142, CENTRO                                         OIX8372MA7008       I/TOYOTA HILUX CD4X4 SRV                     PARTICULAR                    CAMINHONETE     PRETA     00000000ALINE DE ALMEIDA SILVA                      AV DOS FRANCESES APT208 NR. COND        P SEGURO BL 3 - OUTEIRO DA CRUZ         65036284SAO LUIS            MADIR.VEIC. UTILIZANDO-SE DE TELEFONE CELULAR       252 * VI           00000000073662   0000130160096120200205202003200000000000000000000000000                                                00000000000  000   1     00040450807950473662ESPECIAL
2000000000396020200204209610PREF. DE: MA - ACAILANDIA               ACA0033014202001301015RUA BONAIRE, LOJA OXIGENIO                                  NMW5664MA7008       HONDA/CG150 TITAN MIX EX                     PARTICULAR                    MOTOCICLETA     PRETA     00000000GECIANE RODRIGUES TEIXEIRA                  QUADRA 10 NR. 06                        - VILA ILDEMAR                          65930000ACAILANDIA          MAAVANCAR SINAL VERMELHO DO SEMAFORO                208                00000000060501   0000293470096120200205202003200000000000000000000000000                                                00000000000  000   2     00070450807995460501PASSAGEIRO
2000000000396020200204209610PREF. DE: MA - ACAILANDIA               ACA0031719202001301041R.RIO GRANDE, CENTRO                                        NHM9926MA4445       FIAT/SIENA FIRE FLEX                         PARTICULAR                    AUTOMOVEL       CINZA     00000000EVANILDA SANTOS BEZERRA                     RUA MANAUS NR. 621                      - NV IMPERATRIZ                         65900000IMPERATRIZ          MAESTACIONAR NA CONTRAMAO DE DIRECAO                181 * XV           00000000055250   0000130160096120200205202003200000000000000000000000000                                                00000000000  000   3     00040450808016255250PASSAGEIRO
2000000000396020200204209610PREF. DE: MA - ACAILANDIA               ACA0031714202001280854R.DUQUE DE CAXIAS, CENTRO                                   PSY6969MA4445       HONDA/CG 160 FAN                             PARTICULAR                    MOTOCICLETA     BRANCA    00000000JOSANE MARIA SOUSA ARAUJO                   QD 54 NR. 07                            - RESIDENCIAL TROPICAL                  65930000ACAILANDIA          MATRANSIT. P/ CONTRAMAO EM VIAS C/ SENT. UNICO      186 * II           00000000057380   0000293470096120200205202003200000000000000000000000000                                                00000000000  000   4     00070450808046457380PASSAGEIRO
2000000000396020200204209610PREF. DE: MA - ACAILANDIA               ACA0031715202001281038R.BOM JEUSS N.200, CENTRO                                   OIW3198MA4445       HONDA/BIZ 125 ES                             PARTICULAR                    MOTONETA        PRETA     00000000FLAVIO GOMES REIS                           RUA PAU BRASIL NR. L01                  QD27 - JD GLORIA                        65930000ACAILANDIA          MAESTAC. EM LOCAL/HORARIO PROIBIDO ESPECIFIC. P/SINA181*XVIII          00000000055500   0000130160096120200205202003200000000000000000000000000                                                00000000000  000   5     00040450808082055500PASSAGEIRO
2000000000396020200204209610PREF. DE: MA - ACAILANDIA               ACA0031716202001281039R.BOM JESUS C/R.SAO LUIS                                    OIW3198MA4445       HONDA/BIZ 125 ES                             PARTICULAR                    MOTONETA        PRETA     00000000FLAVIO GOMES REIS                           RUA PAU BRASIL NR. L01                  QD27 - JD GLORIA                        65930000ACAILANDIA          MAABANDONAR NA VIA OBJETOS OU SUBSTANCIAS           172                00000000052312   0000130160096120200205202003200000000000000000000000000                                                00000000000  000   6     00040450808115052312PASSAGEIRO
2000000000396020200204209610PREF. DE: MA - ACAILANDIA               ACA0031718202001281128AV.DORGIVAL P. SOUSA, CENTRO                                PTM2202MA4445       HONDA/BIZ 110I                               PARTICULAR                    MOTONETA        VERMELHA  00000000FRANCISCA IVANILDE DE S PEREIRA             QD 37 NR. N 30                          - VL BOM JARDIM                         65930000ACAILANDIA          MAAVANCAR SINAL VERMELHO DO SEMAFORO                208                00000000060501   0000293470096120200205202003200000000000000000000000000                                                00000000000  000   7     00070450808151760501PASSAGEIRO
2000000000396020200204209610PREF. DE: MA - ACAILANDIA               ACA0033985202001280903R.BOM JESUS FRT.RODOVIARIA                                  NXO2882MA3095       FIAT/PALIO ATTRACTIV 1.4                     PARTICULAR                    AUTOMOVEL       CINZA     00000000ELIZANGELA MARIA A DE S CANGUSSU            RUA DUQUE DE CAXIAS NR. 23              - CENTRO                                65927000DAVINOPOLIS         MAESTACIONAR AO LADO DE OUTRO VEICULO EM FILA DUPLA 181 * XI           00000000054870   0000195230096120200205202003200000000000000000000000000                                                00000000000  000   8     00050450808198354870PASSAGEIRO
2000000000396020200204209610PREF. DE: MA - ACAILANDIA               ACA0033986202001281030R.BOM JESUS FRT.FIKSBELL                                    NHF2719MA3095       FORD/F350 G                                  PARTICULAR                    CAMINHAO        AZUL      00000000GUSA NORDESTE S/A                           ROD BR 222 KM 14,5 NR. S/N              - DIST IND PEQUIA                       65930000ACAILANDIA          MAESTACIONAR AO LADO DE OUTRO VEICULO EM FILA DUPLA 181 * XI           00000000054870   0000195230096120200205202003200000000000000000000000000                                                00000000000  000   9     00050450808222054870CARGA
2000000000396020200204209610PREF. DE: MA - ACAILANDIA               ACA0033987202001281105AV.TACITO CALDAS N.717, CENTRO                              PTM9529MA3095       HONDA/BIZ 125                                PARTICULAR                    MOTONETA        BRANCA    00000000FERNANDO ALVES                              R MARIA ALVES PIMENTA NR. N 14          QD 17 - JD GLORIA II                    65930000ACAILANDIA          MADIR.VEIC. UTILIZANDO-SE DE TELEFONE CELULAR       252 * VI           00000000073662   0000130160096120200205202003200000000000000000000000000                                                00000000000  000   10    00040450808267073662PASSAGEIRO
2000000000396020200204209610PREF. DE: MA - ACAILANDIA               ACA0034006202001281635R.MARLY SARNEY, LADO MERCADO                                JKK6525MA7760       TOYOTA/COROLLA XEI20FLEX                     PARTICULAR                    AUTOMOVEL       PRATA     00000000EVERTON LIMA RODRIGUES                      RUA NEWTON BOM JARDIM_QDR 3 NR. 17A     SUP. BOM JARDIM - BOM JARDIM            65930000ACAILANDIA          MAESTAC. EM LOCAL/HORARIO PROIBIDO ESPECIFIC. P/SINA181*XVIII          00000000055500   0000130160096120200205202003200000000000000000000000000                                                00000000000  000   11    00040450811196355500PASSAGEIRO
2000000000396020200204209610PREF. DE: MA - ACAILANDIA               ACA0033314202001281450R.DORGIVAL P. SOUSA N.931                                   NND7303MA3123       I/FIAT SIENA EL FLEX                         PARTICULAR                    AUTOMOVEL       CINZA     00000000JOSE DE SOUSA GOMES                         RUA JOAO RIBEIRO NR. LT16               QD06 - OURO VERDE                       65930000ACAILANDIA          MADEIXAR O CONDUTOR DE USAR O CINTO E SEGURANCA     167                00000000051851   0000195230096120200205202003200000000000000000000000000                                                00000000000  000   12    00050450811395851851PASSAGEIRO
2000000000396020200204209610PREF. DE: MA - ACAILANDIA               ACA0033313202001281420R.DORGIVAL, BANCO BRADESCO                                  PTG2783MA3123       I/TOYOTA HILUX CDSRVA4FD                     PARTICULAR                    CAMINHONETE     BRANCA    00000000GILMAR ALOCHIO GASPAR                       RUA PERNAMBUCO NR. N 133                - GETTAT                                65930000ACAILANDIA          MAESTAC. EM LOCAL/HORARIO PROIBIDO ESPECIFIC. P/SINA181*XVIII          00000000055500   0000130160096120200205202003200000000000000000000000000                                                00000000000  000   13    00040450811454755500ESPECIAL
2000000000396020200204209610PREF. DE: MA - ACAILANDIA               ACA0034015202001301459R.DORGIVAL FRT.BRADESCO                                     PTM3531MA7760       RENAULT/KWID OUTSID 10MT                     PARTICULAR                    AUTOMOVEL       PRETA     00000000PAULO HENRIQUE BARBERINO PEREIRA            ROD BR 010 KM 1406 NR. SN               - ZONA RURAL                            65930000ACAILANDIA          MAESTACIONAR SOBRE FAIXA DESTINADA A PEDESTRE       181 * VIII         00000000054522   0000195230096120200205202003200000000000000000000000000                                                00000000000  000   14    00050450811613254522PASSAGEIRO
2000000000396020200204209610PREF. DE: MA - ACAILANDIA               ACA0032367202001221003R.TACITO CALDAS, CENTRO                                     NWW2784MA3110       I/FIAT SIENA EL FLEX                         PARTICULAR                    AUTOMOVEL       CINZA     00000000DAMIANA DE FATIMA DA SILVA BRAGA            RUA CASTELO BRANCO NR. 840              - CENTRO                                65930000ACAILANDIA          MAESTACIONAR AO LADO DE OUTRO VEICULO EM FILA DUPLA 181 * XI           00000000054870   0000195230096120200205202003200000000000000000000000000                                                00000000000  000   15    00050450811678754870PASSAGEIRO
2000000000396020200204209610PREF. DE: MA - ACAILANDIA               ACA0032366202001301158R.DORGIVAL PINHEIRO, CENTRO                                 PMI1232MA3110       CHEVROLET/S10 LTZ FD4A                       PARTICULAR                    CAMINHONETE     BRANCA    00000000CARLOS GONCALVES DA SILVA                   RUA SAFIRA NR. 11                       - JD AMERICA                            65930000ACAILANDIA          MAESTACIONAR AO LADO DE OUTRO VEICULO EM FILA DUPLA 181 * XI           00000000054870   0000195230096120200205202003200000000000000000000000000                                                00000000000  000   16    00050450811770854870ESPECIAL
2000000000396020200204209610PREF. DE: MA - ACAILANDIA               ACA0033910202001301502R.MARLY SARNEY N.617, CENTRO                                PTJ3782MA3179       HONDA/BIZ 110I                               PARTICULAR                    MOTONETA        VERMELHA  00000000DAIANE PRISCILA DA SILVA MATOS              QUADRA 75 NR. N 167                     - VILA ILDEMAR                          65930000ACAILANDIA          MAESTAC. EM DESACORDO C/ A REGULAMENTACAO ESPECIFICA181 * XVII         00000000055411   0000195230096120200205202003200000000000000000000000000                                                00000000000  000   17    00050450811844555411PASSAGEIRO
2000000000396020200204209610PREF. DE: MA - ACAILANDIA               ACA0033015202001301553AV.BERNARDO SAYAO, 1681, CENTR                              NOS9273MA7008       VW/GOL 1.6                                   PARTICULAR                    AUTOMOVEL       PRATA     00000000IVAN COSMO BRITO                            RUA DORGIVAL P DE SOUSA NR. 1245        - CENTRO                                65930000ACAILANDIA          MAESTACIONAR AO LADO DE OUTRO VEICULO EM FILA DUPLA 181 * XI           00000000054870   0000195230096120200205202003200000000000000000000000000                                                00000000000  000   18    00050450811883654870PASSAGEIRO
2000000000396020200204209610PREF. DE: MA - ACAILANDIA               ACA0033016202001301501R.MARLY SARNEY N.617, CENTRO                                PSV4811MA7008       HONDA/BIZ 110I                               PARTICULAR                    MOTONETA        VERMELHA  00000000LUCIANA COELHO DE SOUSA                     RUA BOA VISTA NR. 375                   - JACU                                  65930000ACAILANDIA          MAESTAC. EM DESACORDO C/ A REGULAMENTACAO ESPECIFICA181 * XVII         00000000055411   0000195230096120200205202003200000000000000000000000000                                                00000000000  000   19    00050450811944155411PASSAGEIRO
2000000000396020200204209610PREF. DE: MA - ACAILANDIA               ACA0032817202001301124R.MARANHAO C/R.SAO FRANCISCO                                OXU4698MA3168       HONDA/BIZ 125 ES                             PARTICULAR                    MOTONETA        VERMELHA  00000000ANTONIA ELENILSA DE S PEREIRA               RUA 2 DE ABRIL NR. 166                  - VL TANCREDO                           65930000ACAILANDIA          MAAVANCAR SINAL VERMELHO DO SEMAFORO                208                00000000060501   0000293470096120200205202003200000000000000000000000000                                                00000000000  000   20    00070450812003260501PASSAGEIRO
3000020000000000020
