1*NATI208030201801220050772018012200000000000000
2000000000507720180122208030PREF. DE: MA - IMPERATRIZ               IPA0147594201801081517R CORIOLANO MILHOMEN C/GETULIO                              NHR0504MA 534447    HONDA/XR 250 TORNADO                         PARTICULAR                    MOTOCICLETA     VERMELHA  00000000PIETRO MARINO FILHO                         RUA LUIS DOMINGOS NR. N1176             - CENTRO                                65900000IMPERATRIZ          MADEIXAR DE DAR PREF.PEDES/VEIC NAO MOTOR.FAIXA ELE 214 * I            00000000061220   0000293470080320180123201803080000000000000000000000000                                                00000000000  000   1     00070304603488161220PASSAGEIRO
2000000000507720180122208030PREF. DE: MA - IMPERATRIZ               IPA0147595201801081615R RIO GRANDE DO N C/BENEDITO L                              PSN0103MA534447     FIAT/TORO FREEDOM AT                         PARTICULAR                    CAMINHONETE     BRANCA    00000000REAL ADM E INVEST EIRELI                    RUA A NR. 4                             QD 11 LT 07 - JD TROPICAL               65910140IMPERATRIZ          MADIR.VEIC. UTILIZANDO-SE DE TELEFONE CELULAR       252 * VI           00000000073662   0000130160080320180123201803080000000000000000000000000                                                00000000000  000   2     00040304603613273662ESPECIAL
2000000000507720180122208030PREF. DE: MA - IMPERATRIZ               IPA0147597201801081810AV SANTA TEREZA C/ALAGOAS                                   NNH0462MA534447     VW/VOYAGE 1.0                                PARTICULAR                    AUTOMOVEL       PRETA     00000000ROBSON DE LIMA SANTOS                       RUA SILVINO SANTOS NR. 02               - IMIGRANTES                            65900000IMPERATRIZ          MAAVANCAR SINAL VERMELHO DO SEMAFORO                208                00000000060501   0000293470080320180123201803080000000000000000000000000                                                00000000000  000   3     00070304604325260501PASSAGEIRO
2000000000507720180122208030PREF. DE: MA - IMPERATRIZ               IPA0147598201701081835R PIAUI F/N625                                              NXQ5276MA534447     VW FOX 1.6 PRIME GII                         PARTICULAR                    AUTOMOVEL       BRANCA    00000000CLELIO SANTOS PANGARO                       RUA SAO PAULO NR. N 769                 - NV IMPERATRIZ                         65900000IMPERATRIZ          MAESTACIONAR AO LADO DE OUTRO VEICULO EM FILA DUPLA 181 * XI           00000000054870   0000195230080320180123201803080000000000000000000000000                                                00000000000  000   4     00050304604666954870PASSAGEIRO
2000000000507720180122208030PREF. DE: MA - IMPERATRIZ               IPA0146498201712261033AV GETULIO VARGAS N1889                                     NMW4182MA465127     I/CHEVROLET AGILE LTZ                        PARTICULAR                    AUTOMOVEL       PRATA     00000000RODRIGO NASCIMENTO REIS                     RUA BENEDITO LEITE NR. 251              - CENTRO                                65900000IMPERATRIZ          MAESTACIONAR AO LADO DE OUTRO VEICULO EM FILA DUPLA 181 * XI           00000000054870   0000195230080320180123201803080000000000000000000000000                                                00000000000  000   5     00050304604987054870PASSAGEIRO
2000000000507720180122208030PREF. DE: MA - IMPERATRIZ               IPA0147599201801081630AV GETULIO VARGAS F/PANTERA MA                              NXP9434MA534447     FIAT/UNO MILLE ECONOMY                       PARTICULAR                    AUTOMOVEL       BRANCA    00000000TATIANA FAGUNDES RODRIGUES                  RUA MANOEL BANDEIRA NR. 772             - CENTRO                                65900010IMPERATRIZ          MADIR.VEIC. UTILIZANDO-SE DE TELEFONE CELULAR       252 * VI           00000000073662   0000130160080320180123201803080000000000000000000000000                                                00000000000  000   6     00040304605149273662PASSAGEIRO
2000000000507720180122208030PREF. DE: MA - IMPERATRIZ               IPA0146499201712261040AV DORGIVAL P SOUSA N1060                                   PSK4975MA465127     CHEV/PRISMA 1.4AT LT                         PARTICULAR                    AUTOMOVEL       BRANCA    00000000JOSE COELHO DE SOUSA                        RUA CEARA NR. 1134                      - MERCADINHO                            65901260IMPERATRIZ          MADIRIGIR VEICULO SEGURANDO TELEFONE CELULAR        ART 252, & UNICO   00000000076331   0000293470080320180123201803080000000000000000000000000                                                00000000000  000   7     00070304605205776331PASSAGEIRO
2000000000507720180122208030PREF. DE: MA - IMPERATRIZ               IPA0146896201801060920R AQUILES LISBOA PROX N742                                  NOW6438MA535010     I/TOYOTA HILUX CD4X4 SRV                     PARTICULAR                    CAMINHONETE     BRANCA    00000000SEBASTIAO MAGALHAES FIQUEIRA                RUA BENJAMIM CONSTANT NR. 314           - JACU                                  65930000ACAILANDIA          MAESTACIONAR AO LADO DE OUTRO VEICULO EM FILA DUPLA 181 * XI           00000000054870   0000195230080320180123201803080000000000000000000000000                                                00000000000  000   8     00050304605328254870ESPECIAL
2000000000507720180122208030PREF. DE: MA - IMPERATRIZ               IPA0146897201801060955R AQUILES LISBOA PROX N666                                  NSV7039MA535010     FIAT/UNO MILLE WAY ECON                      PARTICULAR                    AUTOMOVEL       BRANCA    00000000MARLUCE DA SILVA SILVEIRA                   RUA GONCALVES DIAS NR. 25               - CENTRO                                65900000IMPERATRIZ          MAESTACIONAR AO LADO DE OUTRO VEICULO EM FILA DUPLA 181 * XI           00000000054870   0000195230080320180123201803080000000000000000000000000                                                00000000000  000   9     00050304605376254870PASSAGEIRO
2000000000507720180122208030PREF. DE: MA - IMPERATRIZ               IPA0146899201801061023R AQUILES LISBOA PROX N550                                  PSS5913MA535010     FORD/FIESTA 16SE                             PARTICULAR                    AUTOMOVEL       BRANCA    00000000TATIANE PINHO PEREIRA                       RUA ANTONIO DE MIRANDA NR. 10           BL C - CENTRO                           65900620IMPERATRIZ          MAESTACIONAR AO LADO DE OUTRO VEICULO EM FILA DUPLA 181 * XI           00000000054870   0000195230080320180123201803080000000000000000000000000                                                00000000000  000   10    00050304605441654870PASSAGEIRO
2000000000507720180122208030PREF. DE: MA - IMPERATRIZ               IPA0147139201712290751R BENEDITO LEITE C/AV CEARA                                 OXQ6838MA535028     HONDA/CG150 FAN ESDI                         PARTICULAR                    MOTOCICLETA     VERMELHA  00000000FRANCISCO WELLINGTON SOUSA                  RUA 20 NR. N 5                          - PQ BURITI                             65906000IMPERATRIZ          MAAVANCAR SINAL VERMELHO DO SEMAFORO                208                00000000060501   0000293470080320180123201803080000000000000000000000000                                                00000000000  000   11    00070304606629560501PASSAGEIRO
2000000000507720180122208030PREF. DE: MA - IMPERATRIZ               IPA0147600201701081635AV GETULIO VARGAS F/IMP DA BOR                              NXP9434MA534447     FIAT/UNO MILLE ECONOMY                       PARTICULAR                    AUTOMOVEL       BRANCA    00000000TATIANA FAGUNDES RODRIGUES                  RUA MANOEL BANDEIRA NR. 772             - CENTRO                                65900010IMPERATRIZ          MADIRIGIR VEICULO SEGURANDO TELEFONE CELULAR        ART 252, & UNICO   00000000076331   0000293470080320180123201803080000000000000000000000000                                                00000000000  000   12    00070304607492176331PASSAGEIRO
2000000000507720180122208030PREF. DE: MA - IMPERATRIZ               IPA0147141201712290840R BENEDITO LEITE PROX N1359                                 NNE0387MA535028     CHEVROLET/CLASSIC LS                         PARTICULAR                    AUTOMOVEL       CINZA     00000000WILSON FRANCO FILHO                         RUA SIMPLICIO MOREIRA NR. 1934          - CENTRO                                65901550IMPERATRIZ          MADIRIGIR VEICULO SEGURANDO TELEFONE CELULAR        ART 252, & UNICO   00000000076331   0000293470080320180123201803080000000000000000000000000                                                00000000000  000   13    00070304608106576331PASSAGEIRO
2000000000507720180122208030PREF. DE: MA - IMPERATRIZ               IPA0147601201712271338R JOAO PESSOA N16                                           NNH2089MA465267     HONDA/CG 150 FAN ESI                         PARTICULAR                    MOTOCICLETA     PRETA     00000000GUTHYERRE E SILVA SOUSA                     RUA MARECHAL RONDON NR. 590             - VL REDENCAO I                         65910110IMPERATRIZ          MACOND. MOTO/MOTONETA/CICLOM C/ CRIAN. MENOR DE 7 AN244 * V            00000000070721   0000293470080320180123201803080000000000000000000000000                                                00000000000  000   14    00070304609683670721PASSAGEIRO
2000000000507720180122208030PREF. DE: MA - IMPERATRIZ               IPA0147603201712271428R GODOFREDO VIANA N760                                      PSA1981MA465267     TOYOTA/ETIOS HB X                            PARTICULAR                    AUTOMOVEL       PRATA     00000000THALITA RODRIGUES LIMA                      AV PEDRO NEIVA DE SANTANA NR. SN        ECOPARK 3 CS 82 - JOAO PAULO II         65919555IMPERATRIZ          MAESTAC. EM LOCAL/HORARIO PROIBIDO ESPECIFIC. P/SINA181*XVIII          00000000055500   0000130160080320180123201803080000000000000000000000000                                                00000000000  000   15    00040304612302755500PASSAGEIRO
2000000000507720180122208030PREF. DE: MA - IMPERATRIZ               IPA0147142201712290900AV CEARA C/BENEDITO LEITE                                   NXG1754MA535028     HONDA/NXR150 BROS ESD                        PARTICULAR                    MOTOCICLETA     PRETA     00000000EMILSON DE SOUSA LIMA                       RUA COLOMBIA NR. 56                     - PQ ALVORADA I                         65915635IMPERATRIZ          MAAVANCAR SINAL VERMELHO DO SEMAFORO                208                00000000060501   0000293470080320180123201803080000000000000000000000000                                                00000000000  000   16    00070304612828260501PASSAGEIRO
2000000000507720180122208030PREF. DE: MA - IMPERATRIZ               IPA0147143201712290938R SIMPLIC MOREIRA PROX N1793B                               JWE5639MA535028     TOYOTA/COROLLA XLI16VVT                      PARTICULAR                    AUTOMOVEL       PRATA     00000000AMANDA FRANCO CLEMENTE                      RUA GODOFREDOR VIANA NR. 560            - CENTRO                                65901480IMPERATRIZ          MADEIXAR O CONDUTOR DE USAR O CINTO E SEGURANCA     167                00000000051851   0000195230080320180123201803080000000000000000000000000                                                00000000000  000   17    00050304613433951851PASSAGEIRO
2000000000507720180122208030PREF. DE: MA - IMPERATRIZ               IPA0147144201712290935R SIMPLIC MOREIRA PROX N1793                                JWE5639MA535028     TOYOTA/COROLLA XLI16VVT                      PARTICULAR                    AUTOMOVEL       PRATA     00000000AMANDA FRANCO CLEMENTE                      RUA GODOFREDOR VIANA NR. 560            - CENTRO                                65901480IMPERATRIZ          MAESTACIONAR AO LADO DE OUTRO VEICULO EM FILA DUPLA 181 * XI           00000000054870   0000195230080320180123201803080000000000000000000000000                                                00000000000  000   18    00050304614251054870PASSAGEIRO
2000000000507720180122208030PREF. DE: MA - IMPERATRIZ               IPA0147145201712290946R AQUILES LISBOA PROX N870 LIL                              OXT8965MA535028     HONDA/FIT EX CVT                             PARTICULAR                    AUTOMOVEL       PRATA     00000000ELIA DE SOUSA CARVALHO                      RUA MARANHAO NR. N 804                  - NOVA IMPERATRIZ                       65901590IMPERATRIZ          MAESTACIONAR AO LADO DE OUTRO VEICULO EM FILA DUPLA 181 * XI           00000000054870   0000195230080320180123201803080000000000000000000000000                                                00000000000  000   19    00050304614697354870PASSAGEIRO
2000000000507720180122208030PREF. DE: MA - IMPERATRIZ               IPA0147146201712291002R BENEDITO LEITE N1281                                      NMQ4622MA535028     TOYOTA/COROLLA XEI18FLEX                     PARTICULAR                    AUTOMOVEL       PRATA     00000000WALTER COELHO B DE MELO FILHO               RUA CEL MANOEL BANDEIRA NR. 2238        - CENTRO                                65901000IMPERATRIZ          MADEIXAR O CONDUTOR DE USAR O CINTO E SEGURANCA     167                00000000051851   0000195230080320180123201803080000000000000000000000000                                                00000000000  000   20    00050304615012151851PASSAGEIRO
2000000000507720180122208030PREF. DE: MA - IMPERATRIZ               IPA0147607201712271525AV DORGIVAL P DE SOUSA F/N1735                              NXA2597MA465402     CHEVROLET/CELTA 1.0L LT                      PARTICULAR                    AUTOMOVEL       PRATA     00000000LEANDRO SOUZA NASCIMENTO                    RUA W 1 NR. N 586                       - SANTA RITA                            65900000IMPERATRIZ          MAESTAC. EM LOCAL/HORARIO PROIBIDO ESPECIFIC. P/SINA181*XVIII          00000000055500   0000130160080320180123201803080000000000000000000000000                                                00000000000  000   21    00040304615635955500PASSAGEIRO
2000000000507720180122208030PREF. DE: MA - IMPERATRIZ               IPA0147148201712291016R BENEDITO LEITE N1281                                      PST4042MA535028     I/TOYOTA HILUX CDSRVA2GF                     PARTICULAR                    CAMINHONETE     PRATA     00000000N N ALIMENTOS E SERV LTDA ME                ROD BR 010 NR. 601                      - BACURI                                65916205IMPERATRIZ          MADEIXAR O CONDUTOR DE USAR O CINTO E SEGURANCA     167                00000000051851   0000195230080320180123201803080000000000000000000000000                                                00000000000  000   22    00050304615930751851ESPECIAL
2000000000507720180122208030PREF. DE: MA - IMPERATRIZ               IPA0147608201712271535R PARA N467 A CENTRO                                        PSY1640MA465267     HONDA/CG150 START                            PARTICULAR                    MOTOCICLETA     VERMELHA  00000000FRANCISCO D C L FILHO LOCACAO ME            RUA OITO NR. NR 44                      - COHATRAC III                          65054583SAO LUIS            MATRANSIT. P/ CONTRAMAO EM VIAS C/ SENT. UNICO      186 * II           00000000057380   0000293470080320180123201803080000000000000000000000000                                                00000000000  000   23    00070304616077157380PASSAGEIRO
2000000000507720180122208030PREF. DE: MA - IMPERATRIZ               IPA0147609201712271550AV DORGIVAL P DE SOUSA N607 CE                              MXG3893MA465267     I/HYUNDAI TUCSON GL 20L                      PARTICULAR                    CAMIONETA       PRATA     00000000JOSE ANTONIO PEDRO DA SILVA                 RUA ARI BARROSO NR. N2512               CASA 1 - BOCA DA MATA                   65900000IMPERATRIZ          MAESTACIONAR NAS VAGAS RESERV AS PESSOAS C/DEFIC.S/CART 181, XX        00000000076251   0000293470080320180123201803080000000000000000000000000                                                00000000000  000   24    00070304616859476251MISTO
2000000000507720180122208030PREF. DE: MA - IMPERATRIZ               IPA0147610201712281333AV GETULIO VARGAS N1933                                     OJM9021MA465267     HONDA/CG 125 FAN ES                          PARTICULAR                    MOTOCICLETA     VERMELHA  00000000IRAILDE RABELO SAMPAIO                      RUA PALMAR CASA 07 NR.                  - VILA PARATI                           65900000IMPERATRIZ          MAESTAC. EM LOCAL/HORARIO PROIBIDO ESPECIFIC. P/SINA181*XVIII          00000000055500   0000130160080320180123201803080000000000000000000000000                                                00000000000  000   25    00040304617245155500PASSAGEIRO
2000000000507720180122208030PREF. DE: MA - IMPERATRIZ               IPA0147611201712281407AV CEARA N409 CENTRO                                        DKR4856MA465267     FORD/ECOSPORT XLT 1.6L                       PARTICULAR                    CAMIONETA       PRATA     00000000SOLANGE GOMES FEITOZA RODRIGUES             AV DORGIVAL PINHEIRO DE SOUSA NR. 11    - BEIRA RIO                             65900110IMPERATRIZ          MAESTACIONAR NO PONTO DE EMBARQUE/DESEMBARQUE DE PAS181 * XIII         00000000055090   0000130160080320180123201803080000000000000000000000000                                                00000000000  000   26    00040304617520555090MISTO
2000000000507720180122208030PREF. DE: MA - IMPERATRIZ               IPA0147149201712291019R BENEDITO LEITE PROX N1281                                 JGC9729MA535028     RENAULT/CLIO RN 1.0 16V                      PARTICULAR                    AUTOMOVEL       PRATA     00000000LINDOECIO ALVES DE OLIVEIRA                 RUA RAIMUNDO MORAES NR. N 382           - VL REDENCAO I                         65900000IMPERATRIZ          MADEIXAR O CONDUTOR DE USAR O CINTO E SEGURANCA     167                00000000051851   0000195230080320180123201803080000000000000000000000000                                                00000000000  000   27    00050304617588451851PASSAGEIRO
2000000000507720180122208030PREF. DE: MA - IMPERATRIZ               IPA0147150201712291023R BENEDITO LEITE C/CEARA                                    PST6933MA535028     TOYOTA/ETIOS HB PLT15 AT                     PARTICULAR                    AUTOMOVEL       PRETA     00000000GERLENE NASCIMENTO DA S SOUSA               RUA CORONEL M BANDEIRA NR. 94           - UNIAO                                 65916020IMPERATRIZ          MADEIXAR O CONDUTOR DE USAR O CINTO E SEGURANCA     167                00000000051851   0000195230080320180123201803080000000000000000000000000                                                00000000000  000   28    00050304617802651851PASSAGEIRO
2000000000507720180122208030PREF. DE: MA - IMPERATRIZ               IPA0147612201712281424R BRASIL C/PIAUI NVA IMPERATRI                              PSZ6174MA465267     HONDA/NXR 160 BROS                           PARTICULAR                    MOTOCICLETA     PRETA     00000000DANIEL COSTA MOURA                          RUA RIO NEGRO NR. 196                   - PQ AMAZONAS                           65911095IMPERATRIZ          MAAVANCAR SINAL DE PARADA OBRIGATORIA               208                00000000060502   0000293470080320180123201803080000000000000000000000000                                                00000000000  000   29    00070304618026860502PASSAGEIRO
2000000000507720180122208030PREF. DE: MA - IMPERATRIZ               IPA0147151201712211440AV GETULIO VARGAS N560 CENTRO                               PSZ5726MA46554      CHEVROLET/ONIX 1.4MT EFF                     PARTICULAR                    AUTOMOVEL       BRANCA    00000000MARIA EUNICE ARRUDA MOTA CAMPOS             RUA DOM PEDRO II NR. 1229               BL 07 RES LIVIA - BACURI                65916280IMPERATRIZ          MAUSAR BUZINA PROLONG.SUCESSIV. A QUALQUER PRETEXTO 227 * II           00000000064910   0000088380080320180123201803080000000000000000000000000                                                00000000000  000   30    00030304618068364910PASSAGEIRO
2000000000507720180122208030PREF. DE: MA - IMPERATRIZ               IPA0147152201712201500AV DORGIVAL P SOUSA C/R PIAUI                               PSX5683MA46554      CHEVROLET/ONIX 1.4MT LT                      PARTICULAR                    AUTOMOVEL       BRANCA    00000000JOSIANE COSTA GOMES SILVA                   RUA RIO GRANDE DO NORTE NR. 1479        - NOVA IMPERATRIZ                       65900001IMPERATRIZ          MAAVANCAR SINAL VERMELHO DO SEMAFORO                208                00000000060501   0000293470080320180123201803080000000000000000000000000                                                00000000000  000   31    00070304618387960501PASSAGEIRO
2000000000507720180122208030PREF. DE: MA - IMPERATRIZ               IPA0147613201712281430AV DORGIVAL P DE SOUSA N607                                 PSF7878MA465267     VW/UP MOVE SA                                PARTICULAR                    AUTOMOVEL       BRANCA    00000000PAULO VINICIUS GOMES FREITAS                RUA SERGIPE NR. N 557                   SL 108 ED BRASIL - CENTRO               65915500IMPERATRIZ          MAESTACIONAR NAS VAGAS RESERV AS PESSOAS C/DEFIC.S/CART 181, XX        00000000076251   0000293470080320180123201803080000000000000000000000000                                                00000000000  000   32    00070304618410776251PASSAGEIRO
2000000000507720180122208030PREF. DE: MA - IMPERATRIZ               IPA0147615201712281320AV DORGIVAL P DE SOUSA N1806                                NNI9011MA465267     FIAT/UNO WAY 1.4                             PARTICULAR                    AUTOMOVEL       VERDE     00000000MARCILIO DIAS DE ARAUJO                     AV DORGIVAL P DE SOUZA NR. 245          - ENTROCAMENTO                          65903970IMPERATRIZ          MAESTACIONAR AO LADO DE OUTRO VEICULO EM FILA DUPLA 181 * XI           00000000054870   0000195230080320180123201803080000000000000000000000000                                                00000000000  000   33    00050304618755654870PASSAGEIRO
2000000000507720180122208030PREF. DE: MA - IMPERATRIZ               IPA0147153201712201526R AQUILES LISBOA N517                                       HPD2081MA46554      GM/CELTA                                     PARTICULAR                    AUTOMOVEL       PRATA     00000000JOSUE MOTA SANTOS                           RUA 15 DE NOVEMBRO NR. 991              - BEIRA RIO                             65900000IMPERATRIZ          MAESTACIONAR AO LADO DE OUTRO VEICULO EM FILA DUPLA 181 * XI           00000000054870   0000195230080320180123201803080000000000000000000000000                                                00000000000  000   34    00050304619013154870PASSAGEIRO
2000000000507720180122208030PREF. DE: MA - IMPERATRIZ               IPA0147616201712281555R PIAUI N912 CENTRO                                         NXH9000MA465267     I/KIA SORENTO EX2 2.4G27                     PARTICULAR                    CAMIONETA       BRANCA    00000000MARCELO GALDINO                             RUA PERNAMBUCO NR. NR110                - JUCARA                                65900500IMPERATRIZ          MAESTACIONAR NO PASSEIO                             181 * VIII         00000000054521   0000195230080320180123201803080000000000000000000000000                                                00000000000  000   35    00050304619077854521MISTO
2000000000507720180122208030PREF. DE: MA - IMPERATRIZ               IPA0147154201712201527R AQUILES LISBOA N527 MERCADIN                              NWU0235MA46554      CHEVROLET/CLASSIC LS                         PARTICULAR                    AUTOMOVEL       BRANCA    00000000VALDENOR DE JESUS SEGUINS CRUZ              RUA PRES TANCREDO NEVES NR. 104         - PQ ALVORADA II                        65900001IMPERATRIZ          MAESTACIONAR AO LADO DE OUTRO VEICULO EM FILA DUPLA 181 * XI           00000000054870   0000195230080320180123201803080000000000000000000000000                                                00000000000  000   36    00050304619155354870PASSAGEIRO
2000000000507720180122208030PREF. DE: MA - IMPERATRIZ               IPA0147617201712291445AV DORGIVAL P DE SOUSA N235 CE                              PST1404MA465267     I/TOYOTA HILUX CDSRVA4GF                     PARTICULAR                    CAMINHONETE     PRATA     00000000JURANDIR TEIXEIRA DA SILVA                  RUA DR ITAMAR GUARA NR. 2150            - TRES PODERES                          65901550IMPERATRIZ          MADIRIGIR VEICULO MANUSEANDO TELEFONE CELULAR       ART 252, & UNICO   00000000076332   0000293470080320180123201803080000000000000000000000000                                                00000000000  000   37    00070304619416176332ESPECIAL
2000000000507720180122208030PREF. DE: MA - IMPERATRIZ               IPA0147618201712301754AV BABACULANDIA N 229                                       OFU3406MA465267     FIAT/UNO WAY 1.0                             PARTICULAR                    AUTOMOVEL       CINZA     00000000MARIA IVONE OLIVEIRA CARVALHO               RUA DOM VITAL NR. 119 A                 - VILA LOBAO                            65901550IMPERATRIZ          MAESTACIONAR AO LADO DE OUTRO VEICULO EM FILA DUPLA 181 * XI           00000000054870   0000195230080320180123201803080000000000000000000000000                                                00000000000  000   38    00050304619695454870PASSAGEIRO
2000000000507720180122208030PREF. DE: MA - IMPERATRIZ               IPA0147630201801012222AV GETULIO VARGAS N1426                                     NWY0994MA465267     FIAT/PALIO ATTRACTIV 1.4                     PARTICULAR                    AUTOMOVEL       PRATA     00000000MARIA DOS REIS BARROS                       RUA CEL M BANDEIRA NR. 955              - CENTRO                                65901000IMPERATRIZ          MAAVANCAR SINAL VERMELHO DO SEMAFORO                208                00000000060501   0000293470080320180123201803080000000000000000000000000                                                00000000000  000   39    00070304619973260501PASSAGEIRO
2000000000507720180122208030PREF. DE: MA - IMPERATRIZ               IPA0147155201712201608AV CEARA DENTRO ESTACIONAMENTO                              NNA4831MA46554      FIAT/SIENA EL FLEX                           PARTICULAR                    AUTOMOVEL       PRATA     00000000CLEMENCIA JARDIM PORTO                      R DOM PEDRO I NR. N 600                 CASA A - UNIAO                          65900000IMPERATRIZ          MAESTACIONAR NAS VAGAS RESERV AS PESSOAS C/DEFIC.S/CART 181, XX        00000000076251   0000293470080320180123201803080000000000000000000000000                                                00000000000  000   40    00070304620008076251PASSAGEIRO
2000000000507720180122208030PREF. DE: MA - IMPERATRIZ               IPA0147156201712201613AV CEARA DENTRO ESTACIONAMENTO                              PSL2848MA46554      TOYOTA/ETIOS HB XS 15                        PARTICULAR                    AUTOMOVEL       BRANCA    00000000SERGIO MARTINS FARIAS                       RUA EUCLIDES DA CUNHA NR. 304           - CENTRO                                65901000IMPERATRIZ          MAESTACIONAR NAS VAGAS RESERV AS PESSOAS C/DEFIC.S/CART 181, XX        00000000076251   0000293470080320180123201803080000000000000000000000000                                                00000000000  000   41    00070304621123676251PASSAGEIRO
2000000000507720180122208030PREF. DE: MA - IMPERATRIZ               IPA0147157201712201620R PIAUI ATRAS MATEUS SUPERMERC                              OJF0048MA46554      HONDA/CG 150 TITAN EX                        PARTICULAR                    MOTOCICLETA     PRETA     00000000WILLAS DOS SANTOS SOUSA                     RUA SAO FRANCISCO NR. 791               - NV IMPERATRIZ                         65900000IMPERATRIZ          MAESTACIONAR NO PASSEIO                             181 * VIII         00000000054521   0000195230080320180123201803080000000000000000000000000                                                00000000000  000   42    00050304621397254521PASSAGEIRO
2000000000507720180122208030PREF. DE: MA - IMPERATRIZ               IPA0147158201712201620R PIAUI ATRAS SUPERMERCADO MAT                              PSL7518MA46554      HONDA/CG 160 FAN ESDI                        PARTICULAR                    MOTOCICLETA     PRETA     00000000JOILTON DIAS FERREIRA                       RUA PIAUI NR. 1936                      CS F - BACURI                           65916113IMPERATRIZ          MAESTACIONAR NO PASSEIO                             181 * VIII         00000000054521   0000195230080320180123201803080000000000000000000000000                                                00000000000  000   43    00050304621632754521PASSAGEIRO
2000000000507720180122208030PREF. DE: MA - IMPERATRIZ               IPA0147159201712201621R PIAUI ATRAS MATEUS SUPERMERC                              NXN0031MA46554      HONDA/CG 150 FAN ESI                         PARTICULAR                    MOTOCICLETA     PRETA     00000000KLINSMAN LICA CARVALHO                      RUA HERMES FONSECA NR. N 09             - VILA REDENCAO                         65900000IMPERATRIZ          MAESTACIONAR NO PASSEIO                             181 * VIII         00000000054521   0000195230080320180123201803080000000000000000000000000                                                00000000000  000   44    00050304622323454521PASSAGEIRO
2000000000507720180122208030PREF. DE: MA - IMPERATRIZ               IPA0147160201712201635R JOAO LISBOA LADO N520 CENTRO                              NMU4561MA46554      MMC/L200 OUTDOOR                             PARTICULAR                    CAMINHONETE     PRATA     00000000SANTANDER LEASING S/A ARREND MER            RUA PIAUI NR. 44                        RODOVIA - CENTRO                        65924000VILA NOVA DOS MARTIRMAESTACIONAR NO PASSEIO                             181 * VIII         00000000054521   0000195230080320180123201803080000000000000000000000000                                                00000000000  000   45    00050304627162054521ESPECIAL
2000000000507720180122208030PREF. DE: MA - IMPERATRIZ               IPA0147637201801041356AV GETULIO VARGAS F/BCO DO BRA                              MWP0853MA465267     FIAT/UNO MILLE WAY ECON                      PARTICULAR                    AUTOMOVEL       CINZA     00000000MANOEL RODRIGUES ROCHA                      RUA SALVIO DINO NR. 456                 - VILA LOBAO                            65910550IMPERATRIZ          MAESTACIONAR NAS VAGAS RESERV AS PESSOAS C/DEFIC.S/CART 181, XX        00000000076251   0000293470080320180123201803080000000000000000000000000                                                00000000000  000   46    00070304628139076251PASSAGEIRO
2000000000507720180122208030PREF. DE: MA - IMPERATRIZ               IPA0147161201712201636R JOAO LISBOA LADO N520 CENTRO                              MVS8447MA46554      GM/CELTA                                     PARTICULAR                    AUTOMOVEL       PRETA     00000000WESLLEY DE SOUSA RIBEIRO                    R GOIAS NR. N 32                        - TORRE                                 65968000CAMPESTRE DO MARANHAMAESTACIONAR NO PASSEIO                             181 * VIII         00000000054521   0000195230080320180123201803080000000000000000000000000                                                00000000000  000   47    00050304630394754521PASSAGEIRO
2000000000507720180122208030PREF. DE: MA - IMPERATRIZ               IPA0147162201712201638R JOAO LISBOA LADO N520 CENTRO                              NNF1915MA46554      FIAT/PUNTO ATTRACTIVE                        PARTICULAR                    AUTOMOVEL       VERMELHA  00000000ANDRESSA YANNY BEZERRA COELHO               R GONCALVES DIAS NR. N1532              - JUCARA                                65915500IMPERATRIZ          MAESTACIONAR NO PASSEIO                             181 * VIII         00000000054521   0000195230080320180123201803080000000000000000000000000                                                00000000000  000   48    00050304630685754521PASSAGEIRO
2000000000507720180122208030PREF. DE: MA - IMPERATRIZ               IPA0147163201712201720AV DORGIVAL P SOUSA N235 CENTR                              JEC2566MA46554      GM/OMEGA SUPREMA GL                          PARTICULAR                    AUTOMOVEL       PRATA     00000000NELMIM GOMES NUNES                          RUA G NR. N21                           QD 08 - CJ NOVA VITORIA                 65918396IMPERATRIZ          MADIRIGIR VEICULO SEGURANDO TELEFONE CELULAR        ART 252, & UNICO   00000000076331   0000293470080320180123201803080000000000000000000000000                                                00000000000  000   49    00070304631094376331PASSAGEIRO
2000000000507720180122208030PREF. DE: MA - IMPERATRIZ               IPA0147165201712201730R SOUSA LIMA N800 CENTRO                                    PSY7748MA46554      HYUNDAI/HB20 1.0M COMFOR                     PARTICULAR                    AUTOMOVEL       BRANCA    00000000ANDERSON BRASIL SILVA CAVALCANTE            RUA DOM PEDRO I NR. 600                 CASA 68 - UNIAO                         65901090IMPERATRIZ          MAESTAC. EM LOCAL/HORARIO PROIBIDO ESPECIFIC. P/SINA181*XVIII          00000000055500   0000130160080320180123201803080000000000000000000000000                                                00000000000  000   50    00040304634397355500PASSAGEIRO
2000000000507720180122208030PREF. DE: MA - IMPERATRIZ               IPA0147641201801041443AV DORGIVAL DE SOUSA N607 CENT                              NXI8486MA465267     HONDA/BIZ 125 EX                             PARTICULAR                    MOTONETA        VERMELHA  00000000LAIS DA SILVA SANTANA                       RUA PADRE CICERO NR. N 374              - STA RITA                              65900001IMPERATRIZ          MAESTACIONAR NAS VAGAS RESERV AS PESSOAS C/DEFIC.S/CART 181, XX        00000000076251   0000293470080320180123201803080000000000000000000000000                                                00000000000  000   51    00070304634813476251PASSAGEIRO
2000000000507720180122208030PREF. DE: MA - IMPERATRIZ               IPA0147168201712211430R PIAUI C/AV DORGIVAL P SOUSA                               NNB3380MA46554      GM/CELTA 4P LIFE                             PARTICULAR                    AUTOMOVEL       VERMELHA  00000000RICARDO SILVA DE SOUSA                      RUA 28 DE JUNHO NR. 391                 - CENTRO                                65760000PRESIDENTE DUTRA    MAAVANCAR SINAL VERMELHO DO SEMAFORO                208                00000000060501   0000293470080320180123201803080000000000000000000000000                                                00000000000  000   52    00070304634937860501PASSAGEIRO
2000000000507720180122208030PREF. DE: MA - IMPERATRIZ               IPA0147169201712211530AV DORGIVAL P SOUSA N404 CENTR                              OJA9977MA46554      HONDA/CG 150 FAN ESI                         PARTICULAR                    MOTOCICLETA     PRETA     00000000CELMA DA SILVA SANTOS                       AV BAYMA JUNIOR NR. 127                 - CENTRO CARLOS                         65922000JOAO LISBOA         MADIRIGIR VEICULO SEGURANDO TELEFONE CELULAR        ART 252, & UNICO   00000000076331   0000293470080320180123201803080000000000000000000000000                                                00000000000  000   53    00070304635439876331PASSAGEIRO
2000000000507720180122208030PREF. DE: MA - IMPERATRIZ               IPA0147170201712241600R JOSE BONIFACIO LADO SHOPPING                              OJN6976MA46554      VW/NOVO GOL 1.0                              PARTICULAR                    AUTOMOVEL       VERMELHA  00000000ADALBERTO DE SAMPAIO CABRAL                 RUA AMAZONAS NR. 1315                   - CENTRO                                65900000IMPERATRIZ          MAESTAC. EM LOCAL/HORARIO PROIBIDO ESPECIFIC. P/SINA181*XVIII          00000000055500   0000130160080320180123201803080000000000000000000000000                                                00000000000  000   54    00040304636620555500PASSAGEIRO
2000000000507720180122208030PREF. DE: MA - IMPERATRIZ               IPA0147644201801041414PRACA EMILIANO DE AZEVEDO N10                               PSW0477MA465267     I/TOYOTA HILUX CDSRVA4FD                     PARTICULAR                    CAMINHONETE     PRETA     00000000FRANCELSO GONCALVES SOUSA                   RUA FREDERICO COELHO NR. N 350          - CENTRO                                65763000TUNTUM              MAESTACIONAR AO LADO DE OUTRO VEICULO EM FILA DUPLA 181 * XI           00000000054870   0000195230080320180123201803080000000000000000000000000                                                00000000000  000   55    00050304638228654870ESPECIAL
2000000000507720180122208030PREF. DE: MA - IMPERATRIZ               IPA0147646201801041410PCA EMILIANO DE AZEVEDO N 10 E                              OJD7619MA46267      I/TOYOTA HILUX CD4X4 SRV                     PARTICULAR                    CAMINHONETE     PRATA     00000000MONICA DOS SANTOS SANTANA                   AV PEDRO N DE SANTANA NR. LT 14         QD 01 N VILLE - P DAS PALMEIRAS         65911700IMPERATRIZ          MAESTACIONAR AO LADO DE OUTRO VEICULO EM FILA DUPLA 181 * XI           00000000054870   0000195230080320180123201803080000000000000000000000000                                                00000000000  000   56    00050304639655454870ESPECIAL
2000000000507720180122208030PREF. DE: MA - IMPERATRIZ               IPA0147649201801051618R SOUSA LIMA N7482 CENTRO                                   OJH7482MA465267     HONDA/CG150 FAN ESDI                         PARTICULAR                    MOTOCICLETA     VERMELHA  00000000KATIANA DE SOUSA PEREIRA                    RUA 4 NR. N90                           - VILA VITORIA                          65900000IMPERATRIZ          MAESTACIONAR EM CALCADA REBAIXADA DEST. ENTRADA/SAID181 * IX           00000000054600   0000130160080320180123201803080000000000000000000000000                                                00000000000  000   57    00040304640035754600PASSAGEIRO
2000000000507720180122208030PREF. DE: MA - IMPERATRIZ               IPA0147403201801020730R RIO G DO NORTE F/N954                                     HPK1059MA535184     GM/CELTA                                     PARTICULAR                    AUTOMOVEL       AZUL      00000000RARIEL DUARTE CONCEICAO                     RUA DA MANGUEIRA NR. 169                - PQ ALVORADA II                        65901550IMPERATRIZ          MAESTACIONAR EM CALCADA REBAIXADA DEST. ENTRADA/SAID181 * IX           00000000054600   0000130160080320180123201803080000000000000000000000000                                                00000000000  000   58    00040304640713054600PASSAGEIRO
2000000000507720180122208030PREF. DE: MA - IMPERATRIZ               IPA0147404201801020755R BENEDITO LEITE F/N1584                                    KCI9411MA535184     FIAT/UNO MILLE SX                            PARTICULAR                    AUTOMOVEL       CINZA     00000000DEUSIMAR MATOS DE SOUSA                     R PROJETADA A NR. N 26                  - VL GETAT                              65928000GOV.EDISON LOBAO    MADEIXAR O CONDUTOR DE USAR O CINTO E SEGURANCA     167                00000000051851   0000195230080320180123201803080000000000000000000000000                                                00000000000  000   59    00050304641035251851PASSAGEIRO
2000000000507720180122208030PREF. DE: MA - IMPERATRIZ               IPA0147408201801021127R BENEDITO LEITE F/N1240 MERCA                              OIT8429MA535184     I/FORD TRANSIT 350L BUS                      PARTICULAR                    MICROONIBUS     PRATA     00000000SANTOSTUR AG DE TRA E TU LTDA ME            RUA SETE NR. N 42                       - SUPER QD 602                          65913335IMPERATRIZ          MADEIXAR O CONDUTOR DE USAR O CINTO E SEGURANCA     167                00000000051851   0000195230080320180123201803080000000000000000000000000                                                00000000000  000   60    00050304641913951851PASSAGEIRO
2000000000507720180122208030PREF. DE: MA - IMPERATRIZ               IPA0147409201801021130R BENEDITO LEITE F/N1240 MERCA                              HPX3431MA535184     GM/CELTA 2P LIFE                             PARTICULAR                    AUTOMOVEL       PRATA     00000000JOAO DE JESUS GOUVEIA                       RUA 12 NR. 02                           - VL IPIRANGA                           65900001IMPERATRIZ          MADIRIGIR VEICULO SEGURANDO TELEFONE CELULAR        ART 252, & UNICO   00000000076331   0000293470080320180123201803080000000000000000000000000                                                00000000000  000   61    00070304642095176331PASSAGEIRO
2000000000507720180122208030PREF. DE: MA - IMPERATRIZ               IPA0147410201801021155R BENEDITO LEITE F/N155 MERCA                               OXT4617MA535184     VW/GOL TL MB                                 PARTICULAR                    AUTOMOVEL       PRETA     00000000JAMILSON RODRIGUES DOS SANTOS               RUA JOSE BONIFACIO NR. 60 A             - BACURI                                65900000IMPERATRIZ          MAESTACIONAR AO LADO DE OUTRO VEICULO EM FILA DUPLA 181 * XI           00000000054870   0000195230080320180123201803080000000000000000000000000                                                00000000000  000   62    00050304642359454870PASSAGEIRO
2000000000507720180122208030PREF. DE: MA - IMPERATRIZ               IPA0147650201801060833R PIAUII C/BERNARDO SAYAO CENT                              PSP8676MA76331      FIAT/TORO VOLCANO AT D4                      PARTICULAR                    CAMINHONETE     BRANCA    00000000ISAQUIEL ALVES DA SILVA                     AV SIMPLICIO MOREIRA NR. 1821           - CENTRO                                65922000JOAO LISBOA         MADIRIGIR VEICULO SEGURANDO TELEFONE CELULAR        ART 252, & UNICO   00000000076331   0000293470080320180123201803080000000000000000000000000                                                00000000000  000   63    00070304642729876331ESPECIAL
2000000000507720180122208030PREF. DE: MA - IMPERATRIZ               IPA0147411201801031033AV GETULIO VARGAS F/N1000                                   NES3742MA535184     FIAT/STRADA WORKING CD                       PARTICULAR                    CAMINHONETE     PRATA     00000000J F SOUSA CONSUL E TREINAMENTO              AV GETULIO VARGAS NR. 1000              - CENTRO                                65901550IMPERATRIZ          MAESTACIONAR AO LADO DE OUTRO VEICULO EM FILA DUPLA 181 * XI           00000000054870   0000195230080320180123201803080000000000000000000000000                                                00000000000  000   64    00050304643623854870ESPECIAL
2000000000507720180122208030PREF. DE: MA - IMPERATRIZ               IPA0147665201712301410R SIMPLICIO MOREIRA F/PCA DE F                              OJI6047MA465402     VW/NOVO GOL 1.0                              PARTICULAR                    AUTOMOVEL       CINZA     00000000ANTONIO CARLOS RODRIGUES SA                 ROD BR 010 KM 1350 NR.                  - MARANHAO NOVO                         65900000IMPERATRIZ          MAESTACIONAR EM DESACORDO C/REGULAM-VAGA DE CARGA/DE181 * XVII         00000000055414   0000195230080320180123201803080000000000000000000000000                                                00000000000  000   65    00050304643752855414PASSAGEIRO
2000000000507720180122208030PREF. DE: MA - IMPERATRIZ               IPA0147414201801031055AV DORGIVAL P SOUSA F/N1701A                                OIZ0545MA535184     I/TOYOTA HILUX CD4X4 SRV                     PARTICULAR                    CAMINHONETE     BRANCA    00000000DAVID WILSON DE LIMA                        RUA SAO PEDRO NR. 23                    - NOVA IMPERATRIZ                       65910550IMPERATRIZ          MAESTACIONAR AO LADO DE OUTRO VEICULO EM FILA DUPLA 181 * XI           00000000054870   0000195230080320180123201803080000000000000000000000000                                                00000000000  000   66    00050304644859754870ESPECIAL
2000000000507720180122208030PREF. DE: MA - IMPERATRIZ               IPA0147666201712301411R SIMPLICIO MORREIRA                                        PST7098MA465402     HONDA/CG 160 TITAN EX                        PARTICULAR                    MOTOCICLETA     BRANCA    00000000FRANCINALDO DA SILVA FERREIRA               AV SILVINO SANTIS NR. 94                - VILA MACEDO                           65904660IMPERATRIZ          MAESTACIONAR EM DESACORDO C/REGULAM-VAGA DE CARGA/DE181 * XVII         00000000055414   0000195230080320180123201803080000000000000000000000000                                                00000000000  000   67    00050304645044355414PASSAGEIRO
2000000000507720180122208030PREF. DE: MA - IMPERATRIZ               IPA0147415201801031142R GODOFREDO VIANA F/N760                                    PSD3590MA535184     YAMAHA/T115 CRYPTON ED                       PARTICULAR                    MOTONETA        PRETA     00000000ROSIRAN ALMEIDA LIMA                        RUA PARAIBA NR. N1375                   - MERCADINHO                            65900900IMPERATRIZ          MAESTAC. EM LOCAL/HORARIO PROIBIDO ESPECIFIC. P/SINA181*XVIII          00000000055500   0000130160080320180123201803080000000000000000000000000                                                00000000000  000   68    00040304645119955500PASSAGEIRO
2000000000507720180122208030PREF. DE: MA - IMPERATRIZ               IPA0147417201801031215R PERNAMBUCO F/CAIXA ECONOMICA                              NND2391MA535184     HONDA/BIZ 125 ES                             PARTICULAR                    MOTONETA        VERMELHA  00000000DANIELA LOBO DA SILVA                       RUA CEARA NR. 491                       - CENTRO                                65901610IMPERATRIZ          MAESTAC. EM LOCAL/HORARIO PROIBIDO ESPECIFIC. P/SINA181*XVIII          00000000055500   0000130160080320180123201803080000000000000000000000000                                                00000000000  000   69    00040304645471655500PASSAGEIRO
2000000000507720180122208030PREF. DE: MA - IMPERATRIZ               IPA0147418201801031215R PERNAMBUCO F/CAIXA ECONOMICA                              PSL4194MA535184     HONDA/NXR160 BROS ESDD                       PARTICULAR                    MOTOCICLETA     PRETA     00000000JOAO DE DEUS PEREIRA DE SOUSA               RUA SANTO AGOSTINHO NR. 735             - BOM SUCESSO                           65905090IMPERATRIZ          MAESTAC. EM LOCAL/HORARIO PROIBIDO ESPECIFIC. P/SINA181*XVIII          00000000055500   0000130160080320180123201803080000000000000000000000000                                                00000000000  000   70    00040304645588755500PASSAGEIRO
2000000000507720180122208030PREF. DE: MA - IMPERATRIZ               IPA0147419201801040902R PIAUI F/N1020                                             OIV5862MA535184     CHEVROLET/S10 LTZ FD2                        PARTICULAR                    CAMINHONETE     BRANCA    00000000WELLINGTON JANCEN ARAUJO                    RUA A NR. 09                            - JD S FRANCISCO                        65901550IMPERATRIZ          MAESTACIONAR AO LADO DE OUTRO VEICULO EM FILA DUPLA 181 * XI           00000000054870   0000195230080320180123201803080000000000000000000000000                                                00000000000  000   71    00050304645791054870ESPECIAL
2000000000507720180122208030PREF. DE: MA - IMPERATRIZ               IPA0147420201801040923R MARANHAO F/N416                                           JVX4016MA535184     I/TOYOTA HILUX CD4X4 SRV                     PARTICULAR                    CAMINHONETE     AZUL      00000000MARIA CARMEM COLOMBI                        RUA MARANHAO NR NR. 439                 - CENTRO                                65900000IMPERATRIZ          MAESTACIONAR AO LADO DE OUTRO VEICULO EM FILA DUPLA 181 * XI           00000000054870   0000195230080320180123201803080000000000000000000000000                                                00000000000  000   72    00050304645935154870ESPECIAL
2000000000507720180122208030PREF. DE: MA - IMPERATRIZ               IPA0147667201712301412R SIMPLICIO MOREIRA F/A PCA DE                              NND3738MA465402     TRAXX/JL50 Q2                                PARTICULAR                    CICLOMOTOR      VERMELHA  00000000RAIMUNDA LUCENA DA SILVA                    RUA 13 NR. 155                          - PQ SAO JOSE                           65900000IMPERATRIZ          MAESTACIONAR EM DESACORDO C/REGULAM-VAGA DE CARGA/DE181 * XVII         00000000055414   0000195230080320180123201803080000000000000000000000000                                                00000000000  000   73    00050304646006655414PASSAGEIRO
2000000000507720180122208030PREF. DE: MA - IMPERATRIZ               IPA0147422201801041008R AQUILES LISBOA ESQ C/R CEARA                              NNG5385MA535184     VW/SAVEIRO 1.6 CE                            PARTICULAR                    CAMINHONETE     PRETA     00000000GERALDO DOS SANTOS GONZAGA                  R ALVORADA NR. 878                      - NOVA VILA                             65900001IMPERATRIZ          MAESTACIONAR SOBRE FAIXA DESTINADA A PEDESTRE       181 * VIII         00000000054522   0000195230080320180123201803080000000000000000000000000                                                00000000000  000   74    00050304646200054522CARGA
2000000000507720180122208030PREF. DE: MA - IMPERATRIZ               IPA0147423201801041134R PIAUI F/N459                                              OJQ5512MA535184     BRAMONT/MAHINDRA HWKCD4                      PARTICULAR                    CAMINHONETE     PRETA     00000000ANACLETO DA COSTA RODRIGUES                 RUA RIO DE JANEIRO NR. 315              - ENTRONCAMENTO                         65901550IMPERATRIZ          MAESTAC. VEIC. NAS ESQU. E MENOS DE 5M DO ALINHAMENT181 * I            00000000053800   0000130160080320180123201803080000000000000000000000000                                                00000000000  000   75    00040304646518153800ESPECIAL
2000000000507720180122208030PREF. DE: MA - IMPERATRIZ               IPA0147425201801050942R AQUILES LISBOA F/N497                                     PSK2871MA535184     HYUNDAI/HB20 1.6A COMF                       PARTICULAR                    AUTOMOVEL       BRANCA    00000000MARIA DO CARMO SILVA NASCIMENTO             RUA GODOFREDO VIANA NR. 759             - CENTRO                                65901550IMPERATRIZ          MAESTACIONAR AO LADO DE OUTRO VEICULO EM FILA DUPLA 181 * XI           00000000054870   0000195230080320180123201803080000000000000000000000000                                                00000000000  000   76    00050304646969154870PASSAGEIRO
2000000000507720180122208030PREF. DE: MA - IMPERATRIZ               IPA0147426201801051050R AQUILES LISBOA F/N742 MERCAD                              NHJ5067MA535184     FIAT/PALIO ELX FLEX                          PARTICULAR                    AUTOMOVEL       PRETA     00000000DARCI VIEIRA DE SOUSA                       RUA AMAZONAS NR. 1179                   - NOVA IMPERATRIZ                       65900000IMPERATRIZ          MAESTACIONAR AO LADO DE OUTRO VEICULO EM FILA DUPLA 181 * XI           00000000054870   0000195230080320180123201803080000000000000000000000000                                                00000000000  000   77    00050304647241254870PASSAGEIRO
2000000000507720180122208030PREF. DE: MA - IMPERATRIZ               IPA0147500201801080840AV GETULIO VARGAS EM F/N8119                                NHL0972MA535044     VW/GOL 1.0 GIV                               PARTICULAR                    AUTOMOVEL       PRETA     00000000DANILO VIEIRA CLAUDIANO                     RUA PADRE CICERO NR. N 323              - SANTA RITA                            65900000IMPERATRIZ          MAESTACIONAR AO LADO DE OUTRO VEICULO EM FILA DUPLA 181 * XI           00000000054870   0000195230080320180123201803080000000000000000000000000                                                00000000000  000   78    00050304647447454870PASSAGEIRO
2000000000507720180122208030PREF. DE: MA - IMPERATRIZ               IPA0147522201712281106AV DORGIVAL P SOUSA F/889                                   OXX7437MA438103     VW/SAVEIRO CS ST MB                          PARTICULAR                    CAMINHONETE     BRANCA    00000000RICARDO SILVEIRA FERNANDES                  RUA SAO FRANCISCO NR. 880 A             - CENTRO                                65930000ACAILANDIA          MAESTACIONAR NO PASSEIO                             181 * VIII         00000000054521   0000195230080320180123201803080000000000000000000000000                                                00000000000  000   79    00050304647776754521CARGA
2000000000507720180122208030PREF. DE: MA - IMPERATRIZ               IPA0147525201712290958R BENEDITO LEITE ESQ C R CEARA                              AWI7459MA465127     FIAT/SIENA ATTRACTIV 1.4                     PARTICULAR                    AUTOMOVEL       PRATA     00000000KALENE QUINDERE AQUINO LINDOSO              R GENERAL GURJAO NR. N 284              - BACURI                                65900000IMPERATRIZ          MADIRIGIR VEICULO SEGURANDO TELEFONE CELULAR        ART 252, & UNICO   00000000076331   0000293470080320180123201803080000000000000000000000000                                                00000000000  000   80    00070304648238876331PASSAGEIRO
2000000000507720180122208030PREF. DE: MA - IMPERATRIZ               IPA0147526201712291007R BENEDITO LEITE F/N1275                                    NHM6328MA465127     HONDA/CIVIC LXS FLEX                         PARTICULAR                    AUTOMOVEL       PRATA     00000000IRANETE COELHO SOUSA                        R COLINAS NR 06 QD 11 NR.               - SAO CRISTOVAO                         65066641SAO LUIS            MADEIXAR O CONDUTOR DE USAR O CINTO E SEGURANCA     167                00000000051851   0000195230080320180123201803080000000000000000000000000                                                00000000000  000   81    00050304648414351851PASSAGEIRO
2000000000507720180122208030PREF. DE: MA - IMPERATRIZ               IPA0147527201712291008R BENEDITO LEITE F/N1275                                    OJC5000MA465127     FORD/ECOSPORT FSL 1.6                        PARTICULAR                    CAMIONETA       PRETA     00000000FERNANDO SILVA BANDEIRA                     R AQUILES LISBOA NR. 1050               - MERCADINHO                            65910550IMPERATRIZ          MADEIXAR O CONDUTOR DE USAR O CINTO E SEGURANCA     167                00000000051851   0000195230080320180123201803080000000000000000000000000                                                00000000000  000   82    00050304648499251851MISTO
2000000000507720180122208030PREF. DE: MA - IMPERATRIZ               IPA0147529201712291016R BENEDITO LEITE F/N1275                                    OJO8955MA465127     RENAULT/SANDERO EXP1016V                     PARTICULAR                    AUTOMOVEL       BRANCA    00000000VANESSA SILVA DE BRITO                      RUA QUINTINO BOCAIUVA NR. 460           - BOM SUCESSO                           65900000IMPERATRIZ          MADIRIGIR VEICULO SEGURANDO TELEFONE CELULAR        ART 252, & UNICO   00000000076331   0000293470080320180123201803080000000000000000000000000                                                00000000000  000   83    00070304648598076331PASSAGEIRO
2000000000507720180122208030PREF. DE: MA - IMPERATRIZ               IPA0147530201712291021R BENEDITO LEITE F/N1275                                    MTJ3030MA465127     TOYOTA/COROLLA XEI18VVT                      PARTICULAR                    AUTOMOVEL       BEGE      00000000ANA ROSA PEREIRA CAVALCANTE                 AV DAVI ALVES SILVA NR. N 97            - PQ SANTA LUCIA                        65900000IMPERATRIZ          MADEIXAR O CONDUTOR DE USAR O CINTO E SEGURANCA     167                00000000051851   0000195230080320180123201803080000000000000000000000000                                                00000000000  000   84    00050304648713451851PASSAGEIRO
2000000000507720180122208030PREF. DE: MA - IMPERATRIZ               IPA0147531201712291022R BENEDITO LEITE F/N1275                                    NMW9999MA465127     FIAT/IDEA ELX FLEX                           PARTICULAR                    AUTOMOVEL       VERDE     00000000RAYSA LOPES MOREIRA                         R GODOFREDO VIANA NR. 2202              - BACURI                                65901550IMPERATRIZ          MADEIXAR O CONDUTOR DE USAR O CINTO E SEGURANCA     167                00000000051851   0000195230080320180123201803080000000000000000000000000                                                00000000000  000   85    00050304648809251851PASSAGEIRO
2000000000507720180122208030PREF. DE: MA - IMPERATRIZ               IPA0147532201712291025R BENEDITO LEITE F/N1275                                    ONZ9140MA465127     I/TOYOTA HILUX CD4X4 SR                      PARTICULAR                    CAMINHONETE     BRANCA    00000000ONESIO ALVES ROBERTO                        RUA ESPLANADA NR. 113                   - CENTRO                                65970000PORTO FRANCO        MADEIXAR O CONDUTOR DE USAR O CINTO E SEGURANCA     167                00000000051851   0000195230080320180123201803080000000000000000000000000                                                00000000000  000   86    00050304648948051851ESPECIAL
2000000000507720180122208030PREF. DE: MA - IMPERATRIZ               IPA0147625201712311435AV CEARA C/R BENEDITO LEITE ME                              OIR1862MA465267     HONDA/BIZ 125 ES                             PARTICULAR                    MOTONETA        PRETA     00000000KELLY DA SILVA SOBREIRO                     RUA PARAIBA NR. N420                    - JUCARA                                65915500IMPERATRIZ          MAAVANCAR SINAL VERMELHO DO SEMAFORO                208                00000000060501   0000293470080320180123201803080000000000000000000000000                                                00000000000  000   87    00070304649204960501PASSAGEIRO
2000000000507720180122208030PREF. DE: MA - IMPERATRIZ               IPA0147626201712311443AV GETULIO VARGAS C/R PARA CEN                              NHS5621MA465267     I/FIAT SIENA ELX FLEX                        PARTICULAR                    AUTOMOVEL       PRATA     00000000CHARLES SILVA DE MORAIS                     RUA COELHO NETO NR. 17                  - VL AYRTON SENNA                       65900001IMPERATRIZ          MAAVANCAR SINAL VERMELHO DO SEMAFORO                208                00000000060501   0000293470080320180123201803080000000000000000000000000                                                00000000000  000   88    00070304649433560501PASSAGEIRO
2000000000507720180122208030PREF. DE: MA - IMPERATRIZ               IPA0147669201712301426R SIMPLICIO MOREIRA F/PCA DE F                              OXW1074MA465402     HONDA/BIZ 125 ES                             PARTICULAR                    MOTONETA        PRETA     00000000ELIZETH FERREIRA LIMA                       RUA 01 DE MAIO NR. N280                 - BOCA DA MATA                          65900000IMPERATRIZ          MAESTACIONAR EM DESACORDO C/REGULAM-VAGA DE CARGA/DE181 * XVII         00000000055414   0000195230080320180123201803080000000000000000000000000                                                00000000000  000   89    00050304650988055414PASSAGEIRO
2000000000507720180122208030PREF. DE: MA - IMPERATRIZ               IPA0147670201712301435R LUIS DOMINGUES F/N900 CENTRO                              PJW8207MA465402     I/TOYOTA HILUX CDSRVA4FD                     PARTICULAR                    CAMINHONETE     PRATA     00000000JUNIO ALVES PEREIRA                         AV IMPERATRIZ NR. 06                    A - PQ PLANALTO                         65917020IMPERATRIZ          MAUSAR BUZINA PROLONG.SUCESSIV. A QUALQUER PRETEXTO 227 * II           00000000064910   0000088380080320180123201803080000000000000000000000000                                                00000000000  000   90    00030304651606164910ESPECIAL
2000000000507720180122208030PREF. DE: MA - IMPERATRIZ               IPA0147671201712301436R LUIS DOMINGUES C/AMAZONAS CE                              PJW8207MA46542      I/TOYOTA HILUX CDSRVA4FD                     PARTICULAR                    CAMINHONETE     PRATA     00000000JUNIO ALVES PEREIRA                         AV IMPERATRIZ NR. 06                    A - PQ PLANALTO                         65917020IMPERATRIZ          MAAVANCAR SINAL VERMELHO DO SEMAFORO                208                00000000060501   0000293470080320180123201803080000000000000000000000000                                                00000000000  000   91    00070304653630560501ESPECIAL
2000000000507720180122208030PREF. DE: MA - IMPERATRIZ               IPA0147672201712301700R  SOUSA LIMA F/N580 CENTRO CE                              NMY5933MA465402     GM/CORSA SEDAN PREMIUM                       PARTICULAR                    AUTOMOVEL       PRETA     00000000CARLOS EDUARDO DIAS SANTOS                  RUA ANTONIO MORAES NR. NR 33            - CAEMA                                 65900000IMPERATRIZ          MAESTAC. EM LOCAL/HORARIO PROIBIDO ESPECIFIC. P/SINA181*XVIII          00000000055500   0000130160080320180123201803080000000000000000000000000                                                00000000000  000   92    00040304654428655500PASSAGEIRO
2000000000507720180122208030PREF. DE: MA - IMPERATRIZ               IPA0147673201712301701R SOUSA LIMA F/N630 CENTRO                                  NXH8060MA465402     VW/SAVEIRO 1.6 CE CROSS                      PARTICULAR                    CAMINHONETE     BRANCA    00000000VANDERLEY PEREIRA REIS                      RUA MARIA BANDEIRA NR. SN               - BANANAL                               65928000GOV.EDISON LOBAO    MAESTAC. EM LOCAL/HORARIO PROIBIDO ESPECIFIC. P/SINA181*XVIII          00000000055500   0000130160080320180123201803080000000000000000000000000                                                00000000000  000   93    00040304656109155500CARGA
2000000000507720180122208030PREF. DE: MA - IMPERATRIZ               IPA0147674201712301710R SOUSA LIMA F/N630 CENTRO                                  NXG3310MA465402     CHEVROLET/CLASSIC LS                         PARTICULAR                    AUTOMOVEL       PRATA     00000000LEILA VANIA RODRIGUES LIMA                  RUA LIBERATO BARROSO NR. 121            - PQ ANHANGUERA                         65916170IMPERATRIZ          MAESTAC. EM LOCAL/HORARIO PROIBIDO ESPECIFIC. P/SINA181*XVIII          00000000055500   0000130160080320180123201803080000000000000000000000000                                                00000000000  000   94    00040304657596355500PASSAGEIRO
2000000000507720180122208030PREF. DE: MA - IMPERATRIZ               IPA0147675201801021528R SIMPLICIO MOREIRA F/N1551B                                HQB8330MA465402     VW/8.150                                     PARTICULAR                    CAMINHAO        BRANCA    00000000SAFRA LEASING SA ARRENDAMENTO ME            RUA CEARA NR. 553                       - N IMPERATRIZ                          65900000IMPERATRIZ          MAESTACIONAR AO LADO DE OUTRO VEICULO EM FILA DUPLA 181 * XI           00000000054870   0000195230080320180123201803080000000000000000000000000                                                00000000000  000   95    00050304658836454870CARGA
2000000000507720180122208030PREF. DE: MA - IMPERATRIZ               IPA0147676201801021536R SIMPLICIO MOREIRA F/N1636                                 PSC2039MA465402     I/KIA CERATO FF SX3 ATNB                     PARTICULAR                    AUTOMOVEL       PRATA     00000000UMUARAMA VEICULOS LTDA                      ROD BR 010 KM 05 NR. SN                 - CENTRO                                65915500IMPERATRIZ          MAESTACIONAR AO LADO DE OUTRO VEICULO EM FILA DUPLA 181 * XI           00000000054870   0000195230080320180123201803080000000000000000000000000                                                00000000000  000   96    00050304659159454870PASSAGEIRO
2000000000507720180122208030PREF. DE: MA - IMPERATRIZ               IPA0147678201801070940R BOM JESUS F/N867                                          OJJ2242MA465445     HONDA/BIZ 125 EX                             PARTICULAR                    MOTONETA        BRANCA    00000000ANI ARLEY SANTOS DA CUNHA                   RUA BANDEIRANTES NR. N 15               - IMIGRANTES                            65900000IMPERATRIZ          MATRANSPOR BLOQUEIO VIARIO C/S SINALIZACAO OU DISP/A209                00000000060681   0000195230080320180123201803080000000000000000000000000                                                00000000000  000   97    00050304659842460681PASSAGEIRO
2000000000507720180122208030PREF. DE: MA - IMPERATRIZ               IPA0147748201801090810R SOUSA LIMA PROX N719 CENTRO                               QDE3469MA535028     CHEV/PRISMA 1.4MT LTZ                        PARTICULAR                    AUTOMOVEL       BRANCA    00000000JOZEANO PEREIRA DA SILVA                    RUA JOAO MACEDO NR. 332                 - VL SANTA LUCIA                        65927000DAVINOPOLIS         MAESTAC. EM LOCAL/HORARIO PROIBIDO ESPECIFIC. P/SINA181*XVIII          00000000055500   0000130160080320180123201803080000000000000000000000000                                                00000000000  000   98    00040304661210955500PASSAGEIRO
2000000000507720180122208030PREF. DE: MA - IMPERATRIZ               IPA0147750201801091028AV CEARA N580                                               PAS2172MA535028     VW/SAVEIRO CD CROSS MA                       PARTICULAR                    CAMINHONETE     VERMELHA  00000000JOSE CARLOS BRAGAS                          RUA CEARA NR. 580B                      - CENTRO                                65901610IMPERATRIZ          MAESTACIONAR AO LADO DE OUTRO VEICULO EM FILA DUPLA 181 * XI           00000000054870   0000195230080320180123201803080000000000000000000000000                                                00000000000  000   99    00050304661912054870ESPECIAL
2000000000507720180122208030PREF. DE: MA - IMPERATRIZ               IPA0147790201801050902R BENEDITO LEITE F/N1413                                    NXN6784MA535109     HONDA/NXR150 BROS ES                         PARTICULAR                    MOTOCICLETA     VERMELHA  00000000OLAVIO MOURA SOUSA                          RUA DA MANGUEIRA NR. N1710              - CIDADE NOVA                           65922000JOAO LISBOA         MAESTACIONAR EM DESACORDO C/REGULAM-VAGA DE CARGA/DE181 * XVII         00000000055414   0000195230080320180123201803080000000000000000000000000                                                00000000000  000   100   00050304662247355414PASSAGEIRO
2000000000507720180122208030PREF. DE: MA - IMPERATRIZ               IPA0147791201801050925R AQUILES LISBOA F/N788                                     OJC6192MA535109     HONDA/CG150 FAN ESDI                         PARTICULAR                    MOTOCICLETA     VERMELHA  00000000CLEUDIANA DOS SANTOS SOUSA                  R CAROLINA NR. 270                      - VILA CAFETEIRA                        65900000IMPERATRIZ          MAESTACIONAR EM DESACORDO C/REGULAM-VAGA DE CARGA/DE181 * XVII         00000000055414   0000195230080320180123201803080000000000000000000000000                                                00000000000  000   101   00050304662423955414PASSAGEIRO
2000000000507720180122208030PREF. DE: MA - IMPERATRIZ               IPA0147792201801051020AV GETULIO VARGAS F/N2040                                   PSP4273MA535109     FIAT/PALIO FIRE WAY                          PARTICULAR                    AUTOMOVEL       BRANCA    00000000DPL CONSTRUCOES LTDA                        AV PEDRO N DE SANTANA NR. 999           - PQ DA LAGOA                           65914630IMPERATRIZ          MADIRIGIR VEICULO SEGURANDO TELEFONE CELULAR        ART 252, & UNICO   00000000076331   0000293470080320180123201803080000000000000000000000000                                                00000000000  000   102   00070304662679776331PASSAGEIRO
2000000000507720180122208030PREF. DE: MA - IMPERATRIZ               IPA0147794201801051230R MINAS GERAIS ENT/AQUILES LIS                              OXW3952MA535109     HONDA/BIZ 125 EX                             PARTICULAR                    MOTONETA        PRETA     00000000JANDERSON WESCLEY F RODRIGUES               R EDUARDO GOMES NR. 1136                - MARANHAO NOVO                         65901550IMPERATRIZ          MATRANSIT. P/ CONTRAMAO EM VIAS C/ SENT. UNICO      186 * II           00000000057380   0000293470080320180123201803080000000000000000000000000                                                00000000000  000   103   00070304663935057380PASSAGEIRO
2000000000507720180122208030PREF. DE: MA - IMPERATRIZ               IPA0147795201801080855R LUIS DOMINGUES ESQ/R PARA                                 NHD6389MA535109     VW/GOL 1.0                                   ALUGUEL                       AUTOMOVEL       VERMELHA  00000000AILZA DE JESUS MATOS DOS SANTOS             RUA DOM EVARISTO ARNES NR. 734          - BOM SUCESSO                           65900000IMPERATRIZ          MADESOBEDECER AS ORDENS DA AUTORIDADE DE TRANSITO/AG195                00000000058350   0000195230080320180123201803080000000000000000000000000                                                00000000000  000   104   00050304664591058350PASSAGEIRO
3000104000000000104
